:020000040800F2
:1000000000000220891100088D1000088F100008E0
:1000100091100008931000089510000800000000DF
:100020000000000000000000000000009710000821
:1000300099100008000000009B1000089D100008A7
:10004000D9110008D9110008D9110008D9110008E8
:10005000D9110008D9110008D9110008D9110008D8
:10006000D9110008D9110008D9110008D9110008C8
:10007000D9110008D9110008D9110008D9110008B8
:10008000D9110008D9110008D9110008D9110008A8
:10009000D9110008D9110008D9110008D911000898
:1000A000D9110008D9110008D9110008D911000888
:1000B000D9110008D9110008D9110008D911000878
:1000C000D9110008D9110008D9110008D911000868
:1000D000D9110008D9110008D9110008D911000858
:1000E000D9110008D9110008D9110008D911000848
:1000F000D9110008D9110008D9110008D911000838
:10010000D9110008D9110008D9110008D911000827
:10011000D9110008D9110008D9110008D911000817
:10012000D9110008D9110008D9110008D911000807
:10013000D91100080000000000000000D9110008DB
:10014000D9110008D9110008D9110008D9110008E7
:10015000D9110008D9110008D9110008D9110008D7
:10016000D9110008D9110008D9110008D9110008C7
:10017000D9110008D911000800000000000000009B
:08018000D9110008D911000893
:1001900010B5054C237833B9044B13B10448AFF3C1
:1001A00000800123237010BDD40100200000000056
:1001B0007045000808B5034B1BB103490348AFF372
:1001C000008008BD00000000D80100207045000834
:1001D00001F0FF01102A2BDB10F0070F08D010F8F8
:1001E000013B013A8B422DD010F0070F42B3F6D1FC
:1001F000F0B441EA012141EA014122F007047FF015
:1002000000070023F0E80256083C85EA010586EA6B
:10021000010685FA47F5A3FA87F586FA47F6A5FAA7
:1002200087F68EB9EED1F0BC01F0FF0102F00702B3
:1002300032B110F8013B013A83EA010313B1F8D15E
:100240000020704701387047002D06BF354603383F
:10025000073815F0010F07D1013015F4807F02BF78
:10026000013015F4C03F0130F0BC0138704700BFC9
:10027000034613F8012B002AFBD1181A01387047E6
:1002800081F0004102E000BF83F0004330B54FEA47
:1002900041044FEA430594EA050F08BF90EA020FB4
:1002A0001FBF54EA000C55EA020C7FEA645C7FEA47
:1002B000655C00F0E2804FEA5454D4EB5555B8BF6A
:1002C0006D420CDD2C4480EA020281EA030382EADB
:1002D000000083EA010180EA020281EA0303362D6D
:1002E00088BF30BD11F0004F4FEA01314FF4801C40
:1002F0004CEA113102D0404261EB410113F0004F52
:100300004FEA03334CEA133302D0524263EB430308
:1003100094EA050F00F0A780A4F10104D5F1200EA6
:100320000DDB02FA0EFC22FA05F2801841F1000101
:1003300003FA0EF2801843FA05F359410EE0A5F1D5
:1003400020050EF1200E012A03FA0EFC28BF4CF006
:10035000020C43FA05F3C01851EBE37101F00045BC
:1003600007D54FF0000EDCF1000C7EEB00006EEBC9
:100370000101B1F5801F1BD3B1F5001F0CD3490853
:100380005FEA30004FEA3C0C04F101044FEA4452AA
:1003900012F5800F80F09A80BCF1004F08BF5FEA31
:1003A000500C50F1000041EB045141EA050130BD11
:1003B0005FEA4C0C404141EB0101013C28BFB1F523
:1003C000801FE9D291F0000F04BF01460020B1FA6E
:1003D00081F308BF2033A3F10B03B3F120020CDA41
:1003E0000C3208DD02F1140CC2F10C0201FA0CF01F
:1003F00021FA02F10CE002F11402D8BFC2F1200C84
:1004000001FA02F120FA0CFCDCBF41EA0C01904039
:10041000E41AA2BF01EB0451294330BD6FEA040482
:100420001F3C1CDA0C340EDC04F11404C4F120026D
:1004300020FA04F001FA02F340EA030021FA04F37F
:1004400045EA030130BDC4F10C04C4F1200220FAD6
:1004500002F001FA04F340EA0300294630BD21FA14
:1004600004F0294630BD94F0000F83F4801306BFDA
:1004700081F480110134013D4EE77FEA645C18BFCE
:100480007FEA655C29D094EA050F08BF90EA020F65
:1004900005D054EA000C04BF1946104630BD91EA5D
:1004A000030F1EBF0021002030BD5FEA545C05D160
:1004B0004000494128BF41F0004130BD14F580049F
:1004C0003CBF01F5801130BD01F0004545F0FE4113
:1004D00041F470014FF0000030BD7FEA645C1ABF48
:1004E000194610467FEA655C1CBF0B46024650EA7F
:1004F000013406BF52EA033591EA030F41F40021AB
:1005000030BD00BF90F0000F04BF0021704730B530
:100510004FF4806404F132044FF000054FF0000105
:1005200050E700BF90F0000F04BF0021704730B5C6
:100530004FF4806404F1320410F0004548BF40429B
:100540004FF000013EE700BF42004FEAE2014FEAF0
:1005500031014FEA02701FBF12F07F4393F07F4FCB
:1005600081F06051704732F07F4208BF704793F0CE
:100570007F4F04BF41F40021704730B54FF46074E1
:1005800001F0004521F000411CE700BF50EA0102E4
:1005900008BF704730B54FF000050AE050EA01028D
:1005A00008BF704730B511F0004502D5404261EBFD
:1005B00041014FF4806404F132045FEA915C3FF43E
:1005C000D8AE4FF003025FEADC0C18BF03325FEADB
:1005D000DC0C18BF033202EBDC02C2F1200300FA8C
:1005E00003FC20FA02F001FA03FE40EA0E0021FAB1
:1005F00002F11444BDE600BF70B54FF0FF0C4CF49F
:10060000E06C1CEA11541DBF1CEA135594EA0C0F50
:1006100095EA0C0F00F0DEF82C4481EA030621EA8B
:100620004C5123EA4C5350EA013518BF52EA0335C6
:1006300041F4801143F4801338D0A0FB02CE4FF078
:100640000005E1FB02E506F00042E0FB03E54FF0A8
:100650000006E1FB03569CF0000F18BF4EF0010EA0
:10066000A4F1FF04B6F5007F64F5407404D25FEA9C
:100670004E0E6D4146EB060642EAC62141EA55514F
:100680004FEAC52040EA5E504FEACE2EB4F1FD0C91
:1006900088BFBCF5E06F1ED8BEF1004F08BF5FEA0F
:1006A000500E50F1000041EB045170BD06F00046C1
:1006B00046EA010140EA020081EA0301B4EB5C046E
:1006C000C2BFD4EB0C0541EA045170BD41F4801166
:1006D0004FF0000E013C00F3AB8014F1360FDEBF8B
:1006E000002001F0004170BDC4F10004203C35DA67
:1006F0000C341BDC04F11404C4F1200500FA05F3EA
:1007000020FA04F001FA05F240EA020001F000428A
:1007100021F0004110EBD37021FA04F642EB060100
:100720005EEA430E08BF20EAD37070BDC4F10C042A
:10073000C4F1200500FA04F320FA05F001FA04F2EE
:1007400040EA020001F0004110EBD37041F10001DA
:100750005EEA430E08BF20EAD37070BDC4F12005E5
:1007600000FA05F24EEA020E20FA04F301FA05F24D
:1007700043EA020321FA04F001F0004121FA04F2F5
:1007800020EA020000EBD3705EEA430E08BF20EAC5
:10079000D37070BD94F0000F0FD101F000464000FF
:1007A00041EB010111F4801F08BF013CF7D041EA81
:1007B000060195F0000F18BF704703F00046520085
:1007C00043EB030313F4801F08BF013DF7D043EA56
:1007D0000603704794EA0C0F0CEA135518BF95EA0C
:1007E0000C0F0CD050EA410618BF52EA4306D1D193
:1007F00081EA030101F000414FF0000070BD50EAB2
:10080000410606BF1046194652EA430619D094EA3B
:100810000C0F02D150EA013613D195EA0C0F05D125
:1008200052EA03361CBF104619460AD181EA030179
:1008300001F0004141F0FE4141F470014FF0000031
:1008400070BD41F0FE4141F4780170BD70B54FF0CC
:10085000FF0C4CF4E06C1CEA11541DBF1CEA13554C
:1008600094EA0C0F95EA0C0F00F0A7F8A4EB05042E
:1008700081EA030E52EA03354FEA013100F0888025
:100880004FEA03334FF0805545EA131343EA1263EE
:100890004FEA022245EA111545EA10654FEA0026A3
:1008A0000EF000419D4208BF964244F1FD0404F55C
:1008B000407402D25B084FEA3202B61A65EB0305B8
:1008C0005B084FEA32024FF480104FF4002CB6EB75
:1008D000020E75EB030E22BFB61A754640EA0C00F5
:1008E0005B084FEA3202B6EB020E75EB030E22BF35
:1008F000B61A754640EA5C005B084FEA3202B6EB76
:10090000020E75EB030E22BFB61A754640EA9C0034
:100910005B084FEA3202B6EB020E75EB030E22BF04
:10092000B61A754640EADC0055EA060E18D04FEAC2
:10093000051545EA16754FEA06164FEAC30343EA62
:1009400052734FEAC2025FEA1C1CC0D111F4801F2F
:100950000BD141EA00014FF000004FF0004CB6E728
:1009600011F4801F04BF01430020B4F1FD0C88BFC7
:10097000BCF5E06F3FF6AFAEB5EB030C04BFB6EBD2
:10098000020C5FEA500C50F1000041EB045170BDC5
:100990000EF0004E4EEA113114EB5C04C2BFD4EBF2
:1009A0000C0541EA045170BD41F480114FF0000E76
:1009B000013C90E645EA060E8DE60CEA135594EAF2
:1009C0000C0F08BF95EA0C0F3FF43BAF94EA0C0FF5
:1009D0000AD150EA01347FF434AF95EA0C0F7FF46A
:1009E00025AF104619462CE795EA0C0F06D152EABE
:1009F00003353FF4FDAE1046194622E750EA4106A2
:100A000018BF52EA43067FF4C5AE50EA41047FF4B2
:100A10000DAF52EA43057FF4EBAE12E74FF0FF3C17
:100A200006E000BF4FF0010C02E000BF4FF0010CE8
:100A30004DF804CD4FEA410C7FEA6C5C4FEA430C61
:100A400018BF7FEA6C5C1BD001B050EA410C0CBFB0
:100A500052EA430C91EA030F02BF90EA020F002012
:100A6000704710F1000F91EA030F58BF994208BF79
:100A700090422CBFD8176FEAE37040F00100704736
:100A80004FEA410C7FEA6C5C02D150EA013C07D18D
:100A90004FEA430C7FEA6C5CD6D152EA033CD3D0D8
:100AA0005DF8040B704700BF8446104662468C46D2
:100AB0001946634600E000BF01B5FFF7B7FF002805
:100AC00048BF10F1000F01BD4DF808EDFFF7F4FF2E
:100AD0000CBF012000205DF808FB00BF4DF808EDB9
:100AE000FFF7EAFF34BF012000205DF808FB00BFDC
:100AF0004DF808EDFFF7E0FF94BF012000205DF8FE
:100B000008FB00BF4DF808EDFFF7CEFF94BF0120B2
:100B100000205DF808FB00BF4DF808EDFFF7C4FFAB
:100B200034BF012000205DF808FB00BF4FEA410CF4
:100B30007FEA6C5C02D150EA013C0AD14FEA430CD7
:100B40007FEA6C5C02D152EA033C02D14FF0000014
:100B500070474FF0010070474FEA410212F5001252
:100B600015D211D56FF47873B3EB625212D94FEAF4
:100B7000C12343F0004343EA505311F0004F23FADE
:100B800002F018BF404270474FF00000704750EA33
:100B9000013005D111F0004008BF6FF000407047F0
:100BA0004FF00000704700BF53B94AB9002908BF91
:100BB00000281CBF4FF0FF314FF0FF3000F088B924
:100BC000ADF1080C6DE904CE00F006F8DDF804E0A4
:100BD000DDE9022304B070472DE9F047089D8E46F9
:100BE00004468846002B4AD18A42174662D9B2FA97
:100BF00082F64EB1C6F1200301FA06F820FA03F39B
:100C0000B74043EA0808B4404FEA174E1FFA87FC82
:100C1000B8FBFEF1230C0EFB118843EA084301FBED
:100C20000CF29A4209D9FB1801F1FF3080F0EA80FA
:100C30009A4240F2E78002393B449A1AA3B2B2FBCF
:100C4000FEF00EFB102243EA024300FB0CFC9C4525
:100C500009D9FB1800F1FF3280F0D6809C4540F2A4
:100C6000D3803B44023840EA0140A3EB0C0300214F
:100C70001DB1F3400022C5E90032BDE8F0878B4288
:100C800005D90DB1C5E9000100210846F5E7B3FA21
:100C900083F1002946D1734502D3824200F20581D7
:100CA000841A6EEB030201209046002DE5D0C5E9C1
:100CB0000048E2E7002A00F09080B2FA82F6002EA7
:100CC00040F0A4808A1A030C4FEA174E80B2BCB2DF
:100CD0000121B2FBFEFC0EFB1C2243EA024304FB93
:100CE0000CF29A4207D9FB180CF1FF3802D29A4253
:100CF00000F2E080C4469B1AB3FBFEF20EFB1233F7
:100D000040EA034302FB04F49C4207D9FB1802F1BA
:100D1000FF3002D29C4200F2CA8002461B1B42EA0C
:100D20000C40A5E7C1F120068B4022FA06F71F43CD
:100D30000EFA01F420FA06F32EFA06FE4FEA1749DE
:100D4000234300FA01F81FFA87FCBEFBF9F01C0CE4
:100D500009FB10EE44EA0E4400FB0CFEA64502FA25
:100D600001F209D93C1900F1FF3A80F09C80A645B8
:100D700040F2998002383C44A4EB0E041FFA83FE33
:100D8000B4FBF9F309FB13444EEA044403FB0CFCE7
:100D9000A44508D93C1903F1FF3E80F08280A445A8
:100DA0007FD9023B3C4443EA0040A4EB0C04A0FB87
:100DB00002EC64457346E14662D35FD05DB1B8EBA7
:100DC000030264EB090404FA06F622FA01F31E4357
:100DD000CC40C5E9006400214FE7B1FBF2FC010CF7
:100DE00041EA0E4180B240EA01423B4638463C4669
:100DF000B846BE462026B1FBF7F1A2EB080241EA55
:100E00000C4166E7014618E710462CE7C6F12002C0
:100E10002EFA02F3B740B14020FA02F24FEA174E21
:100E20000A43B3FBFEF8BCB20EFB1833110C41EAC7
:100E3000034108FB04F9B04089454FEA104380B2F2
:100E40003ED9791808F1FF3C01D289451FD8A1EBA2
:100E50000901B1FBFEF909FB04F80EFB191192B26E
:100E600042EA0142424529D2BA1809F1FF31C4D2FF
:100E70004245C2D2A9F102013A44BEE7F0459DD2F3
:100E8000BEEB02036CEB070C0138E14696E7A7EBDB
:100E900009094944A8F1020CB1FBFEF909FB04F869
:100EA000DBE773467FE7504666E70846FDE63B44CE
:100EB000023A33E7ACF1020C3B441CE749469CE79D
:100EC000A1EB0901C446B1FBFEF909FB04F8C4E734
:100ED000704700BF704708B5002000F0C7F96420D4
:100EE00000F001F8F8E708B500F02AFA08BD72B67C
:100EF000FEE7000000B595B03022002108A801F0FF
:100F000012FC002303930493059306930793019324
:100F10001F4A116C41F080511164126C02F0805232
:100F20000192019A02931B4B1A6842F480421A60A4
:100F30001B6803F480430293029B012308934FF440
:100F40008033099302230E934FF480020F921922EB
:100F50001092C022119212930423139308A800F058
:100F60006DFB88B90F230393022304930023059399
:100F70004FF4805206920793032103A800F0C8FDA6
:100F800020B915B05DF804FBFFF7B1FFFFF7AFFF25
:100F9000003802400070004000B589B000F0A4F9AC
:100FA000FFF7A8FF00220092294B596C41F48041C1
:100FB0005964596C01F48041009100990192196CB7
:100FC00041F080511964196C01F08051019101992F
:100FD0000292196B41F001011963196B01F00101D3
:100FE000029102990392196B41F002011963196B86
:100FF00001F00201039103990492196B41F004017D
:101000001963196B01F00401049104990592196B9D
:1010100041F008011963196B01F008010591059968
:101020000692196B41F010011963196B01F0100160
:101030000691069907921A6B42F080021A631B6BA5
:1010400003F080030793079B012009B05DF804FBC0
:101050000038024082B0002100910B4B5A6C42F4E0
:1010600080425A645A6C02F480420092009A0191C4
:101070001A6C42F080521A641B6C03F08053019387
:10108000019B02B0704700BF00380240FEE7FEE758
:10109000FEE7FEE7FEE770477047704708B500F0CF
:1010A0003DF908BD0120704708B501F08FFB1623FC
:1010B00003604FF0FF3008BD08B54FF0FF31FFF778
:1010C000F3FFFEE770B50C461646002506E0AFF3C9
:1010D0000080214601F8010B01350C46B542F6DBD4
:1010E000304670BD70B50C461646002504E014F875
:1010F000010BAFF300800135B542F8DB304670BD1F
:101100004FF0FF3070474FF400534B6000207047A2
:10111000012070470020704710B503460C4A0D4966
:101120000D48006840B10C4800680344521A9342CD
:1011300006D8094A136010BD0748084C0460F2E75E
:1011400001F044FB0C2303604FF0FF30F3E700BFD6
:101150000000022000040000F001002048030020ED
:10116000034AD2F8883043F47003C2F888307047DD
:1011700000ED00E008B500F089F8FFF7ABFEFFF7DF
:10118000AAFE002008BD0000DFF834D0FFF7E8FF1A
:101190000C480D490D4A002302E0D458C4500433D2
:1011A000C4188C42F9D30A4A0A4C002301E01360A8
:1011B0000432A242FBD301F00FFBFFF7DBFF7047C5
:1011C0000000022000000020D40100204449000853
:1011D000D401002044030020FEE7000010B58AB0CF
:1011E00000240594069407940894099401941D4BD7
:1011F0001A6B42F004021A631A6B02F004020192A5
:10120000019A02941A6B42F080021A631A6B02F080
:1012100080020292029A03941A6B42F001021A634E
:101220001A6B02F001020392039A04941A6B42F0C3
:1012300002021A631B6B03F002030493049B012355
:1012400006930AE0084B03EBC4029288059205A9B5
:1012500053F8340000F0F2F80134042CF2D90120E4
:101260000AB010BD0038024098450008042800D993
:10127000704708B5044B03EBC002918853F8300067
:1012800000F0D2F908BD00BF9845000808B5FFF787
:1012900083FEFFF7A3FF012008BD000010B5044640
:1012A0000E4B1A784FF47A73B3FBF2F30C4A1068C2
:1012B000B0FBF3F000F0AEF868B90F2C01D90120B3
:1012C0000AE0002221464FF0FF3000F093F8054B72
:1012D0001C60002000E0012010BD00BF04000020C1
:1012E000000000200800002008B50B4B1A6842F4EB
:1012F00000721A601A6842F480621A601A6842F436
:1013000080721A60032000F063F80F20FFF7C6FF19
:10131000FFF7A0FE002008BD003C0240034A116810
:10132000034B1B780B441360704700BFF40100208F
:1013300004000020014B1868704700BFF401002032
:1013400038B50446FFF7F6FF0546B4F1FF3F02D07B
:10135000044B1B781C44FFF7EDFF401BA042FAD35F
:1013600038BD00BF04000020002808DB0901C9B215
:1013700000F1604000F5614080F80013704700F014
:101380000F000901C9B2014B1954704714ED00E078
:1013900000B500F00700C0F1070CBCF1040F28BF36
:1013A0004FF0040C031D062B0FD9C31E4FF0FF3E58
:1013B0000EFA0CF021EA000199400EFA03FE22EA2F
:1013C0000E0241EA02005DF804FB0023EEE7000094
:1013D000074AD36823F4E0631B041B0C000200F4EB
:1013E000E060034343F0BF6343F40033D3607047CE
:1013F00000ED00E010B50446054BD868C0F30220AC
:10140000FFF7C6FF01462046FFF7AEFF10BD00BF45
:1014100000ED00E00138B0F1807F0BD24FF0E02307
:101420005861054AF02182F82310002098610722B4
:101430001A6170470120704700ED00E000230F2B78
:1014400000F2E98070B582B065E085684FEA430E2E
:10145000032404FA0EF425EA0405CC6804FA0EF419
:101460002C438460446824EA02044A68C2F30012F0
:101470009A40224342605CE0DC08083450F82420A3
:1014800003F00705AD004FF00F0E0EFA05FE22EA3D
:101490000E0E0A69AA4042EA0E0240F824205CE0DF
:1014A000072200E0002202FA0EF22A4302345A4DCB
:1014B00045F82420594A94686FEA0C0224EA0C0586
:1014C0004E6816F4801F01D04CEA0405534CA56009
:1014D000E46802EA04054E6816F4001F01D04CEAE5
:1014E00004054E4CE560646802EA04054E6816F493
:1014F000003F01D04CEA0405484C65602468224056
:101500004D6815F4803F01D04CEA0402434C226040
:1015100001330F2B7DD801229A400C6804EA020C9B
:1015200032EA0404F4D14C6804F00304013C012CB9
:101530008BD94A6802F00302032A09D0C4685D000F
:101540000322AA4024EA02048A68AA402243C26015
:101550004A6802F00302022A8ED004684FEA430E62
:10156000032202FA0EF224EA02044A6802F003029D
:1015700002FA0EF2224302604A6812F4403FC7D0DA
:1015800000220192264A546C44F480445464526C04
:1015900002F480420192019A9C08A51C1E4A52F84E
:1015A000255003F0030E4FEA8E0E0F2202FA0EF2C0
:1015B00025EA02051B4A90423FF474AF02F58062AF
:1015C00090421AD002F58062904218D002F58062F3
:1015D000904216D002F58062904214D002F58062EB
:1015E000904212D002F58062904210D002F58062E3
:1015F00090423FF455AF082255E7012253E70222FB
:1016000051E703224FE704224DE705224BE706226C
:1016100049E702B070BD704700380140003C01400E
:101620000038024000000240436901EA030221EA57
:10163000030141EA0241816170470000002800F087
:10164000E08170B582B00446036813F0010F3BD00F
:101650009F4B9B6803F00C03042B2CD09C4B9B6886
:1016600003F00C03082B21D06368B3F5803F4FD003
:10167000B3F5A02F52D0964B1A6822F480321A602C
:101680001A6822F480221A606368002B50D0FFF79A
:1016900051FE05468E4B1B6813F4003F14D1FFF733
:1016A00049FE401B6428F5D90320B1E1884B5B68F3
:1016B00013F4800FD8D0864B1B6813F4003F03D07F
:1016C0006368002B00F09F81236813F0020F54D051
:1016D0007F4B9B6813F00C0F3ED07D4B9B6803F053
:1016E0000C03082B33D0E368002B68D0794B012220
:1016F0001A60FFF71FFE0546754B1B6813F0020FBB
:1017000054D1FFF717FE401B0228F5D903207FE1D3
:101710006F4A136843F480331360B5E76C4B1A6863
:1017200042F480221A601A6842F480321A60ABE7F1
:10173000FFF700FE0546664B1B6813F4003FC3D05D
:10174000FFF7F8FD401B6428F5D9032060E1604BEA
:101750005B6813F4800FC6D15D4B1B6813F0020F5A
:1017600003D0E368012B40F05081594A136823F0FD
:10177000F803216943EAC1031360236813F0080FDB
:1017800042D063696BB3534B0122C3F8802EFFF73D
:10179000D1FD05464E4B5B6F13F0020F34D1FFF7BE
:1017A000C9FD401B0228F5D9032031E1484A1368DE
:1017B00023F0F803216943EAC1031360DDE7454BD9
:1017C00000221A60FFF7B6FD0546414B1B6813F077
:1017D000020FD2D0FFF7AEFD401B0228F5D903203F
:1017E00016E13C4B0022C3F8802EFFF7A3FD05460F
:1017F000374B5B6F13F0020F06D0FFF79BFD401BCA
:101800000228F5D9032003E1236813F0040F77D0F1
:101810002F4B1B6C13F0805F33D1002301932C4BB3
:101820001A6C42F080521A641B6C03F080530193CF
:10183000019B0125284B1B6813F4807F23D0A368EC
:10184000012B34D0052B38D0214B1A6F22F0010226
:101850001A671A6F22F004021A67A368002B3DD0A2
:10186000FFF768FD06461A4B1B6F13F0020F46D1B7
:10187000FFF760FD801B41F288339842F3D90320C3
:10188000C6E00025D6E7144A136843F4807313605A
:10189000FFF750FD0646104B1B6813F4807FCED136
:1018A000FFF748FD801B0228F5D90320B0E0084A65
:1018B000136F43F001031367CFE7054B1A6F42F034
:1018C00004021A671A6F42F001021A67C5E700BFE7
:1018D000003802400000474200700040FFF72AFD38
:1018E0000646524B1B6F13F0020F08D0FFF722FD84
:1018F000801B41F288339842F3D9032088E0EDB988
:10190000A369002B00F08380484A926802F00C0221
:10191000082A51D0022B17D0454B00221A66FFF738
:1019200009FD0446414B1B6813F0007F42D0FFF7CE
:1019300001FD001B0228F5D9032069E03B4A136C26
:1019400023F080531364DBE7394B00221A66FFF75C
:10195000F1FC0546354B1B6813F0007F06D0FFF7FE
:10196000E9FC401B0228F5D9032051E0E369226A13
:101970001343626A43EA8213A26A5208013A43EAB5
:101980000243E26A43EA0263284A5360284B012279
:101990001A66FFF7CFFC0446244B1B6813F0007F48
:1019A00006D1FFF7C7FC001B0228F5D903202FE062
:1019B00000202DE000202BE0012B2BD01B4B5B687F
:1019C00003F48001E269914226D103F03F02216ACB
:1019D0008A4223D1616A47F6C0721A40B2EB811F76
:1019E0001ED103F44031A26A5208013AB1EB024F12
:1019F00018D103F07063E26AB3EB026F14D10020D8
:101A000006E001207047012002E0012000E00020F4
:101A100002B070BD0120FBE70120F9E70120F7E7E4
:101A20000120F5E70120F3E70120F1E7003802404B
:101A30000000474208B5334B9B6803F00C03042BAE
:101A40005BD0082B5BD12F4B5A6802F03F025B68DA
:101A500013F4800F2CD02B4B5868C0F388104FEA3A
:101A6000401CBCEB000C6EEB0E0E4FEA8E1343EAEB
:101A70009C634FEA8C11B1EB0C0163EB0E03DB00AE
:101A800043EA5173C90011EB000C43F10003590202
:101A900000234FEA4C2041EADC51FFF785F8194B4F
:101AA0005B68C3F3014301335B00B0FBF3F008BD97
:101AB000144B5868C0F388104FEA401CBCEB000C74
:101AC0006EEB0E0E4FEA8E1343EA9C634FEA8C11C5
:101AD000B1EB0C0163EB0E03DB0043EA5173C90069
:101AE00011EB000C43F10003990200234FEA8C2014
:101AF00041EA9C51FFF758F8D1E70348D7E703487C
:101B0000D5E700BF0038024000127A000024F4003C
:101B1000002800F09B8070B50D4604464F4B1B68B3
:101B200003F007038B4208D2CBB24C4A1370136800
:101B300003F007038B4240F08B80236813F0020F01
:101B400017D013F0040F04D0454A936843F4E053D0
:101B50009360236813F0080F04D0414A936843F45C
:101B6000604393603E4A936823F0F003A1680B43FF
:101B70009360236813F0010F32D06368012B21D0EA
:101B80009A1E012A25D9364A126812F0020F61D036
:101B900033498A6822F0030213438B60FFF7CAFBC4
:101BA00006462F4B9B6803F00C036268B3EB820F71
:101BB00016D0FFF7BFFB801B41F288339842F0D963
:101BC000032042E0264A126812F4003FE0D10120CF
:101BD0003BE0234A126812F0007FD9D1012034E0A3
:101BE0001E4B1B6803F00703AB4207D9EAB21B4B3D
:101BF0001A701B6803F00703AB422DD1236813F062
:101C0000040F06D0164A936823F4E053E1680B43AF
:101C10009360236813F0080F07D0114A936823F4E8
:101C20006043216943EAC1039360FFF703FF0C4B54
:101C30009B68C3F303130B4AD35CD8400A4B18606C
:101C40000A4B1868FFF72AFB002070BD012070477F
:101C50000120FAE70120F8E70120F6E7003C024006
:101C600000380240884500080000002008000020DD
:101C70002DE9FF4757EC106B002F0C4619463B46E9
:101C8000BBBF07F100431F4600232D230B700D9BA4
:101C9000DDF830A0914623F02008BCBF324616463E
:101CA000B8F1460F05D0B8F1450F00D1013402213B
:101CB00000E0032103AB019302AB009347EC106BF0
:101CC0005346224600F038FEB8F1470F054619D1B9
:101CD00019F0010F0ED000EB04090022002330465A
:101CE0003946FEF7F1FE08B1CDF80C903022039B87
:101CF0004B451ED3039B0E9A5B1B2846136004B012
:101D0000BDE8F087B8F1460F00EB0409E5D1037890
:101D1000302B0AD10022002330463946FEF7D4FE8C
:101D200018B9C4F10104CAF80040DAF80030994447
:101D3000D3E7591C03911A70D9E7F7B50029BABF48
:101D400049422D232B2309290270437029DD0DF10F
:101D500007031D460A271A46B1FBF7F607FB1614C0
:101D6000303402F8014C0C46632C03F1FF3331464A
:101D7000F1DC3031941E03F8011C411C2346AB42B8
:101D80000AD30DF109039B1AAC4288BF002302332A
:101D90000344181A03B0F0BD13F8016B01F8016F8A
:101DA000EDE7302330318370C170031DF1E700008F
:101DB0002DE9F04F8DB00C46DDF8588016461F46D1
:101DC000054600F0B9FC036804931846FEF750FA84
:101DD00000230A93D8F800300590073323F0070357
:101DE00003F1080294F818A0D4F800B0C8F8002055
:101DF000D3E9008929F000430793CDF81880C4E99E
:101E00001289DDE906019C4B4FF0FF32FEF78EFE92
:101E100070BBDDE90601984B4FF0FF32FEF768FE1C
:101E200030BB0022002340464946FEF757FE10B162
:101E30002D2384F84330914A914BBAF1470F8CBF60
:101E400090469846032323612BF0040323604FF050
:101E50000009009733460BAA2146284600F0D2F924
:101E6000013040F08D804FF0FF300DB0BDE8F08FB5
:101E700042464B4640464946FEF758FE40B14B4667
:101E8000002BBCBF2D2384F843307E4A7E4BD4E721
:101E900063680AF0DF0206925A1C3BD10623636096
:101EA0004BF480620023226003930AABCDE901A3C7
:101EB00009AB0093616849EC108B0DF123032846B0
:101EC000FFF7D6FE069B0999472B804629D1C81CEF
:101ED00002DB6368994241DDAAF1020A5FFA8AFADD
:101EE0000139524604F150000991FFF726FF0A9A82
:101EF0001318012A8146236102DC2268D20701D52A
:101F0000013323619DF82330002BA2D02D2384F8C8
:101F100043309EE7069A472AC2D1002BC0D1012345
:101F2000BDE7BAF1650FDBD9BAF1660F18D1002908
:101F300063680BDD216113B92268D00702D5013334
:101F40000B442361A1654FF00009DBE713B9226858
:101F5000D20701D50233F4E70123F2E74FF0670A15
:101F60000A9B994205DB23682161D807EAD54B1CFF
:101F7000E7E70029D4BFC1F1020201221344E0E7E0
:101F800023685A0507D42369424631462846B84794
:101F900001302BD167E7BAF1650F40F2DD80D4E95B
:101FA000120100220023FEF78FFD002833D0374AAC
:101FB000012331462846B84701303FF454AFDDE9EC
:101FC0000938434502DB2368D8070FD5DDE9042330
:101FD00031462846B84701303FF445AF4FF000097D
:101FE00008F1FF3804F11A0AC84509DC23689B0789
:101FF00000F10381E0680B9B9842B8BF184634E7B4
:102000000123524631462846B84701303FF42BAFF2
:1020100009F10109E8E7099B002B39DC1B4A012380
:1020200031462846B84701303FF41DAFDDE9093994
:1020300059EA030302D12368D907D7D5DDE9042380
:1020400031462846B84701303FF40DAF4FF0000A43
:1020500004F11A0B099B5B42534501DC4B4693E7A5
:1020600001235A4631462846B84701303FF4FBAEBB
:102070000AF1010AEEE700BFFFFFEF7FC445000849
:10208000C0450008CC450008C8450008D0450008F8
:10209000A36DDDF828A05345A8BF5346002B9946F1
:1020A00036DC4FF0000B29EAE97904F11A02A36D3E
:1020B0000693A3EB09035B4531DC099B9A453ADCA7
:1020C0002368DA0737D4099BAAEB0309069BAAEB1E
:1020D00003039945A8BF9946B9F1000F33DC4FF0CF
:1020E000000829EAE97904F11A0B099BAAEB03031A
:1020F000A3EB090343457FF779AF01235A463146E5
:102100002846B84701303FF4AEAE08F10108ECE7CD
:10211000424631462846B8470130C2D1A3E60123E2
:10212000314628460692B84701303FF49CAE069AE5
:102130000BF1010BBBE7DDE9042331462846B84724
:102140000130C0D18FE6069A4B46424431462846BC
:10215000B8470130C3D186E6DDF828A0BAF1010FF7
:1021600001DCDB0736D50123424631462846B84715
:1021700001303FF478AEDDE9042331462846B84704
:1021800001303FF470AED4E91201002200230AF1BD
:10219000FF3AFEF799FCC0B9534608F101023146F7
:1021A0002846B84701300CD15DE601235A46314636
:1021B0002846B84701303FF456AE08F10108D04533
:1021C000F3DB4B4604F15002DFE64FF0000804F168
:1021D0001A0BF4E701234246E1E701234A46314660
:1021E0002846B84701303FF43EAE08F10108E368E5
:1021F0000B995B1A4345F0DCFCE64FF0000804F154
:102200001909F4E72DE9F047164698468A680B69E4
:10221000DDF820909342B8BF1346336091F8432015
:1022200007460C460AB1013333602368990642BF62
:10223000336802333360256815F0060506D104F1D2
:10224000190AE36832689B1AAB4226DC94F84330E3
:102250002268003B18BF012392062BD404F14302ED
:1022600041463846C84701301ED02368226903F032
:102270000603042B02BFE5683368ED1AA3680CBFA0
:1022800025EAE57500259342C4BF9B1AED18002688
:102290001A34B5421AD1002008E0012352464146C3
:1022A0003846C847013003D14FF0FF30BDE8F08712
:1022B0000135C6E7E1185A1C302081F8430022445A
:1022C00094F8451082F843100233C7E701232246F1
:1022D00041463846C8470130E6D00136D9E700000C
:1022E0002DE9FF470F7E0C9E782F914680460C46C5
:1022F0009A4601F1430207D8622F0AD8002F00F056
:10230000D180582F00F0B88004F1420684F8427062
:102310003AE0A7F16303152BF6D801A151F823F099
:10232000792300088D2300080923000809230008E9
:1023300009230008092300088D2300080923000849
:102340000923000809230008092300088B2400083A
:10235000B7230008452400080923000809230008C2
:10236000AD24000809230008B7230008092300084A
:10237000092300084D24000833681A1D1B683260C9
:1023800004F1420684F8423001239CE0336820685F
:10239000191D3160060601D51D6803E04506FBD511
:1023A000B3F90050002D03DA2D236D4284F8433039
:1023B00058480A2311E021683368080653F8045B83
:1023C00002D4490648BFADB26F2F5248336014BFE4
:1023D0000A230823002184F843106668A660002EB3
:1023E00005DB21682E4321F0040121604BD0164605
:1023F000B5FBF3F103FB1157C75D06F8017D2F46CE
:10240000BB420D46F4D9082B0BD12368DF0708D552
:10241000236961689942DEBF302306F8013C06F16A
:10242000FF36921B2261CDF800A04B4603AA21463D
:102430004046FFF7E7FE01304AD14FF0FF3004B0CD
:10244000BDE8F087236843F02003236032487827F3
:1024500084F84570236831681F0651F8045B02D484
:102460005F0648BFADB23160D90744BF43F02003D7
:1024700023601DB11023ADE72648E9E7236823F068
:1024800020032360F6E71646BDE7336825686169D7
:10249000181D30602E061B6801D5196002E0680621
:1024A000FBD51980002323611646BCE733681A1D4B
:1024B00032601E68626800213046FDF789FE08B16F
:1024C000801B606063682361002384F84330AAE7BF
:1024D0002369324649464046D0470130ADD0236893
:1024E0009B0713D4E068039B9842B8BF1846A6E741
:1024F0000123324649464046D04701309DD0013540
:10250000E36803995B1AAB42F2DCEBE7002504F1C8
:102510001906F5E7D2450008E3450008002310B589
:102520000446C0E90033C0E9043383608181436617
:10253000C2818361194608225C3000F0F4F80D4B2B
:1025400063620D4BA3620D4BE3620D4B23630D4B96
:1025500024629C4206D003F16802944202D0D03338
:102560009C4205D104F15800BDE8104000F058B974
:1025700010BD00BFA1260008C3260008FB260008E6
:102580001F270008F8010020024A0349034800F011
:1025900069B800BF0C000020D53E00081C000020D8
:1025A00041680C4B994210B5044601D001F092FCF1
:1025B000A168094B994202D0204601F08BFCE168EA
:1025C000064B994204D02046BDE8104001F082BC81
:1025D00010BD00BFF801002060020020C8020020EA
:1025E00010B50B4B0B4C0C4A1A60204600220421FC
:1025F000FFF794FF04F1680001220921FFF78EFF25
:1026000004F1D0000222BDE810401221FFF786BF7E
:1026100030030020F801002089250008014800F05F
:1026200000B900BF39030020014800F0FBB800BF2B
:102630003903002010B50446FFF7F0FF236A1BB1F1
:10264000BDE81040FFF7F0BF044B2362044B1B684A
:10265000002BF5D1FFF7C4FFF2E700BFA12500086A
:10266000300300202DE9F84307468846144600262B
:10267000D4E90195B9F1010905D52468002CF7D1F9
:102680003046BDE8F883AB89012B07D9B5F90E3088
:10269000013303D029463846C04706436835E9E789
:1026A00010B50C46B1F90E1000F06CF80028ABBF65
:1026B000636DA3891B1823F48053ACBF6365A381AA
:1026C00010BD2DE9F0411F468B89DB0505460C4600
:1026D000164605D5B1F90E100223002200F040F88D
:1026E000A389B4F90E1023F48053A38132463B46EC
:1026F0002846BDE8F04100F057B810B50C46B1F9D6
:102700000E1000F02DF8431CA38915BF606523F45B
:10271000805343F48053A38118BFA38110BDB1F946
:102720000E1000F00DB802440346934200D17047EA
:1027300003F8011BF9E7000000487047580100202A
:1027400038B5064D0023044608462B60FEF7D8FC3A
:10275000431C02D12B6803B1236038BD3403002031
:1027600038B5074D04460846114600222A601A462D
:10277000FEF7D0FC431C02D12B6803B1236038BDA7
:102780003403002038B5074D0446084611460022A0
:102790002A601A46FEF796FC431C02D12B6803B14F
:1027A000236038BD3403002038B5074D0446084681
:1027B000114600222A601A46FEF794FC431C02D1FF
:1027C0002B6803B1236038BD34030020014B186827
:1027D000704700BF1800002070B50D4D0D4C641BF4
:1027E000A4100026A64209D10B4D0C4C01F0C0FEEE
:1027F000641BA4100026A64205D170BD55F8043B09
:1028000098470136EEE755F8043B98470136F2E762
:102810003C4900083C4900083C4900084049000880
:102820007047704770472DE9F74F03690C69A34261
:1028300007467EDB013C01F11408A30000F11405FA
:10284000009305EB8403019358F8243055F82420B5
:1028500001339A4208EB8409B2FBF3F62ED34FF012
:10286000000AC446AE46D3465CF8043B98B206FB69
:1028700000A0020C1B0C06FB0323DEF8002080B234
:1028800092B2121A5A44DEF800004FEA134A9BB281
:10289000C3EB224303EB104392B242EA0342E14509
:1028A0004EF8042B4FEA234BDED2009BEB582BB99A
:1028B000019B043B9D421A462FD33C61384601F0F0
:1028C0007DF9002825DB2946002058F8042BD1F893
:1028D00000C01FFA82FE1FFA8CF3A3EB0E03034421
:1028E000120CC2EB234202EB1C429BB243EA0243AE
:1028F000C14541F8043B4FEA2240E6D255F8242076
:1029000005EB840322B9043B9D421A460BD33C617C
:102910000136304603B0BDE8F08F1268043B002A50
:10292000CBD1013CC6E71268043B002AEFD1013C41
:10293000EAE70020EEE700002DE9F04FC76997B005
:102940008DED040B55EC104B209E079181460C92A7
:1029500011937FB9102000F009FE0246C9F81C004F
:1029600020B9A94BEF21A94801F0FAFAC0E9017793
:102970000760C760D9F81C30196859B15A684A60B5
:10298000012393408B60484600F0E6FED9F81C30E6
:1029900000221A602B1EB9BF23F0004305930023C9
:1029A0003360059F9A4BBCBF01223260BB4312D1FA
:1029B000119A42F20F731360C7F31303234300F01D
:1029C0005A85219BDFF85CA2002B00F05C850AF1A0
:1029D000030300F056BD9DED047B002251EC170B64
:1029E00000238DED0A7BFEF76FF8804658B1119AEF
:1029F00001231360219B13B1219A864B1360DFF8EA
:102A000028A200F040BD9DED0A0B14AA15A9484666
:102A100001F084F9C7F30A560290002E78D00B9B80
:102A2000CDF84880C3F31303DDE90A0143F07F5377
:102A300043F44013A6F2FF3619460022764BFDF709
:102A400023FC6BA3D3E90023FDF7D6FD6AA3D3E9EA
:102A50000023FDF71BFC044630460D46FDF762FDE2
:102A600067A3D3E90023FDF7C7FD02460B462046C6
:102A70002946FDF70BFC04460D46FEF76DF80022D3
:102A80000746002320462946FEF728F840B138467D
:102A9000FDF748FD22462B46FEF716F800B9013F28
:102AA000162F52D85D4B03EBC703D3E90023DDE9B2
:102AB0000A01FEF713F8002849D0013F00231093C4
:102AC000149B9B1B5A1E45BFC3F1010300930023B7
:102AD0000023069254BF00930693002F39DB069B18
:102AE0000D973B44069300230893079B092B63D85B
:102AF000052BC4BF043B0793079BA3F10203CCBF84
:102B000000240124032B63D8DFE803F05254372B51
:102B1000DDE914631E4406F23243202BC1BFC3F12A
:102B200040039F4006F2124324FA03F3D6BFC3F1D9
:102B3000200347EA030004FA03F0FDF7E3FC012257
:102B4000A1F1F873013E129276E70123B7E71090E6
:102B5000B6E7009BDB1B00937B42089300230D9399
:102B6000C3E7012309930C9B07EB030B0BF1010354
:102B7000012B0393B8BF012306E0012309930C9BAB
:102B8000002B28DD9B460393D9F81C00002104226A
:102B900002F114059D4226D94160484600F09CFD93
:102BA0008246002842D11E4B024640F2AF11DAE6BF
:102BB0000023E3E70023D5E70124002307930994CA
:102BC0004FF0FF3B0022CDF80CB012230C92DBE754
:102BD00001230993F4E74FF0010BCDF80CB05B46ED
:102BE000CDF830B0D0E701315200D1E7AFF300802B
:102BF00061436F63A787D23FB3C8608B288AC63F03
:102C0000FB799F501344D33F014600081846000843
:102C10000000F07FD14500080000F83F6847000839
:102C200070460008FD450008D0450008D9F81C3062
:102C30001860039B0E2B00F2A180002C00F09E80F8
:102C4000002F33DD9C4B07F00F0203EBC20393ED23
:102C5000007BF8058DED0E7B4FEA271416D5974BB8
:102C6000DDE90A01D3E90823FDF7F0FDCDE9040110
:102C700004F00F040326914D54B9DDE90E23DDE97C
:102C80000401FDF7E3FDCDE9040128E00226F2E7A7
:102C9000E10708D5DDE90E01D5E90023FDF7ACFC1D
:102CA000CDE90E01013664100835E5E700F0AF808C
:102CB0007C42814B814D04F00F0203EBC203D3E948
:102CC0000023DDE90A01FDF797FCCDE90401241199
:102CD00000230226002C40F08F80002BD3D1109BC4
:102CE000DDE90445002B00F09480754B002220465E
:102CF0002946FDF7F3FE002800F08B80039B002B94
:102D000000F08780BBF1000F34DD20466D4B0022C0
:102D10002946FDF771FCCDE9040107F1FF380136C2
:102D20005C463046FDF7FEFBDDE90423FDF764FC5D
:102D3000654B0022FDF7AAFA0546A1F15076002C5A
:102D40006AD1DDE90401614B0022FDF79DFA0246DC
:102D50000B46CDE904232A463346FDF7DDFE002865
:102D600040F09882DDE904012A4606F10043FDF7B0
:102D7000B5FE38BBDDE90A34CDE90434159B002BE0
:102D8000C0F257810E2F00F354814B4B03EBC70366
:102D900093ED007B0C9B002B8DED007B80F2E5809A
:102DA000039B002B00F3E1800CD1484B002251EC37
:102DB000170BFDF721FCDDE90423FDF7A3FE002836
:102DC00000F06682002425460C9B56466FEA0308F5
:102DD00000272146484600F0BFFC002D00F0BD80D2
:102DE0002FB1AF4203D03946484600F0B5FC294622
:102DF000484600F0B1FCB0E0E20705D5D5E9002374
:102E0000FDF7FAFB013601236410083562E702265C
:102E100065E7039CB84684E7274B099903EBC40395
:102E200053E902235444002954D029490020FDF7D6
:102E30000DFD33462A46FDF727FACDE90E01564629
:102E4000DDE90401FDF788FE0546FDF76BFB024650
:102E50000B46DDE90401FDF717FA303502460B4653
:102E6000CDE9042306F8015BDDE90E23FDF736FE0C
:102E7000002872D1DDE9042311490020FDF704FA8E
:102E8000DDE90E23FDF72AFE002840F0B480A642BB
:102E90003FF470AFDDE90E010A4B0022FDF7ACFBF9
:102EA000084BCDE90E010022DDE90401FDF7A4FB8A
:102EB000CDE90401C4E700BF6847000840470008A7
:102EC0000000F03F0000244000001C4000001440BF
:102ED0000000E03F31462846FDF78EFBCDE90E01AC
:102EE00013945646DDE90401FDF736FE0546FDF76D
:102EF00019FB02460B46DDE90401FDF7C5F9303543
:102F000006F8015B02460B46A642CDE904234FF0CA
:102F1000000224D1AF4BDDE90E01FDF7B7F90246FF
:102F20000B46DDE90401FDF7F7FD002863D1DDE97B
:102F30000E23A8490020FDF7A7F902460B46DDE95C
:102F40000401FDF7CBFD00283FF414AF139E731E60
:102F5000139316F8013C302BF8D047463BE09E4BCC
:102F6000FDF74AFBCDE90401BCE7DDE9044556461F
:102F7000DDE9002320462946FDF768FCFDF7ECFD5E
:102F80008046FDF7CFFADDE90023FDF735FB024669
:102F90000B462046294608F13004FDF775F906F87E
:102FA000014B039DA6EB0A04A54202460B4633D112
:102FB000FDF76CF9DDE9002304460D46FDF7ACFD95
:102FC000C0B9DDE9002320462946FDF77DFD10B19B
:102FD00018F0010F0ED10299484600F0BDFB002306
:102FE0003370119B01371F60219B002B00F04B8237
:102FF0001E6048E2B84633461E4613F8012D392AB2
:1030000006D19A45F8D1302208F101088AF800204B
:103010001A7801321A70A0E76F4B0022FDF7ECFA24
:103020000022002304460D46FDF74EFD00289FD0E8
:10303000D1E7099A002A00F0EA80079A012A00F3F2
:10304000CD80129A002A00F0C18003F23343089C1D
:10305000009E009A1A440092069A01211A4448469A
:10306000069200F02DFC054666B1069B002B09DD9B
:10307000B342009AA8BF3346D21A0092069AF61AB3
:10308000D31A0693089B0BB3099B002B00F0C68054
:10309000002C00F0C08029462246484600F0C8FCBB
:1030A000029A01460546484600F020FC02998046F7
:1030B000484600F051FB089B1B1B089300F0B180B1
:1030C000089A4146484600F0B3FC02900121484668
:1030D00000F0F6FB0D9B0446002B00F0D8811A4649
:1030E0000146484600F0A4FC079B012B044600F370
:1030F0009F80049B002B40F09780059BC3F3130334
:10310000002B40F09380059B23F000431B0D1B0513
:1031100033B1009B01330093069B013306930123D7
:1031200008930D9B002B00F0B881236904EB830307
:10313000186900F079FBC0F12000069B184410F0DC
:103140001F0000F08280C0F12003042B73DD009B80
:10315000C0F11C0003440093069B034406440693FD
:10316000009B002B05DD02991A46484600F0BAFC88
:103170000290069B002B05DD21461A46484600F0CA
:10318000B1FC0446109B002B61D00298214600F050
:1031900015FD00285BDA002302990A22484600F058
:1031A000FDFA099B029007F1FF38002B00F07781B0
:1031B000294600230A22484600F0F0FABBF1000F2E
:1031C00005466FDC079B022B49DC6BE0149BC3F1C7
:1031D00036033CE70000E03F00002440039B5C1EF8
:1031E000089BA34209DB1C1B039B002BBFF630AFDF
:1031F000009B039A9E1A00232BE7089B0D9A0894C4
:10320000E31A1A44009E039B0D92002421E7089CB8
:10321000009E099D28E7DDF8088051E7089A029989
:1032200050E7CDF8088051E7002379E7049B77E762
:103230000023089379E793D0009A1C331A44009234
:10324000069A1A441E4406928AE70346F4E7039B53
:10325000002BB84620DC9B46079B022B1EDDBBF1F2
:10326000000F7FF4B1AD21465B460522484600F0D1
:1032700095FA01460446029800F0A0FC00287FF76A
:10328000A3AD5646312306F8013B08F101089FE53E
:10329000039CB8462546F4E7DDF80CB0099B002BEB
:1032A00000F00181002E05DD29463246484600F037
:1032B00019FC0546089B002B5CD06968484600F065
:1032C0000BFA064628B9824B024640F2EF21FFF77F
:1032D0004ABB2A690232920005F10C010C3000F061
:1032E00031FE01223146484600F0FCFB0AF10103A1
:1032F00000930AEB0B030893049B03F001032F4692
:1033000006930546009B0298214603F1FF3BFFF719
:103310008AFA03463033039039460298099300F045
:103320004DFC2A4604902146484600F063FCC268E2
:10333000099B064602BB0146029800F03FFC099B30
:103340000246314648460C92099300F005FA079B65
:103350000C9A009E42EA0301069B1943099B0DD17A
:10336000392B27D0049A002A01DD039B31338BF8D7
:1033700000302EE52846B9E70122E2E7049900294A
:1033800004DB079801430698014320D1002AEEDDB3
:10339000029900930122484600F0A4FB21460290C6
:1033A00000F00CFC0028009B02DCE0D1DA07DED53F
:1033B000392BDAD139238BF8003033461E46013BD6
:1033C00016F8012C392A4ED001321A7001E5002A74
:1033D00003DD392BEED00133C9E7009A089902F8D2
:1033E000013C8A4228D0029900230A22484600F074
:1033F000D5F9AF4202904FF000034FF00A02394670
:10340000484607D100F0CAF907460546009B01333C
:10341000009377E700F0C2F92946074600230A2205
:10342000484600F0BBF90546F0E7BBF1000FCCBF02
:103430005E46012656440027029900930122484621
:1034400000F050FB2146029000F0B8FB0028B4DCED
:1034500002D1009BDB07B0D433461E4613F8012D82
:10346000302AFAD0B5E49A45A8D1312308F10108F1
:103470008AF80030ADE4219BDFF858A01BB10AF1B7
:103480000803219A1360504617B0BDE8F08F079BE0
:10349000012B7FF72EAE0D9B089301204DE6BBF16B
:1034A000000F7FF7D9AE564602982146FFF7BBF9C9
:1034B00000F1300306F8013BA6EB0A029345B4DDA8
:1034C000029900230A22484600F068F90290EBE7CF
:1034D00070460008F445000838B50546002941D07B
:1034E00051F8043C0C1F002BB8BFE41800F0E8F8BA
:1034F0001D4A136833B9636014602846BDE838403C
:1035000000F0E4B8A34208D9206821188B4201BF1B
:1035100019685B6809182160EDE71A465B680BB112
:10352000A342FAD911685018A0420BD12068014477
:10353000501883421160E0D118685B6853600844FA
:103540001060DAE702D90C232B60D6E72068211837
:103550008B4204BF19685B68636004BF091821606F
:103560005460CAE738BD00BF40030020024B01464B
:10357000186800F025B800BF1800002070B50F4E85
:103580000C463168054611B900F0CCFC306021468C
:10359000284600F0C7FC431C03D14FF0FF342046FF
:1035A00070BDC41C24F00304A042F8D0211A2846A0
:1035B00000F0B8FC0130F2D1EFE700BF3C0300207F
:1035C0002DE9F843CD1C25F0030508350C2D38BF37
:1035D0000C25002D064601DBA94204D90C233360DB
:1035E0000020BDE8F883DFF8D48000F069F8D8F84F
:1035F00000301C4644BB29463046FFF7BFFF431C42
:10360000044658D1D8F800402746002F43D1002C5B
:103610004BD023683946304604EB030900F082FCA6
:10362000814542D121686D1A29463046FFF7A6FF31
:1036300001303AD023682B442360D8F800305A6810
:1036400062BBC8F800700FE02268521B20D40B2A1E
:1036500017D96119A342256018BF5960636808BF74
:10366000C8F8001062514B60304600F02FF804F1AA
:103670000B00231D20F00700C21A1CBF1B1AA35009
:10368000AFE76268A3420CBFC8F800205A60EBE7BE
:1036900023466468AEE73C467F68B6E71A465B6837
:1036A000A342FBD100235360DEE70C233360304696
:1036B00000F00CF894E70560D6E700BF4003002057
:1036C0000148FFF7AEB800BF380300200148FFF7FC
:1036D000A9B800BF3803002070B5C66904460D467E
:1036E00076B91020FFF742FF0246E06120B9184B7F
:1036F00018486B2100F034FCC0E901660660C66022
:10370000E669F36883B1E369DB6853F82500B8B96B
:10371000012101FA05F6721D9200204600F03EFCE0
:1037200060B1C0E901560EE021220421204600F0DC
:1037300035FCE369F060DB68002BE4D1002070BD4C
:10374000026843F825200023C0E90333F7E700BFF0
:10375000014600088146000870B5C66905460C465A
:1037600076B91020FFF702FF0246E86120B9094B45
:1037700009488F2100F0F4FBC0E901660660C660CD
:103780003CB1EB696268DB6853F82210216043F8B2
:10379000224070BD01460008814600082DE9F04135
:1037A0000D6907460C461E4601F1140C0020DCF89A
:1037B000003099B202FB01611E0C0B0C02FB0633B8
:1037C00089B2013001EB034185424CF8041B4FEAFA
:1037D0001346ECDC0EB3A368AB4219DC61683846D3
:1037E0000131FFF779FF804628B902460C4B0D489E
:1037F000BA2100F0B5FB2269023204F10C019200FB
:103800000C3000F09FFB21463846FFF7A5FF4446E9
:1038100004EB850301355E6125612046BDE8F0813A
:103820007046000881460008B0F5803F034636BF69
:10383000030400201020B3F1807F3CBF1B0208303E
:10384000B3F1805F3CBF1B010430B3F1804F3CBF3C
:103850009B000230002B05DB13F0804F00F10100CC
:1038600008BF202070470368024613F007000BD002
:10387000D90721D4980749BF5B089B080120136032
:103880005CBF13600220704799B209B91B0C10206D
:10389000D9B209B908301B0A190704BF1B09043043
:1038A000990704BF9B080230D90703D45B0800F1D5
:1038B000010003D01360704700207047202070473C
:1038C00010B50C460121FFF707FF024628B9054B4A
:1038D000054840F2451100F043FB012344610361B8
:1038E00010BD00BF70460008814600082DE9F04F6A
:1038F00017460A693B699A42A8BF3B468946A4BF5E
:103900000F4699463D69D9F810A0BB68796805EB68
:103910000A06B34285B0B8BF0131FFF7DDFE30B90A
:103920000246414B41484FF4B17100F019FB00F1E0
:10393000140404EB860E23460022734520D307F1BE
:10394000140809F1140108EB850501EB8A030293C1
:10395000EB1B153B23F0030304331537BD4238BF7F
:1039600004230193029B03918B420CD8002E03DDAC
:103970005EF8043D002B55D0066105B0BDE8F08F20
:1039800043F8042BD9E7B1F800A0BAF1000F1FD01B
:10399000C446A14600275CF8042BD9F800301FFA72
:1039A00082FB9BB20AFB0B333B44D9F80070120C2C
:1039B0003F0C0AFB027202EB13429BB243EA024342
:1039C000654549F8043B4FEA1247E4D8019BE750AC
:1039D000039BB3F802900431B9F1000F20D02368A3
:1039E0004746A4464FF0000AB7F800B0BCF80220E2
:1039F00009FB0B2252449BB243EA02434CF8043BBE
:103A000057F8043B4FEA134ABCF8003009FB0A336D
:103A100003EB1243BD424FEA134AE5D8019AA35083
:103A200004349FE7013EA1E7704600088146000884
:103A30002DE9F843154612F0030207460E4607D05B
:103A4000254C013A002354F82220FFF7A7FE064632
:103A5000AD103DD0FC697CB91020FFF787FD024610
:103A6000F86128B91D4B1E4840F2B31100F078FAF6
:103A7000C0E901440460C460D7F81C80D8F808404D
:103A80004CB940F271213846FFF71AFF0023C8F8FD
:103A90000800044603604FF00009EB070AD53146E1
:103AA00022463846FFF722FF314680463846FFF768
:103AB00053FE46466D100BD0206838B92246214689
:103AC0003846FFF713FF2060C0F800900446E4E793
:103AD0003046BDE8F88300BF3447000801460008BF
:103AE000814600082DE9F0470C464968236903EB3D
:103AF0006218A368074691464FEA621A08F1010668
:103B0000B3420BDB3846FFF7E7FD054648B90246EE
:103B1000284B29484FF4EF7100F022FA01315B0085
:103B2000EEE7002300F1140100F11002184653459E
:103B300033DB20692AEAEA7A04F1140319F01F0939
:103B400001EB8A0103EB800C2BD0C9F1200E8A46D1
:103B50000022186800FA09F010434AF8040B53F8E1
:103B6000042B9C4522FA0EF2F3D8ACEB0403153B70
:103B700023F00303043304F11500604588BF0423D8
:103B8000CA500AB108F10206013E38462E612146AC
:103B9000FFF7E2FD2846BDE8F08742F8040F013345
:103BA000C5E7043953F8042B41F8042F9C45F9D894
:103BB000EAE700BF70460008814600080A6903462C
:103BC0000069801A30B50ED11433143103EB82042E
:103BD00001EB820154F8045D51F8042D954203D0A5
:103BE00005D24FF0FF3030BDA342F3D3FBE70120F5
:103BF000F9E700002DE9F74F894606461146484689
:103C00001446FFF7DBFF051E12D129463046FFF7A9
:103C100063FD024628B93F4B40F237213E4800F091
:103C20009FF90123C0E90435104603B0BDE8F08FC9
:103C3000BCBF4B46A1463046D9F80410BABF1C465B
:103C400001250025FFF748FD024618B9314B40F227
:103C50004521E3E7D9F810702669C56009F1100322
:103C600009F1140504F1140E00F1140B05EB87089B
:103C70000EEB86060193D9464FF0000C019B5EF8CF
:103C8000040B53F804AF01931FFA8AF3194683B269
:103C9000CB1A000C6344C0EB1A4000EB23409BB2EC
:103CA00043EA0043764549F8043B4FEA204CE5D807
:103CB000331B153B23F0030315340433A64238BFEE
:103CC00004231D445B441E462C4644450ED308F194
:103CD0000301491B21F00301033DA84538BF002122
:103CE0000B4453F8041D91B117619DE754F8041B70
:103CF000E646080C1CFA81FC714400EB2C4089B2AA
:103D000041EA004146F8041B4FEA204CDDE7013F41
:103D1000E7E700BF70460008814600082DE9F74339
:103D20000F46012159EC108B1646FFF7D5FC0446CF
:103D300030B90246234B244840F20F3100F010F90D
:103D4000C9F30A55C9F313030DB143F4801301936A
:103D5000B8F1000323D068460093FFF784FDDDE946
:103D60000012D0B1C0F1200302FA03F30B43C240AA
:103D700063610192019BA361002B0CBF012202220F
:103D80002261A5B1A5F2334505443D60C0F135007F
:103D90003060204603B0BDE8F0836161EAE701A826
:103DA000FFF761FD019B636120300122E8E704EB2E
:103DB0008203A0F2324038601869FFF735FDC0EB8E
:103DC0004210E5E77046000881460008B1F90C2072
:103DD0002DE9F041160705460C4654D44B68002BDC
:103DE00002DC0B6C002B48DDE66A002E45D0002378
:103DF00012F480522F68216A2B6030D0626DA38943
:103E0000590705D56368D21A636B0BB1236CD21ABC
:103E10000023E66A216A2846B047431CA38906D1DD
:103E200029681D292BD82A4ACA40D60727D500223F
:103E30006260D9042269226004D5421C01D12B683A
:103E400003B96065616B2F60B9B104F14403994215
:103E500002D02846FFF740FB002363630DE00123F7
:103E60002846B0470246501CC9D12B68002BC6D04B
:103E70001D2B01D0162B1ED12F60002022E043F015
:103E800040031BB21BE00F69002FF6D093070E68AA
:103E900008BF4B690F6018BF0023A6EB07088B60B3
:103EA000B8F1000FE9DD216AA66A43463A46284682
:103EB000B047002808DCB4F90C3043F04003A3817C
:103EC0004FF0FF30BDE8F0810744A8EB0008E7E7BA
:103ED0000100402038B50B6905460C4613B9002592
:103EE000284638BD18B1036A0BB9FEF7A3FBB4F935
:103EF0000C30002BF3D0626ED00704D4990502D4A5
:103F0000A06DFEF78EFC28462146FFF75FFF636E2B
:103F1000DA070546E4D4A3899B05E1D4A06DFEF73A
:103F200081FCDDE738B5064D0023044608462B60CA
:103F3000FDF7F2F8431C02D12B6803B1236038BDB2
:103F4000340300200A44914200F1FF3300D170474E
:103F500010B511F8014B03F8014F9142F9D110BD92
:103F60001FB514461A46094B1B680546D8684CB164
:103F7000074B0091CDE9013406492B4600F042F889
:103F800000F052F8044B1C46F3E700BF1800002075
:103F9000E4460008F14600081F47000870B5A1FB81
:103FA000025434B92946FFF70BFB064628B93046C0
:103FB00070BD0C2202600026F9E72A462146FEF772
:103FC000B2FBF4E782B001B901A942B14BB1137859
:103FD0000B601278101E18BF012002B07047104607
:103FE000FBE76FF00100F8E70346084641B1FF2AFE
:103FF00004D98A221A604FF0FF3070470A700120FE
:10400000704700000EB403B5014603AB054853F8F2
:10401000042B0068019300F037F802B05DF804EB60
:1040200003B070471800002008B5062000F000FA21
:104030000120FDF741F89368013B002B10B4936019
:1040400008DA9469A34201DB0A2903D15DF8044B25
:1040500000F032B91368581C1060197008465DF8FA
:10406000044B7047F8B506460F461446D518AC42C7
:1040700001D1002007E014F8011B3A463046FFF753
:10408000DAFF431CF3D1F8BD2DE9F04F0D469DB08A
:1040900014469846064618B1036A0BB9FEF7CAFAE9
:1040A0006B6ED90705D4AB899A0502D4A86DFEF7CB
:1040B000B8FBAB891B0701D52B699BB92946304654
:1040C00000F038F970B16B6EDC0704D54FF0FF30AB
:1040D0001DB0BDE8F08FAB899805F7D4A86DFEF749
:1040E000A1FBF3E70023099320238DF82930CDF8B5
:1040F0000C803023DFF8AC818DF82A304FF00109B5
:1041000023469A4613F8012B0AB1252AF9D1BAEBB6
:10411000040B0BD05B46224629463046FFF7A2FF30
:10412000013000F0A780099A5A4409929AF80030A9
:10413000002B00F09F8000234FF0FF32CDE90523D4
:104140000AF1010A049307938DF853301A935446E9
:10415000052214F8011B5348FCF73AF8049AD8B921
:10416000D10644BF20238DF85330130744BF2B23BF
:104170008DF853309AF800302A2B15D0079A544600
:1041800000204FF00A0C214611F8013B303B092B6F
:104190004BD9B0B1079214E0A0EB080309FA03F37E
:1041A00013430493A246D2E7039B191D1B68039196
:1041B000002BBBBF5B4242F0020207930793B8BFDC
:1041C000049223782E2B0AD163782A2B32D1039BB9
:1041D0001A1D1B68039243EAE37302340593DFF868
:1041E000D4A0217803225046FBF7F2FF38B1049B9C
:1041F000A0EB0A004022824013430134049314F8D8
:10420000011B29488DF828100622FBF7E1FF002842
:104210003FD0264B1BBB039B073323F00703083318
:104220000393099B3B4409936AE70CFB02320C465B
:104230000120A8E700230134059319464FF00A0C2A
:10424000204610F8012B303A092A03D9002BC6D09A
:104250000591C4E70CFB012104460123F0E703AB01
:1042600000932A46124B04A93046FDF7A1FD0746EC
:10427000781CD6D16B6ED90705D4AB899A0502D4C8
:10428000A86DFEF7CFFAAB895B063FF51FAF099823
:104290001EE703AB00932A46054B04A93046FEF700
:1042A0001FF8E4E7204700082A470008B11D00086E
:1042B0006540000826470008F8B50E461446054636
:1042C00018B1036A0BB9FEF7B5F9A369A360A38916
:1042D0001A0701D5236943B92146284600F02AF878
:1042E00018B14FF0FF373846F8BD23682269981A95
:1042F0006369F6B28342374605DC21462846FFF75C
:10430000E9FD0028EDD1A368013BA36023685A1C96
:1043100022601E706269431C9A4204D0A389DB07A5
:10432000E1D50A2EDFD121462846FFF7D3FD00282C
:10433000D9D0D6E738B5294B054618680C4618B1D0
:10434000036A0BB9FEF776F9B4F90C30190722D4D9
:10435000DA0607D409222A6043F04003A3814FF014
:10436000FF3033E0580712D5616B41B104F14403CB
:10437000994202D02846FFF7AFF800236363A38970
:1043800023F02403A3810023636023692360A389AE
:1043900043F00803A38123694BB9A38903F4207375
:1043A000B3F5007F03D02146284600F083F8B4F926
:1043B0000C3013F001020AD00022A260626952425E
:1043C000A261226942B913F08000C5D138BD9907B6
:1043D00058BF6269A260F4E70020F7E718000020E8
:1043E0001F2938B505460C4604D9162303604FF043
:1043F000FF3038BDC26B12B152F821304BB928469C
:1044000000F030F8224601462846BDE8384000F06A
:1044100017B8012B0AD0591C03D1162303600120C1
:10442000E7E7002142F82410204698470020E0E703
:10443000024B01461868FFF7D3BF00BF18000020E9
:1044400038B5074D00230446084611462B60FCF79B
:104450002BFE431C02D12B6803B1236038BD00BF83
:1044600034030020FCF71EBE70B50C46B1F90E10E7
:10447000002996B015461E460DDAA38913F0800F69
:104480004FF0000114BF40234FF4806300203160DF
:104490002B6016B070BD6A4600F048F80028ECDBCF
:1044A000019901F47041A1F50053594259414FF46B
:1044B0008063EBE78B89F7B59D0706460C4607D569
:1044C00004F14703236023610123636103B0F0BD5E
:1044D00001AB6A46FFF7C8FF009F054639463046E4
:1044E000FFF76EF848B9B4F90C309A05EED423F012
:1044F000030343F00203A381E2E7A389206043F0B2
:104500008003A381019BC4E904075BB1B4F90E10D9
:10451000304600F01DF828B1A38923F0030343F0CF
:104520000103A381A3891D43A581CFE738B5074DBA
:1045300000230446084611462B60FCF7E4FD431CAB
:1045400002D12B6803B1236038BD00BF34030020C3
:1045500038B5064D0023044608462B60FCF7D8FD0D
:10456000431C02D12B6803B1236038BD3403002003
:10457000F8B500BFF8BC08BC9E467047F8B500BF50
:08458000F8BC08BC9E46704720
:1045880000000000000000000102030406070809FB
:1045980000040240040000010000000000000000C8
:1045A8000000000000000000000000000000000003
:1045B8000000000000000000494E4600696E6600D9
:1045C8004E414E006E616E0030003031323334356A
:1045D8003637383941424344454600303132333466
:1045E800353637383961626364656600496E6669D5
:1045F8006E697479004E614E005245454E54206DE7
:10460800616C6C6F632073756363656564656400D2
:104618002F6275696C642F676E752D746F6F6C737C
:104628002D666F722D73746D33325F31332E332ED6
:1046380072656C312E32303234303932362D3137A2
:1046480031352F7372632F6E65776C69622F6E65D3
:10465800776C69622F6C6962632F7374646C69622A
:104668002F64746F612E630042616C6C6F632073FA
:104678007563636565646564002F6275696C642F92
:10468800676E752D746F6F6C732D666F722D7374F2
:104698006D33325F31332E332E72656C312E3230EA
:1046A8003234303932362D313731352F7372632F2A
:1046B8006E65776C69622F6E65776C69622F6C69BD
:1046C80062632F7374646C69622F6D707265632EF8
:1046D80063004300504F534958002E002C20667544
:1046E8006E6374696F6E3A200061737365727469E2
:1046F8006F6E2022257322206661696C65643A20FA
:1047080066696C6520222573222C206C696E6520F1
:104718002564257325730A00232D302B2000686C2F
:104728004C0065666745464700000000050000002C
:10473800190000007D0000000080E03779C3414384
:10474800176E05B5B5B89346F5F93FE9034F384DEF
:10475800321D30F94877825A3CBF737FDD4F15759B
:10476800000000000000F03F0000000000002440AE
:1047780000000000000059400000000000408F4089
:10478800000000000088C34000000000006AF840F4
:104798000000000080842E4100000000D012634118
:1047A8000000000084D797410000000065CDCD418E
:1047B800000000205FA00242000000E8764837426F
:1047C800000000A2941A6D42000040E59C30A2420D
:1047D8000000901EC4BCD64200003426F56B0C4382
:1047E8000080E03779C3414300A0D8855734764329
:1047F80000C84E676DC1AB43003D9160E458E1438A
:10480800408CB5781DAF154450EFE2D6E41A4B44FE
:1048180092D54D06CFF08044F64AE1C7022DB54443
:10482800B49DD9794378EA44002020202020202014
:104838002020282828282820202020202020202048
:104848002020202020202020208810101010101058
:1048580010101010101010101004040404040404A4
:10486800040404101010101010104141414141413E
:104878000101010101010101010101010101010120
:104888000101010110101010101042424242424230
:1048980002020202020202020202020202020202F0
:1048A8000202020210101010200000000000000098
:1048B80000000000000000000000000000000000F0
:1048C80000000000000000000000000000000000E0
:1048D80000000000000000000000000000000000D0
:1048E80000000000000000000000000000000000C0
:1048F80000000000000000000000000000000000B0
:10490800000000000000000000000000000000009F
:10491800000000000000000000000000000000008F
:0C49280000000000000000000000000083
:084934009CB8FF7F01000000A8
:04493C00B5010008B9
:0449400091010008D9
:104944000024F4000100000010000000000000003A
:1049540003000000F80100201C00002000000000FB
:10496400F801002060020020C802002000000000BE
:104974000000000000000000000000000000000033
:104984000000000000000000000000000000000023
:104994000000000000000000000000000000000013
:1049A40000000000000000004300000000000000C0
:1049B40000000000000000000000000000000000F3
:1049C40000000000000000004300000000000000A0
:1049D40000000000000000000000000000000000D3
:1049E4000000000000000000430000000000000080
:1049F40000000000000000000000000000000000B3
:104A0400000000000000000043000000000000005F
:104A14000000000000000000000000000000000092
:104A2400000000000000000043000000000000003F
:104A34000000000000000000000000000000000072
:104A4400000000000000000043000000000000001F
:104A54000000000000000000000000000000000052
:104A640000000000000000004300000000000000FF
:104A74000000000000000000000000000000000032
:104A84000000000000000000E93F0008C53F0008E6
:104A94000000000030480008E24600081F470008F4
:104AA4001F4700081F4700081F4700081F4700084A
:104AB4001F4700081F4700081F4700081F4700083A
:104AC400FFFFFFFFFFFFFFFFFFFFFFFFFFFF0000F0
:104AD4000100415343494900000000000000000068
:104AE40000000000000000000000000000000000C2
:104AF4000000415343494900000000000000000049
:104B040000000000000000000000000000000000A1
:044B1400000000009D
:040000050800118955
:00000001FF
