:020000040800F2
:10000000000002200157000815040008170400082A
:10001000190400081B0400081D040008000000006B
:100020000000000000000000000000001F040008A5
:100030002104000800000000230400082504000833
:1000400051570008515700085157000851570008F0
:1000500051570008515700085157000851570008E0
:1000600051570008515700085157000851570008D0
:1000700051570008515700085157000851570008C0
:100080005157000851570008515700080000000060
:1000900000000000000000000000000051570008B0
:1000A0005157000851570008515700085157000890
:1000B0005157000851570008515700085157000880
:1000C0005157000851570008515700085157000870
:1000D0005157000851570008515700080000000010
:1000E0005157000851570008515700080000000000
:1000F0000000000000000000000000005157000850
:1001000000000000515700085157000851570008DF
:1001100000000000000000000000000000000000DF
:10012000515700085157000851570008515700080F
:10013000515700080000000000000000000000000F
:1001400000000000000000000000000051570008FF
:1001500051570008515700085157000851570008DF
:10016000515700085157000800000000000000002F
:10017000000000000000000000000000000000007F
:1001800000000000515700080000000000000000BF
:08019000515700085157000807
:1001980010B5054C237833B9044B13B10448AFF3B9
:1001A80000800123237010BD3C06002000000000E1
:1001B8003868000808B5034B1BB103490348AFF37F
:1001C800008008BD000000004006002038680008D4
:1001D800A3F5803A704700BF174B002B08BF134B9D
:1001E8009D46FFF7F5FF00218B460F461348144A3A
:1001F800121A05F046FC0E4B002B00D098470D4B09
:10020800002B00D098470020002104000D000D4865
:10021800002802D00C4805F04DFD05F0BBFC20007D
:10022800290000F0EDF905F091FA00BF0000080080
:100238000000000000000000000000003C06002054
:1002480094090020BD5C0008E1650008704708B506
:10025800002000F051FA642000F002F8F8E70000EE
:1002680008B500F0F1FA08BD08B500F0C9FA08BDF4
:1002780072B6FEE700B595B03022002108A805F057
:1002880000FC0023039304930593069307930193BB
:100298001F4A116C41F080511164126C02F08052B7
:1002A8000192019A02931B4B1A6842F440421A6069
:1002B8001B6803F440430293029B012308934FF405
:1002C8008033099302230E934FF480020F92192270
:1002D8001092C022119212930423139308A803F0DA
:1002E800F7F888B90F230393022304930023059397
:1002F8004FF4805206920793032103A803F092FB60
:1003080020B915B05DF804FBFFF7B2FFFFF7B0FFA7
:10031800003802400070004000B589B000F04AFA89
:10032800FFF7A8FF00220092294B596C41F4804145
:100338005964596C01F48041009100990192196C3B
:1003480041F080511964196C01F0805101910199B3
:100358000292196B41F001011963196B01F0010157
:10036800029102990392196B41F002011963196B0A
:1003780001F00201039103990492196B41F0040101
:100388001963196B01F00401049104990592196B22
:1003980041F008011963196B01F0080105910599ED
:1003A8000692196B41F010011963196B01F01001E5
:1003B8000691069907921A6B42F080021A631B6B2A
:1003C80003F080030793079B012009B05DF804FB45
:1003D8000038024082B0002100910B4B5A6C42F465
:1003E80080425A645A6C02F480420092009A019149
:1003F8001A6C42F080521A641B6C03F0805301930C
:10040800019B02B0704700BF00380240FEE7FEE7DC
:10041800FEE7FEE7FEE770477047704708B500F053
:10042800E3F908BD70470120704708B505F0ACFB3B
:10043800162303604FF0FF3008BD08B54FF0FF31B9
:10044800FFF7F3FFFEE770B50C461646002506E0F9
:10045800AFF30080214601F8010B01350C46B54287
:10046800F6DB304670BD70B50C461646002504E034
:1004780014F8010BAFF300800135B542F8DB3046C4
:1004880070BD4FF0FF3070474FF400534B600020B1
:10049800704701207047002070470EB44FF0FF30BE
:1004A80003B0704708B505F06FFB0A2303604FF0EF
:1004B800FF3008BD08B505F067FB022303604FF065
:1004C800FF3008BD4FF0FF3070474FF400534B60CA
:1004D8000020704708B505F057FB1F2303604FF055
:1004E800FF3008BD08B505F04FFB0B2303604FF044
:1004F800FF3008BD08B505F047FB0C2303604FF03B
:10050800FF3008BD10B503460C4A0D490D48006878
:1005180040B10C4800680344521A934206D8094A6D
:10052800136010BD0748084C0460F2E705F02CFB87
:100538000C2303604FF0FF30F3E700BF00000220F8
:10054800000400005C06002098090020034AD2F845
:10055800883043F47003C2F88830704700ED00E03B
:10056800224B9B6803F00C03042B11D0082B13D0EB
:10057800002B37D11E4B1F4A1A601C4B9B68C3F3D4
:1005880003131D4AD15C1A4A1368CB4013607047A5
:10059800174B1A4A1A60F0E7144B59685A6802F068
:1005A8003F0211F4800F13D0144BB3FBF2F30F4A40
:1005B8005268C2F3881202FB03F30C4A5268C2F372
:1005C800014201325200B3FBF2F3094A1360D4E747
:1005D800084BB3FBF2F3054A5268C2F3881202FBD8
:1005E80003F3EAE7024B034A1A60C6E70038024001
:1005F800080000200024F4007868000840787D0195
:1006080008B500F089F8FFF721FEFFF720FE00206B
:1006180008BDF8690008000000203C0600203C06E0
:10062800002094090020000010B588B0002403942D
:10063800049405940694079400941C4B1A6B42F09A
:1006480004021A631A6B02F004020092009A0194E1
:100658001A6B42F080021A631A6B02F08002019250
:10066800019A02941A6B42F001021A631B6B03F0A1
:1006780001030293029B22464FF400510C4802F0FA
:1006880034FD01230493059406940AE0094B03EB17
:10069800C4029288039203A953F8340002F0B2FB13
:1006A8000134042CF2D9012008B010BD00380240F2
:1006B8000008024090680008042800D9704708B56F
:1006C800044B03EBC0018A79898853F8300002F0A3
:1006D8000CFD08BD90680008042800D9704708B5CB
:1006E800044B03EBC001CA79898853F8300002F043
:1006F800FCFC08BD90680008042800D9704708B5BC
:10070800044B03EBC002918853F8300002F0F3FC6D
:1007180008BD00BF9068000808B5FFF7FDFDFFF7AA
:1007280083FF012008BD00007047704710B50B4BD0
:100738000B4A1A6200241C620A4A5A625C620A4A1C
:100748001A611C6180225A615C614FF0FF329A6124
:100758009C61FFF7EAFF204610BD00BF0038024049
:100768000FC8E210317917009F10600010B50446D9
:100778000E4B1A784FF47A73B3FBF2F30C4A1068F5
:10078800B0FBF3F000F0A9F968B90F2C01D90120EA
:100798000AE0002221464FF0FF3000F083F9034BB6
:1007A8005C60002000E0012010BD00BF0C000020AC
:1007B8000800002008B50B4B1A6842F400721A6052
:1007C8001A6842F480621A601A6842F480721A60E9
:1007D800032000F055F90F20FFF7C8FFFFF7FAFDD7
:1007E800002008BD003C0240034A1168034B1B78F7
:1007F8000B441360704700BF600600200C00002007
:10080800014B1868704700BF60060020014B58680C
:10081800704700BF0C00002010B5074B1C788442BD
:1008280001D1002010BD18705868FFF79FFF0028FD
:10083800F8D0014B1C70F5E70C000020014B18782C
:10084800704700BF0C00002038B50446FFF7D8FFFA
:100858000546B4F1FF3F02D0044B1B781C44FFF758
:10086800CFFF401BA042FAD338BD00BF0C000020C8
:100878004FF0E022136923F00203136170474FF031
:10088800E022136943F00203136170470048704780
:1008980000030801014B1868000C7047002004E0B1
:1008A800024B1868C0F30B00704700BF002004E03B
:1008B800024A536843F0010353607047002004E084
:1008C800024A536823F0010353607047002004E094
:1008D800024A536843F0020353607047002004E063
:1008E800024A536823F0020353607047002004E073
:1008F800024A536843F0040353607047002004E041
:10090800024A536823F0040353607047002004E050
:10091800024B0122C3F80024704700BF00002742A1
:10092800024B0022C3F80024704700BF0000274292
:10093800014BD3F8100A70470070FF1F014BD3F822
:10094800140A70470070FF1F014BD3F8180A70474C
:100958000070FF1F002807DB00F01F024009012379
:100968009340024A42F82030704700BF00E100E09F
:1009780000280CDB00F01F024009012393402030BF
:10098800034A42F82030BFF34F8FBFF36F8F704791
:1009980000E100E0002808DB0901C9B200F160406D
:1009A80000F5614080F80013704700F00F0009015E
:1009B800C9B2014B1954704714ED00E0002807DB59
:1009C80000F1604000F5614090F8000300097047AD
:1009D80000F00F00014B185C0009704714ED00E0AF
:1009E80000B500F00700C0F1070CBCF1040F28BFE8
:1009F8004FF0040C031D062B0FD9C31E4FF0FF3E0A
:100A08000EFA0CF021EA000199400EFA03FE22EAE0
:100A18000E0241EA02005DF804FB0023EEE710B580
:100A280001F00701C1F1070CBCF1040F28BF4FF01A
:100A3800040C0C1D062C0FD9033920FA01F44FF0D1
:100A4800FF3E0EFA0CFC24EA0C0414600EFA01FEB8
:100A580020EA0E00186010BD0021EEE7BFF34F8FAB
:100A68000549CA6802F4E062044B1343CB60BFF344
:100A78004F8F00BFFDE700BF00ED00E00400FA055E
:100A8800074AD36823F4E0631B041B0C000200F43C
:100A9800E060034343F0BF6343F40033D36070471F
:100AA80000ED00E010B50446054BD868C0F30220FD
:100AB800FFF796FF01462046FFF76CFF10BD00BF09
:100AC80000ED00E008B5FFF745FF08BD08B5FFF7E2
:100AD8004FFF08BD08B5FFF7C1FF0138B0F1807FAF
:100AE8000BD24FF0E0235861054AF02182F8231019
:100AF8000020986107221A6170470120704700BFE3
:100B080000ED00E0BFF35F8F044B5A6A22F4803295
:100B18005A620022C3F89420704700BF00ED00E03D
:100B280040F00100054BC3F894005A6A42F4803241
:100B38005A62BFF34F8FBFF36F8F704700ED00E02D
:100B4800044BC3F89800D3F8A02042F00102C3F880
:100B5800A020704700ED00E0044BC3F89800D3F8DC
:100B6800A02022F00102C3F8A020704700ED00E0A9
:100B78004378144AC2F89830D2F8A03023F0010321
:100B8800C2F8A0304368C2F89C30017BC37A1B06C8
:100B980043EA0173817A43EAC143417B43EA8143D3
:100BA800817B43EA4143C17B43EA0143417A43EAFB
:100BB8000123017A43EA410301780B43C2F8A030CC
:100BC800704700BF00ED00E040BF20BF7047024BF8
:100BD800D868C0F30220704700ED00E070B50C46FD
:100BE80015461E46FFF7EAFE33462A462146FFF71A
:100BF80016FF70BD002808DB00F01F024009012322
:100C080093404030014A42F82030704700E100E04C
:100C180000280BDB43094033054A52F8233000F023
:100C28001F0023FA00F000F0010070470020704711
:100C380000E100E0002808DB00F01F024009012362
:100C480093406030014A42F82030704700E100E0EC
:100C580000280BDB43098033054A52F8233000F0A3
:100C68001F0023FA00F000F00100704700207047D1
:100C780000E100E0042806D04FF0E022136923F0D9
:100C88000403136170474FF0E022136943F0040333
:100C980013617047704708B5FFF7FCFF08BD00BF38
:100CA80030B405682C6824F480242C6004686360E0
:100CB8008368402B05D0036899600368DA6030BC0C
:100CC800704703689A600368D960F8E710B403684E
:100CD800D9B210390A4AA2FB01421209094CA25C96
:100CE800C2655F2907D96FF3090304338365806DF3
:100CF8005DF8044B70476FF309038365F7E700BF9E
:100D0800ABAAAAAAB8680008836A826992B9012BBB
:100D18000AD0022B02D00BB100207047C36A13F02F
:100D2800807F28D100207047C36AB3F1C07F24D0E8
:100D380000207047B2F5005F09D0022B25D9032B9C
:100D480025D1C36A13F0807F23D100207047032B7D
:100D580003D8DFE803F01404140A00207047C36ABC
:100D680013F0807F0DD100207047C36AB3F1C07FB4
:100D780009D00020704701207047012070470120EA
:100D880070470120704701207047012070470020FC
:100D980070470120704770B50446FFF731FD002CFD
:100DA8005BD00546022384F83530002384F83430BC
:100DB8002268136823F00103136023681A6812F08D
:100DC800010F0AD0FFF71CFD431B052BF5D9202383
:100DD8006365032084F8350070BD1A682049114006
:100DE8006268A0680243E0680243206902436069C0
:100DF8000243A0690243E0690243206A02430A43AE
:100E0800616A04291ED01A602668756925F00705ED
:100E1800636A1D43042B07D1A36A1D43E36A1BB110
:100E28002046FFF771FF90B975612046FFF74EFF26
:100E3800E26D3F239340836000206065012384F8BE
:100E48003530C9E7E16A206B01430A43DBE74023F9
:100E58006365012084F83500BEE70120BCE700BFC8
:100E68003F8010F000282DD038B5054690F83500A1
:100E7800C0B2022825D02A68136823F00103136042
:100E88002B6800241C602B685C602B689C602B68B6
:100E9800DC602B681C612B6821225A612846FFF709
:100EA80015FFEC632C646C64AC64EC642C65EA6D2F
:100EB8003F23934083606C6585F8354085F834405E
:100EC800204638BD0120704738B5044690F83400F4
:100ED80001281BD0012084F8340094F83500C0B2F2
:100EE800012804D0002384F83430022038BD0220C1
:100EF80084F83500002565652046FFF7D1FE226895
:100F0800136843F0010313602846EFE70220EDE77A
:100F180038B50446856D90F8340001282BD001209F
:100F280084F8340094F83500C0B2012804D00023B6
:100F380084F83430022038BD022084F835000020BF
:100F480060652046FFF7ACFEE26D3F239340AB603F
:100F58002268136843F016031360236C23B12268D8
:100F6800136843F0080313602268136843F0010311
:100F780013600020DFE70220DDE770B50446866DC8
:100F8800FFF73EFC94F83530DBB2022B06D0802305
:100F98006365002384F83430012070BD054622685B
:100FA800136823F0160313602268536923F0800343
:100FB8005361236CE3B12268136823F008031360BC
:100FC8002268136823F00103136023681B6813F079
:100FD800010F11D0FFF714FC431B052BF5D9202373
:100FE8006365032084F83500002384F83430D4E79F
:100FF800A36C002BDFD1E3E7E26D3F239340B3609E
:10100800012384F83530002084F83400C5E790F8CF
:101018003530DBB2022B03D08023436501207047B3
:10102800052380F835300268136823F00103136044
:10103800002070472DE9F047044688461646FFF71A
:10104800DFFB94F83530DBB2022B07D080236365D1
:10105800002384F834300120BDE8F08781462368F6
:101068001B6813F4807F3BD1B8F1000F3DD1E36DCD
:101078004FF0200A0AFA03FAA76D3B681AEA030F31
:1010880043D1636D13F0010F3FD1B6F1FF3F07D095
:10109800002E30D0FFF7B4FBA0EB0900B0422AD8ED
:1010A8003B68E16D08228A401A4204D0616D41F024
:1010B80001016165BA60E16D01228A401A4204D0DB
:1010C800616D41F002016165BA60E26D04259540E9
:1010D8001D42D3D0626D42F004026265BD60CDE767
:1010E8004FF4807363650120B6E7E36D4FF0100A93
:1010F8000AFA03FAC0E720236365012384F8353030
:10110800002384F834300320A6E7636D1BB1636DB8
:1011180013F0010F0ED1B8F1000F19D1E26D302391
:101128009340BB60012384F83530002384F83430C1
:10113800404691E72046FFF720FFE26D30239340B9
:10114800BB60012084F83500002384F8343083E73D
:10115800E26D10239340BB6000207DE7F0B583B0BB
:10116800044600230193724B1D68724BA3FB05359F
:10117800AD0A876D3E68C26D08239340334210D094
:1011880003681A6812F0040F0BD01A6822F00402E0
:101198001A60C26D08239340BB60436D43F001039E
:1011A8004365E26D01239340334209D022685269B6
:1011B80012F0800F04D0BB60636D43F002036365D7
:1011C800E26D04239340334209D02268126812F07A
:1011D800020F04D0BB60636D43F004036365E26DE6
:1011E80010239340334224D02268126812F0080F6B
:1011F8001FD0BB6023681A6812F4802F0DD01B68BB
:1012080013F4002F04D1236C9BB12046984710E0BB
:10121800A36C73B1204698470BE01A6812F4807FDC
:1012280003D11A6822F008021A60236C0BB1204619
:101238009847E26D20239340334255D022681268C4
:1012480012F0100F50D0BB6094F83530DBB2052B8C
:101258000ED023681A6812F4802F33D01B6813F459
:10126800002F2AD1636C002B3ED0204698473BE0E4
:101278002268136823F0160313602268536923F069
:1012880080035361236CA3B12268136823F0080319
:101298001360E26D3F239340BB60012384F835302F
:1012A800002384F83430236D002B3FD02046984724
:1012B8003CE0A36C002BE7D1EBE7E36BA3B120463E
:1012C800984711E01A6812F4807F09D11A6822F051
:1012D80010021A60012384F83530002384F8343072
:1012E800E36B0BB120469847636DFBB1636D13F058
:1012F800010F17D0052384F835302268136823F0CE
:1013080001031360019B01330193AB4204D82368A6
:101318001B6813F0010FF5D1012384F83530002341
:1013280084F83430E36C0BB12046984703B0F0BD25
:1013380008000020B5814E1B034690F834000128B0
:1013480025D0012083F8340093F83500C0B2012875
:1013580004D00120002283F8342070470529F9D8E9
:10136800DFE801F00306090C0F12DA630846F1E71B
:101378001A640020EEE75A640020EBE79A64002024
:10138800E8E7DA640020E5E71A650020E2E70220D2
:101398007047034690F83420012A2FD0012280F8A4
:1013A800342090F83500C0B2904204D001200022C9
:1013B80083F8342070470629F9D8DFE801F00408DB
:1013C8000B0E111417000022DA630846EFE700201D
:1013D8001864ECE700205864E9E700209864E6E721
:1013E8000020D864E3E700201865E0E70020D86310
:1013F800186458649864D8641865D8E70220704760
:1014080090F835007047406D704700BF10B404680D
:1014180063608368402B06D0036899600368DA60CC
:101428005DF8044B704703689A600368D960F7E772
:1014380038B50446806880280DD094F83400012817
:1014480023D0012084F8340094F83500C0B2012874
:1014580006D0022038BD4FF4807363650120F9E798
:10146800022084F835002568286840F48020286028
:1014780020680361049B2046FFF7C8FF22681368B1
:1014880043F0010313600020E4E70220E2E738B5E7
:1014980004468068802817D0E06BD0B1606CC0B17A
:1014A800E06CB0B194F83400012800F0688701209E
:1014B80084F8340094F83500C0B201280DD0002318
:1014C80084F83430022007E04FF48073636501200C
:1014D80002E040236365012038BD022084F835000E
:1014E800002060652568286840F48020286020680E
:1014F8000361049B2046FFF789FF2368A44A9342AF
:1015080040F29880A2F58962934231D002F5806258
:10151800934274D0A2F56872934272D002F5806249
:10152800934270D0A2F5896293426ED002F5806230
:1015380093426DD0A2F5687293426CD002F5806236
:1015480093426BD0A2F5896293426AD002F5806219
:10155800934269D0A2F56872934268D002F580621E
:10156800934202D04FF0006203E04FF4001200E013
:101578002022884BDA602368854A934240F2CB8167
:10158800A2F58962934200F0648102F58062934279
:1015980000F0A681A2F56872934200F0A38102F5DB
:1015A8008062934200F0A081A2F58962934200F024
:1015B8009D8102F58062934200F09B81A2F56872DA
:1015C800934200F0998102F58062934200F097817E
:1015D800A2F58962934200F0958102F580629342F8
:1015E80000F09381A2F56872934200F0918102F5B0
:1015F8008062934200F02A814FF080622AE1202223
:10160800B7E72022B5E72022B3E74FF40062B0E73E
:101618004FF40062ADE74FF40062AAE74FF40062AE
:10162800A7E74FF40012A4E74FF40012A1E74FF424
:1016380000129EE7584A934253D9A83A934231D0B0
:1016480002F58062934231D0A2F5687293422FD09E
:1016580002F5806293422DD0A2F5896293422BD085
:1016680002F5806293422AD0A2F56872934229D08B
:1016780002F58062934228D0A2F58962934227D06E
:1016880002F58062934226D0A2F56872934225D073
:1016980002F58062934202D04FF0006303E04FF4FA
:1016A800001300E020233B4A936064E72023FAE715
:1016B8002023F8E72023F6E74FF40063F3E74FF41D
:1016C8000063F0E74FF40063EDE74FF40063EAE7E7
:1016D8004FF40013E7E74FF40013E4E74FF4001367
:1016E800E1E72E4A93425DD9483A934231D002F558
:1016F8008062934231D0A2F5687293422FD002F5EE
:10170800806293422DD0A2F5896293422BD002F5D4
:10171800806293422AD0A2F56872934229D002F5DA
:101728008062934228D0A2F58962934227D002F5BD
:101738008062934226D0A2F56872934225D002F5C2
:101748008062934202D04FF0006303E04FF400132D
:1017580000E02023124AD3600DE72023FAE7202374
:10176800F8E72023F6E74FF40063F3E74FF400634C
:10177800F0E74FF40063EDE74FF40063EAE74FF456
:101788000013E7E74FF40013E4E74FF40013E1E731
:101798005864024000640240B86002405860024049
:1017A80000600240B14A934231D002F58062934210
:1017B80031D0A2F5687293422FD002F5806293422D
:1017C8002DD0A2F5896293422BD002F58062934214
:1017D8002AD0A2F56872934229D002F5806293421A
:1017E80028D0A2F58962934227D002F580629342FD
:1017F80026D0A2F56872934225D002F58062934202
:1018080002D04FF0006303E04FF4001300E0202300
:10181800974A9360AFE62023FAE72023F8E72023CE
:10182800F6E74FF40063F3E74FF40063F0E74FF493
:101838000063EDE74FF40063EAE74FF40013E7E7CE
:101848004FF40013E4E74FF40013E1E74FF480127C
:1018580000E01022874BDA602368874A934240F2FF
:10186800CD81A2F58962934200F0668102F580621B
:10187800934200F0A881A2F56872934200F0A58116
:1018880002F58062934200F0A281A2F58962934238
:1018980000F09F8102F58062934200F09D81A2F5DD
:1018A8006872934200F09B8102F58062934200F0D7
:1018B8009981A2F58962934200F0978102F58062CE
:1018C800934200F09581A2F56872934200F09381EB
:1018D80002F58062934200F02C814FF000722CE1F7
:1018E8001022B7E71022B5E71022B3E74FF4806261
:1018F800B0E74FF48062ADE74FF48062AAE74FF497
:101908008062A7E74FF48012A4E74FF48012A1E7A2
:101918004FF480129EE7594A934253D9A83A93420A
:1019280031D002F58062934231D0A2F568729342B9
:101938002FD002F5806293422DD0A2F5896293429E
:101948002BD002F5806293422AD0A2F568729342A6
:1019580029D002F58062934228D0A2F58962934289
:1019680027D002F58062934226D0A2F5687293428E
:1019780025D002F58062934202D04FF0806303E0E5
:101988004FF4801300E010233A4A936064E7102371
:10199800FAE71023F8E71023F6E74FF48063F3E73C
:1019A8004FF48063F0E74FF48063EDE74FF4806312
:1019B800EAE74FF48013E7E74FF48013E4E74FF4C6
:1019C8008013E1E72E4A93425FD9483A934231D0D7
:1019D80002F58062934231D0A2F5687293422FD00B
:1019E80002F5806293422DD0A2F5896293422BD0F2
:1019F80002F5806293422AD0A2F56872934229D0F8
:101A080002F58062934228D0A2F58962934227D0DA
:101A180002F58062934226D0A2F56872934231D0D3
:101A280002F58062934202D04FF0806303E04FF4E6
:101A3800801300E010230E4AD3600DE71023FAE765
:101A48001023F8E71023F6E74FF48063F3E74FF429
:101A58008063F0E74FF48063EDE74FF48063EAE7D3
:101A68004FF48013E7E74FF48013E4E71060024077
:101A7800006002400064024058640240B8600240BE
:101A8800586002404FF48013D5E7B24A934231D0F0
:101A980002F58062934231D0A2F5687293422FD04A
:101AA80002F5806293422DD0A2F5896293422BD031
:101AB80002F5806293422AD0A2F56872934229D037
:101AC80002F58062934228D0A2F58962934227D01A
:101AD80002F58062934226D0A2F56872934225D01F
:101AE80002F58062934202D04FF0806303E04FF426
:101AF800801300E01023984A9360ADE61023FAE7BC
:101B08001023F8E71023F6E74FF48063F3E74FF468
:101B18008063F0E74FF48063EDE74FF48063EAE712
:101B28004FF48013E7E74FF48013E4E74FF4801392
:101B3800E1E74FF4002200E00822884BDA602368CE
:101B4800874A934240F2CE81A2F58962934200F01F
:101B5800678102F58062934200F0A981A2F568725C
:101B6800934200F0A68102F58062934200F0A381BF
:101B7800A2F58962934200F0A08102F58062934247
:101B880000F09E81A2F56872934200F09C8102F5F4
:101B98008062934200F09A81A2F58962934200F034
:101BA800988102F58062934200F09681A2F56872EE
:101BB800934200F0948102F58062934200F02D81F7
:101BC8004FF080722DE10822B7E70822B5E7082216
:101BD800B3E74FF40072B0E74FF40072ADE74FF48B
:101BE8000072AAE74FF40072A7E74FF40022A4E7B7
:101BF8004FF40022A1E74FF400229EE7594A93428E
:101C080053D9A83A934231D002F58062934231D039
:101C1800A2F5687293422FD002F5806293422DD0CC
:101C2800A2F5896293422BD002F5806293422AD0B2
:101C3800A2F56872934229D002F58062934228D0B7
:101C4800A2F58962934227D002F58062934226D09A
:101C5800A2F56872934225D002F58062934202D0C1
:101C68004FF0007303E04FF4002300E008233B4AE1
:101C7800936064E70823FAE70823F8E70823F6E700
:101C88004FF40073F3E74FF40073F0E74FF4007379
:101C9800EDE74FF40073EAE74FF40023E7E74FF46A
:101CA8000023E4E74FF40023E1E72F4A934260D989
:101CB800483A934231D002F58062934231D0A2F57E
:101CC800687293422FD002F5806293422DD0A2F51C
:101CD800896293422BD002F5806293422AD0A2F502
:101CE8006872934229D002F58062934228D0A2F507
:101CF8008962934227D002F58062934226D0A2F5EA
:101D08006872934232D002F58062934202D04FF05B
:101D1800007303E04FF4002300E008230E4AD36069
:101D28000DE70823FAE70823F8E70823F6E74FF456
:101D38000073F3E74FF40073F0E74FF40073EDE737
:101D48004FF40073EAE74FF40023E7E74FF400236A
:101D5800E4E700BF106002400060024000640240F7
:101D680058640240B8600240586002404FF40023B3
:101D7800D4E7B24A934231D002F58062934231D01F
:101D8800A2F5687293422FD002F5806293422DD05B
:101D9800A2F5896293422BD002F5806293422AD041
:101DA800A2F56872934229D002F58062934228D046
:101DB800A2F58962934227D002F58062934226D029
:101DC800A2F56872934225D002F58062934202D050
:101DD8004FF0007303E04FF4002300E00823984A13
:101DE8009360ACE60823FAE70823F8E70823F6E748
:101DF8004FF40073F3E74FF40073F0E74FF4007308
:101E0800EDE74FF40073EAE74FF40023E7E74FF4F8
:101E18000023E4E74FF40023E1E74FF4802200E0D9
:101E28000422884BDA602368874A934240F2A181F2
:101E3800A2F58962934200F0678102F580629342BD
:101E480000F08081A2F56872934200F07D8102F56E
:101E58008062934200F07A81A2F58962934200F091
:101E6800778102F58062934200F07481A2F568726E
:101E7800934200F0718102F58062934200F06E8116
:101E8800A2F58962934200F06B8102F58062934269
:101E980000F06981A2F56872934200F0678102F54B
:101EA8008062934200F02D814FF480022DE10422DC
:101EB800B7E70422B5E70422B3E74FF48072B0E72E
:101EC8004FF48072ADE74FF48072AAE74FF4807246
:101ED800A7E74FF48022A4E74FF48022A1E74FF44C
:101EE80080229EE7594A934253D9A83A934231D067
:101EF80002F58062934231D0A2F5687293422FD0E6
:101F080002F5806293422DD0A2F5896293422BD0CC
:101F180002F5806293422AD0A2F56872934229D0D2
:101F280002F58062934228D0A2F58962934227D0B5
:101F380002F58062934226D0A2F56872934225D0BA
:101F480002F58062934202D04FF0807303E04FF4B1
:101F5800802300E004233B4A936064E70423FAE704
:101F68000423F8E70423F6E74FF48073F3E74FF40C
:101F78008073F0E74FF48073EDE74FF48073EAE77E
:101F88004FF48023E7E74FF48023E4E74FF48023FE
:101F9800E1E72F4A934260D9483A934231D002F59B
:101FA8008062934231D0A2F5687293422FD002F535
:101FB800806293422DD0A2F5896293422BD002F51C
:101FC800806293422AD0A2F56872934229D002F522
:101FD8008062934228D0A2F58962934227D002F505
:101FE8008062934226D0A2F56872934232D002F5FD
:101FF8008062934202D04FF0807303E04FF4802355
:1020080000E004230E4AD3600DE70423FAE7042313
:10201800F8E70423F6E74FF48073F3E74FF480738F
:10202800F0E74FF48073EDE74FF48073EAE74FF47D
:102038008023E7E74FF48023E4E700BF1060024005
:10204800006002400064024058640240B8600240E8
:10205800586002404FF48023D4E7994A934231D024
:1020680002F58062934231D0A2F5687293422FD074
:1020780002F5806293422DD0A2F5896293422BD05B
:1020880002F5806293422AD0A2F56872934229D061
:1020980002F58062934228D0A2F58962934227D044
:1020A80002F58062934226D0A2F56872934225D049
:1020B80002F58062934202D04FF0807303E04FF440
:1020C800802300E004237F4A9360ACE60423FAE708
:1020D8000423F8E70423F6E74FF48073F3E74FF49B
:1020E8008073F0E74FF48073EDE74FF48073EAE70D
:1020F8004FF48023E7E74FF48023E4E74FF480238D
:10210800E1E74FF4803200E001226F4BDA60226889
:10211800136843F0160313602268536943F0800381
:102128005361236C002B00F025812268136843F06B
:10213800080313602268136843F00103136000204A
:10214800FFF7CAB90122E0E70122DEE70122DCE756
:102158004022DAE74022D8E74022D6E74022D4E7F7
:102168004FF48032D1E74FF48032CEE74FF480321B
:10217800CBE7564A93424FD9A83A934231D002F559
:102188008062934231D0A2F5687293422FD002F553
:10219800806293422DD0A2F5896293422BD002F53A
:1021A8008062934229D0A2F56872934227D002F543
:1021B8008062934225D0A2F58962934223D002F52A
:1021C8008062934222D0A2F56872934221D002F530
:1021D8008062934202D04FF4800303E04FF48033CF
:1021E80000E00123384A936091E70123FAE70123CD
:1021F800F8E70123F6E74023F4E74023F2E740231A
:10220800F0E74023EEE74FF48033EBE74FF48033F9
:10221800E8E74FF48033E5E72D4A93425AD9483A24
:10222800934231D002F58062934231D0A2F56872B0
:1022380093422FD002F5806293422DD0A2F5896295
:1022480093422BD002F58062934229D0A2F568729E
:10225800934227D002F58062934225D0A2F5896285
:10226800934223D002F58062934222D0A2F568728D
:10227800934221D002F58062934202D04FF480034A
:1022880003E04FF4803300E001230E4AD3603EE7B9
:102298000123FAE70123F8E70123F6E74023F4E7EF
:1022A8004023F2E74023F0E74023EEE74FF4803382
:1022B800EBE74FF48033E8E74FF48033E5E700BFFE
:1022C800106002400060024000640240B8600240B2
:1022D800586002402B4A934231D002F58062934203
:1022E80031D0A2F5687293422FD002F580629342F2
:1022F8002DD0A2F5896293422BD002F580629342D9
:1023080029D0A2F56872934227D002F580629342E1
:1023180025D0A2F58962934223D002F580629342C8
:1023280022D0A2F56872934221D002F580629342CE
:1023380002D04FF4800303E04FF4803300E0012320
:10234800114A9360E3E60123FAE70123F8E7012342
:10235800F6E74023F4E74023F2E74023F0E7402381
:10236800EEE74FF48033EBE74FF48033E8E74FF4C0
:102378008033E5E7A36C002B7FF4D7AEDAE60220C2
:10238800FFF7AAB810600240006002401AB903685B
:10239800D9600020704703681961FAE7002860D007
:1023A800002960D070B40B68036003F01F0201209D
:1023B800904013F0007F15D08C6814F0010F24D0E2
:1023C8002A4DAC680443AC608C6814F0020F22D02C
:1023D800264DEC680443EC600C6804F0C06CBCF15A
:1023E800C06F1ED04B6813F0010F2DD01F4A136821
:1023F800034313604B6813F0020F2BD01B4A53683A
:1024080003435360002070BC7047184DAC6824EA41
:102418000004AC60D8E7154DEC6824EA0004EC60D1
:10242800DAE79208124E023256F8224003F003030C
:102438009B000F259D4024EA0504CD6805FA03F3A7
:10244800234346F82230CDE7084A136823EA0003FD
:102458001360CFE7054A536823EA0003536000205E
:10246800D1E7012070470120704700BF003C0140C0
:1024780000380140002845D0002945D010B4046830
:102488000C6004F01F0C012303FA0CF321480068C8
:10249800184224D001224A601E484068184203D0DE
:1024A800486840F00200486000228A60CA6014F060
:1024B800007F2BD0174A92681A4201D001228A6005
:1024C800144AD2681A4203D08B6843F002038B6027
:1024D80004F0C063B3F1C06F04D0002017E00022FD
:1024E8004A60D9E74FEA9C0202320B4B53F822208C
:1024F80004F003039B0022FA03F303F00F03CB60FD
:10250800002004E0012070470120704700205DF89A
:10251800044B7047003C014000380140002837D088
:1025280010B58446046804F01F00012383401A4A4A
:1025380011686FEA030E21EA03011160516821EA6C
:1025480003035360DCF8003013F0007F22D0936857
:102558000EEA03039360D3680EEA0303D360DCF842
:10256800003003F0C063B3F1C06F01D0002012E067
:1025780080080A49023051F8203004F00304A4000E
:102588000F22A24023EA020341F82030002002E093
:1025980001207047002010BD003C01400038014078
:1025A8000346084609B95A6070470120704710B1C0
:1025B8000160002070470120704708B5036803F0E8
:1025C8001F0201239340054A52691A4204D0034A64
:1025D8005361436803B1984708BD00BF003C014000
:1025E800036803F01F0301229A400249486910401A
:1025F800D8407047003C0140026802F01F020123E6
:102608009340014A53617047003C0140026802F060
:102618001F0201239340014A13617047003C0140A7
:1026280010B40A490C6924F440740C610C6944F430
:1026380040740C610C6944F001040C610260BFF342
:102648006F8F43605DF8044B704700BF003C024049
:10265800074B1A6922F440721A611A6942F400722F
:102668001A611A6942F001021A610160704700BFDD
:10267800003C0240074B1A6922F440721A611A6939
:1026880042F480721A611A6942F001021A610180EB
:10269800704700BF003C0240064B1A6922F44072A2
:1026A8001A611A691A611A6942F001021A61017005
:1026B800704700BF003C0240274BDB6813F0100F47
:1026C80007D0264AD36943F01003D361224B102266
:1026D800DA60214BDB6813F0200F07D01F4AD3695B
:1026E80043F00803D3611C4B2022DA601A4BDB68E5
:1026F80013F0400F07D0194AD36943F00403D3619C
:10270800154B4022DA60144BDB6813F0800F07D0BA
:10271800124AD36943F00203D3610F4B8022DA6077
:102728000D4BDB6813F4807F08D00C4AD36943F063
:102738000103D361084B4FF48072DA60064BDB6803
:1027480013F0020F07D0054AD36943F02003D36181
:10275800014B0222DA607047003C02406406002008
:1027680070B506460846114C256945F08075256107
:10277800256945F0007525610D4903240C704861F1
:102788003EB1012E09D0022E0BD0FFF749FF0020E1
:1027980070BDD1B2FFF780FFF9E791B2FFF76AFF8A
:1027A800F5E71146FFF754FFF1E700BF003C024090
:1027B800640600207047704710B5384BDB6813F487
:1027C800F97F13D0364B1B78DBB2012B38D0344B52
:1027D8001B78DBB2022B39D0314B5C69FFF76CFFF9
:1027E8002046FFF7E8FF2E4B00221A702B4BDB68C0
:1027F80013F0010F13D0294B0122DA60284B1B7804
:10280800DBB2934225D0264B1B78DBB2022B3ED09D
:10281800234B5869FFF7CEFF214B00221A70204B3B
:102828001B7863B91D4B1A6922F0FF021A611A69F5
:1028380022F080721A611A6922F000721A6110BDC2
:10284800174BDC684FF0FF32DA60C7E7144B1C699E
:10285800C4E7134B5A68013A5A605B685BB1104C85
:10286800E068FFF7A7FFE3680133E360E068217AD7
:1028780000F0FEF9D3E70A4B4FF0FF34DC6000228A
:102888001A7000F045FA2046FFF794FFC7E700F0FA
:102898003FFA034B1869FFF78DFFBDE7003C024084
:1028A80064060020094B1B69002B01DB00207047E0
:1028B800064B074A5A6002F188325A601B69002B9E
:1028C80001DB002070470120704700BF003C024038
:1028D80023016745034A136943F00043136100204D
:1028E800704700BF003C0240074B5B6913F0010FC3
:1028F80007D0054B054A9A6002F144329A600020DD
:1029080070470120704700BF003C02403B2A19086D
:10291800034A536943F0010353610020704700BF25
:10292800003C0240014BD869704700BF6406002094
:1029380038B50446144B0022DA61FDF761FF0546FD
:10294800124BDB6813F4803F0AD0B4F1FF3FF7D095
:1029580024B1FDF755FF401BA042F1D903200DE03B
:102968000A4BDB6813F0010F02D0084B0122DA6032
:10297800064BDB6813F4F97F01D1002038BDFFF75F
:102988009BFE0120FAE700BF64060020003C0240DD
:10299800F8B516461B4A127E012A30D004460D4669
:1029A8001F46184B01221A764CF25030FFF7C0FF31
:1029B80090B9ACB1012C18D0022C1BD032463B4642
:1029C8002846FFF72DFE4CF25030FFF7B1FF0E4AB4
:1029D800136923F0010313610A4B00221A76F8BD2C
:1029E800F1B22846FFF758FEEDE7B1B22846FFF7E7
:1029F80041FEE8E731462846FFF72AFEE3E70220D2
:102A0800EDE700BF64060020003C024008B5054A17
:102A1800137D43F0020313754CF25030FFF788FF23
:102A280008BD00BF003C0240074B1A6922F44072FF
:102A38001A611A6942F004021A611A6942EA00220C
:102A480042F480321A617047003C0240044B1A7D00
:102A580002F0F3021A751A7D02431A7500207047B6
:102A6800003C0240024B586900F0E000704700BF8C
:102A7800003C0240014BD88A80B27047003C0240BB
:102A8800054B587DC0B2CC2804D0587DC0B2AA28C6
:102A980000D05520704700BF003C0240024B187D13
:102AA80000F00C00704700BF003C024010B504461F
:102AB8004CF25030FFF73CFF28B9034AD38A9BB247
:102AC80023EA0403D38210BD003C024010B504463B
:102AD8004CF25030FFF72CFF28B9034AD38A9BB237
:102AE800A4B22343D38210BD003C024010B5044673
:102AF8004CF25030FFF71CFF08B9014B5C7510BD54
:102B0800003C0240F8B504460E4615464CF25030DB
:102B1800FFF70EFF48B9054F3B7D03F01F0343EA5B
:102B2800060141EA050222433A75F8BD003C02401D
:102B380010B504464CF25030FFF7FAFE28B9034AA4
:102B4800D38A9BB2A4B22343D38210BD003C024077
:102B580010B504464CF25030FFF7EAFE28B9034A94
:102B6800D38A9BB223EA0403D38210BD003C0240FF
:102B78001F4B1B7E012B38D010B504461C4B01227D
:102B88001A76036813F0010F0CD04368934204D0FF
:102B9800C1688068FFF79AFF05E0C1688068FFF7A1
:102BA80085FF00E00120236813F0020F0BD1236892
:102BB80013F0040F0BD1236813F0080F11D10C4B3D
:102BC80000221A7610BD207CFFF790FFEFE7207EE9
:102BD80000F0800200F0400100F02000FFF792FFB3
:102BE800E9E7207DFFF732FFE9E70220704700BFE1
:102BF8006406002010B504460F230360FFF73AFF70
:102C0800A060FFF73DFF2061FFF72CFF2076FFF75C
:102C180045FF606110BD08B5036813F0010F0AD0C5
:102C28004368012B03D00089FFF792FF04E0008975
:102C3800FFF77EFF00E0012008BD024BDB8A03811D
:102C4800704700BF003C0240034AD37D43F0800335
:102C5800D3750020704700BF003C0240034AD37D73
:102C680003F07F03D3750020704700BF003C02408B
:102C7800012905D0022906D039B14FF4407104E08A
:102C88004FF4807101E04FF400710B4B1A6922F484
:102C980040721A611A690A431A611A6922F0F80225
:102CA8001A611A6942EAC00040F0020018611A6904
:102CB80042F480321A617047003C024008B5124B5A
:102CC8001A6942F080721A611A6942F000721A6138
:102CD800F322DA600368012B0DD00C4B01221A7025
:102CE800C2685A608268DA60017C19728068FFF7EE
:102CF800BFFF002008BD054B02221A704168196108
:102D0800007CFFF791FEF4E7003C024064060020D7
:102D1800164B1B6813F4007F10D0144B1A6822F46A
:102D280000721A601A6842F400621A601A6822F483
:102D380000621A601A6842F400721A600B4B1B6832
:102D480013F4806F10D0094B1A6822F480621A605D
:102D58001A6842F480521A601A6822F480521A6083
:102D68001A6842F480621A60704700BF003C024053
:102D7800F8B5224B1B7E012B3ED004460E461F4B56
:102D880001221A764CF25030FFF7D2FD074670BB8D
:102D98004FF0FF3333602368012B16D0A568E36832
:102DA800A2681344AB4220D9217C2846FFF760FF74
:102DB8004CF25030FFF7BCFD114A136923F0FA03B7
:102DC8001361074680B90135E9E76168207CFFF7A0
:102DD8002BFE4CF25030FFF7ABFD0746084A13694B
:102DE80023F00403136100E03560FFF791FF034B04
:102DF80000221A763846F8BD0227FBE76406002051
:102E0800003C024000230F2B00F2D78070B582B03F
:102E180065E085684FEA430E032404FA0EF425EAB8
:102E28000405CC6804FA0EF42C438460446824EA50
:102E380002044A68C2F300129A40224342605CE0EE
:102E4800DC08083450F8242003F00705AD004FF0E3
:102E58000F0E0EFA05FE22EA0E0E0A69AA4042EA91
:102E68000E0240F824205CE0042200E0002202FA6E
:102E78000EF22A430234514D45F82420504A9468F2
:102E88006FEA0C0224EA0C054E6816F4801F01D084
:102E98004CEA04054A4CA560E46802EA04054E6859
:102EA80016F4001F01D04CEA0405454CE56064683F
:102EB80002EA04054E6816F4003F01D04CEA040506
:102EC8003F4C6560246822404D6815F4803F01D06E
:102ED8004CEA04023A4C226001330F2B6BD80122D2
:102EE8009A400C6804EA020C32EA0404F4D14C68F3
:102EF80004F00304013C012C8BD94A6802F0030258
:102F0800032A09D0C4685D000322AA4024EA020407
:102F18008A68AA402243C2604A6802F00302022A71
:102F28008ED004684FEA430E032202FA0EF224EA16
:102F380002044A6802F0030202FA0EF22243026017
:102F48004A6812F4403FC7D0002201921D4A546CCF
:102F580044F480445464526C02F480420192019A11
:102F68009C08A51C154A52F8255003F0030E4FEA99
:102F78008E0E0F2202FA0EF225EA0205124A90423C
:102F88003FF474AF02F5806290420ED002F5806281
:102F980090420CD002F5806290420AD002F580621D
:102FA80090423FF461AF072261E701225FE7022206
:102FB8005DE703225BE702B070BD7047003801404F
:102FC800003C0140003802400000024000230F2B63
:102FD8007CD8F0B52DE0042500E0002505FA0CF5B5
:102FE800A54257D004685D004FF0030C0CFA05FCAD
:102FF80024EA0C0404604FEAD30E0EF1080E50F8D0
:103008002E4003F00706B6000F25B54024EA050454
:1030180040F82E40C46824EA0C04C460446824EADA
:1030280002024260826822EA0C02826001330F2B9E
:103038004BD801229A4002EA010632EA0104F5D18E
:103048004FEA930E0EF10205214C54F8254003F087
:10305800030C4FEA8C0C0F2505FA0CF73C401D4D6C
:10306800A842BAD005F58065A8420DD005F580655F
:10307800A8420BD005F58065A84209D005F5806502
:10308800A842A8D00725A9E70125A7E70225A5E7B3
:103098000325A3E7104C256825EA06052560656821
:1030A80025EA06056560E56825EA0605E560A56880
:1030B80025EA0605A560064E0EF1020456F82450CE
:1030C80025EA070546F824508CE7F0BD704700BF95
:1030D8000038014000000240003C014003691942E9
:1030E80001D001207047002070470AB18161704704
:1030F800090481617047436901EA030221EA030177
:1031080041EA02418161704782B04FF480330193F4
:10311800019B0B430193019BC361C161019BC36187
:10312800C3690193C36913F4803F02D0002002B041
:1031380070470120FBE7704708B5054B5B69034200
:1031480000D108BD024B5861FFF7F5FFF9E700BF52
:10315800003C0140044B1A6A42F080521A621A6A13
:1031680022F080521A6270470038024082B0044B45
:1031780001221A62034B1B680193019B02B070473E
:1031880000000E420070004082B0044B00221A6218
:10319800034B1B680193019B02B0704700000E426D
:1031A800007000401E4A136823F0E00301680B43D7
:1031B80013601C4B5A6822F480325A601A6822F451
:1031C80080321A609A6822F480329A60DA6822F4AF
:1031D8008032DA60436813F4803F04D0114A1368E0
:1031E80043F480331360436813F4003F04D00D4A5E
:1031F800536843F480335360436813F0010F04D0DD
:10320800084A936843F480339360436813F0020FCD
:1032180004D0044AD36843F48033D360704700BFB6
:1032280000700040003C0140014B01221A617047C8
:1032380000000E42014B00221A61704700000E4246
:10324800024A536803435360704700BF0070004050
:10325800024A536823EA0003536070470070004035
:10326800074A136923F004031361012905D00329D0
:1032780001D040BF20BF20BF704730BF704700BF9C
:1032880000ED00E00C4A136823F0030303431360C6
:103298000A4A136943F00403136101290AD0032978
:1032A80001D040BF20BF20BF044A136923F00403A4
:1032B8001361704730BFF7E70070004000ED00E091
:1032C800054A136843F002031360044A136943F084
:1032D8000403136130BF70470070004000ED00E048
:1032E800704708B5064B5B6913F4803F00D108BDF1
:1032F800FFF7F6FF024B4FF480325A61F7E700BF41
:10330800003C0140024A136943F00203136170470D
:1033180000ED00E0024A136923F0020313617047CD
:1033280000ED00E0024A136943F01003136170478F
:1033380000ED00E0024A136923F01003136170479F
:1033480000ED00E010B50B4B0122C3F8A420FDF7F7
:1033580057FA0446084B5B6813F0080F07D1FDF7CE
:103368004FFA001BB0F57A7FF4D9032000E0002063
:1033780010BD00BF00000E420070004010B50B4B9E
:103388000022C3F8A420FDF73BFA0446084B5B680B
:1033980013F0080F07D0FDF733FA001BB0F57A7F5A
:1033A800F4D9032000E0002010BD00BF00000E4249
:1033B80000700040014B01225A62704700000E4223
:1033C800014B00225A62704700000E42024B1868F7
:1033D80000F44040704700BF0070004030B583B033
:1033E800002300932A4B1A6C42F080521A641A6C1C
:1033F80002F080520092009A9B6803F00C03082B9D
:1034080043D00546234B00221A66FDF7F9F9044616
:103418001F4B1B6813F0007F06D0FDF7F1F9031B63
:10342800022BF5D9032031E0002301931A4A1368CF
:1034380023F440432B431360136803F44043019380
:10344800019B144B01221A66FDF7DAF90446104B6A
:103458001B6813F0007F06D1FDF7D2F9001B022884
:10346800F5D9032012E0FDF7CBF904460A4B5B6857
:1034780013F4804F07D1FDF7C3F9001BB0F57A7F2D
:10348800F4D9032002E0002000E0012003B030BDA1
:10349800003802400000474200700040014B012202
:1034A800DA62704700000E42014B0022DA62704770
:1034B80000000E42014B01229A62704700000E4242
:1034C800014B00229A62704700000E4200207047AC
:1034D800002800F0E08170B582B00446036813F05C
:1034E800010F3BD09F4B9B6803F00C03042B2CD09F
:1034F8009C4B9B6803F00C03082B21D06368B3F541
:10350800803F4FD0B3F5A02F52D0964B1A6822F4C3
:1035180080321A601A6822F480221A606368002BCD
:1035280050D0FDF76DF905468E4B1B6813F4003F2C
:1035380014D1FDF765F9401B6428F5D90320B1E1E2
:10354800884B5B6813F4800FD8D0864B1B6813F444
:10355800003F03D06368002B00F09F81236813F0BD
:10356800020F54D07F4B9B6813F00C0F3ED07D4B5D
:103578009B6803F00C03082B33D0E368002B68D05A
:10358800794B01221A60FDF73BF90546754B1B681C
:1035980013F0020F54D1FDF733F9401B0228F5D977
:1035A80003207FE16F4A136843F480331360B5E763
:1035B8006C4B1A6842F480221A601A6842F480320E
:1035C8001A60ABE7FDF71CF90546664B1B6813F458
:1035D800003FC3D0FDF714F9401B6428F5D9032038
:1035E80060E1604B5B6813F4800FC6D15D4B1B68CC
:1035F80013F0020F03D0E368012B40F05081594AC1
:10360800136823F0F803216943EAC10313602368B0
:1036180013F0080F42D063696BB3534B0122C3F810
:10362800802EFDF7EDF805464E4B5B6F13F0020F49
:1036380034D1FDF7E5F8401B0228F5D9032031E124
:10364800484A136823F0F803216943EAC103136069
:10365800DDE7454B00221A60FDF7D2F80546414BDD
:103668001B6813F0020FD2D0FDF7CAF8401B0228DE
:10367800F5D9032016E13C4B0022C3F8802EFDF754
:10368800BFF80546374B5B6F13F0020F06D0FDF706
:10369800B7F8401B0228F5D9032003E1236813F08B
:1036A800040F77D02F4B1B6C13F0805F33D10023AE
:1036B80001932C4B1A6C42F080521A641B6C03F075
:1036C80080530193019B0125284B1B6813F4807FCD
:1036D80023D0A368012B34D0052B38D0214B1A6F87
:1036E80022F001021A671A6F22F004021A67A3680F
:1036F800002B3DD0FDF784F806461A4B1B6F13F0DC
:10370800020F46D1FDF77CF8801B41F288339842BE
:10371800F3D90320C6E00025D6E7144A136843F41A
:1037280080731360FDF76CF80646104B1B6813F4A2
:10373800807FCED1FDF764F8801B0228F5D90320DD
:10374800B0E0084A136F43F001031367CFE7054B56
:103758001A6F42F004021A671A6F42F001021A67E0
:10376800C5E700BF00380240000047420070004033
:10377800FDF746F80646524B1B6F13F0020F08D0B0
:10378800FDF73EF8801B41F288339842F3D90320B5
:1037980088E0EDB9A369002B00F08380484A92685D
:1037A80002F00C02082A51D0022B17D0454B0022F8
:1037B8001A66FDF725F80446414B1B6813F0007F95
:1037C80042D0FDF71DF8001B0228F5D9032069E057
:1037D8003B4A136C23F080531364DBE7394B002218
:1037E8001A66FDF70DF80546354B1B6813F0007F88
:1037F80006D0FDF705F8401B0228F5D9032051E053
:10380800E369226A1343626A43EA8213A26A52088E
:10381800013A43EA0243E26A43EA0263284A5360F0
:10382800284B01221A66FCF7EBFF0446244B1B6861
:1038380013F0007F06D1FCF7E3FF001B0228F5D93F
:1038480003202FE000202DE000202BE0012B2BD0BF
:103858001B4B5B6803F48001E269914226D103F0B7
:103868003F02216A8A4223D1616A47F6C0721A4030
:10387800B2EB811F1ED103F44031A26A5208013A0B
:10388800B1EB024F18D103F07063E26AB3EB026F39
:1038980014D1002006E001207047012002E0012039
:1038A80000E0002002B070BD0120FBE70120F9E72D
:1038B8000120F7E70120F5E70120F3E70120F1E710
:1038C800003802400000474270B588B00C461546E3
:1038D80000BB00230193204E326B42F00102326399
:1038E800326B02F001020192019A4FF48072039246
:1038F80002220492032206920593079303A917480C
:10390800FFF780FAB36823F0EC6325431D43B560E5
:1039180008B070BD002302930F4E326B42F00402D0
:103928003263326B02F004020292029A4FF4007280
:10393800039202220492032206920593079303A995
:103948000748FFF75FFAB36823F0784344EAC504F1
:103958001C43B460DCE700BF0038024000000240AE
:1039680000080240014B0122DA6470470000474218
:10397800014B0022DA6470470000474208B5264B25
:103988009B6803F00C03042B41D0082B41D1224B38
:103998005A6802F03F025B6813F4800F12D01E4B86
:1039A8005968C1F388111D480023A1FB000100F0EC
:1039B80043FD194B5B68C3F3014301335B00B0FB64
:1039C800F3F008BD144B5868C0F388104FEA401C48
:1039D800BCEB000C6EEB0E0E4FEA8E1343EA9C63B1
:1039E8004FEA8C11B1EB0C0163EB0E03DB0043EAE9
:1039F8005173C90011EB000C43F100039902002335
:103A08004FEA8C2041EA9C5100F016FDD1E70348AB
:103A1800D7E70348D5E700BF0038024040787D016A
:103A28000024F400002800F09B8070B50D46044681
:103A38004F4B1B6803F007038B4208D2CBB24C4AAA
:103A48001370136803F007038B4240F08B802368E0
:103A580013F0020F17D013F0040F04D0454A9368EF
:103A680043F4E0539360236813F0080F04D0414AED
:103A7800936843F4604393603E4A936823F0F003ED
:103A8800A1680B439360236813F0010F32D0636879
:103A9800012B21D09A1E012A25D9364A126812F024
:103AA800020F61D033498A6822F0030213438B6006
:103AB800FCF7A6FE06462F4B9B6803F00C036268D2
:103AC800B3EB820F16D0FCF79BFE801B41F28833C4
:103AD8009842F0D9032042E0264A126812F4003FC7
:103AE800E0D101203BE0234A126812F0007FD9D1CF
:103AF800012034E01E4B1B6803F00703AB4207D9D3
:103B0800EAB21B4B1A701B6803F00703AB422DD1B6
:103B1800236813F0040F06D0164A936823F4E05381
:103B2800E1680B439360236813F0080F07D0114A2C
:103B3800936823F46043216943EAC1039360FFF764
:103B48001DFF0C4B9B68C3F303130B4AD35CD8408F
:103B58000A4B18600A4B1868FCF708FE002070BD75
:103B6800012070470120FAE70120F8E70120F6E775
:103B7800003C024000380240786800080800002035
:103B880010000020014B1868704700BF0800002093
:103B980008B5FFF7F7FF044B9B68C3F38223034A7A
:103BA800D35CD84008BD00BF0038024088680008D0
:103BB80008B5FFF7E7FF044B9B68C3F34233034A9A
:103BC800D35CD84008BD00BF0038024088680008B0
:103BD8000F230360304B1B6813F4802F3BD04FF446
:103BE800A02343602C4B1B6813F0010F3FD0012327
:103BF800C360294A1368C3F3C4030361136F13F046
:103C0800040F37D005238360234B5B6F13F0010F3C
:103C18003BD001234361204B1B6813F0807F37D0D2
:103C2800022383611C4A536803F48003C361536809
:103C380003F03F0303625368C3F388134362536876
:103C480003F4403303F58033DB0B83625368C3F31B
:103C58000363C3627047104B1B6813F4803F03D0A3
:103C68004FF480334360BDE700234360BAE7002385
:103C7800C360BEE7084B1B6F13F0010F02D001238E
:103C88008360C1E700238360BEE700234361C2E786
:103C980001238361C6E700BF003802400F23036099
:103CA8000B4B9A6802F0030242609A6802F0F00235
:103CB80082609A6802F4E052C2609B68DB0803F4F1
:103CC800E0530361034B1B6803F007030B60704765
:103CD80000380240003C0240704708B5054BDB68DD
:103CE80013F0800F00D108BDFFF7F6FF014B8022CB
:103CF8009A73F8E70038024030B583B00446036889
:103D080013F0050F0ED1236813F0020F38D1236882
:103D180013F0080F00F09D80227D4F4BC3F8E0217F
:103D2800002097E04D4B00229A66FCF769FD054696
:103D38004B4B1B6813F0006F06D0FCF761FD431B6B
:103D4800022BF5D9032085E06368A26843EA821351
:103D5800E26843EA0273424AC2F884303F4B0122C8
:103D68009A66FCF74DFD05463D4B1B6813F0006F46
:103D7800C9D1FCF745FD401B0228F5D9032069E0AD
:103D880000230193364B1A6C42F080521A641B6C64
:103D980003F080530193019B324A136843F4807304
:103DA8001360FCF72DFD05462E4B1B6813F4807F2E
:103DB80006D1FCF725FD431B022BF5D9032049E06A
:103DC800274B1B6F13F4407314D0226902F440721E
:103DD8009A420FD0224B1A6F22F440721F490120D9
:103DE800C1F8400E0020C1F8400E1A671B6F13F08F
:103DF800010F12D1236903F44072B2F5407F1DD040
:103E0800174A936823F4F813936015490B6F2269D6
:103E1800C2F30B0213430B6779E7FCF7F1FC054685
:103E28000F4B1B6F13F0020FE4D1FCF7E9FC401BAA
:103E380041F288339842F3D903200BE008498A6895
:103E480022F4F81223F0704323F4407313438B6079
:103E5800DBE7002003B030BD0010474200004742B6
:103E6800003802400070004003230360114BD3F870
:103E78008420C2F388128260D3F88420C2F30272CD
:103E8800C260D3F8842002F03F024260996801F4CE
:103E9800F8111A6F02F440720A430261D3F88C30A9
:103EA80013F0807F02D10023037570470123037547
:103EB800704700BF00380240012801D00020704739
:103EC800164B9B6813F4000302D02BB314487047B9
:103ED800124B5B6813F4800F15D0104BD3F8842075
:103EE80002F03F020F4BB3FBF2F30C4AD2F8840006
:103EF800C0F3881003FB00F0D2F88430C3F30273D8
:103F0800B0FBF3F07047054BD3F8842002F03F0272
:103F1800054BB3FBF2F3E8E7002070470038024096
:103F28000080BB0040787D010024F400012805D002
:103F3800054A136F23F0080313677047024A136F8B
:103F480043F00803136770470038024038B5054648
:103F5800174B00229A66FCF753FC0446154B1B6866
:103F680013F0006F06D0FCF74BFC001B0228F5D9B4
:103F7800032038BD2B686A6843EA8213AA6843EABB
:103F880002730C4AC2F88430094B01229A66FCF786
:103F980037FC0446074B1B6813F0006F06D1FCF78B
:103FA8002FFC001B0228F5D90320E2E70020E0E7F8
:103FB800000047420038024010B50A4B00229A66BA
:103FC800FCF71EFC0446084B1B6813F0006F06D074
:103FD800FCF716FC001B0228F5D9032000E000209E
:103FE80010BD00BF000047420038024038B5FCF75A
:103FF80007FC0446474A136843F001031360454B26
:104008001B6813F0020F06D1FCF7FAFB001B02280D
:10401800F5D9032038BD3F4D2B6843F080032B6052
:10402800FCF7EEFB04460023AB603A4B9B6813F0A9
:104038000C0F08D0FCF7E4FB001B41F288339842D0
:10404800F3D90320E6E7FCF7DBFB0446314A1368A3
:1040580023F4502313602F4B1B6813F4003F06D042
:10406800FCF7CEFB001B6428F5D90320D2E7FCF748
:10407800C7FB0446274A136823F080731360254B57
:104088001B6813F0007F06D0FCF7BAFB001B022860
:10409800F5D90320BEE7FCF7B3FB04461D4A1368B5
:1040A80023F0806313601B4B1B6813F0006F06D06E
:1040B800FCF7A6FB001B0228F5D90320AAE7154B3D
:1040C800154A5A6002F1E052C3F88420DA6822F4F3
:1040D800F852DA60DA6822F40052DA60DA6842F4F8
:1040E8001F02DA60DA6842F40012DA605A6F22F0CE
:1040F80001025A675A6F42F080725A67074B084AA2
:104108001A60084B1868FCF731FB002882D00120A0
:1041180080E700BF0038024010300004080000208B
:104128000024F400100000200B6803F03F03B0FBEC
:10413800F3F04B68C3F3080303FB00F04B8901332A
:104148005B00B0FBF3F07047074B1B6813F0007F70
:1041580007D10020044B1B6813F0006F00D001202A
:1041680070470120F6E700BF00380240064BA3FB6A
:1041780000239B09013B4FF0E02253610023936128
:1041880005231361704700BFD34D621082B04FF012
:10419800E0231B690193019BB0F1FF3F00D0013080
:1041A80038B14FF0E0231B6913F4803FF8D0013891
:1041B800F6E702B07047014B18607047080000200E
:1041C8000246002858D02E4B1B6803F44043B3F531
:1041D800404F22D000212A4B1B6803F44043B3F51B
:1041E800004F2FD0264B1B6803F44043B3F5804F94
:1041F80035D0244A136823F007030B4313600222C7
:10420800204B1B6803F00703013A994201D0002AAA
:10421800F6D1994232D0012070471B4B984204D8FE
:104228001A4B98420AD9002100E0032141B1184BEA
:104238009A42D0D90029CED10121CCE70021F6E756
:104248000221C8E7114B9A4200D931B1104B9A426A
:10425800C8D90029C6D10121C4E70221C2E70B4B06
:104268009A4200D931B10A4B9A42C2D90029C0D129
:104278000121BEE70221BCE70120704700207047FA
:1042880000700040003C0240804A5D050090D00369
:1042980080C3C90170B50C460B68C3F30313254AE4
:1042A800D35C20FA03F5244B1B68AB4231D30026BC
:1042B800224A136843F080731360204B1B6813F085
:1042C800007FFAD023681D4A916821F0F0010B4362
:1042D8009360936823F0030343F002039360174B42
:1042E8009B6803F00C03082BF9D16268134B99689B
:1042F80021F4E0510A439A60A268996821F4604168
:104308000A439A600C4B1B68AB4209D86EB1304621
:1043180070BD2846FFF754FF06460028F2D1C7E7CC
:104328002846FFF74DFF0646F0E72846FFF743FF0C
:10433800EDE700BF78680008080000200038024058
:10434800F8B504460D46FFF7FFFE30BB214614487A
:10435800FFF7EAFE134B1B6813F0020F09D1114A4D
:10436800136843F0010313600E4B1B6813F0020F30
:10437800FAD026686768A1680A4A54680A4B23403D
:1043880046EA871423435360536823F440330B43AE
:1043980053602946FFF77EFFF8BD0120FCE700BF08
:1043A8000024F400003802400080BFFFF8B506463C
:1043B8000F4614461D46FFF7C7FE002835D1214693
:1043C8003046FFF7B1FE1A4B1B6813F4003F10D1BB
:1043D800012F24D0164A136823F480231360144A4B
:1043E800136843F480331360114A126812F4003FD3
:1043F800FAD022686668A4680D494F680D4B3B40A7
:1044080042F4800242EA861213434B604B6823F45D
:10441800403323434B602946FFF73CFFF8BD044A6D
:10442800136843F480231360D9E70120F6E700BF3F
:10443800003802400080BFFF53B94AB9002908BFBD
:1044480000281CBF4FF0FF314FF0FF3001F052B988
:10445800ADF1080C6DE904CE00F006F8DDF804E0D3
:10446800DDE9022304B070472DE9F047089D8E4628
:1044780004468846002B4AD18A42174662D9B2FAC6
:1044880082F64EB1C6F1200301FA06F820FA03F3CA
:10449800B74043EA0808B4404FEA174E1FFA87FCB2
:1044A800B8FBFEF1230C0EFB118843EA084301FB1D
:1044B8000CF29A4209D9FB1801F1FF3080F0EA802A
:1044C8009A4240F2E78002393B449A1AA3B2B2FBFF
:1044D800FEF00EFB102243EA024300FB0CFC9C4555
:1044E80009D9FB1800F1FF3280F0D6809C4540F2D4
:1044F800D3803B44023840EA0140A3EB0C0300217F
:104508001DB1F3400022C5E90032BDE8F0878B42B7
:1045180005D90DB1C5E9000100210846F5E7B3FA50
:1045280083F1002946D1734502D3824200F2058106
:10453800841A6EEB030201209046002DE5D0C5E9F0
:104548000048E2E7002A00F09080B2FA82F6002ED6
:1045580040F0A4808A1A030C4FEA174E80B2BCB20E
:104568000121B2FBFEFC0EFB1C2243EA024304FBC2
:104578000CF29A4207D9FB180CF1FF3802D29A4282
:1045880000F2E080C4469B1AB3FBFEF20EFB123326
:1045980040EA034302FB04F49C4207D9FB1802F1EA
:1045A800FF3002D29C4200F2CA8002461B1B42EA3C
:1045B8000C40A5E7C1F120068B4022FA06F71F43FD
:1045C8000EFA01F420FA06F32EFA06FE4FEA17490E
:1045D800234300FA01F81FFA87FCBEFBF9F01C0C14
:1045E80009FB10EE44EA0E4400FB0CFEA64502FA55
:1045F80001F209D93C1900F1FF3A80F09C80A645E8
:1046080040F2998002383C44A4EB0E041FFA83FE62
:10461800B4FBF9F309FB13444EEA044403FB0CFC16
:10462800A44508D93C1903F1FF3E80F08280A445D7
:104638007FD9023B3C4443EA0040A4EB0C04A0FBB6
:1046480002EC64457346E14662D35FD05DB1B8EBD6
:10465800030264EB090404FA06F622FA01F31E4386
:10466800CC40C5E9006400214FE7B1FBF2FC010C26
:1046780041EA0E4180B240EA01423B4638463C4698
:10468800B846BE462026B1FBF7F1A2EB080241EA84
:104698000C4166E7014618E710462CE7C6F12002F0
:1046A8002EFA02F3B740B14020FA02F24FEA174E51
:1046B8000A43B3FBFEF8BCB20EFB1833110C41EAF7
:1046C800034108FB04F9B04089454FEA104380B222
:1046D8003ED9791808F1FF3C01D289451FD8A1EBD2
:1046E8000901B1FBFEF909FB04F80EFB191192B29E
:1046F80042EA0142424529D2BA1809F1FF31C4D22F
:104708004245C2D2A9F102013A44BEE7F0459DD222
:10471800BEEB02036CEB070C0138E14696E7A7EB0A
:1047280009094944A8F1020CB1FBFEF909FB04F898
:10473800DBE773467FE7504666E70846FDE63B44FD
:10474800023A33E7ACF1020C3B441CE749469CE7CC
:10475800A1EB0901C446B1FBFEF909FB04F8C4E763
:1047680003685A004CBF43F0004323F00043184449
:10477800704700BF2DE9F04759B301F1FF380546EE
:10478800164647464FF0000A0AEB070101EBD171C4
:10479800491005EBC1094846FFF7E2FF88454FEA93
:1047A800C104034610D004F10800B342284407D8D6
:1047B800FFF7D6FF0138B04208D201F1010AE3E75A
:1047C8008A4506D04F1EDFE7B042F9D84846BDE813
:1047D800F0874FF000094846BDE8F087012809D066
:1047E800022805D0044B00280CBF1846002070474B
:1047F8000248704702487047C94E0008D14E000869
:10480800CD4E000830B5224B83B004468D1E43B30D
:1048180001A92846AFF30080F0B101992A46FFF7B5
:10482800A9FF0146C0B1FFF79BFF4B68A064012BAD
:104838002BD0002B01F1040025DBFFF791FF0023AB
:1048480023650368E064002B12DBFFF789FF03464A
:104858000020236103B030BD00230920236103B089
:1048680030BD0C4B0C49C91AC91018460191D5E73F
:10487800C3F30360FFF7B2FF031E0CBF092000203B
:10488800236103B030BD0123DAE700230520E0E708
:104898000000000014690008EC6900080368DA07E2
:1048A80010B5044606D49B0700F1500009D500F066
:1048B8008FFC2368590709D51A070ED5DB0613D5CF
:1048C80010BD00F07DFC23685907F5D404F1D80029
:1048D80000F086FC23681A07F0D404F5AC7000F0E9
:1048E80087FC2368DB06EBD404F5EC70BDE81040C8
:1048F80000F0C2BC0346006800B11844704700BF0E
:1049080009207047704700BF70B504460E46316CE9
:104918002046FFF777FF054688B9326C6261236944
:1049280032462146012098470828F0D0072806D1AA
:104938002846316CFFF7E6FF301D00F035FC01F02A
:10494800B1FE00BF2DE9F04701F1040CC768D0F8AB
:10495800188006469146BCE80F00ADF5767D03AC9D
:104968000FC4BCE80F000FC4BCE80F000FC49CE8DC
:104978000F0002AD4FF0000E84E80F00C5F800E00C
:1049880021E02B6C73614FF4F47229467CA801F086
:1049980041FF33697CAA3146504698478A9BAB64ED
:1049A8004946CDE900588246334601203246B84789
:1049B800814630BB4FF4F4727CA9284601F02AFFE7
:1049C800BAF1080F1AD1296C3046FFF71BFF09F11D
:1049D800090904465FFA89FA0028D2D0AB6BAB64A8
:1049E8003246CDE9005833464AF010010120B84755
:1049F80038B920460DF5767DBDE8F087BAF1070F86
:104A080005D0092420460DF5767DBDE8F087484697
:104A1800296CFFF777FF03A800F0C6FB806C70478E
:104A2800F0B5CB6BFBB001F1040C0B640E460546E8
:104A3800BCE80F0001AC0FC4BCE80F000FC4BCE811
:104A48000F000FC49CE80F004FF0FF3784E80F00F9
:104A5800009706E02B696A462946984708280446C5
:104A680008D110992846FFF7CDFE0028F2D009207A
:104A78007BB0F0BD6846FFF711FF062CF7D1314631
:104A88002846FFF741FF00BFC160D96B82611964F6
:104A98000022194656E700BF70B5C66843690B6423
:104AA800AEB903690A4604460D46014602209847F6
:104AB800072805D008280FD129462046FFF724FFEC
:104AC8003046296CFFF71EFF281D00F06DFB012200
:104AD800FFF738FF01F0E6FD01F0E4FDC2681AB106
:104AE800CA6B0A6400222DE79AE700BF704700BF2F
:104AF800836801460BB1012018477047052915D86E
:104B0800DFE801F00A031403030501207047009A47
:104B1800436C13600020704743B90F2A06D800EB96
:104B2800820200205368009A136070470220704781
:104B380000B585B00A46002303A900911946FFF77E
:104B4800DDFF039805B05DF804FB00BF052915D803
:104B5800DFE801F00A031403030501207047009BF6
:104B68001B6843640020704743B90F2A06D8009B8E
:104B780000EB82021B6853600020704702207047D8
:104B880010B584B0002303AC039200940A4619467A
:104B9800FFF7DCFF04B010BD70B5D36BADF5107D29
:104BA80002F1040C136405460C46BCE80F000DF135
:104BB8005C0EAEE80F00BCE80F00AEE80F00BCE8E2
:104BC8000F00AEE80F009CE80F004FF0FF368EE8AC
:104BD8000F00169610E0FFF7D3FF214616A8A84746
:104BE800034616AA0820694683B9049B98470528F6
:104BF80006460CD0092809D026996846FFF702FE18
:104C080003460C216A4616A8002BE4D0092616A8EC
:104C1800FFF744FE30460DF5107D70BD2DE9F04FCD
:104C28001646CA6C89B00D4652F8041B069200F06D
:104C3800030C002B79D00C0C8DF81D400904E4B24C
:104C4800059102EB840202218DF81C10296DBCF13C
:104C5800020F08BFAA6B11F0010809D005A9304658
:104C680000F0A4FB002856D1082009B0BDE8F08F59
:104C78001768002FF2D000F00801CDE90118E346CB
:104C88009A46BAF1020F4CD01788548802F10409E9
:104C9800AA6C24F001030F21304603EB0208FFF74A
:104CA80047FF80453BD827F0010202EB0803834207
:104CB80094BF00230123640004F0020407F00107F5
:104CC8002743012F4ED0022F35D027BBBBF1000F51
:104CD80002D0002B40F0D38009F104021768002F9E
:104CE800CFD105A93046DDF8088000F05FFB90B908
:104CF800B8F1000FB8D00F213046FFF719FF0E2189
:104D080002463046FFF73CFF6C4A0F213046FFF75A
:104D180037FF072000E0092009B0BDE8F08F002325
:104D2800C9E7546802F10809B2E7090205918DF84C
:104D38001D30032188E7D9F8004024F00048BBF172
:104D4800000F47D12BB1019B002B5CD0B8F1000FAD
:104D580059D0002C01DA09F1040908F1010209EB24
:104D68008202BBE7BBF1000F1CD1C3B1D9F80430F4
:104D7800D9F80020991C4FEAD272CCD005F158041A
:104D88000133049400F08E8009F10400FFF7B2FDAE
:104D980004AB01462846AFF30080002859D109F139
:104DA80008029BE70D213046FFF7C2FE2C6A8442B9
:104DB800F5D1AB6A9945F2D14846FFF7D1FC0F21EE
:104DC80002463046FFF7DCFE2A4600213046FFF750
:104DD800D7FE9EE70D213046FFF7AAFE2F6A8742CD
:104DE800B7D1AB6A9945B4D100240423C5E90B4374
:104DF8004B44C5F828806B63D9F80030A34258DBD0
:104E080001230293A9E705F15803CDF80CB009F185
:104E18000407B34600241E460BE038460496FFF705
:104E280069FD0022014604AB2846AFF30080043731
:104E3800F8B9444504F10104EFD10D215846FFF7B4
:104E480077FE049BC5F828900246C5E9082306208A
:104E580062E704460D213046FFF76AFE049E286289
:104E6800022C04BFEE6205F12C06C5E9096906208B
:104E780052E75E46D9F80040DDF80CB069E74846CD
:104E8800FFF76EFC09F104030446AB632846AFF351
:104E9800008000283FF43FAF22460F213046FFF73D
:104EA8006FFE36E730460D21FFF742FE26462862A0
:104EB800DBE708F1010209EB82007EE70000000051
:104EC8000023ABE60123A9E60223A7E62DE9F0417A
:104ED8000646C4B01446052900F2E880DFE811F060
:104EE80012002D00E60066008B000600836B002C84
:104EF80040F0DC8053F8042B42648363002044B004
:104F0800BDE8F081002B40F0D180856B1FFA84FC4E
:104F1800012006F1040E00FA03F111EA0C0F2A46EB
:104F280004D052F8041B4EF8231015460133102BF9
:104F3800F1D1A704E2D4B563E0E7012B4FEA1447A7
:104F4800A4B27CD0052B40F0B18007EB0408B8F17F
:104F5800200F00F2AB800F2F40F2AA80002CCDD09A
:104F68000268550700F1FF80019302AD284600F062
:104F78003BF96400A7F11000B26B019B611E05EBC1
:104F8800C0000131043802EB810152F8044B40F8AB
:104F9800044F8A42F9D1012B00F0CD800F2FB26364
:104FA80040F2E980284600F01BF9A7E7032B7DD1E2
:104FB800A7B207EB1443102B4FEA144476D80368C2
:104FC800190700F1A48022AD284600F033F97A00D1
:104FD800B06B05EBC404531E42B1011B625844F880
:104FE800042B013B5A1CF9D100EBC700B0632846DB
:104FF80000F0FEF882E7002B58D1102C56D8036831
:10500800D8067CD422AD284600F040F9B76B294673
:1050180000234FF0010C0CFA03F22242384603F148
:10502800010303D050F8042B0A600746042B01F152
:105038000401F0D1B763284600F01EF95EE73A197B
:10504800102A33D8102F31D00268D10708D530463E
:1050580022F0030240F8502B019300F0B5F8019BB1
:10506800019322AD284600F0AFF8B16B019B002CEC
:1050780062D06200013A05EBC7004FF00008013228
:10508800043801EB820251F8044B40F8044F914276
:10509800F9D1B8F1000F42D1012B4DD00F2FB163D8
:1050A8003FF62CAF284600F093F827E7022026E7C2
:1050B8000268B8F1100F02F0010143D951B122F092
:1050C800010242F0020240F8502B019300F084F8EC
:1050D8003268019B0193500751D422AD284600F055
:1050E8007BF802A800F080F8C7F110025200B16BFB
:1050F800019BA8F11008013A05EBC700BFE723F0B0
:105108001003336006F5EC7000F0C0F87AE723F07E
:105118000803036000F5AC7000F08CF853E7102F1B
:10512800384638BF10204FEA4801103802AD01391F
:1051380005EBC00025E722AD0431B163284600F035
:105148003FF8DBE619BB22AD2846019300F044F88E
:10515800B16B002CA6D06200019B013A05EBC70099
:105168004FF000088BE722F0040240F8D82B019397
:1051780000F03AF8F9E622A800F02AF812E73046DB
:1051880022F0040240F8D82B00F02EF8A5E73046AC
:1051980022F0010242F0020240F8502B019300F085
:1051A8001BF8019BCFE700BF00F1340191E83800FC
:1051B8009C46A6464CF8045D90E8FF0FE54600BD06
:1051C80090EC210B704700BF80EC210B704700BFAB
:1051D80090EC200B704700BF80EC200B704700BF9D
:1051E800D0EC200B704700BFC0EC200B704700BF0D
:1051F800F0EC0201F0EC0211F0EC0221F0EC0231CB
:10520800F0EC0241F0EC0251F0EC0261F0EC0271BA
:10521800F0EC0281F0EC0291F0EC02A1F0EC02B1AA
:10522800F0EC02C1F0EC02D1F0EC02E1F0EC02F19A
:10523800704700BFE0EC0201E0EC0211E0EC022153
:10524800E0EC0231E0EC0241E0EC0251E0EC0261FA
:10525800E0EC0271E0EC0281E0EC0291E0EC02A1EA
:10526800E0EC02B1E0EC02C1E0EC02D1E0EC02E1DA
:10527800E0EC02F1704700BFB0FC0181B0FC019185
:10528800B0FC01A1B0FC01B1704700BFA0FC0181D6
:10529800A0FC0191A0FC01A1A0FC01B1704700BFD6
:1052A800EC4600B52DE900502DE9FF1F4FF0000333
:1052B8002DE90C0001A9FFF7B3FBDDF840E012B0BF
:1052C800704700BFEC4600B52DE900502DE9FF1FDF
:1052D8004FF000032DE90C0001A9FFF7DDFBDDF815
:1052E80040E012B0704700BFEC4600B52DE9005011
:1052F8002DE9FF1F4FF000032DE90C0001A9FFF76E
:10530800EDFBDDF840E012B0704700BFEC4600B599
:105318002DE900502DE9FF1F4FF000032DE90C0087
:1053280001ABFFF7B1FBDDF840E012B0704700BFFA
:10533800EC4600B52DE900502DE9FF1F4FF00003A2
:105348002DE90C0001AAFFF727FCDDF840E012B0B8
:10535800704700BF027A03467AB9427AA2B141681F
:10536800013A10B44272086803220C1D1A72020234
:105378005C60000E10BC1A6070470068013A1A722F
:1053880002021A60000E7047B020704700B585B061
:1053980003AA0023009219460C22FFF7AFFB0398DB
:1053A80005B05DF804FB00BFF0E700BF2DE9F0434E
:1053B800064685B00D464FF000082846FFF7CAFF9D
:1053C800B028044600F01C8107065BD500F0F00306
:1053D800A02B1AD030D8802B00F08280902B27D1B8
:1053E80000F00D030D2B23D002AF002300F00F02B5
:1053F800194600973046FFF781FB002300970D22DE
:1054080019463046FFF7A2FBD7E7C34303F007036B
:105418004FF47F621A41010702F47F6201D542F41A
:105428008042002319463046FFF750FD0028C4D0BB
:10543800092005B0BDE8F083B02B68D0C02B3DD162
:10544800C62800F0CA80C72800F0DF8000F0F80303
:10545800C02B00F0EC80C82800F0F780C928E7D1FD
:105468002846FFF777FF020300F00F0002F47022CE
:1054780001300243012105233046FFF727FD0028AC
:105488009BD0D5E78300DBB21F1D0DF1080900236F
:105498001946CDF800900D223046FFF72FFB029BEE
:1054A800CDF8009060064CBFDF1BFF1800230D22CB
:1054B800194630460297FFF749FB7EE700F0F803EC
:1054C800D02BB5D100F007020132052342F40022A7
:1054D80001213046FFF7FAFC00283FF46EAFA7E73A
:1054E8002846FFF737FF24022043B0F5004F9FD02E
:1054F80004010023A2B219463046FFF7E7FC002852
:1055080096D114F4004F18BF4FF0010855E7A0F1E9
:10551800B103042B00F2B580DFE803F05529160C1F
:10552800030003AA0023009219460D223046FFF714
:10553800E5FA42E700231A4605213046FFF7C6FC84
:1055480000283FF43AAF73E72846FFF703FF02034A
:1055580000F00F00013002F47022012302431946C3
:105568003046FFF7B3FC00283FF427AF60E700237D
:105578000DF108090D221946CDF800903046FFF7C5
:10558800BDFA2846FFF7E6FE0206029C4FF0020726
:105598000BD500F07F00B840044428460294FFF77A
:1055A800D9FE030607F10707F3D4B840002304F532
:1055B80001740444CDF800900D2219463046029437
:1055C800FFF7C4FAF9E62846FFF7C4FE431EDBB22C
:1055D8000E2B02467FF625AF2AE72846FFF7BAFECC
:1055E800020300F00F00013002F47022032302438B
:1055F80019463046FFF76AFC00283FF4DEAE17E78D
:10560800B8F1000F2DD0002013E72846FFF7A2FEBF
:10561800431EDBB20E2B02463FF60AAF00230421DD
:105628003046FFF753FC00283FF4C7AE00E700F010
:105638000F020132032342F4202219463046FFF7B5
:1056480045FC00283FF4B9AEF2E62846FFF782FE93
:1056580000F0F00200F00F031032013343EA023287
:1056680008E702AC4346414600940E223046FFF755
:1056780045FA0F220094434641463046FFF766FA42
:10568800C1E700F0FC03B42B3FF4D2AE00F00702F0
:105698000132012342F4002219463046FFF716FC76
:1056A80000283FF48AAEC3E610B5C26C536884B0D4
:1056B8004FF0030C08321C0208461B0E01A9019486
:1056C80002928DF80CC08DF80D30FFF76FFE04B014
:1056D80010BD00BF08B5FFF767FE806C08BD00BFAE
:1056E80008B5FFF761FEC06CC37900EB8300083092
:1056F80008BD00BF704700BFDFF834D0FAF726FFB7
:105708000C480D490D4A002302E0D458C450043314
:10571800C4188C42F9D30A4A0A4C002301E01360EA
:105728000432A242FBD300F035FAFAF769FF70475A
:1057380000000220000000203C060020F869000854
:105748003C06002094090020FEE7000008B500216F
:10575800044600F059FA034B1B6803B198472046EA
:10576800FAF76BFEBC070020002310B50446C0E919
:105778000033C0E90433836081814366C281836159
:10578800194608225C3000F07CF90D4B23620D4B62
:1057980063620D4BA3620D4BE3620D4BE4619C42C7
:1057A80006D003F16802944202D0D0339C4205D15E
:1057B80004F15800BDE8104000F011BA10BD00BF58
:1057C800015A0008275A00085F5A0008835A00083F
:1057D80084060020024A0349034800F0EFB800BFDE
:1057E80014000020816300082800002041680C4B49
:1057F800994210B5044601D000F0BEFDA168094BDE
:10580800994202D0204600F0B7FDE168064B994264
:1058180004D02046BDE8104000F0AEBD10BD00BF6A
:1058280084060020EC0600205407002008B54B6EC3
:10583800DA0705D48B899B0502D4886D00F0D3F96B
:10584800002008BD08B54B6EDA0705D48B899B0587
:1058580002D4886D00F0CDF9002008BD10B50B4BBF
:105868000B4C0C4A1A60204600220421FFF77CFFEB
:1058780004F1680001220921FFF776FF04F1D00046
:105888000222BDE810401221FFF76EBFBC070020BE
:1058980084060020DD570008014800F0A4B900BFC5
:1058A800CB070020014800F0A4B900BFCB070020B7
:1058B800F8B50746FFF7F0FF234B1B680BB9FFF756
:1058C800CDFF224ED6E90134013B0FD53568002DB6
:1058D80037D14FF4D671384600F008FB044628BB90
:1058E8003060FFF7DFFF0C233B601BE0B4F90C507E
:1058F800D5B9174BE36004F15800656600F06FF9FD
:10590800FFF7D0FFC4E90155C4E904552560A56136
:105918000822294604F15C0000F0B3F8C4E90C55EC
:10592800C4E911552046F8BD6834CDE70423056065
:1059380043600C30A0604FF4D072294600F0A1F803
:1059480034603668BEE700BFBC07002014000020A2
:105958000100FFFF10B50446FFF79EFF636B1BB104
:10596800BDE81040FFF79EBF044B6363044B1B6800
:10597800002BF5D1FFF772FFF2E700BFF5570008DB
:10598800BC07002008B5FFF787FFBDE80840024ABA
:105998000249002000F012B8140000203558000811
:1059A80008B5044A0449002000F008F8BDE808409A
:1059B800FFF778BF140000204D5800082DE9F84380
:1059C8000746884614460026D4E90195B9F101092D
:1059D80005D52468002CF7D13046BDE8F883AB899B
:1059E800012B07D9B5F90E30013303D029463846C3
:1059F800C04706436835E9E710B50C46B1F90E1003
:105A080000F09EF80028ABBF236DA3891B1823F470
:105A18008053ACBF2365A38110BD002070472DE9DA
:105A2800F0411F468B89DB0505460C46164605D511
:105A3800B1F90E100223002200F070F8A389B4F91E
:105A48000E1023F48053A38132463B462846BDE816
:105A5800F04100F087B810B50C46B1F90E1000F00F
:105A68005DF8431CA38915BF206523F4805343F4D4
:105A78008053A38118BFA38110BDB1F90E1000F0A7
:105A880009B802440346934200D1704703F8011B4A
:105A9800F9E7000038B5064D0023044608462B6098
:105AA800FAF7EFFC431C02D12B6803B1236038BD21
:105AB800C0070020184B1B68834270B504462AD0E3
:105AC800436C53B10025636C595999B90435802D3D
