:020000040800F2
:1000000000800020E50F0008E90E0008EB0E000854
:10001000ED0E0008EF0E0008F10E000800000000D1
:10002000000000000000000000000000F30E0008C7
:10003000F50E000800000000F70E0008F90E000899
:10004000351000083510000835100008351000087C
:10005000351000083510000835100008351000086C
:10006000351000083510000835100008351000085C
:10007000351000083510000835100008351000084C
:100080003510000800000000351000083510000889
:1000900075210008351000083510000835100008DB
:1000A000351000083510000835100008351000081C
:1000B000351000083510000835100008351000080C
:1000C00035100008351000083510000835100008FC
:1000D00035100008351000083510000835100008EC
:1000E00035100008351000083510000835100008DC
:1000F0003510000835100008351000080000000019
:100100000000000035100008000000003510000855
:1001100035100008000000003510000835100008F8
:10012000351000083510000835100008351000089B
:100130003510000800000000000000003510000825
:100140003510000835100008000000000000000015
:10015000000000000000000000000000000000009F
:100160000000000000000000000000003510000842
:100170003510000800000000000000000000000032
:100180000000000035100008000000000000000022
:10019000000000000000000000000000000000005F
:1001A00000000000000000003510000835100008B5
:1001B0003510000835100008351000080000000058
:1001C00000000000351000080000000000000000E2
:0801D00035100008351000088D
:1001E00010B5054C237833B9044B13B10448AFF371
:1001F00000800123237010BD580300200000000080
:10020000B4A9000808B5034B1BB103490348AFF379
:10021000008008BD000000005C030020B4A90008B5
:1002200010F8012B11F8013B012A28BF9A42F7D0A0
:10023000D01A70470000000000000000000000001D
:1002400001F0FF01102A2BDB10F0070F08D010F887
:10025000013B013A8B422DD010F0070F42B3F6D18B
:10026000F0B441EA012141EA014122F007047FF0A4
:1002700000070023F0E80256083C85EA010586EAFB
:10028000010685FA47F5A3FA87F586FA47F6A5FA37
:1002900087F68EB9EED1F0BC01F0FF0102F0070243
:1002A00032B110F8013B013A83EA010313B1F8D1EE
:1002B0000020704701387047002D06BF35460338CF
:1002C000073815F0010F07D1013015F4807F02BF08
:1002D000013015F4C03F0130F0BC0138704700BF59
:1002E000034613F8012B002AFBD1181A0138704776
:1002F00081F0004102E000BF83F0004330B54FEAD7
:1003000041044FEA430594EA050F08BF90EA020F43
:100310001FBF54EA000C55EA020C7FEA645C7FEAD6
:10032000655C00F0E2804FEA5454D4EB5555B8BFF9
:100330006D420CDD2C4480EA020281EA030382EA6A
:10034000000083EA010180EA020281EA0303362DFC
:1003500088BF30BD11F0004F4FEA01314FF4801CCF
:100360004CEA113102D0404261EB410113F0004FE1
:100370004FEA03334CEA133302D0524263EB430398
:1003800094EA050F00F0A780A4F10104D5F1200E36
:100390000DDB02FA0EFC22FA05F2801841F1000191
:1003A00003FA0EF2801843FA05F359410EE0A5F165
:1003B00020050EF1200E012A03FA0EFC28BF4CF096
:1003C000020C43FA05F3C01851EBE37101F000454C
:1003D00007D54FF0000EDCF1000C7EEB00006EEB59
:1003E0000101B1F5801F1BD3B1F5001F0CD34908E3
:1003F0005FEA30004FEA3C0C04F101044FEA44523A
:1004000012F5800F80F09A80BCF1004F08BF5FEAC0
:10041000500C50F1000041EB045141EA050130BDA0
:100420005FEA4C0C404141EB0101013C28BFB1F5B2
:10043000801FE9D291F0000F04BF01460020B1FAFD
:1004400081F308BF2033A3F10B03B3F120020CDAD0
:100450000C3208DD02F1140CC2F10C0201FA0CF0AE
:1004600021FA02F10CE002F11402D8BFC2F1200C13
:1004700001FA02F120FA0CFCDCBF41EA0C019040C9
:10048000E41AA2BF01EB0451294330BD6FEA040412
:100490001F3C1CDA0C340EDC04F11404C4F12002FD
:1004A00020FA04F001FA02F340EA030021FA04F30F
:1004B00045EA030130BDC4F10C04C4F1200220FA66
:1004C00002F001FA04F340EA0300294630BD21FAA4
:1004D00004F0294630BD94F0000F83F4801306BF6A
:1004E00081F480110134013D4EE77FEA645C18BF5E
:1004F0007FEA655C29D094EA050F08BF90EA020FF5
:1005000005D054EA000C04BF1946104630BD91EAEC
:10051000030F1EBF0021002030BD5FEA545C05D1EF
:100520004000494128BF41F0004130BD14F580042E
:100530003CBF01F5801130BD01F0004545F0FE41A2
:1005400041F470014FF0000030BD7FEA645C1ABFD7
:10055000194610467FEA655C1CBF0B46024650EA0E
:10056000013406BF52EA033591EA030F41F400213A
:1005700030BD00BF90F0000F04BF0021704730B5C0
:100580004FF4806404F132044FF000054FF0000195
:1005900050E700BF90F0000F04BF0021704730B556
:1005A0004FF4806404F1320410F0004548BF40422B
:1005B0004FF000013EE700BF42004FEAE2014FEA80
:1005C00031014FEA02701FBF12F07F4393F07F4F5B
:1005D00081F06051704732F07F4208BF704793F05E
:1005E0007F4F04BF41F40021704730B54FF4607471
:1005F00001F0004521F000411CE700BF50EA010274
:1006000008BF704730B54FF000050AE050EA01021C
:1006100008BF704730B511F0004502D5404261EB8C
:1006200041014FF4806404F132045FEA915C3FF4CD
:10063000D8AE4FF003025FEADC0C18BF03325FEA6A
:10064000DC0C18BF033202EBDC02C2F1200300FA1B
:1006500003FC20FA02F001FA03FE40EA0E0021FA40
:1006600002F11444BDE600BF70B54FF0FF0C4CF42E
:10067000E06C1CEA11541DBF1CEA135594EA0C0FE0
:1006800095EA0C0F00F0DEF82C4481EA030621EA1B
:100690004C5123EA4C5350EA013518BF52EA033556
:1006A00041F4801143F4801338D0A0FB02CE4FF008
:1006B0000005E1FB02E506F00042E0FB03E54FF038
:1006C0000006E1FB03569CF0000F18BF4EF0010E30
:1006D000A4F1FF04B6F5007F64F5407404D25FEA2C
:1006E0004E0E6D4146EB060642EAC62141EA5551DF
:1006F0004FEAC52040EA5E504FEACE2EB4F1FD0C21
:1007000088BFBCF5E06F1ED8BEF1004F08BF5FEA9E
:10071000500E50F1000041EB045170BD06F0004650
:1007200046EA010140EA020081EA0301B4EB5C04FD
:10073000C2BFD4EB0C0541EA045170BD41F48011F5
:100740004FF0000E013C00F3AB8014F1360FDEBF1A
:10075000002001F0004170BDC4F10004203C35DAF6
:100760000C341BDC04F11404C4F1200500FA05F379
:1007700020FA04F001FA05F240EA020001F000421A
:1007800021F0004110EBD37021FA04F642EB060190
:100790005EEA430E08BF20EAD37070BDC4F10C04BA
:1007A000C4F1200500FA04F320FA05F001FA04F27E
:1007B00040EA020001F0004110EBD37041F100016A
:1007C0005EEA430E08BF20EAD37070BDC4F1200575
:1007D00000FA05F24EEA020E20FA04F301FA05F2DD
:1007E00043EA020321FA04F001F0004121FA04F285
:1007F00020EA020000EBD3705EEA430E08BF20EA55
:10080000D37070BD94F0000F0FD101F0004640008E
:1008100041EB010111F4801F08BF013CF7D041EA10
:10082000060195F0000F18BF704703F00046520014
:1008300043EB030313F4801F08BF013DF7D043EAE5
:100840000603704794EA0C0F0CEA135518BF95EA9B
:100850000C0F0CD050EA410618BF52EA4306D1D122
:1008600081EA030101F000414FF0000070BD50EA41
:10087000410606BF1046194652EA430619D094EACB
:100880000C0F02D150EA013613D195EA0C0F05D1B5
:1008900052EA03361CBF104619460AD181EA030109
:1008A00001F0004141F0FE4141F470014FF00000C1
:1008B00070BD41F0FE4141F4780170BD70B54FF05C
:1008C000FF0C4CF4E06C1CEA11541DBF1CEA1355DC
:1008D00094EA0C0F95EA0C0F00F0A7F8A4EB0504BE
:1008E00081EA030E52EA03354FEA013100F08880B5
:1008F0004FEA03334FF0805545EA131343EA12637E
:100900004FEA022245EA111545EA10654FEA002632
:100910000EF000419D4208BF964244F1FD0404F5EB
:10092000407402D25B084FEA3202B61A65EB030547
:100930005B084FEA32024FF480104FF4002CB6EB04
:10094000020E75EB030E22BFB61A754640EA0C0084
:100950005B084FEA3202B6EB020E75EB030E22BFC4
:10096000B61A754640EA5C005B084FEA3202B6EB05
:10097000020E75EB030E22BFB61A754640EA9C00C4
:100980005B084FEA3202B6EB020E75EB030E22BF94
:10099000B61A754640EADC0055EA060E18D04FEA52
:1009A000051545EA16754FEA06164FEAC30343EAF2
:1009B00052734FEAC2025FEA1C1CC0D111F4801FBF
:1009C0000BD141EA00014FF000004FF0004CB6E7B8
:1009D00011F4801F04BF01430020B4F1FD0C88BF57
:1009E000BCF5E06F3FF6AFAEB5EB030C04BFB6EB62
:1009F000020C5FEA500C50F1000041EB045170BD55
:100A00000EF0004E4EEA113114EB5C04C2BFD4EB81
:100A10000C0541EA045170BD41F480114FF0000E05
:100A2000013C90E645EA060E8DE60CEA135594EA81
:100A30000C0F08BF95EA0C0F3FF43BAF94EA0C0F84
:100A40000AD150EA01347FF434AF95EA0C0F7FF4F9
:100A500025AF104619462CE795EA0C0F06D152EA4D
:100A600003353FF4FDAE1046194622E750EA410631
:100A700018BF52EA43067FF4C5AE50EA41047FF442
:100A80000DAF52EA43057FF4EBAE12E74FF0FF3CA7
:100A900006E000BF4FF0010C02E000BF4FF0010C78
:100AA0004DF804CD4FEA410C7FEA6C5C4FEA430CF1
:100AB00018BF7FEA6C5C1BD001B050EA410C0CBF40
:100AC00052EA430C91EA030F02BF90EA020F0020A2
:100AD000704710F1000F91EA030F58BF994208BF09
:100AE00090422CBFD8176FEAE37040F001007047C6
:100AF0004FEA410C7FEA6C5C02D150EA013C07D11D
:100B00004FEA430C7FEA6C5CD6D152EA033CD3D067
:100B10005DF8040B704700BF8446104662468C4661
:100B20001946634600E000BF01B5FFF7B7FF002894
:100B300048BF10F1000F01BD4DF808EDFFF7F4FFBD
:100B40000CBF012000205DF808FB00BF4DF808ED48
:100B5000FFF7EAFF34BF012000205DF808FB00BF6B
:100B60004DF808EDFFF7E0FF94BF012000205DF88D
:100B700008FB00BF4DF808EDFFF7CEFF94BF012042
:100B800000205DF808FB00BF4DF808EDFFF7C4FF3B
:100B900034BF012000205DF808FB00BF4FEA410C84
:100BA0007FEA6C5C02D150EA013C0AD14FEA430C67
:100BB0007FEA6C5C02D152EA033C02D14FF00000A4
:100BC00070474FF0010070474FEA410212F50012E2
:100BD00015D211D56FF47873B3EB625212D94FEA84
:100BE000C12343F0004343EA505311F0004F23FA6E
:100BF00002F018BF404270474FF00000704750EAC3
:100C0000013005D111F0004008BF6FF0004070477F
:100C10004FF00000704700BF4A0011D212F50012D9
:100C200011D20DD56FF47873B3EB62520ED44FEA44
:100C3000C12343F0004343EA505323FA02F07047C4
:100C40004FF00000704750EA013002D14FF0FF3002
:100C500070474FF0000070474FEA4102B2F1E043A5
:100C600024BFB3F5001CDCF1FE5C0DD901F0004C93
:100C70004FEAC0024CEA5070B2F1004F40EB8300E3
:100C800008BF20F00100704711F0804F21D113F10F
:100C90003872BCBF01F00040704741F480114FEA48
:100CA0005252C2F11802C2F1200C10FA0CF320FAD1
:100CB00002F018BF40F001004FEAC1234FEAD323EE
:100CC00003FA0CFC40EA0C0023FA02F34FEA430358
:100CD000CCE77FEA625307D150EA01331EBF4FF0E1
:100CE000FE4040F44000704701F0004040F0FE40FC
:100CF00040F40000704700BF38B5002200230446CE
:100D00000D46FFF723FF28B920462946BDE83840A5
:100D100000F00AB8204605F1004100F005F8404215
:100D200061EB410138BD00BFD0B50C4B0022064637
:100D30000F46FFF799FCFFF76FFF0446FFF71AFC19
:100D4000074B0022FFF790FC02460B46304639461F
:100D5000FFF7D2FAFFF760FF2146D0BD0000F03D5B
:100D60000000F04108B54FF46141002000F00EFB97
:100D700008BD10B582B0002407E000F02DF802ABEA
:100D800003EB840343F8080C0134012CF5D909E086
:100D90000090002000F09EFE0CE0012000F05EFEBE
:100DA00000F03CFD00F018F80446009BC31AB3F5B0
:100DB0007A7FEDD2019BE31AB3F5FA7FF0D3019469
:100DC00001F0DCF80028E8D0012000F083FEE7E71E
:100DD00008B502F027FC08BD08B502F01DFC08BDEF
:100DE00072B6FEE710B5A4B03822002116A807F0AD
:100DF00059F80024119412941394149415944422D5
:100E00002146684607F04EF8204603F08DFD03F0BA
:100E100083FD214AD2F8903023F01803C2F89030B5
:100E2000252316934FF480331793012318931C93B3
:100E300002231D9303221E921F93282220922193A6
:100E400004222292239316A803F08EFEE8B90F2302
:100E500011930323129300231393149315930421E6
:100E600011A804F037F990B90C4B009300230693B6
:100E70004FF080720C920D934FF48073109368467C
:100E800004F024FA28B924B010BDFFF7A9FFFFF73A
:100E9000A7FFFFF7A5FF00BF001002404030080089
:100EA00008B502F09DFBFFF79DFF012008BD000083
:100EB00000B583B00B4B1A6E42F001021A661A6E2F
:100EC00002F001020092009A9A6D42F080529A65F7
:100ED0009B6D03F080530193019B03F0ABFD03B0C6
:100EE0005DF804FB00100240FEE7FEE7FEE7FEE7C8
:100EF000FEE770477047704708B502F081FB08BDF8
:100F00000120704708B507F05DF8162303604FF025
:100F1000FF3008BD08B54FF0FF31FFF7F3FFFEE7E4
:100F200070B50C461646002506E0AFF3008021465A
:100F300001F8010B01350C46B542F6DB304670BDB9
:100F400070B50C461646002504E014F8010BAFF30B
:100F500000800135B542F8DB304670BD4FF0FF3000
:100F600070474FF400534B600020704701207047DA
:100F70000020704710B503460C4A0D490D48006823
:100F800040B10C4800680344521A934206D8094AFB
:100F9000136010BD0748084C0460F2E707F012F830
:100FA0000C2303604FF0FF30F3E700BF0080002008
:100FB0000004000074030020D83D0020034AD2F84A
:100FC000883043F47003C2F88830704700ED00E0C9
:100FD00008B502F0B0FAFFF7C5FEFFF7CAFE002021
:100FE00008BD00000D488546FFF7E8FF0C480D4995
:100FF0000D4A002302E0D458C4500433C4188C4274
:10100000F9D30A4A0A4C002301E013600432A242D9
:10101000FBD306F0DDFFFFF7DBFFFEE700800020DB
:10102000000000205803002048B1000858030020A9
:10103000D43D0020FEE703460020186058609A6007
:101040000120D86019617047F0B500270CE00CEB67
:10105000030511F803E006F805E00133C5689D4279
:10106000F5D8294404600137974213D205686B1CF8
:101070008468B3FBF4F604FB16344368A3420BD038
:101080000669002EEED00029ECD0C36803FB05FCF6
:101090000023E3E70120F0BD0020FCE770B50C461B
:1010A0001646002516E001EB0E0C1CF803C004F8F0
:1010B00003C00133C2689A42F5D8144443680268F9
:1010C000934216D001338268B3FBF2F102FB113375
:1010D00043600135B5420AD201690029EED0002CE7
:1010E000ECD04368C26802FB03FE0023E2E7012064
:1010F00070BD0020FCE782680368134441685B1AF6
:10110000B3FBF2F002FB10307047000008B501F0AD
:1011100057FF014B187008BD7803002008B501F097
:1011200085FF08BD08B501F067FF08BD08B501F0EF
:101130006BFF08BD08B501F093FF08BD002380F8E0
:10114000F23380F8F1333F2280F8F02380F8B03397
:10115000704738B5054690F8964104EB441004EB0F
:1011600040002844432205F56C7100F5CC7006F070
:101170005EFF95F89731072B02D8013385F8973138
:1011800085F895410134634204F0070403F0070336
:1011900058BF5C4285F89641012385F8943138BDEB
:1011A000002303E08CF8002001339BB20F2B0BD8F7
:1011B00000EB030CC25C3AB1A2F16101C9B219297A
:1011C000F0D8203AD2B2EDE7102B00D07047013BA7
:1011D0000022C254FAE70000064BB3F838359842B3
:1011E00005D2044BD3F83C3553F82000704700205B
:1011F000704700BF7C03002008B50346094AB2F8D7
:10120000382590420AD20846064AD2F83C2552F8C0
:101210002310FFF705F818B1002000E0002008BDFA
:101220000120FCE77C03002008B5084BB3F83835F3
:10123000984202D39FED060A08BD044BD3F83C3513
:10124000002153F8200005F087FFF5E77C0300201C
:101250000000000008B5084BB3F83835984201D3B8
:10126000002008BD044BD3F83C350022114653F84A
:10127000200006F043F8F4E77C03002010B5044694
:101280000449007800F056FE0349207800F052FE31
:1012900010BD00BF30AC0008E0A9000838B590F8D8
:1012A000973143B304460D4690F8F12322BB94F8DE
:1012B000F22332BB012D29D094F99511013194F814
:1012C000973191FBF3F203FB121184F89511C9B227
:1012D00001EB411301EB43012144432201F5CC71A1
:1012E00004F56C7006F0A3FE94F8F23384F8F13341
:1012F000002384F8943138BD0F49007800F01AFEBD
:10130000D5E70E49207800F015FED3E794F8943124
:101310001BB194F9963184F8953194F9951194F8AC
:1013200097311944013991FBF3F203FB121184F850
:101330009511C9B2CCE700BFE8A90008F0A90008E0
:1013400070B582B006460024A0F8124100F58A75F7
:10135000C0F8144101AA0C4900F56C7006F0E4FDD8
:10136000234609E05C1CA4B245F8230001AA064903
:10137000002006F0D9FD23460028F3D1A6F812314B
:1013800003B1012002B070BDF8A9000810B5034CEC
:101390002070616000F0A2FD207210BD7C0300206F
:1013A00038B5234B5B7A03B938BD054690F8F12375
:1013B0002049807A00F0BEFD95F8F2231E49A87AF4
:1013C00000F0B8FD95F8F0231C49A87A00F0B2FDB2
:1013D00005F56C721A49A87A00F0ACFD95F99521D3
:1013E0001849A87A00F0A6FD95F896211649A87A22
:1013F00000F0A0FD95F897211449A87A00F09AFD15
:1014000000240CE004EB441304EB430303F5CC731A
:101410002B4422460E49A87A00F08CFD013495F841
:101420009731A342EEDC0B49A87A00F083FDBBE7BD
:101430007C03002000AA000810AA000820AA0008C7
:1014400030AA000840AA000850AA000860AA0008B4
:1014500070AA000830AC000808B50A460146024BE5
:10146000187800F05DFD08BD7C0300200FB410B5B6
:1014700082B004AB53F8042B0193084C4FF48071F5
:10148000204606F001FD0246214614F8110C00F03A
:1014900047FD02B0BDE8104004B070478D03002046
:1014A00038B50546FFF74CFF08B9002038BD16488F
:1014B000FFF7DCFFD5F81401FFF772FE0024B5F842
:1014C000F433A342F1DD04EB8401890001F57E7160
:1014D0002944D5F81401FEF7A3FE08B10134EEE764
:1014E000B5F81231013BA5F8383505F58C73C5F810
:1014F0003C3504EB840405EB8404D4F8083405F58A
:10150000A7609847D1E700BF30AC000830B585B080
:1015100004468DF80710037CABB9CBB21B2B30D03F
:101520001CD8082B4BD00D2B40F0848090F8F23360
:101530000BBB002384F8F23384F8F13384F8B03322
:101540002046FFF79BFE237C013B032B00F2C88063
:10155000DFE813F0C400CC00CF0056017F2B69D127
:1015600090F8F1C390F8F2E3F445ECD2AEEB0C0541
:10157000EDB2012212E0FFF7ECFD2046FFF790FFED
:10158000D7E701230374DEE70CEB0203591E234463
:1015900093F8B003631883F8B00301329542F3DC8B
:1015A0000EF1FF3E5FFA8EFE84F8F2E3A6440023BC
:1015B0008EF8B0339449207800F0BCFCC3E790F873
:1015C000F2335BB390F8F10340B3834209D094F84F
:1015D000F2C3604522D2ACEB000E5FFA8EFE002211
:1015E00011E0013BDBB284F8F2332344002283F89C
:1015F000B023ECE78318591E234493F8B0536318C3
:1016000083F8B05301329645F4DC0CF1FF33DBB2C2
:1016100084F8F2332344002283F8B02394F8F133A2
:10162000002B90D0013B84F8F1337849207800F00A
:1016300081FC88E794F8F233591C94F8F023914226
:1016400081DA94F8F123934216D094F8F1C394F818
:10165000F2038445BFF477AFA0EB0C05EDB2002296
:10166000954224DD831A591E214491F8B013234476
:1016700083F8B0130132F3E701220DF1070120785E
:1016800000F04EFC94F8F123A3189DF8071083F89E
:10169000B01394F8F2330133DBB284F8F233013241
:1016A00084F8F1232344002283F8B023CDE79DF88A
:1016B000072004EB0C0383F8B0230130C0B284F898
:1016C000F2030CF1010C84F8F1C32044002380F8EC
:1016D000B0334F49207800F02DFC34E70223237407
:1016E0002046FFF75DFE002005B030BD03232374C4
:1016F000F6E7002323749DF80730442B26D09DF88D
:101700000730432B37D09DF80730412B4AD09DF846
:101710000730422B50D09DF80730312B56D09DF822
:101720000730342BDCD194F8F13394F8F223934250
:1017300058D394F8F12394F8F2339A4259D894F894
:10174000F23384F8F13304232374C9E794F8F123C6
:10175000002AD4D0013A84F8F1231B228DF8082006
:101760005B228DF809208DF80A30032202A9207827
:1017700000F0D6FBC3E794F8F12394F8F2138A4201
:10178000C1D2013284F8F1231B228DF808205B229C
:101790008DF809208DF80A30032202A9207800F084
:1017A000BFFBB0E701212046FFF778FD04F56C711F
:1017B000207800F0BFFBAAE700212046FFF76EFD6E
:1017C00004F56C71207800F0B5FBA4E794F8F123E0
:1017D0001049207800F0AEFB002384F8F133042395
:1017E00023749CE7D21A92B20B49207800F0A2FB36
:1017F0009FE7D21A92B20749207800F09BFB9EE740
:10180000002323746CE700BF80AA000888AA0008A0
:1018100090AA0008E8A900089CAA000838B5094B5E
:101820001C7A0CB9204638BD187800F06BFB0028F4
:10183000F8D0044D287800F06CFB01462846FFF7ED
:1018400065FEEFE77C03002010B50F48FFF70EFEA2
:101850000E48FFF70BFE00240CE004EB8403980015
:1018600000F57E700A4B1844FFF700FE0648FFF7AC
:10187000FDFD0134064BB3F8F433A342EDDC05481B
:10188000FFF7F4FD10BD00BF30AC0008A4AA0008AB
:101890007C030020C4AA00082DE9F04383B003882C
:1018A000446873B1012B12D810270022114620681A
:1018B00005F024FD06462B48FFF7D8FDB04600246E
:1018C0001BE02948FFF7D2FD03B0BDE8F0830022FA
:1018D0001146606805F012FD0746E6E731682348C7
:1018E000FFF7C4FD624204F0030302F0030258BF95
:1018F0005342032B0BD004360134BC42E4DA14F01B
:10190000030FEBD131461A48FFF7B0FDE6E719485F
:10191000FFF7ACFD4FF0000917E01748FFF7A6FDF1
:101920000135032D0DDC05F108036B4413F8041C8D
:10193000A1F12003DBB25E2BEFD81048FFF796FD34
:10194000EEE708F1040809F10109B9F1030F04DC1D
:10195000D8F8003001930025E3E70948FFF786FD3A
:10196000C9E700BFFCAA0008E4AA000810AB000801
:1019700004AB000818AB000820AB00081CAB000843
:1019800024AB000808B5044B187800F0BBFA08B97E
:10199000012008BD0020FCE77C0300202DE9F04178
:1019A000114BB3F8F4530F2D02D90020BDE8F0819C
:1019B0000E46AF0005EB8504A40004F57E7498463E
:1019C0001C440146204606F02AFB2F4408EB8707FB
:1019D000C7F808642046FFF7E3FBB8F8F433013397
:1019E000A8F8F4330120E1E77C03002008B5124891
:1019F000002303724372037480F8953180F89631A6
:101A000080F8973180F894310C4BC0F840350C4B7E
:101A1000C0F844350B4BC0F848350B4BC0F84C357B
:101A2000FFF78CFB09490A48FFF7B8FF09490A4844
:101A3000FFF7B4FF012008BD7C0300205512000809
:101A400029120008D9110008F911000849180008E6
:101A50002CAB00089918000834AB0008042800D902
:101A6000704708B5044B03EBC0010022898853F886
:101A7000300001F051FF08BD38AB000810B586B04A
:101A80000024019402940394049405940F4BDA6C9F
:101A900042F00402DA64DB6C03F004030093009B61
:101AA000012302930DE00A4B03EBC40292880192DA
:101AB00001A953F8340001F045FEE0B2FFF7CEFF74
:101AC0000134042CEFDD012006B010BD00100240EF
:101AD00038AB0008042800D9704708B5044B03EB65
:101AE000C002918853F8300001F01BFF08BD00BF11
:101AF00038AB00082DE9F04106460388012B0AD0D7
:101B000000273388012B23D03388012B3ED0002FB0
:101B10005AD0BDE8F0814369304900209847074614
:101B20000028EED02E4C21882E48FFF79FFC6188BC
:101B30002D48FFF79BFC2D48FFF798FC2C4C218883
:101B40002C48FFF793FC61882B48FFF78FFCD8E700
:101B500073692A490020984780460028D4D0002580
:101B600006E01F4B986821462844FFF775FC254482
:101B7000FFF708FF074638B1194B5C88641BC3D0D8
:101B8000402CEED94024ECE74746BDE773691C4979
:101B90000020984706460028B9D0002506E0144BDF
:101BA000986821462844FFF757FC2544FFF7EAFED2
:101BB000074638B10E4B5C88641BA8D0402CEED988
:101BC0004024ECE73746A2E70E48FFF74FFC0E48EB
:101BD000FFF74CFC0D48FFF749FC9AE760AB0008A3
:101BE000E011002068AB000880AB000830AC0008B2
:101BF000D411002098AB0008B0AB0008C8AB0008B7
:101C0000D0AB0008D8AB0008E4AB0008F0AB00088C
:101C100010B50D4A0023138053804FF480619180EA
:101C2000D3800A4890600A4A138053809180D38001
:101C3000084B93600124084B1C7008490848FFF7C3
:101C4000ADFE204610BD00BFE0110020D40D0020E5
:101C5000D4110020D4090020D2090020F51A000870
:101C6000FCAB000808B5054B1870054B1960054B17
:101C700001221A7000F032F908BD00BFD00900201F
:101C8000CC090020D109002030B583B00446944629
:101C9000C3881344083382889A4205D20023C38044
:101CA0000CF108039A4219D3E088009123880E4A68
:101CB0000CF10801A568284406F044F82388013394
:101CC0002380E38882B21344E38063881844A188A8
:101CD000884205DC1A446280012002E0002000E016
:101CE000012003B030BD00BF00AC00080FB410B538
:101CF00082B0164B1B7823B902B0BDE8104004B087
:101D0000704705AB0193049A4FF48071104806F0B8
:101D1000BBF804460F4B1B7813B10F4B1B7843B92C
:101D20000E4B1B7863B9224609490D48FFF7ACFFFB
:101D3000E2E7024606490B4B187800F0F1F8EFE7AE
:101D4000224603490848FFF79FFFECE7D20900202D
:101D5000CC080020D109002004000020050000204C
:101D6000D4110020D0090020E011002008B5134B49
:101D7000D3F8F03013F0010F0DD10022104BD3F83F
:101D8000943013F0806F00D03AB10021012000F0B0
:101D900073F8012008BD0122F0E7012000F064F88B
:101DA000411C012000F068F84FF4FA70FFF710F8BA
:101DB000012000F059F8034B1860E6E700ED00E061
:101DC00000100240EC110020014B1868704700BF62
:101DD000EC11002000B583B0134B019302F05EFEBE
:101DE0004FF0E02200231361536193610FE00F4A2B
:101DF00003F120004FF0FF3142F8201003F16000A2
:101E000042F82010BFF34F8FBFF36F8F0133072BC2
:101E1000EDDD019B5B68019A126882F308889847A0
:101E200003B05DF804FB00BF0000FF1F00E100E00D
:101E300008B50B480B4B0360002343607F22826090
:101E4000FF22C2600361436183614FF08042C2613F
:101E5000036203F00DFC08B9012008BD0020FCE777
:101E6000F01100200028004008B50146014803F0A9
:101E700057FC08BDF011002008B50A46014602488B
:101E800003F047FC08BD00BFF01100200268064BBC
:101E90009A4200D07047054AD2F8903043F400438C
:101EA000C2F89030F6E700BF002800400010024062
:101EB00000220DE008494FF4856302FB03F3C818C4
:101EC0004FF0000C01F803C04FF46143436001324E
:101ED000032AEFDD0120704718120020034668B97D
:101EE000074A4FF4856000FB03F302EB030C01206B
:101EF0008CF80800CCF80410D054704700207047CC
:101F00001812002008B10020704708B5FFF70AF941
:101F100008BD08B10020704708B5FFF707F908BDF4
:101F200008B10020704708B50B4611461846FFF768
:101F300001F908BD0EB410B5C3B0044645AB53F863
:101F4000042B01934FF4807102A805F09DFF024617
:101F500002A92046FFF7E4FF43B0BDE8104003B0FC
:101F60007047000008B503490348FFF717FD01203B
:101F700008BD00BFB11F000808AC000808B5FFF796
:101F8000CDF808BD094BD3F8BC324BB1074B93F8E1
:101F90009C32032B06D1054B5B682BB101207047A7
:101FA000002070470020704700207047B8220020B2
:101FB0002DE9F04104460388012B0AD0002523882F
:101FC000012B29D02388012B4CD0002D74D0BDE8E3
:101FD000F08143693D4900209847054698B9EEE7EE
:101FE000FFF7D0FF01463A48FFF740FAFFF7C6FF78
:101FF00001463848FFF73AFA02213748FFF736FA28
:102000006420FEF7E5FEFFF7BDFC0028E8D10221C1
:102010003248FFF72BFAD2E763693149002098472D
:1020200080460028CED0002504E01F212D48FFF770
:1020300081F81F35FFF7A6FC70B1FEF7CDFEC31B7C
:10204000B3F57A7FF1D3FEF7C7FE0746A90A264803
:10205000FFF74CFE0025E8E702212048FFF706FACB
:102060004546AFE763692149002098470028ACD076
:1020700000270EE0FEF7B0FE0646B90A1C48FFF73F
:1020800035FE00270EE0FFF751F80134AC42FAD3D9
:102090002F44FFF777FC50B1FEF79EFE831BB3F58C
:1020A0007A7FE7D2FFF73EF805460024EEE70221EB
:1020B0000A48FFF7DBF98AE70E48FFF7D7F90E4821
:1020C000FFF7D4F90D48FFF7D1F980E760AB0008BE
:1020D0000CAC000820AC000834AC00083CAC000894
:1020E00044AC000858AC000848AC00087CAC0008C0
:1020F00080AC000890AC00089CAC0008A8AC0008BC
:1021000008B5012803D00020134B187008BD002229
:102110001249134800F036F808B10020F6E71149DB
:102120000F4800F046F808B10020EFE70E490C48D0
:1021300000F083FE08B10020E8E7094800F050F8FD
:1021400008B10020E2E7FEF7E1FF0848FFF7CEFD07
:102150000120074B1870D7E789250020680100206F
:10216000B8220020D400002020010020B4AC0008D8
:102170008825002008B5024802F086F908BD00BF96
:10218000A839002098B108B503460020C3F8B8026A
:10219000C3F8C002C3F8CC0209B1C3F8B4120121DC
:1021A00083F89C121A70184601F0F6F808BD032057
:1021B000704710B582B00023ADF8063061B1044617
:1021C000C0F8B812CB6A4BB10DF106009847C4F8BD
:1021D000CC02002002B010BD0320FBE70020F9E78D
:1021E00008B501F01FF908BD08B5D0F8B83213B131
:1021F0001B68984708BD0320FCE708B5D0F8B83243
:102200000BB15B689847002008BD38B5044600F262
:10221000AA25284600F01CF90123C4F89432B4F82A
:10222000B032C4F8983294F8AA1201F01F03012BBF
:102230000DD0022B10D02BB101F08001204601F00F
:102240000CF903E02946204600F0CEFA38BD2946B5
:10225000204600F001FBF9E72946204600F030FB5C
:10226000F4E738B504460D4631BB1346D0F8942246
:10227000032A01D0084638BDD0F85C11D0F860219F
:1022800091420CD8D0F8B8321B691BB190F89C224F
:10229000032A0FD0204600F04FFC2846EBE7891AAE
:1022A000C0F85C118A4228BF0A46194600F03CFC7F
:1022B0002846E0E79847EDE7D0F8B8329B692BB1A4
:1022C00090F89C22032A03D19847D4E70320D2E751
:1022D0000320D0E738B504460D46002948D11346FF
:1022E000D0F89422022A05D094F8A032012B3AD0DB
:1022F000284638BDC269016A8A4211D88A421BD079
:10230000D4F8B832DB681BB194F89C22032A27D09A
:102310008021204601F0A1F8204600F018FCE3E7F8
:10232000521AC261194600F0E8FB00231A4619460A
:10233000204601F0C8F8D7E783699942E0D8D0F881
:1023400098229342DCD20022114600F0D6FB0021F5
:10235000C4F898120B460A46204601F0B4F8C3E7C9
:1023600020469847D4E7002384F8A0322846C0E7E7
:10237000D0F8B8325B692BB190F89C22032A03D1C4
:102380009847B6E70320B4E70320B2E770B50446E8
:10239000012380F89C320023C0F894324360C0F8D7
:1023A000A432D0F8BC3223B1D0F8B8325B68002137
:1023B0009847402300221146204601F03BF80126B1
:1023C000A4F864614025C4F860512B4600228021A6
:1023D000204601F02FF8A6842562002070BD01740C
:1023E0000020704790F89C3280F89D32042380F8DA
:1023F0009C320020704790F89C32042B01D00020C2
:10240000704790F89D3280F89C32F8E708B590F854
:102410009C32032B01D0002008BDD0F8B832DB6914
:10242000002BF8D09847F6E70346002002E0013081
:10243000C0B201331A78002AF9D1704708B54B8829
:10244000012B00D008BDC0F8A43200F075FBF9E7FD
:102450000B7803704B7843708B78CA7843EA022379
:1024600043800B794A7943EA022383808B79CA79C6
:1024700043EA0223C380704710B50446802100F070
:10248000ECFF0021204600F0E8FF10BD30B583B01E
:1024900004460D460023ADF806304A88130A013B76
:1024A0000E2B00F2BC80DFE803F0153044BABA9E70
:1024B000ABBABABABABABABA0800D0F8B432DB6961
:1024C00023B10DF10601007C98470AE02946FFF789
:1024D000D3FF18E0D0F8B4321B680DF10601007C80
:1024E0009847EA88002A00F0A380BDF80630002B48
:1024F00000F099809A4228BF1A46ADF8062001469E
:10250000204600F0EDFA03B030BD037C43B9D0F8AB
:10251000B8329B6A0DF10600984702234370E0E74A
:10252000D0F8B832DB6A0DF10600984702234370F9
:10253000D7E7D2B2052A52D8DFE802F003101D2AED
:102540003744D0F8B4325B6823B10DF10601007C4A
:102550009847C6E72946FFF78FFFD4E7D0F8B43293
:102560009B6823B10DF10601007C9847B9E7294625
:10257000FFF782FFC7E7D0F8B432DB6823B10DF173
:102580000601007C9847ACE72946FFF775FFBAE7DC
:10259000D0F8B4321B6923B10DF10601007C9847D5
:1025A0009FE72946FFF768FFADE7D0F8B4325B69D3
:1025B00023B10DF10601007C984792E72946FFF709
:1025C0005BFFA0E7D0F8B4329B6923B10DF106019F
:1025D000007C984785E72946FFF74EFF93E7294699
:1025E000FFF74AFF8FE7037C33B9D0F8B8325B6B53
:1025F0000DF10600984774E72946FFF73DFF82E793
:10260000037C43B9D0F8B8321B6B0DF10600984734
:102610000723437065E72946FFF72EFF73E7294636
:10262000FFF72AFF6FE729462046FFF725FF6AE7F5
:10263000204600F081FA66E738B504468B88F3B986
:10264000CB88E3B94B887F2B19D803F07F0590F82E
:102650009C32032B0CD080F89E52294600F023FFB9
:10266000204600F069FA35B1022384F89C3209E073
:10267000FFF702FF06E0012384F89C3202E02046C7
:10268000FFF7FAFE38BD000070B504460E468D789F
:102690002D4B1D70012D0FD890F89C32022B0FD0BE
:1026A000032B23D0FFF7E8FE274B19782046FFF7CE
:1026B000A4FD0325284670BDFFF7DEFE0325F9E7DC
:1026C0008DB145602946FFF78FFD054620B13146A3
:1026D0002046FFF7D1FEEDE7204600F02DFA032358
:1026E00084F89C32E6E700F027FAE3E7CDB14168D1
:1026F0008D4225D0C9B2FFF780FD134B1978616078
:102700002046FFF771FD0546B0B131462046FFF780
:10271000B3FE21792046FFF770FD022384F89C3236
:10272000C8E7022380F89C3245602946FFF765FD23
:10273000204600F001FABDE7204600F0FDF9B9E7B8
:1027400000F0FAF90025B5E78A25002008B5CB8806
:10275000012B0AD190F89C32022B09D9032B09D105
:102760000122011D00F0BCF901E0FFF785FE08BD64
:102770005BB213B9FFF780FEF9E70146002341F889
:10278000083F012200F0ACF9F1E708B590F89C325F
:10279000013B022B12D8CB88022B0CD10123C36042
:1027A000D0F8A4320BB10323C360022200F10C0164
:1027B00000F096F908BDFFF75FFEFBE7FFF75CFE50
:1027C000F8E708B590F89C32013B022B09D84B88FA
:1027D000012B00D008BD0023C0F8A43200F0ACF9F2
:1027E000F8E7FFF749FEF5E738B50C7804F0600428
:1027F000202C06D0402C04D054B1FFF73DFE00241D
:1028000004E0D0F8B8329B6898470446204638BDAB
:102810004D78092D1DD8DFE805F012191C161C088B
:10282000051C0F0BFFF732FEF0E7FFF705FFEDE7A2
:10283000FFF72AFF0446E9E7FFF788FFE6E7FFF71F
:10284000A4FF2C46E2E7FFF7F9FDDFE7FFF7B9FF4A
:10285000DCE7FFF711FED9E770B505460C460B78AB
:1028600003F06003202B07D0402B05D023B1FFF7E6
:1028700003FE0026304670BD95F89C32013B022BCA
:1028800018D82379012B0FD8D5F8B8329B68214688
:10289000284698470646E388002BEBD10028E9D16B
:1028A000284600F049F9E5E721462846FFF7E4FD10
:1028B0000026DFE721462846FFF7DEFD0026D9E7A0
:1028C000F8B506460D468B880C7804F06004202C81
:1028D00008D0D9B2402C05D06CB12946FFF7CCFD09
:1028E000002406E0D6F8B8329B682946304698475F
:1028F00004462046F8BD6F78012F2ED0032F05D057
:10290000002F57D02946FFF7B7FDF2E790F89C3229
:10291000022B05D0032B12D02946FFF7ADFDE8E7C7
:1029200009B1802904D129463046FFF7A5FDE0E72B
:1029300000F093FD8021304600F08FFDD9E76B88D1
:1029400023B919B1802901D0EB881BB1304600F0C2
:10295000F3F8CEE700F081FDF8E790F89C32022B07
:1029600005D0032B12D02946FFF786FDC1E709B138
:10297000802904D129463046FFF77EFDB9E700F0F3
:102980006CFD8021304600F068FDB2E76B88002BBB
:10299000AFD111F07F0F0AD1304600F0CDF8D6F854
:1029A000B8329B682946304698470446A1E700F0B4
:1029B0005CFDF1E790F89C22022A06D0032A29D078
:1029C0002946FFF759FD3C4693E709B1802913D109
:1029D00013F0800F15D101F07F0101EB8101890017
:1029E00001F5A8713144043100230B600222304606
:1029F00000F076F83C467CE72946FFF73DFD3C4673
:102A000077E701F07F0101EB81018900103131444A
:102A10000431E9E75BB2002B1FDB01F00F0202EB90
:102A2000820200EB8202B2F8642122B3002B27DB82
:102A300001F07F0303EB83039C0004F5A874344486
:102A4000043409B1802924D10023236002222146C5
:102A5000304600F045F83C464BE701F00F0202EB30
:102A6000820200EB8202928C002ADFD12946FFF716
:102A700003FD3C463DE72946FFF7FEFC3C4638E7B0
:102A800001F07F0303EB83039C00103434440434CF
:102A9000D7E7304600F0F1FC10B101232360D5E701
:102AA00000232360D2E7D0B170B50D461646044628
:102AB000FFF7BAFC431C5B009BB233802B700323EF
:102AC0006B70022307E0EA5401345A1CD2B2002191
:102AD000A9540233DBB22278002AF4D170BD7047CA
:102AE00008B513460222C0F894228361C3610A46E6
:102AF000002100F0E0FC002008BD08B513460A469E
:102B0000002100F0D8FC002008BD08B513460322C0
:102B1000C0F89422C0F85831C0F85C310A46002150
:102B200000F0D1FC002008BD08B513460A4600217C
:102B300000F0C9FC002008BD08B50423C0F8943299
:102B400000231A46194600F0B6FC002008BD08B55F
:102B50000523C0F8943200231A46194600F0B3FC4E
:102B6000002008BD10B5D0F8BC42D0F8C0325BB12F
:102B700094F80002FF2807D09B6894F801222146B0
:102B80009847FF2384F80032002010BD43230380C0
:102B9000004870474C0000204323038000487047E2
:102BA0009000002043230380004870470800002065
:102BB0000A230380004870470C01002038B5D0F884
:102BC000BC5275B1044600F086FCC5F80C02D4F87E
:102BD000C032DB6805F50371D5F804029847002080
:102BE00038BD0320FCE710B5D0F8C442D0F8BC32A1
:102BF00053B301EB810200EB820292694AB101EB0F
:102C0000810C04EBCC04246AB2FBF4FC04FB1C2210
:102C100072B10022C3F81422D0F8C0221469ACB1FA
:102C20000A4603F50471D3F80802A047002010BD3E
:102C300001EB810300EB830300249C6123462246C1
:102C400000F039FC2046F2E70320F0E70020EEE731
:102C5000F0B583B006460C46D0F8BC7200238DF860
:102C60000730ADF804300B7813F0600527D0202D25
:102C700058D1CA88DAB113F0800F0CD0D0F8C03226
:102C80009B68394660789847E28839463046FFF7B6
:102C900027FF002549E04B7887F800328B7987F8C9
:102CA0000132CA883946FFF730FF00253DE0D0F8F1
:102CB000C0329B68002248789847002535E04F785D
:102CC0000B2F2BD8DFE807F006312A2A2A2A2A2AD6
:102CD0002A2A142290F89C32032B03D0FFF7CCFB56
:102CE000032522E0022201A9FFF7FAFE3D461CE07F
:102CF00090F89C32032B03D0FFF7BEFB032514E0B2
:102D000001220DF10701FFF7EBFE0EE090F89C3277
:102D1000032B0AD0FFF7B0FB032506E0FFF7ACFB5F
:102D2000032502E0FFF7A8FB0325284603B0F0BD0A
:102D300038B50446812100F088FB00252587012154
:102D4000204600F082FBA4F878518221204600F052
:102D50007CFBA4F84C50A4F84E50D4F8BC324BB1D4
:102D6000D4F8C0325B689847D4F8BC0200F0E2FBAC
:102D7000C4F8BC52002038BD70B504464FF407704B
:102D800000F0D4FBB8B30646C4F8BC02237CBBBB3E
:102D90004FF4007302228121204600F04BFB0125F5
:102DA00025874FF4007302222946204600F042FB9B
:102DB000A4F878511023A4F84E300823032282216E
:102DC000204600F037FB0123A4F84C30D4F8C03281
:102DD0001B6898470023C6F81432C6F81832257CC1
:102DE00015BB4FF40073D6F804220121204600F0F1
:102DF0006AFB284670BD0023C4F8BC320225F8E700
:102E0000402302228121204600F014FB0125258762
:102E1000402302222946204600F00CFBA4F87851FA
:102E20001023A4F84E30C8E74023D6F8042201212D
:102E3000204600F048FB0025DBE719B1C0F8C012BE
:102E40000020704703207047D0F8BC32C3F8081246
:102E5000C3F8102200207047D0F8BC32C3F8041227
:102E600000207047D0F8BC2292B108B5D2F81432D5
:102E70000BB1012008BD0123C2F81432D2F8103280
:102E8000C362D2F80822812100F015FB0020F1E78F
:102E90000320704710B5D0F8BC2292B1047C44B92D
:102EA0004FF40073D2F80422012100F00CFB2046FD
:102EB00010BD4023D2F80422012100F004FB0024BD
:102EC000F5E70324F3E700000020014B187070477A
:102ED0008C25002021281BD0222829D0202801D091
:102EE000002070470B78154A1360487843EA0023A6
:102EF0001360887843EA00431360C87843EA0063AC
:102F000013600B7913714B7953718B799371E7E7E8
:102F10000A4B1A780A705A784A709A788A70DA7866
:102F2000CA701A790A715A794A719B798B71D7E7FD
:102F30004B8803F00103024A1370D1E71801002007
:102F40008C2500200020704770B505460D4E0A689C
:102F500001463046FEF778F8B4683046FEF7CBF805
:102F6000241A013C3F2C04D8074B01221A70002080
:102F700070BD064C29462046FFF76EFF2046FFF73E
:102F800089FFF4E7A42D00208B250020B822002023
:102F900010B5074C002207492046FFF755FF0649A8
:102FA0002046FFF759FF0020044B187010BD00BFEA
:102FB000B8220020B82D0020A03100208C25002050
:102FC00008B5084B00221A704FF480620649074882
:102FD000FEF731F84FF4806205490648FEF72BF8FA
:102FE000012008BD8C25002090290020A42D002060
:102FF00090250020902D002008B50248FEF77BF8B0
:1030000008BD00BFA42D002000B583B000238DF8BB
:10301000073001220DF107010348FEF73FF89DF844
:10302000070003B05DF804FBA42D00200A4BD3F881
:10303000BC325BB1094B187838B1074B93F89C321E
:10304000032B05D1044B5B6823B170470020704708
:10305000002070470020F8E7B82200208C250020CF
:103060002DE9F04107460D46FFF7E0FF18B90026AD
:103070003046BDE8F081FDF7AFFE804600260AE04D
:10308000ACB9FFF7D3FF0028F2D0FDF7A5FEA0EB07
:103090000803632BECD8AE42EAD209488468FEF7F5
:1030A0002AF8241A013CA542EAD82C46E8E7224631
:1030B00039460348FDF7C8FF27442644E1E700BF2F
:1030C000902D002070B51C4B1B788BB91B48FEF768
:1030D00012F8044610F03F0F02D138B1441E05D05B
:1030E000174BD3F8BC32D3F81432ABB1002070BD0B
:1030F00014488468FDF7FFFF241A013C3F2CE5D9F2
:103100000F4C11492046FFF7A7FE2046FFF7C2FEED
:10311000094B00221A70D9E70C4E22463146074867
:10312000FDF7BCFF064D224631462846FFF78CFED0
:103130002846FFF797FED9E78B250020902D002029
:10314000B8220020A42D0020A0310020B82D00209E
:1031500012230B80004870475401002004230B8089
:103160000048704750010020002393421ED200B552
:1031700010E00CF1370C01F813C000014FEA430CCA
:103180000CF1010C4FF0000E01F80CE00133DBB242
:10319000934209D24FEA107CB0F1204FE9D20CF1F2
:1031A000300C01F813C0E8E75DF804FB704700003D
:1031B00038B50B4BD3F89005D3F89445D3F8983530
:1031C000C01800D138BD074D08222946FFF7CCFFB3
:1031D000042205F110012046FFF7C6FFF2E700BF09
:1031E0000070FF1F3601002008B51A230B80FFF77F
:1031F000DFFF014808BD00BF3401002008B50A46C2
:1032000028B905490548FFF74EFC034808BD0249A7
:103210000248FFF748FCF8E788350020D0AC0008EA
:1032200010B50A46034C21460348FFF73CFC2046F4
:1032300010BD00BF88350020E8AC000808B50A467C
:1032400028B905490548FFF72EFC034808BD024987
:103250000248FFF728FCF8E788350020FCAC00089E
:1032600008B50A4628B905490548FFF71CFC03487C
:1032700008BD02490248FFF716FCF8E78835002030
:1032800008AD0008032805D8DFE800F005040205B2
:10329000012070470320704708B5FDF7A3FD08BD66
:1032A00002680E4B9A4200D0704700B583B003F518
:1032B000DA339A6D42F400029A659B6D03F40003C1
:1032C0000193019B00220521142000F013FA142021
:1032D00000F020FA03B05DF804FB00BF005C004082
:1032E00008B500F52671D0F8D802FEF78EFF08BDAC
:1032F00008B501EB810300EBC303D3F86421D0F8D8
:10330000D802FEF7AEFF08BD08B501EB810300EB64
:10331000C3035A6AD0F8D802FEF7DCFF08BD08B52F
:10332000D0F8D802FFF772F808BD10B5044643790B
:10333000022B09D10121D4F8D802FFF750F8D4F8B4
:10334000D802FFF723F810BDFDF74AFDF2E70000B1
:1033500010B50446D0F8D802FFF744F8637A23B1D9
:10336000024A136943F00603136110BD00ED00E04B
:1033700010B50446437A23B9D4F8D802FFF73BF8D6
:1033800010BD044A136923F006031361FFF784FF9D
:10339000F2E700BF00ED00E010B504461F48C0F89A
:1033A000D842C4F8C4021E4B0360082303710223F1
:1033B0004371C37101230372002343728372C3728A
:1033C00000F044FB30BB182300221146D4F8C4029D
:1033D00001F070FA582300228021D4F8C40201F0D1
:1033E00069FAC02300228121D4F8C40201F062FAF4
:1033F0004FF4887300220121D4F8C40201F05AFA74
:103400004FF4807300228221D4F8C40201F052FAF2
:10341000002010BDFDF7E4FCD5E700BFA83900206F
:10342000005C004008B5D0F8C40200F06AFBFFF76A
:1034300029FF08BD08B594461A466346D0F8C40271
:1034400001F0FBF8FFF71EFF08BD08B5D0F8C40275
:1034500001F036F9FFF716FF08BD08B5D0F8C40231
:1034600001F0B0F9FFF70EFF08BD08B5D0F8C402AF
:1034700001F0E1F9FFF706FF08BDD0F8C43211F002
:10348000800F08D101F07F0101EB810103EBC10343
:1034900093F85201704701F07F0101EB810103EBCA
:1034A000C103987C704708B5D0F8C40200F0D9FF7A
:1034B000FFF7E8FE08BD08B5D0F8C40201F05CF9DA
:1034C000FFF7E0FE08BD08B5D0F8C40201F02EF900
:1034D000FFF7D8FE08BD08B5D0F8C40201F043F9E3
:1034E00008BD000010B5044611B101290FD010BD70
:1034F000437A23B9D4F8D802FEF77DFFF7E7FFF748
:10350000CBFE094A136923F006031361F2E7D0F8F2
:10351000D802FEF767FF637A002BE8D0024A1369EE
:1035200043F006031361E2E700ED00E00048704756
:1035300088370020704710B5FDF7B2FC0446FEF74F
:1035400055FA0440E4B2FEF799FA0440FEF770FC25
:103550000440FEF70BFC0440FEF736FC022813D0B3
:10356000FEF700FD04400120FEF7CAFD0440FEF70F
:103570009FFC0440FEF74CFB04404FF461410020E7
:10358000FEF770FB204010BDFEF724FCE8E70000CA
:10359000104B1B680BB90120704710B504464FF45F
:1035A0007A70B0FBF3F30C4A1068B0FBF3F000F054
:1035B000B5F868B90F2C01D901200AE00022214694
:1035C0004FF0FF3000F096F8044B1C60002000E044
:1035D000012010BD88010020000000208C01002087
:1035E00010B5032000F074F80F20FFF7D1FF10B1E1
:1035F0000124204610BD0446FDF75AFCF9E70000FF
:10360000034A1368034909680B441360704700BFFD
:10361000843C002088010020014B1868704700BFDF
:10362000843C002038B50446FFF7F6FF0546B4F1A8
:10363000FF3F02D0044B1B681C44FFF7EDFF401B0B
:10364000A042FAD338BD00BF88010020002807DB64
:1036500000F01F02400901239340024A42F8203043
:10366000704700BF00E100E0002808DB0901C9B293
:1036700000F1604000F5614080F80013704700F0F1
:103680000F000901C9B2014B1954704714ED00E055
:1036900000B500F00700C0F1070CBCF1040F28BF13
:1036A0004FF0040C031D062B0FD9C31E4FF0FF3E35
:1036B0000EFA0CF021EA000199400EFA03FE22EA0C
:1036C0000E0241EA02005DF804FB0023EEE7000071
:1036D000074AD36823F4E0631B041B0C000200F4C8
:1036E000E060034343F0BF6343F40033D3607047AB
:1036F00000ED00E010B50446054BD868C0F3022089
:10370000FFF7C6FF01462046FFF7AEFF10BD00BF22
:1037100000ED00E008B5FFF799FF08BD0138B0F1F2
:10372000807F0BD24FF0E0235861054AF02182F8E8
:1037300023100020986107221A617047012070470A
:1037400000ED00E0F0B583B0002362E085685E0024
:103750000324B44025EA0405CC68B4402C438460BB
:10376000456825EA0C054C68C4F300149C402C43C2
:1037700044605FE0DD08083550F8254003F0070C91
:103780004FEA8C0C4FF00F0E0EFA0CFE24EA0E0ED0
:103790000C6904FA0CF444EA0E0440F8254060E099
:1037A000052400E0002404FA0EF42C430CF1020C72
:1037B000554D45F82C40554CA568D44325EA0206E2
:1037C0004F6817F4801F01D042EA05064F4DAE60E6
:1037D000ED6804EA05064F6817F4001F01D042EABD
:1037E00005064A4DEE606D6804EA05064F6817F459
:1037F000003F01D042EA0506444D6E602D682C4022
:103800004E6816F4803F01D042EA05043F4A146036
:1038100001330A6832FA03F474D04FF0010C0CFA49
:1038200003FC1CEA0202F3D04C6804F00304013CE0
:10383000012C8BD94C6804F00304032C0CD0C46811
:103840005D004FF0030C0CFA05FC24EA0C0C8C68AC
:10385000AC4044EA0C04C4604C6804F00304022C3D
:1038600088D004684FEA430E4FF0030C0CFA0EFCAC
:1038700024EA0C0C4C6804F0030404FA0EF444EA45
:103880000C0404604C6814F4403FC1D0204C256EF9
:1038900045F001052566246E04F001040194019CA5
:1038A0004FEA930C0CF10205174C54F8255003F025
:1038B000030E4FEA8E0E0F2404FA0EF425EA0405D7
:1038C000B0F1904F3FF46EAF124CA04212D004F50D
:1038D0008064A04210D004F58064A0420ED004F5AC
:1038E0008064A0420CD004F58064A0423FF458AF3D
:1038F000062458E7012456E7022454E7032452E73C
:10390000042450E703B0F0BD000001400004014072
:1039100000100240000400480AB1816170478162D2
:103920007047436901EA030221EA030141EA0241C7
:103930008161704738B512F4804F43D00468B4F801
:10394000503091F800C04FEACC0E1EFA83F32344A6
:10395000B3F80244C4F309048B69A34228D31B1BA8
:103960008B618B697BB9056835F82C309BB223F4E9
:10397000804323F0700383F4005343F4004343F087
:10398000800325F82C3012F0400F0ED002680D781D
:1039900032F825309BB223F4E04323F0700343F464
:1039A000004343F0C00322F8253024B9204638BD37
:1039B00000238B61D5E723460A894969006802F034
:1039C000AEFDF3E70468B4F8503091F800C04FEA58
:1039D000CC0E1EFA83F32344B3F80644C4F309045F
:1039E0008B69A3422FD31B1B8B618B697BB9056845
:1039F00035F82C309BB223F4804323F0700383F41A
:103A0000005343F4004343F0800325F82C3012F0B8
:103A1000400F0FD1026891F800C032F82C309BB2F1
:103A200023F4E04323F0700343F4004343F0C00366
:103A300022F82C30002CB9D023464A894969006805
:103A400002F06DFDB2E700238B61CEE7002856D06F
:103A500010B5044690F891323BB1032384F89132BB
:103A6000206801F06DFE002315E080F89032FFF72A
:103A700017FCF2E703EB830204EBC202012151744D
:103A800013740021D17411625162013303EB83027C
:103A9000D200A150DBB220799842EBD8002316E087
:103AA00003EB830204EBC202002182F8511182F879
:103AB000503182F85311C2F86011C2F8641103EB5F
:103AC000830204EBC202C2F868110133DBB29842F0
:103AD000E6D8234653F8040B93E8060001F03AFEBB
:103AE00000232373012384F89132A37A012B01D0A0
:103AF000002010BD204600F0F9FE0020F9E701206B
:103B0000704790F89032012B0ED010B50446012377
:103B100080F89032006801F00AFE206802F01CFA7A
:103B2000002084F8900210BD0220704770B5054651
:103B30000C46164612F0400F00F020810268B2F8E1
:103B4000503009784FEAC10C1CFA83F31344B3F8E0
:103B50000224C2F30902A36993422CD99B1AA361E0
:103B6000A06958B316F4804F0DD0286830F8213082
:103B70009BB223F4E04323F0700343F4404343F04B
:103B8000800320F8213094F82430012B00F08D8040
:103B90002A68217832F821309BB223F4E04323F0E5
:103BA000400383F0300343F4004343F0800322F8E2
:103BB0002130002070BD0023A361D1E76378002B82
:103BC00048D12A68B2F8503012FA83F36344B3F84C
:103BD0000224C2F30902A3F80224B3F802246FEA14
:103BE00042426FEA524292B2A3F802242A686378F2
:103BF000002B3BD1B2F8503012FA83F3227803EB5A
:103C0000C203B3F80624C2F30902A3F80624B3F8EA
:103C100006246FEA42426FEA524292B2A3F80624A7
:103C2000E378022B2FD021782846FFF76DFB16F49E
:103C3000804FBED02A68217832F821309BB223F41D
:103C4000E04323F0700343F4404343F0800322F841
:103C50002130AEE7012BC9D12A68B2F8503012FAF0
:103C600083F363440022A3F80224BFE7012BD7D1DA
:103C7000B2F8503012FA83F3227803EBC203002229
:103C8000A3F80624CCE72A68217832F821309BB2C9
:103C900023F4E04323F0400383F0200343F4004384
:103CA00043F0800322F82130BDE763691344636168
:103CB000E3691344E361216A236999421DD3C91A58
:103CC00021626278002A44D12968B1F8502011FAA3
:103CD00082F2217802EBC102B2F80214C1F30901A9
:103CE000A2F80214ABB9B2F802146FEA41416FEACC
:103CF000514189B2A2F802142DE021B9002384F8C1
:103D000024301346DDE7002384F8243023620B4679
:103D1000D7E73E2B0DD8590813F0010F00D0013121
:103D2000B2F8020480B2890289B20143A2F80214F7
:103D300011E0580913F01F0F00D10138B2F8021436
:103D400089B2800280B2014341F40041A2F802141A
:103D500001E0012A06D09BB222896169286802F03D
:103D60000AF915E72968B1F8502011FA82F2217892
:103D700002EBC10299B2A2F80214ECE70268B2F8B1
:103D800050300978C80010FA83F31344B3F80624BE
:103D9000C2F30902A369934246D39B1AA361A369A4
:103DA000002B44D016F4804F0DD1286830F8213014
:103DB0009BB223F4E04323F0700343F4404343F009
:103DC000800320F8213094F82430012B7FF4E0AEFA
:103DD000636913446361E3691344E361216A2369FE
:103DE0009942C0F09C80C91A216229686278002A31
:103DF00040F0C180B1F8502011FA82F2217802EB34
:103E0000C102B2F80614C1F30901A2F80614002B8E
:103E100040F09180B2F806146FEA41416FEA5141D7
:103E200089B2A2F80614A8E00023A361B7E763787B
:103E3000002B49D12A68B2F8503012FA83F30344B8
:103E4000B3F80224C2F30902A3F80224B3F802244F
:103E50006FEA42426FEA524292B2A3F802242A6801
:103E60006378002B3CD1B2F8503012FA83F32278F9
:103E700003EBC203B3F80624C2F30902A3F8062435
:103E8000B3F806246FEA42426FEA524292B2A3F8B4
:103E90000624E378022B30D021782846FFF734FA45
:103EA00016F4804F7FF485AE2A68217832F82130ED
:103EB0009BB223F4E04323F0700343F4404343F008
:103EC000800322F8213074E6012BC8D12A68B2F8A9
:103ED000503012FA83F303440022A3F80224BEE711
:103EE000012BD6D1B2F8503012FA83F3227803EBCB
:103EF000C2030022A3F80624CBE72A68217832F80F
:103F000021309BB223F4E04323F0400383F02003ED
:103F100043F4004343F0800322F82130BCE721B989
:103F2000002384F8243013465FE70023236284F8DB
:103F300024300B4659E73E2B0DD8590813F0010FDA
:103F400000D00131B2F8060480B2890289B201437F
:103F5000A2F8061411E0580913F01F0F00D1013820
:103F6000B2F8061489B2800280B2014341F40041E4
:103F7000A2F8061401E0012A06D09BB262896169A9
:103F8000286801F0F8FF03E6B1F8502011FA82F238
:103F9000217802EBC10299B2A2F80614EDE72DE9EF
:103FA000F04105462868B0F8443013F4004F00F0A3
:103FB0005582B0F84440A3B214F00F0440F09F8043
:103FC00013F0100F4AD003889AB213F4006F75D122
:103FD00012F4004FE6D0038823F070031B051B0D7D
:103FE00043F0800303802868B0F8503095F85021E2
:103FF000D20012FA83F30344B3F80634C3F309037F
:10400000C5F86C318BB1D5F8641171B1B5F8562192
:1040100002F085FAD5F86431D5F86C211344C5F85F
:10402000643100212846FFF763F92A68138899B2A2
:1040300013F4006FB6D101F44051B1F5405FB1D037
:1040400013889BB223F4804323F0700383F440531E
:1040500043F4004343F080031380A3E703889BB23B
:1040600023F4E14323F070036FEA43436FEA5343C1
:104070009BB203802968B1F850302A7CD20012FA32
:1040800083F30B44B3F80234C3F30903EB626A6AA7
:104090001A446A6200212846FFF736F92B7B002B71
:1040A00080D0AB6A002B7FF47DAF2B7B2A6843F076
:1040B0008003A2F84C3000232B7373E7B0F8503024
:1040C00095F85021D20012FA83F30344B3F8063472
:1040D000C3F30903C5F86C31B5F8562105F526710F
:1040E00002F01DFA2A68138823F070031B051B0DCC
:1040F00043F0800313802846FFF7F2F852E730F8C8
:1041000024309EB213F4004F4ED116F0800F3FF4CE
:1041100049AF04EB8401C900103129442A6832F800
:1041200024309BB223F4E14323F070036FEA43434E
:104130006FEA53439BB222F8243004EB840305EB6F
:10414000C303DB7C012B00F0E98016F4807F40F094
:1041500080812868B0F8503004EB840205EBC2027D
:10416000167CF20012FA83F30344B3F80234C3F36B
:104170000903621C02EB820255F832209A4240F297
:104180004B81671C07EB8707D21A45F83720621C62
:1041900002EB820255F83220002A40F04481314679
:1041A0002846FFF7B1F8FDE630F8243023F070031D
:1041B0001B051B0D43F0800320F8243004EB840121
:1041C000C90001F5A87105EB010804EB840305EBB8
:1041D000C30393F85C31002B40D12868B0F850300D
:1041E00004EB840205EBC20292F85021D20012FACD
:1041F00083F30344B3F80674C7F3090717BB04EB52
:10420000840305EBC303D3F86C213A44C3F86C2153
:10421000D3F864213A44C3F86421D3F868313BB140
:1042200004EB840305EBC303D3F860319F4270D2E3
:1042300004EB840305EBC30393F850112846FFF702
:1042400057F862E704EB840105EBC1013B46B1F886
:104250005621D1F8641102F062F9D0E704EB84032F
:1042600005EBC30393F85331022B33D0296804EBD9
:10427000840205EBC20292F8500131F820309BB263
:1042800023F4E04323F0700343F4004343F0C003FE
:1042900021F82030286892F8503130F8232012F4A9
:1042A000804F1ED0B0F85020DB0013FA82F3034495
:1042B000B3F80274C7F30907002FA0D004EB840100
:1042C00005EBC1013B46B1F85821D1F8641102F069
:1042D00026F994E7324641462846FFF72BFB07466E
:1042E0008DE7B0F85020DB0013FA82F30344B3F8F3
:1042F0000674C7F30907002F81D004EB840105EB96
:10430000C1013B46B1F85A21D1F8641102F007F916
:1043100075E74146286801F040FEF6E6631C03EBB2
:104320008303DB000022EA5004EB840305EBC303A4
:104330001B7F1BB316F0400F3BD004EB840305EB4F
:10434000C3035B7C1BBB2A68B2F8503012FA83F3BC
:1043500004EB840205EBC202127C03EBC203B3F848
:104360000224C2F30902A3F80224B3F802246FEA7C
:1043700042426FEA524292B2A3F8022404EB840450
:1043800005EBC404217C2846FEF7BEFF0AE6012B9C
:10439000F4D12A68B2F8503012FA83F304EB8402A5
:1043A00005EBC202127C03EBC2030022A3F8022435
:1043B000E4E72A6804EB840305EBC3035B7CD3B911
:1043C000B2F8503012FA83F304EB840205EBC20218
:1043D000127C03EBC203B3F80624C2F30902A3F86C
:1043E0000624B3F806246FEA42426FEA524292B2C0
:1043F000A3F80624C2E7012BC0D1B2F8503012FA5C
:1044000083F304EB840205EBC202127C03EBC203CC
:104410000022A3F80624B1E7621C02EB8202D2005C
:104420000027AF50B3E604EB840205EBC202566AE4
:104430001E445662013404EB840205EBC20252684A
:1044400004EB840405EBC4041344636001F0A5FD90
:10445000A8E532462846FFF769FBA3E50020BDE842
:10446000F08190F89032012B0CD010B50446012356
:1044700080F890320173006801F068FD002084F834
:10448000900210BD0220704710B50446006801F08C
:104490006EFD10F4004F23D110F4806F24D110F47E
:1044A000804F32D110F4005F39D110F4805F40D1D9
:1044B00010F4006F67D110F0800F40F0818010F48D
:1044C000007F40F0AD8010F4807F27D02268B2F8E2
:1044D00044309BB223F480739BB2A2F844301DE0B9
:1044E0002046FFF75CFD19E02268B2F844309BB229
:1044F00023F480639BB2A2F844302046FEF715FFF8
:1045000000212046FFF7ADFF08E02268B2F84430F2
:104510009BB223F480439BB2A2F8443010BD2268C2
:10452000B2F844309BB223F400539BB2A2F844305B
:10453000F4E72268B2F840309BB223F004039BB248
:10454000A2F840302268B2F840309BB223F0080352
:104550009BB2A2F8403094F8C832012B0CD0204610
:10456000FEF706FF2268B2F844309BB223F4805372
:104570009BB2A2F84430D1E7002184F8C81220464B
:10458000FEF7B0FFEBE72268B2F840309BB243F091
:104590000803A2F840302268B2F844309BB223F4FA
:1045A00000639BB2A2F844302268B2F840309BB25C
:1045B00043F00403A2F840302046FEF7C9FEADE701
:1045C0002268B2F844309BB223F080039BB2A2F879
:1045D000443094F8C832FBB92268B2F840309BB23C
:1045E00043F00403A2F840302268B2F840309BB296
:1045F00043F00803A2F84030012184F8C812236870
:10460000B3F85430C3F38D0303F03C03C4F8CC3249
:104610002046FEF767FF81E72046FEF799FE7DE71B
:104620002268B2F844309BB223F400739BB2A2F824
:1046300044302046FEF773FE70E710B50446084686
:1046400011F0800F27D101F0070C0CEB8C01C90091
:1046500001F5A87E04EB0E010CEB8C0C04EBCC0CEA
:104660004FF0000E8CF851E100F007000870C2F323
:104670000A020A61CB70022B1DD094F89032012BF4
:104680001CD0012384F89032206801F074F80020D7
:1046900084F8900210BD01F0070C0CEB8C01C900EE
:1046A000103121440CEB8C0C04EBCC0C4FF0010EC0
:1046B0008CF811E0D8E700230B71DEE70220E9E770
:1046C00010B504460A4611F0800F1FD101F0070013
:1046D00000EB8003DB0003F5A873E11800EB80001A
:1046E00004EBC000002380F8513102F007020A7089
:1046F00094F89032012B17D0012384F8903220686F
:1047000001F0C6FA002084F8900210BD01F0070005
:1047100000EB8003DB001033E11800EB800004EBBA
:10472000C00001234374E0E70220EEE710B501F07A
:10473000070C0CEB8C01C90001F5A8710CEB8C0E79
:1047400000EBCE0ECEF86421CEF868310024CEF80E
:104750006C418EF851418EF850C10144006801F05F
:104760001CFC204610BD01F0070101EB810100EBAC
:10477000C100D0F86C01704738B501F0070C0CEBA4
:104780008C01C90010310CEB8C0E00EBCE0ECEF874
:1047900024200CF1010202EB820440F834300125A0
:1047A0008EF83450CEF8303000EBC4020024546050
:1047B0008EF811508EF810C00144006801F0EDFB36
:1047C000204638BD0B4601F00702017991422ED3F5
:1047D00010B5044613F0800F1DD103EB8301C9000F
:1047E00001F5A871014403EB830300EBC303002030
:1047F00083F8510101238B700A7094F89032012BD9
:1048000017D0012384F89032206801F02CFB00209F
:1048100084F8900210BD02EB8201C90010310144FE
:1048200002EB820300EBC30301205874E2E701208E
:1048300070470220EEE70B46017903F00F02914228
:1048400034D310B5044613F0800F21D103F00702D2
:1048500002EB8201C90001F5A871014402EB82025A
:1048600000EBC202002082F8510100228A7003F09E
:1048700007030B7094F89032012B19D0012384F8B0
:104880009032206801F014FB002084F8900210BDE3
:1048900003F0070202EB8201C9001031014402EB70
:1048A000820200EBC20201205074DEE70120704753
:1048B0000220ECE711F0800F0BD001F0070101EBB3
:1048C0008101C9001031084452B90273C38000202D
:1048D000704701EB8101C90001F5A8710844F3E7B5
:1048E0000122027303811B0C4381F0E70346026837
:1048F0000121C0F8D012002083F8C802B2F8543069
:104900009BB20B43A2F85430B2F854309BB243F040
:104910000203A2F854307047024A136843F48073CC
:104920001360704700700040002836D13E4B1B6872
:1049300003F4C063B3F5806F08D03B4AD2F88030EF
:1049400023F48073C2F8803000207047364AD2F8D2
:10495000803023F48073C2F88030136823F4C0637E
:1049600043F400731360314B1B68322202FB03F3E4
:104970002F4AA2FB03239B0C013300E0013B2A4A90
:10498000526912F4806F01D0002BF7D1264B5B697E
:1049900013F4806F44D100207047B0F5007F08D039
:1049A000214A136823F4C06343F48063136000203A
:1049B00070471D4B1B6803F4C063B3F5806F08D0CC
:1049C000194AD2F8803043F48073C2F88030002056
:1049D0007047154AD2F8803043F48073C2F88030B3
:1049E000136823F4C06343F4007313600F4B1B6818
:1049F000322202FB03F30E4AA2FB03239B0C01337A
:104A000000E0013B084A526912F4806F01D0002B8C
:104A1000F7D1054B5B6913F4806F03D10020704719
:104A20000320704703207047007000400000002002
:104A300083DE1B43024A936843F4804393607047CC
:104A400000700040124BDA6802F00302DB68C3F327
:104A500003130133032A11D00E48B0FBF3F00C4BC3
:104A6000DB68C3F3062303FB00F0094BDB68C3F3E9
:104A7000416301335B00B0FBF3F070470648B0FBC5
:104A8000F3F0034BDB68C3F3062303FB00F0ECE712
:104A9000001002400024F40000127A0038B5FEF73E
:104AA000BBFD04462C4A136843F4807313602A4B01
:104AB0001B6813F4806F07D1FEF7AEFD001B0228C0
:104AC000F5D90324204638BD234D6B6843F080435D
:104AD0006B60FEF7A1FD04460123AB601E4B9B6893
:104AE00003F00C03042B08D0FEF796FD001B41F2E7
:104AF00088339842F2D90324E4E7184B184A1A6025
:104B0000184B1868FEF744FD044608B10124D9E7A4
:104B1000114B4FF480721A601A60FEF77DFD054656
:104B20000D4B1B6813F0007F06D0FEF775FD401B90
:104B30000228F5D90324C5E7074B4FF48052DA6009
:104B400000229A614FF0FF321A62D3F8942042F4A7
:104B50000002C3F89420B5E70010024000000020D6
:104B60000024F4008C010020002800F04F8270B572
:104B700082B00446036813F0010F37D0A44A93684B
:104B800003F00C03D26802F003020C2B23D0082B95
:104B900023D06368B3F5803F4ED0B3F5A02F51D03A
:104BA0009B4B1A6822F480321A601A6822F4802221
:104BB0001A606368002B52D0FEF72EFD0546944B19
:104BC0001B6813F4003F11D1FEF726FD401B64283B
:104BD000F5D9032023E2032AD9D18D4B1B6813F4A6
:104BE000003F03D06368002B00F01282236813F0AB
:104BF000020F5DD0864A936803F00C03D26802F07E
:104C000003020C2B3AD0042B3AD0E368002B75D06A
:104C10007F4A136843F480731360FEF7FDFC05467A
:104C20007B4B1B6813F4806F5FD1FEF7F5FC401BD4
:104C30000228F5D90320F2E1754A136843F4803362
:104C40001360B6E703F18043A3F53C331A6842F4DE
:104C500080221A601A6842F480321A60A9E7FEF7CF
:104C6000DBFC05466A4B1B6813F4003FBED0FEF721
:104C7000D3FC401B6428F5D90320D0E1022AC2D11D
:104C8000634B1B6813F4806F03D0E368002B00F0C4
:104C9000C1815F4A536823F0FE43216943EA0163FF
:104CA00053605C4B1868FEF773FC002840F0B48139
:104CB000236813F0080F4CD063699BB3544AD2F8B1
:104CC000943043F00103C2F89430FEF7A5FC05468A
:104CD0004F4BD3F8943013F0020F3AD1FEF79CFCFF
:104CE000401B0228F4D9032099E1494A536823F074
:104CF000FE43216943EA01635360D9E7444A1368DC
:104D000023F480731360FEF787FC0546404B1B6855
:104D100013F4806FCCD0FEF77FFC401B0228F5D93E
:104D200003207CE13A4AD2F8943023F00103C2F820
:104D30009430FEF771FC0546354BD3F8943013F0F0
:104D4000020F06D0FEF768FC401B0228F4D90320AE
:104D500065E1236813F0040F00F081802C4B9B6DFC
:104D600013F0805F36D12A4B9A6D42F080529A65DB
:104D70009B6D03F080530193019B0125264B1B681B
:104D800013F4807F28D0A368012B39D0052B45D0A0
:104D90001F4BD3F8902022F00102C3F89020D3F8E3
:104DA000902022F00402C3F89020A368002B43D087
:104DB000FEF732FC0646164BD3F8903013F0020F84
:104DC0004CD1FEF729FC801B41F288339842F2D97E
:104DD000032024E10025D1E70F4A136843F48073D0
:104DE0001360FEF719FC06460B4B1B6813F4807F1B
:104DF000C9D1FEF711FC801B0228F5D903200EE172
:104E0000034AD2F8903043F00103C2F89030CCE767
:104E1000001002408C01002000700040884BD3F845
:104E2000902042F00402C3F89020D3F8902042F082
:104E30000102C3F89020B8E7FEF7EEFB0646804B70
:104E4000D3F8903013F0020F08D0FEF7E5FB801B7B
:104E500041F288339842F2D90320E0E0E5B92368B3
:104E600013F0200F35D0A369E3B1754AD2F898301A
:104E700043F00103C2F89830FEF7CEFB0546704BB5
:104E8000D3F8983013F0020F23D1FEF7C5FB401B77
:104E90000228F4D90320C2E0694A936D23F08053BD
:104EA0009365DCE7664AD2F8983023F00103C2F834
:104EB0009830FEF7B1FB0546614BD3F8983013F0FC
:104EC000020F06D0FEF7A8FB401B0228F4D90320EE
:104ED000A5E0E369002B00F0A180594A926802F036
:104EE0000C020C2A64D0022B13D0554A136823F00D
:104EF00080731360FEF790FB0446514B1B6813F060
:104F0000007F4ED0FEF788FB001B0228F5D9032056
:104F100085E04B4A136823F080731360FEF77CFB37
:104F20000546474B1B6813F0007F06D0FEF774FB65
:104F3000401B0228F5D9032071E0414AD36841495A
:104F40001940236A606A013843EA0013A06A43EA01
:104F50000023206B4008013843EA4053606B40084F
:104F6000013843EA4063E06A43EAC0631943D16011
:104F7000136843F080731360D36843F08073D36089
:104F8000FEF74AFB04462E4B1B6813F0007F06D148
:104F9000FEF742FB001B0228F5D903203FE000206A
:104FA0003DE0274AD168284B0B40D360002036E013
:104FB000012B36D0224BDB6803F00301226A9142B9
:104FC00031D103F0F002616A0139B2EB011F2CD13B
:104FD00003F4FE42A16AB2EB012F28D103F078421C
:104FE000E16AB2EBC16F24D103F4C001226B520815
:104FF000013AB1EB425F1ED103F0C063626B52080D
:10500000013AB3EB426F18D1002008E0012070474D
:10501000012004E0012002E0012000E0002002B0B5
:1050200070BD0120FBE70120F9E70120F7E701202F
:10503000F5E70120F3E70120F1E70120EFE700BFEA
:10504000001002400C809F01FCFFEEFE1E4B9B688F
:1050500003F00C03042B33D01B4B9B6803F00C03B1
:10506000082B2FD0184B9B6803F00C030C2B01D09E
:1050700000207047144BDA6802F00302DB68C3F3C8
:1050800003130133032A11D01048B0FBF3F00E4B89
:10509000DB68C3F3062303FB00F00B4BDB68C3F3B1
:1050A000416301335B00B0FBF3F070470848B0FB8D
:1050B000F3F0054BDB68C3F3062303FB00F0ECE7DA
:1050C0000248704702487047001002400024F40074
:1050D00000127A00002800F0E680F8B50C4605467C
:1050E000744B1B6803F00F038B420BD2714A136899
:1050F00023F00F030B431360136803F00F038B427D
:1051000040F0D3802E6816F001065FD06B68032B49
:105110002FD0022B4DD0684B1B6813F4806F00F02A
:10512000C680FFF793FF654B98424DD9624A93685A
:1051300023F0F00343F08003936080265E4A936877
:1051400023F0030369680B439360FEF765FA074693
:10515000594B9B6803F00C036A68B3EB820F35D0A0
:10516000FEF75AFAC01B41F288339842F0D9032067
:1051700078E0514B1B6813F0007F01D1012071E0F2
:10518000FFF760FC4D4B98421AD94B4B9B6813F0CC
:10519000F00F05D02E6816F00206CFD0AB688BB9A1
:1051A000454A936823F0F00343F080039360802620
:1051B000C4E7414B1B6813F4003FB2D1012051E01A
:1051C0000026BBE70026B9E70026B7E72B6813F0F7
:1051D000020F48D013F0040F04D0374A936843F409
:1051E000E06393602B6813F0080F06D0324A93688F
:1051F00023F47C5343F4E06393602F4A936823F0D5
:10520000F003A9680B4393602A4B1B6803F00F035C
:10521000A34230D82B6813F0040F06D0264A9368B7
:1052200023F4E063E9680B4393602B6813F0080FE5
:1052300007D0214A936823F46053296943EAC103E4
:105240009360FFF703FF1C4B9B68C3F303131C4AD7
:10525000D35C03F01F03D8401A4B18601A4B186830
:10526000FEF796F9F8BD802ECED1134A936823F04D
:10527000F0039360C8E70F4A136823F00F0323433A
:105280001360FEF7C9F906460A4B1B6803F00F03CB
:10529000A342BFD0FEF7C0F9801B41F28833984289
:1052A000F2D90320DEE7012070470120DAE7012070
:1052B000D8E700BF002002400010024000B4C40440
:1052C000D0A90008000000208C010020F0B583B0B8
:1052D0000446036813F4002F69D0AE4B9B6D13F0A6
:1052E000805F1ED1AB4B9A6D42F080529A659B6DE8
:1052F00003F080530193019B0126A74A136843F4EE
:1053000080731360FEF788F90546A34B1B6813F4FE
:10531000807F08D1FEF780F9401B0228F5D90325CC
:1053200002E00026E9E7002545BB9A4BD3F8903010
:1053300013F4407315D0226C9A4212D0954AD2F8D9
:10534000903023F44073D2F8901041F48031C2F8C9
:105350009010D2F8901021F48031C2F89010C2F869
:10536000903013F0010F10D145B98A4AD2F890302D
:1053700023F44073216C0B43C2F89030C6B1854AC8
:10538000936D23F08053936512E0FEF745F90746CD
:10539000804BD3F8903013F0020FE5D1FEF73CF9C3
:1053A000C01B41F288339842F2D90325DCE700257F
:1053B000236813F0010F08D0764AD2F8883023F022
:1053C000030361680B43C2F88830236813F0020FAF
:1053D00008D0704AD2F8883023F00C03A1680B4340
:1053E000C2F88830236813F0040F08D0694AD2F855
:1053F000883023F03003E1680B43C2F8883023681B
:1054000013F0080F08D0634AD2F8883023F0C003A5
:1054100021690B43C2F88830236813F0200F08D0AD
:105420005C4AD2F8883023F4406361690B43C2F8C8
:105430008830236813F0400F08D0564AD2F88830DD
:1054400023F44053A1690B43C2F88830236813F05A
:10545000800F08D04F4AD2F8883023F44043E169E6
:105460000B43C2F88830236813F4807F08D0494A80
:10547000D2F8883023F44033216A0B43C2F88830D5
:10548000236813F4007F08D0424AD2F8883023F40E
:105490004023616A0B43C2F88830236813F4806F9D
:1054A0000CD03C4AD2F8883023F44013A16A0B4355
:1054B000C2F88830A36AB3F5801F57D0236813F46D
:1054C000006F0CD0334AD2F8883023F44003E16AED
:1054D0000B43C2F88830E36AB3F5800F4BD02368E2
:1054E00013F4805F0CD02B4AD2F8883023F040733D
:1054F000216B0B43C2F88830236BB3F1807F3FD020
:10550000236813F4005F0CD0224AD2F8883023F0CD
:105510004063616B0B43C2F88830636BB3F1006F7B
:1055200033D0236813F4804F0CD01A4AD2F8883055
:1055300023F04063A16B0B43C2F88830A36BB3F137
:10554000006F2BD0236813F4004F0CD0114AD2F80F
:10555000883023F04053E16B0B43C2F88830E36B93
:10556000B3F1805F1FD0284603B0F0BDD36843F489
:105570008013D360A2E7D36843F48013D360AEE70F
:10558000D36843F48013D360BAE7D36843F480133D
:10559000D360C6E70010024000700040D36843F4B7
:1055A0008013D360CEE7D36843F48033D360DAE767
:1055B00038B5044603680A4ADA60FEF72DF8054656
:1055C0002368DB6813F0200F07D1FEF725F8401B96
:1055D000B0F57A7FF4D9032000E0002038BD00BF89
:1055E0005F00010070B50368DA6812F0400F02D066
:1055F0000025284670BD0446DA6842F08002DA6071
:10560000FEF70AF8064600252368DB6813F0400F12
:10561000EFD1032DEDD0FDF7FFFF831BB3F57A7FAC
:10562000F2D9032584F82550EEE710B50446026848
:10563000D36823F08003D36003689A6912F0200FC7
:1056400006D1FFF7B5FF90B1032084F825000EE0E6
:105650009A6922F020029A61FFF7AAFF10B1032095
:1056600084F825002268936943F02003936110BDFC
:1056700000284CD038B5044690F8253063B1022399
:1056800084F825302368DA6812F0100F09D0002062
:10569000012384F8253038BD80F82430FCF7F6FB70
:1056A000EDE7CA225A62236853225A622046FFF766
:1056B00099FF28B12368FF225A620028EBD1E7E75F
:1056C0002268936923F08E6323F04003936121687D
:1056D0008A69636820690343A069034313438B61AC
:1056E000E368A168226843EA014313612046FFF79B
:1056F0009CFF0028DED121688B6923F06043226A79
:10570000E5692A4365692A4313438B61D2E7012087
:105710007047890001F1804101F514510A6070471A
:10572000890001F1804101F5145108687047034672
:105730000020A3F844004BF68072A3F84020704785
:10574000B0F8403023F47E535B045B0CA0F840308B
:105750000020704782B0034602A800E9060001223B
:10576000A3F840200020A3F84000A3F84400A3F8C9
:10577000500002B0704710B5034691F800C030F8F1
:105780002C2092B222F4EC4222F0700292B2C8783D
:10579000032861D8DFE800F0555C0258002048F289
:1057A000800E42EA0E0223F82C2091F800C033F854
:1057B0002C2092B222F4E04222F070024CEA020263
:1057C00042EA0E0223F82C200A7B002A40F0DC80FB
:1057D0004A78002A51D0B3F8502013FA82F20C789C
:1057E00002EBC402B1F806C04FEA5C0C4FEA4C0C65
:1057F000A2F800C40C7833F8242012F0400F0CD02B
:1058000033F8242092B222F4E04222F0700242F4F3
:10581000004242F0C00223F82420CA78012A1DD099
:10582000097833F8212092B222F4E04222F04002BB
:1058300082F0200242F4004242F0800223F821204C
:10584000C3E142F40072AAE742F4C0620020A6E776
:1058500042F480620020A2E70120A0E7097833F833
:10586000212092B222F4E04222F0400242F40042AF
:1058700042F0800223F82120A7E1B3F8502013FA68
:1058800082F20C7802EBC402B1F806C04FEA5C0C5D
:105890004FEA4C0CA2F804C4B3F8502013FA82F279
:1058A0000C7802EBC402B2F806C4CCF3090CA2F8DF
:1058B00006C40C6974BBB2F806C46FEA4C4C6FEABC
:1058C0005C4C1FFA8CFCA2F806C40C7833F8242038
:1058D00012F4804F0CD033F8242092B222F4E0422C
:1058E00022F0700242F4404242F0800223F8242069
:1058F0000978C9BB33F8212092B222F4804222F009
:10590000700282F4405242F4004242F0800223F8D6
:1059100021205AE13E2C12D84FEA540C14F0010F0A
:1059200001D00CF1010CB2F80644A4B24FEA8C2C61
:105930001FFA8CFC44EA0C04A2F80644C5E74FEABF
:10594000541C14F01F0F01D10CF1FF3CB2F80644B7
:10595000A4B24FEA8C2C1FFA8CFC44EA0C0444F4E9
:105960000044A2F80644B0E733F8212092B222F4B2
:10597000804222F0700282F4005242F4004242F06F
:10598000800223F8212020E1CA78022A74D091F8FD
:1059900000C033F82C2092B222F4E24222F07002CE
:1059A00042F4004242F0800223F82C20B3F8502049
:1059B00013FA82F291F800C002EBCC02B1F808C0F1
:1059C0004FEA5C0C4FEA4C0CA2F800C4B3F850202C
:1059D00013FA82F291F800C002EBCC02B1F80AC0CF
:1059E0004FEA5C0C4FEA4C0CA2F804C44A78002A37
:1059F00040F0F7800C7833F8242012F4804F0CD05C
:105A000033F8242092B222F4E04222F0700242F4F1
:105A1000404242F0800223F824200C7833F82420FE
:105A200012F0400F0CD033F8242092B222F4E0425E
:105A300022F0700242F4004242F0C00223F8242017
:105A40004A78002A51D1B3F8502013FA82F20C7828
:105A500002EBC402B2F80244C4F30904A2F80244FF
:105A60000C69C4B9B2F802446FEA44446FEA544482
:105A7000A4B2A2F802443AE00C7833F8242092B29F
:105A800022F4E04222F0700242F4014242F080022D
:105A900023F824208AE73E2C12D84FEA540C14F045
:105AA000010F01D00CF1010CB2F80244A4B24FEA8C
:105AB0008C2C1FFA8CFC44EA0C04A2F8024416E079
:105AC0004FEA541C14F01F0F01D10CF1FF3CB2F847
:105AD0000244A4B24FEA8C2C1FFA8CFC44EA0C045A
