:020000040800F2
:1000000000000220691200086D1100086F1100083D
:10001000711100087311000875110008000000003C
:100020000000000000000000000000007711000840
:1000300079110008000000007B1100087D11000804
:10004000B9120008B9120008B9120008B912000864
:10005000B9120008B9120008B9120008B912000854
:10006000B9120008B9120008B9120008B912000844
:10007000B9120008B9120008B9120008B912000834
:10008000B9120008B9120008B912000800000000F7
:10009000000000000000000000000000B91200088D
:1000A000B9120008B9120008B9120008B912000804
:1000B000B9120008B9120008B9120008B9120008F4
:1000C000B9120008B9120008B9120008B9120008E4
:1000D000B9120008B9120008B912000800000000A7
:1000E000B9120008B9120008B91200080000000097
:1000F000000000000000000000000000B91200082D
:1001000000000000B9120008B9120008B912000876
:1001100000000000000000000000000000000000DF
:10012000B9120008B9120008B9120008B912000883
:10013000B9120008000000000000000000000000EC
:10014000000000000000000000000000A11F0008E7
:10015000B9120008B9120008B9120008B912000853
:10016000B9120008B91200080000000000000000E9
:10017000000000000000000000000000000000007F
:1001800000000000B912000800000000000000009C
:08019000B9120008B9120008C1
:1001A00010B5054C237833B9044B13B10448AFF3B1
:1001B00000800123237010BDC80200200000000051
:1001C0001896000808B5034B1BB103490348AFF369
:1001D000008008BD00000000CC0200201896000836
:1001E00001F0FF01102A2BDB10F0070F08D010F8E8
:1001F000013B013A8B422DD010F0070F42B3F6D1EC
:10020000F0B441EA012141EA014122F007047FF004
:1002100000070023F0E80256083C85EA010586EA5B
:10022000010685FA47F5A3FA87F586FA47F6A5FA97
:1002300087F68EB9EED1F0BC01F0FF0102F00702A3
:1002400032B110F8013B013A83EA010313B1F8D14E
:100250000020704701387047002D06BF354603382F
:10026000073815F0010F07D1013015F4807F02BF68
:10027000013015F4C03F0130F0BC0138704700BFB9
:10028000034613F8012B002AFBD1181A01387047D6
:1002900081F0004102E000BF83F0004330B54FEA37
:1002A00041044FEA430594EA050F08BF90EA020FA4
:1002B0001FBF54EA000C55EA020C7FEA645C7FEA37
:1002C000655C00F0E2804FEA5454D4EB5555B8BF5A
:1002D0006D420CDD2C4480EA020281EA030382EACB
:1002E000000083EA010180EA020281EA0303362D5D
:1002F00088BF30BD11F0004F4FEA01314FF4801C30
:100300004CEA113102D0404261EB410113F0004F41
:100310004FEA03334CEA133302D0524263EB4303F8
:1003200094EA050F00F0A780A4F10104D5F1200E96
:100330000DDB02FA0EFC22FA05F2801841F10001F1
:1003400003FA0EF2801843FA05F359410EE0A5F1C5
:1003500020050EF1200E012A03FA0EFC28BF4CF0F6
:10036000020C43FA05F3C01851EBE37101F00045AC
:1003700007D54FF0000EDCF1000C7EEB00006EEBB9
:100380000101B1F5801F1BD3B1F5001F0CD3490843
:100390005FEA30004FEA3C0C04F101044FEA44529A
:1003A00012F5800F80F09A80BCF1004F08BF5FEA21
:1003B000500C50F1000041EB045141EA050130BD01
:1003C0005FEA4C0C404141EB0101013C28BFB1F513
:1003D000801FE9D291F0000F04BF01460020B1FA5E
:1003E00081F308BF2033A3F10B03B3F120020CDA31
:1003F0000C3208DD02F1140CC2F10C0201FA0CF00F
:1004000021FA02F10CE002F11402D8BFC2F1200C73
:1004100001FA02F120FA0CFCDCBF41EA0C01904029
:10042000E41AA2BF01EB0451294330BD6FEA040472
:100430001F3C1CDA0C340EDC04F11404C4F120025D
:1004400020FA04F001FA02F340EA030021FA04F36F
:1004500045EA030130BDC4F10C04C4F1200220FAC6
:1004600002F001FA04F340EA0300294630BD21FA04
:1004700004F0294630BD94F0000F83F4801306BFCA
:1004800081F480110134013D4EE77FEA645C18BFBE
:100490007FEA655C29D094EA050F08BF90EA020F55
:1004A00005D054EA000C04BF1946104630BD91EA4D
:1004B000030F1EBF0021002030BD5FEA545C05D150
:1004C0004000494128BF41F0004130BD14F580048F
:1004D0003CBF01F5801130BD01F0004545F0FE4103
:1004E00041F470014FF0000030BD7FEA645C1ABF38
:1004F000194610467FEA655C1CBF0B46024650EA6F
:10050000013406BF52EA033591EA030F41F400219A
:1005100030BD00BF90F0000F04BF0021704730B520
:100520004FF4806404F132044FF000054FF00001F5
:1005300050E700BF90F0000F04BF0021704730B5B6
:100540004FF4806404F1320410F0004548BF40428B
:100550004FF000013EE700BF42004FEAE2014FEAE0
:1005600031014FEA02701FBF12F07F4393F07F4FBB
:1005700081F06051704732F07F4208BF704793F0BE
:100580007F4F04BF41F40021704730B54FF46074D1
:1005900001F0004521F000411CE700BF50EA0102D4
:1005A00008BF704730B54FF000050AE050EA01027D
:1005B00008BF704730B511F0004502D5404261EBED
:1005C00041014FF4806404F132045FEA915C3FF42E
:1005D000D8AE4FF003025FEADC0C18BF03325FEACB
:1005E000DC0C18BF033202EBDC02C2F1200300FA7C
:1005F00003FC20FA02F001FA03FE40EA0E0021FAA1
:1006000002F11444BDE600BF70B54FF0FF0C4CF48E
:10061000E06C1CEA11541DBF1CEA135594EA0C0F40
:1006200095EA0C0F00F0DEF82C4481EA030621EA7B
:100630004C5123EA4C5350EA013518BF52EA0335B6
:1006400041F4801143F4801338D0A0FB02CE4FF068
:100650000005E1FB02E506F00042E0FB03E54FF098
:100660000006E1FB03569CF0000F18BF4EF0010E90
:10067000A4F1FF04B6F5007F64F5407404D25FEA8C
:100680004E0E6D4146EB060642EAC62141EA55513F
:100690004FEAC52040EA5E504FEACE2EB4F1FD0C81
:1006A00088BFBCF5E06F1ED8BEF1004F08BF5FEAFF
:1006B000500E50F1000041EB045170BD06F00046B1
:1006C00046EA010140EA020081EA0301B4EB5C045E
:1006D000C2BFD4EB0C0541EA045170BD41F4801156
:1006E0004FF0000E013C00F3AB8014F1360FDEBF7B
:1006F000002001F0004170BDC4F10004203C35DA57
:100700000C341BDC04F11404C4F1200500FA05F3D9
:1007100020FA04F001FA05F240EA020001F000427A
:1007200021F0004110EBD37021FA04F642EB0601F0
:100730005EEA430E08BF20EAD37070BDC4F10C041A
:10074000C4F1200500FA04F320FA05F001FA04F2DE
:1007500040EA020001F0004110EBD37041F10001CA
:100760005EEA430E08BF20EAD37070BDC4F12005D5
:1007700000FA05F24EEA020E20FA04F301FA05F23D
:1007800043EA020321FA04F001F0004121FA04F2E5
:1007900020EA020000EBD3705EEA430E08BF20EAB5
:1007A000D37070BD94F0000F0FD101F000464000EF
:1007B00041EB010111F4801F08BF013CF7D041EA71
:1007C000060195F0000F18BF704703F00046520075
:1007D00043EB030313F4801F08BF013DF7D043EA46
:1007E0000603704794EA0C0F0CEA135518BF95EAFC
:1007F0000C0F0CD050EA410618BF52EA4306D1D183
:1008000081EA030101F000414FF0000070BD50EAA1
:10081000410606BF1046194652EA430619D094EA2B
:100820000C0F02D150EA013613D195EA0C0F05D115
:1008300052EA03361CBF104619460AD181EA030169
:1008400001F0004141F0FE4141F470014FF0000021
:1008500070BD41F0FE4141F4780170BD70B54FF0BC
:10086000FF0C4CF4E06C1CEA11541DBF1CEA13553C
:1008700094EA0C0F95EA0C0F00F0A7F8A4EB05041E
:1008800081EA030E52EA03354FEA013100F0888015
:100890004FEA03334FF0805545EA131343EA1263DE
:1008A0004FEA022245EA111545EA10654FEA002693
:1008B0000EF000419D4208BF964244F1FD0404F54C
:1008C000407402D25B084FEA3202B61A65EB0305A8
:1008D0005B084FEA32024FF480104FF4002CB6EB65
:1008E000020E75EB030E22BFB61A754640EA0C00E5
:1008F0005B084FEA3202B6EB020E75EB030E22BF25
:10090000B61A754640EA5C005B084FEA3202B6EB65
:10091000020E75EB030E22BFB61A754640EA9C0024
:100920005B084FEA3202B6EB020E75EB030E22BFF4
:10093000B61A754640EADC0055EA060E18D04FEAB2
:10094000051545EA16754FEA06164FEAC30343EA52
:1009500052734FEAC2025FEA1C1CC0D111F4801F1F
:100960000BD141EA00014FF000004FF0004CB6E718
:1009700011F4801F04BF01430020B4F1FD0C88BFB7
:10098000BCF5E06F3FF6AFAEB5EB030C04BFB6EBC2
:10099000020C5FEA500C50F1000041EB045170BDB5
:1009A0000EF0004E4EEA113114EB5C04C2BFD4EBE2
:1009B0000C0541EA045170BD41F480114FF0000E66
:1009C000013C90E645EA060E8DE60CEA135594EAE2
:1009D0000C0F08BF95EA0C0F3FF43BAF94EA0C0FE5
:1009E0000AD150EA01347FF434AF95EA0C0F7FF45A
:1009F00025AF104619462CE795EA0C0F06D152EAAE
:100A000003353FF4FDAE1046194622E750EA410691
:100A100018BF52EA43067FF4C5AE50EA41047FF4A2
:100A20000DAF52EA43057FF4EBAE12E74FF0FF3C07
:100A300006E000BF4FF0010C02E000BF4FF0010CD8
:100A40004DF804CD4FEA410C7FEA6C5C4FEA430C51
:100A500018BF7FEA6C5C1BD001B050EA410C0CBFA0
:100A600052EA430C91EA030F02BF90EA020F002002
:100A7000704710F1000F91EA030F58BF994208BF69
:100A800090422CBFD8176FEAE37040F00100704726
:100A90004FEA410C7FEA6C5C02D150EA013C07D17D
:100AA0004FEA430C7FEA6C5CD6D152EA033CD3D0C8
:100AB0005DF8040B704700BF8446104662468C46C2
:100AC0001946634600E000BF01B5FFF7B7FF0028F5
:100AD00048BF10F1000F01BD4DF808EDFFF7F4FF1E
:100AE0000CBF012000205DF808FB00BF4DF808EDA9
:100AF000FFF7EAFF34BF012000205DF808FB00BFCC
:100B00004DF808EDFFF7E0FF94BF012000205DF8ED
:100B100008FB00BF4DF808EDFFF7CEFF94BF0120A2
:100B200000205DF808FB00BF4DF808EDFFF7C4FF9B
:100B300034BF012000205DF808FB00BF4FEA410CE4
:100B40007FEA6C5C02D150EA013C0AD14FEA430CC7
:100B50007FEA6C5C02D152EA033C02D14FF0000004
:100B600070474FF0010070474FEA410212F5001242
:100B700015D211D56FF47873B3EB625212D94FEAE4
:100B8000C12343F0004343EA505311F0004F23FACE
:100B900002F018BF404270474FF00000704750EA23
:100BA000013005D111F0004008BF6FF000407047E0
:100BB0004FF00000704700BF53B94AB9002908BF81
:100BC00000281CBF4FF0FF314FF0FF3000F088B914
:100BD000ADF1080C6DE904CE00F006F8DDF804E094
:100BE000DDE9022304B070472DE9F047089D8E46E9
:100BF00004468846002B4AD18A42174662D9B2FA87
:100C000082F64EB1C6F1200301FA06F820FA03F38A
:100C1000B74043EA0808B4404FEA174E1FFA87FC72
:100C2000B8FBFEF1230C0EFB118843EA084301FBDD
:100C30000CF29A4209D9FB1801F1FF3080F0EA80EA
:100C40009A4240F2E78002393B449A1AA3B2B2FBBF
:100C5000FEF00EFB102243EA024300FB0CFC9C4515
:100C600009D9FB1800F1FF3280F0D6809C4540F294
:100C7000D3803B44023840EA0140A3EB0C0300213F
:100C80001DB1F3400022C5E90032BDE8F0878B4278
:100C900005D90DB1C5E9000100210846F5E7B3FA11
:100CA00083F1002946D1734502D3824200F20581C7
:100CB000841A6EEB030201209046002DE5D0C5E9B1
:100CC0000048E2E7002A00F09080B2FA82F6002E97
:100CD00040F0A4808A1A030C4FEA174E80B2BCB2CF
:100CE0000121B2FBFEFC0EFB1C2243EA024304FB83
:100CF0000CF29A4207D9FB180CF1FF3802D29A4243
:100D000000F2E080C4469B1AB3FBFEF20EFB1233E6
:100D100040EA034302FB04F49C4207D9FB1802F1AA
:100D2000FF3002D29C4200F2CA8002461B1B42EAFC
:100D30000C40A5E7C1F120068B4022FA06F71F43BD
:100D40000EFA01F420FA06F32EFA06FE4FEA1749CE
:100D5000234300FA01F81FFA87FCBEFBF9F01C0CD4
:100D600009FB10EE44EA0E4400FB0CFEA64502FA15
:100D700001F209D93C1900F1FF3A80F09C80A645A8
:100D800040F2998002383C44A4EB0E041FFA83FE23
:100D9000B4FBF9F309FB13444EEA044403FB0CFCD7
:100DA000A44508D93C1903F1FF3E80F08280A44598
:100DB0007FD9023B3C4443EA0040A4EB0C04A0FB77
:100DC00002EC64457346E14662D35FD05DB1B8EB97
:100DD000030264EB090404FA06F622FA01F31E4347
:100DE000CC40C5E9006400214FE7B1FBF2FC010CE7
:100DF00041EA0E4180B240EA01423B4638463C4659
:100E0000B846BE462026B1FBF7F1A2EB080241EA44
:100E10000C4166E7014618E710462CE7C6F12002B0
:100E20002EFA02F3B740B14020FA02F24FEA174E11
:100E30000A43B3FBFEF8BCB20EFB1833110C41EAB7
:100E4000034108FB04F9B04089454FEA104380B2E2
:100E50003ED9791808F1FF3C01D289451FD8A1EB92
:100E60000901B1FBFEF909FB04F80EFB191192B25E
:100E700042EA0142424529D2BA1809F1FF31C4D2EF
:100E80004245C2D2A9F102013A44BEE7F0459DD2E3
:100E9000BEEB02036CEB070C0138E14696E7A7EBCB
:100EA00009094944A8F1020CB1FBFEF909FB04F859
:100EB000DBE773467FE7504666E70846FDE63B44BE
:100EC000023A33E7ACF1020C3B441CE749469CE78D
:100ED000A1EB0901C446B1FBFEF909FB04F8C4E724
:100EE000704700BF08B540F6B83000F069F801F06F
:100EF000CFFA08BD10B582B00BE02749002001F001
:100F000047FC264B1A68264B1B68D31AB3F57A7F29
:100F10002DD200F059F8214B1860002001F0BAFBE7
:100F20000028EED0002001F0D7FB3228E5D033288E
:100F300006D03128E5D11B49002001F029FCE0E76B
:100F4000194801F029F919499F230B70184C0A23FD
:100F5000009304232246002001F0AEF9E3780093C9
:100F6000A37862782178134801F016F9C9E70C4B91
:100F70001A6000F0DBFF58B1002001F091F80E4B31
:100F80001A6801321A600D49002001F001FCC0E727
:100F9000002001F075F8BCE748960008F002002038
:100FA000F4020020309600085C960008E802002059
:100FB000E402002070960008EC02002080960008F1
:100FC00008B501F04FFD08BD08B501F045FD08BDAD
:100FD00072B6FEE700B595B03022002108A806F0F1
:100FE0004DFA00230393049305930693079301930B
:100FF0001F4A116C41F080511164126C02F0805252
:101000000192019A02931B4B1A6842F440421A6003
:101010001B6803F440430293029B012308934FF49F
:101020008033099302230E934FF480020F9219220A
:101030001092C022119212930423139308A802F075
:10104000A1FE88B90F230393022304930023059381
:101050004FF4805206920793032103A803F0E2F8AD
:1010600020B915B05DF804FBFFF7B2FFFFF7B0FF42
:10107000003802400070004000B589B001F0C6FCA5
:10108000FFF7A8FF00220092294B596C41F48041E0
:101090005964596C01F48041009100990192196CD6
:1010A00041F080511964196C01F08051019101994E
:1010B0000292196B41F001011963196B01F00101F2
:1010C000029102990392196B41F002011963196BA5
:1010D00001F00201039103990492196B41F004019C
:1010E0001963196B01F00401049104990592196BBD
:1010F00041F008011963196B01F008010591059988
:101100000692196B41F010011963196B01F010017F
:101110000691069907921A6B42F080021A631B6BC4
:1011200003F080030793079B012009B05DF804FBDF
:101130000038024082B0002100910B4B5A6C42F4FF
:1011400080425A645A6C02F480420092009A0191E3
:101150001A6C42F080521A641B6C03F080530193A6
:10116000019B02B0704700BF00380240FEE7FEE777
:10117000FEE7FEE7FEE770477047704708B501F0ED
:101180005FFC08BD0120704708B506F0C9F91623B9
:1011900003604FF0FF3008BD08B54FF0FF31FFF797
:1011A000F3FFFEE770B50C461646002506E0AFF3E8
:1011B0000080214601F8010B01350C46B542F6DBF3
:1011C000304670BD70B50C461646002504E014F894
:1011D000010BAFF300800135B542F8DB304670BD3E
:1011E0004FF0FF3070474FF400534B6000207047C2
:1011F000012070470020704710B503460C4A0D4986
:101200000D48006840B10C4800680344521A9342EC
:1012100006D8094A136010BD0748084C0460F2E77D
:1012200006F07EF90C2303604FF0FF30F3E700BFB8
:101230000000022000040000F8020020B04300205B
:10124000034AD2F8883043F47003C2F888307047FC
:1012500000ED00E008B501F095FBFFF743FEFFF756
:1012600049FE002008BD0000DFF834D0FFF7E8FF9A
:101270000C480D490D4A002302E0D458C4500433F1
:10128000C4188C42F9D30A4A0A4C002301E01360C7
:101290000432A242FBD306F049F9FFF7DBFF7047A7
:1012A0000000022000000020C8020020949B0008DB
:1012B000C8020020AC430020FEE70346002018606F
:1012C00058609A600120D86019617047F0B5002716
:1012D0000CE00CEB030511F803E006F805E0013320
:1012E000C5689D42F5D8294404600137974213D25E
:1012F00005686B1C8468B3FBF4F604FB1634436882
:10130000A3420BD00669002EEED00029ECD0C368B2
:1013100003FB05FC0023E3E70120F0BD0020FCE710
:1013200070B50C461646002516E001EB0E0C1CF8B5
:1013300003C004F803C00133C2689A42F5D81444CC
:1013400043680268934216D001338268B3FBF2F11E
:1013500002FB113343600135B5420AD2016900290D
:10136000EED0002CECD04368C26802FB03FE0023E1
:10137000E2E7012070BD0020FCE7036842689B1A89
:101380008268B3FBF2F002FB1030704710B5D0F862
:10139000D43203F1B00250F822408CB100EB82004D
:1013A00043687BB194F80002FF280DD09B6894F845
:1013B000012221469847FF2384F80032002010BD07
:1013C0000320FCE70020FAE70020F8E70A23038067
:1013D0000048704780000020F8B506460F4F822174
:1013E000384604F081FE05460121384604F07CFEB3
:1013F00004468121384604F077FE0DB11022AA710F
:101400001CB1402222710022627118B14022027187
:1014100000224271432333800048F8BD04000020BD
:10142000F8B506460F4F8221384604F05DFE0546AA
:101430000121384604F058FE04468121384604F064
:1014400053FE0DB11022AA711CB14022227100225C
:10145000627118B14022027100224271432333802D
:101460000048F8BD04000020F8B506460F4F822161
:10147000384604F039FE05460121384604F034FEB2
:1014800004468121384604F02FFE0DB11022AA71C6
:101490001CB1002222710222627118B10022027175
:1014A00002224271432333800048F8BD040000202B
:1014B00038B5D0F8D432B03350F8235095B1044643
:1014C00000F03AFCC5F80C02D4F8D432B03304EB87
:1014D00083046368DB6805F50371D5F80402984757
:1014E000002038BD0320FCE738B5D0F8C852D0F84A
:1014F000D432B03350F8234084B301F00F0303EB30
:10150000830200EB820252694AB103EBC30C05EB84
:101510008C05ED69B2FBF5FC05FB1C2292B10023A2
:10152000C4F81432D0F8D432B03300EB83004368EF
:101530001B69ABB10A4604F50471D4F80802984758
:10154000002038BD03EB830300EB830300245C61C0
:101550002346224600F03EFC2046F2E70320F0E757
:101560000020EEE7F0B583B0D0F8D43203F1B0023A
:1015700050F8227000228DF80720ADF80420002FCB
:101580007BD004460D46097811F0600634D0202E39
:101590006CD1EA882AB311F0800F07D16B7887F8F5
:1015A0000032EA883F2A13D8D2B212E0B03300EBFF
:1015B00083035B689B68394668789847EA88072AFE
:1015C00028BF07223946204605F045F9002651E09C
:1015D000402287F801223946204605F052F90026BC
:1015E00048E0B03300EB83035B689B680022294628
:1015F0006878984700263DE06F780B2F31D8DFE8F8
:1016000007F006393030303030303030162690F860
:101610009C32DBB2032B04D0294604F0A2FD032642
:1016200028E0022201A905F016F93E4622E090F8D2
:101630009C32DBB2032B04D0294604F092FD032632
:1016400018E001220DF1070105F005F912E090F80C
:101650009C32DBB2032B0DD0294604F082FD032619
:1016600008E0294604F07DFD032603E0294604F046
:1016700078FD0326304603B0F0BD0326FAE738B5FF
:101680000446812100F080FB002584F837500121B9
:10169000204600F079FB84F877518221204600F043
:1016A00073FB84F84B506564D4F8D43203F1B00274
:1016B00054F822209AB1B03304EB83035B685B6873
:1016C0009847D4F8D432B03354F8230000F03EFBEE
:1016D000D4F8D432B03344F82350C4F8BC520020BC
:1016E00038BD70B504464FF4077000F02BFB00289E
:1016F00049D005464FF40772002105F0BFFED4F82B
:10170000D432B03344F82350C4F8BC52237C002BAD
:1017100041D14FF4007302228121204600F029FBC1
:10172000012684F837604FF40073022231462046C8
:1017300000F01FFB84F87761102363640823032201
:101740008221204600F015FB012384F84B3000264F
:10175000C5F80462D4F8D432B03304EB83035B6879
:101760001B689847C5F81462C5F81862D5F80422BA
:1017700062B3257C1DBB4FF400730121204600F0AD
:1017800031FB284670BDD4F8D432B033002244F87F
:1017900023200225F5E7402302228121204600F084
:1017A000E8FA012684F837604023022231462046B9
:1017B00000F0DFFA84F8776110236364BEE740230A
:1017C0000121204600F00EFB0025DAE70225D8E7CC
:1017D00039B1D0F8D432B03300EB8300416000203F
:1017E000704703207047D0F8D432B03350F823301C
:1017F0002BB1C3F80812C3F8102200207047032051
:101800007047D0F8D432B03350F823301BB1C3F84E
:101810000412002070470320704708B5D0F8D43276
:10182000B03350F823208AB1D2F814320BB1012022
:1018300008BD0123C2F81432D2F810328362D2F804
:101840000822812100F0C6FA0020F1E70320EFE72B
:1018500010B5D0F8D432B03350F8232092B1047CC4
:1018600044B94FF40073D2F80422012100F0BAFA0F
:10187000204610BD4023D2F80422012100F0B2FA24
:101880000024F5E70324F3E70020014B18707047AC
:10189000FE02002021282AD0222839D0202835D144
:1018A0000B781E4A1360487843EA00231360887857
:1018B00043EA00431360C87843EA00631360087981
:1018C00010714879507189799171B3F5966F06D08E
:1018D000B3F5E13F07D0124B00221A7016E0114A0F
:1018E00001211170F4E70E4B01221A700EE00B4B30
:1018F0001A780A705A784A709A788A70DA78CA70B8
:101900001A790A715A794A719B798B710020704754
:101910004B8803F00103044A1370F7E78C000020A2
:10192000FC020020280B0020FE020020002070474F
:1019300070B505460D4E0A6801463046FFF7C6FCF5
:10194000B4683046FFF719FD241A013C3F2C04D837
:10195000074B01221A70002070BD064C2946204614
:10196000FFF74FFF2046FFF773FFF4E7140B00204B
:10197000FD020020341C002010B5074C002207494E
:101980002046FFF730FF06492046FFF73AFF0020C8
:10199000044B187010BD00BF341C00202C0B00201D
:1019A0002C0F0020FE02002008B5084B00221A7000
:1019B0004FF4806206490748FFF77FFC4FF48062CE
:1019C00005490648FFF779FC012008BDFE0200200A
:1019D00000070020140B002000030020000B002053
:1019E00008B50248FFF7C9FC08BD00BF140B002072
:1019F00000B583B000238DF8073001220DF10701F7
:101A00000348FFF78DFC9DF8070003B05DF804FB69
:101A1000140B00200B4BD3F8BC3263B10A4B18787F
:101A200040B1084B93F89C32DBB2032B05D1054B38
:101A30005B6823B17047002070470020704700208A
:101A4000F8E700BF341C0020FE0200202DE9F04121
:101A500007460D46FFF7DEFF18B900263046BDE801
:101A6000F081FFF7B1FA804600260AE0ACB9FFF733
:101A7000D1FF0028F2D0FFF7A7FAA0EB0803632BF1
:101A8000ECD8AE42EAD209488468FFF776FC241A03
:101A9000013CA542EAD82C46E8E7224639460348ED
:101AA000FFF714FC27442644E1E700BF000B0020A9
:101AB00070B51C4B1B788BB91B48FFF75EFC0446C6
:101AC00010F03F0F02D138B1441E05D0174BD3F8A8
:101AD000BC32D3F81432ABB1002070BD1448846816
:101AE000FFF74BFC241A013C3F2CE5D90F4C114960
:101AF0002046FFF786FE2046FFF7AAFE094B00228C
:101B00001A70D9E70C4E224631460748FFF708FC09
:101B1000064D224631462846FFF765FE2846FFF768
:101B20007CFED9E7FD020020000B0020341C0020C1
:101B3000140B00202C0F00202C0B002030B589B096
:101B40000023039304930593069307930368B3F16B
:101B5000A04F01D009B030BD00250195164C236B74
:101B600043F001032363236B03F001030193019B03
:101B70004FF4C053039302230493032306930A23D1
:101B8000079303A90D4801F047F9636B43F0800305
:101B900063630295636C43F480436364636C03F492
:101BA00080430293029B2A462946432000F0C2FF4D
:101BB000432000F0CFFFCDE7003802400000024094
:101BC00008B500F29C41D0F8E00404F0E2F808BD4A
:101BD00008B501EBC10300EB8303D3F86022D0F812
:101BE000E00404F0A9F908BD08B501EBC10300EB5E
:101BF00083031A6AD0F8E00404F003FA08BD08B5BC
:101C0000D0F8E00404F043F908BD10B50446C379E8
:101C1000022B09D10121D4F8E00404F019F9D4F819
:101C2000E00404F0E2F810BDFFF7D2F9F2E700009B
:101C300010B50446D0F8E00404F00DF92268D2F89B
:101C4000003E43F00103C2F8003EE37A23B1044AA8
:101C5000136943F006031361024B00221A7010BD92
:101C600000ED00E0301A002008B5D0F8E00404F0E0
:101C700001F908BD08B5D0F8E00404F030F908BD5A
:101C800008B5D0F8E00404F013F908BD08B5D0F8A1
:101C9000E00404F03BF908BD08B5D0F8E00404F016
:101CA00037F908BD02780AB10020704710B5034625
:101CB0001548C0F8E034C3F8C8024FF0A0430360F1
:101CC000042303710222C271002383714272012234
:101CD0008272C37203738373C37301F080FA80B995
:101CE000094C8021204602F048F84022002120467D
:101CF00002F01DF880220121204602F018F8002091
:101D000010BDFFF765F9EBE74C150020D0F8C8329D
:101D100011F0800F08D101F07F0101EBC10103EB4D
:101D2000810393F85602704701F07F0101EBC10176
:101D300003EB8103987D704708B5D0F8C80201F025
:101D400051FC08BD004870472C1300207047032841
:101D500005D8DFE800F005040205012070470320E4
:101D6000704708B5D0F8C80201F0BAFAFFF7EFFFE4
:101D700008BD08B594461A466346D0F8C80201F07B
:101D80008EFBFFF7E4FF08BD08B5D0F8C80201F0EC
:101D9000CCFBFFF7DCFF08BD08B5D0F8C80201F0A6
:101DA0004FFCFFF7D4FF08BD08B5D0F8C80201F01A
:101DB0008AFCFFF7CCFF08BD08B5D0F8C80201F0D7
:101DC0005BFBFFF7C4FF024B01221A7008BD00BF86
:101DD000301A002008B5D0F8C80201F00CFCFFF75B
:101DE000B6FF08BD08B5D0F8C80201F0D6FBFFF772
:101DF000AEFF08BD12230B8000487047C8000020CA
:101E000004230B8000487047C40000200023934245
:101E10001ED200B510E00CF1370C01F813C0000120
:101E20004FEA430C0CF1010C4FF0000E01F80CE0EE
:101E30000133DBB2934209D24FEA107CB0F1204F5C
:101E4000E9D20CF1300C01F813C0E8E75DF804FBAF
:101E50007047000038B50B4BD3F8100AD3F8144A7A
:101E6000D3F8183AC01800D138BD074D08222946CA
:101E7000FFF7CCFF042205F110012046FFF7C6FF53
:101E8000F2E700BF0070FF1FAA00002008B51A2368
:101E90000B80FFF7DFFF014808BD00BFA80000204E
:101EA00008B50A4628B90549054804F0B1FC0348BD
:101EB00008BD0249024804F0ABFCF8E7341A0020E0
:101EC0008C96000810B50A46034C2146034804F0DE
:101ED0009FFC204610BD00BF341A0020A4960008C5
:101EE00008B50A4628B90549054804F091FC03489D
:101EF00008BD0249024804F08BFCF8E7341A0020C0
:101F0000B896000808B50A4628B90549054804F0FE
:101F10007FFC034808BD0249024804F079FCF8E759
:101F2000341A0020C49600080120704708B5FFF756
:101F300071FD08BD08B5012803D00020124B1870B0
:101F400008BD00221149124803F0D6FE08B1002056
:101F5000F6E710490E4803F0E6FE08B10020EFE76F
:101F60000D490B48FFF734FC08B10020E8E70848AA
:101F700003F0F9FE08B10020E2E7FFF715FD0120AC
:101F8000064B1870DAE700BF111F0020DC000020AC
:101F9000341C00204800002094000020101F002066
:101FA00008B5024801F0E3FB08BD00BF4C15002056
:101FB000D0B908B5034659B10C4803EB430C00EB0C
:101FC0008C014A7A898850F82C0001F091F808BDFC
:101FD000064803EB430C00EB8C018A7A898850F8A1
:101FE0002C0001F085F8F2E7704700BFA0970008C9
:101FF00010B588B0002403940494059406940794C3
:1020000000941C4B1A6B42F004021A631A6B02F024
:1020100004020092009A01941A6B42F080021A6343
:102020001A6B02F080020192019A02941A6B42F03C
:1020300001021A631B6B03F001030293029B224609
:102040004FF400510C4801F053F801230493059418
:1020500006940AE0094B03EBC4029288039203A999
:1020600053F8340000F0D8FE0134042CF2D90120DA
:1020700008B010BD0038024000080240AC970008CC
:10208000042800D9704708B5044B03EBC001CA7996
:10209000898853F8300001F02BF808BDAC97000890
:1020A000042800D9704708B5044B03EBC00291889F
:1020B00053F8300001F022F808BD00BFAC970008CB
:1020C0000A4A0023138053804FF480619180D380AB
:1020D00007489060074A138053809180D380064B55
:1020E00093600120054B1870704700BF282800201E
:1020F0001C2400201C2800201C2000201A20002066
:10210000003818BF0120014B18707047F9000020FB
:1021100008B5054B1870054B1960054B01221A7064
:1021200000F020FA08BD00BF182000201420002075
:102130001920002030B583B004469446C388134468
:10214000083382889A4205D20023C3800CF1080329
:102150009A4219D3E088009123880E4A0CF10801B5
:10216000A568284405F0D4F8238801332380E38848
:1021700082B21344E38063881844A188884205DC56
:102180001A446280012002E0002000E0012003B038
:1021900030BD00BFD49600080FB410B582B0164B06
:1021A0001B7823B902B0BDE8104004B0704705ABFE
:1021B0000193049A4FF48071104805F051F90446D8
:1021C0000F4B1B7813B10F4B1B7843B90E4B1B7889
:1021D00063B9224609490D48FFF7ACFFE2E7024622
:1021E00006490B4B187800F0A5FAEFE722460349A1
:1021F0000848FFF79FFFECE71A200020141F00207B
:1022000019200020F8000020F90000201C280020E0
:1022100018200020282800200023002B01DD0120A9
:10222000704710B4094C03EB830290002218002180
:10223000215401205070917051601161D1600344AC
:10224000002BEFDD01205DF8044B70478C28002047
:1022500008B10020704738B5044600EB8003134DE9
:1022600005EB83051248A860124B03604FF482739C
:10227000436000238360C360036143614FF48022A5
:102280008261C3610362436283620A23C36202F014
:10229000E8F9A86802F086F930B904EB840401205B
:1022A000024B03F8240038BD0020FCE78C280020F6
:1022B000342800200030014030B583B000EB800CA2
:1022C000174D15F82C5085B114461A4684B1C1B18A
:1022D00000EB8000124B03EB8000069B009393B24F
:1022E0002246806802F0B5FAB8B9284603B030BD7E
:1022F0000B4B03EB8C00069B92B2806802F0C7F98F
:10230000F2E700EB8000064B03EB8000069B92B2E5
:102310002146806802F0C7FBE6E70025E5E700BF3D
:102320008C28002000B589B0002303930493059303
:10233000069307930268154B9A4202D009B05DF8E4
:1023400004FB0021019103F584335A6C42F480525E
:102350005A645A6C02F480520192019A02911A6BEB
:1023600042F001021A631B6B03F001030293029B0C
:10237000F023039302230493032306930523079377
:1023800003A9034800F048FDD8E700BF0030014032
:102390000000024008B50268064B9A4200D008BD12
:1023A000054A536C23F480535364F021034800F032
:1023B00017FEF4E700300140003802400000024000
:1023C00000B583B0009313460A4601460020FFF78C
:1023D00073FF03B05DF804FB70B582B006460C468F
:1023E0009F238DF8043000210846FFF7E1FD0A2302
:1023F000042269460DEB0200FFF7E2FF05460121CA
:102400000020FFF7D5FD6DB1042C00D90424002372
:1024100006E003F108026A4412F8082CF254013372
:102420009C42F6D8284602B070BD10B582B000209C
:10243000FFF70EFF044610B9204602B010BD662318
:102440008DF8043000210846FFF7B2FD0A2301226F
:10245000002101A8FFF7B4FF044601210020FFF787
:10246000A7FD99238DF8043000210846FFF7A0FD51
:102470000A230122002101A8FFF7A2FF0440E4B2D1
:1024800001210020FFF794FD0A20FEF799FDD3E714
:1024900010B582B0FFF7C9FF04210DEB0100FFF773
:1024A0009BFF044620B39DF80530EF2B03D19DF828
:1024B0000630402B11D01048FFF76EFE9DF8073014
:1024C0009DF806209DF805100C48FFF765FE0024D6
:1024D0000B4B1C70204602B010BD9DF80730182B26
:1024E000E9D10848FFF758FE0748FFF755FEEFE728
:1024F0000648FFF751FEEBE70C9700082497000809
:10250000A0280020DC960008F496000848970008F0
:1025100010B400230CE00E4C03EB43021001221810
:10252000002121544FF4E13050609162D1620133B7
:10253000012BF0DD064B074A9A60074A9A63074A67
:102540009A660120064B18705DF8044B704700BF77
:10255000F4410020A4380020A4300020A42800204A
:1025600054420020012800F28B80F0B583B004466D
:1025700000EB40031B01444AD05C38B104EB440239
:10258000414B03EB02135B688B425AD0002C4DD0B9
:10259000631EDBB2012B75D83B4F04EB440507EB00
:1025A0000515696004EB4402384B03EBC2039A68DB
:1025B0002A62D86868625B6813602B6A59602B6A6C
:1025C00000269E602B6ADE602B6A1E612B6A0C223D
:1025D0005A612B6A9E612B6ADE6104EB44000001A4
:1025E000083038444FF40062A9680430FEF765FEF5
:1025F0000096274B1A6B42F400121A631A6B02F40E
:1026000000120092009A01961A6B42F480021A633B
:102610001B6B03F480030193019B286A02F041FCC9
:10262000286A02F00EFC70B100200AE0164A04EBA2
:10263000440302EB0313596004EB4404240101201A
:10264000105503B0F0BD04EB440319010120785488
:102650004FF40062A968286A02F082FD70B9012077
:10266000094A04EB440302EB031359691D6AED6B3D
:102670002D686D68491BD9601961E2E70020EFE71A
:10268000002070470020DCE7F4410020D4970008C8
:102690000038024010B5C0B10346421ED2B2012A32
:1026A00016D80C4C00EB400204EB02125169506A40
:1026B00000684068091AD16003EB4300000108304C
:1026C00020440430FEF759FE01E0FFF789F910BD00
:1026D0000020FCE7F441002010B582B000238DF803
:1026E0000730044680B1431EDBB2012B10D800EB4B
:1026F0004000000108300E4B184401220DF1070183
:102700000430FEF70DFE03E0FFF772F98DF80700C5
:10271000074B04EB440203EB0212926A04EB4404FD
:1027200003EB041301329A629DF8070002B010BD5A
:10273000F441002038B58C461546044680B1431E4E
:10274000DBB2012B1DD800EB4003104800EB031057
:10275000642392B2006A02F0BEFBA0B1002003E045
:1027600011466046FFF772F9084B04EB440203EB95
:102770000212D26A04EB440403EB04130244DA624B
:1027800038BD0020F0E72846EEE700BFF441002006
:102790000EB410B5C3B0044645AB53F8042B0193F7
:1027A0004FF4807102A804F05BFE024602A92046A5
:1027B000FFF7C0FF43B0BDE8104003B07047000012
:1027C00030B58BB004460023059306930793089316
:1027D0000993026803F1804303F588339A4205D0D8
:1027E0002268404B9A423ED00BB030BD0025019587
:1027F00003F594335A6C42F010025A645A6C02F09A
:1028000010020192019A02951A6B42F001021A63BA
:102810001B6B03F001030293029B4FF4C06305930B
:10282000022306930723099305A92F4800F0F4FA21
:102830002E482F4B03604FF0006343608560C560F6
:102840004FF480630361456185614FF48073C36118
:10285000056200F013FA18B9244BE3639C63BFE7E9
:10286000FEF7B6FBF8E70025039503F5FA331A6C7B
:1028700042F400321A641A6C02F400320392039A92
:1028800004951A6B42F001021A631B6B03F00103FB
:102890000493049B0C2305930223069307950323BB
:1028A00008930723099305A90F4800F0B5FA1148CA
:1028B000114B03604FF0006343608560C5604FF4C7
:1028C00080630361456185614FF48073C361056274
:1028D00000F0D4F918B9074BE3639C6384E7FEF773
:1028E00077FBF8E70044004000000240044100206C
:1028F00040640240A44000208860024010B50446B5
:1029000002681A4B9A4208D02268194B9A4212D098
:102910002268184B9A421BD010BD174A536C23F003
:10292000100353644FF4C061144800F059FBE06B8E
:1029300000F00AFAE8E7104A136C23F4003313643A
:102940000E210E4800F04CFBE06B00F0FDF9DFE7D4
:10295000094A536C23F0200353644FF44061084844
:1029600000F03EFBE06B00F0EFF9D5E7001001400E
:1029700000440040001401400038024000000240C2
:102980000004024008B5FEF777FBFFF799FBFFF75D
:10299000BFFD4FF4E1310020FFF7BAFBFFF728FB42
:1029A000FFF7C2FA0120FFF7C5FAFFF735FC002058
:1029B000FFF74EFC0020FFF7A3FB012008BD00003D
:1029C00010B504460E4B1A784FF47A73B3FBF2F34A
:1029D0000C4A1068B0FBF3F000F0C0F868B90F2C97
:1029E00001D901200AE0002221464FF0FF3000F01B
:1029F000A1F8054B1C60002000E0012010BD00BFC5
:102A0000FA00002000000020FC00002008B50B4B5D
:102A10001A6842F400721A601A6842F480621A60FE
:102A20001A6842F480721A60032000F071F80F20D7
:102A3000FFF7C6FFFEF77EFB002008BD003C02400A
:102A4000034A1168034B1B780B441360704700BFA7
:102A500058420020FA000020014B1868704700BF60
:102A60005842002038B50446FFF7F6FF0546B4F19A
:102A7000FF3F02D0044B1B781C44FFF7EDFF401BC7
:102A8000A042FAD338BD00BFFA000020002807DBBF
:102A900000F01F02400901239340024A42F820300F
:102AA000704700BF00E100E0002808DB0901C9B25F
:102AB00000F1604000F5614080F80013704700F0BD
:102AC0000F000901C9B2014B1954704714ED00E021
:102AD00000B500F00700C0F1070CBCF1040F28BFDF
:102AE0004FF0040C031D062B0FD9C31E4FF0FF3E01
:102AF0000EFA0CF021EA000199400EFA03FE22EAD8
:102B00000E0241EA02005DF804FB0023EEE700003C
:102B1000074AD36823F4E0631B041B0C000200F493
:102B2000E060034343F0BF6343F40033D360704776
:102B300000ED00E010B50446054BD868C0F3022054
:102B4000FFF7C6FF01462046FFF7AEFF10BD00BFEE
:102B500000ED00E008B5FFF799FF08BD0138B0F1BE
:102B6000807F0BD24FF0E0235861054AF02182F8B4
:102B700023100020986107221A61704701207047D6
:102B800000ED00E030B405682C6824F480242C604B
:102B9000046863608368402B05D00368996003680C
:102BA000DA6030BC704703689A600368D960F8E760
:102BB00010B40368D9B210390A4AA2FB01421209C3
:102BC000094CA25CC2655F2907D96FF3090304337E
:102BD0008365806D5DF8044B70476FF3090383656F
:102BE000F7E700BFABAAAAAA04980008836A826923
:102BF00092B9012B0AD0022B02D00BB100207047F2
:102C0000C36A13F0807F28D100207047C36AB3F1F4
:102C1000C07F24D000207047B2F5005F09D0022B9E
:102C200025D9032B25D1C36A13F0807F23D100203F
:102C30007047032B03D8DFE803F01404140A0020C4
:102C40007047C36A13F0807F0DD100207047C36ABC
:102C5000B3F1C07F09D000207047012070470120E8
:102C60007047012070470120704701207047012004
:102C700070470020704701207047000070B504467F
:102C8000FFF7EAFE002C5BD00546022384F83530BE
:102C9000002384F834302268136823F001031360A2
:102CA00023681A6812F0010F0AD0FFF7D5FE431B04
:102CB000052BF5D920236365032084F8350070BD0A
:102CC0001A68204911406268A0680243E068024324
:102CD0002069024360690243A0690243E06902433C
:102CE000206A02430A43616A04291ED01A602668DA
:102CF000756925F00705636A1D43042B07D1A36A94
:102D00001D43E36A1BB12046FFF770FF90B9756160
:102D10002046FFF74DFFE26D3F2393408360002084
:102D20006065012384F83530C9E7E16A206B01430F
:102D30000A43DBE740236365012084F83500BEE7E2
:102D40000120BCE73F8010F000282DD038B50546A3
:102D500090F83500C0B2022825D02A68136823F005
:102D6000010313602B6800241C602B685C602B68D7
:102D70009C602B68DC602B681C612B6821225A61E7
:102D80002846FFF715FFEC632C646C64AC64EC64BC
:102D90002C65EA6D3F23934083606C6585F8354070
:102DA00085F83440204638BD0120704738B50446C8
:102DB000856D90F8340001282BD0012084F8340070
:102DC00094F83500C0B2012804D0002384F83430D0
:102DD000022038BD022084F83500002060652046BE
:102DE000FFF7D0FEE26D3F239340AB60226813688B
:102DF00043F016031360236C23B12268136843F079
:102E0000080313602268136843F001031360002075
:102E1000DFE70220DDE7000000230F2B00F2D78060
:102E200070B582B065E085684FEA430E032404FA6A
:102E30000EF425EA0405CC6804FA0EF42C438460F1
:102E4000446824EA02044A68C2F300129A4022430A
:102E500042605CE0DC08083450F8242003F00705E9
:102E6000AD004FF00F0E0EFA05FE22EA0E0E0A69B3
:102E7000AA4042EA0E0240F824205CE0042200E06E
:102E8000002202FA0EF22A430234514D45F8242062
:102E9000504A94686FEA0C0224EA0C054E6816F456
:102EA000801F01D04CEA04054A4CA560E46802EAA0
:102EB00004054E6816F4001F01D04CEA0405454C89
:102EC000E560646802EA04054E6816F4003F01D02C
:102ED0004CEA04053F4C6560246822404D6815F4B7
:102EE000803F01D04CEA04023A4C226001330F2BA0
:102EF0006BD801229A400C6804EA020C32EA0404FE
:102F0000F4D14C6804F00304013C012C8BD94A68CD
:102F100002F00302032A09D0C4685D000322AA401C
:102F200024EA02048A68AA402243C2604A6802F086
:102F30000302022A8ED004684FEA430E032202FAEB
:102F40000EF224EA02044A6802F0030202FA0EF2C8
:102F5000224302604A6812F4403FC7D00022019227
:102F60001D4A546C44F480445464526C02F4804210
:102F70000192019A9C08A51C154A52F8255003F0AD
:102F8000030E4FEA8E0E0F2202FA0EF225EA020518
:102F9000124A90423FF474AF02F5806290420ED024
:102FA00002F5806290420CD002F5806290420AD015
:102FB00002F5806290423FF461AF072261E701228F
:102FC0005FE702225DE703225BE702B070BD704756
:102FD00000380140003C014000380240000002403F
:102FE00000230F2B7CD8F0B52DE0042500E0002550
:102FF00005FA0CF5A54257D004685D004FF0030CAC
:103000000CFA05FC24EA0C0404604FEAD30E0EF11E
:10301000080E50F82E4003F00706B6000F25B54005
:1030200024EA050440F82E40C46824EA0C04C46075
:10303000446824EA02024260826822EA0C0282604A
:1030400001330F2B4BD801229A4002EA010632EAE3
:103050000104F5D14FEA930E0EF10205214C54F80C
:10306000254003F0030C4FEA8C0C0F2505FA0CF7F2
:103070003C401D4DA842BAD005F58065A8420DD050
:1030800005F58065A8420BD005F58065A84209D0FA
:1030900005F58065A842A8D00725A9E70125A7E77F
:1030A0000225A5E70325A3E7104C256825EA0605B8
:1030B0002560656825EA06056560E56825EA060578
:1030C000E560A56825EA0605A560064E0EF1020436
:1030D00056F8245025EA070546F824508CE7F0BD41
:1030E000704700BF0038014000000240003C014032
:1030F0000AB181617047090481617047436901EA3F
:10310000030221EA030141EA0241816170472DE98E
:10311000F04383B0D0F8008001EBC10300EB8303E0
:103120009A6A5B6A9A4254D807460C469B1A01EB8E
:10313000C10200EB8202D2699A4200D31A4602F120
:1031400003094FEA990915E006F103094FEA9909C5
:10315000BB7904EBC40507EB8505296A0093B3B27C
:10316000E2B2404602F043FB2B6A33442B62AB6A67
:103170003344AB6208EB441303F510639B699BB2C5
:103180004B4512D304EBC40307EB83039A6A5B6AD3
:103190009A420AD24BB19B1A04EBC40207EB82029B
:1031A000D6699E42D0D31E46CEE704EBC40307EB9C
:1031B00083077A6ABB6A9A420FD804F00F0401228F
:1031C000A240D8F8343823EA0203C8F83438002083
:1031D00000E0012003B0BDE8F0830020FAE730B53D
:1031E00083B000287AD00446056890F89534C3B1BE
:1031F000032384F89534B5F1A04F17D0206802F06E
:10320000A9F8237C8DF80030231D0ECB206801F037
:10321000DFFF70B1022384F895340125284603B0FE
:1032200030BD80F89434FEF789FCE1E70023A371F8
:10323000E4E70021206802F0F0FC024608B90346EA
:1032400017E0022384F895340125E7E703EBC30177
:1032500004EB8101012048750B75CB8500200876B1
:10326000C861086203EBC30104EB810148620133CA
:10327000DBB220799842E9D816E002EBC20304EBF6
:103280008303002183F8551283F8542283F85812DF
:10329000C3F85C12C3F8601202EBC20304EB8303B1
:1032A000C3F864120132D2B29042E6D8237C8DF882
:1032B0000030231D0ECB206802F0A2F8054620B195
:1032C000022384F895340125A8E7002363740123C1
:1032D00084F89534206802F05FFC9FE701259DE7A4
:1032E000036890F89424012A1AD010B504460122EC
:1032F00080F89424DA6812F0400F02D0427B012A51
:1033000009D0206802F020F8206802F037FC002085
:1033100084F8940410BD9A6B42F480329A63F0E70B
:103320000220704770B504460D460068066C00EB3D
:10333000411303F530639A68A179012911D0384906
:103340008E4256D03DB905EBC50304EB8303D3F899
:103350006432002B5ED0E9B22046FEF739FC002033
:1033600070BD12F0080F09D02E498E42F7D912F421
:10337000004FF4D04FF400429A60F0E712F0200FB3
:1033800002D020229A60EAE712F0280FE7D12549FF
:103390008E4206D912F4004F03D04FF400429A60D7
:1033A000DDE705EBC50204EB8202D2F874121B695B
:1033B000C3F31203CB1AC2F868327DB905EBC5021C
:1033C00004EB8202D2F864226AB105EBC50204EB79
:1033D0008202D2F860121944C2F86012E9B22046A3
:1033E000FEF7F6FBBBE704F29C42012102F054FC1D
:1033F000F4E712F4004F03D04FF400429A60AEE7B6
:1034000012F0200F01D020229A60E9B22046FEF788
:10341000DFFBA4E704F29C42002102F03DFC9AE7A6
:103420000A31544F0A30544F38B5044603681D6CB6
:1034300003EB4113D3F8081B0E4A954207D903F555
:10344000306311F4004F02D04FF400429A602046DE
:10345000FEF7B6FB074B9D4202D9A379012B01D0A1
:10346000002038BD04F29C420121206802F014FCC7
:10347000F6E700BF0A30544F90F89434012B0CD07B
:1034800010B50446012380F894344174006802F0BA
:1034900065FB002084F8940410BD0220704738B505
:1034A00005468C4611F0800F2BD101F00F0E0EEB6C
:1034B000CE04A40004F514740444211D0EEBCE0EBA
:1034C00000EB8E0E00208EF855020CF00F0C81F8E8
:1034D00000C0C2F30A028A600B714A780AB1A1F8EF
:1034E0001AC0022B1CD095F89434012B1BD0012359
:1034F00085F89434286802F05EF8002085F894047A
:1035000038BD01F00F0000EBC001890010312944E3
:10351000043100EBC00005EB800001244475D4E7C2
:1035200000234B71DFE70220EAE710B504460A46A4
:1035300011F0800F20D101F00F0000EBC0039B00C1
:1035400003F514732344191D00EBC00004EB800045
:10355000002380F8553202F00F020A7094F8943478
:10356000012B18D0012384F89434206802F070F8FD
:10357000002084F8940410BD01F00F0000EBC0039C
:103580009B0010332344191D00EBC00004EB8000A6
:1035900001234375DFE70220EDE710B5144601F083
:1035A0000F0C0CEBCC01890001F5147101440431BE
:1035B0000CEBCC0E00EB8E0ECEF86022CEF864320F
:1035C0000023CEF868328EF855328EF854C28279D4
:1035D000012A04D0006802F021F9002010BDCEF8C5
:1035E0007042F7E701F00F0101EBC10100EB810030
:1035F000D0F86802704710B5144601F00F0C0CEBC0
:10360000CC0189001031014404310CEBCC0E00EBED
:103610008E0ECEF82020CEF824300023CEF82830AD
:1036200001238EF815308EF814C082799A4204D0A6
:10363000006802F0F3F8002010BDCEF83040F7E744
:1036400038B501F00F050279AA4238D304460B467B
:1036500011F0800F1FD101EBC101890001F5147138
:103660000144043103EBC30300EB8303002283F81E
:10367000552201238B700D7094F89434012B20D0C7
:10368000012384F89434206802F00DFA85B10020FB
:1036900084F8940438BD05EBC5018900103101445C
:1036A000043105EBC50300EB830301225A75E0E703
:1036B00004F29C42A179206802F0EEFAE7E70120CB
:1036C000E8E70220E6E701F00F0302799A4230D3DF
:1036D00010B5044611F0800F1ED103EBC301890021
:1036E00001F514710144043103EBC30200EB8202C3
:1036F000002082F8550200228A700B7094F89434EE
:10370000012B18D0012384F89434206802F0F8F9D2
:10371000002084F8940410BD03EBC301890010312C
:103720000144043103EBC30200EB82020120507517
:10373000E1E7012070470220EDE708B511F0800FA6
:103740000CD101F00F0101EBC101890001F51471E9
:1037500001440431006801F0EBFF08BD01F00F01E6
:1037600001EBC1018900103101440431F2E72DE978
:10377000F04F83B004460568284602F04AFA10B1BB
:1037800003B0BDE8F08F0646206802F013FA002867
:10379000F6D005F50067BB68C3F30D23C4F8D43435
:1037A000206802F007FA10F0020F04D02268536973
:1037B00003F002035361206802F0FCF910F0100FCF
:1037C00015D02268936923F010039361D5F8208007
:1037D00008F00F0908F4F013B3F5802F4CD0B3F5BF
:1037E000402F6FD02268936943F0100393612068E3
:1037F00002F0E0F910F4002F76D1206802F0DAF937
:1038000010F4802F40F0E080206802F0D3F9002807
:10381000C0F26181206802F0CDF910F4006F09D088
:10382000BB6813F0010F40F06E812268536903F406
:1038300000635361206802F0BDF910F4805F40F02E
:103840006681206802F0B6F910F4005F40F0B381A1
:10385000206802F0AFF910F0080F40F0C481206832
:1038600002F0A8F910F0800F00F0D781AB6923F0C7
:103870008003AB610126C0E147F6F07318EA030F3D
:10388000B0D04FEA181A4FEAC903019309EBC90BEC
:1038900004EB8B0BC8F30A12DBF86012284602F027
:1038A000DFF8DBF86032CAF30A0A5344CBF860321F
:1038B000DBF86832019A4A4404EB82025344C2F8AE
:1038C00068328FE7082204F29C41284602F0C8F8CB
:1038D00009EBC90304EB8303D3F86822C8F30A1881
:1038E0004244C3F868227DE7206802F067F9804609
:1038F000B14635E005EB49130122C3F8082B4946D0
:103900002046FFF70FFD3CE005EB49130822C3F802
:10391000082B49462046FFF787FD35E009EBC90330
:1039200004EB830393F85732012B41D005EB491385
:103930000222C3F8082B1AF0200F04D005EB49131C
:103940002022C3F8082B1AF4005F05D005EB4913B9
:103950004FF40052C3F8082B09F101094FEA580847
:10396000B8F1000F3FF449AF18F0010FF4D05FFA3F
:1039700089FB5946206802F031F9824610F0010FA8
:10398000B8D11AF0080FBFD11AF0100F04D005EB10
:1039900049131022C3F8082B1AF0020FCBD06B6921
:1039A00013F0800FBAD07B6843F480637B60B5E787
:1039B00009EBC90304EB8303002283F8572259461D
:1039C0002046FEF757F9B1E7206802F0FFF880467D
:1039D000B14625E059462046FEF706F91AF0080FD1
:1039E00004D005EB49130822C3F808291AF0100F78
:1039F00004D005EB49131022C3F808291AF0400F30
:103A000004D005EB49134022C3F808291AF0020F2D
:103A100040D11AF0800F59D109F101094FEA580835
:103A2000B8F1000F3FF4F0AE18F0010FF4D05FFAD8
:103A300089FB5946206802F0DAF8824610F0010F3F
:103A4000CCD009F00F02012101FA02F27B6B23EACC
:103A500002037B6305EB4913C3F80819A3798B4272
:103A6000B8D109EBC90304EB83031A6AD9690A4484
:103A70001A62B9F1000FADD109EBC90304EB83035E
:103A80005B6A002BA6D104F29C420121206802F05F
:103A900003F99FE74946284601F062FC09EBC90398
:103AA00004EB8303DB7D012B05D005EB49130222D8
:103AB000C3F80829ADE709EBC90304EB830300222F
:103AC000DA7559462046FEF7DBF8EEE74946204610
:103AD000FFF71DFBA0E77B6823F001037B6094F8F0
:103AE000CC34012B08D02046FEF7BEF8226853697B
:103AF00003F0004353618DE6002184F8CC14204686
:103B000000F03FF9F2E72046FEF792F88DE67B6879
:103B100023F001037B601021206801F021FC1AE0F2
:103B200005EB46134FF67F31C3F80819D3F8002987
:103B300022F40012C3F80029C3F8081BD3F8002BA5
:103B400022F40012C3F8002BD3F8002B42F00062DD
:103B5000C3F8002B01362379B342E1D8FB6943F067
:103B60000113FB61E37BDBB1D7F8843043F00B0337
:103B7000C7F884307B6C43F00B037B64D5F80038C6
:103B800023F4FE63C5F8003804F29C42A179206852
:103B900002F082F82268536903F48053536150E6BF
:103BA0007B6943F4005343F02B037B613B6943F093
:103BB0000B033B61E2E7206802F060F8206801F047
:103BC000E9FCE071266800F0DDFB0146E279304651
:103BD00001F048FB2046FEF718F82268536903F409
:103BE0000053536134E62046FEF709F82268536912
:103BF00003F00803536132E601362379B3420CD94E
:103C000006EBC60304EB830393F85732012BF3D181
:103C1000F1B22046FFF791FDEEE7206801F0CAFF00
:103C200010F4801F25D1206801F0C4FF10F4001F9C
:103C300059D0012326E001362379B3421BD905EB85
:103C40004613D3F8002906EBC60304EB83031B7E5F
:103C5000012BF0D1002AEEDA06EBC60304EB830356
:103C60000122DA7566F07F01C9B22046FFF765FDD3
:103C7000E1E70126E0E72268536903F4801353610A
:103C8000D1E7013322799A4228D905EB4312D2F8C1
:103C9000001B03EBC30204EB820292F85822012AB4
:103CA000EFD10029EDDA01F48031D4F8D42402F008
:103CB00001029142E5D103EBC30204EB8202012130
:103CC00082F85712AA6942F08002AA616A6912F06A
:103CD000800FD6D17B6843F400737B602268536900
:103CE00003F400135361206801F064FF10F0804F6B
:103CF00010D1206801F05EFF10F0040F3FF440ADDA
:103D000023685D6815F0040F0DD1226853682B43BA
:103D1000536035E52046FDF7B9FF2268536903F08B
:103D200080435361E5E72046FDF7B6FFEDE710B4A9
:103D30000468606A31B940EA0240A06200205DF880
:103D4000044B70478C46A36A00EB1340002308E045
:103D500003F1400104EB8101496800EB114001339C
:103D6000DBB20CF1FF318B42F2D340EA02400CF19E
:103D70003F0104EB81046060E0E7036859620020C2
:103D800070477047002800F0E08170B582B00446AB
:103D9000036813F0010F3BD09F4B9B6803F00C03AB
:103DA000042B2CD09C4B9B6803F00C03082B21D0D8
:103DB0006368B3F5803F4FD0B3F5A02F52D0964B38
:103DC0001A6822F480321A601A6822F480221A607B
:103DD0006368002B50D0FEF73FFE05468E4B1B68F4
:103DE00013F4003F14D1FEF737FE401B6428F5D9C9
:103DF0000320B1E1884B5B6813F4800FD8D0864B69
:103E00001B6813F4003F03D06368002B00F09F8110
:103E1000236813F0020F54D07F4B9B6813F00C0FF4
:103E20003ED07D4B9B6803F00C03082B33D0E36836
:103E3000002B68D0794B01221A60FEF70DFE054673
:103E4000754B1B6813F0020F54D1FEF705FE401BA3
:103E50000228F5D903207FE16F4A136843F48033C9
:103E60001360B5E76C4B1A6842F480221A601A6836
:103E700042F480321A60ABE7FEF7EEFD0546664B72
:103E80001B6813F4003FC3D0FEF7E6FD401B642817
:103E9000F5D9032060E1604B5B6813F4800FC6D155
:103EA0005D4B1B6813F0020F03D0E368012B40F059
:103EB0005081594A136823F0F803216943EAC1038A
:103EC0001360236813F0080F42D063696BB3534B40
:103ED0000122C3F8802EFEF7BFFD05464E4B5B6FF7
:103EE00013F0020F34D1FEF7B7FD401B0228F5D9BD
:103EF000032031E1484A136823F0F803216943EABB
:103F0000C1031360DDE7454B00221A60FEF7A4FDF4
:103F10000546414B1B6813F0020FD2D0FEF79CFD03
:103F2000401B0228F5D9032016E13C4B0022C3F8C0
:103F3000802EFEF791FD0546374B5B6F13F0020FA5
:103F400006D0FEF789FD401B0228F5D9032003E1C6
:103F5000236813F0040F77D02F4B1B6C13F0805F96
:103F600033D1002301932C4B1A6C42F080521A6417
:103F70001B6C03F080530193019B0125284B1B68A8
:103F800013F4807F23D0A368012B34D0052B38D0C5
:103F9000214B1A6F22F001021A671A6F22F00402F5
:103FA0001A67A368002B3DD0FEF756FD06461A4B54
:103FB0001B6F13F0020F46D1FEF74EFD801B41F23E
:103FC00088339842F3D90320C6E00025D6E7144A87
:103FD000136843F480731360FEF73EFD0646104BF2
:103FE0001B6813F4807FCED1FEF736FD801B0228BC
:103FF000F5D90320B0E0084A136F43F001031367BB
:10400000CFE7054B1A6F42F004021A671A6F42F0AD
:1040100001021A67C5E700BF0038024000004742AE
:1040200000700040FEF718FD0646524B1B6F13F060
:10403000020F08D0FEF710FD801B41F28833984232
:10404000F3D9032088E0EDB9A369002B00F0838049
:10405000484A926802F00C02082A51D0022B17D06D
:10406000454B00221A66FEF7F7FC0446414B1B68DD
:1040700013F0007F42D0FEF7EFFC001B0228F5D9B9
:10408000032069E03B4A136C23F080531364DBE7A1
:10409000394B00221A66FEF7DFFC0546354B1B68DC
:1040A00013F0007F06D0FEF7D7FC401B0228F5D99D
:1040B000032051E0E369226A1343626A43EA8213F0
:1040C000A26A5208013A43EA0243E26A43EA0263FF
:1040D000284A5360284B01221A66FEF7BDFC0446AD
:1040E000244B1B6813F0007F06D1FEF7B5FC001BC4
:1040F0000228F5D903202FE000202DE000202BE03E
:10410000012B2BD01B4B5B6803F48001E2699142C9
:1041100026D103F03F02216A8A4223D1616A47F621
:10412000C0721A40B2EB811F1ED103F44031A26A63
:104130005208013AB1EB024F18D103F07063E26A02
:10414000B3EB026F14D1002006E00120704701207C
:1041500002E0012000E0002002B070BD0120FBE77A
:104160000120F9E70120F7E70120F5E70120F3E757
:104170000120F1E7003802400000474208B5264B15
:104180009B6803F00C03042B41D0082B41D1224B38
:104190005A6802F03F025B6813F4800F12D01E4B86
:1041A0005968C1F388111D480023A1FB0001FCF7E9
:1041B00003FD194B5B68C3F3014301335B00B0FBA4
:1041C000F3F008BD144B5868C0F388104FEA401C48
:1041D000BCEB000C6EEB0E0E4FEA8E1343EA9C63B1
:1041E0004FEA8C11B1EB0C0163EB0E03DB0043EAE9
:1041F0005173C90011EB000C43F100039902002335
:104200004FEA8C2041EA9C51FCF7D6FCD1E70348E9
:10421000D7E70348D5E700BF0038024040787D016A
:104220000024F400002800F09B8070B50D46044681
:104230004F4B1B6803F007038B4208D2CBB24C4AAA
:104240001370136803F007038B4240F08B802368E0
:1042500013F0020F17D013F0040F04D0454A9368EF
:1042600043F4E0539360236813F0080F04D0414AED
:10427000936843F4604393603E4A936823F0F003ED
:10428000A1680B439360236813F0010F32D0636879
:10429000012B21D09A1E012A25D9364A126812F024
:1042A000020F61D033498A6822F0030213438B6006
:1042B000FEF7D2FB06462F4B9B6803F00C036268A7
:1042C000B3EB820F16D0FEF7C7FB801B41F2883399
:1042D0009842F0D9032042E0264A126812F4003FC7
:1042E000E0D101203BE0234A126812F0007FD9D1CF
:1042F000012034E01E4B1B6803F00703AB4207D9D3
:10430000EAB21B4B1A701B6803F00703AB422DD1B6
:10431000236813F0040F06D0164A936823F4E05381
:10432000E1680B439360236813F0080F07D0114A2C
:10433000936823F46043216943EAC1039360FFF764
:104340001DFF0C4B9B68C3F303130B4AD35CD8408F
:104350000A4B18600A4B1868FEF732FB002070BD4C
:10436000012070470120FAE70120F8E70120F6E775
:10437000003C0240003802409097000800000020F6
:10438000FC000020014B1868704700BF00000020AF
:1043900008B5FFF7F7FF044B9B68C3F38223034A7A
:1043A000D35CD84008BD00BF0038024088970008A1
:1043B00008B5FFF7E7FF044B9B68C3F34233034A9A
:1043C000D35CD84008BD00BF003802408897000881
:1043D0002DE9F04782B00546884617461E46FEF78F
:1043E0003BFB0A9B1B1A03EB0609FEF735FB8246D3
:1043F000284B1B68C3F3CB3309FB03F301932B68F2
:104400009C6838EA04040CBF01230023BB423DD062
:10441000B6F1FF3FF3D0FEF71FFBA0EB0A004845C3
:1044200007D2019A02B14A46019B013B0193914692
:10443000E5E72A68536823F0E00353606B68B3F53F
:10444000827F0BD0AB6AB3F5005F14D0012385F8EF
:104450005130002385F85030032018E0AB68B3F5E5
:10446000004F02D0B3F5806FECD12A68136823F0B7
:1044700040031360E6E72A68136823F400531360CF
:104480002A68136843F400531360DFE7002002B08A
:10449000BDE8F0870000002070B584B004460D46EA
:1044A000164600920B4601220221FFF791FFD0B978
:1044B000174B1B68174AA2FB03235B0D4FF47A725C
:1044C00002FB03F303936368B3F5827F11D0039B70
:1044D0003BB1039B013B039323689B6813F0800F60
:1044E000F5D104B070BD636D43F020036365032014
:1044F000F7E700962B46002280212046FFF768FF51
:104500000028EED0636D43F0200363650320E8E7E5
:1045100000000020819F5E1610B582B004460B4655
:104520004168B1F5827F14D06168B1F5827F2AD1EC
:10453000A168B1F5806F19D0009200228021204639
:10454000FFF746FF30B3636D43F02003636503203C
:1045500020E08168B1F5004F02D0B1F5806FE3D162
:104560002068016821F040010160DDE7009200222F
:1045700001212046FFF72CFF60B1636D43F020035B
:104580006365032006E00092002201212046FFF728
:104590001FFF08B902B010BD636D43F020036365CF
:1045A0000320F7E700285AD010B50446436A33B910
:1045B0004368B3F5827F05D00023C36102E0002386
:1045C000036143610023A36294F85130002B40D073
:1045D000022384F851302268136823F040031360EB
:1045E000636803F48273A26802F404421343E2682E
:1045F00002F400621343226902F00202134362696B
:1046000002F001021343A26902F400721343E2694B
:1046100002F038021343226A02F080021343A26AB6
:1046200002F40052216813430B60638B03F0040310
:10463000626A02F01002216813434B602268D3695A
:1046400023F40063D36100206065012384F85130B6
:1046500010BD84F850302046FDF764FEB8E7012015
:10466000704790B110B50446022380F851300268BB
:10467000136823F040031360FDF78CFE0020606593
:1046800084F8510084F8500010BD012070472DE9D6
:10469000F04383B00446894690461D46FEF7DCF998
:1046A00094F85160F6B2012E40F0CC800746B9F183
:1046B000000F00F0C880B8F1000F00F0C48094F83B
:1046C0005030012B00F0C380012384F850300323C5
:1046D00084F8513000236365C4F83090A4F8348026
:1046E000A4F83680A363A387E38763642364A36885
:1046F000B3F5004F1ED023681A6812F0400F03D1A3
:104700001A6842F040021A60E368B3F5006F1CD0EB
:10471000636813B1B8F1010F5FD1226B236812787F
:104720001A73236B01332363E38E9BB2013B9BB26D
:10473000E38652E02268136823F040031360226886
:10474000136843F480431360D5E7636813B1B8F18D
:10475000010F15D1226B23681288DA60236B0233B4
:104760002363E38E9BB2013B9BB2E38608E0FEF736
:1047700073F9C01BA84202D3B5F1FF3F15D1A5B113
:10478000E38E9BB2002B42D023689A6812F0020F8E
:10479000EDD0226B1288DA60236B02332363E38E41
:1047A0009BB2013B9BB2E386EAE7012384F85130D8
:1047B000002384F85030032645E0226B12781A73E8
:1047C000236B01332363B4F836C01FFA8CFC0CF161
:1047D000FF3C1FFA8CFCA4F836C0E38E9BB2B3B149
:1047E00023689A6812F0020FE7D1FEF735F9C01B73
:1047F000A84202D3B5F1FF3F01D1002DEDD1012335
:1048000084F85130002384F8503003261BE03A46E8
:1048100029462046FFF740FE08B120236365A368C0
:1048200033B901932368DA6801929B680193019B75
:10483000012384F85130002384F85030636D13B99C
:10484000002600E00226304603B0BDE8F0830226D1
:10485000F9E72DE9F04383B00446884691461F46A8
:104860000A9DFEF7F9F8064694F85130DBB262680B
:10487000012B0AD0B2F5827F40F00581A268002AA0
:1048800040F00581042B40F00481B8F1000F00F0E6
:104890000281B9F1000F00F00081002F00F0FF80CD
:1048A00094F85030012B00F0FC80012384F8503044
:1048B00094F85130DBB2042B02D0052384F8513038
:1048C00000236365C4F83890E787A787C4F8308071
:1048D000E786A7862364636423681A6812F0400F92
:1048E00003D11A6842F040021A60E368B3F5006F22
:1048F00011D063680BB1012F0BD1226B23681278A2
:104900001A73236B01332363E38E9BB2013B9BB28B
:10491000E386012771E063680BB1012F0BD1226B95
:1049200023681288DA60236B02332363E38E9BB221
:10493000013B9BB2E38601271BE023689A6812F0D3
:10494000010F0ED0E28F92B25AB1DA68A36B1A80CF
:10495000A36B0233A363E38F9BB2013B9BB2E3875C
:104960000127FEF779F8801BA84202D3B5F1FF3F7B
:104970001ED1E38E9BB21BB9E38F9BB2002B62D09A
:1049800023689A6812F0020FD7D0E28E92B2002A02
:10499000D3D0002FD1D0226B1288DA60236B023380
:1049A0002363E38E9BB2013B9BB2E3860027C4E7FF
:1049B000012384F85130002384F85030032063E051
:1049C00023689A6812F0010F0ED0E28F92B25AB1AA
:1049D000DA68A36B1A70A36B0133A363E38F9BB2F6
:1049E000013B9BB2E3870127FEF736F8831BAB42FE
:1049F00002D3B5F1FF3F1ED1EDB1E38E9BB213B9E7
:104A0000E38F9BB2FBB123689A6812F0020FD7D0F4
:104A1000E28E92B2002AD3D0002FD1D0226B12782E
:104A20001A73236B01332363E38E9BB2013B9BB26A
:104A3000E3860027C4E7012384F85130002384F87B
:104A40005030032020E0324629462046FFF724FD5F
:104A500090B9A36833B901932368DA6801929B681F
:104A60000193019B012384F85130002384F85030D6
:104A7000636D4BB1012007E020236365002384F8B8
:104A80005030012000E0022003B0BDE8F083022096
:104A9000FAE70220F8E70120F6E70120F4E7012019
:104AA000F2E70220F0E72DE9F04383B090F851607F
:104AB000F6B2012E40F0B4800446894690461D4669
:104AC0004368B3F5827F01D1836893B3FDF7C4FFD8
:104AD0000746B9F1000F00F0A480B8F1000F00F014
:104AE000A08094F85030012B00F09F80012384F8BF
:104AF0005030042384F8513000236365C4F83890A3
:104B0000A4F83C80A4F83E802363A386E386236454
:104B10006364A368B3F5004F15D023681A6812F0D8
:104B2000400F03D11A6842F040021A60E368F3B103
:104B300043E0042380F85130009513460A46FFF7FE
:104B400088FE06466DE02268136823F04003136078
:104B50002268136823F480431360DEE7FDF77CFFCF
:104B6000C01BA84202D3B5F1FF3F15D1A5B1E38F19
:104B70009BB2002B42D023689A6812F0010FEDD04F
:104B8000A26B1B7B1370A36B0133A363E38F9BB2F8
:104B9000013B9BB2E387EAE7012384F8513000230D
:104BA00084F8503003263CE0FDF756FFC01BA842B6
:104BB00002D3B5F1FF3F19D1C5B1E38F9BB2EBB181
:104BC00023689A6812F0010FEED0DA68A36B1A809E
:104BD000A36B0233A363B4F83EC01FFA8CFC0CF144
:104BE000FF3C1FFA8CFCA4F83EC0E6E7012384F8E2
:104BF0005130002384F85030032612E03A4629460B
:104C00002046FFF789FC08B120236365012384F85F
:104C10005130002384F85030636D13B9002600E052
:104C20000226304603B0BDE8F0830226F9E70268A9
:104C300002F10C0353E8003F23F0C0030C3242E8BA
:104C400000310029F3D1202380F8413070470268F9
:104C500002F10C0353E8003F23F490730C3242E856
:104C600000310029F3D1026802F1140353E8003F38
:104C700023F00103143242E800310029F3D1036B21
:104C8000012B05D0202380F84230002303637047B6
:104C9000026802F10C0353E8003F23F010030C32CA
:104CA00042E800310029F3D1ECE7000010B50446DA
:104CB0000268136923F44053C1680B43136183688E
:104CC00002691A4343691A43C3691A430168CB68EE
:104CD00023F4164323F00C031343CB60026853699B
:104CE00023F4407381690B4353610368314A934253
:104CF00006D002F58062934202D0FFF749FB01E043
:104D0000FFF756FBE369B3F5004F29D000210318E4
:104D100049411B1841F10001C90041EA5371DB0010
:104D2000181863684FEA83024FEA937341F1000158
:104D3000FBF742FF204AA2FB00314909642303FB31
:104D400011031B013233A2FB03235B0903F0F002C2
:104D500002EB011203F00F03216813448B6010BDB6
:104D60000023021843EB0301121841F10001C900AE
:104D700041EA5271D200101841F1000162689218A4
:104D80005B41FBF719FF0C4AA2FB00314909642380
:104D900003FB1103DB003233A2FB03235B095A0040
:104DA00002F4F87202EB011203F0070321681344C6
:104DB0008B60D4E7001001401F85EB512DE9F043D3
:104DC00083B005460E4617469946DDF828802B68C5
:104DD0001C6836EA04040CBF01240024BC4228D11C
:104DE000B8F1FF3FF3D0FDF737FEA0EB09004045D7
:104DF00023D8B8F1000F22D02B68DA6812F0040F24
:104E0000E5D0802EE3D0402EE1D01A6812F0080FD2
:104E1000DDD0002401941A6801925B680193019B24
:104E20002846FFF714FF08236B6485F840400120F3
:104E300000E0002003B0BDE8F0830320FAE7032080
:104E4000F8E760B310B5044690F8413013B324235B
:104E500084F841302268D36823F40053D36020469D
:104E6000FFF724FF2268136923F49043136122683B
:104E7000536923F02A0353612268D36843F4005333
:104E8000D36000206064202384F8413084F84230ED
:104E9000606310BD80F84030FDF792FCD7E7012039
:104EA0007047B0B110B50446242380F84130026841
:104EB000D36823F40053D360FDF720FD0020606425
:104EC00084F8410084F842002063606384F8400065
:104ED00010BD012070472DE9F04182B01E4690F8C8
:104EE0004130DBB2202B56D104460D4690460029B6
:104EF00055D00AB901204FE000234364212380F8F4
:104F00004130FDF7A9FD0746A4F82480A4F82680C7
:104F1000A368B3F5805F02D04FF0000814E0236966
:104F20002BB34FF000080FE0202384F8413003201A
:104F300032E038F8023B2268C3F308035360E28C86
:104F400092B2013A92B2E284E38C9BB293B10096A2
:104F50003B46002280212046FFF730FF0028E3D1A6
:104F6000002DE6D015F8012B23685A60E7E7A84624
:104F70000025E9E700963B46002240212046FFF746
:104F80001DFF18B9202384F8413005E0202384F860
:104F90004130032000E0022002B0BDE8F081012092
:104FA000FAE770477047704710B5846B23685A69F9
:104FB00094F84130DBB2212B10D023685A6902F0FB
:104FC000400294F84230DBB2222B11D0636C43F0E4
:104FD000100363642046FFF7E6FF10BD02F0800275
:104FE000002AEAD00023E3842046FFF720FEE4E70E
:104FF000002AEBD00023E3852046FFF728FEE5E7F3
:10500000704708B5806B01234363036B012B02D00B
:10501000FFF7C8FF08BD818D4908FFF7F1FFF9E7E9
:1050200008B50346806B1B681B6813F4807F2BD187
:105030000023C385026802F10C0353E8003F23F408
:1050400080730C3242E800310029F3D1026802F18A
:10505000140353E8003F23F00103143242E8003107
:105060000029F3D1026802F1140353E8003F23F052
:105070004003143242E800310029F3D1202380F8A4
:105080004230036B012B07D000234363036B012BDA
:105090000FD0FFF786FF08BD026802F10C0353E84A
:1050A000003F23F010030C3242E800310029F3D115
:1050B000EAE7818DFFF7A4FFEDE7000030B583B08C
:1050C000044613468162828500254564222280F8C9
:1050D0004220C26B1F48D063E26B1F481064E26B32
:1050E0001E48D064E26B156520680A46011DE06B1E
:1050F000FDF75CFE019523681A6801925B680193D5
:10510000019B23695BB1226802F10C0353E8003F65
:1051100043F480730C3242E800310029F3D1226855
:1051200002F1140353E8003F43F00103143242E854
:1051300000310029F3D1226802F1140353E8003F43
:1051400043F04003143242E800310029F3D100203B
:1051500003B030BD2150000803500008A94F0008DB
:1051600008B590F84230DBB2202B08D149B10AB91A
:10517000012008BD00230363FFF7A0FFF9E7022029
:10518000F7E70120F5E782B000230193019B01338B
:105190000193019BB3F1706F15D80369002BF5DA09
:1051A00000230193036943F001030361019B013371
:1051B0000193019BB3F1706F08D8036913F0010FDD
:1051C000F4D1002000E0032002B070470320FBE789
:1051D00084B010B5044603A880E80E009DF8113095
:1051E000012B21D1A36B23F48033A363E36823F461
:1051F000840323F04003E360E36823F44013E36097
:105200009DF81830012B0AD02046FFF7BCFF9DF80F
:105210000E30012B1CD0BDE8104004B07047E3688D
:1052200043F48013E360EFE7E36843F04003E36097
:105230002046FFF7A8FF9DF8153023B9A36B43F470
:105240008033A363E3E7A36B23F48033A363DEE738
:10525000A36843F00603A360A36843F02003A360A0
:10526000D9E70000022A0AD00922C36823F4705348
:10527000C360C36843EA8223C36000207047234BA6
:105280000B44234A93422FD9224B0B44224A934288
:105290002CD9A1F57403A3F51053204A934227D9C2
:1052A000A1F18373A3F5E7431D4A934222D31D4B1B
:1052B0000B441D4A93421FD91C4B0B441C4A93427A
:1052C0001CD31C4B0B441C4A934219D3A1F1B77356
:1052D000A3F55853194A934214D3194B0B44194A56
:1052E000934211D20722C0E70F22BEE70E22BCE78D
:1052F0000D22BAE70C22B8E70B22B6E70A22B4E780
:105300000922B2E70822B0E70622AEE7405327FFA2
:10531000FF340C00401E1BFF3F420F007F4F120066
:1053200020D6130060B6E5FE5FE3160000D3CEFE84
:1053300040771B00C05BB3FEC09121002075380090
:10534000E05459FEE09C4100836843F00103836010
:1053500000207047836823F00103836000207047BA
:1053600082B000230193019B01330193019BB3F1B0
:10537000706F15D80369002BF5DA002301938901BA
:1053800041F020010161019B01330193019BB3F1C5
:10539000706F08D8036913F0200FF4D1002000E0EB
:1053A000032002B070470320FBE782B00023019383
:1053B000019B01330193019BB3F1706F13D8036913
:1053C000002BF5DA0023019310230361019B0133C5
:1053D0000193019BB3F1706F08D8036913F0100FAC
:1053E000F4D1002000E0032002B070470320FBE767
:1053F000D0F800381943C0F80018002070470000AA
:1054000084B0F8B5044607A880E80E00002306E043
:1054100003F1400204EB82020021516001330E2BA4
:10542000F6D99DF8266006BBD4F8043843F0020391
:10543000C4F80438A36B43F40013A363A36B23F4F1
:105440000023A363A36B23F48023A3630023C4F886
:10545000003E9DF82130012B15D19DF81F306BB90E
:1054600000212046FFF7C4FF11E0A36B23F40013D3
:10547000A363A36B43F40023A363E7E70121204662
:10548000FFF7B6FF03E003212046FFF7B1FF10212D
:105490002046FFF765FF054600B101252046FFF7CE
:1054A00084FF00B1012504F5006C0023CCF8103016
:1054B000CCF81430CCF81C300AE0CBB94FF00060C7
:1054C000C2F8000900220A614FF67F328A60013378
:1054D0009DF81C10994210D904EB431202F510619B
:1054E000D2F800090028E8DB0020C2F80009E9E74B
:1054F0004FF09040C2F80009E4E700230AE0BBB196
:105500004FF09047C2F8007B002202614FF67F32D5
:1055100082600133994210D904EB431202F53060E6
:10552000D2F8007B002FEADB0027C2F8007BEBE714
:105530004FF00067C2F8007BE6E7DCF8103023F498
:105540008073CCF810300023A3616FF08043636157
:105550009DF81E301BB9A36943F01003A361A26933
:105560000B4B1343A3619DF822301BB1A36943F099
:105570000803A361012E04D02846BDE8F84004B01A
:105580007047A36943F0804343F00403A361F3E74A
:1055900000383C80D0F8083803F00603022B04D012
:1055A000062B04D02BB90020704702207047022040
:1055B00070470F20704710B591F800C04B78012B51
:1055C00023D000F5006ED0F81C380CF00F04012237
:1055D000A24043EA0243C0F81C3800EB4C10D0F85C
:1055E000003B13F4004F0ED1D0F8003B8A68C2F3A1
:1055F0000A02097942EA8142134343F0805343F49B
:105600000043C0F8003B002010BDD0F81C280CF06F
:105610000F0E03FA0EF39BB21343C0F81C3800EBD5
:105620004C10D0F8003913F4004FECD1D0F8003909
:105630008A68C2F30A02097942EA814242EA8C523C
:10564000134343F0805343F40043C0F80039DAE7D2
:1056500030B40B784A78012A26D000EB4313D3F8F4
:10566000002B002A52DBD0F83C480A7802F00F02E7
:105670004FF0010C0CFA02F224EA0242C0F83C2876
:10568000D0F81C28097801F00F010CFA01FC22EA7D
:105690000C42C0F81C28D3F8001B234A0A40C3F868
:1056A000002B002030BC704700EB4313D3F80029D7
:1056B000002A1EDBD0F83C580A7802F00F020124C1
:1056C00004FA02F292B225EA0202C0F83C28D0F8AD
:1056D0001C28097801F00F018C40A4B222EA0402D0
:1056E000C0F81C28D3F80019104A0A40C3F8002952
:1056F000D7E7D3F8002942F00062C3F80029D3F8B5
:10570000002942F08042C3F80029D3E7D3F8002BE8
:1057100042F00062C3F8002BD3F8002B42F0804225
:10572000C3F8002B9FE700BF0078F3EF007833EC5D
:1057300010B483B0024600230193487801280BD0AF
:105740000B7802EB4313D3F8000B00282DDB00206D
:1057500003B05DF8044B70470B7802EB4313D3F8AA
:105760000049002C01DB0020F2E7D3F8004944F0A7
:105770000064C3F800490B7802EB4313D3F80049E7
:1057800044F08044C3F80049019B01330193019C1C
:1057900042F210739C42DBD80B7802EB4313D3F830
:1057A0000039002BF0DB0020D2E7D3F8000B40F0EB
:1057B0000060C3F8000B0B7802EB4313D3F8000B27
:1057C00040F08040C3F8000B019B01330193019826
:1057D00042F21073984208D80B7802EB4313D3F8C7
:1057E000003B002BF0DB0020B2E70120B0E710B552
:1057F0009DF8084084B903334FEA930E4FF0000C34
:1058000008E000EB023303F5805351F8044B1C60B1
:105810000CF1010CF445F4D3002010BDF0B583B0B9
:105820000C784B78012B2DD000EB441C0CF5306329
:105830001D696FF312051D611D696FF3DC451D6164
:10584000002C40F0CE800C690CB18C680C618C6827
:105850000C621D69C4F312042C431C611C6944F4DE
:1058600000241C61012A00F0DF800B79012B00F07D
:10587000E180DCF8003B43F00443CCF8003B00201F
:1058800003B0F0BD0B6973BB00EB4413D3F81059A0
:105890006FF3DC45C3F81059D3F8105945F40025CF
:1058A000C3F81059D3F810596FF31205C3F8105903
:1058B000012A54D000EB4414D4F8003943F00443D7
:1058C000C4F800390B79012B72D00B69002BD6D0AC
:1058D000D0F83438097801F00F0101228A401343CF
:1058E000C0F83438CBE700EB441303F510631D69AF
:1058F0006FF312051D611D696FF3DC451D6184B9ED
:105900000E698D68AE4200D90D611D6945F4002510
:105910001D611D690E69C6F3120C45EA0C051D6177
:10592000C6E70D698E683544013DB5FBF6F51E6985
:105930001FFA85FC494F07EAC54535431D610D79BE
:10594000012DE6D11D6925F0C0451D611D694FEA95
:105950004C7C0CF0C04C45EA0C051D61D9E7CB69C5
:105960001BB100EB4412C2F814390B79012B08D09B
:1059700000EB4414D4F8003943F00443C4F8003970
:105980007DE7D0F8083813F4807F08D100EB44128B
:10599000D2F8003943F00053C2F80039E8E700EBD1
:1059A0004412D2F8003943F08053C2F80039DFE7DF
:1059B000D0F8083813F4807F0CD1D4F8003943F0C4
:1059C0000053C4F8003900920B8A0A78C968FFF7BF
:1059D0000EFF54E7D4F8003943F08053C4F800397F
:1059E000F1E70C6954B91C698D68C5F312052C43A5
:1059F0001C611C6944F400241C6133E78D682C444D
:105A0000013CB4FBF5F4A4B204FB05F50D621D697D
:105A1000124E06EAC4442C431C611C690D6AC5F38E
:105A200012052C431C611DE7CA68002A3FF41DAF14
:105A30005A611AE7D0F8083813F4807F06D1DCF8F1
:105A4000003B43F00053CCF8003B12E7DCF8003B8E
:105A500043F08053CCF8003B0BE700BF0000F81F79
:105A600010B5844608464FEA920E02F00302002366
:105A700005E00CF58051096840F8041B01337345BB
:105A8000F7D37AB10CF5805CDCF800400021CBB292
:105A9000DB0024FA03F300F8013B0131013A92B232
:105AA000002AF4D110BD0B784A78012A14D000EBFB
:105AB0004310D0F8002B002A06DB2BB1D0F8003BB6
:105AC00023F08043C0F8003BD0F8003B43F40013C0
:105AD000C0F8003B0020704700EB4310D0F80029CD
