:020000040800F2
:1000000000800020050E0008090D00080B0D0008F7
:100010000D0D00080F0D0008110D00080000000074
:10002000000000000000000000000000130D0008A8
:10003000150D000800000000170D0008190D00083C
:10004000550E0008550E0008550E0008550E000804
:10005000550E0008550E0008550E0008550E0008F4
:10006000550E0008550E0008550E0008550E0008E4
:10007000550E0008550E0008550E0008550E0008D4
:10008000550E000800000000550E0008550E00082F
:10009000550E0008550E0008550E0008550E0008B4
:1000A000550E0008550E0008550E0008550E0008A4
:1000B000550E0008550E0008550E0008550E000894
:1000C000550E0008550E0008550E0008550E000884
:1000D000550E0008550E0008550E0008550E000874
:1000E000550E0008550E0008550E0008550E000864
:1000F000550E0008550E0008550E000800000000BF
:1001000000000000550E000800000000550E000819
:10011000550E000800000000550E0008550E00089E
:10012000550E0008550E0008550E0008550E000823
:10013000550E00080000000000000000550E0008E9
:10014000550E0008550E00080000000000000000D9
:10015000000000000000000000000000000000009F
:10016000000000000000000000000000550E000824
:10017000550E000800000000000000000000000014
:1001800000000000550E0008000000000000000004
:10019000000000000000000000000000000000005F
:1001A0000000000000000000550E0008550E000879
:1001B000550E0008550E0008550E000800000000FE
:1001C00000000000550E00080000000000000000C4
:0801D000550E0008550E000851
:1001E00010B5054C237833B9044B13B10448AFF371
:1001F00000800123237010BDD40100200000000006
:100200003044000808B5034B1BB103490348AFF362
:10021000008008BD00000000D80100203044000824
:1002200001F0FF01102A2BDB10F0070F08D010F8A7
:10023000013B013A8B422DD010F0070F42B3F6D1AB
:10024000F0B441EA012141EA014122F007047FF0C4
:1002500000070023F0E80256083C85EA010586EA1B
:10026000010685FA47F5A3FA87F586FA47F6A5FA57
:1002700087F68EB9EED1F0BC01F0FF0102F0070263
:1002800032B110F8013B013A83EA010313B1F8D10E
:100290000020704701387047002D06BF35460338EF
:1002A000073815F0010F07D1013015F4807F02BF28
:1002B000013015F4C03F0130F0BC0138704700BF79
:1002C000034613F8012B002AFBD1181A0138704796
:1002D00081F0004102E000BF83F0004330B54FEAF7
:1002E00041044FEA430594EA050F08BF90EA020F64
:1002F0001FBF54EA000C55EA020C7FEA645C7FEAF7
:10030000655C00F0E2804FEA5454D4EB5555B8BF19
:100310006D420CDD2C4480EA020281EA030382EA8A
:10032000000083EA010180EA020281EA0303362D1C
:1003300088BF30BD11F0004F4FEA01314FF4801CEF
:100340004CEA113102D0404261EB410113F0004F01
:100350004FEA03334CEA133302D0524263EB4303B8
:1003600094EA050F00F0A780A4F10104D5F1200E56
:100370000DDB02FA0EFC22FA05F2801841F10001B1
:1003800003FA0EF2801843FA05F359410EE0A5F185
:1003900020050EF1200E012A03FA0EFC28BF4CF0B6
:1003A000020C43FA05F3C01851EBE37101F000456C
:1003B00007D54FF0000EDCF1000C7EEB00006EEB79
:1003C0000101B1F5801F1BD3B1F5001F0CD3490803
:1003D0005FEA30004FEA3C0C04F101044FEA44525A
:1003E00012F5800F80F09A80BCF1004F08BF5FEAE1
:1003F000500C50F1000041EB045141EA050130BDC1
:100400005FEA4C0C404141EB0101013C28BFB1F5D2
:10041000801FE9D291F0000F04BF01460020B1FA1D
:1004200081F308BF2033A3F10B03B3F120020CDAF0
:100430000C3208DD02F1140CC2F10C0201FA0CF0CE
:1004400021FA02F10CE002F11402D8BFC2F1200C33
:1004500001FA02F120FA0CFCDCBF41EA0C019040E9
:10046000E41AA2BF01EB0451294330BD6FEA040432
:100470001F3C1CDA0C340EDC04F11404C4F120021D
:1004800020FA04F001FA02F340EA030021FA04F32F
:1004900045EA030130BDC4F10C04C4F1200220FA86
:1004A00002F001FA04F340EA0300294630BD21FAC4
:1004B00004F0294630BD94F0000F83F4801306BF8A
:1004C00081F480110134013D4EE77FEA645C18BF7E
:1004D0007FEA655C29D094EA050F08BF90EA020F15
:1004E00005D054EA000C04BF1946104630BD91EA0D
:1004F000030F1EBF0021002030BD5FEA545C05D110
:100500004000494128BF41F0004130BD14F580044E
:100510003CBF01F5801130BD01F0004545F0FE41C2
:1005200041F470014FF0000030BD7FEA645C1ABFF7
:10053000194610467FEA655C1CBF0B46024650EA2E
:10054000013406BF52EA033591EA030F41F400215A
:1005500030BD00BF90F0000F04BF0021704730B5E0
:100560004FF4806404F132044FF000054FF00001B5
:1005700050E700BF90F0000F04BF0021704730B576
:100580004FF4806404F1320410F0004548BF40424B
:100590004FF000013EE700BF42004FEAE2014FEAA0
:1005A00031014FEA02701FBF12F07F4393F07F4F7B
:1005B00081F06051704732F07F4208BF704793F07E
:1005C0007F4F04BF41F40021704730B54FF4607491
:1005D00001F0004521F000411CE700BF50EA010294
:1005E00008BF704730B54FF000050AE050EA01023D
:1005F00008BF704730B511F0004502D5404261EBAD
:1006000041014FF4806404F132045FEA915C3FF4ED
:10061000D8AE4FF003025FEADC0C18BF03325FEA8A
:10062000DC0C18BF033202EBDC02C2F1200300FA3B
:1006300003FC20FA02F001FA03FE40EA0E0021FA60
:1006400002F11444BDE600BF70B54FF0FF0C4CF44E
:10065000E06C1CEA11541DBF1CEA135594EA0C0F00
:1006600095EA0C0F00F0DEF82C4481EA030621EA3B
:100670004C5123EA4C5350EA013518BF52EA033576
:1006800041F4801143F4801338D0A0FB02CE4FF028
:100690000005E1FB02E506F00042E0FB03E54FF058
:1006A0000006E1FB03569CF0000F18BF4EF0010E50
:1006B000A4F1FF04B6F5007F64F5407404D25FEA4C
:1006C0004E0E6D4146EB060642EAC62141EA5551FF
:1006D0004FEAC52040EA5E504FEACE2EB4F1FD0C41
:1006E00088BFBCF5E06F1ED8BEF1004F08BF5FEABF
:1006F000500E50F1000041EB045170BD06F0004671
:1007000046EA010140EA020081EA0301B4EB5C041D
:10071000C2BFD4EB0C0541EA045170BD41F4801115
:100720004FF0000E013C00F3AB8014F1360FDEBF3A
:10073000002001F0004170BDC4F10004203C35DA16
:100740000C341BDC04F11404C4F1200500FA05F399
:1007500020FA04F001FA05F240EA020001F000423A
:1007600021F0004110EBD37021FA04F642EB0601B0
:100770005EEA430E08BF20EAD37070BDC4F10C04DA
:10078000C4F1200500FA04F320FA05F001FA04F29E
:1007900040EA020001F0004110EBD37041F100018A
:1007A0005EEA430E08BF20EAD37070BDC4F1200595
:1007B00000FA05F24EEA020E20FA04F301FA05F2FD
:1007C00043EA020321FA04F001F0004121FA04F2A5
:1007D00020EA020000EBD3705EEA430E08BF20EA75
:1007E000D37070BD94F0000F0FD101F000464000AF
:1007F00041EB010111F4801F08BF013CF7D041EA31
:10080000060195F0000F18BF704703F00046520034
:1008100043EB030313F4801F08BF013DF7D043EA05
:100820000603704794EA0C0F0CEA135518BF95EABB
:100830000C0F0CD050EA410618BF52EA4306D1D142
:1008400081EA030101F000414FF0000070BD50EA61
:10085000410606BF1046194652EA430619D094EAEB
:100860000C0F02D150EA013613D195EA0C0F05D1D5
:1008700052EA03361CBF104619460AD181EA030129
:1008800001F0004141F0FE4141F470014FF00000E1
:1008900070BD41F0FE4141F4780170BD70B54FF07C
:1008A000FF0C4CF4E06C1CEA11541DBF1CEA1355FC
:1008B00094EA0C0F95EA0C0F00F0A7F8A4EB0504DE
:1008C00081EA030E52EA03354FEA013100F08880D5
:1008D0004FEA03334FF0805545EA131343EA12639E
:1008E0004FEA022245EA111545EA10654FEA002653
:1008F0000EF000419D4208BF964244F1FD0404F50C
:10090000407402D25B084FEA3202B61A65EB030567
:100910005B084FEA32024FF480104FF4002CB6EB24
:10092000020E75EB030E22BFB61A754640EA0C00A4
:100930005B084FEA3202B6EB020E75EB030E22BFE4
:10094000B61A754640EA5C005B084FEA3202B6EB25
:10095000020E75EB030E22BFB61A754640EA9C00E4
:100960005B084FEA3202B6EB020E75EB030E22BFB4
:10097000B61A754640EADC0055EA060E18D04FEA72
:10098000051545EA16754FEA06164FEAC30343EA12
:1009900052734FEAC2025FEA1C1CC0D111F4801FDF
:1009A0000BD141EA00014FF000004FF0004CB6E7D8
:1009B00011F4801F04BF01430020B4F1FD0C88BF77
:1009C000BCF5E06F3FF6AFAEB5EB030C04BFB6EB82
:1009D000020C5FEA500C50F1000041EB045170BD75
:1009E0000EF0004E4EEA113114EB5C04C2BFD4EBA2
:1009F0000C0541EA045170BD41F480114FF0000E26
:100A0000013C90E645EA060E8DE60CEA135594EAA1
:100A10000C0F08BF95EA0C0F3FF43BAF94EA0C0FA4
:100A20000AD150EA01347FF434AF95EA0C0F7FF419
:100A300025AF104619462CE795EA0C0F06D152EA6D
:100A400003353FF4FDAE1046194622E750EA410651
:100A500018BF52EA43067FF4C5AE50EA41047FF462
:100A60000DAF52EA43057FF4EBAE12E74FF0FF3CC7
:100A700006E000BF4FF0010C02E000BF4FF0010C98
:100A80004DF804CD4FEA410C7FEA6C5C4FEA430C11
:100A900018BF7FEA6C5C1BD001B050EA410C0CBF60
:100AA00052EA430C91EA030F02BF90EA020F0020C2
:100AB000704710F1000F91EA030F58BF994208BF29
:100AC00090422CBFD8176FEAE37040F001007047E6
:100AD0004FEA410C7FEA6C5C02D150EA013C07D13D
:100AE0004FEA430C7FEA6C5CD6D152EA033CD3D088
:100AF0005DF8040B704700BF8446104662468C4682
:100B00001946634600E000BF01B5FFF7B7FF0028B4
:100B100048BF10F1000F01BD4DF808EDFFF7F4FFDD
:100B20000CBF012000205DF808FB00BF4DF808ED68
:100B3000FFF7EAFF34BF012000205DF808FB00BF8B
:100B40004DF808EDFFF7E0FF94BF012000205DF8AD
:100B500008FB00BF4DF808EDFFF7CEFF94BF012062
:100B600000205DF808FB00BF4DF808EDFFF7C4FF5B
:100B700034BF012000205DF808FB00BF4FEA410CA4
:100B80007FEA6C5C02D150EA013C0AD14FEA430C87
:100B90007FEA6C5C02D152EA033C02D14FF00000C4
:100BA00070474FF0010070474FEA410212F5001202
:100BB00015D211D56FF47873B3EB625212D94FEAA4
:100BC000C12343F0004343EA505311F0004F23FA8E
:100BD00002F018BF404270474FF00000704750EAE3
:100BE000013005D111F0004008BF6FF000407047A0
:100BF0004FF00000704700BF704710B582B000246E
:100C000007E000F01EF802AB03EB840343F8080C86
:100C10000134012CF5D900F014F80446009BC31AE6
:100C2000B3F5FA7F08D2019BE31A632BF3D9019441
:100C3000012000F04DF9EEE70090002000F048F9A7
:100C4000F1E708B500F0A2F908BD72B6FEE700B5FD
:100C500095B03822002106A801F0C9FC00200190BF
:100C6000029003900490059000F0F8FA2123069377
:100C70004FF48033079301220C9202230D9303213A
:100C80000E910F9228221092119304221292139324
:100C900006A800F09DFB80B90F2301930323029364
:100CA000002303930493059304210DEB010000F04E
:100CB00045FE20B915B05DF804FBFFF7C6FFFFF74E
:100CC000C4FF08B500F046F9FFF7C1FF012008BDD9
:100CD00000B583B00B4B1A6E42F001021A661A6E11
:100CE00002F001020092009A9A6D42F080529A65D9
:100CF0009B6D03F080530193019B00F035FB03B023
:100D00005DF804FB00100240FEE7FEE7FEE7FEE7A9
:100D1000FEE770477047704708B500F02BF908BD33
:100D20000120704708B501F0B5FC162303604FF0B1
:100D3000FF3008BD08B54FF0FF31FFF7F3FFFEE7C6
:100D400070B50C461646002506E0AFF3008021463C
:100D500001F8010B01350C46B542F6DB304670BD9B
:100D600070B50C461646002504E014F8010BAFF3ED
:100D700000800135B542F8DB304670BD4FF0FF30E2
:100D800070474FF400534B600020704701207047BC
:100D90000020704710B503460C4A0D490D48006805
:100DA00040B10C4800680344521A934206D8094ADD
:100DB000136010BD0748084C0460F2E701F06AFCBC
:100DC0000C2303604FF0FF30F3E700BF00800020EA
:100DD00000040000F001002048030020034AD2F87C
:100DE000883043F47003C2F88830704700ED00E0AB
:100DF00008B500F07DF8FFF7FFFEFFF7FEFE0020CC
:100E000008BD00000D488546FFF7E8FF0C480D4976
:100E10000D4A002302E0D458C4500433C4188C4255
:100E2000F9D30A4A0A4C002301E013600432A242BB
:100E3000FBD301F035FCFFF7DBFFFEE7008000206D
:100E400000000020D4010020F0470008D401002059
:100E500044030020FEE70000022800D9704708B5CF
:100E6000044B03EBC0010022898853F8300000F0E6
:100E7000E7F908BD5844000810B586B00024019475
:100E800002940394049405940F4BDA6C42F004022C
:100E9000DA64DB6C03F004030093009B01230293EC
:100EA0000DE00A4B03EBC4029288019201A953F8AA
:100EB000340000F0DBF8E0B2FFF7CEFF0134022C83
:100EC000EFDD012006B010BD0010024058440008BC
:100ED000022800D9704708B5044B03EBC002918883
:100EE00053F8300000F0B1F908BD00BF58440008C5
:100EF00010B5FFF7E6FE0446FFF7BEFF2040C0B284
:100F000010BD0000104B1B680BB90120704710B5D5
:100F100004464FF47A70B0FBF3F30C4A1068B0FB50
:100F2000F3F000F08FF868B90F2C01D901200AE026
:100F3000002221464FF0FF3000F074F8044B1C6093
:100F4000002000E0012010BD04000020000000206F
:100F50000800002010B5032000F052F80F20FFF722
:100F6000D1FF10B10124204610BD0446FFF7B0FEAA
:100F7000F9E70000034A1368034909680B4413604A
:100F8000704700BFF401002004000020014B1868E6
:100F9000704700BFF4010020002808DB0901C9B236
:100FA00000F1604000F5614080F80013704700F0E8
:100FB0000F000901C9B2014B1954704714ED00E04C
:100FC00000B500F00700C0F1070CBCF1040F28BF0A
:100FD0004FF0040C031D062B0FD9C31E4FF0FF3E2C
:100FE0000EFA0CF021EA000199400EFA03FE22EA03
:100FF0000E0241EA02005DF804FB0023EEE7000068
:10100000074AD36823F4E0631B041B0C000200F4BE
:10101000E060034343F0BF6343F40033D3607047A1
:1010200000ED00E010B50446054BD868C0F302207F
:10103000FFF7C6FF01462046FFF7AEFF10BD00BF19
:1010400000ED00E00138B0F1807F0BD24FF0E023DB
:101050005861054AF02182F8231000209861072288
:101060001A6170470120704700ED00E0F0B583B0D1
:10107000002362E085685E000324B44025EA04058D
:10108000CC68B4402C438460456825EA0C054C6864
:10109000C4F300149C402C4344605FE0DD08083535
:1010A00050F8254003F0070C4FEA8C0C4FF00F0E60
:1010B0000EFA0CFE24EA0E0E0C6904FA0CF444EA53
:1010C0000E0440F8254060E0052400E0002404FA06
:1010D0000EF42C430CF1020C554D45F82C40554CA8
:1010E000A568D44325EA02064F6817F4801F01D093
:1010F00042EA05064F4DAE60ED6804EA05064F680A
:1011000017F4001F01D042EA05064A4DEE606D68F3
:1011100004EA05064F6817F4003F01D042EA0506CD
:10112000444D6E602D682C404E6816F4803F01D00F
:1011300042EA05043F4A146001330A6832FA03F4B4
:1011400074D04FF0010C0CFA03FC1CEA0202F3D03D
:101150004C6804F00304013C012C8BD94C6804F06A
:101160000304032C0CD0C4685D004FF0030C0CFA90
:1011700005FC24EA0C0C8C68AC4044EA0C04C46006
:101180004C6804F00304022C88D004684FEA430E34
:101190004FF0030C0CFA0EFC24EA0C0C4C6804F023
:1011A000030404FA0EF444EA0C0404604C6814F4DA
:1011B000403FC1D0204C256E45F001052566246EC8
:1011C00004F001040194019C4FEA930C0CF1020518
:1011D000174C54F8255003F0030E4FEA8E0E0F24DF
:1011E00004FA0EF425EA0405B0F1904F3FF46EAF17
:1011F000124CA04212D004F58064A04210D004F535
:101200008064A0420ED004F58064A0420CD004F5A6
:101210008064A0423FF458AF062458E7012456E703
:10122000022454E7032452E7042450E703B0F0BD3E
:10123000000001400004014000100240000400488A
:101240000AB18161704781627047436901EA030214
:1012500021EA030141EA024181617047002836D149
:101260003E4B1B6803F4C063B3F5806F08D03B4A64
:10127000D2F8803023F48073C2F8803000207047A9
:10128000364AD2F8803023F48073C2F88030136875
:1012900023F4C06343F400731360314B1B683222A4
:1012A00002FB03F32F4AA2FB03239B0C013300E054
:1012B000013B2A4A526912F4806F01D0002BF7D10A
:1012C000264B5B6913F4806F44D100207047B0F562
:1012D000007F08D0214A136823F4C06343F480637D
:1012E0001360002070471D4B1B6803F4C063B3F507
:1012F000806F08D0194AD2F8803043F48073C2F866
:10130000803000207047154AD2F8803043F4807353
:10131000C2F88030136823F4C06343F40073136091
:101320000F4B1B68322202FB03F30E4AA2FB03237E
:101330009B0C013300E0013B084A526912F4806FB4
:1013400001D0002BF7D1054B5B6913F4806F03D1FB
:101350000020704703207047032070470070004052
:101360000000002083DE1B43024A936843F480435D
:101370009360704700700040124BDA6802F003027D
:10138000DB68C3F303130133032A11D00E48B0FB0B
:10139000F3F00C4BDB68C3F3062303FB00F0094BAF
:1013A000DB68C3F3416301335B00B0FBF3F07047CC
:1013B0000648B0FBF3F0034BDB68C3F3062303FBE3
:1013C00000F0ECE7001002400024F40000127A0064
:1013D000002800F04F8270B582B00446036813F015
:1013E000010F37D0A44A936803F00C03D26802F0CF
:1013F00003020C2B23D0082B23D06368B3F5803F66
:101400004ED0B3F5A02F51D09B4B1A6822F48032F6
:101410001A601A6822F480221A606368002B52D086
:10142000FFF7B4FD0546944B1B6813F4003F11D140
:10143000FFF7ACFD401B6428F5D9032023E2032A03
:10144000D9D18D4B1B6813F4003F03D06368002B88
:1014500000F01282236813F0020F5DD0864A936871
:1014600003F00C03D26802F003020C2B3AD0042BD9
:101470003AD0E368002B75D07F4A136843F4807339
:101480001360FFF783FD05467B4B1B6813F4806FE9
:101490005FD1FFF77BFD401B0228F5D90320F2E165
:1014A000754A136843F480331360B6E703F1804351
:1014B000A3F53C331A6842F480221A601A6842F499
:1014C00080321A60A9E7FFF761FD05466A4B1B6889
:1014D00013F4003FBED0FFF759FD401B6428F5D937
:1014E0000320D0E1022AC2D1634B1B6813F4806F42
:1014F00003D0E368002B00F0C1815F4A536823F0FA
:10150000FE43216943EA016353605C4B1868FFF7AF
:10151000F9FC002840F0B481236813F0080F4CD088
:1015200063699BB3544AD2F8943043F00103C2F884
:101530009430FFF72BFD05464F4BD3F8943013F052
:10154000020F3AD1FFF722FD401B0228F4D90320F5
:1015500099E1494A536823F0FE43216943EA016354
:101560005360D9E7444A136823F480731360FFF78C
:101570000DFD0546404B1B6813F4806FCCD0FFF780
:1015800005FD401B0228F5D903207CE13A4AD2F838
:10159000943023F00103C2F89430FFF7F7FC0546BE
:1015A000354BD3F8943013F0020F06D0FFF7EEFC62
:1015B000401B0228F4D9032065E1236813F0040FCF
:1015C00000F081802C4B9B6D13F0805F36D12A4B4D
:1015D0009A6D42F080529A659B6D03F0805301939F
:1015E000019B0125264B1B6813F4807F28D0A3683C
:1015F000012B39D0052B45D01F4BD3F8902022F07A
:101600000102C3F89020D3F8902022F00402C3F81E
:101610009020A368002B43D0FFF7B8FC0646164B7A
:10162000D3F8903013F0020F4CD1FFF7AFFC801BC2
:1016300041F288339842F2D9032024E10025D1E712
:101640000F4A136843F480731360FFF79FFC06464C
:101650000B4B1B6813F4807FC9D1FFF797FC801BED
:101660000228F5D903200EE1034AD2F8903043F066
:101670000103C2F89030CCE70010024008000020BF
:1016800000700040884BD3F8902042F00402C3F869
:101690009020D3F8902042F00102C3F89020B8E7E0
:1016A000FFF774FC0646804BD3F8903013F0020F1E
:1016B00008D0FFF76BFC801B41F288339842F2D9C7
:1016C0000320E0E0E5B9236813F0200F35D0A369CB
:1016D000E3B1754AD2F8983043F00103C2F898306C
:1016E000FFF754FC0546704BD3F8983013F0020F07
:1016F00023D1FFF74BFC401B0228F4D90320C2E0A2
:10170000694A936D23F080539365DCE7664AD2F80B
:10171000983023F00103C2F89830FFF737FC0546F4
:10172000614BD3F8983013F0020F06D0FFF72EFC70
:10173000401B0228F4D90320A5E0E369002B00F048
:10174000A180594A926802F00C020C2A64D0022B44
:1017500013D0554A136823F080731360FFF716FC0B
:101760000446514B1B6813F0007F4ED0FFF70EFC70
:10177000001B0228F5D9032085E04B4A136823F0AB
:1017800080731360FFF702FC0546474B1B6813F09C
:10179000007F06D0FFF7FAFB401B0228F5D9032093
:1017A00071E0414AD36841491940236A606A0138AF
:1017B00043EA0013A06A43EA0023206B4008013883
:1017C00043EA4053606B4008013843EA4063E06AF3
:1017D00043EAC0631943D160136843F08073136018
:1017E000D36843F08073D360FFF7D0FB04462E4BE1
:1017F0001B6813F0007F06D1FFF7C8FB001B02280F
:10180000F5D903203FE000203DE0274AD168284B6E
:101810000B40D360002036E0012B36D0224BDB6832
:1018200003F00301226A914231D103F0F002616AB0
:101830000139B2EB011F2CD103F4FE42A16AB2EBD5
:10184000012F28D103F07842E16AB2EBC16F24D1B5
:1018500003F4C001226B5208013AB1EB425F1ED182
:1018600003F0C063626B5208013AB3EB426F18D1C8
:10187000002008E001207047012004E0012002E080
:10188000012000E0002002B070BD0120FBE7012034
:10189000F9E70120F7E70120F5E70120F3E7012050
:1018A000F1E70120EFE700BF001002400C809F012C
:1018B000FCFFEEFE1E4B9B6803F00C03042B33D0A1
:1018C0001B4B9B6803F00C03082B2FD0184B9B6815
:1018D00003F00C030C2B01D000207047144BDA6886
:1018E00002F00302DB68C3F303130133032A11D0B0
:1018F0001048B0FBF3F00E4BDB68C3F3062303FB89
:1019000000F00B4BDB68C3F3416301335B00B0FBBA
:10191000F3F070470848B0FBF3F0054BDB68C3F306
:10192000062303FB00F0ECE70248704702487047CB
:10193000001002400024F40000127A00002800F099
:10194000E680F8B50C460546744B1B6803F00F03A0
:101950008B420BD2714A136823F00F030B431360C1
:10196000136803F00F038B4240F0D3802E6816F00B
:1019700001065FD06B68032B2FD0022B4DD0684B34
:101980001B6813F4806F00F0C680FFF793FF654B70
:1019900098424DD9624A936823F0F00343F08003E4
:1019A000936080265E4A936823F0030369680B43C3
:1019B0009360FFF7EBFA0746594B9B6803F00C0363
:1019C0006A68B3EB820F35D0FFF7E0FAC01B41F233
:1019D00088339842F0D9032078E0514B1B6813F00C
:1019E000007F01D1012071E0FFF7C6FC4D4B98420A
:1019F0001AD94B4B9B6813F0F00F05D02E6816F0E8
:101A00000206CFD0AB688BB9454A936823F0F00348
:101A100043F0800393608026C4E7414B1B6813F4B6
:101A2000003FB2D1012051E00026BBE70026B9E714
:101A30000026B7E72B6813F0020F48D013F0040F0D
:101A400004D0374A936843F4E06393602B6813F043
:101A5000080F06D0324A936823F47C5343F4E063C2
:101A600093602F4A936823F0F003A9680B439360B7
:101A70002A4B1B6803F00F03A34230D82B6813F0E6
:101A8000040F06D0264A936823F4E063E9680B4309
:101A900093602B6813F0080F07D0214A936823F452
:101AA0006053296943EAC1039360FFF703FF1C4BAE
:101AB0009B68C3F303131C4AD35C03F01F03D84095
:101AC0001A4B18601A4B1868FFF71CFAF8BD802EE5
:101AD000CED1134A936823F0F0039360C8E70F4A0E
:101AE000136823F00F0323431360FFF74FFA0646F2
:101AF0000A4B1B6803F00F03A342BFD0FFF746FA5F
:101B0000801B41F288339842F2D90320DEE701209E
:101B100070470120DAE70120D8E700BF002002402B
:101B20000010024000B4C404484400080000002033
:101B3000080000202DE9FF4757EC106B002F0C46E2
:101B400019463B46BBBF07F100431F4600232D2328
:101B50000B700D9BDDF830A0914623F02008BCBF30
:101B600032461646B8F1460F05D0B8F1450F00D100
:101B70000134022100E0032103AB019302AB009387
:101B800047EC106B5346224600F03AFEB8F1470F7F
:101B9000054619D119F0010F0ED000EB04090022FF
:101BA000002330463946FEF7B7FF08B1CDF80C9058
:101BB0003022039B4B451ED3039B0E9A5B1B28468A
:101BC000136004B0BDE8F087B8F1460F00EB0409DC
:101BD000E5D10378302B0AD1002200233046394664
:101BE000FEF79AFF18B9C4F10104CAF80040DAF808
:101BF00000309944D3E7591C03911A70D9E7F7B51F
:101C00000029BABF49422D232B23092902704370B2
:101C100029DD0DF107031D460A271A46B1FBF7F629
:101C200007FB1614303402F8014C0C46632C03F108
:101C3000FF333146F1DC3031941E03F8011C411CA6
:101C40002346AB420AD30DF109039B1AAC4288BF6D
:101C5000002302330344181A03B0F0BD13F8016BDC
:101C600001F8016FEDE7302330318370C170031D3F
:101C7000F1E700002DE9F04F8DB00C46DDF85880FB
:101C800016461F46054600F0BBFC03680493184641
:101C9000FEF716FB00230A93D8F8003005900733AF
:101CA00023F0070303F1080294F818A0D4F800B059
:101CB000C8F80020D3E9008929F000430793CDF844
:101CC0001880C4E91289DDE906019C4B4FF0FF3210
:101CD000FEF754FF70BBDDE90601984B4FF0FF3271
:101CE000FEF72EFF30BB0022002340464946FEF798
:101CF0001DFF10B12D2384F84330914A914BBAF166
:101D0000470F94BF90469846032323612BF00403AA
:101D100023604FF00009009733460BAA214628465E
:101D200000F0D2F9013040F08D804FF0FF300DB05F
:101D3000BDE8F08F42464B4640464946FEF71EFF3F
:101D400040B14B46002BBCBF2D2384F843307E4A64
:101D50007E4BD4E763680AF0DF0206925A1C3BD13F
:101D6000062363604BF480620023226003930AAB76
:101D7000CDE901A309AB0093616849EC108B0DF12B
:101D800023032846FFF7D6FE069B0999472B80467A
:101D900029D1C81C02DB6368994241DDAAF1020A1D
:101DA0005FFA8AFA0139524604F150000991FFF7AF
:101DB00026FF0A9A1318012A8146236102DC226851
:101DC000D20701D5013323619DF82330002BA2D027
:101DD0002D2384F843309EE7069A472AC2D1002B70
:101DE000C0D10123BDE7BAF1650FDBD9BAF1660FA7
:101DF00018D1002963680BDD216113B92268D0076F
:101E000002D501330B442361A1654FF00009DBE7E4
:101E100013B92268D20701D50233F4E70123F2E7B0
:101E20004FF0670A0A9B994205DB23682161D807B6
:101E3000EAD54B1CE7E70029D4BFC1F10202012219
:101E40001344E0E723685A0507D423694246314624
:101E50002846B84701302BD167E7BAF1650F40F249
:101E6000DD80D4E9120100220023FEF755FE002890
:101E700033D0374A012331462846B84701303FF472
:101E800054AFDDE90938434502DB2368D8070FD595
:101E9000DDE9042331462846B84701303FF445AF19
:101EA0004FF0000908F1FF3804F11A0AC84509DCAF
:101EB00023689B0700F10381E0680B9B9842B8BF41
:101EC000184634E70123524631462846B8470130C8
:101ED0003FF42BAF09F10109E8E7099B002B39DC3E
:101EE0001B4A012331462846B84701303FF41DAF55
:101EF000DDE9093959EA030302D12368D907D7D5A7
:101F0000DDE9042331462846B84701303FF40DAFE0
:101F10004FF0000A04F11A0B099B5B42534501DCA8
:101F20004B4693E701235A4631462846B8470130CD
:101F30003FF4FBAE0AF1010AEEE700BFFFFFEF7FBF
:101F40007044000874440008784400087C44000889
:101F500080440008A36DDDF828A05345A8BF534670
:101F6000002B994636DC4FF0000B29EAE97904F1A1
:101F70001A02A36D0693A3EB09035B4531DC099BB1
:101F80009A453ADC2368DA0737D4099BAAEB0309A0
:101F9000069BAAEB03039945A8BF9946B9F1000F28
:101FA00033DC4FF0000829EAE97904F11A0B099BA8
:101FB000AAEB0303A3EB090343457FF779AF0123A2
:101FC0005A4631462846B84701303FF4AEAE08F1D4
:101FD0000108ECE7424631462846B8470130C2D1F5
:101FE000A3E60123314628460692B84701303FF464
:101FF0009CAE069A0BF1010BBBE7DDE904233146E9
:102000002846B8470130C0D18FE6069A4B46424475
:1020100031462846B8470130C3D186E6DDF828A00E
:10202000BAF1010F01DCDB0736D501234246314608
:102030002846B84701303FF478AEDDE90423314645
:102040002846B84701303FF470AED4E912010022AF
:1020500000230AF1FF3AFEF75FFDC0B9534608F1CD
:10206000010231462846B84701300CD15DE6012314
:102070005A4631462846B84701303FF456AE08F17B
:102080000108D045F3DB4B4604F15002DFE64FF088
:10209000000804F11A0BF4E701234246E1E70123AB
:1020A0004A4631462846B84701303FF43EAE08F173
:1020B0000108E3680B995B1A4345F0DCFCE64FF03E
:1020C000000804F11909F4E72DE9F047164698468F
:1020D0008A680B69DDF820909342B8BF13463360DD
:1020E00091F8432007460C460AB101333360236858
:1020F000990642BF336802333360256815F0060540
:1021000006D104F1190AE36832689B1AAB4226DC57
:1021100094F843302268003B18BF012392062BD469
:1021200004F1430241463846C84701301ED02368B7
:10213000226903F00603042B02BFE5683368ED1A39
:10214000A3680CBF25EAE57500259342C4BF9B1A1E
:10215000ED1800261A34B5421AD1002008E00123F8
:10216000524641463846C847013003D14FF0FF3050
:10217000BDE8F0870135C6E7E1185A1C302081F828
:102180004300224494F8451082F843100233C7E715
:102190000123224641463846C8470130E6D0013681
:1021A000D9E700002DE9FF470F7E0C9E782F91465E
:1021B00080460C469A4601F1430207D8622F0AD89E
:1021C000002F00F0D280582F00F0B98004F14206B1
:1021D00084F842703AE0A7F16303152BF6D801A109
:1021E00051F823F03D22000851220008CD210008BB
:1021F000CD210008CD210008CD2100085122000882
:10220000CD210008CD210008CD210008CD210008F6
:10221000512300087B2200080B230008CD21000871
:10222000CD21000873230008CD2100087B2200087F
:10223000CD210008CD2100081323000833681A1DA2
:102240001B68326004F1420684F8423001239DE0AD
:1022500033682068191D3160060601D51D6803E04A
:102260004506FBD5B3F90050002D03DA2D236D424E
:1022700084F8433059480A2311E02168336808067E
:1022800053F8045B02D4490648BFADB26F2F5348E0
:10229000336014BF0A230823002184F843106668C2
:1022A000A660002EA2BF216821F0040121600DB9B3
:1022B000002E4BD01646B5FBF3F103FB1157C75D5B
:1022C00006F8017D2F46BB420D46F4D9082B0BD1F1
:1022D0002368DF0708D5236961689942DEBF302390
:1022E00006F8013C06F1FF36921B2261CDF800A0F2
:1022F0004B4603AA21464046FFF7E6FE01304AD18D
:102300004FF0FF3004B0BDE8F087236843F02003AE
:1023100023603348782784F84570236831681F06A6
:1023200051F8045B02D45F0648BFADB23160D907F3
:1023300044BF43F0200323601DB11023ACE72748BE
:10234000E9E7236823F020032360F6E71646BDE79C
:10235000336825686169181D30602E061B6801D539
:10236000196002E06806FBD5198000232361164638
:10237000BCE733681A1D32601E686268002130466F
:10238000FDF74EFF08B1801B606063682361002386
:1023900084F84330AAE72369324649464046D0478D
:1023A0000130ADD023689B0713D4E068039B9842AB
:1023B000B8BF1846A6E70123324649464046D047F3
:1023C00001309DD00135E36803995B1AAB42F2DC22
:1023D000EBE7002504F11906F5E700BF8244000889
:1023E00093440008002310B50446C0E90033C0E957
:1023F0000433836081814366C28183611946082268
:102400005C3000F0F4F80D4B63620D4BA3620D4B92
:10241000E3620D4B23630D4B24629C4206D003F113
:102420006802944202D0D0339C4205D104F1580096
:10243000BDE8104000F058B910BD00BF6925000884
:102440008B250008C3250008E7250008F8010020B7
:10245000024A0349034800F069B800BF0C0000209D
:10246000953D00081C00002041680C4B994210B5B6
:10247000044601D001F08EFCA168094B994202D0BC
:10248000204601F087FCE168064B994204D02046C3
:10249000BDE8104001F07EBC10BD00BFF801002077
:1024A00060020020C802002010B50B4B0B4C0C4AF8
:1024B0001A60204600220421FFF794FF04F168000F
:1024C00001220921FFF78EFF04F1D0000222BDE8AE
:1024D00010401221FFF786BF30030020F8010020D2
:1024E00051240008014800F000B900BF3903002062
:1024F000014800F0FBB800BF3903002010B50446C6
:10250000FFF7F0FF236A1BB1BDE81040FFF7F0BFF3
:10251000044B2362044B1B68002BF5D1FFF7C4FF6B
:10252000F2E700BF69240008300300202DE9F843DA
:102530000746884614460026D4E90195B9F10109F9
:1025400005D52468002CF7D13046BDE8F883AB8967
:10255000012B07D9B5F90E30013303D0294638468F
:10256000C04706436835E9E710B50C46B1F90E10CF
:1025700000F06CF80028ABBF636DA3891B1823F42F
:102580008053ACBF6365A38110BD2DE9F0411F46A8
:102590008B89DB0505460C46164605D5B1F90E10AC
:1025A0000223002200F040F8A389B4F90E1023F4AE
:1025B0008053A38132463B462846BDE8F04100F0F7
:1025C00057B810B50C46B1F90E1000F02DF8431CA9
:1025D000A38915BF606523F4805343F48053A3811E
:1025E00018BFA38110BDB1F90E1000F00DB8024460
:1025F0000346934200D1704703F8011BF9E700003E
:10260000004870475801002038B5064D00230446A5
:1026100008462B60FEF7B2FB431C02D12B6803B1C6
:10262000236038BD3403002038B5074D0446084602
:10263000114600222A601A46FEF7AAFB431C02D16B
:102640002B6803B1236038BD3403002038B5074D33
:1026500004460846114600222A601A46FEF770FB1F
:10266000431C02D12B6803B1236038BD3403002022
:1026700038B5074D04460846114600222A601A461E
:10268000FEF76EFB431C02D12B6803B1236038BDFB
:1026900034030020014B1868704700BF1800002069
:1026A00070B50D4D0D4C641BA4100026A64209D137
:1026B0000B4D0C4C01F0BCFE641BA4100026A6427E
:1026C00005D170BD55F8043B98470136EEE755F843
:1026D000043B98470136F2E7E8470008E84700085E
:1026E000E8470008EC4700087047704770472DE93D
:1026F000F74F03690C69A34207467EDB013C01F1F9
:102700001408A30000F11405009305EB8403019362
:1027100058F8243055F8242001339A4208EB8409F4
:10272000B2FBF3F62ED34FF0000AC446AE46D346B2
:102730005CF8043B98B206FB00A0020C1B0C06FBE5
:102740000323DEF8002080B292B2121A5A44DEF857
:1027500000004FEA134A9BB2C3EB224303EB104342
:1027600092B242EA0342E1454EF8042B4FEA234B72
:10277000DED2009BEB582BB9019B043B9D421A46CD
:102780002FD33C61384601F079F9002825DB294632
:10279000002058F8042BD1F800C01FFA82FE1FFA5F
:1027A0008CF3A3EB0E030344120CC2EB234202EBA7
:1027B0001C429BB243EA0243C14541F8043B4FEA45
:1027C0002240E6D255F8242005EB840322B9043BCD
:1027D0009D421A460BD33C610136304603B0BDE83A
:1027E000F08F1268043B002ACBD1013CC6E7126887
:1027F000043B002AEFD1013CEAE70020EEE70000AD
:102800002DE9F04FC76999B08DED020B55EC104BD7
:10281000229E099183460E9213937FB9102000F0F7
:10282000FDFD0246CBF81C0020B9A74BEF21A748BD
:1028300001F0F6FAC0E901770760C760DBF81C30E9
:10284000196859B15A684A60012393408B60584611
:1028500000F0DAFEDBF81C3000221A602B1EB9BF34
:1028600023F00043039300233360039F984BBCBFC6
:1028700001223260BB4312D1139A42F20F731360EC
:10288000C7F31303234300F04D85239BDFF854A2C5
:10289000002B00F04F850AF1030300F049BD9DEDC8
:1028A000027B002251EC170B00238DED0C7BFEF711
:1028B00033F9804658B1139A01231360239B13B157
:1028C000239A844B1360DFF820A200F033BD9DED06
:1028D0000C0B16AA17A9584601F080F9C7F30A563F
:1028E0008146002E77D00D9BCDF85080C3F31303A3
:1028F000DDE90C0143F07F5343F44013A6F2FF36A9
:1029000019460022744BFDF7E7FC69A3D3E90023C5
:10291000FDF79AFE68A3D3E90023FDF7DFFC044628
:1029200030460D46FDF726FE65A3D3E90023FDF7EB
:102930008BFE02460B4620462946FDF7CFFC044697
:102940000D46FEF731F900220746002320462946AE
:10295000FEF7ECF840B13846FDF70CFE22462B4658
:10296000FEF7DAF800B9013F162F51D85B4B03EBA5
:10297000C703D3E90023DDE90C01FEF7D7F80028EF
:1029800048D0013F00231293169B9B1B5A1E44BF45
:10299000C3F101080023089254BF4FF000080893C8
:1029A000002F39DB089B0F973B44089300230A93C1
:1029B000099B092B64D8052BC4BF043B0993099BD1
:1029C000A3F10203CCBF00240124032B63D8DFE86A
:1029D00003F02A373555DDE916631E4406F232430B
:1029E000202BC1BFC3F140039F4006F2124324FADB
:1029F00003F3D6BFC3F1200347EA030004FA03F050
:102A0000FDF7A8FD0122A1F1F873013E149277E7CA
:102A10000123B8E71290B7E77B420A930023A8EBA3
:102A200007080F93C4E700230B930E9B002B35DCA4
:102A30000123009307931A460E920BE00123F3E75C
:102A400000230B930E9BFB1800930133012B07937C
:102A5000B8BF0123DBF81C000021042202F1140599
:102A60009D421FD94160584600F08EFD82460028E5
:102A70003CD11B4B024640F2AF11D8E60123E0E700
:102A80000124002309930B944FF0FF330093079325
:102A900000221223D0E701230B93F5E70E9B00934E
:102AA0000793D7E701315200D8E700BFAFF30080AA
:102AB00061436F63A787D23FB3C8608B288AC63F44
:102AC000FB799F501344D33FB1440008C844000829
:102AD0000000F07F814400080000F83FC045000876
:102AE00020450008AD44000880440008DBF81C3095
:102AF0001860079B0E2B00F2A480002C00F0A18030
:102B0000002F33DDAD4B07F00F0203EBC20393ED53
:102B1000007BF8058DED047B4FEA271416D5A84BF2
:102B2000DDE90C01D3E90823FDF7B8FECDE9020188
:102B300004F00F040326A24D54B9DDE90423DDE9B6
:102B40000201FDF7ABFECDE9020128E00226F2E723
:102B5000E10708D5DDE90401D5E90023FDF774FD9F
:102B6000CDE90401013664100835E5E700F0D280B4
:102B70007C42924B924D04F00F0203EBC203D3E967
:102B80000023DDE90C01FDF75FFDCDE90201241111
:102B900000230226002C40F0B280002BD3D1129BE0
:102BA000DDE90245002B00F0B780864B002220466D
:102BB0002946FDF7BBFF002800F0AE80079B002BE5
:102BC00000F0AA80009B002B37DD7B1E049320467B
:102BD0007D4B00222946FDF737FDCDE90201009C1F
:102BE00001363046FDF7C6FCDDE90223FDF72CFD7A
:102BF000764B0022FDF772FB0546A1F15076002CC2
:102C000040F08D80DDE90201714B0022FDF764FB8D
:102C100002460B46CDE902232A463346FDF7A4FFC0
:102C2000002840F08B82DDE902012A4606F10043CC
:102C3000FDF77CFF002840F02881DDE90C34CDE968
:102C40000234179B002BC0F25A810E2F00F35781DC
:102C50005A4B03EBC70393ED007B0E9B002B8DEDCE
:102C6000007B03DA079B002B40F30181DDE902457D
:102C70005646DDE9002320462946FDF70FFEFDF705
:102C800093FF8046FDF776FCDDE90023FDF7DCFCD1
:102C900002460B462046294608F13004FDF71CFB8E
:102CA00006F8014B079DA6EB0A04A54202460B4617
:102CB00040F01781FDF712FBDDE9002304460D46C5
:102CC000FDF752FF002840F0F980DDE9002320469F
:102CD0002946FDF721FF18B118F0010F40F0EE80F2
:102CE0004946584600F090FC00233370139B01378F
:102CF0001F60239B002B00F01D831E601AE3E20778
:102D000005D5D5E90023FDF79FFC013601236410AA
:102D100008353FE7022642E7079C049761E7274B07
:102D20000B9903EBC40353E902235444002953D005
:102D300028490020FDF7B2FD33462A46FDF7CCFABC
:102D4000CDE910015646DDE90201FDF72DFF0546EC
:102D5000FDF710FC02460B46DDE90201FDF7BCFA67
:102D6000303502460B46CDE9022306F8015BDDE96A
:102D70001023FDF7DBFE002871D1DDE902231149A4
:102D80000020FDF7A9FADDE91023FDF7CFFE0028AA
:102D900040F09580A6423FF450AFDDE910010A4BA8
:102DA0000022FDF751FC084BCDE910010022DDE9BE
:102DB0000201FDF749FCCDE90201C4E7C045000866
:102DC000984500080000F03F0000244000001C402F
:102DD000000014400000E03F31462846FDF734FC77
:102DE000CDE9100115945646DDE90201FDF7DCFE40
:102DF0000546FDF7BFFB02460B46DDE90201FDF784
:102E00006BFA303506F8015B02460B46A642CDE967
:102E100002234FF0000224D1AC4BDDE91001FDF795
:102E20005DFA02460B46DDE90201FDF79DFE002832
:102E300045D1DDE91023A5490020FDF74DFA0246F2
:102E40000B46DDE90201FDF771FE00283FF4F5AE07
:102E5000159E731E159316F8013C302BF8D0049F75
:102E60003EE79B4BFDF7F0FBCDE90201BCE70CD13F
:102E7000984B0022DDE90001FDF7E6FBDDE90223C6
:102E8000FDF768FE002800F05781002425460E9BC0
:102E9000DB430493564600272146584600F0B4FB16
:102EA000002DDCD02FB1AF4203D03946584600F098
:102EB000ABFB2946584600F0A7FBD0E70497334602
:102EC0001E4613F8012D392A07D19A45F8D1049AE4
:102ED0000132049230228AF800201A7801321A70E6
:102EE000BDE77B4B0022FDF7AFFB00220023044629
:102EF0000D46FDF711FE00283FF4BBAEF0E60B9A3D
:102F0000002A00F0DB80099A012A00F3BF80149A9E
:102F1000002A00F0B78003F233430A9C4646089A21
:102F200001211A4458469844089200F021FC0546B5
:102F30005EB1089B002B08DDB342089AA8BF334658
:102F4000A8EB0308F61AD31A08930A9BF3B10B9B5C
:102F5000002B00F0B7808CB129462246584600F07D
:102F6000C7FC4A4601460546584600F017FC49464C
:102F70000490584600F048FB049B99460A9B1A1B94
:102F800004D04946584600F0B3FC8146012158461A
:102F900000F0EEFB0F9B0446002B00F0CF811A4699
:102FA0000146584600F0A4FC099B012B044600F39F
:102FB0009580029B002B40F08780039BC3F3130393
:102FC000002B40F08980039B23F000431B0D1B0561
:102FD0002BB1089B0133089308F1010801230A93E0
:102FE0000F9B002B00F0B081236904EB8303186969
:102FF00000F072FBC0F12000089B184410F01F0085
:1030000077D0C0F12003042B6BDD089BC0F11C00BE
:103010000344804406440893B8F1000F05DD494697
:103020004246584600F0BEFC8146089B002B05DD59
:1030300021461A46584600F0B5FC0446129B002B68
:1030400059D02146484600F019FD002853DA7B1E6E
:103050000493494600230A22584600F0F7FA0B9BD6
:103060008146002B00F07281002329460A2258462F
:1030700000F0ECFA009B002B054667DC099B022B55
:1030800041DC63E0169BC3F1360346E7079B5C1EF9
:103090000A9BA342BFBF0A9B0F9A0A94E31AB4BFCC
:1030A000D2181C1B079BBCBF0F920024002BB5BF7E
:1030B000A8EB0306079B0023464630E70A9C0B9DBE
:1030C000464635E70A9A5CE7002388E70000E03FC0
:1030D0000000244000001440029B80E700230A9374
:1030E00082E799D0089A1C331A4498441E440892E7
:1030F00092E70346F6E7079B0497002B20DC00933A
:10310000099B022B1EDD009B002B7FF4C0AE2146E5
:103110000522584600F09AFA01460446484600F057
:10312000ADFC00287FF7B3AE5646312306F8013BCD
:10313000049B01330493AEE6079C04972546F3E70E
:10314000079B00930B9B002B00F00481002E05DDF4
:1031500029463246584600F025FC05460A9B002BBE
:103160005AD06968584600F00FFA064628B9844BD1
:10317000024640F2EF21FFF75ABB2A690232920061
:1031800005F10C010C3000F03DFE0122314658469D
:1031900000F008FC0AF101030793009B53440B93D2
:1031A000029B03F001032F460A930546079B214625
:1031B000013B48460093FFF79AFA3946029000F126
:1031C0003008484600F05AFC2A46089021465846E6
:1031D00000F070FCC268064602BB0146484600F09B
:1031E0004DFC0246314658460E9200F00DFA099BFE
:1031F0000E9A079E43EA02010A9B194310D1B8F1C7
:10320000390F29D0089B002B02DD029B03F1310806
:10321000009B83F800803FE62846BBE70122E1E7F8
:10322000089B002B04DB09990B430A990B4320D11F
:10323000002AEDDD49460122584600F0B3FB214645
:10324000814600F01BFC002803DCE1D118F0010FDF
:10325000DED0B8F1390FD8D1009A39231370334634
:103260001E46013B16F8012C392A52D001321A7041
:1032700012E6002A07DDB8F1390FEDD0009A08F107
:103280000103137008E6079B079A03F8018C0B9B58
:10329000934228D0494600230A22584600F0D6F926
:1032A000AF4281464FF000034FF00A0239465846BC
:1032B00007D100F0CBF907460546079B013307937A
:1032C00074E700F0C3F92946074600230A2258464E
:1032D00000F0BCF90546F0E7009B002BCCBF1E4672
:1032E00001265644002749460122584600F05AFB61
:1032F0002146814600F0C2FB0028B0DC02D118F064
:10330000010FACD133461E4613F8012D302AFAD0F6
:10331000C2E59A45A4D1049B0133049331238AF872
:103320000030B9E5239BDFF85CA01BB10AF108036C
:10333000239A1360504619B0BDE8F08F099B012B0A
:103340007FF737AE0F9B0A93012055E6009B002BB9
:103350007FF7D6AE564621464846FFF7C8F900F13A
:10336000300806F8018B009BA6EB0A029342B3DDFE
:10337000494600230A22584600F068F98146EAE7E8
:1033800020450008A444000838B50546002941D06E
:1033900051F8043C0C1F002BB8BFE41800F0E8F80B
:1033A0001D4A136833B9636014602846BDE838408D
:1033B00000F0E4B8A34208D9206821188B4201BF6D
:1033C00019685B6809182160EDE71A465B680BB164
:1033D000A342FAD911685018A0420BD120680144C9
:1033E000501883421160E0D118685B68536008444C
:1033F0001060DAE702D90C232B60D6E72068211889
:103400008B4204BF19685B68636004BF09182160C0
:103410005460CAE738BD00BF40030020024B01469C
:10342000186800F025B800BF1800002070B50F4ED6
:103430000C463168054611B900F0D4FC30602146D5
:10344000284600F0CFFC431C03D14FF0FF34204648
:1034500070BDC41C24F00304A042F8D0211A2846F1
:1034600000F0C0FC0130F2D1EFE700BF3C030020C8
:103470002DE9F843CD1C25F0030508350C2D38BF88
:103480000C25002D064601DBA94204D90C2333602C
:103490000020BDE8F883DFF8D48000F069F8D8F8A0
:1034A00000301C4644BB29463046FFF7BFFF431C93
:1034B000044658D1D8F800402746002F43D1002CAD
:1034C0004BD023683946304604EB030900F08AFCF0
:1034D000814542D121686D1A29463046FFF7A6FF83
:1034E00001303AD023682B442360D8F800305A6862
:1034F00062BBC8F800700FE02268521B20D40B2A70
:1035000017D96119A342256018BF5960636808BFC5
:10351000C8F8001062514B60304600F02FF804F1FB
:103520000B00231D20F00700C21A1CBF1B1AA3505A
:10353000AFE76268A3420CBFC8F800205A60EBE70F
:1035400023466468AEE73C467F68B6E71A465B6888
:10355000A342FBD100235360DEE70C2333603046E7
:1035600000F00CF894E70560D6E700BF40030020A8
:103570000148FFF7BAB800BF380300200148FFF741
:10358000B5B800BF3803002070B5C66904460D46C3
:1035900076B91020FFF742FF0246E06120B9184BD0
:1035A00018486B2100F03CFCC0E901660660C6606B
:1035B000E669F36883B1E369DB6853F82500B8B9BD
:1035C000012101FA05F6721D9200204600F046FC2A
:1035D00060B1C0E901560EE021220421204600F02E
:1035E0003DFCE369F060DB68002BE4D1002070BD96
:1035F000026843F825200023C0E90333F7E700BF42
:10360000B14400083145000870B5C66905460C464E
:1036100076B91020FFF702FF0246E86120B9094B96
:1036200009488F2100F0FCFBC0E901660660C66016
:103630003CB1EB696268DB6853F82210216043F803
:10364000224070BDB1440008314500082DE9F04129
:103650000D6907460C461E4601F1140C0020DCF8EB
:10366000003099B202FB01611E0C0B0C02FB063309
:1036700089B2013001EB034185424CF8041B4FEA4B
:103680001346ECDC0EB3A368AB4219DC6168384624
:103690000131FFF779FF804628B902460C4B0D48EF
:1036A000BA2100F0BDFB2269023204F10C01920044
:1036B0000C3000F0A7FB21463846FFF7A5FF444633
:1036C00004EB850301355E6125612046BDE8F0818C
:1036D0002045000831450008B0F5803F034636BF5D
:1036E000030400201020B3F1807F3CBF1B02083090
:1036F000B3F1805F3CBF1B010430B3F1804F3CBF8E
:103700009B000230002B05DB13F0804F00F101001D
:1037100008BF202070470368024613F007000BD053
:10372000D90721D4980749BF5B089B080120136083
:103730005CBF13600220704799B209B91B0C1020BE
:10374000D9B209B908301B0A190704BF1B09043094
:10375000990704BF9B080230D90703D45B0800F126
:10376000010003D01360704700207047202070478D
:1037700010B50C460121FFF707FF024628B9054B9B
:10378000054840F2451100F04BFB01234461036101
:1037900010BD00BF20450008314500082DE9F04F5D
:1037A00014460A6923699A42A8BF23460F46A4BF5C
:1037B0000C461F46D4F810A0D7F81090A368616893
:1037C0000AEB0906B34285B0B8BF0131FFF7DCFE52
:1037D00030B90246444B45484FF4B17100F020FB2C
:1037E00000F1140505EB86082B460022434521D342
:1037F00007F1140104F1140202EB8A0201EB8903C0
:103800000293131B153B23F00303043304F1150744
:10381000BA4238BF04230193029B03918B420CD818
:10382000002E03DD58F8043D002B5BD0066105B087
:10383000BDE8F08F43F8042BD8E7B1F800A0BAF147
:10384000000F24D004F1140EA9464FF0000C5EF8CE
:10385000047BD9F800301FFA87FB9BB20AFB0B33BD
:103860004FEA174BD9F8007063444FEA174C0AFB34
:103870000BC707EB13479BB243EA0743724549F86E
:10388000043B4FEA174CE2D8019B45F803C0039B69
:10389000B3F802900431B9F1000F21D02B6804F184
:1038A000140CAE464FF0000ABCF800B0BEF802702F
:1038B00009FB0B7757449BB243EA07434EF8043B9E
:1038C0005CF8043B4FEA134ABEF8003009FB0A33A8
:1038D00003EB174362454FEA134AE5D8019FEB51CA
:1038E000043599E7013E9BE7204500083145000873
:1038F0002DE9F843154612F0030207460E4607D09D
:10390000254C013A002354F82220FFF79FFE06467B
:10391000AD103DD0FC697CB91020FFF77FFD024659
:10392000F86128B91D4B1E4840F2B31100F078FA37
:10393000C0E901440460C460D7F81C80D8F808408E
:103940004CB940F271213846FFF712FF0023C8F846
:103950000800044603604FF00009EB070AD5314622
:1039600022463846FFF71AFF314680463846FFF7B1
:103970004BFE46466D100BD0206838B922462146D2
:103980003846FFF70BFF2060C0F800900446E4E7DC
:103990003046BDE8F88300BF8C450008B1440008FC
:1039A000314500082DE9F0470C464968236903EBCF
:1039B0006218A368074691464FEA621A08F10106A9
:1039C000B3420BDB3846FFF7DFFD054648B9024638
:1039D000284B29484FF4EF7100F022FA01315B00C7
:1039E000EEE7002300F1140100F1100218465345E0
:1039F00033DB20692AEAEA7A04F1140319F01F097B
:103A000001EB8A0103EB800C2BD0C9F1200E8A4612
:103A10000022186800FA09F010434AF8040B53F822
:103A2000042B9C4522FA0EF2F3D8ACEB0403153BB1
:103A300023F00303043304F11500844538BF042345
:103A4000CA500AB108F10206013E38462E612146ED
:103A5000FFF7DAFD2846BDE8F08742F8040F01338E
:103A6000C5E7043953F8042B41F8042F9C45F9D8D5
:103A7000EAE700BF20450008314500080A6903460F
:103A80000069801A30B50ED11433143103EB82046F
:103A900001EB820154F8045D51F8042D954203D0E6
:103AA00005D24FF0FF3030BDA342F3D3FBE7012036
:103AB000F9E700002DE9F74F8946064611464846CA
:103AC0001446FFF7DBFF051E12D129463046FFF7EB
:103AD0005BFD024628B93F4B40F237213E4800F0DB
:103AE0009FF90123C0E90435104603B0BDE8F08F0B
:103AF000BCBF4B46A1463046D9F80410BABF1C469D
:103B000001250025FFF740FD024618B9314B40F270
:103B10004521E3E7D9F810702669C56009F1100363
:103B200009F1140504F1140E00F1140B05EB8708DC
:103B30000EEB86060193D9464FF0000C019B5EF810
:103B4000040B53F804AF01931FFA8AF3194683B2AA
:103B5000CB1A000C6344C0EB1A4000EB23409BB22D
:103B600043EA0043764549F8043B4FEA204CE5D848
:103B7000331B153B23F0030315340433A64238BF2F
:103B800004231D445B441E462C4644450ED308F1D5
:103B90000301491B21F00301033DA84538BF002163
:103BA0000B4453F8041D91B117619DE754F8041BB1
:103BB000E646080C1CFA81FC714400EB2C4089B2EB
:103BC00041EA004146F8041B4FEA204CDDE7013F83
:103BD000E7E700BF20450008314500082DE9F7431D
:103BE0000F46012159EC108B1646FFF7CDFC044619
:103BF00030B90246234B244840F20F3100F010F94F
:103C0000C9F30A55C9F313030DB143F480130193AB
:103C1000B8F1000323D068460093FFF77CFDDDE98F
:103C20000012D0B1C0F1200302FA03F30B43C240EB
:103C300063610192019BA361002B0CBF0122022250
:103C40002261A5B1A5F2334505443D60C0F13500C0
:103C50003060204603B0BDE8F0836161EAE701A867
:103C6000FFF759FD019B636120300122E8E704EB77
:103C70008203A0F2324038601869FFF72DFDC0EBD7
:103C80004210E5E72045000831450008B1F90C2055
:103C90002DE9F041160705460C4654D44B68002B1D
:103CA00002DC0B6C002B48DDE66A002E45D00023B9
:103CB00012F480522F68216A2B6030D0626DA38984
:103CC000590705D56368D21A636B0BB1236CD21AFE
:103CD0000023E66A216A2846B047431CA38906D11F
:103CE00029681D292BD82A4A0A41D60727D4002241
:103CF0006260D9042269226004D5421C01D12B687C
:103D000003B96065616B2F60B9B104F14403994256
:103D100002D02846FFF738FB002363630DE0012340
:103D20002846B0470246501CC9D12B68002BC6D08C
:103D30001D2B01D0162B1ED12F60002022E043F056
:103D400040031BB21BE00F69002FF6D093070E68EB
:103D500008BF4B690F6018BF0023A6EB07088B60F4
:103D6000B8F1000FE9DD216AA66A43463A462846C3
:103D7000B047002808DCB4F90C3043F04003A381BD
:103D80004FF0FF30BDE8F0810744A8EB0008E7E7FB
:103D9000FEFFBFDF38B50B6905460C4613B9002599
:103DA000284638BD18B1036A0BB9FEF7A7FBB4F972
:103DB0000C30002BF3D0626ED00704D4990502D4E6
:103DC000A06DFEF792FC28462146FFF75FFF636E69
:103DD000DA070546E4D4A3899B05E1D4A06DFEF77C
:103DE00085FCDDE738B5064D0023044608462B6008
:103DF000FCF7D0FF431C02D12B6803B1236038BD10
:103E0000340300200A44914200F1FF3300D170478F
:103E100010B511F8014B03F8014F9142F9D110BDD3
:103E20001FB514461A46094B1B680546D86854B995
:103E3000074B1C46CDE9013400912B46054900F0A3
:103E400041F800F051F8044BF4E700BF18000020DF
:103E5000CD4600089F4600089246000870B5A1FBB9
:103E600002543CB92946FFF703FB064628B9002651
:103E7000304670BD0C220260F9E72A462146FEF763
:103E8000B6FBF5E782B001B901A942B14BB1137895
:103E90000B601278101E18BF012002B07047104648
:103EA000FBE76FF00100F8E70346084641B1FF2A3F
:103EB00004D98A221A604FF0FF3070470A7001203F
:103EC000704700000EB403B5014603AB054853F834
:103ED000042B0068019300F037F802B05DF804EBA2
:103EE00003B070471800002008B5062000F000FA63
:103EF0000120FCF71FFF9368013B002B10B4936077
:103F000008DA9469A34201DB0A2903D15DF8044B66
:103F100000F032B91368581C1060197008465DF83B
:103F2000044B7047F8B506460F461446D518AC4208
:103F300001D1002007E014F8011B3A463046FFF794
:103F4000DAFF431CF3D1F8BD2DE9F04F0D469DB0CB
:103F500014469846064618B1036A0BB9FEF7CEFA26
:103F60006B6ED90705D4AB899A0502D4A86DFEF70C
:103F7000BCFBAB891B0701D52B699BB92946304691
:103F800000F038F970B16B6EDC0704D54FF0FF30EC
:103F90001DB0BDE8F08FAB899805F7D4A86DFEF78A
:103FA000A5FBF3E70023099320238DF82930CDF8F2
:103FB0000C803023DFF8AC818DF82A304FF00109F6
:103FC00023469A4613F8012B0AB1252AF9D1BAEBF8
:103FD000040B0BD05B46224629463046FFF7A2FF72
:103FE000013000F0A780099A5A4409929AF80030EB
:103FF000002B00F09F8000234FF0FF32CDE9052316
:104000000AF1010A049307938DF853301A9354462A
:10401000052214F8011B5348FCF702F9049AD8B999
:10402000D10644BF20238DF85330130744BF2B2300
:104030008DF853309AF800302A2B15D0079A544641
:1040400000204FF00A0C214611F8013B303B092BB0
:104050004BD9B0B1079214E0A0EB080309FA03F3BF
:1040600013430493A246D2E7039B191D1B680391D7
:10407000002BBBBF5B4242F0020207930793B8BF1D
:10408000049223782E2B0AD163782A2B32D1039BFA
:104090001A1D1B68039243EAE37302340593DFF8A9
:1040A000D4A0217803225046FCF7BAF838B1049B1B
:1040B000A0EB0A004022824013430134049314F819
:1040C000011B29488DF828100622FCF7A9F80028C2
:1040D0003FD0264B1BBB039B073323F0070308335A
:1040E0000393099B3B4409936AE70CFB02320C469D
:1040F0000120A8E700230134059319464FF00A0C6C
:10410000204610F8012B303A092A03D9002BC6D0DB
:104110000591C4E70CFB012104460123F0E703AB42
:1041200000932A46124B04A93046FDF7A3FD07462B
:10413000781CD6D16B6ED90705D4AB899A0502D409
:10414000A86DFEF7D3FAAB895B063FF51FAF099860
:104150001EE703AB00932A46054B04A93046FEF741
:1041600021F8E4E7CF470008D9470008751C00088C
:10417000253F0008D5470008F8B50E461446054609
:1041800018B1036A0BB9FEF7B9F9A369A360A38953
:104190001A0701D5236943B92146284600F02AF8B9
:1041A00018B14FF0FF373846F8BD23682269981AD6
:1041B0006369F6B28342374605DC21462846FFF79D
:1041C000E9FD0028EDD1A368013BA36023685A1CD8
:1041D00022601E706269431C9A4204D0A389DB07E7
:1041E000E1D50A2EDFD121462846FFF7D3FD00286E
:1041F000D9D0D6E738B5294B054618680C4618B112
:10420000036A0BB9FEF77AF9B4F90C30190722D416
:10421000DA0607D409222A6043F04003A3814FF055
:10422000FF3033E0580712D5616B41B104F144030C
:10423000994202D02846FFF7A7F800236363A389B9
:1042400023F02403A3810023636023692360A389EF
:1042500043F00803A38123694BB9A38903F42073B6
:10426000B3F5007F03D02146284600F083F8B4F967
:104270000C3013F001020AD00022A260626952429F
:10428000A261226942B913F08000C5D138BD9907F7
:1042900058BF6269A260F4E70020F7E71800002029
:1042A0001F2938B505460C4604D9162303604FF084
:1042B000FF3038BDC26B12B152F821304BB92846DD
:1042C00000F030F8224601462846BDE8384000F0AC
:1042D00017B8012B0AD0591C03D116230360012003
:1042E000E7E7002142F82410204698470020E0E745
:1042F000024B01461868FFF7D3BF00BF180000202B
:1043000038B5074D00230446084611462B60FCF7DC
:1043100009FD431C02D12B6803B1236038BD00BFE7
:1043200034030020FCF7FCBC70B50C46B1F90E104C
:10433000002996B015461E460DDAA38913F0800FAA
:104340004FF0000114BF40234FF480630020316020
:104350002B6016B070BD6A4600F048F80028ECDB10
:10436000019901F47041A1F50053594259414FF4AC
:104370008063EBE78B89F7B59D0706460C4607D5AA
:1043800004F14703236023610123636103B0F0BD9F
:1043900001AB6A46FFF7C8FF009F05463946304625
:1043A000FFF766F848B9B4F90C309A05EED423F05B
:1043B000030343F00203A381E2E7A389206043F0F3
:1043C0008003A381019BC4E904075BB1B4F90E101B
:1043D000304600F01DF828B1A38923F0030343F011
:1043E0000103A381A3891D43A581CFE738B5074DFC
:1043F00000230446084611462B60FCF7C2FC431C10
:1044000002D12B6803B1236038BD00BF3403002004
:1044100038B5064D0023044608462B60FCF7B6FC71
:10442000431C02D12B6803B1236038BD3403002044
:10443000F8B500BFF8BC08BC9E467047F8B500BF91
:08444000F8BC08BC9E46704761
:10444800000000000000000001020304060708093C
:104458000008004840000100000800481000010062
:104468000000000000000000494E4600696E66002A
:104478004E414E006E616E003000303132333435BB
:1044880036373839414243444546003031323334B7
:10449800353637383961626364656600496E666926
:1044A8006E697479004E614E005245454E54206D38
:1044B800616C6C6F63207375636365656465640024
:1044C8002F6275696C642F676E752D746F6F6C73CE
:1044D8002D666F722D73746D33325F31322E332E29
:1044E80072656C312E32303234303932362D3137F4
:1044F80031352F7372632F6E65776C69622F6E6525
:10450800776C69622F6C6962632F7374646C69627B
:104518002F64746F612E630042616C6C6F6320734B
:104528007563636565646564002F6275696C642FE3
:10453800676E752D746F6F6C732D666F722D737443
:104548006D33325F31322E332E72656C312E32303C
:104558003234303932362D313731352F7372632F7B
:104568006E65776C69622F6E65776C69622F6C690E
:1045780062632F7374646C69622F6D707265632E49
:104588006300000005000000190000007D00000025
:104598000080E03779C34143176E05B5B5B8934637
:1045A800F5F93FE9034F384D321D30F94877825A03
:1045B8003CBF737FDD4F1575000000000000F03F21
:1045C80000000000000024400000000000005940E6
:1045D8000000000000408F40000000000088C34039
:1045E80000000000006AF8400000000080842E41AE
:1045F80000000000D01263410000000084D79741FA
:104608000000000065CDCD41000000205FA00242FF
:10461800000000E876483742000000A2941A6D4274
:10462800000040E59C30A2420000901EC4BCD64267
:1046380000003426F56B0C430080E03779C3414312
:1046480000A0D8855734764300C84E676DC1AB4388
:10465800003D9160E458E143408CB5781DAF1544A6
:1046680050EFE2D6E41A4B4492D54D06CFF0804481
:10467800F64AE1C7022DB544B49DD9794378EA4496
:104688004300504F534958002E002C2066756E6326
:1046980074696F6E3A2000617373657274696F6E26
:1046A8002022257322206661696C65643A20666958
:1046B8006C6520222573222C206C696E6520256488
:1046C800257325730A000020202020202020202088
:1046D80028282828282020202020202020202020AA
:1046E80020202020202020881010101010101010DA
:1046F800101010101010100404040404040404041E
:1047080004101010101010104141414141410101A5
:104718000101010101010101010101010101010181
:10472800010110101010101042424242424202028F
:104738000202020202020202020202020202020251
:1047480002021010101020000000000000000000FD
:104758000000000000000000000000000000000051
:104768000000000000000000000000000000000041
:104778000000000000000000000000000000000031
:104788000000000000000000000000000000000021
:104798000000000000000000000000000000000011
:1047A8000000000000000000000000000000000001
:1047B80000000000000000000000000000000000F1
:1047C80000000000000000232D302B2000686C4CF6
:0847D8000065666745464700D5
:0847E00040BAFF7F0100000058
:0447E80005020008BE
:0447EC00E1010008DF
:1047F0000024F40001000000100000000000000090
:1048000003000000F80100201C0000200000000050
:10481000F801002060020020C80200200000000013
:104820000000000000000000000000000000000088
:104830000000000000000000000000000000000078
:104840000000000000000000000000000000000068
:104850000000000000000000430000000000000015
:104860000000000000000000000000000000000048
:1048700000000000000000004300000000000000F5
:104880000000000000000000000000000000000028
:1048900000000000000000004300000000000000D5
:1048A0000000000000000000000000000000000008
:1048B00000000000000000004300000000000000B5
:1048C00000000000000000000000000000000000E8
:1048D0000000000000000000430000000000000095
:1048E00000000000000000000000000000000000C8
:1048F0000000000000000000430000000000000075
:1049000000000000000000000000000000000000A7
:104910000000000000000000430000000000000054
:104920000000000000000000000000000000000087
:104930000000000000000000A93E0008853E0008BD
:1049400000000000CE46000890460008CD46000852
:10495000CD460008CD460008CD460008CD460008EB
:10496000CD460008CD460008CD460008CD460008DB
:10497000FFFFFFFFFFFFFFFFFFFFFFFFFFFF000045
:1049800001004153434949000000000000000000BD
:104990000000000000000000000000000000000017
:1049A000000041534349490000000000000000009E
:1049B00000000000000000000000000000000000F7
:0449C00000000000F3
:0400000508000E05DC
:00000001FF
