:020000040800F2
:10000000008000209D0E0008A10D0008A30D00082F
:10001000A50D0008A70D0008A90D000800000000AC
:10002000000000000000000000000000AB0D000810
:10003000AD0D000800000000AF0D0008B10D000874
:10004000ED0E0008ED0E0008ED0E0008ED0E0008A4
:10005000ED0E0008ED0E0008ED0E0008ED0E000894
:10006000ED0E0008ED0E0008ED0E0008ED0E000884
:10007000ED0E0008ED0E0008ED0E0008ED0E000874
:10008000ED0E000800000000ED0E0008ED0E000867
:100090005D110008ED0E0008ED0E0008ED0E0008E1
:1000A000ED0E0008ED0E0008ED0E0008ED0E000844
:1000B000ED0E0008ED0E0008ED0E0008ED0E000834
:1000C000ED0E0008ED0E0008ED0E0008ED0E000824
:1000D000ED0E0008ED0E0008ED0E0008ED0E000814
:1000E000ED0E0008ED0E0008ED0E0008ED0E000804
:1000F000ED0E0008ED0E0008ED0E000800000000F7
:1001000000000000ED0E000800000000ED0E0008E9
:10011000ED0E000800000000ED0E0008ED0E0008D6
:10012000ED0E0008ED0E0008ED0E0008ED0E0008C3
:10013000ED0E00080000000000000000ED0E0008B9
:10014000ED0E0008ED0E00080000000000000000A9
:10015000000000000000000000000000000000009F
:10016000000000000000000000000000ED0E00088C
:10017000ED0E00080000000000000000000000007C
:1001800000000000ED0E000800000000000000006C
:10019000000000000000000000000000000000005F
:1001A0000000000000000000ED0E0008ED0E000849
:1001B000ED0E0008ED0E0008ED0E00080000000036
:1001C00000000000ED0E000800000000000000002C
:0801D000ED0E0008ED0E000821
:1001E00010B5054C237833B9044B13B10448AFF371
:1001F00000800123237010BD580300200000000080
:10020000887D000808B5034B1BB103490348AFF3D1
:10021000008008BD000000005C030020887D00080D
:1002200001F0FF01102A2BDB10F0070F08D010F8A7
:10023000013B013A8B422DD010F0070F42B3F6D1AB
:10024000F0B441EA012141EA014122F007047FF0C4
:1002500000070023F0E80256083C85EA010586EA1B
:10026000010685FA47F5A3FA87F586FA47F6A5FA57
:1002700087F68EB9EED1F0BC01F0FF0102F0070263
:1002800032B110F8013B013A83EA010313B1F8D10E
:100290000020704701387047002D06BF35460338EF
:1002A000073815F0010F07D1013015F4807F02BF28
:1002B000013015F4C03F0130F0BC0138704700BF79
:1002C000034613F8012B002AFBD1181A0138704796
:1002D00081F0004102E000BF83F0004330B54FEAF7
:1002E00041044FEA430594EA050F08BF90EA020F64
:1002F0001FBF54EA000C55EA020C7FEA645C7FEAF7
:10030000655C00F0E2804FEA5454D4EB5555B8BF19
:100310006D420CDD2C4480EA020281EA030382EA8A
:10032000000083EA010180EA020281EA0303362D1C
:1003300088BF30BD11F0004F4FEA01314FF4801CEF
:100340004CEA113102D0404261EB410113F0004F01
:100350004FEA03334CEA133302D0524263EB4303B8
:1003600094EA050F00F0A780A4F10104D5F1200E56
:100370000DDB02FA0EFC22FA05F2801841F10001B1
:1003800003FA0EF2801843FA05F359410EE0A5F185
:1003900020050EF1200E012A03FA0EFC28BF4CF0B6
:1003A000020C43FA05F3C01851EBE37101F000456C
:1003B00007D54FF0000EDCF1000C7EEB00006EEB79
:1003C0000101B1F5801F1BD3B1F5001F0CD3490803
:1003D0005FEA30004FEA3C0C04F101044FEA44525A
:1003E00012F5800F80F09A80BCF1004F08BF5FEAE1
:1003F000500C50F1000041EB045141EA050130BDC1
:100400005FEA4C0C404141EB0101013C28BFB1F5D2
:10041000801FE9D291F0000F04BF01460020B1FA1D
:1004200081F308BF2033A3F10B03B3F120020CDAF0
:100430000C3208DD02F1140CC2F10C0201FA0CF0CE
:1004400021FA02F10CE002F11402D8BFC2F1200C33
:1004500001FA02F120FA0CFCDCBF41EA0C019040E9
:10046000E41AA2BF01EB0451294330BD6FEA040432
:100470001F3C1CDA0C340EDC04F11404C4F120021D
:1004800020FA04F001FA02F340EA030021FA04F32F
:1004900045EA030130BDC4F10C04C4F1200220FA86
:1004A00002F001FA04F340EA0300294630BD21FAC4
:1004B00004F0294630BD94F0000F83F4801306BF8A
:1004C00081F480110134013D4EE77FEA645C18BF7E
:1004D0007FEA655C29D094EA050F08BF90EA020F15
:1004E00005D054EA000C04BF1946104630BD91EA0D
:1004F000030F1EBF0021002030BD5FEA545C05D110
:100500004000494128BF41F0004130BD14F580044E
:100510003CBF01F5801130BD01F0004545F0FE41C2
:1005200041F470014FF0000030BD7FEA645C1ABFF7
:10053000194610467FEA655C1CBF0B46024650EA2E
:10054000013406BF52EA033591EA030F41F400215A
:1005500030BD00BF90F0000F04BF0021704730B5E0
:100560004FF4806404F132044FF000054FF00001B5
:1005700050E700BF90F0000F04BF0021704730B576
:100580004FF4806404F1320410F0004548BF40424B
:100590004FF000013EE700BF42004FEAE2014FEAA0
:1005A00031014FEA02701FBF12F07F4393F07F4F7B
:1005B00081F06051704732F07F4208BF704793F07E
:1005C0007F4F04BF41F40021704730B54FF4607491
:1005D00001F0004521F000411CE700BF50EA010294
:1005E00008BF704730B54FF000050AE050EA01023D
:1005F00008BF704730B511F0004502D5404261EBAD
:1006000041014FF4806404F132045FEA915C3FF4ED
:10061000D8AE4FF003025FEADC0C18BF03325FEA8A
:10062000DC0C18BF033202EBDC02C2F1200300FA3B
:1006300003FC20FA02F001FA03FE40EA0E0021FA60
:1006400002F11444BDE600BF70B54FF0FF0C4CF44E
:10065000E06C1CEA11541DBF1CEA135594EA0C0F00
:1006600095EA0C0F00F0DEF82C4481EA030621EA3B
:100670004C5123EA4C5350EA013518BF52EA033576
:1006800041F4801143F4801338D0A0FB02CE4FF028
:100690000005E1FB02E506F00042E0FB03E54FF058
:1006A0000006E1FB03569CF0000F18BF4EF0010E50
:1006B000A4F1FF04B6F5007F64F5407404D25FEA4C
:1006C0004E0E6D4146EB060642EAC62141EA5551FF
:1006D0004FEAC52040EA5E504FEACE2EB4F1FD0C41
:1006E00088BFBCF5E06F1ED8BEF1004F08BF5FEABF
:1006F000500E50F1000041EB045170BD06F0004671
:1007000046EA010140EA020081EA0301B4EB5C041D
:10071000C2BFD4EB0C0541EA045170BD41F4801115
:100720004FF0000E013C00F3AB8014F1360FDEBF3A
:10073000002001F0004170BDC4F10004203C35DA16
:100740000C341BDC04F11404C4F1200500FA05F399
:1007500020FA04F001FA05F240EA020001F000423A
:1007600021F0004110EBD37021FA04F642EB0601B0
:100770005EEA430E08BF20EAD37070BDC4F10C04DA
:10078000C4F1200500FA04F320FA05F001FA04F29E
:1007900040EA020001F0004110EBD37041F100018A
:1007A0005EEA430E08BF20EAD37070BDC4F1200595
:1007B00000FA05F24EEA020E20FA04F301FA05F2FD
:1007C00043EA020321FA04F001F0004121FA04F2A5
:1007D00020EA020000EBD3705EEA430E08BF20EA75
:1007E000D37070BD94F0000F0FD101F000464000AF
:1007F00041EB010111F4801F08BF013CF7D041EA31
:10080000060195F0000F18BF704703F00046520034
:1008100043EB030313F4801F08BF013DF7D043EA05
:100820000603704794EA0C0F0CEA135518BF95EABB
:100830000C0F0CD050EA410618BF52EA4306D1D142
:1008400081EA030101F000414FF0000070BD50EA61
:10085000410606BF1046194652EA430619D094EAEB
:100860000C0F02D150EA013613D195EA0C0F05D1D5
:1008700052EA03361CBF104619460AD181EA030129
:1008800001F0004141F0FE4141F470014FF00000E1
:1008900070BD41F0FE4141F4780170BD70B54FF07C
:1008A000FF0C4CF4E06C1CEA11541DBF1CEA1355FC
:1008B00094EA0C0F95EA0C0F00F0A7F8A4EB0504DE
:1008C00081EA030E52EA03354FEA013100F08880D5
:1008D0004FEA03334FF0805545EA131343EA12639E
:1008E0004FEA022245EA111545EA10654FEA002653
:1008F0000EF000419D4208BF964244F1FD0404F50C
:10090000407402D25B084FEA3202B61A65EB030567
:100910005B084FEA32024FF480104FF4002CB6EB24
:10092000020E75EB030E22BFB61A754640EA0C00A4
:100930005B084FEA3202B6EB020E75EB030E22BFE4
:10094000B61A754640EA5C005B084FEA3202B6EB25
:10095000020E75EB030E22BFB61A754640EA9C00E4
:100960005B084FEA3202B6EB020E75EB030E22BFB4
:10097000B61A754640EADC0055EA060E18D04FEA72
:10098000051545EA16754FEA06164FEAC30343EA12
:1009900052734FEAC2025FEA1C1CC0D111F4801FDF
:1009A0000BD141EA00014FF000004FF0004CB6E7D8
:1009B00011F4801F04BF01430020B4F1FD0C88BF77
:1009C000BCF5E06F3FF6AFAEB5EB030C04BFB6EB82
:1009D000020C5FEA500C50F1000041EB045170BD75
:1009E0000EF0004E4EEA113114EB5C04C2BFD4EBA2
:1009F0000C0541EA045170BD41F480114FF0000E26
:100A0000013C90E645EA060E8DE60CEA135594EAA1
:100A10000C0F08BF95EA0C0F3FF43BAF94EA0C0FA4
:100A20000AD150EA01347FF434AF95EA0C0F7FF419
:100A300025AF104619462CE795EA0C0F06D152EA6D
:100A400003353FF4FDAE1046194622E750EA410651
:100A500018BF52EA43067FF4C5AE50EA41047FF462
:100A60000DAF52EA43057FF4EBAE12E74FF0FF3CC7
:100A700006E000BF4FF0010C02E000BF4FF0010C98
:100A80004DF804CD4FEA410C7FEA6C5C4FEA430C11
:100A900018BF7FEA6C5C1BD001B050EA410C0CBF60
:100AA00052EA430C91EA030F02BF90EA020F0020C2
:100AB000704710F1000F91EA030F58BF994208BF29
:100AC00090422CBFD8176FEAE37040F001007047E6
:100AD0004FEA410C7FEA6C5C02D150EA013C07D13D
:100AE0004FEA430C7FEA6C5CD6D152EA033CD3D088
:100AF0005DF8040B704700BF8446104662468C4682
:100B00001946634600E000BF01B5FFF7B7FF0028B4
:100B100048BF10F1000F01BD4DF808EDFFF7F4FFDD
:100B20000CBF012000205DF808FB00BF4DF808ED68
:100B3000FFF7EAFF34BF012000205DF808FB00BF8B
:100B40004DF808EDFFF7E0FF94BF012000205DF8AD
:100B500008FB00BF4DF808EDFFF7CEFF94BF012062
:100B600000205DF808FB00BF4DF808EDFFF7C4FF5B
:100B700034BF012000205DF808FB00BF4FEA410CA4
:100B80007FEA6C5C02D150EA013C0AD14FEA430C87
:100B90007FEA6C5C02D152EA033C02D14FF00000C4
:100BA00070474FF0010070474FEA410212F5001202
:100BB00015D211D56FF47873B3EB625212D94FEAA4
:100BC000C12343F0004343EA505311F0004F23FA8E
:100BD00002F018BF404270474FF00000704750EAE3
:100BE000013005D111F0004008BF6FF000407047A0
:100BF0004FF00000704700BF7047000010B584B090
:100C0000002407E000F044F804AB03EB840343F84E
:100C1000080C0134012CF5D90AE00290002000F004
:100C200013FA0DE0012000F0D3F900F0C5F9A8B9DE
:100C300000F02EF80446029BC31AB3F57A7FECD27B
:100C400000F0B6F90028EDD0039BE31AB3F5FA7F64
:100C5000EBD30394012000F0F7F9E6E700F0B0F9D8
:100C60008DF807000421064800F0AEF901210DF1CE
:100C7000070000F0A9F90421024800F0A5F9D7E720
:100C8000A07D0008A87D000808B500F0D3FF08BDCE
:100C900008B500F0C9FF08BD72B6FEE700B595B013
:100CA0003822002106A805F04EF90020019002909C
:100CB00003900490059002F041F902F037F9194AC7
:100CC000D2F8903023F01803C2F890302523069311
:100CD0004FF48033079301220C92089202230D9364
:100CE00003210E910F922822109211930422129246
:100CF000139306A802F0DCF980B90F2301930323B4
:100D00000293002303930493059304210DEB010048
:100D100002F084FC20B915B05DF804FBFFF7BCFFBE
:100D2000FFF7BAFF0010024000B583B000F060FF8B
:100D3000FFF7B4FF0B4B1A6E42F001021A661A6EEF
:100D400002F001020092009A9A6D42F080529A6578
:100D50009B6D03F080530193019B012003B05DF86C
:100D600004FB00BF0010024000B583B00B4B1A6EAD
:100D700042F001021A661A6E02F001020092009A15
:100D80009A6D42F080529A659B6D03F080530193F7
:100D9000019B02F059F903B05DF804FB001002401A
:100DA000FEE7FEE7FEE7FEE7FEE7704770477047A5
:100DB00008B500F02DFF08BD0120704708B505F00B
:100DC00015F9162303604FF0FF3008BD08B54FF04A
:100DD000FF31FFF7F3FFFEE770B50C46164600251E
:100DE00006E0AFF30080214601F8010B01350C4607
:100DF000B542F6DB304670BD70B50C461646002590
:100E000004E014F8010BAFF300800135B542F8DBC4
:100E1000304670BD4FF0FF3070474FF400534B60C9
:100E200000207047012070470020704710B503462E
:100E30000C4A0D490D48006840B10C480068034455
:100E4000521A934206D8094A136010BD0748084C4D
:100E50000460F2E705F0CAF80C2303604FF0FF309E
:100E6000F3E700BF008000200004000074030020AE
:100E700000170020034AD2F8883043F47003C2F808
:100E80008830704700ED00E008B500F076FEFFF70F
:100E9000B3FEFFF7B3FE002008BD00000D488546F5
:100EA000FFF7E8FF0C480D490D4A002302E0D45833
:100EB000C4500433C4188C42F9D30A4A0A4C0023A4
:100EC00001E013600432A242FBD305F095F8FFF76E
:100ED000DBFFFEE700800020000000205803002018
:100EE000B881000858030020FC160020FEE7F0B58A
:100EF00000270CE00CEB030511F803E006F805E011
:100F00000133C5689D42F5D82944046001379742F2
:100F100013D205686B1C8468B3FBF4F604FB16342B
:100F20004368A3420BD00669002EEED00029ECD016
:100F3000C36803FB05FC0023E3E70120F0BD0020AC
:100F4000FCE770B50C461646002516E001EB0E0CCA
:100F50001CF803C004F803C00133C2689A42F5D8F4
:100F6000144443680268934216D001338268B3FB8D
:100F7000F2F102FB113343600135B5420AD2016937
:100F80000029EED0002CECD04368C26802FB03FEBF
:100F90000023E2E7012070BD0020FCE782680368BF
:100FA000134441685B1AB3FBF2F002FB1030704748
:100FB00008B500F07BFB08BD08B500F05DFB08BD7F
:100FC00008B500F061FB08BD08B500F08DFB08BD59
:100FD000042800D9704708B5044B03EBC001002278
:100FE000898853F8300000F09FFF08BDBC7D0008E1
:100FF00010B586B0002401940294039404940594DF
:101000000F4BDA6C42F00402DA64DB6C03F0040389
:101010000093009B012302930DE00A4B03EBC402F3
:101020009288019201A953F8340000F093FEE0B2D7
:10103000FFF7CEFF0134042CEFDD012006B010BD18
:1010400000100240BC7D0008042800D9704708B594
:10105000044B03EBC002918853F8300000F069FFA5
:1010600008BD00BFBC7D000808B50C480C4B0360F0
:10107000002343607F228260FF22C260036183619C
:101080004FF08042C261436102F096FD18B9012021
:10109000044B187008BD0020FAE700BF7C03002055
:1010A000002800407803002010B592B00446442286
:1010B000002101A804F047FF22680D4B9A4201D09D
:1010C00012B010BD4FF4002301934FF4007311933D
:1010D00001A802F09FFB38B9064AD2F8903043F4D9
:1010E0000043C2F89030EBE7FFF7D6FDF4E700BF0E
:1010F000002800400010024001207047114B0122DF
:101100001A70904205D00F4B00221A700D4B1878C0
:10111000704710B50C4C00220C49204603F0ADFC82
:101120000B49204603F0C0FC0A49204600F09BF919
:10113000204603F0D0FC084B01221A70014B1878AE
:1011400010BD00BF75060020A40300206801002028
:10115000D0000020140100207406002008B50248C9
:1011600001F09AFC08BD00BFCC12002010B5D0F8E9
:10117000BC4284B1D0F8C0327BB194F80002FF28A1
:101180000DD09B6894F8012221469847FF2384F8EC
:101190000032002010BD0320FCE70020FAE7002009
:1011A000F8E7000043230380004870474800002010
:1011B00043230380004870478C00002043230380B2
:1011C00000487047040000200A230380004870474D
:1011D0000801002038B5D0F8BC5275B1044600F0C3
:1011E000C1FCC5F80C02D4F8C032DB6805F5037108
:1011F000D5F804029847002038BD0320FCE710B55D
:10120000D0F8C442D0F8BC3253B301EB810200EBFA
:10121000820292694AB101EB810C04EBCC04246A8E
:10122000B2FBF4FC04FB1C2272B10022C3F81422AE
:10123000D0F8C0221469ACB10A4603F50471D3F8A2
:101240000802A047002010BD01EB810300EB8303DF
:1012500000249C612346224600F074FC2046F2E7FD
:101260000320F0E70020EEE7F0B583B0D0F8BC62D1
:1012700000238DF80730ADF80430002E6CD00746FF
:101280000C460B7813F060052AD0202D5ED1CA8859
:10129000F2B113F0800F0FD0D0F8C0329B68314606
:1012A00060789847E288072A28BF072231463846E7
:1012B00004F0AAF800254CE04B7886F800328B79D0
:1012C00086F80132CA88314604F0B3F8002540E0C0
:1012D000D0F8C0329B68002248789847002538E053
:1012E0004E780B2E2ED8DFE806F006342D2D2D2D4E
:1012F0002D2D2D2D152490F89C32DBB2032B03D01D
:1013000003F048FD032524E0022201A904F07CF843
:1013100035461EE090F89C32DBB2032B03D003F07D
:1013200039FD032515E001220DF1070104F06CF8E9
:101330000FE090F89C32DBB2032B0AD003F02AFDB9
:10134000032506E003F026FD032502E003F022FD5D
:101350000325284603B0F0BD0325FAE738B5044657
:10136000812100F0B2FB002525870121204600F0F5
:10137000ACFBA4F878518221204600F0A6FBA4F82B
:101380004C50A4F84E50D4F8BC324BB1D4F8C03213
:101390005B689847D4F8BC0200F0EEFBC4F8BC527E
:1013A000002038BD70B504464FF4077000F0E0FB34
:1013B000B8B30646C4F8BC02237CBBBB4FF4007331
:1013C00002228121204600F075FB012525874FF47C
:1013D000007302222946204600F06CFBA4F87851E5
:1013E0001023A4F84E30082303228221204600F067
:1013F00061FB0123A4F84C30D4F8C0321B68984735
:101400000023C6F81432C6F81832257C15BB4FF4F9
:101410000073D6F804220121204600F09BFB2846E9
:1014200070BD0023C4F8BC320225F8E74023022235
:101430008121204600F03EFB012525874023022222
:101440002946204600F036FBA4F878511023A4F872
:101450004E30C8E74023D6F804220121204600F090
:1014600079FB0025DBE719B1C0F8C01200207047F6
:1014700003207047D0F8BC322BB1C3F80812C3F870
:1014800010220020704703207047D0F8BC321BB1F7
:10149000C3F804120020704703207047D0F8BC2224
:1014A00092B108B5D2F814320BB1012008BD012366
:1014B000C2F81432D2F81032C362D2F80822812165
:1014C00000F040FB0020F1E70320704710B5D0F892
:1014D000BC2292B1047C44B94FF40073D2F80422C8
:1014E000012100F037FB204610BD4023D2F8042232
:1014F000012100F02FFB0024F5E70324F3E70000AF
:101500000020014B1870704778060020212830D049
:10151000222843D0202801D0002070470B784A7839
:1015200043EA02238A7843EA0243CA7843EA026321
:101530000879204A107148795071897991711E4952
:10154000A1FB0313DB0803EB83035B001360B3F51C
:10155000966F06D0B3F5E13F07D0184B00221A7002
:10156000DAE7174A01211170F4E7144B01221A70CF
:10157000D2E7104A13681148007803430B70C3F395
:1015800007204870C3F3074088701B0ECB70137997
:101590000B7153794B7193798B71BDE74B8813F0C5
:1015A000010F03D0074B01221A70B5E7054B00224B
:1015B0001A70B1E728010020CDCCCCCC76060020F3
:1015C000A40E0020780600200020704738B505469C
:1015D0000C460A6801461748FFF789FC164B1B7832
:1015E000012B0CD013488468FFF7D8FC241A013C67
:1015F0003F2C16D8114B01221A70002038BD0E4B1B
:1016000000221A7023680C2BECD9002300E0013370
:101610000C2BE7D80A4A1268D15CEA5C9142F6D0FA
:10162000E0E7084C29462046FFF72FFF2046FFF74A
:101630004DFFE2E790060020A40E00207706002070
:1016400030010020A403002010B5074C00220749F8
:101650002046FFF70FFF06492046FFF716FF002040
:10166000044B187010BD00BFA4030020A406002086
:10167000A40A00207806002008B50248FFF78EFC77
:1016800008BD00BF9006002000B583B000238DF890
:10169000073001220DF107010348FFF752FC9DF8C6
:1016A000070003B05DF804FB900600200C4BD3F854
:1016B000BC3293B101220B4B187800B11046084B95
:1016C00093F89C32DBB2032B00D00020044B5B6804
:1016D00003B90020034B187070470022EBE700BFEE
:1016E000A4030020780600202DE9F04107460E46AD
:1016F000FFF7DCFF18B900252846BDE8F081FFF7A9
:10170000C7FA804600250CE00120FFF7BDFAFFF77D
:10171000CDFF0028F0D0FFF7BBFAA0EB0803632B46
:10172000EAD8B542E8D20A488468FFF737FC241AA1
:10173000013C731B9C4200D31C46002CE4D0224683
:1017400039460348FFF7D3FB27442544DFE700BFB2
:101750007C06002070B51C4B1B788BB91B48FFF72B
:101760001DFC044610F03F0F02D138B1441E05D0D5
:10177000174BD3F8BC32D3F81432ABB1002070BD94
:1017800014488468FFF70AFC241A013C3F2CE5D971
:101790000F4C11492046FFF778FE2046FFF796FED2
:1017A000094B00221A70D9E70C4E224631460748F1
:1017B000FFF7C7FB064D224631462846FFF75AFE83
:1017C0002846FFF76BFED9E7770600207C0600204D
:1017D000A403002090060020A40A0020A4060020F4
:1017E00012230B80004870475401002004230B8013
:1017F0000048704750010020002393421ED200B5DC
:1018000010E00CF1370C01F813C000014FEA430C53
:101810000CF1010C4FF0000E01F80CE00133DBB2CB
:10182000934209D24FEA107CB0F1204FE9D20CF17B
:10183000300C01F813C0E8E75DF804FB70470000C6
:1018400038B50B4BD3F89005D3F89445D3F89835B9
:10185000C01800D138BD074D08222946FFF7CCFF3C
:10186000042205F110012046FFF7C6FFF2E700BF92
:101870000070FF1F3601002008B51A230B80FFF708
:10188000DFFF014808BD00BF3401002008B50A464B
:1018900028B90549054803F09AFD034808BD0249E7
:1018A000024803F094FDF8E7A80E0020F47D00083C
:1018B00010B50A46034C2146034803F088FD204634
:1018C00010BD00BFA80E00200C7E000808B50A4617
:1018D00028B90549054803F07AFD034808BD0249C7
:1018E000024803F074FDF8E7A80E0020207E0008EF
:1018F00008B50A4628B90549054803F068FD0348BC
:1019000008BD0249024803F062FDF8E7A80E002076
:101910002C7E0008032805D8DFE800F00504020546
:10192000012070470320704702680E4B9A4200D096
:10193000704700B583B003F5DA339A6D42F40002C4
:101940009A659B6D03F400030193019B002206211D
:10195000142000F0D7F9142000F0E4F903B05DF88A
:1019600004FB00BF005C004008B500F52671D0F80C
:10197000D80203F0C5F808BD08B501EB810300EB00
:10198000C303D3F86421D0F8D80203F0E5F808BD0A
:1019900008B501EB810300EBC3035A6AD0F8D80203
:1019A00003F016F908BD08B5D0F8D80203F0B6F96F
:1019B00008BD10B504464379022B09D10121D4F8A2
:1019C000D80203F091F9D4F8D80203F060F910BD01
:1019D000FFF762F9F2E7000010B50446D0F8D8022C
:1019E00003F085F9637A23B1044A136943F00603CF
:1019F0001361034B00221A7010BD00BF00ED00E020
:101A0000C812002008B5437A23B1054A136923F0B0
:101A100006031361D0F8D80203F073F908BD00BFC4
:101A200000ED00E010B503461C48C0F8D832C3F8FA
:101A3000C4021B4B03600823037102234371C3716B
:101A400001230372002343728372C37200F006FB0A
:101A500008BB124C142300221146204601F032FA32
:101A6000542300228021204601F02CFA94230022E6
:101A70008121204601F026FAD423002201212046AC
:101A800001F020FA4FF48A7300228221204601F0EF
:101A900019FA002010BDFFF7FFF8DAE7CC1200209A
:101AA000005C004008B5D0F8C40200F032FBFFF73C
:101AB00031FF08BD08B594461A466346D0F8C40203
:101AC00001F0C3F8FFF726FF08BD08B5D0F8C4023F
:101AD00001F0FEF8FFF71EFF08BD08B5D0F8C402FC
:101AE00001F078F9FFF716FF08BD08B5D0F8C40279
:101AF00001F0A9F9FFF70EFF08BDD0F8C43211F0CC
:101B0000800F08D101F07F0101EB810103EBC103DC
:101B100093F85201704701F07F0101EB810103EB63
:101B2000C103987C7047000008B5D0F8C40200F0EB
:101B3000A0FFFFF7EFFE024B01221A7008BD00BFA5
:101B4000C812002008B5D0F8C40201F01DF9FFF753
:101B5000E1FE08BD08B5D0F8C40201F0EFF8FFF7C8
:101B6000D9FE08BD08B5D0F8C40201F004F908BDDB
:101B700000487047A8100020704710B5FFF7D4F850
:101B80000446FFF735FA0440E4B2FFF76DFA04406B
:101B9000FFF7B2FA04400120FFF7B0FA204010BD71
:101BA000104B1B680BB90120704710B504464FF469
:101BB0007A70B0FBF3F30C4A1068B0FBF3F000F05E
:101BC000B5F868B90F2C01D901200AE0002221469E
:101BD0004FF0FF3000F096F8044B1C60002000E04E
:101BE000012010BD88010020000000208C01002091
:101BF00010B5032000F074F80F20FFF7D1FF10B1EB
:101C00000124204610BD0446FFF7AEF8F9E70000B6
:101C1000034A1368034909680B441360704700BF07
:101C2000A815002088010020014B1868704700BFEC
:101C3000A815002038B50446FFF7F6FF0546B4F1B5
:101C4000FF3F02D0044B1B681C44FFF7EDFF401B15
:101C5000A042FAD338BD00BF88010020002807DB6E
:101C600000F01F02400901239340024A42F820304D
:101C7000704700BF00E100E0002808DB0901C9B29D
:101C800000F1604000F5614080F80013704700F0FB
:101C90000F000901C9B2014B1954704714ED00E05F
:101CA00000B500F00700C0F1070CBCF1040F28BF1D
:101CB0004FF0040C031D062B0FD9C31E4FF0FF3E3F
:101CC0000EFA0CF021EA000199400EFA03FE22EA16
:101CD0000E0241EA02005DF804FB0023EEE700007B
:101CE000074AD36823F4E0631B041B0C000200F4D2
:101CF000E060034343F0BF6343F40033D3607047B5
:101D000000ED00E010B50446054BD868C0F3022092
:101D1000FFF7C6FF01462046FFF7AEFF10BD00BF2C
:101D200000ED00E008B5FFF799FF08BD0138B0F1FC
:101D3000807F0BD24FF0E0235861054AF02182F8F2
:101D400023100020986107221A6170470120704714
:101D500000ED00E0F0B583B0002362E085685E002E
:101D60000324B44025EA0405CC68B4402C438460C5
:101D7000456825EA0C054C68C4F300149C402C43CC
:101D800044605FE0DD08083550F8254003F0070C9B
:101D90004FEA8C0C4FF00F0E0EFA0CFE24EA0E0EDA
:101DA0000C6904FA0CF444EA0E0440F8254060E0A3
:101DB000052400E0002404FA0EF42C430CF1020C7C
:101DC000554D45F82C40554CA568D44325EA0206EC
:101DD0004F6817F4801F01D042EA05064F4DAE60F0
:101DE000ED6804EA05064F6817F4001F01D042EAC7
:101DF00005064A4DEE606D6804EA05064F6817F463
:101E0000003F01D042EA0506444D6E602D682C402B
:101E10004E6816F4803F01D042EA05043F4A146040
:101E200001330A6832FA03F474D04FF0010C0CFA53
:101E300003FC1CEA0202F3D04C6804F00304013CEA
:101E4000012C8BD94C6804F00304032C0CD0C4681B
:101E50005D004FF0030C0CFA05FC24EA0C0C8C68B6
:101E6000AC4044EA0C04C4604C6804F00304022C47
:101E700088D004684FEA430E4FF0030C0CFA0EFCB6
:101E800024EA0C0C4C6804F0030404FA0EF444EA4F
:101E90000C0404604C6814F4403FC1D0204C256E03
:101EA00045F001052566246E04F001040194019CAF
:101EB0004FEA930C0CF10205174C54F8255003F02F
:101EC000030E4FEA8E0E0F2404FA0EF425EA0405E1
:101ED000B0F1904F3FF46EAF124CA04212D004F517
:101EE0008064A04210D004F58064A0420ED004F5B6
:101EF0008064A0420CD004F58064A0423FF458AF47
:101F0000062458E7012456E7022454E7032452E745
:101F1000042450E703B0F0BD00000140000401407C
:101F200000100240000400480AB1816170478162DC
:101F30007047436901EA030221EA030141EA0241D1
:101F40008161704738B512F4804F43D00468B4F80B
:101F5000503091F800C04FEACC0E1EFA83F32344B0
:101F6000B3F80244C4F309048B69A34228D31B1BB2
:101F70008B618B697BB9056835F82C309BB223F4F3
:101F8000804323F0700383F4005343F4004343F091
:101F9000800325F82C3012F0400F0ED002680D7827
:101FA00032F825309BB223F4E04323F0700343F46E
:101FB000004343F0C00322F8253024B9204638BD41
:101FC00000238B61D5E723460A894969006802F03E
:101FD0003CFDF3E70468B4F8503091F800C04FEAD4
:101FE000CC0E1EFA83F32344B3F80644C4F3090469
:101FF0008B69A3422FD31B1B8B618B697BB905684F
:1020000035F82C309BB223F4804323F0700383F423
:10201000005343F4004343F0800325F82C3012F0C2
:10202000400F0FD1026891F800C032F82C309BB2FB
:1020300023F4E04323F0700343F4004343F0C00370
:1020400022F82C30002CB9D023464A89496900680F
:1020500002F0FBFCB2E700238B61CEE7002856D0EC
:1020600010B5044690F891323BB1032384F89132C5
:10207000206801F0FBFD002315E080F89032FFF7A7
:1020800053FCF2E703EB830204EBC202012151741B
:1020900013740021D17411625162013303EB830286
:1020A000D200A150DBB220799842EBD8002316E091
:1020B00003EB830204EBC202002182F8511182F883
:1020C000503182F85311C2F86011C2F8641103EB69
:1020D000830204EBC202C2F868110133DBB29842FA
:1020E000E6D8234653F8040B93E8060001F0C8FD38
:1020F00000232373012384F89132A37A012B01D0AA
:10210000002010BD204600F0F9FE0020F9E7012074
:10211000704790F89032012B0ED010B50446012381
:1021200080F89032006801F098FD206802F0AAF96A
:10213000002084F8900210BD0220704770B505465B
:102140000C46164612F0400F00F020810268B2F8EB
:10215000503009784FEAC10C1CFA83F31344B3F8EA
:102160000224C2F30902A36993422CD99B1AA361EA
:10217000A06958B316F4804F0DD0286830F821308C
:102180009BB223F4E04323F0700343F4404343F055
:10219000800320F8213094F82430012B00F08D804A
:1021A0002A68217832F821309BB223F4E04323F0EF
:1021B000400383F0300343F4004343F0800322F8EC
:1021C0002130002070BD0023A361D1E76378002B8C
:1021D00048D12A68B2F8503012FA83F36344B3F856
:1021E0000224C2F30902A3F80224B3F802246FEA1E
:1021F00042426FEA524292B2A3F802242A686378FC
:10220000002B3BD1B2F8503012FA83F3227803EB63
:10221000C203B3F80624C2F30902A3F80624B3F8F4
:1022200006246FEA42426FEA524292B2A3F80624B1
:10223000E378022B2FD021782846FFF7A9FB16F46C
:10224000804FBED02A68217832F821309BB223F427
:10225000E04323F0700343F4404343F0800322F84B
:102260002130AEE7012BC9D12A68B2F8503012FAFA
:1022700083F363440022A3F80224BFE7012BD7D1E4
:10228000B2F8503012FA83F3227803EBC203002233
:10229000A3F80624CCE72A68217832F821309BB2D3
:1022A00023F4E04323F0400383F0200343F400438E
:1022B00043F0800322F82130BDE763691344636172
:1022C000E3691344E361216A236999421DD3C91A62
:1022D00021626278002A44D12968B1F8502011FAAD
:1022E00082F2217802EBC102B2F80214C1F30901B3
:1022F000A2F80214ABB9B2F802146FEA41416FEAD6
:10230000514189B2A2F802142DE021B9002384F8CA
:1023100024301346DDE7002384F8243023620B4683
:10232000D7E73E2B0DD8590813F0010F00D001312B
:10233000B2F8020480B2890289B20143A2F8021401
:1023400011E0580913F01F0F00D10138B2F8021440
:1023500089B2800280B2014341F40041A2F8021424
:1023600001E0012A06D09BB222896169286802F047
:1023700098F815E72968B1F8502011FA82F221780F
:1023800002EBC10299B2A2F80214ECE70268B2F8BB
:1023900050300978C80010FA83F31344B3F80624C8
:1023A000C2F30902A369934246D39B1AA361A369AE
:1023B000002B44D016F4804F0DD1286830F821301E
:1023C0009BB223F4E04323F0700343F4404343F013
:1023D000800320F8213094F82430012B7FF4E0AE04
:1023E000636913446361E3691344E361216A236908
:1023F0009942C0F09C80C91A216229686278002A3B
:1024000040F0C180B1F8502011FA82F2217802EB3D
:10241000C102B2F80614C1F30901A2F80614002B98
:1024200040F09180B2F806146FEA41416FEA5141E1
:1024300089B2A2F80614A8E00023A361B7E7637885
:10244000002B49D12A68B2F8503012FA83F30344C2
:10245000B3F80224C2F30902A3F80224B3F8022459
:102460006FEA42426FEA524292B2A3F802242A680B
:102470006378002B3CD1B2F8503012FA83F3227803
:1024800003EBC203B3F80624C2F30902A3F806243F
:10249000B3F806246FEA42426FEA524292B2A3F8BE
:1024A0000624E378022B30D021782846FFF770FA13
:1024B00016F4804F7FF485AE2A68217832F82130F7
:1024C0009BB223F4E04323F0700343F4404343F012
:1024D000800322F8213074E6012BC8D12A68B2F8B3
:1024E000503012FA83F303440022A3F80224BEE71B
:1024F000012BD6D1B2F8503012FA83F3227803EBD5
:10250000C2030022A3F80624CBE72A68217832F818
:1025100021309BB223F4E04323F0400383F02003F7
:1025200043F4004343F0800322F82130BCE721B993
:10253000002384F8243013465FE70023236284F8E5
:1025400024300B4659E73E2B0DD8590813F0010FE4
:1025500000D00131B2F8060480B2890289B2014389
:10256000A2F8061411E0580913F01F0F00D101382A
:10257000B2F8061489B2800280B2014341F40041EE
:10258000A2F8061401E0012A06D09BB262896169B3
:10259000286801F086FF03E6B1F8502011FA82F2B4
:1025A000217802EBC10299B2A2F80614EDE72DE9F9
:1025B000F04105462868B0F8443013F4004F00F0AD
:1025C0005582B0F84440A3B214F00F0440F09F804D
:1025D00013F0100F4AD003889AB213F4006F75D12C
:1025E00012F4004FE6D0038823F070031B051B0D87
:1025F00043F0800303802868B0F8503095F85021EC
:10260000D20012FA83F30344B3F80634C3F3090388
:10261000C5F86C318BB1D5F8641171B1B5F856219C
:1026200002F013FAD5F86431D5F86C211344C5F8DB
:10263000643100212846FFF79FF92A68138899B270
:1026400013F4006FB6D101F44051B1F5405FB1D041
:1026500013889BB223F4804323F0700383F4405328
:1026600043F4004343F080031380A3E703889BB245
:1026700023F4E14323F070036FEA43436FEA5343CB
:102680009BB203802968B1F850302A7CD20012FA3C
:1026900083F30B44B3F80234C3F30903EB626A6AB1
:1026A0001A446A6200212846FFF772F92B7B002B3F
:1026B00080D0AB6A002B7FF47DAF2B7B2A6843F080
:1026C0008003A2F84C3000232B7373E7B0F850302E
:1026D00095F85021D20012FA83F30344B3F806347C
:1026E000C3F30903C5F86C31B5F8562105F5267119
:1026F00002F0ABF92A68138823F070031B051B0D49
:1027000043F0800313802846FFF72EF952E730F894
:1027100024309EB213F4004F4ED116F0800F3FF4D8
:1027200049AF04EB8401C900103129442A6832F80A
:1027300024309BB223F4E14323F070036FEA434358
:102740006FEA53439BB222F8243004EB840305EB79
:10275000C303DB7C012B00F0E98016F4807F40F09E
:1027600080812868B0F8503004EB840205EBC20287
:10277000167CF20012FA83F30344B3F80234C3F375
:102780000903621C02EB820255F832209A4240F2A1
:102790004B81671C07EB8707D21A45F83720621C6C
:1027A00002EB820255F83220002A40F04481314683
:1027B0002846FFF7EDF8FDE630F8243023F07003EB
:1027C0001B051B0D43F0800320F8243004EB84012B
:1027D000C90001F5A87105EB010804EB840305EBC2
:1027E000C30393F85C31002B40D12868B0F8503017
:1027F00004EB840205EBC20292F85021D20012FAD7
:1028000083F30344B3F80674C7F3090717BB04EB5B
:10281000840305EBC303D3F86C213A44C3F86C215D
:10282000D3F864213A44C3F86421D3F868313BB14A
:1028300004EB840305EBC303D3F860319F4270D2ED
:1028400004EB840305EBC30393F850112846FFF70C
:1028500093F862E704EB840105EBC1013B46B1F854
:102860005621D1F8641102F0F0F8D0E704EB8403AC
:1028700005EBC30393F85331022B33D0296804EBE3
:10288000840205EBC20292F8500131F820309BB26D
:1028900023F4E04323F0700343F4004343F0C00308
:1028A00021F82030286892F8503130F8232012F4B3
:1028B000804F1ED0B0F85020DB0013FA82F303449F
:1028C000B3F80274C7F30907002FA0D004EB84010A
:1028D00005EBC1013B46B1F85821D1F8641102F073
:1028E000B4F894E7324641462846FFF72BFB0746EB
:1028F0008DE7B0F85020DB0013FA82F30344B3F8FD
:102900000674C7F30907002F81D004EB840105EB9F
:10291000C1013B46B1F85A21D1F8641102F095F893
:1029200075E74146286801F0CEFDF6E6631C03EB2F
:102930008303DB000022EA5004EB840305EBC303AE
:102940001B7F1BB316F0400F3BD004EB840305EB59
:10295000C3035B7C1BBB2A68B2F8503012FA83F3C6
:1029600004EB840205EBC202127C03EBC203B3F852
:102970000224C2F30902A3F80224B3F802246FEA86
:1029800042426FEA524292B2A3F8022404EB84045A
:1029900005EBC404217C2846FEF7FAFF0AE6012B6A
:1029A000F4D12A68B2F8503012FA83F304EB8402AF
:1029B00005EBC202127C03EBC2030022A3F802243F
:1029C000E4E72A6804EB840305EBC3035B7CD3B91B
:1029D000B2F8503012FA83F304EB840205EBC20222
:1029E000127C03EBC203B3F80624C2F30902A3F876
:1029F0000624B3F806246FEA42426FEA524292B2CA
:102A0000A3F80624C2E7012BC0D1B2F8503012FA65
:102A100083F304EB840205EBC202127C03EBC203D6
:102A20000022A3F80624B1E7621C02EB8202D20066
:102A30000027AF50B3E604EB840205EBC202566AEE
:102A40001E445662013404EB840205EBC202526854
:102A500004EB840405EBC4041344636001F033FD0C
:102A6000A8E532462846FFF769FBA3E50020BDE84C
:102A7000F08190F89032012B0CD010B50446012360
:102A800080F890320173006801F0F6FC002084F8B1
:102A9000900210BD0220704710B50446006801F096
:102AA000FCFC10F4004F23D110F4806F24D110F4FB
:102AB000804F32D110F4005F39D110F4805F40D1E3
:102AC00010F4006F67D110F0800F40F0818010F497
:102AD000007F40F0AD8010F4807F27D02268B2F8EC
:102AE00044309BB223F480739BB2A2F844301DE0C3
:102AF0002046FFF75CFD19E02268B2F844309BB233
:102B000023F480639BB2A2F844302046FEF751FFC5
:102B100000212046FFF7ADFF08E02268B2F84430FC
:102B20009BB223F480439BB2A2F8443010BD2268CC
:102B3000B2F844309BB223F400539BB2A2F8443065
:102B4000F4E72268B2F840309BB223F004039BB252
:102B5000A2F840302268B2F840309BB223F008035C
:102B60009BB2A2F8403094F8C832012B0CD020461A
:102B7000FEF748FF2268B2F844309BB223F480533A
:102B80009BB2A2F84430D1E7002184F8C812204655
:102B900000F0CAF9EBE72268B2F840309BB243F08C
:102BA0000803A2F840302268B2F844309BB223F404
:102BB00000639BB2A2F844302268B2F840309BB266
:102BC00043F00403A2F840302046FEF705FFADE7CE
:102BD0002268B2F844309BB223F080039BB2A2F883
:102BE000443094F8C832FBB92268B2F840309BB246
:102BF00043F00403A2F840302268B2F840309BB2A0
:102C000043F00803A2F84030012184F8C812236879
:102C1000B3F85430C3F38D0303F03C03C4F8CC3253
:102C2000204600F081F981E72046FEF7D5FE7DE7DA
:102C30002268B2F844309BB223F400739BB2A2F82E
:102C400044302046FEF7AFFE70E710B50446084654
:102C500011F0800F27D101F0070C0CEB8C01C9009B
:102C600001F5A87E04EB0E010CEB8C0C04EBCC0CF4
:102C70004FF0000E8CF851E100F007000870C2F32D
:102C80000A020A61CB70022B1DD094F89032012BFE
:102C90001CD0012384F89032206801F002F8002053
:102CA00084F8900210BD01F0070C0CEB8C01C900F8
:102CB000103121440CEB8C0C04EBCC0C4FF0010ECA
:102CC0008CF811E0D8E700230B71DEE70220E9E77A
:102CD00010B504460A4611F0800F1FD101F007001D
:102CE00000EB8003DB0003F5A873E11800EB800024
:102CF00004EBC000002380F8513102F007020A7093
:102D000094F89032012B17D0012384F89032206878
:102D100001F054FA002084F8900210BD01F0070081
:102D200000EB8003DB001033E11800EB800004EBC4
:102D3000C00001234374E0E70220EEE710B501F084
:102D4000070C0CEB8C01C90001F5A8710CEB8C0E83
:102D500000EBCE0ECEF86421CEF868310024CEF818
:102D60006C418EF851418EF850C10144006801F069
:102D7000AAFB204610BD01F0070101EB810100EB29
:102D8000C100D0F86C01704738B501F0070C0CEBAE
:102D90008C01C90010310CEB8C0E00EBCE0ECEF87E
:102DA00024200CF1010202EB820440F834300125AA
:102DB0008EF83450CEF8303000EBC402002454605A
:102DC0008EF811508EF810C00144006801F07BFBB2
:102DD000204638BD0B4601F00702017991422ED3FF
:102DE00010B5044613F0800F1DD103EB8301C90019
:102DF00001F5A871014403EB830300EBC30300203A
:102E000083F8510101238B700A7094F89032012BE2
:102E100017D0012384F89032206801F0BAFA00201C
:102E200084F8900210BD02EB8201C9001031014408
:102E300002EB820300EBC30301205874E2E7012098
:102E400070470220EEE70B46017903F00F02914232
:102E500034D310B5044613F0800F21D103F00702DC
:102E600002EB8201C90001F5A871014402EB820264
:102E700000EBC202002082F8510100228A7003F0A8
:102E800007030B7094F89032012B19D0012384F8BA
:102E90009032206801F0A2FA002084F8900210BD60
:102EA00003F0070202EB8201C9001031014402EB7A
:102EB000820200EBC20201205074DEE7012070475D
:102EC0000220ECE711F0800F0BD001F0070101EBBD
:102ED0008101C9001031084452B90273C380002037
:102EE000704701EB8101C90001F5A8710844F3E7BF
:102EF0000122027303811B0C4381F0E70346026841
:102F00000121C0F8D012002083F8C802B2F8543072
:102F10009BB20B43A2F85430B2F854309BB243F04A
:102F20000203A2F85430704770470000024A136849
:102F300043F480731360704700700040002836D15E
:102F40003E4B1B6803F4C063B3F5806F08D03B4A67
:102F5000D2F8803023F48073C2F8803000207047AC
:102F6000364AD2F8803023F48073C2F88030136878
:102F700023F4C06343F400731360314B1B683222A7
:102F800002FB03F32F4AA2FB03239B0C013300E057
:102F9000013B2A4A526912F4806F01D0002BF7D10D
:102FA000264B5B6913F4806F44D100207047B0F565
:102FB000007F08D0214A136823F4C06343F4806380
:102FC0001360002070471D4B1B6803F4C063B3F50A
:102FD000806F08D0194AD2F8803043F48073C2F869
:102FE000803000207047154AD2F8803043F4807357
:102FF000C2F88030136823F4C06343F40073136095
:103000000F4B1B68322202FB03F30E4AA2FB032381
:103010009B0C013300E0013B084A526912F4806FB7
:1030200001D0002BF7D1054B5B6913F4806F03D1FE
:103030000020704703207047032070470070004055
:103040000000002083DE1B43024A936843F4804360
:103050009360704700700040124BDA6802F0030280
:10306000DB68C3F303130133032A11D00E48B0FB0E
:10307000F3F00C4BDB68C3F3062303FB00F0094BB2
:10308000DB68C3F3416301335B00B0FBF3F07047CF
:103090000648B0FBF3F0034BDB68C3F3062303FBE6
:1030A00000F0ECE7001002400024F40000127A0067
:1030B000002800F04F8270B582B00446036813F018
:1030C000010F37D0A44A936803F00C03D26802F0D2
:1030D00003020C2B23D0082B23D06368B3F5803F69
:1030E0004ED0B3F5A02F51D09B4B1A6822F48032FA
:1030F0001A601A6822F480221A606368002B52D08A
:10310000FEF792FD0546944B1B6813F4003F11D166
:10311000FEF78AFD401B6428F5D9032023E2032A29
:10312000D9D18D4B1B6813F4003F03D06368002B8B
:1031300000F01282236813F0020F5DD0864A936874
:1031400003F00C03D26802F003020C2B3AD0042BDC
:103150003AD0E368002B75D07F4A136843F480733C
:103160001360FEF761FD05467B4B1B6813F4806F0F
:103170005FD1FEF759FD401B0228F5D90320F2E18B
:10318000754A136843F480331360B6E703F1804354
:10319000A3F53C331A6842F480221A601A6842F49C
:1031A00080321A60A9E7FEF73FFD05466A4B1B68AF
:1031B00013F4003FBED0FEF737FD401B6428F5D95D
:1031C0000320D0E1022AC2D1634B1B6813F4806F45
:1031D00003D0E368002B00F0C1815F4A536823F0FD
:1031E000FE43216943EA016353605C4B1868FEF7B4
:1031F000D7FC002840F0B481236813F0080F4CD0AE
:1032000063699BB3544AD2F8943043F00103C2F887
:103210009430FEF709FD05464F4BD3F8943013F078
:10322000020F3AD1FEF700FD401B0228F4D903201B
:1032300099E1494A536823F0FE43216943EA016357
:103240005360D9E7444A136823F480731360FEF790
:10325000EBFC0546404B1B6813F4806FCCD0FEF7A7
:10326000E3FC401B0228F5D903207CE13A4AD2F85E
:10327000943023F00103C2F89430FEF7D5FC0546E4
:10328000354BD3F8943013F0020F06D0FEF7CCFC88
:10329000401B0228F4D9032065E1236813F0040FD2
:1032A00000F081802C4B9B6D13F0805F36D12A4B50
:1032B0009A6D42F080529A659B6D03F080530193A2
:1032C000019B0125264B1B6813F4807F28D0A3683F
:1032D000012B39D0052B45D01F4BD3F8902022F07D
:1032E0000102C3F89020D3F8902022F00402C3F822
:1032F0009020A368002B43D0FEF796FC0646164BA1
:10330000D3F8903013F0020F4CD1FEF78DFC801BE8
:1033100041F288339842F2D9032024E10025D1E715
:103320000F4A136843F480731360FEF77DFC064672
:103330000B4B1B6813F4807FC9D1FEF775FC801B13
:103340000228F5D903200EE1034AD2F8903043F069
:103350000103C2F89030CCE7001002408C0100203D
:1033600000700040884BD3F8902042F00402C3F86C
:103370009020D3F8902042F00102C3F89020B8E7E3
:10338000FEF752FC0646804BD3F8903013F0020F44
:1033900008D0FEF749FC801B41F288339842F2D9ED
:1033A0000320E0E0E5B9236813F0200F35D0A369CE
:1033B000E3B1754AD2F8983043F00103C2F898306F
:1033C000FEF732FC0546704BD3F8983013F0020F2D
:1033D00023D1FEF729FC401B0228F4D90320C2E0C8
:1033E000694A936D23F080539365DCE7664AD2F80F
:1033F000983023F00103C2F89830FEF715FC05461B
:10340000614BD3F8983013F0020F06D0FEF70CFC96
:10341000401B0228F4D90320A5E0E369002B00F04B
:10342000A180594A926802F00C020C2A64D0022B47
:1034300013D0554A136823F080731360FEF7F4FB32
:103440000446514B1B6813F0007F4ED0FEF7ECFB97
:10345000001B0228F5D9032085E04B4A136823F0AE
:1034600080731360FEF7E0FB0546474B1B6813F0C3
:10347000007F06D0FEF7D8FB401B0228F5D90320B9
:1034800071E0414AD36841491940236A606A0138B2
:1034900043EA0013A06A43EA0023206B4008013886
:1034A00043EA4053606B4008013843EA4063E06AF6
:1034B00043EAC0631943D160136843F0807313601B
:1034C000D36843F08073D360FEF7AEFB04462E4B07
:1034D0001B6813F0007F06D1FEF7A6FB001B022835
:1034E000F5D903203FE000203DE0274AD168284B72
:1034F0000B40D360002036E0012B36D0224BDB6836
:1035000003F00301226A914231D103F0F002616AB3
:103510000139B2EB011F2CD103F4FE42A16AB2EBD8
:10352000012F28D103F07842E16AB2EBC16F24D1B8
:1035300003F4C001226B5208013AB1EB425F1ED185
:1035400003F0C063626B5208013AB3EB426F18D1CB
:10355000002008E001207047012004E0012002E083
:10356000012000E0002002B070BD0120FBE7012037
:10357000F9E70120F7E70120F5E70120F3E7012053
:10358000F1E70120EFE700BF001002400C809F012F
:10359000FCFFEEFE1E4B9B6803F00C03042B33D0A4
:1035A0001B4B9B6803F00C03082B2FD0184B9B6818
:1035B00003F00C030C2B01D000207047144BDA6889
:1035C00002F00302DB68C3F303130133032A11D0B3
:1035D0001048B0FBF3F00E4BDB68C3F3062303FB8C
:1035E00000F00B4BDB68C3F3416301335B00B0FBBE
:1035F000F3F070470848B0FBF3F0054BDB68C3F30A
:10360000062303FB00F0ECE70248704702487047CE
:10361000001002400024F40000127A00002800F09C
:10362000E680F8B50C460546744B1B6803F00F03A3
:103630008B420BD2714A136823F00F030B431360C4
:10364000136803F00F038B4240F0D3802E6816F00E
:1036500001065FD06B68032B2FD0022B4DD0684B37
:103660001B6813F4806F00F0C680FFF793FF654B73
:1036700098424DD9624A936823F0F00343F08003E7
:10368000936080265E4A936823F0030369680B43C6
:103690009360FEF7C9FA0746594B9B6803F00C0389
:1036A0006A68B3EB820F35D0FEF7BEFAC01B41F259
:1036B00088339842F0D9032078E0514B1B6813F00F
:1036C000007F01D1012071E0FFF7C6FC4D4B98420D
:1036D0001AD94B4B9B6813F0F00F05D02E6816F0EB
:1036E0000206CFD0AB688BB9454A936823F0F0034C
:1036F00043F0800393608026C4E7414B1B6813F4BA
:10370000003FB2D1012051E00026BBE70026B9E717
:103710000026B7E72B6813F0020F48D013F0040F10
:1037200004D0374A936843F4E06393602B6813F046
:10373000080F06D0324A936823F47C5343F4E063C5
:1037400093602F4A936823F0F003A9680B439360BA
:103750002A4B1B6803F00F03A34230D82B6813F0E9
:10376000040F06D0264A936823F4E063E9680B430C
:1037700093602B6813F0080F07D0214A936823F455
:103780006053296943EAC1039360FFF703FF1C4BB1
:103790009B68C3F303131C4AD35C03F01F03D84098
:1037A0001A4B18601A4B1868FEF7FAF9F8BD802E0C
:1037B000CED1134A936823F0F0039360C8E70F4A11
:1037C000136823F00F0323431360FEF72DFA064618
:1037D0000A4B1B6803F00F03A342BFD0FEF724FA85
:1037E000801B41F288339842F2D90320DEE70120A2
:1037F00070470120DAE70120D8E700BF002002402F
:103800000010024000B4C404AC7D00080000002099
:103810008C010020F0B583B00446036813F4002F38
:1038200069D0AE4B9B6D13F0805F1ED1AB4B9A6D90
:1038300042F080529A659B6D03F080530193019B87
:103840000126A74A136843F480731360FEF7ECF96E
:103850000546A34B1B6813F4807F08D1FEF7E4F9FB
:10386000401B0228F5D9032502E00026E9E70025E0
:1038700045BB9A4BD3F8903013F4407315D0226CAB
:103880009A4212D0954AD2F8903023F44073D2F87D
:10389000901041F48031C2F89010D2F8901021F4C9
:1038A0008031C2F89010C2F8903013F0010F10D19F
:1038B00045B98A4AD2F8903023F44073216C0B4307
:1038C000C2F89030C6B1854A936D23F0805393655A
:1038D00012E0FEF7A9F90746804BD3F8903013F0B9
:1038E000020FE5D1FEF7A0F9C01B41F288339842E0
:1038F000F2D90325DCE70025236813F0010F08D077
:10390000764AD2F8883023F0030361680B43C2F88B
:103910008830236813F0020F08D0704AD2F888303C
:1039200023F00C03A1680B43C2F88830236813F01E
:10393000040F08D0694AD2F8883023F03003E168D8
:103940000B43C2F88830236813F0080F08D0634A8D
:10395000D2F8883023F0C00321690B43C2F88830C5
:10396000236813F0200F08D05C4AD2F8883023F483
:10397000406361690B43C2F88830236813F0400F3D
:1039800008D0564AD2F8883023F44053A1690B433B
:10399000C2F88830236813F0800F08D04F4AD2F85D
:1039A000883023F44043E1690B43C2F88830236830
:1039B00013F4807F08D0494AD2F8883023F440338A
:1039C000216A0B43C2F88830236813F4007F08D0C3
:1039D000424AD2F8883023F44023616A0B43C2F88C
:1039E0008830236813F4806F0CD03C4AD2F88830BA
:1039F00023F44013A16A0B43C2F88830A36AB3F5DD
:103A0000801F57D0236813F4006F0CD0334AD2F8CC
:103A1000883023F44003E16A0B43C2F88830E36A3C
:103A2000B3F5800F4BD0236813F4805F0CD02B4A82
:103A3000D2F8883023F04073216B0B43C2F88830F2
:103A4000236BB3F1807F3FD0236813F4005F0CD069
:103A5000224AD2F8883023F04063616B0B43C2F8EE
:103A60008830636BB3F1006F33D0236813F4804F59
:103A70000CD01A4AD2F8883023F04063A16B0B4374
:103A8000C2F88830A36BB3F1006F2BD0236813F416
:103A9000004F0CD0114AD2F8883023F04053E16B2C
:103AA0000B43C2F88830E36BB3F1805F1FD0284628
:103AB00003B0F0BDD36843F48013D360A2E7D368AA
:103AC00043F48013D360AEE7D36843F48013D3602C
:103AD000BAE7D36843F48013D360C6E7001002400E
:103AE00000700040D36843F48013D360CEE7D368FE
:103AF00043F48033D360DAE738B5044603680A4AF2
:103B0000DA60FEF791F805462368DB6813F0200FB2
:103B100007D1FEF789F8401BB0F57A7FF4D903206E
:103B200000E0002038BD00BF5F00010070B50368F1
:103B3000DA6812F0400F02D00025284670BD044616
:103B4000DA6842F08002DA60FEF76EF80646002579
:103B50002368DB6813F0400FEFD1032DEDD0FEF7A3
:103B600063F8831BB3F57A7FF2D9032584F82550D7
:103B7000EEE710B504460268D36823F08003D360F3
:103B800003689A6912F0200F06D1FFF7B5FF90B1D4
:103B9000032084F825000EE09A6922F020029A6141
:103BA000FFF7AAFF10B1032084F82500226893696B
:103BB00043F02003936110BD00284CD038B5044673
:103BC00090F8253063B1022384F825302368DA6841
:103BD00012F0100F09D00020012384F8253038BDE1
:103BE00080F82430FDF760FAEDE7CA225A622368B4
:103BF00053225A622046FFF799FF28B12368FF221B
:103C00005A620028EBD1E7E72268936923F08E63BC
:103C100023F04003936121688A6963682069034344
:103C2000A069034313438B61E368A168226843EAF8
:103C3000014313612046FFF79CFF0028DED1216875
:103C40008B6923F06043226AE5692A4365692A4348
:103C500013438B61D2E70120704703460020A3F88D
:103C600044004BF68072A3F840207047B0F8403013
:103C700023F47E535B045B0CA0F8403000207047B7
:103C800082B0034602A800E906000122A3F8402002
:103C90000020A3F84000A3F84400A3F8500002B0AD
:103CA000704710B5034691F800C030F82C2092B24E
:103CB00022F4EC4222F0700292B2C878032861D854
:103CC000DFE800F0555C0258002048F2800E42EA1E
:103CD0000E0223F82C2091F800C033F82C2092B269
:103CE00022F4E04222F070024CEA020242EA0E02A2
:103CF00023F82C200A7B002A40F0DC804A78002A36
:103D000051D0B3F8502013FA82F20C7802EBC402BF
:103D1000B1F806C04FEA5C0C4FEA4C0CA2F800C4A4
:103D20000C7833F8242012F0400F0CD033F8242004
:103D300092B222F4E04222F0700242F4004242F0D9
:103D4000C00223F82420CA78012A1DD0097833F84C
:103D5000212092B222F4E04222F0400282F02002BE
:103D600042F4004242F0800223F82120C3E142F4F1
:103D70000072AAE742F4C0620020A6E742F4806223
:103D80000020A2E70120A0E7097833F8212092B2B1
:103D900022F4E04222F0400242F4004242F080026B
:103DA00023F82120A7E1B3F8502013FA82F20C780F
:103DB00002EBC402B1F806C04FEA5C0C4FEA4C0CAF
:103DC000A2F804C4B3F8502013FA82F20C7802EB84
:103DD000C402B2F806C4CCF3090CA2F806C40C69FC
:103DE00074BBB2F806C46FEA4C4C6FEA5C4C1FFA25
:103DF0008CFCA2F806C40C7833F8242012F4804F0F
:103E00000CD033F8242092B222F4E04222F0700267
:103E100042F4404242F0800223F824200978C9BBD2
:103E200033F8212092B222F4804222F0700282F410
:103E3000405242F4004242F0800223F821205AE12D
:103E40003E2C12D84FEA540C14F0010F01D00CF1A3
:103E5000010CB2F80644A4B24FEA8C2C1FFA8CFC79
:103E600044EA0C04A2F80644C5E74FEA541C14F0D7
:103E70001F0F01D10CF1FF3CB2F80644A4B24FEA87
:103E80008C2C1FFA8CFC44EA0C0444F40044A2F885
:103E90000644B0E733F8212092B222F4804222F0A7
:103EA000700282F4005242F4004242F0800223F891
:103EB000212020E1CA78022A74D091F800C033F89A
:103EC0002C2092B222F4E24222F0700242F400422C
:103ED00042F0800223F82C20B3F8502013FA82F22B
:103EE00091F800C002EBCC02B1F808C04FEA5C0CBC
:103EF0004FEA4C0CA2F800C4B3F8502013FA82F237
:103F000091F800C002EBCC02B1F80AC04FEA5C0C99
:103F10004FEA4C0CA2F804C44A78002A40F0F7801B
:103F20000C7833F8242012F4804F0CD033F824207E
:103F300092B222F4E04222F0700242F4404242F097
:103F4000800223F824200C7833F8242012F0400F4C
:103F50000CD033F8242092B222F4E04222F0700216
:103F600042F4004242F0C00223F824204A78002A9A
:103F700051D1B3F8502013FA82F20C7802EBC4024C
:103F8000B2F80244C4F30904A2F802440C69C4B9AB
:103F9000B2F802446FEA44446FEA5444A4B2A2F86F
:103FA00002443AE00C7833F8242092B222F4E04242
:103FB00022F0700242F4014242F0800223F82420F1
:103FC0008AE73E2C12D84FEA540C14F0010F01D0AE
:103FD0000CF1010CB2F80244A4B24FEA8C2C1FFA87
:103FE0008CFC44EA0C04A2F8024416E04FEA541C8C
:103FF00014F01F0F01D10CF1FF3CB2F80244A4B23F
:104000004FEA8C2C1FFA8CFC44EA0C0444F4004464
:10401000A2F8024401E0012A1BD04A78002A4DD1BF
:10402000B3F8502013FA82F20C7802EBC402B2F813
:104030000644C4F30904A2F806440C69A4B9B2F812
:1040400006446FEA44446FEA5444A4B2A2F806441A
:1040500036E0B3F8502013FA82F20C7802EBC40277
:104060000C8AA2F80244D8E73E2C12D84FEA540C2E
:1040700014F0010F01D00CF1010CB2F80644A4B207
:104080004FEA8C2C1FFA8CFC44EA0C04A2F806447C
:1040900016E04FEA541C14F01F0F01D10CF1FF3C45
:1040A000B2F80644A4B24FEA8C2C1FFA8CFC44EA06
:1040B0000C0444F40044A2F8064401E0012A1BD099
:1040C00091F800C033F82C2092B222F4804222F002
:1040D000700282F4405248F28004224323F82C20DC
:1040E000097833F8212092B222F4E04222F0400213
:1040F000224323F8212010BDB3F8502013FA82F296
:104100000C7802EBC4020C8AA2F80644D8E70C78BB
:1041100033F8242012F4804F0CD033F8242092B2CC
:1041200022F4E04222F0700242F4404242F0800267
:1041300023F824200C7833F8242012F0400F0CD000
:1041400033F8242092B222F4E04222F0700242F4CA
:10415000004242F0C00223F82420CA78012A1ED06F
:104160000C7833F8242092B222F4E04222F040028C
:1041700082F0200242F4004242F0800223F8242020
:10418000097833F8212092B222F4804222F07002A2
:1041900042F4004242F0800223F82120ABE70C7881
:1041A00033F8242092B222F4E04222F0400242F49A
:1041B000004242F0800223F82420E1E70B7B002B31
:1041C00046D14B7813B30A7830F8223013F0400F01
:1041D0000CD030F822309BB223F4E04323F070037C
:1041E00043F4004343F0C00320F822300A7830F84B
:1041F00022309BB223F4E04323F0400343F4004316
:1042000043F0800320F82230002070470A7830F80D
:10421000223013F4804F0CD030F822309BB223F4BC
:10422000E04323F0700343F4404343F0800320F85D
:1042300022300A7830F822309BB223F4804323F0F6
:10424000700343F4004343F0800320F82230DBE79F
:104250004B78002B4ED10A7830F8223013F4804F7F
:104260000CD030F822309BB223F4E04323F07003EB
:1042700043F4404343F0800320F822300A7830F8BA
:10428000223013F0400F0CD030F822309BB223F4D0
:10429000E04323F0700343F4004343F0C00320F8ED
:1042A00022300A7830F822309BB223F4E04323F026
:1042B000700343F4004343F0C00320F822300A782F
:1042C00030F822309BB223F4804323F0700348F28D
:1042D000800C43EA0C0320F822300A7830F82230B0
:1042E0009BB223F4E04323F0400343EA0C0320F89D
:1042F000223089E70A7830F8223013F4804F0CD04E
:1043000030F822309BB223F4E04323F0700343F4EF
:10431000404343F0800320F822300A7830F82230FE
:1043200013F0400F0CD030F822309BB223F4E0435E
:1043300023F0700343F4004343F0C00320F822301D
:104340000A7830F822309BB223F4E04323F0700364
:1043500043F4404343F0800320F822300A7830F8D9
:1043600022309BB223F4E04323F0400348F2800C58
:1043700043EA0C0320F822300A7830F822309BB24E
:1043800023F4804323F0700343EA0C0320F8223027
:104390003AE74B788BB10A7830F822309BB223F49D
:1043A000E04323F0400383F0100343F4004343F061
:1043B000800320F82230002070470A7830F822303D
:1043C0009BB223F4804323F0700383F4805343F4BF
:1043D000004343F0800320F82230ECE74B7833B3FE
:1043E0000A7830F8223013F0400F0CD030F8223029
:1043F0009BB223F4E04323F0700343F4004343F003
:10440000C00320F82230CB78012B33D00A7830F863
:1044100022309BB223F4E04323F0400383F02003D7
:1044200043F4004343F0800320F8223022E00A786E
:1044300030F8223013F4804F0CD030F822309BB289
:1044400023F4E04323F0700343F4404343F080033C
:1044500020F822300A7830F822309BB223F48043CF
:1044600023F0700383F4405343F4004343F080038C
:1044700020F822300020704711B98023A0F84C307A
:1044800000207047B0F858306FEA43436FEA534357
:104490009BB2A0F8583000207047B0F8440080B2BA
:1044A000704701335B08024402F5806208E0087837
:1044B00091F801C040EA0C2022F8020B0231013BC6
:1044C000002BF4D1704770B505460C464B78012B94
:1044D0001AD00B7B002B40F092828B69002B40F0AE
:1044E0006582CB78002B40F061820A7830F8223068
:1044F0009BB223F4E04323F0700343F4014343F001
:10450000800320F822305FE28E690A69964200D962
:104510001646217B41B3E178022947D0226A921BDB
:104520002262227835F8221011F0400F00F0F68157
:10453000002B40F0E381B5F8503015FA83F303EB1C
:10454000C202B2F80634C3F30903A2F80634002EFF
:1045500040F0B481B2F806346FEA43436FEA534344
:104560009BB2A2F80634D2E1B6B23346E288616962
:104570002846FFF796FFB5F8503015FA83F32278F6
:1045800003EBC203A3F80264227835F822309BB211
:1045900023F4E04323F0400383F0300343F400436B
:1045A00043F0800325F82230002024E2236A9A4257
:1045B00080F06681227835F822309BB223F4E04304
:1045C00023F0700343F4014343F0800325F82230C5
:1045D000236A9B1B2362237835F8232012F0400FB7
:1045E00000F0A7806278B2BBB5F8502015FA82F2CD
:1045F00002EBC303B3F80624C2F30902A3F80624AE
:104600004EB9B3F806246FEA42426FEA524292B2C0
:10461000A3F8062421E03E2E0DD8720816F0010FF3
:1046200000D00132B3F8061489B2920292B20A4362
:10463000A3F8062411E0710916F01F0F00D101390B
:10464000B3F8062492B2890289B20A4342F40042C6
:10465000A3F8062401E0012A29D0B3B26289616976
:104660002846FFF71EFF636933446361236A2269AA
:10467000934226D99B1B23626378002B45D1B5F862
:10468000503015FA83F3227803EBC203B3F8022407
:10469000C2F30902A3F80224BEB9B3F802246FEAF8
:1046A00042426FEA524292B2A3F802242FE0B5F8D8
:1046B000502015FA82F202EBC303B2B2A3F806242B
:1046C000CBE7002222621E46D6E73E2E0DD87208A6
:1046D00016F0010F00D00132B3F8021489B2920231
:1046E00092B20A43A3F8022411E0710916F01F0FD9
:1046F00000D10139B3F8022492B2890289B20A4387
:1047000042F40042A3F8022401E0012B06D0B3B228
:10471000228961692846FFF7C4FE35E7B5F85030B5
:1047200015FA83F3227803EBC203B2B2A3F8022492
:10473000EDE76278B2BBB5F8502015FA82F202EBD1
:10474000C303B3F80224C2F30902A3F802244EB94A
:10475000B3F802246FEA42426FEA524292B2A3F8DF
:10476000022421E03E2E0DD8720816F0010F00D071
:104770000132B3F8021489B2920292B20A43A3F84A
:10478000022411E0710916F01F0F00D10139B3F8AE
:10479000022492B2890289B20A4342F40042A3F889
:1047A000022401E0012A29D0B3B222896169284696
:1047B000FFF777FE636933446361236A226993429A
:1047C00026D99B1B23626378002B45D1B5F8503066
:1047D00015FA83F3227803EBC203B3F80624C2F37D
:1047E0000902A3F80624BEB9B3F806246FEA4242D0
:1047F0006FEA524292B2A3F806242FE0B5F8502097
:1048000015FA82F202EBC303B2B2A3F80224CBE79B
:10481000002222621E46D6E73E2E0DD8720816F000
:10482000010F00D00132B3F8061489B2920292B29D
:104830000A43A3F8062411E0710916F01F0F00D1F6
:104840000139B3F8062492B2890289B20A4342F4CC
:104850000042A3F8062401E0012B06D0B3B262891E
:1048600061692846FFF71DFE8EE6B5F8503015FA4F
:1048700083F3227803EBC203B2B2A3F80624EDE778
:10488000217835F8212092B222F4E24222F070021F
:1048900042F4004242F0800225F82120B5F8502071
:1048A00015FA82F2217802EBC1029BB2A2F802341F
:1048B000228961692846FFF7F4FD65E63E2E0DD892
:1048C000730816F0010F00D00133B2F8061489B254
:1048D0009B029BB20B43A2F8063418E0710916F054
:1048E0001F0F00D10139B2F806349BB2890289B298
:1048F0000B4343F40043A2F8063408E0B5F8503007
:1049000015FA83F303EBC203B2B2A3F80624B3B2E1
:10491000628961692846FFF7C4FD35E6B3BBB5F887
:10492000503015FA83F303EBC202B2F80234C3F33A
:104930000903A2F802344EB9B2F802346FEA4343D5
:104940006FEA53439BB2A2F8023428E03E2E0DD802
:10495000730816F0010F00D00133B2F8021489B2C7
:104960009B029BB20B43A2F8023418E0710916F0C7
:104970001F0F00D10139B2F802349BB2890289B20B
:104980000B4343F40043A2F8023408E0B5F850307A
:1049900015FA83F303EBC203B2B2A3F80224B3B255
:1049A000228961692846FFF77CFDEDE5227835F81C
:1049B00022309BB223F4E24323F0700343F400431C
:1049C00043F0800325F82230A3692269934213D96A
:1049D0009B1AA361227835F822309BB223F48043DE
:1049E00023F0700383F4405343F4004343F0800307
:1049F00025F82230002070BD0023A361EAE7CB78C0
:104A0000022B04D0012B1ED100238B61E2E7CB697E
:104A1000002BDFD00A7830F8221044F2400303EA7A
:104A200001008B4301D00028D4D135F822309BB24D
:104A300023F4E04323F0700343F4004343F0C00346
:104A400025F82230C6E70120D5E710B45C080244FF
:104A500002F5806207E032F8020B0870C0F307200D
:104A600048700231013C002CF5D113F0010F01D048
:104A700013880B705DF8044B704798B108B5034676
:104A80000020C3F8B802C3F8C002C3F8CC0209B1D1
:104A9000C3F8B412012183F89C121A701846FCF76F
:104AA000C1FF08BD0320704710B582B00023ADF8E8
:104AB000063061B10446C0F8B812CB6A4BB10DF1B3
:104AC00006009847C4F8CC02002002B010BD0320B5
:104AD000FBE70020F9E708B5FCF7E4FF08BD08B5DF
:104AE000D0F8B83213B11B68984708BD0320FCE723
:104AF00008B5D0F8B8320BB15B689847002008BD04
:104B000038B5044600F2AA25284600F02FF9012303
:104B1000C4F89432B4F8B032C4F8983294F8AA12B7
:104B200001F01F03012B0DD0022B10D02BB101F08F
:104B300080012046FCF7D1FF03E02946204600F023
:104B4000E4FA38BD2946204600F017FBF9E729466C
:104B5000204600F046FBF4E738B504460D4641BB5D
:104B60001346D0F89422032A01D0084638BDD0F865
:104B70005C11D0F86021914209D890F89C32DBB2E8
:104B8000032B0FD0204600F06BFC2846EEE7891A75
:104B9000C0F85C118A4228BF0A46194600F058FC4A
:104BA0002846E3E7D0F8B8321B69002BEAD09847D3
:104BB000E8E790F89C32DBB2032B01D00020D5E768
:104BC000D0F8B8329B690BB19847CFE70020CDE70A
:104BD00038B504460D4600294AD11346D0F8942230
:104BE000022A05D094F8A032012B3CD0284638BDCB
:104BF000C269016A8A420ED88A4218D094F89C325F
:104C0000DBB2032B27D080212046FCF766FF20462D
:104C100000F031FCE6E7521AC261194600F001FCCF
:104C200000231A4619462046FCF794FFDAE7836909
:104C30009942E3D8D0F898229342DFD2002211465D
:104C400000F0EFFB0021C4F898120B460A462046FC
:104C5000FCF780FFC6E7D4F8B832DB68002BD2D06F
:104C600020469847CFE7002384F8A0322846BEE7C5
:104C700090F89C32DBB2032B01D00020B7E7D0F8CC
:104C8000B8325B690BB19847B1E70020AFE7012369
:104C900080F89C320023C0F894324360C0F8A432FC
:104CA000D0F8B832F3B170B50446D0F8BC221AB1CE
:104CB0005B680BB100219847402300221146204633
:104CC000FCF7F8FE0126A4F864614025C4F86051A1
:104CD0002B46002280212046FCF7ECFEA6842562AC
:104CE000002070BD0320704701740020704790F8C9
:104CF0009C32DBB280F89D32042380F89C32002085
:104D0000704790F89C32DBB2042B01D00020704732
:104D100090F89D32DBB280F89C32F7E7D0F8B822E9
:104D200062B108B590F89C32DBB2032B01D00020B1
:104D300008BDD36923B198470020F9E703207047E5
:104D40000020F5E70346002002E00130C0B2013345
:104D50001A78002AF9D1704708B54B88012B00D08A
:104D600008BDC0F8A43200F07BFBF9E70B780370B4
:104D70004B7843708B78CA7843EA022343800B79DF
:104D80004A7943EA022383808B79CA7943EA022372
:104D9000C380704710B504468021FCF79EFE0021B9
:104DA0002046FCF79AFE10BD30B583B004460D4690
:104DB0000023ADF806304A88130A013B0E2B00F29F
:104DC000BC80DFE803F0153044BABA9EABBABABA79
:104DD000BABABABA0800D0F8B432DB6923B10DF11F
:104DE0000601007C98470AE02946FFF7D3FF18E048
:104DF000D0F8B4321B680DF10601007C9847EA88B0
:104E0000002A00F0A380BDF80630002B00F0998046
:104E10009A4228BF1A46ADF806200146204600F007
:104E2000F3FA03B030BD037C43B9D0F8B8329B6AC3
:104E30000DF10600984702234370E0E7D0F8B8323E
:104E4000DB6A0DF10600984702234370D7E7D2B220
:104E5000052A52D8DFE802F003101D2A3744D0F8A3
:104E6000B4325B6823B10DF10601007C9847C6E7B8
:104E70002946FFF78FFFD4E7D0F8B4329B6823B1FF
:104E80000DF10601007C9847B9E72946FFF782FF3C
:104E9000C7E7D0F8B432DB6823B10DF10601007C1E
:104EA0009847ACE72946FFF775FFBAE7D0F8B43268
:104EB0001B6923B10DF10601007C98479FE7294645
:104EC000FFF768FFADE7D0F8B4325B6923B10DF1AD
:104ED0000601007C984792E72946FFF75BFFA0E7B1
:104EE000D0F8B4329B6923B10DF10601007C9847DC
:104EF00085E72946FFF74EFF93E72946FFF74AFF6C
:104F00008FE7037C33B9D0F8B8325B6B0DF1060044
:104F1000984774E72946FFF73DFF82E7037C43B9D2
:104F2000D0F8B8321B6B0DF1060098470723437089
:104F300065E72946FFF72EFF73E72946FFF72AFFAB
:104F40006FE729462046FFF725FF6AE7204600F075
:104F500087FA66E738B504468B88FBB9CB88EBB98E
:104F60004B887F2B1AD803F07F0590F89C32DBB278
:104F7000032B0CD080F89E522946FCF7D5FD204625
:104F800000F06EFA35B1022384F89C3209E0FFF795
:104F900001FF06E0012384F89C3202E02046FFF77F
:104FA000F9FE38BD70B504460E468D782E4B1D7047
:104FB000012D10D890F89C32DBB2022B0FD0032BBE
:104FC00023D0FFF7E7FE284B19782046FFF790FD26
:104FD0000325284670BDFFF7DDFE0325F9E78DB1F7
:104FE00045602946FFF77BFD054620B13146204646
:104FF000FFF7D0FEEDE7204600F032FA032384F8F5
:105000009C32E6E700F02CFAE3E7CDB141688D422F
:1050100025D0C9B2FFF76CFD134B197861602046AB
:10502000FFF75DFD0546B0B131462046FFF7B2FE01
:1050300021792046FFF75CFD022384F89C32C8E703
:10504000022380F89C3245602946FFF751FD204637
:1050500000F006FABDE7204600F002FAB9E700F0DA
:10506000FFF90025B5E700BFAC15002008B5CB88D7
:10507000012B0BD190F89C32DBB2022B09D9032B08
:1050800009D10122011D00F0BFF901E0FFF782FE06
:1050900008BD5BB213B9FFF77DFEF9E701460023B7
:1050A00041F8083F012200F0AFF9F1E708B590F8A8
:1050B0009C32013B022B12D8CB88022B0CD101234E
:1050C000C360D0F8A4320BB10323C360022200F105
:1050D0000C0100F099F908BDFFF75CFEFBE7FFF754
:1050E00059FEF8E708B590F89C32013B022B09D82D
:1050F0004B88012B00D008BD0023C0F8A43200F07B
:10510000AFF9F8E7FFF746FEF5E738B50C7804F09D
:105110006004202C06D0402C04D054B1FFF73AFE96
:10512000002404E0D0F8B8329B6898470446204633
:1051300038BD4D78092D1DD8DFE805F012191C1671
:105140001C08051C0F0BFFF72FFEF0E7FFF702FF0F
:10515000EDE7FFF727FF0446E9E7FFF787FFE6E7FC
:10516000FFF7A4FF2C46E2E7FFF7F6FDDFE7FFF7C6
:10517000B9FFDCE7FFF70EFED9E770B505460C4630
:105180000B7803F06003202B07D0402B05D023B110
:10519000FFF700FE0026304670BD95F89C32013BBB
:1051A000022B18D82379012B0FD8D5F8B8329B6879
:1051B0002146284698470646E388002BEBD1002875
:1051C000E9D1284600F04CF9E5E721462846FFF7EB
:1051D000E1FD0026DFE721462846FFF7DBFD00263C
:1051E000D9E7F8B506460D468B880C7804F06004C4
:1051F000202C08D0D9B2402C05D06CB12946FFF73D
:10520000C9FD002406E0D6F8B8329B68294630462E
:10521000984704462046F8BD6F78012F2FD0032F02
:1052200005D0002F59D02946FFF7B4FDF2E790F8DA
:105230009C32DBB2022B05D0032B12D02946FFF79C
:10524000A9FDE7E709B1802904D129463046FFF7D7
:10525000A1FDDFE7FCF741FC80213046FCF73DFC77
:10526000D8E76B8823B919B1802901D0EB881BB12D
:10527000304600F0F5F8CDE7FCF72FFCF8E790F8A2
:105280009C32DBB2022B05D0032B12D02946FFF74C
:1052900081FDBFE709B1802904D129463046FFF7D7
:1052A00079FDB7E7FCF719FC80213046FCF715FCC7
:1052B000B0E76B88002BADD111F07F0F0AD13046DB
:1052C00000F0CEF8D6F8B8329B68294630469847A9
:1052D00004469FE7FCF709FCF1E790F89C22D2B264
:1052E000022A06D0032A29D02946FFF753FD3C465F
:1052F00090E709B1802913D113F0800F15D101F087
:105300007F0101EB8101890001F5A871314404316D
:1053100000230B600222304600F076F83C4679E725
:105320002946FFF737FD3C4674E701F07F0101EBAA
:1053300081018900103131440431E9E75BB2002B6F
:105340001FDB01F00F0202EB820200EB8202B2F8D7
:10535000642122B3002B27DB01F07F0303EB8303DF
:105360009C0004F5A8743444043409B1802924D184
:105370000023236002222146304600F045F83C46D7
:1053800048E701F00F0202EB820200EB8202928CEE
:10539000002ADFD12946FFF7FDFC3C463AE72946C3
:1053A000FFF7F8FC3C4635E701F07F0303EB83038E
:1053B0009C00103434440434D7E73046FCF79DFB9E
:1053C00010B101232360D5E700232360D2E7D0B1D9
:1053D00070B50D4616460446FFF7B4FC431C5B004F
:1053E0009BB233802B7003236B70022307E0EA54D7
:1053F00001345A1CD2B20021A9540233DBB2227804
:10540000002AF4D170BD704708B513460222C0F8D7
:1054100094228361C3610A460021FCF793FB0020BC
:1054200008BD08B513460A460021FCF78BFB002097
:1054300008BD08B513460322C0F89422C0F85831BD
:10544000C0F85C310A460021FCF784FB002008BD4F
:1054500008B513460A460021FCF77CFB002008BD76
:1054600008B50422C0F8942200231A461946FCF716
:1054700069FB002008BD08B50522C0F8942200236E
:105480001A461946FCF766FB002008BD2DE9FF47C8
:1054900057EC106B002F0C4619463B46BBBF07F17B
:1054A00000431F4600232D230B700D9BDDF830A019
:1054B000914623F02008BCBF32461646B8F1460F8D
:1054C00005D0B8F1450F00D10134022100E00321DD
:1054D00003AB019302AB009347EC106B534622469B
:1054E00000F03AFEB8F1470F054619D119F0010F47
:1054F0000ED000EB04090022002330463946FBF7AA
:105500000BFB08B1CDF80C903022039B4B451ED30A
:10551000039B0E9A5B1B2846136004B0BDE8F0871E
:10552000B8F1460F00EB0409E5D10378302B0AD11E
:105530000022002330463946FBF7EEFA18B9C4F1D1
:105540000104CAF80040DAF800309944D3E7591C46
:1055500003911A70D9E7F7B50029BABF49422D2344
:105560002B2309290270437029DD0DF107031D4625
:105570000A271A46B1FBF7F607FB1614303402F877
:10558000014C0C46632C03F1FF333146F1DC303122
:10559000941E03F8011C411C2346AB420AD30DF1B3
:1055A00009039B1AAC4288BF002302330344181A34
:1055B00003B0F0BD13F8016B01F8016FEDE7302384
:1055C00030318370C170031DF1E700002DE9F04F09
:1055D0008DB00C46DDF8588016461F46054600F093
:1055E000BBFC036804931846FAF76AFE00230A938B
:1055F000D8F800300590073323F0070303F10802C1
:1056000094F818A0D4F800B0C8F80020D3E90089B5
:1056100029F000430793CDF81880C4E91289DDE929
:1056200006019C4B4FF0FF32FBF7A8FA70BBDDE997
:105630000601984B4FF0FF32FBF782FA30BB002295
:10564000002340464946FBF771FA10B12D2384F838
:105650004330914A914BBAF1470F94BF9046984618
:10566000032323612BF0040323604FF0000900970C
:1056700033460BAA2146284600F0D2F9013040F00B
:105680008D804FF0FF300DB0BDE8F08F42464B46A5
:1056900040464946FBF772FA40B14B46002BBCBF6F
:1056A0002D2384F843307E4A7E4BD4E763680AF0AA
:1056B000DF0206925A1C3BD1062363604BF48062E2
:1056C0000023226003930AABCDE901A309AB009349
:1056D000616849EC108B0DF123032846FFF7D6FED5
:1056E000069B0999472B804629D1C81C02DB6368B9
:1056F000994241DDAAF1020A5FFA8AFA013952465B
:1057000004F150000991FFF726FF0A9A1318012AA5
:105710008146236102DC2268D20701D5013323616F
:105720009DF82330002BA2D02D2384F843309EE730
:10573000069A472AC2D1002BC0D10123BDE7BAF196
:10574000650FDBD9BAF1660F18D1002963680BDD4C
:10575000216113B92268D00702D501330B442361BC
:10576000A1654FF00009DBE713B92268D20701D524
:105770000233F4E70123F2E74FF0670A0A9B9942EC
:1057800005DB23682161D807EAD54B1CE7E7002930
:10579000D4BFC1F1020201221344E0E723685A0595
:1057A00007D42369424631462846B84701302BD1F9
:1057B00067E7BAF1650F40F2DD80D4E912010022FB
:1057C0000023FBF7A9F9002833D0374A01233146DB
:1057D0002846B84701303FF454AFDDE90938434566
:1057E00002DB2368D8070FD5DDE9042331462846BC
:1057F000B84701303FF445AF4FF0000908F1FF38DA
:1058000004F11A0AC84509DC23689B0700F10381EB
:10581000E0680B9B9842B8BF184634E70123524614
:1058200031462846B84701303FF42BAF09F1010952
:10583000E8E7099B002B39DC1B4A01233146284647
:10584000B84701303FF41DAFDDE9093959EA0303D8
:1058500002D12368D907D7D5DDE90423314628468C
:10586000B84701303FF40DAF4FF0000A04F11A0BB6
:10587000099B5B42534501DC4B4693E701235A46A3
:1058800031462846B84701303FF4FBAE0AF1010A21
:10589000EEE700BFFFFFEF7F3A7E00083E7E000884
:1058A000427E0008467E00084A7E0008A36DDDF8AF
:1058B00028A05345A8BF5346002B994636DC4FF02D
:1058C000000B29EAE97904F11A02A36D0693A3EB10
:1058D00009035B4531DC099B9A453ADC2368DA070A
:1058E00037D4099BAAEB0309069BAAEB030399454E
:1058F000A8BF9946B9F1000F33DC4FF0000829EA40
:10590000E97904F11A0B099BAAEB0303A3EB090342
:1059100043457FF779AF01235A4631462846B847B9
:1059200001303FF4AEAE08F10108ECE742463146E3
:105930002846B8470130C2D1A3E6012331462846A4
:105940000692B84701303FF49CAE069A0BF1010B6A
:10595000BBE7DDE9042331462846B8470130C0D112
:105960008FE6069A4B46424431462846B8470130F6
:10597000C3D186E6DDF828A0BAF1010F01DCDB0710
:1059800036D50123424631462846B84701303FF418
:1059900078AEDDE9042331462846B84701303FF4AC
:1059A00070AED4E91201002200230AF1FF3AFBF79E
:1059B000B3F8C0B9534608F1010231462846B8474A
:1059C00001300CD15DE601235A4631462846B847DE
:1059D00001303FF456AE08F10108D045F3DB4B46E9
:1059E00004F15002DFE64FF0000804F11A0BF4E76F
:1059F00001234246E1E701234A4631462846B8479B
:105A000001303FF43EAE08F10108E3680B995B1AE0
:105A10004345F0DCFCE64FF0000804F11909F4E717
:105A20002DE9F047164698468A680B69DDF8209004
:105A30009342B8BF1346336091F8432007460C46A3
:105A40000AB1013333602368990642BF33680233D9
:105A50003360256815F0060506D104F1190AE368DC
:105A600032689B1AAB4226DC94F843302268003B34
:105A700018BF012392062BD404F143024146384655
:105A8000C84701301ED02368226903F00603042BA7
:105A900002BFE5683368ED1AA3680CBF25EAE57517
:105AA00000259342C4BF9B1AED1800261A34B54254
:105AB0001AD1002008E00123524641463846C84723
:105AC000013003D14FF0FF30BDE8F0870135C6E764
:105AD000E1185A1C302081F84300224494F8451004
