:020000040800F2
:1000000000800020792B0008191000081B10000840
:100010001D1000081F10000821100008000000003B
:10002000000000000000000000000000E1140008D3
:10003000231000080000000081150008E5150008E5
:10004000C92B0008C92B0008C92B0008C92B0008C0
:10005000C92B0008C92B0008C92B0008C92B0008B0
:10006000C92B0008C92B0008C92B0008C92B0008A0
:10007000C92B0008C92B0008C92B0008C92B000890
:10008000C92B000800000000C92B0008C92B00087C
:100090002D5000089D3F0008C92B0008C92B0008FF
:1000A000C92B0008C92B0008C92B0008C92B000860
:1000B000C92B0008C92B0008C92B0008C92B000850
:1000C00019480008C92B0008C92B0008C92B0008D3
:1000D000C92B0008C92B0008C92B0008C92B000830
:1000E000C92B0008C92B0008C92B0008C92B000820
:1000F000C92B0008C92B0008C92B0008000000000C
:1001000000000000C92B000800000000C92B0008F7
:10011000C92B00080000000085110008C92B000849
:10012000C92B0008C92B0008C92B0008C92B0008DF
:10013000C92B00080000000000000000C92B0008C7
:10014000C92B0008C92B00080000000000000000B7
:10015000000000000000000000000000000000009F
:10016000000000000000000000000000C92B000893
:10017000C92B000800000000000000000000000083
:1001800000000000C92B0008000000000000000073
:10019000000000000000000000000000000000005F
:1001A0000000000000000000C92B0008C92B000857
:1001B000C92B0008C92B0008C92B0008000000004B
:1001C00000000000C92B0008000000000000000033
:0801D000C92B0008C92B00082F
:1001E00010B5054C237833B9044B13B10448AFF371
:1001F00000800123237010BD680300200000000070
:10020000DCF9000808B5034B1BB103490348AFF301
:10021000008008BD000000006C030020DCF900082D
:1002200010F8012B11F8013B012A28BF9A42F7D0A0
:10023000D01A70470000000000000000000000001D
:1002400001F0FF01102A2BDB10F0070F08D010F887
:10025000013B013A8B422DD010F0070F42B3F6D18B
:10026000F0B441EA012141EA014122F007047FF0A4
:1002700000070023F0E80256083C85EA010586EAFB
:10028000010685FA47F5A3FA87F586FA47F6A5FA37
:1002900087F68EB9EED1F0BC01F0FF0102F0070243
:1002A00032B110F8013B013A83EA010313B1F8D1EE
:1002B0000020704701387047002D06BF35460338CF
:1002C000073815F0010F07D1013015F4807F02BF08
:1002D000013015F4C03F0130F0BC0138704700BF59
:1002E000034613F8012B002AFBD1181A0138704776
:1002F00081F0004102E000BF83F0004330B54FEAD7
:1003000041044FEA430594EA050F08BF90EA020F43
:100310001FBF54EA000C55EA020C7FEA645C7FEAD6
:10032000655C00F0E2804FEA5454D4EB5555B8BFF9
:100330006D420CDD2C4480EA020281EA030382EA6A
:10034000000083EA010180EA020281EA0303362DFC
:1003500088BF30BD11F0004F4FEA01314FF4801CCF
:100360004CEA113102D0404261EB410113F0004FE1
:100370004FEA03334CEA133302D0524263EB430398
:1003800094EA050F00F0A780A4F10104D5F1200E36
:100390000DDB02FA0EFC22FA05F2801841F1000191
:1003A00003FA0EF2801843FA05F359410EE0A5F165
:1003B00020050EF1200E012A03FA0EFC28BF4CF096
:1003C000020C43FA05F3C01851EBE37101F000454C
:1003D00007D54FF0000EDCF1000C7EEB00006EEB59
:1003E0000101B1F5801F1BD3B1F5001F0CD34908E3
:1003F0005FEA30004FEA3C0C04F101044FEA44523A
:1004000012F5800F80F09A80BCF1004F08BF5FEAC0
:10041000500C50F1000041EB045141EA050130BDA0
:100420005FEA4C0C404141EB0101013C28BFB1F5B2
:10043000801FE9D291F0000F04BF01460020B1FAFD
:1004400081F308BF2033A3F10B03B3F120020CDAD0
:100450000C3208DD02F1140CC2F10C0201FA0CF0AE
:1004600021FA02F10CE002F11402D8BFC2F1200C13
:1004700001FA02F120FA0CFCDCBF41EA0C019040C9
:10048000E41AA2BF01EB0451294330BD6FEA040412
:100490001F3C1CDA0C340EDC04F11404C4F12002FD
:1004A00020FA04F001FA02F340EA030021FA04F30F
:1004B00045EA030130BDC4F10C04C4F1200220FA66
:1004C00002F001FA04F340EA0300294630BD21FAA4
:1004D00004F0294630BD94F0000F83F4801306BF6A
:1004E00081F480110134013D4EE77FEA645C18BF5E
:1004F0007FEA655C29D094EA050F08BF90EA020FF5
:1005000005D054EA000C04BF1946104630BD91EAEC
:10051000030F1EBF0021002030BD5FEA545C05D1EF
:100520004000494128BF41F0004130BD14F580042E
:100530003CBF01F5801130BD01F0004545F0FE41A2
:1005400041F470014FF0000030BD7FEA645C1ABFD7
:10055000194610467FEA655C1CBF0B46024650EA0E
:10056000013406BF52EA033591EA030F41F400213A
:1005700030BD00BF90F0000F04BF0021704730B5C0
:100580004FF4806404F132044FF000054FF0000195
:1005900050E700BF90F0000F04BF0021704730B556
:1005A0004FF4806404F1320410F0004548BF40422B
:1005B0004FF000013EE700BF42004FEAE2014FEA80
:1005C00031014FEA02701FBF12F07F4393F07F4F5B
:1005D00081F06051704732F07F4208BF704793F05E
:1005E0007F4F04BF41F40021704730B54FF4607471
:1005F00001F0004521F000411CE700BF50EA010274
:1006000008BF704730B54FF000050AE050EA01021C
:1006100008BF704730B511F0004502D5404261EB8C
:1006200041014FF4806404F132045FEA915C3FF4CD
:10063000D8AE4FF003025FEADC0C18BF03325FEA6A
:10064000DC0C18BF033202EBDC02C2F1200300FA1B
:1006500003FC20FA02F001FA03FE40EA0E0021FA40
:1006600002F11444BDE600BF70B54FF0FF0C4CF42E
:10067000E06C1CEA11541DBF1CEA135594EA0C0FE0
:1006800095EA0C0F00F0DEF82C4481EA030621EA1B
:100690004C5123EA4C5350EA013518BF52EA033556
:1006A00041F4801143F4801338D0A0FB02CE4FF008
:1006B0000005E1FB02E506F00042E0FB03E54FF038
:1006C0000006E1FB03569CF0000F18BF4EF0010E30
:1006D000A4F1FF04B6F5007F64F5407404D25FEA2C
:1006E0004E0E6D4146EB060642EAC62141EA5551DF
:1006F0004FEAC52040EA5E504FEACE2EB4F1FD0C21
:1007000088BFBCF5E06F1ED8BEF1004F08BF5FEA9E
:10071000500E50F1000041EB045170BD06F0004650
:1007200046EA010140EA020081EA0301B4EB5C04FD
:10073000C2BFD4EB0C0541EA045170BD41F48011F5
:100740004FF0000E013C00F3AB8014F1360FDEBF1A
:10075000002001F0004170BDC4F10004203C35DAF6
:100760000C341BDC04F11404C4F1200500FA05F379
:1007700020FA04F001FA05F240EA020001F000421A
:1007800021F0004110EBD37021FA04F642EB060190
:100790005EEA430E08BF20EAD37070BDC4F10C04BA
:1007A000C4F1200500FA04F320FA05F001FA04F27E
:1007B00040EA020001F0004110EBD37041F100016A
:1007C0005EEA430E08BF20EAD37070BDC4F1200575
:1007D00000FA05F24EEA020E20FA04F301FA05F2DD
:1007E00043EA020321FA04F001F0004121FA04F285
:1007F00020EA020000EBD3705EEA430E08BF20EA55
:10080000D37070BD94F0000F0FD101F0004640008E
:1008100041EB010111F4801F08BF013CF7D041EA10
:10082000060195F0000F18BF704703F00046520014
:1008300043EB030313F4801F08BF013DF7D043EAE5
:100840000603704794EA0C0F0CEA135518BF95EA9B
:100850000C0F0CD050EA410618BF52EA4306D1D122
:1008600081EA030101F000414FF0000070BD50EA41
:10087000410606BF1046194652EA430619D094EACB
:100880000C0F02D150EA013613D195EA0C0F05D1B5
:1008900052EA03361CBF104619460AD181EA030109
:1008A00001F0004141F0FE4141F470014FF00000C1
:1008B00070BD41F0FE4141F4780170BD70B54FF05C
:1008C000FF0C4CF4E06C1CEA11541DBF1CEA1355DC
:1008D00094EA0C0F95EA0C0F00F0A7F8A4EB0504BE
:1008E00081EA030E52EA03354FEA013100F08880B5
:1008F0004FEA03334FF0805545EA131343EA12637E
:100900004FEA022245EA111545EA10654FEA002632
:100910000EF000419D4208BF964244F1FD0404F5EB
:10092000407402D25B084FEA3202B61A65EB030547
:100930005B084FEA32024FF480104FF4002CB6EB04
:10094000020E75EB030E22BFB61A754640EA0C0084
:100950005B084FEA3202B6EB020E75EB030E22BFC4
:10096000B61A754640EA5C005B084FEA3202B6EB05
:10097000020E75EB030E22BFB61A754640EA9C00C4
:100980005B084FEA3202B6EB020E75EB030E22BF94
:10099000B61A754640EADC0055EA060E18D04FEA52
:1009A000051545EA16754FEA06164FEAC30343EAF2
:1009B00052734FEAC2025FEA1C1CC0D111F4801FBF
:1009C0000BD141EA00014FF000004FF0004CB6E7B8
:1009D00011F4801F04BF01430020B4F1FD0C88BF57
:1009E000BCF5E06F3FF6AFAEB5EB030C04BFB6EB62
:1009F000020C5FEA500C50F1000041EB045170BD55
:100A00000EF0004E4EEA113114EB5C04C2BFD4EB81
:100A10000C0541EA045170BD41F480114FF0000E05
:100A2000013C90E645EA060E8DE60CEA135594EA81
:100A30000C0F08BF95EA0C0F3FF43BAF94EA0C0F84
:100A40000AD150EA01347FF434AF95EA0C0F7FF4F9
:100A500025AF104619462CE795EA0C0F06D152EA4D
:100A600003353FF4FDAE1046194622E750EA410631
:100A700018BF52EA43067FF4C5AE50EA41047FF442
:100A80000DAF52EA43057FF4EBAE12E74FF0FF3CA7
:100A900006E000BF4FF0010C02E000BF4FF0010C78
:100AA0004DF804CD4FEA410C7FEA6C5C4FEA430CF1
:100AB00018BF7FEA6C5C1BD001B050EA410C0CBF40
:100AC00052EA430C91EA030F02BF90EA020F0020A2
:100AD000704710F1000F91EA030F58BF994208BF09
:100AE00090422CBFD8176FEAE37040F001007047C6
:100AF0004FEA410C7FEA6C5C02D150EA013C07D11D
:100B00004FEA430C7FEA6C5CD6D152EA033CD3D067
:100B10005DF8040B704700BF8446104662468C4661
:100B20001946634600E000BF01B5FFF7B7FF002894
:100B300048BF10F1000F01BD4DF808EDFFF7F4FFBD
:100B40000CBF012000205DF808FB00BF4DF808ED48
:100B5000FFF7EAFF34BF012000205DF808FB00BF6B
:100B60004DF808EDFFF7E0FF94BF012000205DF88D
:100B700008FB00BF4DF808EDFFF7CEFF94BF012042
:100B800000205DF808FB00BF4DF808EDFFF7C4FF3B
:100B900034BF012000205DF808FB00BF4FEA410C84
:100BA0007FEA6C5C02D150EA013C0AD14FEA430C67
:100BB0007FEA6C5C02D152EA033C02D14FF00000A4
:100BC00070474FF0010070474FEA410212F50012E2
:100BD00015D211D56FF47873B3EB625212D94FEA84
:100BE000C12343F0004343EA505311F0004F23FA6E
:100BF00002F018BF404270474FF00000704750EAC3
:100C0000013005D111F0004008BF6FF0004070477F
:100C10004FF00000704700BF4A0011D212F50012D9
:100C200011D20DD56FF47873B3EB62520ED44FEA44
:100C3000C12343F0004343EA505323FA02F07047C4
:100C40004FF00000704750EA013002D14FF0FF3002
:100C500070474FF0000070474FEA4102B2F1E043A5
:100C600024BFB3F5001CDCF1FE5C0DD901F0004C93
:100C70004FEAC0024CEA5070B2F1004F40EB8300E3
:100C800008BF20F00100704711F0804F21D113F10F
:100C90003872BCBF01F00040704741F480114FEA48
:100CA0005252C2F11802C2F1200C10FA0CF320FAD1
:100CB00002F018BF40F001004FEAC1234FEAD323EE
:100CC00003FA0CFC40EA0C0023FA02F34FEA430358
:100CD000CCE77FEA625307D150EA01331EBF4FF0E1
:100CE000FE4040F44000704701F0004040F0FE40FC
:100CF00040F40000704700BF38B5002200230446CE
:100D00000D46FFF723FF28B920462946BDE83840A5
:100D100000F00AB8204605F1004100F005F8404215
:100D200061EB410138BD00BFD0B50C4B0022064637
:100D30000F46FFF799FCFFF76FFF0446FFF71AFC19
:100D4000074B0022FFF790FC02460B46304639461F
:100D5000FFF7D2FAFFF760FF2146D0BD0000F03D5B
:100D60000000F04138B51A4B1B78012B04D0022B40
:100D700013D14FF47A7501E04FF4FA7500F0C4F81E
:100D80000446144B1B68C31AAB4209D2114B5B6873
:100D9000E31AB3F5FA7F0DD238BD40F6B835EDE76A
:100DA0000C4B18600C4A136801331360002003F0E9
:100DB000E9FDEBE7074B5C6004F036F818B1012061
:100DC00003F0E0FDE8E7012003F0A0FDE4E700BF49
:100DD00095030020840300208C03002008B5FFF752
:100DE000C1FF0A2000F082F8F9E710B504460020A0
:100DF00004F007F8B0F5AF6F07D00123237004F0BB
:100E000013F808B90023237010BD02232370F6E7FE
:100E100010B50D4C2046FFF7E8FF0C4B1A782378ED
:100E20009A4205D10A4B187860B100221A7008E086
:100E3000064A1370002003F069FD012003F066FDEF
:100E4000002010BD0120FCE7940300209503002042
:100E50000000002010B588B04FF46141002002F07E
:100E600055F805230093032301220021084602F0D0
:100E70006BFC0021084603F0C1F900F0E7F900F02F
:100E8000BFF90B4B0B4A1A600DF10C0C0A4C0FCC3E
:100E9000ACE80F002368CCF80030002103A800F074
:100EA00000FA08B108B010BD044803F06FFEF9E77E
:100EB00090030020110E0008F8F9000820FA00083D
:100EC00008B502E0074800F0C3F9074B1B78012B77
:100ED000F8D0022B02D0FFF79BFFF6E7014800F0A5
:100EE00091F9F2E7900300209503002010B5044625
:100EF00001F01CFD012803D0204600F0ECF910BDE4
:100F0000204604F0D3FDFAE708B504F0C9FD08BD9A
:100F100072B6FEE710B5A4B03822002116A80BF077
:100F2000D1FF002411941294139414941594442224
:100F3000214668460BF0C6FF204607F0EBFD07F0A0
:100F4000E1FD214AD2F8903023F01803C2F8903026
:100F5000252316934FF480331793012218921C9285
:100F600002231D9303211E911F9228222092219378
:100F700004222292239316A807F0ECFEE8B90F236F
:100F800011930323129300231393149315930421B5
:100F900011A808F095F990B90C4B00930023069323
:100FA0004FF080720C920D934FF48073109368464B
:100FB00008F0B8FA28B924B010BDFFF7A9FFFFF771
:100FC000A7FFFFF7A5FF00BF001002404030080058
:100FD00008B504F049FDFFF79DFF012008BD0000A2
:100FE00000B583B00B4B1A6E42F001021A661A6EFE
:100FF00002F001020092009A9A6D42F080529A65C6
:101000009B6D03F080530193019B07F009FE03B031
:101010005DF804FB00100240FEE7FEE7FEE7FEE796
:10102000FEE770470120704708B50BF0DBFF162381
:1010300003604FF0FF3008BD08B54FF0FF31FFF7F8
:10104000F3FFFEE770B50C461646002506E0AFF349
:101050000080214601F8010B01350C46B542F6DB54
:10106000304670BD70B50C461646002504E014F8F5
:10107000010BAFF300800135B542F8DB304670BD9F
:101080004FF0FF3070474FF400534B600020704723
:10109000012070470020704710B503460C4A0D49E7
:1010A0000D48006840B10C4800680344521A93424E
:1010B00006D8094A136010BD0748084C0460F2E7DF
:1010C0000BF090FF0C2303604FF0FF30F3E700BFFD
:1010D000008000200004000098030020E85B00204E
:1010E000034AD2F8883043F47003C2F8883070475E
:1010F00000ED00E030B589B004461D4B9A6D42F01A
:1011000010029A659B6D03F010030193019B02A9E5
:1011100003A808F0E9F908F0D5F9164AA2FB002364
:101120009B0C013B1448154A026040F2E732C26052
:10113000436000230361836008F0C6FD054610B1DB
:10114000284609B030BD0C4808F01EFC05460028B2
:10115000F6D1362004F034FD0F2C01D90125EFE73C
:1011600000222146362004F01BFD054B1C60E7E7FA
:101170000010024083DE1B439C030020001000404F
:101180009C01002008B5024808F044FC08BD00BFDF
:101190009C03002008B50268034B9A4200D008BDAA
:1011A00004F072FCFBE700BF0010004008B504F03B
:1011B00013FCFFF74FFEFFF783FE08BD10B586B0A6
:1011C000FFF706FF0DF1040C0C4C0FCCACE80F0040
:1011D0002368CCF80030002101A800F062F820B1AB
:1011E00000F05AF8002006B010BD03F09FFB00206D
:1011F00003F0C8FB6420FFF779FEF8E70CFA00085B
:101200000120704710B504460D4803F0BFFC02E012
:101210000120FFF76BFE2368984768B1002003F0B8
:10122000C1FD0028F4D0002003F0C3FD02460549AB
:10123000002003F0CFFDEEE7034803F0A7FC10BD4C
:101240004CFA00085CFA000868FA000801207047B0
:1012500010B50446084803F099FC04E002F09EF83B
:101260000220FFF743FE236898470028F6D1034881
:1012700003F08CFC10BD00BF78FA000888FA000863
:10128000842801D00330704700207047EFF30580B9
:10129000003818BF0120704708B501F0D5F80020CC
:1012A00008BDF0B585B00C46456806680769B0F919
:1012B0000800FFF7E5FF03AB019300902346BAB2A5
:1012C0003146284601F090F8012802D1039805B074
:1012D000F0BD0020FBE708B500B9012001F002FADB
:1012E000002008BD08B5012000F070FD08BD30B534
:1012F00083B00023019310B30C460546FFF7C6FFE9
:10130000A0B101AA0021284600F097FE012818D1BB
:10131000019BC3B14FF0E0234FF08052C3F8042D7E
:10132000BFF34F8FBFF36F8F002006E021462846A2
:1013300000F0B0FD012808D1002003B030BD8020AE
:10134000FBE7FF20F9E70020F7E7FF20F5E710B5FE
:1013500082B0044600230193FFF798FF98B101A9DA
:10136000204600F03EFD01281AD1019BD3B14FF079
:10137000E0234FF08052C3F8042DBFF34F8FBFF32B
:101380006F8F002008E000231A461946204600F01F
:101390004DFC012802D0FF2002B010BD0020FBE769
:1013A000FF20F9E70020F7E700F1080343604FF062
:1013B000FF328260C3600361002303607047002333
:1013C0000361704743684B609A688A605160996016
:1013D0000861036801330360704730B40D68B5F1EC
:1013E000FF3F11D000F108031C465B681A68AA424F
:1013F000FAD963684B6099608C606160086103682A
:101400000133036030BC70470469F2E70369416847
:1014100082688A60416851605A68824206D0002220
:1014200002611A68013A1A601868704782685A6047
:10143000F5E7000082B0002301930D4B1B68B3F168
:10144000FF3F08D04FF0500383F31188BFF36F8F35
:10145000BFF34F8FFEE74FF0500383F31188BFF3C4
:101460006F8FBFF34F8F019B002BFCD002B07047F2
:101470000800002008480068006880F308884FF0E2
:10148000000080F3148862B661B6BFF34F8FBFF3DC
:101490006F8F00DF00BF000008ED00E0DFF80C00F8
:1014A000016841F4700101607047000088ED00E0C0
:1014B0004FF0807340F8043C21F0010140F8081C13
:1014C000054B40F80C3C40F8202C6FF0020340F82C
:1014D000243C4438704700BF351400080000000069
:1014E000074B19680868B0E8F04F80F30988BFF32C
:1014F0006F8F4FF0000080F311887047AFF30080CA
:10150000382500204FF0500383F31188BFF36F8F0D
:10151000BFF34F8F0B4A136801331360012B00D0C8
:1015200070474FF0E023D3F8043D13F0FF0FF7D0DE
:101530004FF0500383F31188BFF36F8FBFF34F8FCA
:10154000FEE700BF08000020094B1B6843B94FF0BD
:10155000500383F31188BFF36F8FBFF34F8FFEE704
:10156000013B034A13600BB983F31188704700BF36
:101570000800002000000000000000000000000043
:10158000EFF30980BFF36F8F154B1A681EF0100F31
:1015900008BF20ED108A20E9F04F10602DE9090006
:1015A0004FF0500080F31188BFF34F8FBFF36F8F60
:1015B00001F0BEF84FF0000080F3118809BC1968F3
:1015C0000868B0E8F04F1EF0100F08BFB0EC108AAA
:1015D00080F30988BFF36F8F704700BFAFF30080BF
:1015E0003825002008B54FF0500383F31188BFF36E
:1015F0006F8FBFF34F8F00F06DFF28B14FF0E023E6
:101600004FF08052C3F8042D002383F3118808BDE6
:101610004FF0E022002313619361054B1B680549DD
:10162000A1FB03139B09013B53610723136170471F
:1016300004000020D34D62104FF0E023D3F8002DBA
:101640003D4B9A421CD04FF0E023D3F8002D3B4B8A
:101650009A421ED030B583B0394B1A78D2B201927B
:10166000FF221A701B78DBB28DF803309DF803302F
:1016700003F05003334A1370334B07221A601BE008
:101680004FF0500383F31188BFF36F8FBFF34F8F79
:10169000FEE74FF0500383F31188BFF36F8FBFF362
:1016A0004F8FFEE7284A1368013B13609DF8033013
:1016B0005B00DBB28DF803309DF8033013F0800F30
:1016C000F0D1214B1B68032B08D04FF0500383F35C
:1016D0001188BFF36F8FBFF34F8FFEE71B021A4ACB
:1016E000136003F4E0631360019BDBB2144A1370D0
:1016F0004FF0E024D4F8203D43F47003C4F8203DBB
:10170000D4F8203D43F07043C4F8203DFFF780FF3C
:1017100000250E4B1D60FFF7C1FED4F8343F43F0A7
:101720004043C4F8343FFFF7A5FE01F001F8FFF78E
:1017300081FE284603B030BD71C20F4170C20F4117
:1017400000E400E0EC030020E80300200800002093
:10175000EFF305830F2B0FD9114A9B5CDBB2114AC3
:1017600012789A4208D94FF0500383F31188BFF3DF
:101770006F8FBFF34F8FFEE74FF0E023D3F80C3DA0
:1017800003F4E063084A1268934208D94FF050030B
:1017900083F31188BFF36F8FBFF34F8FFEE770475E
:1017A000F0E300E0EC030020E8030020124A12F00E
:1017B000070F1ED0D11D21F00701C1F500531344BE
:1017C0000A460E480260002141601344083B23F0A2
:1017D00007030B48036059601960991A5160136040
:1017E000084B1960084B1960084B4FF000421A6013
:1017F00070474FF40053E4E7100400200804002071
:1018000004040020FC03002000040020F00300205A
:10181000164B1A461B688342FBD3516802EB010C3E
:10182000844509D0416800EB010C634509D0036091
:10183000904219D0106070474068014451601046D2
:10184000F0E710B40A4C2468A3420BD05B6819443B
:10185000416013681B680360904200D010605DF81F
:10186000044B70470460F7E7704700BF080400208E
:101870000404002038B5044600F024FE384B1B68F1
:10188000B3B1384B1B681C4250D1002C50D004F12E
:10189000080214F0070F02D022F007020832002AD3
:1018A00055D0314B1B68934253D330490C6804E048
:1018B000FFF77CFFE5E721461C466368934202D2AE
:1018C0002368002BF7D1264B1B68A34243D00D6839
:1018D000083523680B6063689B1A102B10D9A01879
:1018E00010F0070F08D04FF0500383F31188BFF3B7
:1018F0006F8FBFF34F8FFEE743606260FFF788FF93
:10190000626819490B689B1A0B60194909688B4278
:1019100001D217490B60134B1B681343636000230C
:101920002360144A13680133136002E0002500E0CD
:10193000002500F05BFE15F0070F0ED04FF05003AE
:1019400083F31188BFF36F8FBFF34F8FFEE700253E
:10195000EFE70025EDE70025EBE7284638BD00BF9F
:1019600004040020F00300200004002008040020EC
:10197000FC030020F8030020002834D038B50446CA
:10198000A0F1080550F8043C174A1268134208D128
:101990004FF0500383F31188BFF36F8FBFF34F8F66
:1019A000FEE750F8081C41B14FF0500383F3118853
:1019B000BFF36F8FBFF34F8FFEE723EA020340F8B8
:1019C000043C00F07FFD54F8041C084A13680B44E3
:1019D00013602846FFF71CFF054A136801331360A4
:1019E00000F004FE38BD7047F00300200004002022
:1019F000F40300200346406A18B11B6B1868C0F15D
:101A00000700704710B50446FFF77CFDA26BE36B3F
:101A10009A4204D00024FFF797FD204610BD012410
:101A2000F9E710B50446FFF76DFDA36B23B9012458
:101A3000FFF78AFD204610BD0024F9E770B5044683
:101A40001546866B026C5AB903681BB1002001363B
:101A5000A66370BD806800F0CFFF0023A360F6E7A7
:101A60006DB940680BF0F3FA6368226C134463604D
:101A7000A268934219D3236863602846E7E7C068E9
:101A80000BF0E5FAE368226C51429B1AE36022688E
:101A9000934202D2A3680B44E360022D01D00020E0
:101AA000D5E726B1013E0020D1E72846CFE7002048
:101AB000CDE70346026C6AB110B50846D9681144F7
:101AC000D9609C68A14201D31968D960D9680BF02C
:101AD000BEFA10BD704738B50546FFF713FD95F8FF
:101AE000454064B201E0013C64B2002C0ADD6B6A3F
:101AF00043B105F1240000F07FFE0028F3D000F090
:101B00000FFFF0E7FF2385F84530FFF71DFDFFF7D6
:101B1000F9FC95F8444064B201E0013C64B2002C49
:101B20000ADD2B6943B105F1100000F065FE0028C5
:101B3000F3D000F0F5FEF0E7FF2385F84430FFF71F
:101B400003FD38BD38B5E0B10D460446FFF7DAFCB9
:101B50002368E26B216C01FB0230A0600020A063CF
:101B60006360013A02FB0133E360FF2384F84430F1
:101B700084F84530FDB9236963B9FFF7E5FC01201E
:101B800038BD4FF0500383F31188BFF36F8FBFF35D
:101B90004F8FFEE704F1100000F02EFE0028ECD07D
:101BA0004FF0E0234FF08052C3F8042DBFF34F8F66
:101BB000BFF36F8FE1E704F11000FFF7F5FB04F1CD
:101BC0002400FFF7F1FBD8E738B51D46049C0B460F
:101BD00049B92460E063236401212046FFF7B2FF86
:101BE00084F84C5038BD2260F4E740B94FF0500300
:101BF00083F31188BFF36F8FBFF34F8FFEE7F0B50C
:101C000083B00C461546064601FB00F05030FFF746
:101C100031FE074638B100902B4600F150022146B4
:101C20003046FFF7D1FF384603B0F0BDF0B585B0C0
:101C3000019288B10F461D460446B1B1022D20D154
:101C4000E36B012B1DD04FF0500383F31188BFF3DA
:101C50006F8FBFF34F8FFEE74FF0500383F3118870
:101C6000BFF36F8FBFF34F8FFEE7036C002BE5D000
:101C70004FF0500383F31188BFF36F8FBFF34F8F83
:101C8000FEE700F053FE064658B9019B002B48D0F2
:101C90004FF0500383F31188BFF36F8FBFF34F8F63
:101CA000FEE700263DE02A4639462046FFF7C6FEFD
:101CB000636A7BB948B14FF0E0234FF08052C3F81C
:101CC000042DBFF34F8FBFF36F8FFFF73DFC012053
:101CD00005B0F0BD04F1240000F08EFD0028F4D022
:101CE0004FF0E0234FF08052C3F8042DBFF34F8F25
:101CF000BFF36F8FE9E7FFF727FC0020E8E702A8B2
:101D000000F0C0FD012619E0002384F8443021E0F2
:101D1000002384F8453023E02046FFF7DCFE00F086
:101D200065FCFFF7EFFBA26BE36B9A42BBD3022D7E
:101D3000B9D0019B002BDED0002EE0D0FFF704FCD1
:101D400000F0C0FBFFF7DEFB94F8442052B2B2F182
:101D5000FF3FD9D094F8452052B2B2F1FF3FD7D01F
:101D6000FFF7F2FB01A902A800F098FDD8B92046C0
:101D7000FFF748FE0028CFD0019904F1100000F0D1
:101D800023FD2046FFF7A7FE00F030FC0028C8D155
:101D90004FF0E0234FF08052C3F8042DBFF34F8F74
:101DA000BFF36F8FBDE72046FFF795FE00F01EFCE6
:101DB00000208DE748B108B5002181600160C16055
:101DC0000B460A46FFF732FF08BD704710B50246C2
:101DD00000210120FFF709FF0446FFF7EBFF204633
:101DE00010BD68B170B50C460546036C8BB14FF061
:101DF000500383F31188BFF36F8FBFF34F8FFEE75C
:101E00004FF0500383F31188BFF36F8FBFF34F8FF1
:101E1000FEE70368EBB1FFF79BFCEFF311864FF091
:101E2000500383F31188BFF36F8FBFF34F8FAA6BFB
:101E3000EB6B934226D995F845305BB20132AA6329
:101E4000B3F1FF3F11D001335BB285F8453001207B
:101E500019E08368002BDED04FF0500383F3118824
:101E6000BFF36F8FBFF34F8FFEE76B6A0BB9012093
:101E700009E005F1240000F0BFFC38B144B10120B5
:101E8000206000E0002086F3118870BD0120FAE791
:101E90000120F8E770B584B0019158B10446036C95
:101EA0008BB14FF0500383F31188BFF36F8FBFF3F3
:101EB0004F8FFEE74FF0500383F31188BFF36F8F0E
:101EC000BFF34F8FFEE700F031FD054650B9019B8F
:101ED0005BB14FF0500383F31188BFF36F8FBFF3F3
:101EE0004F8FFEE70026354655E0064653E0013B9E
:101EF000A36323683BB123694BB9FFF725FB012698
:101F0000304604B070BD00F029FEA060F3E704F194
:101F1000100000F071FC0028EFD04FF0E0234FF0EC
:101F20008052C3F8042DBFF34F8FBFF36F8FE4E7E8
:101F300046B14FF0500383F31188BFF36F8FBFF3A7
:101F40004F8FFEE7FFF700FBDAE702A800F09AFCEC
:101F500001252AE0002384F8443032E0002384F88D
:101F6000453034E0FFF7CEFAA06800F0EFFC0646FB
:101F7000FFF7EAFA3BE02046FFF7ADFD00F036FB45
:101F800009E02046FFF7A7FD00F030FB2046FFF7F1
:101F900048FD002842D1FFF7B5FAA36B002BA6D16C
:101FA000019B002BC4D0002DCFD0FFF7CDFA00F05D
:101FB00089FAFFF7A7FA94F844305BB2B3F1FF3F18
:101FC000C8D094F845305BB2B3F1FF3FC6D0FFF7FD
:101FD000BBFA01A902A800F061FC0028D1D120467B
:101FE000FFF71FFD0028C6D02368002BBAD0019947
:101FF00004F1240000F0E8FB2046FFF76CFD00F040
:10200000F5FA0028C7D14FF0E0234FF08052C3F813
:10201000042DBFF34F8FBFF36F8FBCE70EB90026BF
:102020006EE7FFF76FFA2046FFF7E4FC0146A06871
:1020300000F03AFDFFF788FAF1E72DE9F843B0B177
:102040000D4690460446D9B1FFF782FBEFF31187A6
:102050004FF0500383F31188BFF36F8FBFF34F8F9F
:10206000A66BCEB9002087F31188BDE8F8834FF046
:10207000500383F31188BFF36F8FBFF34F8FFEE7D9
:10208000036C002BE0D04FF0500383F31188BFF3B3
:102090006F8FBFF34F8FFEE794F844904FFA89F9A2
:1020A00029462046FFF705FD731EA363B9F1FF3FE4
:1020B00006D009F101035BB284F844300120D2E775
:1020C00023690BB90120CEE704F1100000F094FB66
:1020D00030B1B8F1000F05D00120C8F80000C2E708
:1020E0000120C0E70120BEE7084B1B681B6823B92D
:1020F000074B4FF0FF321A607047044B1B68DB68D8
:10210000DB685A68024B1A60704700BF80240020C9
:102110001824002010B50446006BFFF72DFC204664
:10212000FFF72AFC10BD2DE9F04780460D46174603
:102130009946089EDDF824A00A9C9200A521206BF8
:102140000AF0C0FE236B07F18042013A03EB8207DD
:1021500027F00707A5B34FF0000CBCF10F0F09D80B
:1021600015F80C3004EB0C0282F8343013B10CF18A
:10217000010CF2E7002384F84330062E00D906262E
:10218000E662E66400252565201DFFF718F904F1D5
:102190001800FFF714F92461C6F10706A66164620E
:1021A000656584F858504A4641463846FFF780F93D
:1021B0002060BAF1000F01D0CAF80040BDE8F087F6
:1021C000002384F83430D8E738B5002407E004EB66
:1021D000840293000E481844FFF7E6F80134062CF9
:1021E000F5D90C4D2846FFF7DFF80B4C2046FFF7DA
:1021F000DBF80A48FFF7D8F80948FFF7D5F809488F
:10220000FFF7D2F8084B1D60084B1C6038BD00BFBB
:10221000AC2400209824002084240020682400207E
:10222000542400203C240020802400207C24002012
:1022300010B50446FFF766F9224A136801331360AC
:10224000214B1B685BB1214B1B686BB91E4B1B6894
:10225000DA6AE36A9A4207D81B4B1C6004E01A4B07
:102260001C601368012B29D0194A136801331360CD
:102270006364E06A01238340164A11680B431360CC
:1022800000EB8000211D144B03EB8000FFF79AF850
:10229000FFF75AF90D4B1B687BB10B4B1B68DA6AD1
:1022A000E36A9A4209D24FF0E0234FF08052C3F81C
:1022B000042DBFF34F8FBFF36F8F10BDFFF784FF67
:1022C000D2E700BF38240020382500202C2400202D
:1022D0001C24002030240020AC2400200F4B1B685D
:1022E000D3B110B5FFF70EF90D4BDB68DC68201D8C
:1022F000FFF78CF80B4A1368013B1360074A136819
:10230000013B1360FFF720F92046FFF703FF034B63
:102310001B68002BE6D110BD704700BF5024002081
:10232000542400203824002008B5FFF7D7FF074BBE
:102330001B68012BF9D94FF0E0234FF08052C3F80E
:10234000042DBFF34F8FBFF36F8FEEE7AC24002057
:1023500070B504460D461D4B1E681D4B18680430B1
:10236000FFF754F848B91A4B1B68DB6A01229A4000
:1023700018490B6823EA02030B60B4F1FF3F0DD04C
:102380003444134B1B685C60A64210D9124B18688A
:102390000F4B19680431FFF720F870BD002DEFD006
:1023A0000B4B196804310D48FFF70CF8F5E70C4B9F
:1023B0001868074B19680431FFF70FF8094B1B68C1
:1023C000A342EAD9074B1C60E7E700BF3424002092
:1023D00038250020302400207C2400203C240020CC
:1023E00080240020182400202DE9F04385B0074602
:1023F0000E4614461D469000FFF73CFAF8B18146A0
:102400005C20FFF737FA804698B1C0F8309000237F
:10241000039302900D9B01930C9B00932B46224645
:1024200031463846FFF77FFE4046FFF701FF0120A7
:1024300007E04846FFF7A0FA4FF0FF3001E04FF009
:10244000FF3005B0BDE8F08300B583B0174B0193B2
:1024500000230093802216491648FFF7C5FF012884
:1024600005D0B0F1FF3F17D003B05DF804FB4FF08B
:10247000500383F31188BFF36F8FBFF34F8F0E4B61
:102480004FF0FF321A600D4B01221A600C4B0022F4
:102490001A60FFF7D1F8E7E74FF0500383F3118894
:1024A000BFF36F8FBFF34F8FFEE700BF14240020F0
:1024B00098FA000829230008182400202C24002062
:1024C00034240020024A136801331360704700BFB0
:1024D00010240020F8B53A4B1B68002B69D1394B0A
:1024E0001D6801351D60C5B9374B1B681B6843B1BA
:1024F0004FF0500383F31188BFF36F8FBFF34F8FFB
:10250000FEE7314A1168314B186810601960304A93
:10251000136801331360FFF7E7FD2E4B1B68AB42D6
:102520003DD900272C4B1B68DB6A03EB83039A0021
:102530002A4B9B58012B00D90127294B1B68002BE4
:102540003CD001273AE001271F4B1B681B6843B3AF
:102550001D4B1B68DB68DC6863689D4226D3261D23
:102560003046FEF753FFA36A1BB104F11800FEF7D3
:102570004DFFE36A01229A401A49086802430A6043
:1025800003EB83039A00314614481044FEF71AFF08
:10259000E26A114B1B68DB6A9A42D4D2D4E7002767
:1025A000D2E70C4B4FF0FF321A60BBE7094A1360C9
:1025B000B8E70D4A13680133136000273846F8BDA9
:1025C0001024002034240020802400207C240020BB
:1025D000202400201824002038250020AC240020CE
:1025E00024240020302400202824002038B5354B36
:1025F0001B6843B94FF0500383F31188BFF36F8F0B
:10260000BFF34F8FFEE7FEF77DFF2E4B1A68013AAE
:102610001A601B68002B4FD12B4B1B680BB9002491
:102620004BE00024294B1B681BB3284BDB68DC689C
:1026300004F11800FEF7EAFE251D2846FEF7E6FE27
:10264000E06A01238340224A11680B43136000EBC8
:10265000800029461F4B03EB8000FEF7B3FEE26AC1
:102660001D4B1B68DB6A9A42DCD31C4B01221A60AB
:10267000D8E70CB1FFF738FD194B1C6884B9174B2C
:102680001C68D4B14FF0E0234FF08052C3F8042D02
:10269000BFF34F8FBFF36F8F01240EE0013C07D0D3
:1026A000FFF718FF0028F9D00C4B01221A60F5E75C
:1026B0000B4B00221A60E2E70024FEF745FF20469C
:1026C00038BD00BF102400203824002068240020DA
:1026D00030240020AC2400203825002024240020B1
:1026E0002824002010B5A8B10446104B1B6843B144
:1026F0004FF0500383F31188BFF36F8FBFF34F8FF9
:10270000FEE7FFF7DFFE00212046FFF721FEFFF77F
:102710006DFF48B94FF0E0234FF08052C3F8042D0D
:10272000BFF34F8FBFF36F8F10BD00BF1024002089
:10273000204B1B681BB1204B01221A6070471E4BB7
:1027400000221A601D4B1B68B3FA83F3DBB2C3F19E
:102750001F0303EB83018A0019498A5842B94FF0DD
:10276000500383F31188BFF36F8FBFF34F8FFEE7E2
:10277000134803EB83018A000244516849685160A1
:1027800003EB830C4FEA8C0208320244914209D0D9
:1027900003EB83039A000A4B13445B68DA68094B26
:1027A0001A607047486862469100054A0A445060C2
:1027B000EEE700BF10240020242400203024002055
:1027C000AC2400203825002058B110B50C46094A29
:1027D00011681831FEF701FE01212046FFF7B8FD10
:1027E00010BD4FF0500383F31188BFF36F8FBFF319
:1027F0004F8FFEE73825002038B5C368DC6824B366
:1028000004F118052846FEF701FE184B1B682BBB88
:10281000251D2846FEF7FAFDE06A01238340144A8D
:1028200011680B43136000EB80002946114B03EB4A
:102830008000FEF7C7FDE26A0F4B1B68DB6A9A4215
:1028400011D901200D4B186038BD4FF0500383F3B0
:102850001188BFF36F8FBFF34F8FFEE729460848FB
:10286000FEF7B0FDE7E70020EEE700BF10240020F0
:1028700030240020AC24002038250020242400200F
:1028800068240020034B1B680360034B1B684360F4
:10289000704700BF2024002034240020F8B5C8B1C0
:1028A0000C460546F9B1FEF72DFE1B4B19686B6807
:1028B000C81A2268B2F1FF3F26D0184E36682F683A
:1028C000B74201D08B4224D9824215D8002323601D
:1028D00001241AE04FF0500383F31188BFF36F8F88
:1028E000BFF34F8FFEE74FF0500383F31188BFF320
:1028F0006F8FBFF34F8FFEE75B1A134423602846A8
:10290000FFF7C0FF002400E00024FEF71DFE204674
:10291000F8BD0124F9E700BF342400202024002062
:10292000014B01221A60704724240020054B1B68CC
:1029300033B1054B1B680BB1002070470220704774
:10294000012070472C24002010240020002848D0AB
:1029500038B50446C36A254A1268D26A934238D20F
:102960008269002A05DB214A1268D26AC2F1070295
:102970008261616903EB83031D4A02EB8303994281
:1029800005D01A4B1B68DB6AE362012038BD251DA8
:102990002846FEF73BFD38B9E36A01229A40154903
:1029A0000B6823EA02030B60104B1B68D86AE062D5
:1029B000012404FA00F30F4A11680B43136000EB83
:1029C000800029460A4B03EB8000FEF7FBFC204603
:1029D000DCE7C26C054B1B68DB6A9A4203D300201C
:1029E000D4E7002070470120D0E700BF3825002041
:1029F000AC2400203024002000284BD038B50446F9
:102A0000264B1B68834208D04FF0500383F3118894
:102A1000BFF36F8FBFF34F8FFEE7036D43B94FF0E6
:102A2000500383F31188BFF36F8FBFF34F8FFEE71F
:102A3000013B0365C16AC26C91422DD00BB10020ED
:102A400038BD051D2846FEF7E1FC68B9E36A03EBD3
:102A50008302920012498A5832B901229A401149E0
:102A60000B6823EA02030B60E06CE062C0F107032D
:102A7000A361012404FA00F30A4A11680B431360AE
:102A800000EB80002946064B03EB8000FEF79AFC22
:102A90002046D5E7002070470020D1E738250020E8
:102AA000AC2400203024002000284FD038B5044644
:102AB000036D43B94FF0500383F31188BFF36F8F59
:102AC000BFF34F8FFEE7C26C8A4200D20A46E16A2A
:102AD000914201D0012B00D038BD1D4B1B68A34291
:102AE0002BD0E262A369002B02DBC2F10702A261D4
:102AF000626901EB8101174B03EB81039A42EBD131
:102B0000251D2846FEF782FC38B9E36A01229A4067
:102B100011490B6823EA02030B60E06A012383403A
:102B20000D4A11680B43136000EB80002946094BE6
:102B300003EB8000FEF746FCCEE74FF0500383F333
:102B40001188BFF36F8FBFF34F8FFEE7704700BF51
:102B500038250020AC24002030240020054B1B68C1
:102B600023B1044B1A68136D01331365014B1868C8
:102B7000704700BF382500200D488546FEF7B0FAA3
:102B80000C480D490D4A002302E0D458C4500433C8
:102B9000C4188C42F9D30A4A0A4C002301E013609E
:102BA0000432A242FBD30AF023FAFEF707FBFEE74A
:102BB000008000200000002068030020B807010802
:102BC00068030020E45B0020FEE703460020186055
:102BD00058609A600120D8601961704710B40024D1
:102BE000046044608360C260016101205DF8044BB1
:102BF0007047F0B500270CE00CEB030511F803E07B
:102C000006F805E00133C5689D42F5D82944046003
:102C10000137974213D205686B1C8468B3FBF4F646
:102C200004FB16344368A3420BD00669002EEED095
:102C30000029ECD0C36803FB05FC0023E3E7012077
:102C4000F0BD0020FCE770B50C461646002516E0E6
:102C500001EB0E0C1CF803C004F803C00133C2687A
:102C60009A42F5D8144443680268934216D001335F
:102C70008268B3FBF2F102FB113343600135B542C8
:102C80000AD201690029EED0002CECD04368C2685A
:102C900002FB03FE0023E2E7012070BD0020FCE7F9
:102CA00003690268C06800FB02307047036842682D
:102CB0009B1A8268B3FBF2F002FB103070470023CE
:102CC00080F8E63280F8E5323F2280F8E42280F88E
:102CD000A432704738B5054690F8964104EB44108D
:102CE00004EB40002844432205F5297100F5CC701F
:102CF0000AF0ADF995F89731032B02D8013385F826
:102D0000973185F895410134634204F0030403F0E0
:102D1000030358BF5C4285F89641012385F894313E
:102D200038BD002303E08CF8002001339BB20F2B49
:102D30000BD800EB030CC25C3AB1A2F16101C9B23D
:102D40001929F0D8203AD2B2EDE7102B00D0704705
:102D5000013B0022C254FAE7064BB3F82C349842E8
:102D600005D2044BD3F8303453F8200070470020CC
:102D7000704700BF3C25002008B50346094AB2F859
:102D80002C2490420AD20846064AD2F8302452F83F
:102D90002310FDF745FA18B1002000E0002008BD1F
:102DA0000120FCE73C25002008B5084BB3F82C3483
:102DB000984202D39FED060A08BD044BD3F8303485
:102DC000002153F8200009F0D3F9F5E73C25002055
:102DD0000000000008B5084BB3F82C34984201D32A
:102DE000002008BD044BD3F830340022114653F8BC
:102DF000200009F08FFAF4E73C25002010B50446C6
:102E00000449007801F0E6FF0349207801F0E2FF71
:102E100010BD00BFA0FA0008A4FA000838B590F869
:102E2000973143B304460D4690F8E52222BB94F84F
:102E3000E62232BB012D29D094F99511013194F885
:102E4000973191FBF3F203FB121184F89511C9B28B
:102E500001EB411301EB43012144432201F5CC7105
:102E600004F529700AF0F3F894F8E63284F8E532B4
:102E7000002384F8943138BD0F49007801F0AAFF8F
:102E8000D5E70E49207801F0A5FFD3E794F89431F7
:102E90001BB194F9963184F8953194F9951194F811
:102EA00097311944013991FBF3F203FB121184F8B5
:102EB0009511C9B2CCE700BFACFA0008B4FA00081B
:102EC00070B582B006460024A0F8124100F58A755C
:102ED000C0F8144101AA0C4900F529700AF034F831
:102EE000234609E05C1CA4B245F8230001AA064968
:102EF00000200AF029F823460028F3D1A6F8123161
:102F000003B1012002B070BDBCFA000810B5034C3B
:102F10002070616001F032FF207210BD3C2500205E
:102F200038B5234B5B7A03B938BD054690F8E522E6
:102F30002049807A01F04EFF95F8E6221E49A87AD2
:102F400001F048FF95F8E4221C49A87A01F042FFFD
:102F500005F529721A49A87A01F03CFF95F99521E7
:102F60001849A87A01F036FF95F896211649A87AF3
:102F700001F030FF95F897211449A87A01F02AFF53
:102F800000240CE004EB441304EB430303F5CC737F
:102F90002B4422460E49A87A01F01CFF013495F813
:102FA0009731A342EEDC0B49A87A01F013FFBBE78F
:102FB0003C250020C4FA0008D4FA0008E4FA00080E
:102FC000F4FA000804FB000814FB000824FB0008C6
:102FD00034FB0008A0FA000808B50A460146024B77
:102FE000187801F0EDFE08BD3C2500200FB410B5A7
:102FF00082B004AB53F8042B0193084C4FF480715A
:10300000204609F051FF0246214614F8110C01F048
:10301000D7FE02B0BDE8104004B070474D25002037
:1030200038B50546FFF74CFF08B9002038BD1648F3
:10303000FFF7DCFFD5F81401FFF773FE0024B5F8A5
:10304000E832A342F1DD04EB8401890001F53A7115
:1030500029440431D5F81401FDF7E2F808B1013430
:10306000EDE7B5F81231013BA5F82C3405F58C736A
:10307000C5F8303404EB840405EB8404D4F8FC3246
:1030800005F22C409847D0E7A0FA000830B585B08B
:1030900004468DF80710037CABB9CBB21B2B30D0A4
:1030A0001CD8082B4BD00D2B40F0848090F8E632D2
:1030B0000BBB002384F8E63284F8E53284F8A432AE
:1030C0002046FFF79BFE237C013B032B00F2C880C8
:1030D000DFE813F0C400CC00CF0056017F2B69D18C
:1030E00090F8E5C290F8E6E2F445ECD2AEEB0C05C0
:1030F000EDB2012212E0FFF7EDFD2046FFF790FF51
:10310000D7E701230374DEE70CEB0203591E2344C7
:1031100093F8A402631883F8A40201329542F3DC09
:103120000EF1FF3E5FFA8EFE84F8E6E2A64400232D
:103130008EF8A4329449207801F04CFEC3E790F851
:10314000E6325BB390F8E50240B3834209D094F8CD
:10315000E6C2604522D2ACEB000E5FFA8EFE002282
:1031600011E0013BDBB284F8E6322344002283F80D
:10317000A422ECE78318591E234493F8A452631841
:1031800083F8A45201329645F4DC0CF1FF33DBB234
:1031900084F8E6322344002283F8A42294F8E5322E
:1031A000002B90D0013B84F8E5327849207801F07B
:1031B00011FE88E794F8E632591C94F8E422914213
:1031C00081DA94F8E522934216D094F8E5C294F897
:1031D000E6028445BFF477AFA0EB0C05EDB2002208
:1031E000954224DD831A591E214491F8A4122344E8
:1031F00083F8A4120132F3E701220DF107012078D0
:1032000001F0DEFD94F8E522A3189DF8071083F87D
:10321000A41294F8E6320133DBB284F8E6320132CC
:1032200084F8E5222344002283F8A422CDE79DF808
:10323000072004EB0C0383F8A4220130C0B284F809
:10324000E6020CF1010C84F8E5C22044002380F86A
:10325000A4324F49207801F0BDFD34E702232374E6
:103260002046FFF75DFE002005B030BD0323237428
:10327000F6E7002323749DF80730442B26D09DF8F1
:103280000730432B37D09DF80730412B4AD09DF8AB
:103290000730422B50D09DF80730312B56D09DF887
:1032A0000730342BDCD194F8E53294F8E6229342CF
:1032B00058D394F8E52294F8E6329A4259D894F813
:1032C000E63284F8E53204232374C9E794F8E52252
:1032D000002AD4D0013A84F8E5221B228DF8082078
:1032E0005B228DF809208DF80A30032202A920788C
:1032F00001F066FDC3E794F8E52294F8E6128A42ED
:10330000C1D2013284F8E5221B228DF808205B220D
:103310008DF809208DF80A30032202A9207801F0E7
:103320004FFDB0E701212046FFF778FD04F5297134
:10333000207801F04FFDAAE700212046FFF76EFD3F
:1033400004F52971207801F045FDA4E794F8E52201
:103350001049207801F03EFD002384F8E532042373
:1033600023749CE7D21A92B20B49207801F032FD07
:103370009FE7D21A92B20749207801F02BFD9EE711
:10338000002323746CE700BF44FB00084CFB0008DB
:1033900054FB0008ACFA000860FB000838B5094B84
:1033A0001C7A0CB9204638BD187801F0FBFC0028C7
:1033B000F8D0044D287801F0FCFC01462846FFF7C0
:1033C00065FEEFE73C25002010B50F48FFF70EFE25
:1033D0000E48FFF70BFE00240DE004EB8403980079
:1033E00000F53A700A4B18440430FFF7FFFD064819
:1033F000FFF7FCFD0134064BB3F8E832A342ECDCE6
:103400000448FFF7F3FD10BDA0FA000868FB0008B0
:103410003C25002088FB00082DE9F04383B0038899
:10342000446873B1012B12D810270022114620687E
:1034300008F070FF06462B48FFF7D8FDB046002481
:103440001BE02948FFF7D2FD03B0BDE8F08300225E
:103450001146606808F05EFF0746E6E731682348DA
:10346000FFF7C4FD624204F0030302F0030258BFF9
:103470005342032B0BD004360134BC42E4DA14F07F
:10348000030FEBD131461A48FFF7B0FDE6E71948C4
:10349000FFF7ACFD4FF0000917E01748FFF7A6FD56
:1034A0000135032D0DDC05F108036B4413F8041CF2
:1034B000A1F12003DBB25E2BEFD81048FFF796FD99
:1034C000EEE708F1040809F10109B9F1030F04DC82
:1034D000D8F8003001930025E3E70948FFF786FD9F
:1034E000C9E700BFC0FB0008A8FB0008D4FB000828
:1034F000C8FB0008DCFB0008E4FB0008E0FB000858
:10350000E8FB000808B5044B187801F04BFC08B93B
:10351000012008BD0020FCE73C2500202DE9F041FA
:10352000124BB3F8E8520F2D02D90020BDE8F0810C
:103530000E46AF0005EB8504A40004F53A749846E6
:103540001C4404340146204609F079FD2F4408EB61
:103550008707C7F8FC622046FFF7E3FBB8F8E832BC
:103560000133A8F8E8320120E0E700BF3C25002045
:1035700008B51248002303724372037480F8953132
:1035800080F8963180F8973180F894310C4BC0F870
:1035900034340C4BC0F838340B4BC0F83C340B4B74
:1035A000C0F84034FFF78BFB09490A48FFF7B6FF24
:1035B00009490A48FFF7B2FF012008BD3C25002059
:1035C000D52D0008A92D0008592D0008792D0008D7
:1035D000C9330008F0FB000819340008F8FB0008A4
:1035E00010B58CB004464FF4AD6300FB03F32833F1
:1035F000234A134401A9181D02F02EFE049B03B3B5
:103600001F4B4FF4AD6202FB04335A6842F00102D3
:103610005A60059BFBB11A4B4FF4AD6202FB0433B9
:103620005A6842F002025A60069BF3B1144B4FF401
:10363000AD6202FB04335A6842F004025A600CB0D7
:1036400010BD0F4B4FF4AD6202FB04335A6822F0F9
:1036500001025A60DDE70A4B4FF4AD6202FB04330E
:103660005A6822F002025A60DEE7054B4FF4AD6261
:1036700002FB04335A6822F004025A60DFE700BFFD
:103680008429002010B500242CB112491248FFF7FC
:1036900045FF012010BD11494FF4AD6004FB00F05F
:1036A0000B1801220A5400225A705A601A72DA600A
:1036B0001A615A619A61DA6100F1A80C90300844ED
:1036C00010234C2261440430FFF788FA0134E4B23D
:1036D000DAE700BF353C0008FCFB00088429002025
:1036E00058BB00B587B0844602BB0092154A4FF420
:1036F000AD6000FB0C22126A402A1BD0022203920A
:103700000191022202920493089B05934FF4AD634A
:1037100003FB0CF028300B4B18446946043002F0D0
:10372000FBFB60B1002007B05DF804FB4FF0804266
:103730000092DBE701220392E2E7002070470120BC
:10374000F1E700BF842900202DE9F04182B09DF807
:1037500020E018B1002002B0BDE8F08105464FF42A
:10376000AD6005FB00F000F12804534E34440434EE
:1037700006EB000C5148CCF82C000026CCF8306049
:103780004F4850F82200CCF834004E4850F8210041
:10379000CCF8380001208CF83C008CF83D008CF807
:1037A0003E004FEA03184848006800EB031750F842
:1037B0000800CCF840007868CCF84400B868CCF831
:1037C0004800F868CCF84C004FEA0E183F480068F3
:1037D00000EB0E1750F80800CCF850007868CCF8D1
:1037E0005400B868CCF85800F868CCF85C001C208D
:1037F000CCF860000820CCF86400CCF868608CF845
:1038000028108CF829208CF82A308CF82BE04023E3
:10381000CCF820302E4BCCF82430204602F092FA1F
:1038200008B1002097E700963346324631462846D5
:10383000FFF756FF00963346012231462846FFF730
:103840004FFF0096334602221146204602F097FBB6
:1038500008B100207FE7184B4FF4AD6202FB05333F
:103860003246596A204602F031FD08B1002072E765
:10387000114B4FF4AD6202FB0533196D9B6D32465F
:1038800003FB01F1204602F09BFB08B1002062E738
:10389000204602F0A6FB08B100205CE7204602F0BB
:1038A000B2FB38B9044B4FF4AD6202FB0533012083
:1038B000587050E700204EE7842900200064004043
:1038C000E8010108DC010108100000200C000020C4
:1038D00007000E00012801D90020704708B54FF4F9
:1038E000AD6303FB00F09030024B18440430FFF747
:1038F000DDF908BD8429002001285ED8F0B58BB021
:103900000D4616462F4B4FF4AD6202FB00335B6849
:1039100013F0040F53D102FB00F42834294B1C444C
:10392000043491F847302BB1012B05D14FF080437F
:10393000029301E00023029395F84830012B17D041
:10394000022B1BD00BB9079306932B68019300231E
:10395000099308930593039395F846201A4B53F85F
:1039600022300493204602F0ABFC70B9002027E01F
:103970004FF40013079300230693E6E74FF4001378
:1039800007934FF480130693DFE7FDF7BDFA074670
:10399000AA1D01A9204602F092FB08B100200FE009
:1039A000204602F08DFC30B9FDF7AEFAC01BB042E4
:1039B000F6D3002004E0012002E000207047002040
:1039C0000BB0F0BD84290020F4010108012801D9C1
:1039D0000020704708B54FF4AD6303FB00F0903052
:1039E000034B184401220430FFF72DF908BD00BF36
:1039F00084290020012801D90020704700B585B036
:103A00004FF4AD6303FB00F02830074B18446946C0
:103A1000043002F046FC20B9BDF8040005B05DF8A2
:103A200004FB0020FAE700BF84290020012801D907
:103A30000020704700B585B04FF4AD6303FB00F084
:103A40002830074B18446946043002F02AFC20B99C
:103A5000BDF8000005B05DF804FB0020FAE700BFE8
:103A60008429002001281BD838B50E4B4FF4AD62D5
:103A700002FB00335B7803B938BD0A4C02FB00F04F
:103A8000251800226A60283004440434204602F0DD
:103A9000D1FA204602F0B7FAEB680133EB60EBE7AE
:103AA000704700BF8429002010B50024204609E09B
:103AB000174B4FF4AD6202FB04331B7A2BB1012B81
:103AC00017D00134002CF3DD10BD114B4FF4AD6263
:103AD00002FB04335B6813F0040FF2D0E0B2FFF78F
:103AE000C1FF0B4B4FF4AD6202FB0433012018728F
:103AF000E7E7074B4FF4AD6202FB04335B6813F05A
:103B0000040FDED1024B02FB043300221A72D8E705
:103B1000842900202DE9F0438BB0074688464FF4F6
:103B2000AD6600FB06F606F190042C4D2C440434DF
:103B30002046FFF7B5F881463544831D6A46296A59
:103B4000404602F0E5FA68BB019B73BB009BC9F8D5
:103B50000030002389F84730039A214B53F8223074
:103B6000A9F80430069BB3F5001F25D0002389F87F
:103B70004830012200212046FFF73BF838B9174BA7
:103B80004FF4AD6202FB07331A6901321A61134B1D
:103B90004FF4AD6202FB0733D3F8903013B14846BF
:103BA0009847A8B90BB0BDE8F083009BC9F8003076
:103BB000012389F84730CFE7059BB3F5801F03D079
:103BC000012389F84830D4E7022389F84830D0E748
:103BD000012200212046FFF736F8E3E78429002080
:103BE0003402010801281CD810B50E4B4FF4AD6209
:103BF00002FB00335C6814F0010F06D114F0020FD1
:103C000007D114F0040F08D110BD074800F0BEFF23
:103C1000F4E7064800F0BAFFF3E7054800F0B6FF06
:103C2000F2E770478429002000FC00081CFC000813
:103C300038FC00082DE9F04194B004460388012BBC
:103C40000CD000252388012B31D02388012B74D080
:103C5000002D00F0508114B0BDE8F0814369AB49FC
:103C60000020984705460028ECD000271CE0A84E0D
:103C70004FF4AD6303FB07667178A648FFF7B6F90A
:103C80003169A548FFF7B2F97169A448FFF7AEF9A9
:103C9000B169A348FFF7AAF9F169A248FFF7A6F9AD
:103CA000F8B2FFF79FFF0137002FE0DDCAE7636935
:103CB0009D490020984706460028C6D00027FFF7F8
:103CC00021FC002837D00020FFF704FE0028F6D0A2
:103CD00001A90020FFF77AFE9449A1FB0731890969
:103CE0004FF47A7303FB11714F1C9148FFF77EF973
:103CF0009DF84B3053B98F48FFF778F9BDF808208D
:103D000001998D48FFF772F900250CE08B48FFF709
:103D10006DF9F3E705F150036B4413F8461C88482E
:103D2000FFF764F90135BDF80830AB42F2DC854895
:103D3000FFF75CF9C3E7354687E7636982490020EE
:103D400098478046002883D0714B5E6800273D4627
:103D500080E0FDF7D9F8054601228DF84C208DF85A
:103D60004B2008238DF84A304FF445710191ADF88E
:103D700008308DF80A2002228DF80B2003228DF8DE
:103D80000C2004228DF80D2005228DF80E2006222D
:103D90008DF80F2007228DF810208DF811300A229F
:103DA00001A90020FFF7A8FDF0B90020FFF722FECF
:103DB00010B9FFF73BFE58B10020FFF71BFE044689
:103DC0000020FFF733FE024621466048FFF70EF958
:103DD0005F4B1B68002B48D05D4C21685D48FFF7A6
:103DE00005F90023236040E05049A1FB0731890910
:103DF0004FF47A7303FB11714F1C5748FFF7F6F825
:103E00009DF84B3053B94B48FFF7F0F8BDF8082048
:103E100001994948FFF7EAF800240CE04748FFF70A
:103E2000E5F8F3E704F150036B4413F8461C4448EB
:103E3000FFF7DCF80134BDF80830A342F2DC41485A
:103E4000FFF7D4F8B1E7FFF72FFED8B90020FFF74E
:103E500041FDD8B9FFF756FB00284AD0FDF754F8CA
:103E6000431BB3F57A7FBFF474AF294B5968B14255
:103E7000E9D03A48FFF7BAF80020FFF7B3FE244B29
:103E80005E68E0E73648FFF7B1F8DFE701A90020F8
:103E9000FFF79CFD2549A1FB073189094FF47A738F
:103EA00003FB11714F1C2248FFF7A0F89DF84B301F
:103EB00053B92048FFF79AF8BDF8082001991E4829
:103EC000FFF794F800240CE01C48FFF78FF8F3E7A5
:103ED00004F150036B4413F8461C1948FFF786F8A9
:103EE0000134BDF80830A342F2DC1648FFF77EF833
:103EF000B0E74546ACE61B48FFF778F81A48FFF7ED
:103F000075F81A48FFF772F8A5E600BF54FC0008E0
:103F1000842900205CFC000874FC00088CFC00086C
:103F2000A4FC0008BCFC0008D4FC0008D34D6210BF
:103F3000DCFC0008ECFC0008FCFC0008F4FC0008B9
:103F400010FD0008A0FA000818FD000830FD000868
:103F50008029002044FD000820FD000850FD0008D5
:103F600064FD000878FD000884FD000890FD00084D
:103F700008B50020FFF734FB08BD0000054A1368B0
:103F800001331360036E23B1034A536843F01003F7
:103F900053607047802900208429002008B502481A
:103FA00002F01FFA08BD00BFB029002010B50C4672
:103FB00011F0010F0ED114F0020F03D0084A9369DB
:103FC0000133936114F0040F03D0054AD369013320
:103FD000D36110BD01460020FFF79CFDEBE700BF59
:103FE0008429002000B589B000230393049305932E
:103FF000069307930268174B9A4202D009B05DF806
:1040000004FB03F5D6339A6D42F000729A659A6DFF
:1040100002F000720192019ADA6C42F00202DA6454
:10402000DB6C03F002030293029B4FF44073039393
:10403000022304930923079303A9074802F096FA81
:1040400000221146152001F0ABFD152001F0B8FD4E
:10405000D4E700BF006400400004004808B501F048
:104060001DFA014B187008BDEC2E002008B501F0B8
:1040700051FA08BD08B501F02DFA08BD08B501F0E8
:1040800031FA08BD08B501F061FA08BD08B501F0C4
:104090003BFA08BD82B00023019302E0019B01338B
:1040A00001934FF47A7300FB03F3019A9342F5D81E
:1040B00002B0704710B500243CB10C490C48FFF722
:1040C0002DFA01200B4B187010BD00230A4A42F84C
:1040D00024300A4A13550A4800EB8400FDF702F920
:1040E000084B43F824000134E6E700BF29450008E7
:1040F0009CFD0008492F0020502F0020482F002051
:1041000060030108442F00202DE9F04786B00546E2
:1041100000EB8003384E06EB8306D6F80890CDF806
:1041200004904FF0110ACDF808A000240394032353
:104130000493D6F8048001A9404602F017FA8027BC
:104140000197CDF808A00394F66801A9304602F063
:104150000DFA01221FFA89F1404602F07FFB01228D
:104160003946304602F07AFB0520FFF793FF17E04F
:1041700005EB8502204B03EB82031F895E6800225A
:104180003946304602F06AFB0520FFF783FF012223
:104190003946304602F062FB0520FFF77BFF013411
:1041A000082CE5DD144E05EB850406EB8404B4F819
:1041B0000890D4F8048000224946404602F04EFBA5
:1041C0000520FFF767FF00228021E06802F046FB30
:1041D0000520FFF75FFF01224946404602F03EFB03
:1041E0000520FFF757FF01228021E06802F036FB2F
:1041F00006B0BDE8F08700BF4C03010838B500EBFE
:104200008002184B53F8225008B1002038BD0446F4
:10421000154B19540023154A1354154A2A60154AA0
:1042200052F821206A60AB600122EA602B616B6169
:10423000EB612B62FFF768FF284602F088FD2846F5
:1042400002F021FD08B10020E0E70021284603F03C
:104250000BFC0021284603F035FC0120034B1855C8
:10426000D4E700BF4C0301084C2F0020482F00204A
:10427000005400404403010870B504460D4600EBAD
:1042800080020C4B53F8226064210B4B53F8200042
:10429000FDF72DF80A231A466900304602F0EEFFBA
:1042A00008B9012070BD044B53F82400FDF74FF806
:1042B0000020F7E74C030108442F00202DE9F041CE
:1042C00084B0044600EB800C144850F82C8024B1D4
:1042D0000025284604B0BDE8F0810F4616461D466D
:1042E0004FF0FF310E4B53F82400FDF700F8790032
:1042F00089B20B9B0293BDF82830019300950123EE
:104300003246404602F0E2FE30B90125044B53F834
:104310002400FDF71CF8DCE70025F7E74C03010853
:10432000442F002010B582B0049C01940124009415
:10433000FFF7C4FF02B010BD2DE9F04184B0044680
:1043400000EB800C144850F82C8024B1002528463E
:1043500004B0BDE8F0810F4616461D464FF0FF3110
:104360000E4B53F82400FCF7C2FF790089B20B9B77
:104370000293BDF82830019300950223324640464F
:1043800002F0A4FE30B90125044B53F82400FCF7D9
:10439000DEFFDCE70025F7E74C030108442F00208F
:1043A00010B582B0049C019401240094FFF7C4FF6F
:1043B00002B010BD2DE9F04184B0044600EB800C42
:1043C000144850F82C8024B10025284604B0BDE8DC
:1043D000F0810F4616461D464FF0FF310E4B53F845
:1043E0002400FCF784FF790089B20B9B0293BDF88F
:1043F00028300193009501233246404602F092FD99
:1044000030B90125044B53F82400FCF7A0FFDCE78A
:104410000025F7E74C030108442F002000B585B0C4
:104420008DF80F30069B0193012300930DF10F03CC
:10443000FFF7C0FF05B05DF804FB00002DE9F04177
:1044400084B0044600EB800C144850F82C8024B152
:104450000025284604B0BDE8F0810F4616461D46EB
:104460004FF0FF310E4B53F82400FCF740FF79006A
:1044700089B20B9B0293BDF828300193009502236B
:104480003246404602F04EFD30B90125044B53F848
:104490002400FCF75CFFDCE70025F7E74C0301088C
:1044A000442F002000B585B08DF80F30069B019396
:1044B000012300930DF10F03FFF7C0FF05B05DF876
:1044C00004FB00002DE9F04182B0044600EB800CB3
:1044D000134850F82C5024B10025284602B0BDE8FE
:1044E000F0810F46164698464FF0FF310D4B53F8BA
:1044F0002400FCF7FCFE790089B2089B00931FFAA8
:1045000088F33246284602F03BFC30B90125054BC2
:1045100053F82400FCF71BFFDFE70025F7E700BF97
:104520004C030108442F00202DE9F047A4B00446B5
:104530000388022B5AD0052B3ED18368012098476F
:1045400010F0FF0500F08A80012D28BF0125A36827
:10455000022098471FFA80F9A3680320984706466F
:104560001FFA80FAA36804209847074605F1FF3830
:104570005FFA88F863698A4900209847002874D157
:104580006369884900209847002840F08880636963
:10459000854900209847002840F0BB806369834923
:1045A00000209847002840F0B680636980490020C9
:1045B0009847002840F0CB8001217E48FEF716FD89
:1045C00001217D48FEF712FD7C48FEF70FFD7C4877
:1045D000FEF70CFD7B48FEF709FD7B48FEF706FD64
:1045E0007A48FEF703FD24B0BDE8F0878368012018
:1045F000984710F0FF0519D0012D28BF0125013D76
:10460000EDB2636972490020984700BB6369714944
:10461000002098470028E6D001212846FFF7EEFD4C
:10462000B8B1691C6C48FEF7E1FCDCE70125E6E760
:1046300001347F2CD7D8E1B22846FFF71DFE0028B1
:10464000F6D02246691C6548FEF7D0FCF0E700244E
:10465000EFE7691C6248FEF7C9FCC4E7012576E76D
:1046600029466048FEF7C2FCBDE70024BBB2A34266
:10467000B9D90AEB04026423009304AB92B2494611
:104680004046FFF74FFE0028EAD09DF8103014FA9C
:1046900086F229465448FEF7A9FC0134E6E7FCF708
:1046A00033FC044664230093FBB25246494640461D
:1046B000FFF7B4FE50B1FCF727FC001B0090BBB223
:1046C000B2B229464948FEF791FC8CE72946454895
:1046D000FEF78CFC87E79DF8103014FA86F2294625
:1046E0004148FEF783FC0134BBB2A3427FF67BAFA7
:1046F0000AEB04026423009304AB92B2494640469D
:10470000FFF74EFE0028E6D129463648FEF76EFC3C
:1047100069E70024E8E7FCF7F7FB0446642300930D
:10472000FBB2524649464046FFF7BCFE50B1FCF78B
:10473000EBFB001B0090BBB2B2B229462C48FEF73F
:1047400055FC50E729462748FEF750FC4BE7FCF79D
:10475000DBFB04464FEA1A2A8DF808A08DF80960A1
:10476000FBB28DF80A305B428DF80B306423009366
:10477000032302AA49464046FFF7A4FE50B1FCF7C6
:10478000C3FB001B0090BBB2B2B229461848FEF72B
:104790002DFC28E729461348FEF728FC23E700BF35
:1047A000D4FC000828FE000854FE00085CFE000847
:1047B00088FE000894FE0008B0FE0008CCFE000849
:1047C000F8FE000824FF000854FF000884FF0008DA
:1047D000A0FD0008C4FD0008CCFD0008A8FD0008ED
:1047E000E0FD000814FE0008F8FD000830FE000897
:1047F00064FE00080268064B1B689A4200D07047AE
:10480000436C002BFBD0034A136801331360F6E7B7
:10481000F02E0020502F002008B5024803F0E2F8E7
:1048200008BD00BFF02E0020F0B589B0002303932F
:1048300004930593069307930268214B9A4201D093
:1048400009B0F0BD1F4CE36C43F00103E364E36C7B
:1048500003F001030093009BE36C43F00203E36465
:10486000E36C03F002030193019B4FF400430393B5
:1048700012270497012505950426079603A94FF0F2
:10488000904001F073FE8023039304970595002563
:104890000695079603A90C4801F068FEA36D43F442
:1048A0000013A365A36D03F400130293029B2A4631
:1048B0000521202001F074F9202001F081F9BFE7E3
:1048C00000540040001002400004004808B502688F
:1048D0000B4B9A4200D008BD0A4A936D23F4001393
:1048E00093654FF400414FF0904001F029FF802183
:1048F000054801F025FF202001F066F9EBE700BF35
:10490000005400400010024000040048012800D973
:10491000704708B5044B03EBC0010022898853F8A7
:10492000300001F09BFF08BD6403010810B586B09C
:104930000024019402940394049405940F4BDA6CC0
:1049400042F00402DA64DB6C03F004030093009B82
:10495000012302930DE00A4B03EBC40292880192FB
:1049600001A953F8340001F001FEE0B2FFF7CEFFD9
:104970000134012CEFDD012006B010BD0010024013
:1049800064030108012800D9704708B5044B03EB04
:10499000C002918853F8300001F065FF08BD00BFE8
:1049A000640301082DE9F04106460388012B0AD073
:1049B00000273388012B23D03388012B3ED0002FD2
:1049C0005AD0BDE8F0814369304900209847074636
:1049D0000028EED02E4C21882E48FEF707FB618878
:1049E0002D48FEF703FB2D48FEF700FB2C4C2188D9
:1049F0002C48FEF7FBFA61882B48FEF7F7FAD8E758
:104A000073692A490020984780460028D4D00025A1
:104A100006E01F4B986821462844FEF7DDFA25443E
:104A2000FEF770FD074638B1194B5C88641BC3D094
:104A3000402CEED94024ECE74746BDE773691C499A
:104A40000020984706460028B9D0002506E0144B00
:104A5000986821462844FEF7BFFA2544FEF752FD28
:104A6000074638B10E4B5C88641BA8D0402CEED9A9
:104A70004024ECE73746A2E70E48FEF7B7FA0E48A7
:104A8000FEF7B4FA0D48FEF7B1FA9AE754FC0008B5
:104A9000643C0020B4FF0008CCFF0008A0FA000826
:104AA000583C0020E4FF0008FCFF00081400010847
:104AB0001C00010824000108300001083C00010826
:104AC00010B50E4A0023138053804FF4806191800B
:104AD000D3800B4991600B4A138053804FF40061DF
:104AE0009180D380084B93600124084B1C700849C7
:104AF0000848FEF713FD204610BD00BF643C0020AF
:104B000058380020583C00205830002056300020F3
:104B1000A549000848000108003818BF0120014BD2
:104B2000187070471500002030B583B004469446D5
:104B3000C3881344083382889A4205D20023C38075
:104B40000CF108039A4219D3E088009123880E4A99
:104B50000CF10801A568284408F0FEF82388013309
:104B60002380E38882B21344E38063881844A188D9
:104B7000884205DC1A446280012002E0002000E047
:104B8000012003B030BD00BF4C0001080FB410B5C8
:104B900082B0164B1B7823B902B0BDE8104004B0B8
:104BA000704705AB0193049A4FF48071104808F0E8
:104BB0007BF904460F4B1B7813B10F4B1B7843B99D
:104BC0000E4B1B7863B9224609490D48FFF7ACFF2D
:104BD000E2E7024606490B4B187800F0F1F8EFE7E0
:104BE000224603490848FFF79FFFECE756300020B4
:104BF000542F002055300020140000201500002004
:104C0000583C002054300020643C002008B5134B71
:104C1000D3F8F03013F0010F0DD10022104BD3F870
:104C2000943013F0806F00D03AB10021012000F0E1
:104C300073F8012008BD0122F0E7012000F064F8BC
:104C4000411C012000F068F84FF4FA70FCF74EF9AF
:104C5000012000F059F8034B1860E6E700ED00E092
:104C600000100240703C0020014B1868704700BFE4
:104C7000703C002000B583B0134B019304F004F89E
:104C80004FF0E02200231361536193610FE00F4A5C
:104C900003F120004FF0FF3142F8201003F16000D3
:104CA00042F82010BFF34F8FBFF36F8F0133072BF4
:104CB000EDDD019B5B68019A126882F308889847D2
:104CC00003B05DF804FB00BF0000FF1F00E100E03F
:104CD00008B50B480B4B0360002343607F228260C2
:104CE000FF22C2600361436183614FF08042C26171
:104CF000036204F0E9FD08B9012008BD0020FCE7CB
:104D0000743C00200028004008B50146014804F02A
:104D100033FE08BD743C002008B50A46014602482F
:104D200004F023FE08BD00BF743C00200268064B5F
:104D30009A4200D07047054AD2F8903043F40043BD
:104D4000C2F89030F6E700BF002800400010024093
:104D50000023002B01DD0120704707494FF48562D5
:104D600003FB02F288184FF0000C01F802C04FF468
:104D7000614242600133ECE79C3C0020034668B985
:104D8000074A4FF4856000FB03F302EB030C01209C
:104D90008CF80800CCF80410D054704700207047FD
:104DA0009C3C002008B10020704708B5FFF762F96D
:104DB00008BD08B10020704708B5FFF75FF908BDCE
:104DC00008B10020704708B50B4611461846FFF79A
:104DD00059F908BD0EB410B5C3B0044645AB53F83D
:104DE000042B01934FF4807102A808F05DF802468D
:104DF00002A92046FFF7E4FF43B0BDE8104003B02E
:104E0000704708B10020704708B5FFF73FF908BDAB
:104E100008B503490348FEF781FB012008BD00BF28
:104E2000614E00085400010808B5FFF71FF908BDDE
:104E30000A4BD3F8BC3253B1084B93F89C32DBB227
:104E4000032B06D1054B5B682BB101207047002076
:104E50007047002070470020704700BFC44000200A
:104E6000F8B504460388012B09D000252388012BBF
:104E700028D02388012B4ED0002D79D0F8BD43696E
:104E8000404900209847054698B9EFE7FFF7D0FF63
:104E900001463D48FEF7AAF8FFF7C6FF01463B482A
:104EA000FEF7A4F802213A48FEF7A0F86420FCF7C8
:104EB0001DF8FEF727FB0028E8D102213548FEF750
:104EC00095F8D3E7636934490020984707460028DE
:104ED000CFD0FCF719F80646002504E01F212F4823
:104EE000FFF7D0F81F35FEF70DFB70B1FCF70CF89B
:104EF000831BB3F57A7FF1D3FCF706F80646A90ABF
:104F00002748FFF743FE0025E8E702212148FEF786
:104F10006DF83D46ADE763692249002098470028B7
:104F2000AAD0FBF7F1FF074600260EE0FBF7ECFFE7
:104F30000746B10A1C48FFF729FE00260EE0FFF7DE
:104F40009DF80134AC42FAD32E44FEF7DBFA50B19F
:104F5000FBF7DAFFC31BB3F57A7FE7D2FFF78AF8D6
:104F600005460024EEE702210A48FEF73FF885E7F0
:104F70000E48FEF73BF80E48FEF738F80D48FEF7EE
:104F800035F87BE754FC0008580001086C00010864
:104F9000800001088800010890000108A4000108B1
:104FA00094000108C8000108CC000108DC000108D9
:104FB000E8000108F400010808B5012803D000202A
:104FC000134B187008BD00221249134805F0C3FDA9
:104FD00008B10020F6E711490F4805F0D3FD08B1EC
:104FE0000020EFE70E490C4800F096F908B10020C8
:104FF000E8E7094805F0DDFD08B10020E2E7FFF72A
:105000002DF80848FFF7C2FD0120074B1870D7E7BD
:105010009543002078010020C4400020E4000020D7
:1050200030010020000101089443002008B5024827
:1050300003F01EFB08BD00BFB457002010B5D0F828
:10504000BC42D0F8C0325BB194F80002FF2807D010
:105050009B6894F8012221469847FF2384F8003288
:10506000002010BD43230380004870475C000020EF
:105070004323038000487047A0000020432303809F
:1050800000487047180000200A230380004870473A
:105090001C01002038B5D0F8BC5275B1044600F0B0
:1050A0008FFCC5F80C02D4F8C032DB6805F503713B
:1050B000D5F804029847002038BD0320FCE710B55E
:1050C000D0F8C442D0F8BC3253B301EB810200EBFC
:1050D000820292694AB101EB810C04EBCC04246A90
:1050E000B2FBF4FC04FB1C2272B10022C3F81422B0
:1050F000D0F8C0221469ACB10A4603F50471D3F8A4
:105100000802A047002010BD01EB810300EB8303E0
:1051100000249C612346224600F042FC2046F2E730
:105120000320F0E70020EEE7F0B583B006460C461A
:10513000D0F8BC7200238DF80730ADF804300B783E
:1051400013F0600527D0202D5BD1CA88DAB113F0A7
:10515000800F0CD0D0F8C0329B68394660789847F1
:10516000E2883946304606F0BDF900254CE04B7820
:1051700087F800328B7987F80132CA88394606F001
:10518000C6F9002540E0D0F8C0329B68002248787C
:105190009847002538E04F780B2F2ED8DFE807F02E
:1051A00006342D2D2D2D2D2D2D2D152490F89C32CE
:1051B000DBB2032B03D005F05BFE032524E00222C3
:1051C00001A906F08FF93D461EE090F89C32DBB253
:1051D000032B03D005F04CFE032515E001220DF151
:1051E000070106F07FF90FE090F89C32DBB2032B49
:1051F0000AD005F03DFE032506E005F039FE032543
:1052000002E005F035FE0325284603B0F0BD38B5B1
:105210000446812100F087FB0025258701212046D7
:1052200000F081FBA4F878518221204600F07BFB3E
:10523000A4F84C50A4F84E50D4F8BC324BB1D4F87A
:10524000C0325B689847D4F8BC0200F0C3FBC4F8D6
:10525000BC52002038BD70B504464FF4077000F012
:10526000B5FBB8B30646C4F8BC02237CBBBB4FF405
:10527000007302228121204600F04AFB0125258788
:105280004FF4007302222946204600F041FBA4F8A7
:1052900078511023A4F84E3008230322822120469F
:1052A00000F036FB0123A4F84C30D4F8C0321B6860
:1052B00098470023C6F81432C6F81832257C15BB6F
:1052C0004FF40073D6F804220121204600F070FB51
:1052D000284670BD0023C4F8BC320225F8E74023FD
:1052E00002228121204600F013FB0125258740235F
:1052F00002222946204600F00BFBA4F87851102327
:10530000A4F84E30C8E74023D6F8042201212046F5
:1053100000F04EFB0025DBE719B1C0F8C0120020F9
:10532000704703207047D0F8BC32C3F80812C3F8A6
:10533000102200207047D0F8BC32C3F804120020BD
:105340007047D0F8BC2292B108B5D2F814320BB134
:10535000012008BD0123C2F81432D2F81032C36212
:10536000D2F80822812100F01BFB0020F1E7032086
:10537000704710B5D0F8BC2292B1047C44B94FF408
:105380000073D2F80422012100F012FB204610BD68
:105390004023D2F80422012100F00AFB0024F5E7A3
:1053A0000324F3E70020014B187070479743002057
:1053B00021281AD0222828D0202814D10B78164A68
:1053C0001360487843EA00231360887843EA004377
:1053D0001360C87843EA006313600B7913714B794B
:1053E00053718B799371002070470B4B1A780A70B8
:1053F0005A784A709A788A70DA78CA701A790A717B
:105400005A794A719B798B71EDE74B8803F0010360
:10541000024A1370E7E700BF2801002097430020ED
:105420000020704770B505460D4E0A6801463046AB
:10543000FDF7DFFBB4683046FDF738FC241A013C69
:105440003F2C04D8074B01221A70002070BD064C77
:1054500029462046FFF76FFF2046FFF78AFFF4E753
:10546000AC4B002096430020C440002010B5074CF0
:10547000002207492046FFF756FF06492046FFF75E
:105480005AFF0020044B187010BD00BFC44000201C
:10549000C04B0020A84F00209743002008B5084BC0
:1054A00000221A704FF4806206490748FDF78DFB11
:1054B0004FF4806205490648FDF787FB012008BDCF
:1054C0009743002098470020AC4B002098430020D1
:1054D000984B002008B50248FDF7E8FB08BD00BF67
:1054E000AC4B002000B583B000238DF807300122BB
:1054F0000DF107010348FDF7A6FB9DF8070003B077
:105500005DF804FBAC4B0020014B1868704700BFEE
:10551000280100200B4BD3F8BC3263B10A4B18783A
:1055200040B1084B93F89C32DBB2032B05D1054BFD
:105530005B6823B17047002070470020704700204F
:10554000F8E700BFC4400020974300202DE9F04158
:1055500007460D46FFF7DEFF18B900263046BDE8C6
:10556000F081FBF7D1FC804600260AE0ACB9FFF7DA
:10557000D1FF0028F2D0FBF7C7FCA0EB0803632B98
:10558000ECD8AE42EAD209488468FDF78FFB241AB2
:10559000013CA542EAD82C46E8E7224639460348B2
:1055A000FDF727FB27442644E1E700BF984B002086
:1055B00070B51C4B1B788BB91B48FDF777FB044675
:1055C00010F03F0F02D138B1441E05D0174BD3F86D
:1055D000BC32D3F81432ABB1002070BD14488468DB
:1055E000FDF764FB241A013C3F2CE5D90F4C11490F
:1055F0002046FFF7A0FE2046FFF7BBFE094B002226
:105600001A70D9E70C4E224631460748FDF71BFBBE
:10561000064D224631462846FFF785FE2846FFF70D
:1056200090FED9E796430020984B0020C44000200C
:10563000AC4B0020A84F0020C04B002012230B8051
:10564000004870476401002004230B800048704725
:1056500060010020002393421ED200B510E00CF13F
:10566000370C01F813C000014FEA430C0CF1010C98
:105670004FF0000E01F80CE00133DBB2934209D287
:105680004FEA107CB0F1204FE9D20CF1300C01F858
:1056900013C0E8E75DF804FB7047000038B50B4B1A
:1056A000D3F89005D3F89445D3F89835C01800D1B5
:1056B00038BD074D08222946FFF7CCFF042205F12B
:1056C00010012046FFF7C6FFF2E700BF0070FF1F82
:1056D0004601002008B51A230B80FFF7DFFF0148C1
:1056E00008BD00BF4401002008B50A4628B9054995
:1056F000054805F0DAFE034808BD0249024805F0F6
:10570000D4FEF8E7905300201C01010810B50A46AA
:10571000034C2146034805F0C8FE204610BD00BFDB
:10572000905300203401010808B50A4628B90549FC
:10573000054805F0BAFE034808BD0249024805F0D5
:10574000B4FEF8E7905300204801010808B50A4666
:1057500028B90549054805F0A8FE034808BD0249D7
:10576000024805F0A2FEF8E790530020540101081A
:10577000032805D8DFE800F0050402050120704782
:105780000320704702680E4B9A4200D0704700B564
:1057900083B003F5DA339A6D42F400029A659B6D8B
:1057A00003F400030193019B00220621142000F062
:1057B000F7F9142000F004FA03B05DF804FB00BF11
:1057C000005C004008B500F52671D0F8D80205F05D
:1057D00005FA08BD08B501EB810300EBC303D3F85C
:1057E0006421D0F8D80205F025FA08BD08B501EB10
:1057F000810300EBC3035A6AD0F8D80205F056FAC9
:1058000008BD08B5D0F8D80205F0F6FA08BD10B505
:1058100004464379022B09D10121D4F8D80205F0BE
:10582000D1FAD4F8D80205F0A0FA10BDFBF770FB4E
:10583000F2E7000010B50446D0F8D80205F0C5FA2A
:10584000637A23B1044A136943F006031361034BDF
:1058500000221A7010BD00BF00ED00E0B05700201C
:1058600008B5437A23B1054A136923F0060313618F
:10587000D0F8D80205F0B3FA08BD00BF00ED00E093
:1058800010B503461C48C0F8D832C3F8C4021B4BFD
:1058900003600823037102234371C3710123037260
:1058A000002343728372C37202F0C4F908BB124C26
:1058B000142300221146204603F0F0F8542300225E
:1058C0008021204603F0EAF894230022812120461B
:1058D00003F0E4F8D42300220121204603F0DEF88F
:1058E0004FF48A7300228221204603F0D7F800206B
:1058F00010BDFBF70DFBDAE7B4570020005C004059
:1059000008B5D0F8C40202F0F0F9FFF731FF08BD86
:1059100008B594461A466346D0F8C40202F081FFE7
:10592000FFF726FF08BD08B5D0F8C40202F0BCFF9F
:10593000FFF71EFF08BD08B5D0F8C40203F036F823
:10594000FFF716FF08BD08B5D0F8C40203F067F8EA
:10595000FFF70EFF08BDD0F8C43211F0800F08D158
:1059600001F07F0101EB810103EBC10393F85201C8
:10597000704701F07F0101EB810103EBC103987CCB
:105980007047000008B5D0F8C40202F05EFEFFF7D1
:10599000EFFE024B01221A7008BD00BFB057002075
:1059A00008B5D0F8C40202F0DBFFFFF7E1FE08BD46
:1059B00008B5D0F8C40202F0ADFFFFF7D9FE08BD6C
:1059C00008B5D0F8C40202F0C2FF08BD0048704715
:1059D000905500207047000010B5FDF7C9FD044642
:1059E000FFF76EF80440E4B2FFF772F90440FFF7E6
:1059F0000DF90440FEF79AFF0440FFF735F902283D
:105A000025D01448FFF7C2F813491448FFF7BEF831
:105A100013491448FFF7BAF8FFF7FAF904400120D8
:105A2000FFF7CAFA0440FFF793F904404FF46141CD
:105A30000020FFF7A3F90440FDF724FE0440FEF721
:105A400039FB04400020FFF767F8204610BDFFF740
:105A500011F9D6E7640101087C01010888010108F9
:105A6000A0010108AC01010810B5032000F086F880
:105A70000020FBF73FFB10B10124204610BD044677
:105A8000FBF7AEFAF9E70000034A13680349096817
:105A90000B441360704700BF905A0020980100200B
:105AA000014B1868704700BF905A002038B5044673
:105AB000FFF7F6FF0546B4F1FF3F02D0044B1B6829
:105AC0001C44FFF7EDFF401BA042FAD338BD00BFD6
:105AD00098010020002807DB00F01F024009012385
