:020000040800F2
:100000000080002069110008D10F0008D30F0008FC
:10001000D50F0008D70F0008D90F00080000000016
:10002000000000000000000000000000DB0F0008DE
:10003000DD0F000800000000DF0F0008E10F0008DE
:10004000B9110008B9110008B9110008B911000868
:10005000B9110008B9110008B9110008B911000858
:10006000B9110008B9110008B9110008B911000848
:10007000B9110008B9110008B9110008B911000838
:10008000B911000800000000B9110008B9110008FA
:10009000E134000869250008B9110008B911000809
:1000A000B9110008B9110008B9110008B911000808
:1000B000B9110008B9110008B9110008B9110008F8
:1000C000CD2C0008B9110008B9110008B9110008B9
:1000D000B9110008B9110008B9110008B9110008D8
:1000E000B9110008B9110008B9110008B9110008C8
:1000F000B9110008B9110008B9110008000000008A
:1001000000000000B911000800000000B91100084B
:10011000B911000800000000B9110008B911000869
:10012000B9110008B9110008B9110008B911000887
:10013000B91100080000000000000000B91100081B
:10014000B9110008B911000800000000000000000B
:10015000000000000000000000000000000000009F
:10016000000000000000000000000000B9110008BD
:10017000B9110008000000000000000000000000AD
:1001800000000000B911000800000000000000009D
:10019000000000000000000000000000000000005F
:1001A0000000000000000000B9110008B9110008AB
:1001B000B9110008B9110008B911000800000000C9
:1001C00000000000B911000800000000000000005D
:0801D000B9110008B911000883
:1001E00010B5054C237833B9044B13B10448AFF371
:1001F00000800123237010BD640300200000000074
:1002000004DB000808B5034B1BB103490348AFF3F7
:10021000008008BD000000006803002004DB000827
:1002200010F8012B11F8013B012A28BF9A42F7D0A0
:10023000D01A70470000000000000000000000001D
:1002400001F0FF01102A2BDB10F0070F08D010F887
:10025000013B013A8B422DD010F0070F42B3F6D18B
:10026000F0B441EA012141EA014122F007047FF0A4
:1002700000070023F0E80256083C85EA010586EAFB
:10028000010685FA47F5A3FA87F586FA47F6A5FA37
:1002900087F68EB9EED1F0BC01F0FF0102F0070243
:1002A00032B110F8013B013A83EA010313B1F8D1EE
:1002B0000020704701387047002D06BF35460338CF
:1002C000073815F0010F07D1013015F4807F02BF08
:1002D000013015F4C03F0130F0BC0138704700BF59
:1002E000034613F8012B002AFBD1181A0138704776
:1002F00081F0004102E000BF83F0004330B54FEAD7
:1003000041044FEA430594EA050F08BF90EA020F43
:100310001FBF54EA000C55EA020C7FEA645C7FEAD6
:10032000655C00F0E2804FEA5454D4EB5555B8BFF9
:100330006D420CDD2C4480EA020281EA030382EA6A
:10034000000083EA010180EA020281EA0303362DFC
:1003500088BF30BD11F0004F4FEA01314FF4801CCF
:100360004CEA113102D0404261EB410113F0004FE1
:100370004FEA03334CEA133302D0524263EB430398
:1003800094EA050F00F0A780A4F10104D5F1200E36
:100390000DDB02FA0EFC22FA05F2801841F1000191
:1003A00003FA0EF2801843FA05F359410EE0A5F165
:1003B00020050EF1200E012A03FA0EFC28BF4CF096
:1003C000020C43FA05F3C01851EBE37101F000454C
:1003D00007D54FF0000EDCF1000C7EEB00006EEB59
:1003E0000101B1F5801F1BD3B1F5001F0CD34908E3
:1003F0005FEA30004FEA3C0C04F101044FEA44523A
:1004000012F5800F80F09A80BCF1004F08BF5FEAC0
:10041000500C50F1000041EB045141EA050130BDA0
:100420005FEA4C0C404141EB0101013C28BFB1F5B2
:10043000801FE9D291F0000F04BF01460020B1FAFD
:1004400081F308BF2033A3F10B03B3F120020CDAD0
:100450000C3208DD02F1140CC2F10C0201FA0CF0AE
:1004600021FA02F10CE002F11402D8BFC2F1200C13
:1004700001FA02F120FA0CFCDCBF41EA0C019040C9
:10048000E41AA2BF01EB0451294330BD6FEA040412
:100490001F3C1CDA0C340EDC04F11404C4F12002FD
:1004A00020FA04F001FA02F340EA030021FA04F30F
:1004B00045EA030130BDC4F10C04C4F1200220FA66
:1004C00002F001FA04F340EA0300294630BD21FAA4
:1004D00004F0294630BD94F0000F83F4801306BF6A
:1004E00081F480110134013D4EE77FEA645C18BF5E
:1004F0007FEA655C29D094EA050F08BF90EA020FF5
:1005000005D054EA000C04BF1946104630BD91EAEC
:10051000030F1EBF0021002030BD5FEA545C05D1EF
:100520004000494128BF41F0004130BD14F580042E
:100530003CBF01F5801130BD01F0004545F0FE41A2
:1005400041F470014FF0000030BD7FEA645C1ABFD7
:10055000194610467FEA655C1CBF0B46024650EA0E
:10056000013406BF52EA033591EA030F41F400213A
:1005700030BD00BF90F0000F04BF0021704730B5C0
:100580004FF4806404F132044FF000054FF0000195
:1005900050E700BF90F0000F04BF0021704730B556
:1005A0004FF4806404F1320410F0004548BF40422B
:1005B0004FF000013EE700BF42004FEAE2014FEA80
:1005C00031014FEA02701FBF12F07F4393F07F4F5B
:1005D00081F06051704732F07F4208BF704793F05E
:1005E0007F4F04BF41F40021704730B54FF4607471
:1005F00001F0004521F000411CE700BF50EA010274
:1006000008BF704730B54FF000050AE050EA01021C
:1006100008BF704730B511F0004502D5404261EB8C
:1006200041014FF4806404F132045FEA915C3FF4CD
:10063000D8AE4FF003025FEADC0C18BF03325FEA6A
:10064000DC0C18BF033202EBDC02C2F1200300FA1B
:1006500003FC20FA02F001FA03FE40EA0E0021FA40
:1006600002F11444BDE600BF70B54FF0FF0C4CF42E
:10067000E06C1CEA11541DBF1CEA135594EA0C0FE0
:1006800095EA0C0F00F0DEF82C4481EA030621EA1B
:100690004C5123EA4C5350EA013518BF52EA033556
:1006A00041F4801143F4801338D0A0FB02CE4FF008
:1006B0000005E1FB02E506F00042E0FB03E54FF038
:1006C0000006E1FB03569CF0000F18BF4EF0010E30
:1006D000A4F1FF04B6F5007F64F5407404D25FEA2C
:1006E0004E0E6D4146EB060642EAC62141EA5551DF
:1006F0004FEAC52040EA5E504FEACE2EB4F1FD0C21
:1007000088BFBCF5E06F1ED8BEF1004F08BF5FEA9E
:10071000500E50F1000041EB045170BD06F0004650
:1007200046EA010140EA020081EA0301B4EB5C04FD
:10073000C2BFD4EB0C0541EA045170BD41F48011F5
:100740004FF0000E013C00F3AB8014F1360FDEBF1A
:10075000002001F0004170BDC4F10004203C35DAF6
:100760000C341BDC04F11404C4F1200500FA05F379
:1007700020FA04F001FA05F240EA020001F000421A
:1007800021F0004110EBD37021FA04F642EB060190
:100790005EEA430E08BF20EAD37070BDC4F10C04BA
:1007A000C4F1200500FA04F320FA05F001FA04F27E
:1007B00040EA020001F0004110EBD37041F100016A
:1007C0005EEA430E08BF20EAD37070BDC4F1200575
:1007D00000FA05F24EEA020E20FA04F301FA05F2DD
:1007E00043EA020321FA04F001F0004121FA04F285
:1007F00020EA020000EBD3705EEA430E08BF20EA55
:10080000D37070BD94F0000F0FD101F0004640008E
:1008100041EB010111F4801F08BF013CF7D041EA10
:10082000060195F0000F18BF704703F00046520014
:1008300043EB030313F4801F08BF013DF7D043EAE5
:100840000603704794EA0C0F0CEA135518BF95EA9B
:100850000C0F0CD050EA410618BF52EA4306D1D122
:1008600081EA030101F000414FF0000070BD50EA41
:10087000410606BF1046194652EA430619D094EACB
:100880000C0F02D150EA013613D195EA0C0F05D1B5
:1008900052EA03361CBF104619460AD181EA030109
:1008A00001F0004141F0FE4141F470014FF00000C1
:1008B00070BD41F0FE4141F4780170BD70B54FF05C
:1008C000FF0C4CF4E06C1CEA11541DBF1CEA1355DC
:1008D00094EA0C0F95EA0C0F00F0A7F8A4EB0504BE
:1008E00081EA030E52EA03354FEA013100F08880B5
:1008F0004FEA03334FF0805545EA131343EA12637E
:100900004FEA022245EA111545EA10654FEA002632
:100910000EF000419D4208BF964244F1FD0404F5EB
:10092000407402D25B084FEA3202B61A65EB030547
:100930005B084FEA32024FF480104FF4002CB6EB04
:10094000020E75EB030E22BFB61A754640EA0C0084
:100950005B084FEA3202B6EB020E75EB030E22BFC4
:10096000B61A754640EA5C005B084FEA3202B6EB05
:10097000020E75EB030E22BFB61A754640EA9C00C4
:100980005B084FEA3202B6EB020E75EB030E22BF94
:10099000B61A754640EADC0055EA060E18D04FEA52
:1009A000051545EA16754FEA06164FEAC30343EAF2
:1009B00052734FEAC2025FEA1C1CC0D111F4801FBF
:1009C0000BD141EA00014FF000004FF0004CB6E7B8
:1009D00011F4801F04BF01430020B4F1FD0C88BF57
:1009E000BCF5E06F3FF6AFAEB5EB030C04BFB6EB62
:1009F000020C5FEA500C50F1000041EB045170BD55
:100A00000EF0004E4EEA113114EB5C04C2BFD4EB81
:100A10000C0541EA045170BD41F480114FF0000E05
:100A2000013C90E645EA060E8DE60CEA135594EA81
:100A30000C0F08BF95EA0C0F3FF43BAF94EA0C0F84
:100A40000AD150EA01347FF434AF95EA0C0F7FF4F9
:100A500025AF104619462CE795EA0C0F06D152EA4D
:100A600003353FF4FDAE1046194622E750EA410631
:100A700018BF52EA43067FF4C5AE50EA41047FF442
:100A80000DAF52EA43057FF4EBAE12E74FF0FF3CA7
:100A900006E000BF4FF0010C02E000BF4FF0010C78
:100AA0004DF804CD4FEA410C7FEA6C5C4FEA430CF1
:100AB00018BF7FEA6C5C1BD001B050EA410C0CBF40
:100AC00052EA430C91EA030F02BF90EA020F0020A2
:100AD000704710F1000F91EA030F58BF994208BF09
:100AE00090422CBFD8176FEAE37040F001007047C6
:100AF0004FEA410C7FEA6C5C02D150EA013C07D11D
:100B00004FEA430C7FEA6C5CD6D152EA033CD3D067
:100B10005DF8040B704700BF8446104662468C4661
:100B20001946634600E000BF01B5FFF7B7FF002894
:100B300048BF10F1000F01BD4DF808EDFFF7F4FFBD
:100B40000CBF012000205DF808FB00BF4DF808ED48
:100B5000FFF7EAFF34BF012000205DF808FB00BF6B
:100B60004DF808EDFFF7E0FF94BF012000205DF88D
:100B700008FB00BF4DF808EDFFF7CEFF94BF012042
:100B800000205DF808FB00BF4DF808EDFFF7C4FF3B
:100B900034BF012000205DF808FB00BF4FEA410C84
:100BA0007FEA6C5C02D150EA013C0AD14FEA430C67
:100BB0007FEA6C5C02D152EA033C02D14FF00000A4
:100BC00070474FF0010070474FEA410212F50012E2
:100BD00015D211D56FF47873B3EB625212D94FEA84
:100BE000C12343F0004343EA505311F0004F23FA6E
:100BF00002F018BF404270474FF00000704750EAC3
:100C0000013005D111F0004008BF6FF0004070477F
:100C10004FF00000704700BF4A0011D212F50012D9
:100C200011D20DD56FF47873B3EB62520ED44FEA44
:100C3000C12343F0004343EA505323FA02F07047C4
:100C40004FF00000704750EA013002D14FF0FF3002
:100C500070474FF0000070474FEA4102B2F1E043A5
:100C600024BFB3F5001CDCF1FE5C0DD901F0004C93
:100C70004FEAC0024CEA5070B2F1004F40EB8300E3
:100C800008BF20F00100704711F0804F21D113F10F
:100C90003872BCBF01F00040704741F480114FEA48
:100CA0005252C2F11802C2F1200C10FA0CF320FAD1
:100CB00002F018BF40F001004FEAC1234FEAD323EE
:100CC00003FA0CFC40EA0C0023FA02F34FEA430358
:100CD000CCE77FEA625307D150EA01331EBF4FF0E1
:100CE000FE4040F44000704701F0004040F0FE40FC
:100CF00040F40000704700BF38B5002200230446CE
:100D00000D46FFF723FF28B920462946BDE83840A5
:100D100000F00AB8204605F1004100F005F8404215
:100D200061EB410138BD00BFD0B50C4B0022064637
:100D30000F46FFF799FCFFF76FFF0446FFF71AFC19
:100D4000074B0022FFF790FC02460B46304639461F
:100D5000FFF7D2FAFFF760FF2146D0BD0000F03D5B
:100D60000000F04138B5194B1B78012B12D0022B33
:100D700012D14FF4FA7500F0A3F80446144B1B6827
:100D8000C31AAB420BD2124B5B68E31AB3F5FA7F7E
:100D90000FD238BD6425EEE74FF47A75EBE70C4BC4
:100DA00018600C4A136801331360002002F044F805
:100DB000E9E7074B5C6002F091FA18B1012002F0FC
:100DC0003BF8E6E7012001F0FBFFE2E7910300209A
:100DD000800300208803002010B50446002002F0A4
:100DE0006AFAB0F5AF6F07D00123237002F076FAEC
:100DF00008B90023237010BD02232370F6E700001A
:100E000010B5FFF7AFFF0D4C2046FFF7E5FF0C4B89
:100E10001A7823789A4205D10A4B187860B10022DB
:100E20001A7008E0064A1370002001F0C9FF012083
:100E300001F0C6FF002010BD0120FCE79003002058
:100E4000910300200000002000B583B04FF4614101
:100E5000002000F053FB05230093032300221146DA
:100E6000104600F069FF0121002001F0A1FC00F014
:100E70005BF900F02AF9034B034A1A6003B05DF8EE
:100E800004FB00BF8C030020010E000808B502E03F
:100E9000074800F04BF9074B1B78012BF8D0022BC9
:100EA00002D0FFF7ADFFF6E7014800F011F9F2E7D5
:100EB0008C0300209103002008B503F07DF808BDE5
:100EC00008B503F073F808BD72B6FEE710B5A4B01C
:100ED0003822002116A80AF08DF8002411941294EB
:100EE0001394149415944422214668460AF082F81B
:100EF000204606F0BBF806F0B1F8214AD2F890304F
:100F000023F01803C2F89030252316934FF4803352
:100F10001793012218921C9202231D9303211E9104
:100F20001F9228222092219304222292239316A812
:100F300006F0BCF9E8B90F231193032312930023A1
:100F4000139314931593042111A806F065FC90B92E
:100F50000C4B0093002306934FF080720C920D937C
:100F60004FF480731093684606F052FD28B924B000
:100F700010BDFFF7A9FFFFF7A7FFFFF7A5FF00BF11
:100F8000001002404030080008B502F0F3FFFFF700
:100F90009DFF012008BD000000B583B00B4B1A6E09
:100FA00042F001021A661A6E02F001020092009AE3
:100FB0009A6D42F080529A659B6D03F080530193C5
:100FC000019B06F0D9F803B05DF804FB0010024065
:100FD000FEE7FEE7FEE7FEE7FEE770477047704773
:100FE00008B502F0D7FF08BD0120704708B50AF028
:100FF00091F8162303604FF0FF3008BD08B54FF09D
:10100000FF31FFF7F3FFFEE770B50C4616460025EB
:1010100006E0AFF30080214601F8010B01350C46D4
:10102000B542F6DB304670BD70B50C46164600255D
:1010300004E014F8010BAFF300800135B542F8DB92
:10104000304670BD4FF0FF3070474FF400534B6097
:1010500000207047012070470020704710B50346FC
:101060000C4A0D490D48006840B10C480068034423
:10107000521A934206D8094A136010BD0748084C1B
:101080000460F2E70AF046F80C2303604FF0FF30EB
:10109000F3E700BF0080002000040000940300205C
:1010A000403A0020034AD2F8883043F47003C2F873
:1010B0008830704700ED00E008B502F0E7FEFFF76A
:1010C000C3FEFFF7E3FE002008BD012070470000CB
:1010D00038B50546114801F0B3FFFFF7F1FE0446AD
:1010E00003E0002002F0B8F850B92B68984780B1AF
:1010F000FFF7E6FEA042F4D0FFF7E2FE0446F4E775
:10110000002002F0B0F802460549002002F0BCF8C9
:10111000EBE7044801F094FF38BD00BF30DB000866
:1011200040DB00084CDB00080120704738B505465D
:101130000B4801F085FFFFF7C3FE04462B68984774
:1011400050B1FFF7BDFE001B0128F7D9FFF7B8FE2D
:10115000044600F01BFCF1E7024801F071FF38BDC6
:101160005CDB00086CDB00080D488546FFF79AFF42
:101170000C480D490D4A002302E0D458C4500433F2
:10118000C4188C42F9D30A4A0A4C002301E01360C8
:101190000432A242FBD309F0C3FFFFF78DFFFEE745
:1011A00000800020000000206403002078E8000890
:1011B000640300203C3A0020FEE70346002018604C
:1011C00058609A600120D8601961704710B40024FB
:1011D000046044608360C260016101205DF8044BDB
:1011E0007047F0B500270CE00CEB030511F803E0A5
:1011F00006F805E00133C5689D42F5D8294404602E
:101200000137974213D205686B1C8468B3FBF4F670
:1012100004FB16344368A3420BD00669002EEED0BF
:101220000029ECD0C36803FB05FC0023E3E70120A1
:10123000F0BD0020FCE770B50C461646002516E010
:1012400001EB0E0C1CF803C004F803C00133C268A4
:101250009A42F5D8144443680268934216D0013389
:101260008268B3FBF2F102FB113343600135B542F2
:101270000AD201690029EED0002CECD04368C26884
:1012800002FB03FE0023E2E7012070BD0020FCE723
:1012900003690268C06800FB023070470368426857
:1012A0009B1A8268B3FBF2F002FB103070470023F8
:1012B00080F8E63280F8E5323F2280F8E42280F8B8
:1012C000A432704738B5054690F8964104EB4410B7
:1012D00004EB40002844432205F5297100F5CC7049
:1012E00009F04DFF95F89731032B02D8013385F8AB
:1012F000973185F895410134634204F0030403F00B
:10130000030358BF5C4285F89641012385F8943168
:1013100038BD002303E08CF8002001339BB20F2B73
:101320000BD800EB030CC25C3AB1A2F16101C9B267
:101330001929F0D8203AD2B2EDE7102B00D070472F
:10134000013B0022C254FAE7064BB3F82C34984212
:1013500005D2044BD3F8303453F8200070470020F6
:10136000704700BF9803002008B50346094AB2F849
:101370002C2490420AD20846064AD2F8302452F869
:101380002310FEF74DFF18B1002000E0002008BD3B
:101390000120FCE79803002008B5084BB3F82C3473
:1013A000984202D39FED060A08BD044BD3F83034AF
:1013B000002153F8200008F077FFF5E7980300209C
:1013C0000000000008B5084BB3F82C34984201D354
:1013D000002008BD044BD3F830340022114653F8E6
:1013E000200009F033F8F4E79803002010B5044614
:1013F0000449007801F048FF0349207801F044FFD8
:1014000010BD00BF1CE000087CDB000838B590F878
:10141000973143B304460D4690F8E52222BB94F879
:10142000E62232BB012D29D094F99511013194F8AF
:10143000973191FBF3F203FB121184F89511C9B2B5
:1014400001EB411301EB43012144432201F5CC712F
:1014500004F5297009F093FE94F8E63284F8E53239
:10146000002384F8943138BD0F49007801F00CFF57
:10147000D5E70E49207801F007FFD3E794F89431BF
:101480001BB194F9963184F8953194F9951194F83B
:1014900097311944013991FBF3F203FB121184F8DF
:1014A0009511C9B2CCE700BF84DB00088CDB0008D3
:1014B00070B582B006460024A0F8124100F58A7586
:1014C000C0F8144101AA0C4900F5297009F0D4FDB7
:1014D000234609E05C1CA4B245F8230001AA064992
:1014E000002009F0C9FD23460028F3D1A6F81231E7
:1014F00003B1012002B070BD94DB000810B5034CAD
:101500002070616001F094FE207210BD98030020ED
:1015100038B5234B5B7A03B938BD054690F8E52210
:101520002049807A01F0B0FE95F8E6221E49A87A9B
:1015300001F0AAFE95F8E4221C49A87A01F0A4FE65
:1015400005F529721A49A87A01F09EFE95F99521B0
:101550001849A87A01F098FE95F896211649A87ABC
:1015600001F092FE95F897211449A87A01F08CFEBB
:1015700000240CE004EB441304EB430303F5CC73A9
:101580002B4422460E49A87A01F07EFE013495F8DC
:101590009731A342EEDC0B49A87A01F075FEBBE758
:1015A000980300209CDB0008ACDB0008BCDB0008D3
:1015B000CCDB0008DCDB0008ECDB0008FCDB00080F
:1015C0000CDC00081CE0000808B50A460146024B86
:1015D000187801F04FFE08BD980300200FB410B535
:1015E00082B004AB53F8042B0193084C4FF4807184
:1015F000204609F0F1FC0246214614F8110C01F0D6
:1016000039FE02B0BDE8104004B07047A9030020C5
:1016100038B50546FFF74CFF08B9002038BD16481D
:10162000FFF7DCFFD5F81401FFF773FE0024B5F8CF
:10163000E832A342F1DD04EB8401890001F53A713F
:1016400029440431D5F81401FEF7EAFD08B101344C
:10165000EDE7B5F81231013BA5F82C3405F58C7394
:10166000C5F8303404EB840405EB8404D4F8FC3270
:1016700005F22C409847D0E71CE0000830B585B053
:1016800004468DF80710037CABB9CBB21B2B30D0CE
:101690001CD8082B4BD00D2B40F0848090F8E632FC
:1016A0000BBB002384F8E63284F8E53284F8A432D8
:1016B0002046FFF79BFE237C013B032B00F2C880F2
:1016C000DFE813F0C400CC00CF0056017F2B69D1B6
:1016D00090F8E5C290F8E6E2F445ECD2AEEB0C05EA
:1016E000EDB2012212E0FFF7EDFD2046FFF790FF7B
:1016F000D7E701230374DEE70CEB0203591E2344F2
:1017000093F8A402631883F8A40201329542F3DC33
:101710000EF1FF3E5FFA8EFE84F8E6E2A644002357
:101720008EF8A4329449207801F0AEFDC3E790F81A
:10173000E6325BB390F8E50240B3834209D094F8F7
:10174000E6C2604522D2ACEB000E5FFA8EFE0022AC
:1017500011E0013BDBB284F8E6322344002283F837
:10176000A422ECE78318591E234493F8A45263186B
:1017700083F8A45201329645F4DC0CF1FF33DBB25E
:1017800084F8E6322344002283F8A42294F8E53258
:10179000002B90D0013B84F8E5327849207801F0A5
:1017A00073FD88E794F8E632591C94F8E4229142DC
:1017B00081DA94F8E522934216D094F8E5C294F8C1
:1017C000E6028445BFF477AFA0EB0C05EDB2002232
:1017D000954224DD831A591E214491F8A412234412
:1017E00083F8A4120132F3E701220DF107012078FA
:1017F00001F040FD94F8E522A3189DF8071083F846
:10180000A41294F8E6320133DBB284F8E6320132F6
:1018100084F8E5222344002283F8A422CDE79DF832
:10182000072004EB0C0383F8A4220130C0B284F833
:10183000E6020CF1010C84F8E5C22044002380F894
:10184000A4324F49207801F01FFD34E702232374AE
:101850002046FFF75DFE002005B030BD0323237452
:10186000F6E7002323749DF80730442B26D09DF81B
:101870000730432B37D09DF80730412B4AD09DF8D5
:101880000730422B50D09DF80730312B56D09DF8B1
:101890000730342BDCD194F8E53294F8E6229342F9
:1018A00058D394F8E52294F8E6329A4259D894F83D
:1018B000E63284F8E53204232374C9E794F8E5227C
:1018C000002AD4D0013A84F8E5221B228DF80820A2
:1018D0005B228DF809208DF80A30032202A92078B6
:1018E00001F0C8FCC3E794F8E52294F8E6128A42B6
:1018F000C1D2013284F8E5221B228DF808205B2238
:101900008DF809208DF80A30032202A9207801F011
:10191000B1FCB0E701212046FFF778FD04F52971FD
:10192000207801F0B1FCAAE700212046FFF76EFD08
:1019300004F52971207801F0A7FCA4E794F8E522CA
:101940001049207801F0A0FC002384F8E53204233C
:1019500023749CE7D21A92B20B49207801F094FCD0
:101960009FE7D21A92B20749207801F08DFC9EE7DA
:10197000002323746CE700BF1CDC000824DC000893
:101980002CDC000884DB000838DC000838B5094B83
:101990001C7A0CB9204638BD187801F05DFC00288F
:1019A000F8D0044D287801F05EFC01462846FFF788
:1019B00065FEEFE79803002010B50F48FFF70EFE15
:1019C0000E48FFF70BFE00240DE004EB84039800A3
:1019D00000F53A700A4B18440430FFF7FFFD064843
:1019E000FFF7FCFD0134064BB3F8E832A342ECDC10
:1019F0000448FFF7F3FD10BD1CE0000840DC0008C0
:101A00009803002060DC00082DE9F04383B00388D0
:101A1000446873B1012B12D81027002211462068A8
:101A200008F014FD06462B48FFF7D8FDB046002409
:101A30001BE02948FFF7D2FD03B0BDE8F083002288
:101A40001146606808F002FD0746E6E73168234862
:101A5000FFF7C4FD624204F0030302F0030258BF23
:101A60005342032B0BD004360134BC42E4DA14F0A9
:101A7000030FEBD131461A48FFF7B0FDE6E71948EE
:101A8000FFF7ACFD4FF0000917E01748FFF7A6FD80
:101A90000135032D0DDC05F108036B4413F8041C1C
:101AA000A1F12003DBB25E2BEFD81048FFF796FDC3
:101AB000EEE708F1040809F10109B9F1030F04DCAC
:101AC000D8F8003001930025E3E70948FFF786FDC9
:101AD000C9E700BF98DC000880DC0008ACDC000827
:101AE000A0DC0008B4DC0008BCDC0008B8DC00089E
:101AF000C0DC000808B5044B187801F0ADFB08B94C
:101B0000012008BD0020FCE7980300202DE9F041EA
:101B1000124BB3F8E8520F2D02D90020BDE8F08136
:101B20000E46AF0005EB8504A40004F53A74984610
:101B30001C4404340146204609F019FB2F4408EBED
:101B40008707C7F8FC622046FFF7E3FBB8F8E832E6
:101B50000133A8F8E8320120E0E700BF9803002035
:101B600008B51248002303724372037480F895315C
:101B700080F8963180F8973180F894310C4BC0F89A
:101B800034340C4BC0F838340B4BC0F83C340B4B9E
:101B9000C0F84034FFF78BFB09490A48FFF7B6FF4E
:101BA00009490A48FFF7B2FF012008BD9803002049
:101BB000C5130008991300084913000869130008A9
:101BC000B9190008C8DC0008091A0008D0DC0008B0
:101BD00010B58CB004464FF4AD6300FB03F328331B
:101BE000234A134401A9181D02F0DCFD049B03B332
:101BF0001F4B4FF4AD6202FB04335A6842F00102FE
:101C00005A60059BFBB11A4B4FF4AD6202FB0433E3
:101C10005A6842F002025A60069BF3B1144B4FF42B
:101C2000AD6202FB04335A6842F004025A600CB001
:101C300010BD0F4B4FF4AD6202FB04335A6822F023
:101C400001025A60DDE70A4B4FF4AD6202FB043338
:101C50005A6822F002025A60DEE7054B4FF4AD628B
:101C600002FB04335A6822F004025A60DFE700BF27
:101C7000E007002010B500242CB112491248FFF7EC
:101C800045FF012010BD11494FF4AD6004FB00F089
:101C90000B1801220A5400225A705A601A72DA6034
:101CA0001A615A619A61DA6100F1A80C9030084417
:101CB00010234C2261440430FFF788FA0134E4B267
:101CC000DAE700BF29220008D4DC0008E007002082
:101CD00058BB00B587B0844602BB0092154A4FF44A
:101CE000AD6000FB0C22126A402A1BD00222039234
:101CF0000191022202920493089B05934FF4AD6375
:101D000003FB0CF028300B4B18446946043002F0FA
:101D10009DFB60B1002007B05DF804FB4FF08042EE
:101D20000092DBE701220392E2E7002070470120E6
:101D3000F1E700BFE00700202DE9F04182B09DF8F7
:101D400020E018B1002002B0BDE8F08105464FF454
:101D5000AD6005FB00F000F12804534E3444043418
:101D600006EB000C5148CCF82C000026CCF8306073
:101D70004F4850F82200CCF834004E4850F821006B
:101D8000CCF8380001208CF83C008CF83D008CF831
:101D90003E004FEA03184848006800EB031750F86C
:101DA0000800CCF840007868CCF84400B868CCF85B
:101DB0004800F868CCF84C004FEA0E183F4800681D
:101DC00000EB0E1750F80800CCF850007868CCF8FB
:101DD0005400B868CCF85800F868CCF85C001C20B7
:101DE000CCF860000820CCF86400CCF868608CF86F
:101DF00028108CF829208CF82A308CF82BE040230E
:101E0000CCF820302E4BCCF82430204602F034FAA7
:101E100008B1002097E700963346324631462846FF
:101E2000FFF756FF00963346012231462846FFF75A
:101E30004FFF0096334602221146204602F039FB3E
:101E400008B100207FE7184B4FF4AD6202FB053369
:101E50003246596A204602F0DFFC08B1002072E7E2
:101E6000114B4FF4AD6202FB0533196D9B6D324689
:101E700003FB01F1204602F03DFB08B1002062E7C0
:101E8000204602F048FB08B100205CE7204602F043
:101E900054FB38B9044B4FF4AD6202FB053301200B
:101EA000587050E700204EE7E00700200064004033
:101EB00080DE000874DE00080C000020080000200E
:101EC00007000E00012801D90020704708B54FF423
:101ED000AD6303FB00F09030024B18440430FFF771
:101EE000DDF908BDE0070020012860D8F0B58BB00F
:101EF0000D461646304B4FF4AD6202FB00335B6873
:101F000013F0040F55D102FB00F428342A4B1C4473
:101F1000043491F84730DBB1012B1CD095F84830E0
:101F2000012B1FD0022B23D0CBB12B6801930023B0
:101F3000099308930593039395F846201F4B53F894
:101F400022300493204602F061FCC0B9002031E049
:101F500000230293E2E74FF080430293DEE707930A
:101F60000693E2E74FF40013079300230693DCE7A0
:101F70004FF4001307934FF480130693D5E7FEF751
:101F80009FFF0746AA1D01A9204602F032FB08B1B7
:101F900000200FE0204602F039FC30B9FEF790FF38
:101FA000C01BB042F6D3002004E0012002E0002074
:101FB000704700200BB0F0BDE00700208CDE000869
:101FC000012801D90020704708B54FF4AD6303FB29
:101FD00000F09030034B184401220430FFF72BF936
:101FE00008BD00BFE0070020012801D9002070478C
:101FF00000B585B04FF4AD6303FB00F02830074B0C
:1020000018446946043002F0F2FB20B9BDF8040020
:1020100005B05DF804FB0020FAE700BFE0070020F0
:10202000012801D90020704700B585B04FF4AD6399
:1020300003FB00F02830074B18446946043002F0D7
:10204000D6FB20B9BDF8000005B05DF804FB002008
:10205000FAE700BFE007002001281BD838B50E4B77
:102060004FF4AD6202FB00335B7803B938BD0A4C14
:1020700002FB00F0251800226A6028300444043472
:10208000204602F071FA204602F057FAEB6801335D
:10209000EB60EBE7704700BFE007002010B50024BD
:1020A000204609E0174B4FF4AD6202FB04331B7A64
:1020B0002BB1012B17D00134002CF3DD10BD114BD7
:1020C0004FF4AD6202FB04335B6813F0040FF2D0EF
:1020D000E0B2FFF7C1FF0B4B4FF4AD6202FB0433DC
:1020E00001201872E7E7074B4FF4AD6202FB04339F
:1020F0005B6813F0040FDED1024B02FB04330022B5
:102100001A72D8E7E00700202DE9F0438BB00746AC
:1021100088464FF4AD6600FB06F606F190042C4DA0
:102120002C4404342046FFF7B3F881463544831D20
:102130006A46296A404602F085FA68BB019B73BB78
:10214000009BC9F80030002389F84730039A214BDF
:1021500053F82230A9F80430069BB3F5001F25D0B0
:10216000002389F84830012200212046FFF739F882
:1021700038B9174B4FF4AD6202FB07331A690132CD
:102180001A61134B4FF4AD6202FB0733D3F8903062
:1021900013B148469847A8B90BB0BDE8F083009B3F
:1021A000C9F80030012389F84730CFE7059BB3F524
:1021B000801F03D0012389F84830D4E7022389F82F
:1021C0004830D0E7012200212046FFF734F8E3E74A
:1021D000E0070020CCDE000801281CD810B50E4B0B
:1021E0004FF4AD6202FB00335C6814F0010F06D1BE
:1021F00014F0020F07D114F0040F08D110BD0748E6
:1022000000F01EFFF4E7064800F01AFFF3E7054868
:1022100000F016FFF2E77047E0070020D8DC000866
:10222000F4DC000810DD00082DE9F04194B004460C
:102230000388012B0CD000252388012B31D0238863
:10224000012B74D0002D00F03D8114B0BDE8F08169
:102250004369A1490020984705460028ECD0002793
:102260001CE09E4E4FF4AD6303FB076671789C48FB
:10227000FFF7B4F931699B48FFF7B0F971699A48E3
:10228000FFF7ACF9B1699948FFF7A8F9F1699848E7
:10229000FFF7A4F9F8B2FFF79FFF0137002FE0DD49
:1022A000CAE7636993490020984706460028C6D0CC
:1022B0000027FFF71FFC002837D00020FFF702FEA1
:1022C0000028F6D001A90020FFF77AFE8A49A1FB79
:1022D000073189094FF47A7303FB11714F1C87484A
:1022E000FFF77CF99DF84B3053B98548FFF776F935
:1022F000BDF8082001998348FFF770F900250CE02C
:102300008148FFF76BF9F3E705F150036B4413F8CD
:10231000461C7E48FFF762F90135BDF80830AB4234
:10232000F2DC7B48FFF75AF9C3E7354687E7636974
:102330007849002098478046002883D0674B5E6824
:1023400000273D466EE0FEF7BBFD054600208DF8F8
:102350004C0001228DF84B2002238DF84A304FF4B7
:1023600045710191ADF808308DF80A208DF80B30D9
:102370000A2201A9FFF7B8FDF0B90020FFF734FEEB
:1023800010B9FFF74DFE58B10020FFF72DFE0446AF
:102390000020FFF745FE024621465F48FFF71EF981
:1023A0005E4B1B68002B47D05C4C21685C48FFF7F4
:1023B00015F9002323603FE04F49A1FB073189094C
:1023C0004FF47A7303FB11714F1C5648FFF706F95F
:1023D0009DF84B3053B94A48FFF700F9BDF8082083
:1023E00001994848FFF7FAF800240CE04648FFF747
:1023F000F5F8F3E704F150036B4413F8461C434827
:10240000FFF7ECF80134BDF80830A342F2DC404895
:10241000FFF7E4F8B1E7FFF741FED0B90020FFF77E
:1024200051FDD0B9FFF766FB002849D0FEF748FD03
:10243000431BB3F57A7F86D2284B5968B142EAD064
:102440003948FFF7CBF80020FFF7C6FE234B5E6844
:10245000E1E73648FFF7C2F8E0E701A90020FFF7FF
:10246000AFFD2549A1FB073189094FF47A7303FBBE
:1024700011714F1C2148FFF7B1F89DF84B3053B94B
:102480001F48FFF7ABF8BDF8082001991D48FFF77A
:10249000A5F800240CE01C48FFF7A0F8F3E704F1CE
:1024A00050036B4413F8461C1848FFF797F80134A3
:1024B000BDF80830A342F2DC1548FFF78FF8B1E70A
:1024C0004546BFE61A48FFF789F81A48FFF786F82D
:1024D0001948FFF783F8B8E62CDD0008E007002074
:1024E00034DD00084CDD000864DD00087CDD0008F8
:1024F00094DD0008ACDD0008D34D6210B4DD0008A7
:10250000C4DD0008D4DD0008CCDD0008E8DD0008EB
:102510001CE00008F0DD000808DE0008DC070020F1
:102520001CDE0008F8DD000828DE00083CDE00089C
:1025300050DE00085CDE000868DE000808B50020F8
:10254000FFF746FB08BD0000054A1368013313601E
:10255000036E23B1034A536843F01003536070477E
:10256000DC070020E007002008B5024802F0DFF990
:1025700008BD00BF0C08002010B50C4611F0010F7B
:102580000ED114F0020F03D0084A9369013393610E
:1025900014F0040F03D0054AD3690133D36110BD91
:1025A00001460020FFF7B0FDEBE700BFE007002089
:1025B00000B589B000230393049305930693079312
:1025C0000268174B9A4202D009B05DF804FB03F58C
:1025D000D6339A6D42F000729A659A6D02F00072DD
:1025E0000192019ADA6C42F00202DA64DB6C03F0C9
:1025F00002030293029B4FF440730393022304935C
:102600000923079303A9074802F056FA002211464E
:10261000152001F04BFD152001F058FDD4E700BF57
:10262000006400400004004808B501F091F9014B36
:10263000187008BD480D002008B501F0C5F908BDA7
:1026400008B501F0A1F908BD08B501F0A5F908BD6C
:1026500008B501F0D5F908BD08B501F0AFF908BD1E
:1026600082B00023019302E0019B013301934FF4F8
:102670007A7300FB03F3019A9342F5D802B07047D6
:1026800008B500233BB108490848FFF73FFA01208D
:10269000074B187008BD0022064941F8232006495F
:1026A000CA540133EEE700BFDD290008DCDF000873
:1026B000A10D0020A80D0020A00D00202DE9F0475D
:1026C00086B0054600EB8003384E06EB8306D6F84D
:1026D0000890CDF804904FF0110ACDF808A000241E
:1026E000039403230493D6F8048001A9404602F022
:1026F000E3F980270197CDF808A00394F66801A9B3
:10270000304602F0D9F901221FFA89F1404602F061
:102710004BFB01223946304602F046FB0520FFF70D
:102720009FFF17E005EB8502204B03EB82031F8917
:102730005E6800223946304602F036FB0520FFF77E
:102740008FFF01223946304602F02EFB0520FFF7AD
:1027500087FF0134082CE5DD144E05EB850406EBFC
:102760008404B4F80890D4F8048000224946404616
:1027700002F01AFB0520FFF773FF00228021E068BA
:1027800002F012FB0520FFF76BFF0122494640468D
:1027900002F00AFB0520FFF763FF01228021E068B9
:1027A00002F002FB06B0BDE8F08700BFFCE10008C4
:1027B00038B500EB8002184B53F8225008B10020C6
:1027C00038BD0446154B19540023154A1354154AB5
:1027D0002A60154A52F821206A60AB600122EA6043
:1027E0002B616B61EB612B62FFF768FF284602F0FB
:1027F00056FD284602F0EFFC08B10020E0E700217A
:10280000284603F0DDFB0021284603F007FC0120E9
:10281000034B1855D4E700BFFCE10008A40D0020CD
:10282000A00D002000540040F4E1000810B500EBBA
:1028300080000A231A464900044C54F8200002F094
:10284000C5FF08B1002010BD0120FCE7FCE1000835
:1028500010B584B0044600EB800C0B4850F82C00F7
:1028600014B1002004B010BD490089B2079C029445
:10287000BDF8184001940093012302F0CFFE08B97F
:102880000120EFE70020EDE7FCE1000810B582B081
:10289000049C019401240094FFF7DAFF02B010BDFC
:1028A00010B584B0044600EB800C0B4850F82C00A7
:1028B00014B1002004B010BD490089B2079C0294F5
:1028C000BDF8184001940093022302F0A7FE08B956
:1028D0000120EFE70020EDE7FCE1000810B582B031
:1028E000049C019401240094FFF7DAFF02B010BDAC
:1028F00010B584B0044600EB800C0B4850F82C0057
:1029000014B1002004B010BD490089B2079C0294A4
:10291000BDF8184001940093012302F0ABFD08B903
:102920000120EFE70020EDE7FCE1000800B585B0ED
:102930008DF80F30069B0193012300930DF10F03D7
:10294000FFF7D6FF05B05DF804FB000010B584B0BA
:10295000044600EB800C0B4850F82C0014B100200A
:1029600004B010BD490089B2079C0294BDF818401C
:1029700001940093022302F07DFD08B90120EFE7E6
:102980000020EDE7FCE1000800B585B08DF80F30C0
:10299000069B0193012300930DF10F03FFF7D6FF70
:1029A00005B05DF804FB000010B582B0044600EBF2
:1029B000800C094850F82C0014B1002002B010BD62
:1029C000490089B2049C00949BB202F081FC08B9D2
:1029D0000120F3E70020F1E7FCE100082DE9F047D2
:1029E000A4B004460388022B5AD0052B3ED183683D
:1029F0000120984710F0FF0500F08A80012D28BFC4
:102A00000125A368022098471FFA80F9A3680320D4
:102A1000984706461FFA80FAA3680420984707469D
:102A200005F1FF385FFA88F863698A490020984702
:102A3000002874D16369884900209847002840F035
:102A400088806369854900209847002840F0BB8052
:102A50006369834900209847002840F0B680636985
:102A6000804900209847002840F0CB8001217E4813
:102A7000FEF7B4FD01217D48FEF7B0FD7C48FEF76E
:102A8000ADFD7C48FEF7AAFD7B48FEF7A7FD7B481D
:102A9000FEF7A4FD7A48FEF7A1FD24B0BDE8F0875B
:102AA00083680120984710F0FF0519D0012D28BF39
:102AB0000125013DEDB2636972490020984700BBD2
:102AC00063697149002098470028E6D00121284613
:102AD000FFF76EFEB8B1691C6C48FEF77FFDDCE7BE
:102AE0000125E6E701347F2CD7D8E1B22846FFF76D
:102AF0009DFE0028F6D02246691C6548FEF76EFD53
:102B0000F0E70024EFE7691C6248FEF767FDC4E7C1
:102B1000012576E729466048FEF760FDBDE7002401
:102B2000BBB2A342B9D90AEB04026423009304ABFD
:102B300092B249464046FFF7A9FE0028EAD09DF828
:102B4000103014FA86F229465448FEF747FD013446
:102B5000E6E7FEF7B5F9044664230093FBB252465C
:102B600049464046FFF7E2FE50B1FEF7A9F9001BC7
:102B70000090BBB2B2B229464948FEF72FFD8CE760
:102B800029464548FEF72AFD87E79DF8103014FADC
:102B900086F229464148FEF721FD0134BBB2A3422B
:102BA0007FF67BAF0AEB04026423009304AB92B27E
:102BB00049464046FFF792FE0028E6D129463648AE
:102BC000FEF70CFD69E70024E8E7FEF779F9044613
:102BD00064230093FBB2524649464046FFF7D4FEB9
:102BE00050B1FEF76DF9001B0090BBB2B2B229469E
:102BF0002C48FEF7F3FC50E729462748FEF7EEFC89
:102C00004BE7FEF75DF904464FEA1A2A8DF808A053
:102C10008DF80960FBB28DF80A305B428DF80B30FD
:102C200064230093032302AA49464046FFF7BCFEF3
:102C300050B1FEF745F9001B0090BBB2B2B2294675
:102C40001848FEF7CBFC28E729461348FEF7C6FCD8
:102C500023E700BFACDD000868E0000894E000084E
:102C60009CE00008C8E00008D4E00008F0E000089C
:102C70000CE1000838E1000864E1000894E1000874
:102C8000C4E10008E0DF000804E000080CE00008F0
:102C9000E8DF000820E0000854E0000838E0000801
:102CA00070E00008A4E000080268064B1B689A4226
:102CB00000D07047436C002BFBD0034A13680133EC
:102CC0001360F6E74C0D0020A80D002008B502485F
:102CD00003F034F908BD00BF4C0D0020F0B589B0F9
:102CE0000023039304930593069307930268214BF3
:102CF0009A4201D009B0F0BD1F4CE36C43F00103D0
:102D0000E364E36C03F001030093009BE36C43F086
:102D10000203E364E36C03F002030193019B4FF4AD
:102D2000004303931227049701250595042607966F
:102D300003A94FF0904001F0BFFE80230393049756
:102D4000059500250695079603A90C4801F0B4FEE9
:102D5000A36D43F40013A365A36D03F40013029362
:102D6000029B2A460521202001F0A0F9202001F035
:102D7000ADF9BFE7005400400010024000040048D5
:102D800008B502680B4B9A4200D008BD0A4A936D01
:102D900023F4001393654FF400414FF0904001F08D
:102DA00075FF8021054801F071FF202001F092F9A4
:102DB000EBE700BF00540040001002400004004850
:102DC000012800D9704708B5044B03EBC00100226D
:102DD000898853F8300001F0E7FF08BD10E20008D1
:102DE00010B586B0002401940294039404940594D1
:102DF0000F4BDA6C42F00402DA64DB6C03F004037C
:102E00000093009B012302930DE00A4B03EBC402E5
:102E10009288019201A953F8340001F04DFEE0B20E
:102E2000FFF7CEFF0134012CEFDD012006B010BD0D
:102E30000010024010E20008012800D9704708B5D0
:102E4000044B03EBC002918853F8300001F0B1FF4E
:102E500008BD00BF10E200082DE9F04106460388D6
:102E6000012B0AD000273388012B23D03388012B74
:102E70003ED0002F5AD0BDE8F08143693049002090
:102E8000984707460028EED02E4C21882E48FEF7A2
:102E9000A5FB61882D48FEF7A1FB2D48FEF79EFBA0
:102EA0002C4C21882C48FEF799FB61882B48FEF7B3
:102EB00095FBD8E773692A49002098478046002887
:102EC000D4D0002506E01F4B986821462844FEF721
:102ED0007BFB2544FEF70EFE074638B1194B5C8894
:102EE000641BC3D0402CEED94024ECE74746BDE735
:102EF00073691C490020984706460028B9D0002570
:102F000006E0144B986821462844FEF75DFB2544F3
:102F1000FEF7F0FD074638B10E4B5C88641BA8D065
:102F2000402CEED94024ECE73746A2E70E48FEF7E6
:102F300055FB0E48FEF752FB0D48FEF74FFB9AE794
:102F40002CDD0008BC1A002020E2000838E200084E
:102F50001CE00008B01A002050E2000868E20008F7
:102F600080E2000888E2000890E200089CE2000885
:102F7000A8E2000810B50E4A0023138053804FF4D6
:102F800080619180D3800B4991600B4A13805380FC
:102F90004FF400619180D380084B93600124084B6B
:102FA0001C7008490848FEF7B1FD204610BD00BF5F
:102FB000BC1A0020B0160020B01A0020B00E00206D
:102FC000AE0E0020592E0008B4E20008003818BFE9
:102FD0000120014B187070471100002030B583B0FC
:102FE00004469446C3881344083382889A4205D223
:102FF0000023C3800CF108039A4219D3E0880091A2
:1030000023880E4A0CF10801A568284407F042FF06
:10301000238801332380E38882B21344E3806388EA
:103020001844A188884205DC1A446280012002E02D
:10303000002000E0012003B030BD00BFB8E200086E
:103040000FB410B582B0164B1B7823B902B0BDE89F
:10305000104004B0704705AB0193049A4FF480719F
:10306000104807F0B9FF04460F4B1B7813B10F4B04
:103070001B7843B90E4B1B7863B9224609490D48AA
:10308000FFF7ACFFE2E7024606490B4B187800F069
:10309000F1F8EFE7224603490848FFF79FFFECE706
:1030A000AE0E0020AC0D0020AD0E00201000002060
:1030B00011000020B01A0020AC0E0020BC1A002025
:1030C00008B5134BD3F8F03013F0010F0DD10022E7
:1030D000104BD3F8943013F0806F00D03AB1002138
:1030E000012000F073F8012008BD0122F0E7012063
:1030F00000F064F8411C012000F068F84FF4FA7009
:10310000FDF7DAFE012000F059F8034B1860E6E7FE
:1031100000ED00E000100240C81A0020014B1868C2
:10312000704700BFC81A002000B583B0134B01934D
:1031300004F056F84FF0E0220023136153619361CD
:103140000FE00F4A03F120004FF0FF3142F820104A
:1031500003F1600042F82010BFF34F8FBFF36F8F71
:103160000133072BEDDD019B5B68019A126882F346
:103170000888984703B05DF804FB00BF0000FF1FFC
:1031800000E100E008B50B480B4B036000234360EF
:103190007F228260FF22C2600361436183614FF03E
:1031A0008042C261036204F005FE08B9012008BD37
:1031B0000020FCE7CC1A00200028004008B501469A
:1031C000014804F04FFE08BDCC1A002008B50A469D
:1031D0000146024804F03FFE08BD00BFCC1A0020A3
:1031E0000268064B9A4200D07047054AD2F89030E8
:1031F00043F40043C2F89030F6E700BF00280040D7
:10320000001002400023002B01DD01207047074918
:103210004FF4856203FB02F288184FF0000C01F8AE
:1032200002C04FF4614242600133ECE7F41A00201F
:10323000034668B9074A4FF4856000FB03F302EBCD
:10324000030C01208CF80800CCF80410D05470470F
:1032500000207047F41A002008B10020704708B51C
:10326000FFF7EEF908BD08B10020704708B5FFF779
:10327000EBF908BD08B10020704708B50B461146B0
:103280001846FFF7E5F908BD0EB410B5C3B0044603
:1032900045AB53F8042B01934FF4807102A807F05B
:1032A0009BFE024602A92046FFF7E4FF43B0BDE8BB
:1032B000104003B0704708B10020704708B5FFF711
:1032C000CBF908BD08B503490348FEF71FFC0120F0
:1032D00008BD00BF15330008C0E2000808B5FFF7BD
:1032E000ABF908BD0A4BD3F8BC3253B1084B93F885
:1032F0009C32DBB2032B06D1054B5B682BB101205E
:10330000704700207047002070470020704700BFC2
:103310001C1F0020F8B504460388012B09D00025A6
:103320002388012B28D02388012B4ED0002D79D063
:10333000F8BD4369404900209847054698B9EFE732
:10334000FFF7D0FF01463D48FEF748F9FFF7C6FFFB
:1033500001463B48FEF742F902213A48FEF73EF9A2
:103360006420FDF7A9FDFEF7C5FB0028E8D1022186
:103370003548FEF733F9D3E76369344900209847AD
:1033800007460028CFD0FDF79BFD0646002504E048
:103390001F212F48FFF75CF91F35FEF7ABFB70B11B
:1033A000FDF78EFD831BB3F57A7FF1D3FDF788FD22
:1033B0000646A90A2748FFF743FE0025E8E7022151
:1033C0002148FEF70BF93D46ADE76369224900202D
:1033D00098470028AAD0FDF773FD074600260EE0A7
:1033E000FDF76EFD0746B10A1C48FFF729FE0026CF
:1033F0000EE0FFF729F90134AC42FAD32E44FEF770
:1034000079FB50B1FDF75CFDC31BB3F57A7FE7D2C2
:10341000FFF716F905460024EEE702210A48FEF7F9
:10342000DDF885E70E48FEF7D9F80E48FEF7D6F826
:103430000D48FEF7D3F87BE72CDD0008C4E2000856
:10344000D8E20008ECE20008F4E20008FCE2000820
:1034500010E3000800E3000834E3000838E3000844
:1034600048E3000854E3000860E3000808B50128B9
:1034700003D00020134B187008BD002212491348D6
:1034800005F007FC08B10020F6E711490F4805F0E8
:1034900017FC08B10020EFE70E490C4800F096F940
:1034A00008B10020E8E7094805F021FC08B1002038
:1034B000E2E7FFF7B9F80848FFF7C2FD0120074B24
:1034C0001870D7E7ED210020740100201C1F002098
:1034D000E00000202C0100206CE30008EC2100201B
:1034E00008B5024803F070FB08BD00BF0C36002091
:1034F00010B5D0F8BC42D0F8C0325BB194F80002ED
:10350000FF2807D09B6894F8012221469847FF23A3
:1035100084F80032002010BD432303800048704728
:103520005800002043230380004870479C0000207F
:103530004323038000487047140000200A230380BF
:10354000004870471801002038B5D0F8BC5275B15A
:10355000044600F08FFCC5F80C02D4F8C032DB68DA
:1035600005F50371D5F804029847002038BD032003
:10357000FCE710B5D0F8C442D0F8BC3253B301EB2D
:10358000810200EB820292694AB101EB810C04EBEB
:10359000CC04246AB2FBF4FC04FB1C2272B10022AE
:1035A000C3F81422D0F8C0221469ACB10A4603F55E
:1035B0000471D3F80802A047002010BD01EB81037D
:1035C00000EB830300249C612346224600F042FC6A
:1035D0002046F2E70320F0E70020EEE7F0B583B0E5
:1035E00006460C46D0F8BC7200238DF80730ADF8C3
:1035F00004300B7813F0600527D0202D5BD1CA88EA
:10360000DAB113F0800F0CD0D0F8C0329B68394685
:1036100060789847E2883946304606F001F8002580
:103620004CE04B7887F800328B7987F80132CA88F2
:10363000394606F00AF8002540E0D0F8C0329B6811
:10364000002248789847002538E04F780B2F2ED875
:10365000DFE807F006342D2D2D2D2D2D2D2D1524D1
:1036600090F89C32DBB2032B03D005F09FFC0325BE
:1036700024E0022201A905F0D3FF3D461EE090F8A8
:103680009C32DBB2032B03D005F090FC032515E040
:1036900001220DF1070105F0C3FF0FE090F89C3205
:1036A000DBB2032B0AD005F081FC032506E005F010
:1036B0007DFC032502E005F079FC0325284603B0D4
:1036C000F0BD38B50446812100F087FB0025258731
:1036D0000121204600F081FBA4F878518221204688
:1036E00000F07BFBA4F84C50A4F84E50D4F8BC3248
:1036F0004BB1D4F8C0325B689847D4F8BC0200F0F4
:10370000C3FBC4F8BC52002038BD70B504464FF46A
:10371000077000F0B5FBB8B30646C4F8BC02237CC2
:10372000BBBB4FF4007302228121204600F04AFB0C
:10373000012525874FF4007302222946204600F018
:1037400041FBA4F878511023A4F84E30082303223B
:103750008221204600F036FB0123A4F84C30D4F837
:10376000C0321B6898470023C6F81432C6F81832D6
:10377000257C15BB4FF40073D6F8042201212046A6
:1037800000F070FB284670BD0023C4F8BC3202254F
:10379000F8E7402302228121204600F013FB012597
:1037A0002587402302222946204600F00BFBA4F87F
:1037B00078511023A4F84E30C8E74023D6F80422ED
:1037C0000121204600F04EFB0025DBE719B1C0F8CF
:1037D000C0120020704703207047D0F8BC32C3F8F5
:1037E0000812C3F8102200207047D0F8BC32C3F88A
:1037F000041200207047D0F8BC2292B108B5D2F86C
:1038000014320BB1012008BD0123C2F81432D2F8E2
:103810001032C362D2F80822812100F01BFB002085
:10382000F1E70320704710B5D0F8BC2292B1047CB8
:1038300044B94FF40073D2F80422012100F012FBC6
:10384000204610BD4023D2F80422012100F00AFBDB
:103850000024F5E70324F3E70020014B18707047BC
:10386000EF21002021281BD0222829D0202801D098
:10387000002070470B78154A1360487843EA00230C
:103880001360887843EA00431360C87843EA006312
:1038900013600B7913714B7953718B799371E7E74F
:1038A0000A4B1A780A705A784A709A788A70DA78CD
:1038B000CA701A790A715A794A719B798B71D7E764
:1038C0004B8803F00103024A1370D1E72401002062
:1038D000EF2100200020704770B505460D4E0A68A4
:1038E00001463046FDF77DFCB4683046FDF7D6FC56
:1038F000241A013C3F2C04D8074B01221A700020E7
:1039000070BD064C29462046FFF76FFF2046FFF7A3
:103910008AFFF4E7042A0020EE2100201C1F00206B
:1039200010B5074C002207492046FFF756FF06490D
:103930002046FFF75AFF0020044B187010BD00BF4F
:103940001C1F0020182A0020002E0020EF2100203C
:1039500008B5084B00221A704FF4806206490748E8
:10396000FDF72BFC4FF4806205490648FDF725FC66
:10397000012008BDEF210020F0250020042A0020AE
:10398000F0210020F029002008B50248FDF786FC50
:1039900008BD00BF042A002000B583B000238DF8C5
:1039A000073001220DF107010348FDF744FC9DF8A3
:1039B000070003B05DF804FB042A0020014B1868DF
:1039C000704700BF240100200B4BD3F8BC3263B119
:1039D0000A4B187840B1084B93F89C32DBB2032BAA
:1039E00005D1054B5B6823B170470020704700206C
:1039F00070470020F8E700BF1C1F0020EF210020C7
:103A00002DE9F04107460D46FFF7DEFF18B9002605
:103A10003046BDE8F081FDF753FA804600260AE003
:103A2000ACB9FFF7D1FF0028F2D0FDF749FAA0EBBF
:103A30000803632BECD8AE42EAD209488468FDF74C
:103A40002DFC241A013CA542EAD82C46E8E7224680
:103A500039460348FDF7C5FB27442644E1E700BF8C
:103A6000F029002070B51C4B1B788BB91B48FDF763
:103A700015FC044610F03F0F02D138B1441E05D0AA
:103A8000174BD3F8BC32D3F81432ABB1002070BD61
:103A900014488468FDF702FC241A013C3F2CE5D948
:103AA0000F4C11492046FFF7A0FE2046FFF7BBFE52
:103AB000094B00221A70D9E70C4E224631460748BE
:103AC000FDF7B9FB064D224631462846FFF785FE35
:103AD0002846FFF790FED9E7EE210020F0290020CC
:103AE0001C1F0020042A0020002E0020182A00207D
:103AF00012230B80004870476001002004230B80D4
:103B0000004870475C010020002393421ED200B59C
:103B100010E00CF1370C01F813C000014FEA430C20
:103B20000CF1010C4FF0000E01F80CE00133DBB298
:103B3000934209D24FEA107CB0F1204FE9D20CF148
:103B4000300C01F813C0E8E75DF804FB7047000093
:103B500038B50B4BD3F89005D3F89445D3F8983586
:103B6000C01800D138BD074D08222946FFF7CCFF09
:103B7000042205F110012046FFF7C6FFF2E700BF5F
:103B80000070FF1F4201002008B51A230B80FFF7C9
:103B9000DFFF014808BD00BF4001002008B50A460C
:103BA00028B90549054805F01EFD034808BD02492E
:103BB000024805F018FDF8E7E831002088E3000826
:103BC00010B50A46034C2146034805F00CFD20467B
:103BD00010BD00BFE8310020A0E3000808B50A4688
:103BE00028B90549054805F0FEFC034808BD02490F
:103BF000024805F0F8FCF8E7E8310020B4E30008DB
:103C000008B50A4628B90549054805F0ECFC034803
:103C100008BD0249024805F0E6FCF8E7E83100205B
:103C2000C0E30008032805D8DFE800F0050402051A
:103C3000012070470320704702680E4B9A4200D063
:103C4000704700B583B003F5DA339A6D42F4000291
:103C50009A659B6D03F400030193019B00220621EA
:103C6000142000F023FA142000F030FA03B05DF8BD
:103C700004FB00BF005C004008B500F52671D0F8D9
:103C8000D80205F049F808BD08B501EB810300EB47
:103C9000C303D3F86421D0F8D80205F069F808BD51
:103CA00008B501EB810300EBC3035A6AD0F8D802D0
:103CB00005F09AF808BD08B5D0F8D80205F03AF931
:103CC00008BD10B504464379022B09D10121D4F86F
:103CD000D80205F015F9D4F8D80205F0E4F810BDC3
:103CE000FDF7F2F8F2E7000010B50446D0F8D8026C
:103CF00005F009F9637A23B1044A136943F0060316
:103D00001361034B00221A7010BD00BF00ED00E0EC
:103D10000836002008B5437A23B1054A136923F019
:103D200006031361D0F8D80205F0F7F808BD00BF0C
:103D300000ED00E010B503461C48C0F8D832C3F8C7
:103D4000C4021B4B03600823037102234371C37138
:103D500001230372002343728372C37202F016FAC6
:103D600008BB124C142300221146204603F042F9EE
:103D7000542300228021204603F03CF994230022A2
:103D80008121204603F036F9D42300220121204668
:103D900003F030F94FF48A7300228221204603F0A9
:103DA00029F9002010BDFDF78FF8DAE70C36002066
:103DB000005C004008B5D0F8C40202F042FAFFF7F8
:103DC00031FF08BD08B594461A466346D0F8C402D0
:103DD00002F0D3FFFFF726FF08BD08B5D0F8C402F4
:103DE00003F00EF8FFF71EFF08BD08B5D0F8C402B7
:103DF00003F088F8FFF716FF08BD08B5D0F8C40235
:103E000003F0B9F8FFF70EFF08BDD0F8C43211F087
:103E1000800F08D101F07F0101EB810103EBC103A9
:103E200093F85201704701F07F0101EB810103EB30
:103E3000C103987C7047000008B5D0F8C40202F0B6
:103E4000B0FEFFF7EFFE024B01221A7008BD00BF63
:103E50000836002008B5D0F8C40203F02DF8FFF7AB
:103E6000E1FE08BD08B5D0F8C40202F0FFFFFFF77D
:103E7000D9FE08BD08B5D0F8C40203F014F808BD97
:103E800000487047E83300207047000010B5FDF788
:103E90007BF80446FDF764FE0440E4B2FFF76AF8DD
:103EA0000440FFF76FF90440FFF70AF90440FEF7FA
:103EB00097FF0440FFF732F9022825D01448FFF796
:103EC000BFF814491448FFF7BBF814491448FFF72A
:103ED000B7F8FFF7F7F904400120FFF7C7FA0440ED
:103EE000FFF790F904404FF461410020FFF7A0F97B
:103EF0000440FDF7BFFE0440FEF7C2FB0440002073
:103F0000FFF764F8204610BDFFF70EF9D6E700BFB3
:103F1000D0E30008E8E30008F4E300080CE400083C
:103F200018E40008104B1B680BB90120704710B54E
:103F300004464FF47A70B0FBF3F30C4A1068B0FB00
:103F4000F3F000F0CBF868B90F2C01D901200AE09A
:103F5000002221464FF0FF3000F0A8F8044B1C600F
:103F6000002000E0012010BD94010020040000208A
:103F70009801002010B5032000F086F80F20FFF70D
:103F8000D1FF10B10124204610BD0446FDF704F80E
:103F9000F9E70000034A1368034909680B441360FA
:103FA000704700BFE838002094010020014B1868DA
:103FB000704700BFE838002038B50446FFF7F6FF29
:103FC0000546B4F1FF3F02D0044B1B681C44FFF7C9
:103FD000EDFF401BA042FAD338BD00BF9401002082
:103FE000002807DB00F01F02400901239340024A2A
:103FF00042F82030704700BF00E100E000280CDBF1
:1040000000F01F024009012393402030034A42F888
:104010002030BFF34F8FBFF36F8F704700E100E098
:10402000002808DB0901C9B200F1604000F56140D9
:1040300080F80013704700F00F000901C9B2014B6E
:104040001954704714ED00E000B500F00700C0F10E
:10405000070CBCF1040F28BF4FF0040C031D062B06
:104060000FD9C31E4FF0FF3E0EFA0CF021EA0001FB
:1040700099400EFA03FE22EA0E0241EA02005DF8C0
:1040800004FB0023EEE70000074AD36823F4E06353
:104090001B041B0C000200F4E060034343F0BF6309
:1040A00043F40033D360704700ED00E010B50446E0
:1040B000054BD868C0F30220FFF7C6FF0146204633
:1040C000FFF7AEFF10BD00BF00ED00E008B5FFF741
:1040D00087FF08BD08B5FFF791FF08BD0138B0F1B3
:1040E000807F0BD24FF0E0235861054AF02182F81F
:1040F00023100020986107221A6170470120704741
:1041000000ED00E008B590F82530DBB2022B09D0B5
:104110000423C363012380F82530002280F8242083
:10412000184608BD0268136823F00E031360026886
:10413000136823F001031360826C136823F4807307
:104140001360436C03F01F02016C012393404B602A
:10415000C36C026D5A60436D33B11A6822F48072E9
:104160001A60836DC26D5A60012380F825300023E8
:1041700080F82430836B13B198470020D1E70020EA
:10418000CFE790F82500704710B4154B0364016821
:10419000D1F8802022F4F812446B42EA0442C1F8BC
:1041A0008020104A42640168D1F8802022F07062B9
:1041B000846B42EA0462C1F880200B4A8264D832E0
:1041C000C264D83202651832426502E0002243F828
:1041D000042B064A9342F9D95DF8044B704700BF9F
:1041E00000A4004070A40040B0A400404FA70040CD
:1041F00070B54C68ECB90D698C6825430C6845EACC
:104200008445CC690E6A44EA06648E6934434E697B
:104210003443CE6844EA0644406D03EBC30300EB2D
:10422000C30E40F83350CEF804400EF1080E0020C3
:1042300019E00C698D6825430C68254345F08045DD
:10424000DFE702EB000C9CF803409CF802301B04F3
:1042500043EA04639CF8014043EA0423145C2343CB
:104260004EF8043B0430CB68024CE35C8342E8D850
:1042700070BD00BF30E40008002800F0E38038B5CE
:10428000044690F85C30D3B12268936923F01003A0
:104290009361FFF78BFE054623689A6912F0080FB9
:1042A00012D0FFF783FE401B0A28F5D9236E43F096
:1042B00001032366032384F85C30012038BD80F8B5
:1042C0005D30FEF775F9DFE79A6942F001029A6105
:1042D000FFF76CFE054623689A6912F0010F0DD1B5
:1042E000FFF764FE401B0A28F5D9236E43F0010353
:1042F0002366032384F85C300120DFE79A6942F0EB
:1043000002029A612268504B9A4242D0237C012BD0
:1043100045D02268936943F040039361637C012B8D
:1043200043D02268936923F480439361A37C012BDB
:1043300041D02268936943F4805393612268936962
:1043400023F44073A1680B4393612268936923F0BF
:10435000A40393612268136923F010031361E368D7
:10436000012B2ED0002B31D0022B54D02268936920
:1043700043F0800393612268136943F010031361D3
:10438000E368032B22D12268936943F020039361F1
:104390001CE06268A3F58063C3F80025B6E72268D5
:1043A000936923F040039361B8E72268936943F46B
:1043B00080439361BAE72268936923F48053936141
:1043C000BCE72268936943F004039361A3695A1E12
:1043D000E369013B1B0243EA4263226A013A134349
:1043E0006269013A216843EA0243CB61A368B3F5ED
:1043F000407F16D02268D2F8C030E16B0B43C2F880
:10440000C0302046FFF7C0FE0020A06520660123D3
:1044100084F85C3052E72268936943F0200393618B
:10442000D4E7A36A013BE26A013A43EA0223226B22
:10443000013A43EA0213626A013A216843EA0243FD
:10444000CB60D7E7012070470064004090F85C30F3
:10445000013BDBB2012B05D9036E43F00203036677
:10446000012070470B68A3B110B4CA680B6943EA16
:1044700042724B698C6843EA8473406C496800EB74
:10448000C10C40F83120CCF8043000205DF8044B1A
:1044900070478A68CB68DB0643EA82730A6943EA9D
:1044A00002434A691343026C496842F821300020F4
:1044B000704790F85CC05FFA8CFCBCF1010F05D02E
:1044C000036E43F0040303660120704710B40468D0
:1044D000D4F8800020F03F00920042EA011242EA44
:1044E0004303019A1A430243C4F8802000205DF878
:1044F000044B704790F85C30DBB2012B05D0036EA3
:1045000043F00403036601207047036842EA012276
:104510009A640020704790F85C30DBB2012B05D024
:10452000036E43F004030366012070470268D368FA
:1045300043F40003D3600020704790F85C30DBB296
:10454000012B05D0036E43F004030366012070477E
:10455000022380F85C300268936923F001039361C1
:10456000002303661846704790F85C30DBB2022BDC
:1045700039D10268936943F0010393610023026813
:10458000916911F0010F0CD10A2B01D80133F6E724
:10459000036E43F001030366032380F85C300120BF
:1045A0007047936923F010039361002302689169B7
:1045B00011F0080F0CD00A2B01D80133F6E7036E77
:1045C00043F001030366032380F85C300120704749
:1045D000936943F00203936100238365012280F80D
:1045E0005C2018467047036E43F008030366012001
:1045F000704738B5044690F85C30DBB2022B1BD113
:104600000368D3F8C40010F4001F05D0236E43F4F0
:1046100000732366012014E0D3F8C450C5F30145AC
:104620002B462046FFF7E4FD22680123AB40C2F889
:10463000CC30A365002004E0036E43F0080303665A
:10464000012038BD70B590F85C40E4B2022C40F017
:10465000A18040290BD00468D4F8985015F00F0FB2
:104660002DD1036E43F480730366012097E0046844
:10467000D4F8905015F00F0F05D1036E43F48073FA
:10468000036601208BE0D4F89050C5F3006C15F060
:10469000807F08D0D4F88050C5F3402C15F4007FFB
:1046A00001D04FF0010CD4F89040C4F301240CEB7E
:1046B0000405846C05EBC50C04EBCC0E1AE0D4F8B1
:1046C0009850C5F3006C15F0807F08D0D4F8805066
:1046D000C5F3002C15F4807F01D04FF0010CD4F805
:1046E0009840C4F301240CEB0405C46C05EBC50C25
:1046F00004EBCC0EDEF8004004F08044546064BB50
:10470000DEF80040C4F38A441460DEF8004004F090
:1047100000549460DEF8004004F000441461BEF8D8
:104720000440D461BEF8064004F00F04D460DEF803
:10473000044004F480145461DEF8044004F40014CE
:1047400094619EF8074004F07F041462DEF8044090
:10475000E40F54624FF0000C0CE0DEF8004024F04F
:1047600060441460D1E70EEB0C04247A03F80C408B
:104770000CF1010C0A4CD668A45D6445F3D84029BD
:1047800004D00368C3F89C50002008E00368C3F815
:104790009450F9E7036E43F008030366012070BDEF
:1047A00030E4000803685B6C03F007020A60C3F39F
:1047B00002224A6003F018028A60C3F34012CA6002
:1047C000C3F380120A61C3F3C0124A61C3F3C0226B
:1047D0008A61C3F30032CA61C3F340320A62C3F391
:1047E00080324A62C3F306438B620020704703683D
:1047F0001B6CDAB20A60C3F306224A60C3F3C0320C
:104800008A60C3F30743CB60002070470368D3F886
:10481000C40000F00700704790F85C30013BDBB249
:10482000012B05D9036E43F0020303660120704794
:1048300070B40468A36D11F0070602D013F0010FE5
:1048400023D011F0380F02D013F0020F1DD011F455
:10485000E07F02D013F0040F17D011F4F05F02D004
:1048600013F0080F11D011F4604F02D013F0100FA5
:104870000BD011F4403F02D013F0200F05D011F4FB
:104880007C0F06D013F0400F03D1E56D45F0010514
:10489000E56516B113F0010F23D111F0380F02D0E6
:1048A00013F0020F1DD111F4E07F02D013F0040FBA
:1048B00017D111F4F05F02D013F0080F11D111F4E9
:1048C000604F02D013F0100F0BD111F4403F02D013
:1048D00013F0200F05D111F47C0F07D013F0400F17
:1048E00004D00468E36D43F00203E36511F0800F28
:1048F00005D00468D4F8DC301343C4F8DC3011F47C
:10490000807F05D00468D4F8E0301343C4F8E03069
:104910000268536D0B435365002070BC70477047AD
:1049200070477047704770477047704770472DE970
:10493000F84F044603681A6D02F4E05A5A6D0AEA09
:10494000020A1A6D02F007095A6D09EA02091A6D86
:1049500002F038085A6D08EA02081E6D06F4710666
:104960005A6D16401F6D07F460275A6D1740D3F833
:1049700054B01D6D15F0400F02D01BF0400F41D117
:1049800015F4807F02D01BF4807F40D1BAF1000F74
:104990004AD1B9F1000F4FD1B8F1000F54D115F43D
:1049A000007F02D01BF4007F56D115F0800F02D09B
:1049B0001BF0800F58D115F4005F02D01BF4005F8C
:1049C0005ED115F4004F02D01BF4004F60D115F4F6
:1049D000804F0AD01BF4804F07D023684FF48042E9
:1049E0001A65236E43F080032366002F58D126B149
:1049F00023681E65236E33432366236E002B56D136
:104A0000BDE8F88F40221A65FFF790FFB8E72368EA
:104A1000D3F8D810D3F8E0204FF480701865114017
:104A20002046FFF780FFB1E72368C3F850A0514646
:104A30002046FFF774FFACE72368C3F8509049465F
:104A40002046FDF799FDA7E72368C3F8508041464B
:104A50002046FFF765FFA2E723684FF400721A654E
:104A60002046FFF75EFFA0E72368D3F8D410D3F801
:104A7000DC208020186511402046FFF753FF9AE79D
:104A800023684FF400521A652046FFF74DFF98E760
:104A900023684FF400421A652046FFF746FF96E769
:104AA00023681F6539462046FDF748FD9FE72046ED
:104AB000FDF74AFDA4E70000F0B583B0002362E0F3
:104AC00085685E000324B44025EA0405CC68B44040
:104AD0002C438460456825EA0C054C68C4F3001437
:104AE0009C402C4344605FE0DD08083550F82540C9
:104AF00003F0070C4FEA8C0C4FF00F0E0EFA0CFE71
:104B000024EA0E0E0C6904FA0CF444EA0E0440F890
:104B1000254060E0052400E0002404FA0EF42C4354
:104B20000CF1020C554D45F82C40554CA568D4436A
:104B300025EA02064F6817F4801F01D042EA0506F5
:104B40004F4DAE60ED6804EA05064F6817F4001F8C
:104B500001D042EA05064A4DEE606D6804EA05069A
:104B60004F6817F4003F01D042EA0506444D6E60DD
:104B70002D682C404E6816F4803F01D042EA0504AF
:104B80003F4A146001330A6832FA03F474D04FF0DC
:104B9000010C0CFA03FC1CEA0202F3D04C6804F08E
:104BA0000304013C012C8BD94C6804F00304032C52
:104BB0000CD0C4685D004FF0030C0CFA05FC24EA2D
:104BC0000C0C8C68AC4044EA0C04C4604C6804F0E3
:104BD0000304022C88D004684FEA430E4FF0030C04
:104BE0000CFA0EFC24EA0C0C4C6804F0030404FAE2
:104BF0000EF444EA0C0404604C6814F4403FC1D045
:104C0000204C256E45F001052566246E04F0010454
:104C10000194019C4FEA930C0CF10205174C54F8D7
:104C2000255003F0030E4FEA8E0E0F2404FA0EF403
:104C300025EA0405B0F1904F3FF46EAF124CA0424C
:104C400012D004F58064A04210D004F58064A04224
:104C50000ED004F58064A0420CD004F58064A0421C
:104C60003FF458AF062458E7012456E7022454E7DE
:104C7000032452E7042450E703B0F0BD00000140D4
:104C8000000401400010024000040048002331FAF3
:104C900003F200F08180F0B52EE0052500E000254C
:104CA00005FA0CF5A5425BD004685D004FF0030CDB
:104CB0000CFA05FC44EA0C0404604FEAD30E0EF132
:104CC000080E50F82E4003F00706B6000F25B54039
:104CD00024EA050440F82E40C46824EA0C04C460A9
:104CE000446824EA02024260826822EA0C0282607E
:104CF000013331FA03F24ED001229A4012EA010741
:104D0000F6D04FEA930E0EF10205244C54F82540DC
:104D100003F0030C4FEA8C0C0F2505FA0CF6344017
:104D2000B0F1904FBBD01E4DA84211D005F5806563
:104D3000A8420FD005F58065A8420DD005F5806525
:104D4000A8420BD005F58065A842A6D00625A7E7A6
:104D50000125A5E70225A3E70325A1E704259FE791
:104D6000104C256825EA07052560656825EA0705D2
:104D70006560E56825EA0705E560A56825EA070599
:104D8000A560064F0EF1020457F8245025EA0605E7
:104D900047F8245088E7F0BD704700BF000001408D
:104DA00000040048000401400AB18161704781623B
:104DB0007047436901EA030221EA030141EA024123
:104DC0008161704703689A6912F0020F01D00022D6
:104DD0009A6203689A6912F0010F03D19A6942F04E
:104DE00001029A61704710B4019CC1F3090141EAC4
:104DF00002411943214321F0004102685368640DC8
:104E000004F4806444F07F7444F4583444F47F74B0
:104E100044F0030423EA04030B4353605DF8044B9E
:104E2000704711F0010F09D090F8413003F02803CA
:104E3000282B01D0F22302E0422300E0002311F0EE
:104E4000020F09D043F0440C90F8412002F02802F0
:104E5000282A10D043F0F40311F4004F0DD110298B
:104E60000ED020290FD0402910D001680A6822EA0C
:104E700003030B6070476346EEE743F0B803EEE7C9
:104E800043F09003EDE743F02003ECE743F04003E9
:104E9000EBE72DE9F041044603689E6916F0100621
:104EA0007CD00D4690461022DA61002637462368F2
:104EB000986910F0200F30D17FBBB5F1FF3FF6D0DD
:104EC000FFF774F8A0EB0800A84201D8002DEED13E
:104ED00021684B6803F4804394F84220D2B2886979
:104EE00010F4004F02D00BB9202A0ED123689B6921
:104EF00013F0200FDBD1FFF759F8A0EB08001928B9
:104F0000F4D946F020060127D1E74B6843F48043EB
:104F10004B60FFF74BF88046E8E70FB92022DA61D3
:104F200046F0040601252268936913F4807F05D0BA
:104F300046F001064FF48071D161012513F4806FB2
:104F400006D046F0080622684FF48061D161012541
:104F500013F4007F24D046F0020623684FF4007259
:104F6000DA6101252046FFF72DFF2268536823F000
:104F7000FF7323F48B3323F4FF7323F00103536097
:104F8000636C33436364202384F84130002384F846
:104F9000423084F840302846BDE8F0810025C2E761
:104FA000002DF8D0DEE770B504460D46164623689E
:104FB0009B6913F0020F22D1324629462046FFF7A3
:104FC00068FFF0B9B5F1FF3FF1D0FEF7EFFF801BAE
:104FD000A84201D8002DEAD123689B6913F0020F83
:104FE000E5D1636C43F020036364202384F84130EF
:104FF000002384F8423084F84030012000E0002093
:1050000070BD0120FCE72DE9F843054688461746A8
:105010001E46DDF820902B689C6938EA04040CBF1A
:1050200001230023BB4227D14A4631462846FFF7D9
:1050300030FF20BBB6F1FF3FEDD0FEF7B7FFA0EB8E
:105040000900B04201D8002EE5D12B689B6938EAEF
:1050500003030CBF01230023BB42DCD16B6C43F084
:1050600020036B64202385F84130002385F842300B
:1050700085F84030012000E00020BDE8F8830120E1
:10508000FBE700002DE9F04182B0044690461D4642
:10509000089E099F194B00934FF08073EAB2FFF707
:1050A000A2FE3A4631462046FFF77DFFF8B9012DB2
:1050B0000ED123685FFA88F29A6200973346002285
:1050C00080212046FFF79FFFA8B902B0BDE8F0811C
:1050D00023684FEA18229A623A4631462046FFF783
:1050E00062FF30B923685FFA88F29A62E5E701202F
:1050F000EBE70120E9E70120E7E700BF002000809F
:105100002DE9F04182B0044690461D46089E099F55
:10511000184B00930023EAB2FFF765FE3A4631468A
:105120002046FFF740FFF8B9012D0ED123685FFA42
:1051300088F29A6200973346002240212046FFF70A
:1051400062FFA8B902B0BDE8F08123684FEA1822D7
:105150009A623A4631462046FFF725FF30B9236868
:105160005FFA88F29A62E5E70120EBE70120E9E7C0
:105170000120E7E70020008070B504460D46164682
:1051800004E023689B6913F0200F12D023689B6909
:1051900013F0200F1BD1324629462046FFF779FE37
:1051A000B8B9FEF703FF801BA842EAD8002DEDD165
:1051B000E7E7636C43F020036364202384F8413005
:1051C000002384F8423084F84030012000E00020C1
:1051D00070BD0120FCE700285FD010B5044690F8B0
:1051E0004130002B48D0242384F8413022681368D2
:1051F00023F0010313606368226823F07063136176
:105200002268936823F400439360E368012B38D04D
:10521000A368226843F404439360E368022B36D00A
:105220002268536823F4006353602268536843F094
:10523000007343F4004353602268D36823F40043AF
:10524000D360236962691343A169226843EA012399
:10525000D360E369216A22680B43136022681368F4
:1052600043F00103136000206064202384F8413080
:10527000206384F8420010BD80F84030FDF72EFD19
:10528000B1E7A368226843F400439360C5E722684E
:10529000536843F400635360C7E701207047A8B127
:1052A00010B50446242380F841300268136823F0C7
:1052B00001031360FDF764FD0020606484F8410081
:1052C000206384F8420084F8400010BD012070473C
:1052D0002DE9F04782B00F460A9E90F84110C9B2FE
:1052E000202940F0B78004469046994690F8403017
:1052F000012B00F0B3804FF0010A80F840A0FEF7C8
:1053000055FE05460090192352464FF400412046B1
:10531000FFF779FE002840F0A380212384F8413074
:10532000102384F8423000236364C4F82480A4F876
:105330002A906363638D9BB2FF2B1ED9FF232385C5
:105340004FF08073228DEAB1226898F800109162C4
:10535000626A01326262628D92B2013A92B26285F1
:10536000228D013A92B22285013241490091D2B296
:1053700039462046FFF737FD18E0638D23854FF04F
:105380000073DFE73A490091D2B239462046FFF771
:105390002AFD0BE0628D92B22285002300934FF02C
:1053A0000073D2B239462046FFF71DFD638D9BB2D4
:1053B000002B33D02A4631462046FFF7F4FD002863
:1053C00050D1626A236812789A62636A0133636219
:1053D000638D9BB2013B9BB26385238D013B9BB2E6
:1053E0002385628D92B2002AE0D0002BDED1009599
:1053F0003346002280212046FFF705FEA0BB638DC7
:105400009BB2FF2BC6D9FF222285002300934FF0C9
:10541000807339462046FFF7E6FCC7E72A46314647
:105420002046FFF7A9FE08BB23682022DA61216825
:105430004B6823F0FF7323F48B3323F4FF7323F0C3
:1054400001034B6084F84120002384F8423084F843
:10545000403000E0022002B0BDE8F0870220FAE709
:105460000120F8E70120F6E70120F4E70120F2E748
:10547000002000802DE9F04F83B00E46BDF834A027
:105480000E9D90F84110C9B2202940F0BB8004461F
:10549000904699460C9BCBB1BAF1000F16D090F80C
:1054A0004030012B00F0B2804FF0010B80F840B08B
:1054B000FEF77CFD0746009019235A464FF4004141
:1054C0002046FFF7A0FD30B101209CE04FF40073AF
:1054D0006364012097E0212384F84130402384F85D
:1054E0004230002363640C9A6262A4F82AA06363CA
:1054F000019700954B46424631462046FFF7C2FDD4
:1055000070B9638D9BB2FF2B0FD9FF222285002338
:1055100000934FF0807331462046FFF764FC21E092
:10552000002384F8403058466DE0628D92B22285A7
:10553000002300934FF00073D2B231462046FFF7AC
:1055400052FC0FE0628D92B22285002300934FF04F
:105550000073D2B231462046FFF745FC638D9BB203
:10556000002B33D03A4629462046FFF71CFD002881
:105570004ED1626A236812789A62636A0133636269
:10558000638D9BB2013B9BB26385238D013B9BB234
:105590002385628D92B2002AE0D0002BDED10097E5
:1055A0002B46002280212046FFF72DFD90BB638D06
:1055B0009BB2FF2BC6D9FF222285002300934FF018
:1055C000807331462046FFF70EFCC7E73A4629466E
:1055D0002046FFF7D1FDF8B923682022DA6121685F
:1055E0004B6823F0FF7323F48B3323F4FF7323F012
:1055F00001034B6084F84120002384F8423084F892
:10560000403000E0022003B0BDE8F08F0220FAE74E
:105610000120F8E70120F6E70120F4E72DE9F04F3B
:1056200083B00E46BDF834A00E9D90F84110C9B26B
:10563000202940F0BC800446904699460C9BCBB193
:10564000BAF1000F16D090F84030012B00F0B38073
:105650004FF0010B80F840B0FEF7A8FC0746009021
:1056600019235A464FF400412046FFF7CCFC30B1D5
:1056700001209DE04FF400736364012098E0222331
:1056800084F84130402384F84230002363640C9A4C
:105690006262A4F82AA06363019700954B464246D4
:1056A00031462046FFF72CFD70B9638D9BB2FF2B6E
:1056B0000FD9FF222285444B00934FF0807331466F
:1056C0002046FFF790FB21E0002384F84030584645
:1056D0006EE0628D92B222853B4B00934FF00073D7
:1056E000D2B231462046FFF77EFB0FE0628D92B2C8
:1056F0002285002300934FF00073D2B2314620463A
:10570000FFF771FB638D9BB2002B34D000972B46C3
:10571000002204212046FFF776FC00284DD12368A3
:105720005A6A636A1A70636A01336362228D013AAE
:1057300092B22285638D9BB2013B9BB26385638DE0
:105740009BB2002BDED0002ADCD100972B468021B3
:105750002046FFF758FC90BB638D9BB2FF2BC5D949
:10576000FF222285002300934FF0807331462046AC
:10577000FFF739FBC6E73A4629462046FFF7FCFC0F
:10578000F8B923682022DA6121684B6823F0FF739F
:1057900023F48B3323F4FF7323F001034B6084F86D
:1057A0004120002384F8423084F8403000E0022099
:1057B00003B0BDE8F08F0220FAE70120F8E70120EE
:1057C000F6E70120F4E700BF002400802DE9F04354
:1057D00085B01D460023039390F84130DBB2202BA7
:1057E00040F0898006468846914603689B6913F419
:1057F000004F40F0828090F84030012B7FD0012391
:1058000080F84030242380F841300023436441E095
:10581000C8F3090343F0007343F4005343E03368D3
:105820009C69C4F340149B69C3F30013C4B9BBB9AA
:10583000B5F1FF3FF3D0FEF7B9FBC01BA84201D87A
:10584000002DECD1202386F84130736C43F0200307
:105850007364002386F84030012005B0BDE8F08372
:1058600033689B6913F0100F2AD000972B46002253
:1058700020213046FFF7C7FB002844D133681022AF
:10588000DA6133682022DA61039B01330393039BBF
:105890004B4526D2F368012BBAD0C8F3090343F075
:1058A000007343F4205332685360FEF77FFB0746D2
:1058B00033689C69C4F340149B69C3F30013B5E7D4
:1058C00000972B46002220213046FFF79CFBC0B9F1
:1058D00032682023D36186F84130002386F84030B7
:1058E000BBE786F84120736C13437364002386F88A
:1058F00040300120B1E70220AFE70220ADE70220EF
:10590000ABE70120A9E70120A7E77047704710B572
:10591000044603681A68002180F8421012F4804F90
:105920000ED01A6822F480421A6094F84130DBB23B
:10593000292B0DD094F84130DBB22A2B18D010BDA2
:1059400012F4004FF1D01A6822F400421A60ECE71A
:10595000282384F841302123236301212046FFF7C7
:1059600060FA002384F840302046FFF7CEFFE6E7D8
:10597000282384F841302223236302212046FFF7A5
:1059800050FA002384F840302046FFF7BFFFD6E7E7
:105990007047F8B5044690F8413003F02803282BEF
:1059A00006D003680822DA61002380F84030F8BD91
:1059B00003689E69C6F300469A69120C02F0FE0560
:1059C0009A68C2F30902DF6807F0FE07C16802297E
:1059D00022D185EAD21515F0060F10D1816C013164
:1059E0008164816C0229E2D1002181640820D861A0
:1059F00084F8401031462046FFF7CAFFD7E74FF43E
:105A00000041FFF70EFA002384F840303A46314651
:105A10002046FFF7BDFFCAE74FF40041FFF701FA48
:105A2000002384F840302A4631462046FFF7B0FF75
:105A3000BDE7704710B50446174BC36200230363EC
:105A4000202280F8412080F84230436311F0040F97
:105A500013D003685A6A436A1A70436A0133436277
:105A6000038D53B1013B0385438D9BB2013B9BB238
:105A70004385436C43F00403436448F2030120462A
:105A8000FFF7CFF923681022DA61002384F8403051
:105A90002046FFF7CEFF10BD0000FFFF704708B59E
:105AA00090F84130DBB2602B06D00023036380F80E
:105AB0004030FDF7F9F808BD202380F8413000237D
:105AC000036380F84030FFF7E9FFF4E710B50446C0
:105AD00090F84130002280F842204548E06262851B
