:020000040800F2
:10000000008000206D0E0008710D0008730D0008BF
:10001000750D0008770D0008790D0008000000003C
:100020000000000000000000000000007B0D000840
:100030007D0D0008000000007F0D0008810D000804
:10004000BD0E0008BD0E0008BD0E0008BD0E000864
:10005000BD0E0008BD0E0008BD0E0008BD0E000854
:10006000BD0E0008BD0E0008BD0E0008BD0E000844
:10007000BD0E0008BD0E0008BD0E0008BD0E000834
:10008000BD0E000800000000BD0E0008BD0E0008F7
:10009000B5100008BD0E0008BD0E0008BD0E00081A
:1000A000BD0E0008BD0E0008BD0E0008BD0E000804
:1000B000BD0E0008BD0E0008BD0E0008BD0E0008F4
:1000C000BD0E0008BD0E0008BD0E0008BD0E0008E4
:1000D000BD0E0008BD0E0008BD0E0008BD0E0008D4
:1000E000BD0E0008BD0E0008BD0E0008BD0E0008C4
:1000F000BD0E0008BD0E0008BD0E00080000000087
:1001000000000000BD0E000800000000BD0E000849
:10011000BD0E000800000000BD0E0008BD0E000866
:10012000BD0E0008BD0E0008BD0E0008BD0E000883
:10013000BD0E00080000000000000000BD0E000819
:10014000BD0E0008BD0E0008000000000000000009
:10015000000000000000000000000000000000009F
:10016000000000000000000000000000BD0E0008BC
:10017000BD0E0008000000000000000000000000AC
:1001800000000000BD0E000800000000000000009C
:10019000000000000000000000000000000000005F
:1001A0000000000000000000BD0E0008BD0E0008A9
:1001B000BD0E0008BD0E0008BD0E000800000000C6
:1001C00000000000BD0E000800000000000000005C
:0801D000BD0E0008BD0E000881
:1001E00010B5054C237833B9044B13B10448AFF371
:1001F00000800123237010BD540300200000000084
:100200003878000808B5034B1BB103490348AFF326
:10021000008008BD00000000580300203878000866
:1002200001F0FF01102A2BDB10F0070F08D010F8A7
:10023000013B013A8B422DD010F0070F42B3F6D1AB
:10024000F0B441EA012141EA014122F007047FF0C4
:1002500000070023F0E80256083C85EA010586EA1B
:10026000010685FA47F5A3FA87F586FA47F6A5FA57
:1002700087F68EB9EED1F0BC01F0FF0102F0070263
:1002800032B110F8013B013A83EA010313B1F8D10E
:100290000020704701387047002D06BF35460338EF
:1002A000073815F0010F07D1013015F4807F02BF28
:1002B000013015F4C03F0130F0BC0138704700BF79
:1002C000034613F8012B002AFBD1181A0138704796
:1002D00081F0004102E000BF83F0004330B54FEAF7
:1002E00041044FEA430594EA050F08BF90EA020F64
:1002F0001FBF54EA000C55EA020C7FEA645C7FEAF7
:10030000655C00F0E2804FEA5454D4EB5555B8BF19
:100310006D420CDD2C4480EA020281EA030382EA8A
:10032000000083EA010180EA020281EA0303362D1C
:1003300088BF30BD11F0004F4FEA01314FF4801CEF
:100340004CEA113102D0404261EB410113F0004F01
:100350004FEA03334CEA133302D0524263EB4303B8
:1003600094EA050F00F0A780A4F10104D5F1200E56
:100370000DDB02FA0EFC22FA05F2801841F10001B1
:1003800003FA0EF2801843FA05F359410EE0A5F185
:1003900020050EF1200E012A03FA0EFC28BF4CF0B6
:1003A000020C43FA05F3C01851EBE37101F000456C
:1003B00007D54FF0000EDCF1000C7EEB00006EEB79
:1003C0000101B1F5801F1BD3B1F5001F0CD3490803
:1003D0005FEA30004FEA3C0C04F101044FEA44525A
:1003E00012F5800F80F09A80BCF1004F08BF5FEAE1
:1003F000500C50F1000041EB045141EA050130BDC1
:100400005FEA4C0C404141EB0101013C28BFB1F5D2
:10041000801FE9D291F0000F04BF01460020B1FA1D
:1004200081F308BF2033A3F10B03B3F120020CDAF0
:100430000C3208DD02F1140CC2F10C0201FA0CF0CE
:1004400021FA02F10CE002F11402D8BFC2F1200C33
:1004500001FA02F120FA0CFCDCBF41EA0C019040E9
:10046000E41AA2BF01EB0451294330BD6FEA040432
:100470001F3C1CDA0C340EDC04F11404C4F120021D
:1004800020FA04F001FA02F340EA030021FA04F32F
:1004900045EA030130BDC4F10C04C4F1200220FA86
:1004A00002F001FA04F340EA0300294630BD21FAC4
:1004B00004F0294630BD94F0000F83F4801306BF8A
:1004C00081F480110134013D4EE77FEA645C18BF7E
:1004D0007FEA655C29D094EA050F08BF90EA020F15
:1004E00005D054EA000C04BF1946104630BD91EA0D
:1004F000030F1EBF0021002030BD5FEA545C05D110
:100500004000494128BF41F0004130BD14F580044E
:100510003CBF01F5801130BD01F0004545F0FE41C2
:1005200041F470014FF0000030BD7FEA645C1ABFF7
:10053000194610467FEA655C1CBF0B46024650EA2E
:10054000013406BF52EA033591EA030F41F400215A
:1005500030BD00BF90F0000F04BF0021704730B5E0
:100560004FF4806404F132044FF000054FF00001B5
:1005700050E700BF90F0000F04BF0021704730B576
:100580004FF4806404F1320410F0004548BF40424B
:100590004FF000013EE700BF42004FEAE2014FEAA0
:1005A00031014FEA02701FBF12F07F4393F07F4F7B
:1005B00081F06051704732F07F4208BF704793F07E
:1005C0007F4F04BF41F40021704730B54FF4607491
:1005D00001F0004521F000411CE700BF50EA010294
:1005E00008BF704730B54FF000050AE050EA01023D
:1005F00008BF704730B511F0004502D5404261EBAD
:1006000041014FF4806404F132045FEA915C3FF4ED
:10061000D8AE4FF003025FEADC0C18BF03325FEA8A
:10062000DC0C18BF033202EBDC02C2F1200300FA3B
:1006300003FC20FA02F001FA03FE40EA0E0021FA60
:1006400002F11444BDE600BF70B54FF0FF0C4CF44E
:10065000E06C1CEA11541DBF1CEA135594EA0C0F00
:1006600095EA0C0F00F0DEF82C4481EA030621EA3B
:100670004C5123EA4C5350EA013518BF52EA033576
:1006800041F4801143F4801338D0A0FB02CE4FF028
:100690000005E1FB02E506F00042E0FB03E54FF058
:1006A0000006E1FB03569CF0000F18BF4EF0010E50
:1006B000A4F1FF04B6F5007F64F5407404D25FEA4C
:1006C0004E0E6D4146EB060642EAC62141EA5551FF
:1006D0004FEAC52040EA5E504FEACE2EB4F1FD0C41
:1006E00088BFBCF5E06F1ED8BEF1004F08BF5FEABF
:1006F000500E50F1000041EB045170BD06F0004671
:1007000046EA010140EA020081EA0301B4EB5C041D
:10071000C2BFD4EB0C0541EA045170BD41F4801115
:100720004FF0000E013C00F3AB8014F1360FDEBF3A
:10073000002001F0004170BDC4F10004203C35DA16
:100740000C341BDC04F11404C4F1200500FA05F399
:1007500020FA04F001FA05F240EA020001F000423A
:1007600021F0004110EBD37021FA04F642EB0601B0
:100770005EEA430E08BF20EAD37070BDC4F10C04DA
:10078000C4F1200500FA04F320FA05F001FA04F29E
:1007900040EA020001F0004110EBD37041F100018A
:1007A0005EEA430E08BF20EAD37070BDC4F1200595
:1007B00000FA05F24EEA020E20FA04F301FA05F2FD
:1007C00043EA020321FA04F001F0004121FA04F2A5
:1007D00020EA020000EBD3705EEA430E08BF20EA75
:1007E000D37070BD94F0000F0FD101F000464000AF
:1007F00041EB010111F4801F08BF013CF7D041EA31
:10080000060195F0000F18BF704703F00046520034
:1008100043EB030313F4801F08BF013DF7D043EA05
:100820000603704794EA0C0F0CEA135518BF95EABB
:100830000C0F0CD050EA410618BF52EA4306D1D142
:1008400081EA030101F000414FF0000070BD50EA61
:10085000410606BF1046194652EA430619D094EAEB
:100860000C0F02D150EA013613D195EA0C0F05D1D5
:1008700052EA03361CBF104619460AD181EA030129
:1008800001F0004141F0FE4141F470014FF00000E1
:1008900070BD41F0FE4141F4780170BD70B54FF07C
:1008A000FF0C4CF4E06C1CEA11541DBF1CEA1355FC
:1008B00094EA0C0F95EA0C0F00F0A7F8A4EB0504DE
:1008C00081EA030E52EA03354FEA013100F08880D5
:1008D0004FEA03334FF0805545EA131343EA12639E
:1008E0004FEA022245EA111545EA10654FEA002653
:1008F0000EF000419D4208BF964244F1FD0404F50C
:10090000407402D25B084FEA3202B61A65EB030567
:100910005B084FEA32024FF480104FF4002CB6EB24
:10092000020E75EB030E22BFB61A754640EA0C00A4
:100930005B084FEA3202B6EB020E75EB030E22BFE4
:10094000B61A754640EA5C005B084FEA3202B6EB25
:10095000020E75EB030E22BFB61A754640EA9C00E4
:100960005B084FEA3202B6EB020E75EB030E22BFB4
:10097000B61A754640EADC0055EA060E18D04FEA72
:10098000051545EA16754FEA06164FEAC30343EA12
:1009900052734FEAC2025FEA1C1CC0D111F4801FDF
:1009A0000BD141EA00014FF000004FF0004CB6E7D8
:1009B00011F4801F04BF01430020B4F1FD0C88BF77
:1009C000BCF5E06F3FF6AFAEB5EB030C04BFB6EB82
:1009D000020C5FEA500C50F1000041EB045170BD75
:1009E0000EF0004E4EEA113114EB5C04C2BFD4EBA2
:1009F0000C0541EA045170BD41F480114FF0000E26
:100A0000013C90E645EA060E8DE60CEA135594EAA1
:100A10000C0F08BF95EA0C0F3FF43BAF94EA0C0FA4
:100A20000AD150EA01347FF434AF95EA0C0F7FF419
:100A300025AF104619462CE795EA0C0F06D152EA6D
:100A400003353FF4FDAE1046194622E750EA410651
:100A500018BF52EA43067FF4C5AE50EA41047FF462
:100A60000DAF52EA43057FF4EBAE12E74FF0FF3CC7
:100A700006E000BF4FF0010C02E000BF4FF0010C98
:100A80004DF804CD4FEA410C7FEA6C5C4FEA430C11
:100A900018BF7FEA6C5C1BD001B050EA410C0CBF60
:100AA00052EA430C91EA030F02BF90EA020F0020C2
:100AB000704710F1000F91EA030F58BF994208BF29
:100AC00090422CBFD8176FEAE37040F001007047E6
:100AD0004FEA410C7FEA6C5C02D150EA013C07D13D
:100AE0004FEA430C7FEA6C5CD6D152EA033CD3D088
:100AF0005DF8040B704700BF8446104662468C4682
:100B00001946634600E000BF01B5FFF7B7FF0028B4
:100B100048BF10F1000F01BD4DF808EDFFF7F4FFDD
:100B20000CBF012000205DF808FB00BF4DF808ED68
:100B3000FFF7EAFF34BF012000205DF808FB00BF8B
:100B40004DF808EDFFF7E0FF94BF012000205DF8AD
:100B500008FB00BF4DF808EDFFF7CEFF94BF012062
:100B600000205DF808FB00BF4DF808EDFFF7C4FF5B
:100B700034BF012000205DF808FB00BF4FEA410CA4
:100B80007FEA6C5C02D150EA013C0AD14FEA430C87
:100B90007FEA6C5C02D152EA033C02D14FF00000C4
:100BA00070474FF0010070474FEA410212F5001202
:100BB00015D211D56FF47873B3EB625212D94FEAA4
:100BC000C12343F0004343EA505311F0004F23FA8E
:100BD00002F018BF404270474FF00000704750EAE3
:100BE000013005D111F0004008BF6FF000407047A0
:100BF0004FF00000704700BF7047000010B584B090
:100C0000002407E000F044F804AB03EB840343F84E
:100C1000080C0134012CF5D900F03AF80446029B87
:100C2000C31AB3F57A7F19D2039BE31A632B1AD840
:100C300000F0AAF90028EFD000F0AAF98DF807001B
:100C400004210F4800F0A8F901210DF1070000F080
:100C5000A3F904210B4800F09FF9DDE70290002082
:100C600000F0DAF9E0E7039400F08AF918B1012006
:100C700000F0D2F9DCE7012000F092F9D8E700BFDC
:100C8000507800085878000808B500F04BFF08BD00
:100C900008B500F041FF08BD72B6FEE700B595B09B
:100CA0003822002106A804F0A4FE00200190029042
:100CB00003900490059002F0B9F802F0AFF8194AD9
:100CC000D2F8903023F01803C2F890302523069311
:100CD0004FF480330793012308930C9302230D9361
:100CE00003220E920F932822109211930422129243
:100CF000139306A802F054F980B90F23019303233C
:100D00000293002303930493059304210DEB010048
:100D100002F0FCFB20B915B05DF804FBFFF7BCFF47
:100D2000FFF7BAFF0010024008B500F0D9FEFFF748
:100D3000B5FF012008BD000000B583B00B4B1A6E53
:100D400042F001021A661A6E02F001020092009A45
:100D50009A6D42F080529A659B6D03F08053019327
:100D6000019B02F0E9F803B05DF804FB00100240BB
:100D7000FEE7FEE7FEE7FEE7FEE7704770477047D5
:100D800008B500F0BDFE08BD0120704708B504F0AD
:100D900083FE162303604FF0FF3008BD08B54FF007
:100DA000FF31FFF7F3FFFEE770B50C46164600254E
:100DB00006E0AFF30080214601F8010B01350C4637
:100DC000B542F6DB304670BD70B50C4616460025C0
:100DD00004E014F8010BAFF300800135B542F8DBF5
:100DE000304670BD4FF0FF3070474FF400534B60FA
:100DF00000207047012070470020704710B503465F
:100E00000C4A0D490D48006840B10C480068034485
:100E1000521A934206D8094A136010BD0748084C7D
:100E20000460F2E704F038FE0C2303604FF0FF305B
:100E3000F3E700BF008000200004000070030020E2
:100E4000C8160020034AD2F8883043F47003C2F871
:100E50008830704700ED00E008B500F008FEFFF7AD
:100E6000CBFEFFF7CBFE002008BD00000D488546F5
:100E7000FFF7E8FF0C480D490D4A002302E0D45863
:100E8000C4500433C4188C42F9D30A4A0A4C0023D4
:100E900001E013600432A242FBD304F003FEFFF72B
:100EA000DBFFFEE70080002000000020540300204C
:100EB000587C000854030020C4160020FEE7F0B55B
:100EC00000270CE00CEB030511F803E006F805E041
:100ED0000133C5689D42F5D8294404600137974223
:100EE00013D205686B1C8468B3FBF4F604FB16345C
:100EF0004368A3420BD00669002EEED00029ECD047
:100F0000C36803FB05FC0023E3E70120F0BD0020DC
:100F1000FCE770B50C461646002516E001EB0E0CFA
:100F20001CF803C004F803C00133C2689A42F5D824
:100F3000144443680268934216D001338268B3FBBD
:100F4000F2F102FB113343600135B5420AD2016967
:100F50000029EED0002CECD04368C26802FB03FEEF
:100F60000023E2E7012070BD0020FCE782680368EF
:100F7000134441685B1AB3FBF2F002FB1030704778
:100F800008B500F00DFB08BD08B500F0EFFA08BD8C
:100F900008B500F0F3FA08BD08B500F01FFB08BD66
:100FA000042800D9704708B5044B03EBC0010022A8
:100FB000898853F8300000F02FFF08BD6C780008D6
:100FC00010B586B00024019402940394049405940F
:100FD0000F4BDA6C42F00402DA64DB6C03F00403BA
:100FE0000093009B012302930DE00A4B03EBC40224
:100FF0009288019201A953F8340000F023FEE0B278
:10100000FFF7CEFF0134042CEFDD012006B010BD48
:10101000001002406C780008042800D9704708B519
:10102000044B03EBC002918853F8300000F0F9FE46
:1010300008BD00BF6C7800080120704708B5174B49
:1010400001221A70904205D0144B00221A70134BE3
:10105000187808BD00221249124803F063FA10B153
:101060000E4B00221A7010490E4803F072FA10B1AC
:101070000A4B00221A700D490A4800F0A0F910B17D
:10108000064B00221A70074803F07AFA10B1034B9E
:1010900000221A70064B01221A70D8E7450600207C
:1010A0006401002074030020D000002014010020FF
:1010B0004406002008B5024801F066FC08BD00BFE8
:1010C0009412002010B5D0F8BC4284B1D0F8C032E0
:1010D0007BB194F80002FF280DD09B6894F80122A0
:1010E00021469847FF2384F80032002010BD0320DA
:1010F000FCE70020FAE70020F8E700004323038024
:101100000048704748000020432303800048704790
:101110008C00002043230380004870470400002017
:101120000A230380004870470801002038B5D0F832
:10113000BC5275B1044600F08FFCC5F80C02D4F81F
:10114000C032DB6805F50371D5F80402984700202A
:1011500038BD0320FCE710B5D0F8C442D0F8BC324B
:1011600053B301EB810200EB820292694AB101EBB9
:10117000810C04EBCC04246AB2FBF4FC04FB1C22BB
:1011800072B10022C3F81422D0F8C0221469ACB1A5
:101190000A4603F50471D3F80802A047002010BDE9
:1011A00001EB810300EB830300249C61234622466C
:1011B00000F042FC2046F2E70320F0E70020EEE7D3
:1011C000F0B583B0D0F8BC6200238DF80730ADF8DD
:1011D0000430002E6CD007460C460B7813F06005E7
:1011E0002AD0202D5ED1CA88F2B113F0800F0FD023
:1011F000D0F8C0329B68314660789847E288072A69
:1012000028BF07223146384603F054FE00254CE043
:101210004B7886F800328B7986F80132CA883146DD
:1012200003F05DFE002540E0D0F8C0329B6800224C
:1012300048789847002538E04E780B2E2ED8DFE806
:1012400006F006342D2D2D2D2D2D2D2D152490F845
:101250009C32DBB2032B03D003F0F1FA032524E028
:10126000022201A903F026FE35461EE090F89C32CA
:10127000DBB2032B03D003F0E2FA032515E00122D1
:101280000DF1070103F016FE0FE090F89C32DBB27F
:10129000032B0AD003F0D3FA032506E003F0CFFABC
:1012A000032502E003F0CBFA0325284603B0F0BD86
:1012B0000325FAE738B50446812100F080FB0025BC
:1012C00025870121204600F07AFBA4F8785182217D
:1012D000204600F074FBA4F84C50A4F84E50D4F80B
:1012E000BC324BB1D4F8C0325B689847D4F8BC022A
:1012F00000F0BCFBC4F8BC52002038BD70B50446F9
:101300004FF4077000F0AEFBB8B30646C4F8BC0259
:10131000237CBBBB4FF4007302228121204600F0E6
:1013200043FB012525874FF40073022229462046FE
:1013300000F03AFBA4F878511023A4F84E300823AB
:1013400003228221204600F02FFB0123A4F84C3019
:10135000D4F8C0321B6898470023C6F81432C6F888
:101360001832257C15BB4FF40073D6F804220121F6
:10137000204600F069FB284670BD0023C4F8BC324B
:101380000225F8E7402302228121204600F00CFBD1
:1013900001252587402302222946204600F004FB30
:1013A000A4F878511023A4F84E30C8E74023D6F8AB
:1013B00004220121204600F047FB0025DBE719B19C
:1013C000C0F8C0120020704703207047D0F8BC322C
:1013D0002BB1C3F80812C3F8102200207047032075
:1013E0007047D0F8BC321BB1C3F80412002070471C
:1013F00003207047D0F8BC2292B108B5D2F814325D
:101400000BB1012008BD0123C2F81432D2F810320A
:10141000C362D2F80822812100F00EFB0020F1E720
:101420000320704710B5D0F8BC2292B1047C44B9B7
:101430004FF40073D2F80422012100F005FB20468E
:1014400010BD4023D2F80422012100F0FDFA00244F
:10145000F5E70324F3E700000020014B1870704704
:101460004706002021281FD022282FD0202801D075
:10147000002070470B784A7843EA02238A7843EACF
:101480000243CA7843EA02630879164A1071487920
:101490005071897991711449A1FB0313DB0803EBA7
:1014A00083035B001360E3E70E4A13680B70C3F31A
:1014B00007204870C3F3074088701B0ECB70137968
:1014C0000B7153794B7193798B71D1E74B8813F082
:1014D000010F03D0054B01221A70C9E7034B00220C
:1014E0001A70C5E728010020CDCCCCCC47060020DF
:1014F0000020704770B505460D4E0A68014630461B
:10150000FFF7DDFCB4683046FFF730FD241A013CDC
:101510003F2C04D8074B01221A70002070BD064CE6
:1015200029462046FFF75DFF2046FFF77BFFF4E7E3
:101530005C060020460600207403002010B5074C0E
:10154000002207492046FFF741FF06492046FFF7E2
:1015500048FF0020044B187010BD00BF740300202A
:1015600070060020700A00204706002008B50248D7
:10157000FFF7FCFC08BD00BF5C06002000B583B08F
:1015800000238DF8073001220DF107010348FFF712
:10159000C0FC9DF8070003B05DF804FB5C0600206A
:1015A0000C4BD3F8BC3293B101220B4B187800B12D
:1015B0001046084B93F89C32DBB2032B00D000207E
:1015C000044B5B6803B90020034B1870704700227E
:1015D000EBE700BF74030020470600202DE9F0412F
:1015E00007460E46FFF7DCFF18B900252846BDE880
:1015F000F081FFF74DFB804600250CE00120FFF74E
:1016000043FBFFF7CDFF0028F0D0FFF741FBA0EB35
:101610000803632BEAD8B542E8D20A488468FFF78A
:10162000A5FC241A013C731B9C4200D31C46002CD1
:10163000E4D0224639460348FFF741FC27442544BD
:10164000DFE700BF4806002070B51C4B1B788BB944
:101650001B48FFF78BFC044610F03F0F02D138B156
:10166000441E05D0174BD3F8BC32D3F81432ABB1BB
:10167000002070BD14488468FFF778FC241A013CF0
:101680003F2CE5D90F4C11492046FFF7AAFE204612
:10169000FFF7C8FE094B00221A70D9E70C4E22460C
:1016A00031460748FFF735FC064D224631462846AD
:1016B000FFF78CFE2846FFF79DFED9E7460600207F
:1016C00048060020740300205C060020700A0020F9
:1016D0007006002012230B80004870475001002044
:1016E00004230B80004870474C01002000239342E4
:1016F0001ED200B510E00CF1370C01F813C0000148
:101700004FEA430C0CF1010C4FF0000E01F80CE015
:101710000133DBB2934209D24FEA107CB0F1204F83
:10172000E9D20CF1300C01F813C0E8E75DF804FBD6
:101730007047000038B50B4BD3F89005D3F89445AB
:10174000D3F89835C01800D138BD074D0822294676
:10175000FFF7CCFF042205F110012046FFF7C6FF7A
:10176000F2E700BF0070FF1F3201002008B51A2306
:101770000B80FFF7DFFF014808BD00BF30010020EC
:1017800008B50A4628B90549054803F076FB034821
:1017900008BD0249024803F070FBF8E7700E002014
:1017A0009478000810B50A46034C2146034803F01C
:1017B00064FB204610BD00BF700E0020AC7800080E
:1017C00008B50A4628B90549054803F056FB034801
:1017D00008BD0249024803F050FBF8E7700E0020F4
:1017E000C078000808B50A4628B90549054803F03D
:1017F00044FB034808BD0249024803F03EFBF8E7FA
:10180000700E0020CC780008032805D8DFE800F02F
:1018100005040205012070470320704702680E4B43
:101820009A4200D0704700B583B003F5DA339A6D61
:1018300042F400029A659B6D03F400030193019B3F
:1018400000220621142000F0D5F9142000F0E2F95E
:1018500003B05DF804FB00BF005C004008B500F574
:101860002671D0F8D80202F0A0FE08BD08B501EB41
:10187000810300EBC303D3F86421D0F8D80202F04F
:10188000C0FE08BD08B501EB810300EBC3035A6A33
:10189000D0F8D80202F0F1FE08BD08B5D0F8D802A1
:1018A00002F091FF08BD10B504464379022B09D11F
:1018B0000121D4F8D80202F06CFFD4F8D80202F06B
:1018C0003BFF10BDFFF7E8F9F2E7000010B5044652
:1018D000D0F8D80202F060FF637A23B1044A13699A
:1018E00043F006031361034B00221A7010BD00BFC2
:1018F00000ED00E09012002008B5437A23B1054ABC
:10190000136923F006031361D0F8D80202F04EFFEA
:1019100008BD00BF00ED00E010B503461C48C0F84C
:10192000D832C3F8C4021B4B03600823037102239F
:101930004371C37101230372002343728372C37224
:1019400000F004FB08BB124C142300221146204671
:1019500001F030FA542300228021204601F02AFAB7
:10196000942300228121204601F024FAD42300226E
:101970000121204601F01EFA4FF48A7300228221D1
:10198000204601F017FA002010BDFFF785F9DAE7CD
:1019900094120020005C004008B5D0F8C40200F0AA
:1019A00030FBFFF731FF08BD08B594461A46634681
:1019B000D0F8C40201F0C1F8FFF726FF08BD08B552
:1019C000D0F8C40201F0FCF8FFF71EFF08BD08B50F
:1019D000D0F8C40201F076F9FFF716FF08BD08B58C
:1019E000D0F8C40201F0A7F9FFF70EFF08BDD0F848
:1019F000C43211F0800F08D101F07F0101EB8101A9
:101A000003EBC10393F85201704701F07F0101EB32
:101A1000810103EBC103987C7047000008B5D0F842
:101A2000C40200F09EFFFFF7EFFE024B01221A7086
:101A300008BD00BF9012002008B5D0F8C40201F024
:101A40001BF9FFF7E1FE08BD08B5D0F8C40201F0AC
:101A5000EDF8FFF7D9FE08BD08B5D0F8C40201F0D3
:101A600002F908BD0048704770100020704710B59B
:101A7000FFF75AF90446FFF7A3FA0440E4B2FFF770
:101A8000DBFA04400120FFF7D9FA204010BD000026
:101A9000104B1B680BB90120704710B504464FF47A
:101AA0007A70B0FBF3F30C4A1068B0FBF3F000F06F
:101AB000B5F868B90F2C01D901200AE000222146AF
:101AC0004FF0FF3000F096F8044B1C60002000E05F
:101AD000012010BD840100200000002088010020AA
:101AE00010B5032000F074F80F20FFF7D1FF10B1FC
:101AF0000124204610BD0446FFF71EF9F9E7000057
:101B0000034A1368034909680B441360704700BF18
:101B10007015002084010020014B1868704700BF39
:101B20007015002038B50446FFF7F6FF0546B4F1FE
:101B3000FF3F02D0044B1B681C44FFF7EDFF401B26
:101B4000A042FAD338BD00BF84010020002807DB83
:101B500000F01F02400901239340024A42F820305E
:101B6000704700BF00E100E0002808DB0901C9B2AE
:101B700000F1604000F5614080F80013704700F00C
:101B80000F000901C9B2014B1954704714ED00E070
:101B900000B500F00700C0F1070CBCF1040F28BF2E
:101BA0004FF0040C031D062B0FD9C31E4FF0FF3E50
:101BB0000EFA0CF021EA000199400EFA03FE22EA27
:101BC0000E0241EA02005DF804FB0023EEE700008C
:101BD000074AD36823F4E0631B041B0C000200F4E3
:101BE000E060034343F0BF6343F40033D3607047C6
:101BF00000ED00E010B50446054BD868C0F30220A4
:101C0000FFF7C6FF01462046FFF7AEFF10BD00BF3D
:101C100000ED00E008B5FFF799FF08BD0138B0F10D
:101C2000807F0BD24FF0E0235861054AF02182F803
:101C300023100020986107221A6170470120704725
:101C400000ED00E0F0B583B0002362E085685E003F
:101C50000324B44025EA0405CC68B4402C438460D6
:101C6000456825EA0C054C68C4F300149C402C43DD
:101C700044605FE0DD08083550F8254003F0070CAC
:101C80004FEA8C0C4FF00F0E0EFA0CFE24EA0E0EEB
:101C90000C6904FA0CF444EA0E0440F8254060E0B4
:101CA000052400E0002404FA0EF42C430CF1020C8D
:101CB000554D45F82C40554CA568D44325EA0206FD
:101CC0004F6817F4801F01D042EA05064F4DAE6001
:101CD000ED6804EA05064F6817F4001F01D042EAD8
:101CE00005064A4DEE606D6804EA05064F6817F474
:101CF000003F01D042EA0506444D6E602D682C403D
:101D00004E6816F4803F01D042EA05043F4A146051
:101D100001330A6832FA03F474D04FF0010C0CFA64
:101D200003FC1CEA0202F3D04C6804F00304013CFB
:101D3000012C8BD94C6804F00304032C0CD0C4682C
:101D40005D004FF0030C0CFA05FC24EA0C0C8C68C7
:101D5000AC4044EA0C04C4604C6804F00304022C58
:101D600088D004684FEA430E4FF0030C0CFA0EFCC7
:101D700024EA0C0C4C6804F0030404FA0EF444EA60
:101D80000C0404604C6814F4403FC1D0204C256E14
:101D900045F001052566246E04F001040194019CC0
:101DA0004FEA930C0CF10205174C54F8255003F040
:101DB000030E4FEA8E0E0F2404FA0EF425EA0405F2
:101DC000B0F1904F3FF46EAF124CA04212D004F528
:101DD0008064A04210D004F58064A0420ED004F5C7
:101DE0008064A0420CD004F58064A0423FF458AF58
:101DF000062458E7012456E7022454E7032452E757
:101E0000042450E703B0F0BD00000140000401408D
:101E100000100240000400480AB1816170478162ED
:101E20007047436901EA030221EA030141EA0241E2
:101E30008161704738B512F4804F43D00468B4F81C
:101E4000503091F800C04FEACC0E1EFA83F32344C1
:101E5000B3F80244C4F309048B69A34228D31B1BC3
:101E60008B618B697BB9056835F82C309BB223F404
:101E7000804323F0700383F4005343F4004343F0A2
:101E8000800325F82C3012F0400F0ED002680D7838
:101E900032F825309BB223F4E04323F0700343F47F
:101EA000004343F0C00322F8253024B9204638BD52
:101EB00000238B61D5E723460A894969006802F04F
:101EC00019FBF3E70468B4F8503091F800C04FEA0A
:101ED000CC0E1EFA83F32344B3F80644C4F309047A
:101EE0008B69A3422FD31B1B8B618B697BB9056860
:101EF00035F82C309BB223F4804323F0700383F435
:101F0000005343F4004343F0800325F82C3012F0D3
:101F1000400F0FD1026891F800C032F82C309BB20C
:101F200023F4E04323F0700343F4004343F0C00381
:101F300022F82C30002CB9D023464A894969006820
:101F400002F0D8FAB2E700238B61CEE7002856D022
:101F500010B5044690F891323BB1032384F89132D6
:101F6000206801F0D8FB002315E080F89032FFF7DD
:101F700055FCF2E703EB830204EBC202012151742A
:101F800013740021D17411625162013303EB830297
:101F9000D200A150DBB220799842EBD8002316E0A2
:101FA00003EB830204EBC202002182F8511182F894
:101FB000503182F85311C2F86011C2F8641103EB7A
:101FC000830204EBC202C2F868110133DBB298420B
:101FD000E6D8234653F8040B93E8060001F0A5FB6E
:101FE00000232373012384F89132A37A012B01D0BB
:101FF000002010BD204600F0F9FE0020F9E7012086
:10200000704790F89032012B0ED010B50446012392
:1020100080F89032006801F075FB206801F087FFBE
:10202000002084F8900210BD0220704770B505466C
:102030000C46164612F0400F00F020810268B2F8FC
:10204000503009784FEAC10C1CFA83F31344B3F8FB
:102050000224C2F30902A36993422CD99B1AA361FB
:10206000A06958B316F4804F0DD0286830F821309D
:102070009BB223F4E04323F0700343F4404343F066
:10208000800320F8213094F82430012B00F08D805B
:102090002A68217832F821309BB223F4E04323F000
:1020A000400383F0300343F4004343F0800322F8FD
:1020B0002130002070BD0023A361D1E76378002B9D
:1020C00048D12A68B2F8503012FA83F36344B3F867
:1020D0000224C2F30902A3F80224B3F802246FEA2F
:1020E00042426FEA524292B2A3F802242A6863780D
:1020F000002B3BD1B2F8503012FA83F3227803EB75
:10210000C203B3F80624C2F30902A3F80624B3F805
:1021100006246FEA42426FEA524292B2A3F80624C2
:10212000E378022B2FD021782846FFF7ABFB16F47B
:10213000804FBED02A68217832F821309BB223F438
:10214000E04323F0700343F4404343F0800322F85C
:102150002130AEE7012BC9D12A68B2F8503012FA0B
:1021600083F363440022A3F80224BFE7012BD7D1F5
:10217000B2F8503012FA83F3227803EBC203002244
:10218000A3F80624CCE72A68217832F821309BB2E4
:1021900023F4E04323F0400383F0200343F400439F
:1021A00043F0800322F82130BDE763691344636183
:1021B000E3691344E361216A236999421DD3C91A73
:1021C00021626278002A44D12968B1F8502011FABE
:1021D00082F2217802EBC102B2F80214C1F30901C4
:1021E000A2F80214ABB9B2F802146FEA41416FEAE7
:1021F000514189B2A2F802142DE021B9002384F8DC
:1022000024301346DDE7002384F8243023620B4694
:10221000D7E73E2B0DD8590813F0010F00D001313C
:10222000B2F8020480B2890289B20143A2F8021412
:1022300011E0580913F01F0F00D10138B2F8021451
:1022400089B2800280B2014341F40041A2F8021435
:1022500001E0012A06D09BB222896169286801F059
:1022600075FE15E72968B1F8502011FA82F221783D
:1022700002EBC10299B2A2F80214ECE70268B2F8CC
:1022800050300978C80010FA83F31344B3F80624D9
:10229000C2F30902A369934246D39B1AA361A369BF
:1022A000002B44D016F4804F0DD1286830F821302F
:1022B0009BB223F4E04323F0700343F4404343F024
:1022C000800320F8213094F82430012B7FF4E0AE15
:1022D000636913446361E3691344E361216A236919
:1022E0009942C0F09C80C91A216229686278002A4C
:1022F00040F0C180B1F8502011FA82F2217802EB4F
:10230000C102B2F80614C1F30901A2F80614002BA9
:1023100040F09180B2F806146FEA41416FEA5141F2
:1023200089B2A2F80614A8E00023A361B7E7637896
:10233000002B49D12A68B2F8503012FA83F30344D3
:10234000B3F80224C2F30902A3F80224B3F802246A
:102350006FEA42426FEA524292B2A3F802242A681C
:102360006378002B3CD1B2F8503012FA83F3227814
:1023700003EBC203B3F80624C2F30902A3F8062450
:10238000B3F806246FEA42426FEA524292B2A3F8CF
:102390000624E378022B30D021782846FFF772FA22
:1023A00016F4804F7FF485AE2A68217832F8213008
:1023B0009BB223F4E04323F0700343F4404343F023
:1023C000800322F8213074E6012BC8D12A68B2F8C4
:1023D000503012FA83F303440022A3F80224BEE72C
:1023E000012BD6D1B2F8503012FA83F3227803EBE6
:1023F000C2030022A3F80624CBE72A68217832F82A
:1024000021309BB223F4E04323F0400383F0200308
:1024100043F4004343F0800322F82130BCE721B9A4
:10242000002384F8243013465FE70023236284F8F6
:1024300024300B4659E73E2B0DD8590813F0010FF5
:1024400000D00131B2F8060480B2890289B201439A
:10245000A2F8061411E0580913F01F0F00D101383B
:10246000B2F8061489B2800280B2014341F40041FF
:10247000A2F8061401E0012A06D09BB262896169C4
:10248000286801F063FD03E6B1F8502011FA82F2EA
:10249000217802EBC10299B2A2F80614EDE72DE90A
:1024A000F04105462868B0F8443013F4004F00F0BE
:1024B0005582B0F84440A3B214F00F0440F09F805E
:1024C00013F0100F4AD003889AB213F4006F75D13D
:1024D00012F4004FE6D0038823F070031B051B0D98
:1024E00043F0800303802868B0F8503095F85021FD
:1024F000D20012FA83F30344B3F80634C3F309039A
:10250000C5F86C318BB1D5F8641171B1B5F85621AD
:1025100001F0F0FFD5F86431D5F86C211344C5F80B
:10252000643100212846FFF7A1F92A68138899B27F
:1025300013F4006FB6D101F44051B1F5405FB1D052
:1025400013889BB223F4804323F0700383F4405339
:1025500043F4004343F080031380A3E703889BB256
:1025600023F4E14323F070036FEA43436FEA5343DC
:102570009BB203802968B1F850302A7CD20012FA4D
:1025800083F30B44B3F80234C3F30903EB626A6AC2
:102590001A446A6200212846FFF774F92B7B002B4E
:1025A00080D0AB6A002B7FF47DAF2B7B2A6843F091
:1025B0008003A2F84C3000232B7373E7B0F850303F
:1025C00095F85021D20012FA83F30344B3F806348D
:1025D000C3F30903C5F86C31B5F8562105F526712A
:1025E00001F088FF2A68138823F070031B051B0D78
:1025F00043F0800313802846FFF730F952E730F8A4
:1026000024309EB213F4004F4ED116F0800F3FF4E9
:1026100049AF04EB8401C900103129442A6832F81B
:1026200024309BB223F4E14323F070036FEA434369
:102630006FEA53439BB222F8243004EB840305EB8A
:10264000C303DB7C012B00F0E98016F4807F40F0AF
:1026500080812868B0F8503004EB840205EBC20298
:10266000167CF20012FA83F30344B3F80234C3F386
:102670000903621C02EB820255F832209A4240F2B2
:102680004B81671C07EB8707D21A45F83720621C7D
:1026900002EB820255F83220002A40F04481314694
:1026A0002846FFF7EFF8FDE630F8243023F07003FA
:1026B0001B051B0D43F0800320F8243004EB84013C
:1026C000C90001F5A87105EB010804EB840305EBD3
:1026D000C30393F85C31002B40D12868B0F8503028
:1026E00004EB840205EBC20292F85021D20012FAE8
:1026F00083F30344B3F80674C7F3090717BB04EB6D
:10270000840305EBC303D3F86C213A44C3F86C216E
:10271000D3F864213A44C3F86421D3F868313BB15B
:1027200004EB840305EBC303D3F860319F4270D2FE
:1027300004EB840305EBC30393F850112846FFF71D
:1027400095F862E704EB840105EBC1013B46B1F863
:102750005621D1F8641101F0CDFED0E704EB8403DB
:1027600005EBC30393F85331022B33D0296804EBF4
:10277000840205EBC20292F8500131F820309BB27E
:1027800023F4E04323F0700343F4004343F0C00319
:1027900021F82030286892F8503130F8232012F4C4
:1027A000804F1ED0B0F85020DB0013FA82F30344B0
:1027B000B3F80274C7F30907002FA0D004EB84011B
:1027C00005EBC1013B46B1F85821D1F8641101F085
:1027D00091FE94E7324641462846FFF72BFB074619
:1027E0008DE7B0F85020DB0013FA82F30344B3F80E
:1027F0000674C7F30907002F81D004EB840105EBB1
:10280000C1013B46B1F85A21D1F8641101F072FEC2
:1028100075E74146286801F0ABFBF6E6631C03EB65
:102820008303DB000022EA5004EB840305EBC303BF
:102830001B7F1BB316F0400F3BD004EB840305EB6A
:10284000C3035B7C1BBB2A68B2F8503012FA83F3D7
:1028500004EB840205EBC202127C03EBC203B3F863
:102860000224C2F30902A3F80224B3F802246FEA97
:1028700042426FEA524292B2A3F8022404EB84046B
:1028800005EBC404217C2846FEF7FCFF0AE6012B79
:10289000F4D12A68B2F8503012FA83F304EB8402C0
:1028A00005EBC202127C03EBC2030022A3F8022450
:1028B000E4E72A6804EB840305EBC3035B7CD3B92C
:1028C000B2F8503012FA83F304EB840205EBC20233
:1028D000127C03EBC203B3F80624C2F30902A3F887
:1028E0000624B3F806246FEA42426FEA524292B2DB
:1028F000A3F80624C2E7012BC0D1B2F8503012FA77
:1029000083F304EB840205EBC202127C03EBC203E7
:102910000022A3F80624B1E7621C02EB8202D20077
:102920000027AF50B3E604EB840205EBC202566AFF
:102930001E445662013404EB840205EBC202526865
:1029400004EB840405EBC4041344636001F010FB42
:10295000A8E532462846FFF769FBA3E50020BDE85D
:10296000F08190F89032012B0CD010B50446012371
:1029700080F890320173006801F0D3FA002084F8E7
:10298000900210BD0220704710B50446006801F0A7
:10299000D9FA10F4004F23D110F4806F24D110F431
:1029A000804F32D110F4005F39D110F4805F40D1F4
:1029B00010F4006F67D110F0800F40F0818010F4A8
:1029C000007F40F0AD8010F4807F27D02268B2F8FD
:1029D00044309BB223F480739BB2A2F844301DE0D4
:1029E0002046FFF75CFD19E02268B2F844309BB244
:1029F00023F480639BB2A2F844302046FEF753FFD5
:102A000000212046FFF7ADFF08E02268B2F844300D
:102A10009BB223F480439BB2A2F8443010BD2268DD
:102A2000B2F844309BB223F400539BB2A2F8443076
:102A3000F4E72268B2F840309BB223F004039BB263
:102A4000A2F840302268B2F840309BB223F008036D
:102A50009BB2A2F8403094F8C832012B0CD020462B
:102A6000FEF74AFF2268B2F844309BB223F4805349
:102A70009BB2A2F84430D1E7002184F8C812204666
:102A800000F0CAF9EBE72268B2F840309BB243F09D
:102A90000803A2F840302268B2F844309BB223F415
:102AA00000639BB2A2F844302268B2F840309BB277
:102AB00043F00403A2F840302046FEF707FFADE7DD
:102AC0002268B2F844309BB223F080039BB2A2F894
:102AD000443094F8C832FBB92268B2F840309BB257
:102AE00043F00403A2F840302268B2F840309BB2B1
:102AF00043F00803A2F84030012184F8C81223688B
:102B0000B3F85430C3F38D0303F03C03C4F8CC3264
:102B1000204600F081F981E72046FEF7D7FE7DE7E9
:102B20002268B2F844309BB223F400739BB2A2F83F
:102B300044302046FEF7B1FE70E710B50446084663
:102B400011F0800F27D101F0070C0CEB8C01C900AC
:102B500001F5A87E04EB0E010CEB8C0C04EBCC0C05
:102B60004FF0000E8CF851E100F007000870C2F33E
:102B70000A020A61CB70022B1DD094F89032012B0F
:102B80001CD0012384F89032206800F0DFFD002083
:102B900084F8900210BD01F0070C0CEB8C01C90009
:102BA000103121440CEB8C0C04EBCC0C4FF0010EDB
:102BB0008CF811E0D8E700230B71DEE70220E9E78B
:102BC00010B504460A4611F0800F1FD101F007002E
:102BD00000EB8003DB0003F5A873E11800EB800035
:102BE00004EBC000002380F8513102F007020A70A4
:102BF00094F89032012B17D0012384F8903220688A
:102C000001F031F8002084F8900210BD01F00700B7
:102C100000EB8003DB001033E11800EB800004EBD5
:102C2000C00001234374E0E70220EEE710B501F095
:102C3000070C0CEB8C01C90001F5A8710CEB8C0E94
:102C400000EBCE0ECEF86421CEF868310024CEF829
:102C50006C418EF851418EF850C10144006801F07A
:102C600087F9204610BD01F0070101EB810100EB5F
:102C7000C100D0F86C01704738B501F0070C0CEBBF
:102C80008C01C90010310CEB8C0E00EBCE0ECEF88F
:102C900024200CF1010202EB820440F834300125BB
:102CA0008EF83450CEF8303000EBC402002454606B
:102CB0008EF811508EF810C00144006801F058F9E8
:102CC000204638BD0B4601F00702017991422ED310
:102CD00010B5044613F0800F1DD103EB8301C9002A
:102CE00001F5A871014403EB830300EBC30300204B
:102CF00083F8510101238B700A7094F89032012BF4
:102D000017D0012384F89032206801F097F8002052
:102D100084F8900210BD02EB8201C9001031014419
:102D200002EB820300EBC30301205874E2E70120A9
:102D300070470220EEE70B46017903F00F02914243
:102D400034D310B5044613F0800F21D103F00702ED
:102D500002EB8201C90001F5A871014402EB820275
:102D600000EBC202002082F8510100228A7003F0B9
:102D700007030B7094F89032012B19D0012384F8CB
:102D80009032206801F07FF8002084F8900210BD96
:102D900003F0070202EB8201C9001031014402EB8B
:102DA000820200EBC20201205074DEE7012070476E
:102DB0000220ECE711F0800F0BD001F0070101EBCE
:102DC0008101C9001031084452B90273C380002048
:102DD000704701EB8101C90001F5A8710844F3E7D0
:102DE0000122027303811B0C4381F0E70346026852
:102DF0000121C0F8D012002083F8C802B2F8543084
:102E00009BB20B43A2F85430B2F854309BB243F05B
:102E10000203A2F85430704770470000024A13685A
:102E200043F480731360704700700040002836D16F
:102E30003E4B1B6803F4C063B3F5806F08D03B4A78
:102E4000D2F8803023F48073C2F8803000207047BD
:102E5000364AD2F8803023F48073C2F88030136889
:102E600023F4C06343F400731360314B1B683222B8
:102E700002FB03F32F4AA2FB03239B0C013300E068
:102E8000013B2A4A526912F4806F01D0002BF7D11E
:102E9000264B5B6913F4806F44D100207047B0F576
:102EA000007F08D0214A136823F4C06343F4806391
:102EB0001360002070471D4B1B6803F4C063B3F51B
:102EC000806F08D0194AD2F8803043F48073C2F87A
:102ED000803000207047154AD2F8803043F4807368
:102EE000C2F88030136823F4C06343F400731360A6
:102EF0000F4B1B68322202FB03F30E4AA2FB032393
:102F00009B0C013300E0013B084A526912F4806FC8
:102F100001D0002BF7D1054B5B6913F4806F03D10F
:102F20000020704703207047032070470070004066
:102F30000000002083DE1B43024A936843F4804371
:102F40009360704700700040124BDA6802F0030291
:102F5000DB68C3F303130133032A11D00E48B0FB1F
:102F6000F3F00C4BDB68C3F3062303FB00F0094BC3
:102F7000DB68C3F3416301335B00B0FBF3F07047E0
:102F80000648B0FBF3F0034BDB68C3F3062303FBF7
:102F900000F0ECE7001002400024F40000127A0078
:102FA000002800F04F8270B582B00446036813F029
:102FB000010F37D0A44A936803F00C03D26802F0E3
:102FC00003020C2B23D0082B23D06368B3F5803F7A
:102FD0004ED0B3F5A02F51D09B4B1A6822F480320B
:102FE0001A601A6822F480221A606368002B52D09B
:102FF000FEF792FD0546944B1B6813F4003F11D178
:10300000FEF78AFD401B6428F5D9032023E2032A3A
:10301000D9D18D4B1B6813F4003F03D06368002B9C
:1030200000F01282236813F0020F5DD0864A936885
:1030300003F00C03D26802F003020C2B3AD0042BED
:103040003AD0E368002B75D07F4A136843F480734D
:103050001360FEF761FD05467B4B1B6813F4806F20
:103060005FD1FEF759FD401B0228F5D90320F2E19C
:10307000754A136843F480331360B6E703F1804365
:10308000A3F53C331A6842F480221A601A6842F4AD
:1030900080321A60A9E7FEF73FFD05466A4B1B68C0
:1030A00013F4003FBED0FEF737FD401B6428F5D96E
:1030B0000320D0E1022AC2D1634B1B6813F4806F56
:1030C00003D0E368002B00F0C1815F4A536823F00E
:1030D000FE43216943EA016353605C4B1868FEF7C5
:1030E000D7FC002840F0B481236813F0080F4CD0BF
:1030F00063699BB3544AD2F8943043F00103C2F899
:103100009430FEF709FD05464F4BD3F8943013F089
:10311000020F3AD1FEF700FD401B0228F4D903202C
:1031200099E1494A536823F0FE43216943EA016368
:103130005360D9E7444A136823F480731360FEF7A1
:10314000EBFC0546404B1B6813F4806FCCD0FEF7B8
:10315000E3FC401B0228F5D903207CE13A4AD2F86F
:10316000943023F00103C2F89430FEF7D5FC0546F5
:10317000354BD3F8943013F0020F06D0FEF7CCFC99
:10318000401B0228F4D9032065E1236813F0040FE3
:1031900000F081802C4B9B6D13F0805F36D12A4B61
:1031A0009A6D42F080529A659B6D03F080530193B3
:1031B000019B0125264B1B6813F4807F28D0A36850
:1031C000012B39D0052B45D01F4BD3F8902022F08E
:1031D0000102C3F89020D3F8902022F00402C3F833
:1031E0009020A368002B43D0FEF796FC0646164BB2
:1031F000D3F8903013F0020F4CD1FEF78DFC801BFA
:1032000041F288339842F2D9032024E10025D1E726
:103210000F4A136843F480731360FEF77DFC064683
:103220000B4B1B6813F4807FC9D1FEF775FC801B24
:103230000228F5D903200EE1034AD2F8903043F07A
:103240000103C2F89030CCE7001002408801002052
:1032500000700040884BD3F8902042F00402C3F87D
:103260009020D3F8902042F00102C3F89020B8E7F4
:10327000FEF752FC0646804BD3F8903013F0020F55
:1032800008D0FEF749FC801B41F288339842F2D9FE
:103290000320E0E0E5B9236813F0200F35D0A369DF
:1032A000E3B1754AD2F8983043F00103C2F8983080
:1032B000FEF732FC0546704BD3F8983013F0020F3E
:1032C00023D1FEF729FC401B0228F4D90320C2E0D9
:1032D000694A936D23F080539365DCE7664AD2F820
:1032E000983023F00103C2F89830FEF715FC05462C
:1032F000614BD3F8983013F0020F06D0FEF70CFCA8
:10330000401B0228F4D90320A5E0E369002B00F05C
:10331000A180594A926802F00C020C2A64D0022B58
:1033200013D0554A136823F080731360FEF7F4FB43
:103330000446514B1B6813F0007F4ED0FEF7ECFBA8
:10334000001B0228F5D9032085E04B4A136823F0BF
:1033500080731360FEF7E0FB0546474B1B6813F0D4
:10336000007F06D0FEF7D8FB401B0228F5D90320CA
:1033700071E0414AD36841491940236A606A0138C3
:1033800043EA0013A06A43EA0023206B4008013897
:1033900043EA4053606B4008013843EA4063E06A07
:1033A00043EAC0631943D160136843F0807313602C
:1033B000D36843F08073D360FEF7AEFB04462E4B18
:1033C0001B6813F0007F06D1FEF7A6FB001B022846
:1033D000F5D903203FE000203DE0274AD168284B83
:1033E0000B40D360002036E0012B36D0224BDB6847
:1033F00003F00301226A914231D103F0F002616AC5
:103400000139B2EB011F2CD103F4FE42A16AB2EBE9
:10341000012F28D103F07842E16AB2EBC16F24D1C9
:1034200003F4C001226B5208013AB1EB425F1ED196
:1034300003F0C063626B5208013AB3EB426F18D1DC
:10344000002008E001207047012004E0012002E094
:10345000012000E0002002B070BD0120FBE7012048
:10346000F9E70120F7E70120F5E70120F3E7012064
:10347000F1E70120EFE700BF001002400C809F0140
:10348000FCFFEEFE1E4B9B6803F00C03042B33D0B5
:103490001B4B9B6803F00C03082B2FD0184B9B6829
:1034A00003F00C030C2B01D000207047144BDA689A
:1034B00002F00302DB68C3F303130133032A11D0C4
:1034C0001048B0FBF3F00E4BDB68C3F3062303FB9D
:1034D00000F00B4BDB68C3F3416301335B00B0FBCF
:1034E000F3F070470848B0FBF3F0054BDB68C3F31B
:1034F000062303FB00F0ECE70248704702487047E0
:10350000001002400024F40000127A00002800F0AD
:10351000E680F8B50C460546744B1B6803F00F03B4
:103520008B420BD2714A136823F00F030B431360D5
:10353000136803F00F038B4240F0D3802E6816F01F
:1035400001065FD06B68032B2FD0022B4DD0684B48
:103550001B6813F4806F00F0C680FFF793FF654B84
:1035600098424DD9624A936823F0F00343F08003F8
:10357000936080265E4A936823F0030369680B43D7
:103580009360FEF7C9FA0746594B9B6803F00C039A
:103590006A68B3EB820F35D0FEF7BEFAC01B41F26A
:1035A00088339842F0D9032078E0514B1B6813F020
:1035B000007F01D1012071E0FFF7C6FC4D4B98421E
:1035C0001AD94B4B9B6813F0F00F05D02E6816F0FC
:1035D0000206CFD0AB688BB9454A936823F0F0035D
:1035E00043F0800393608026C4E7414B1B6813F4CB
:1035F000003FB2D1012051E00026BBE70026B9E729
:103600000026B7E72B6813F0020F48D013F0040F21
:1036100004D0374A936843F4E06393602B6813F057
:10362000080F06D0324A936823F47C5343F4E063D6
:1036300093602F4A936823F0F003A9680B439360CB
:103640002A4B1B6803F00F03A34230D82B6813F0FA
:10365000040F06D0264A936823F4E063E9680B431D
:1036600093602B6813F0080F07D0214A936823F466
:103670006053296943EAC1039360FFF703FF1C4BC2
:103680009B68C3F303131C4AD35C03F01F03D840A9
:103690001A4B18601A4B1868FEF7FAF9F8BD802E1D
:1036A000CED1134A936823F0F0039360C8E70F4A22
:1036B000136823F00F0323431360FEF72DFA064629
:1036C0000A4B1B6803F00F03A342BFD0FEF724FA96
:1036D000801B41F288339842F2D90320DEE70120B3
:1036E00070470120DAE70120D8E700BF0020024040
:1036F0000010024000B4C4045C7800080000002000
:103700008801002003460020A3F844004BF6807295
:10371000A3F840207047B0F8403023F47E535B0498
:103720005B0CA0F840300020704782B0034602A82E
:1037300000E906000122A3F840200020A3F8400081
:10374000A3F84400A3F8500002B0704710B5034638
:1037500091F800C030F82C2092B222F4EC4222F012
:10376000700292B2C878032861D8DFE800F0555C97
:103770000258002048F2800E42EA0E0223F82C2064
:1037800091F800C033F82C2092B222F4E04222F0EB
:1037900070024CEA020242EA0E0223F82C200A7B55
:1037A000002A40F0DC804A78002A51D0B3F850203B
:1037B00013FA82F20C7802EBC402B1F806C04FEAA9
:1037C0005C0C4FEA4C0CA2F800C40C7833F82420AF
:1037D00012F0400F0CD033F8242092B222F4E042D1
:1037E00022F0700242F4004242F0C00223F824208A
:1037F000CA78012A1DD0097833F8212092B222F428
:10380000E04222F0400282F0200242F4004242F004
:10381000800223F82120C3E142F40072AAE742F4B7
:10382000C0620020A6E742F480620020A2E70120E7
:10383000A0E7097833F8212092B222F4E04222F086
:10384000400242F4004242F0800223F82120A7E126
:10385000B3F8502013FA82F20C7802EBC402B1F8EC
:1038600006C04FEA5C0C4FEA4C0CA2F804C4B3F853
:10387000502013FA82F20C7802EBC402B2F806C4AC
:10388000CCF3090CA2F806C40C6974BBB2F806C4E8
:103890006FEA4C4C6FEA5C4C1FFA8CFCA2F806C431
:1038A0000C7833F8242012F4804F0CD033F8242005
:1038B00092B222F4E04222F0700242F4404242F01E
:1038C000800223F824200978C9BB33F8212092B262
:1038D00022F4804222F0700282F4405242F400420C
:1038E00042F0800223F821205AE13E2C12D84FEA00
:1038F000540C14F0010F01D00CF1010CB2F8064485
:10390000A4B24FEA8C2C1FFA8CFC44EA0C04A2F8F7
:103910000644C5E74FEA541C14F01F0F01D10CF107
:10392000FF3CB2F80644A4B24FEA8C2C1FFA8CFC80
:1039300044EA0C0444F40044A2F80644B0E733F827
:10394000212092B222F4804222F0700282F40052CE
:1039500042F4004242F0800223F8212020E1CA789C
:10396000022A74D091F800C033F82C2092B222F4CD
:10397000E24222F0700242F4004242F0800223F858
:103980002C20B3F8502013FA82F291F800C002EB19
:10399000CC02B1F808C04FEA5C0C4FEA4C0CA2F81C
:1039A00000C4B3F8502013FA82F291F800C002EB81
:1039B000CC02B1F80AC04FEA5C0C4FEA4C0CA2F8FA
:1039C00004C44A78002A40F0F7800C7833F82420A9
:1039D00012F4804F0CD033F8242092B222F4E0424B
:1039E00022F0700242F4404242F0800223F8242088
:1039F0000C7833F8242012F0400F0CD033F8242038
:103A000092B222F4E04222F0700242F4004242F00C
:103A1000C00223F824204A78002A51D1B3F850205C
:103A200013FA82F20C7802EBC402B2F80244C4F337
:103A30000904A2F802440C69C4B9B2F802446FEA5E
:103A400044446FEA5444A4B2A2F802443AE00C7829
:103A500033F8242092B222F4E04222F0700242F4C1
:103A6000014242F0800223F824208AE73E2C12D83B
:103A70004FEA540C14F0010F01D00CF1010CB2F814
:103A80000244A4B24FEA8C2C1FFA8CFC44EA0C04CA
:103A9000A2F8024416E04FEA541C14F01F0F01D1A3
:103AA0000CF1FF3CB2F80244A4B24FEA8C2C1FFA8E
:103AB0008CFC44EA0C0444F40044A2F8024401E003
:103AC000012A1BD04A78002A4DD1B3F8502013FAAE
:103AD00082F20C7802EBC402B2F80644C4F3090483
:103AE000A2F806440C69A4B9B2F806446FEA44444B
:103AF0006FEA5444A4B2A2F8064436E0B3F850206A
:103B000013FA82F20C7802EBC4020C8AA2F8024487
:103B1000D8E73E2C12D84FEA540C14F0010F01D014
:103B20000CF1010CB2F80644A4B24FEA8C2C1FFA37
:103B30008CFC44EA0C04A2F8064416E04FEA541C3C
:103B400014F01F0F01D10CF1FF3CB2F80644A4B2EF
:103B50004FEA8C2C1FFA8CFC44EA0C0444F4004419
:103B6000A2F8064401E0012A1BD091F800C033F806
:103B70002C2092B222F4804222F0700282F4405251
:103B800048F28004224323F82C20097833F82120BE
:103B900092B222F4E04222F04002224323F8212094
:103BA00010BDB3F8502013FA82F20C7802EBC40275
:103BB0000C8AA2F80644D8E70C7833F8242012F4D3
:103BC000804F0CD033F8242092B222F4E04222F04D
:103BD000700242F4404242F0800223F824200C7824
:103BE00033F8242012F0400F0CD033F8242092B286
:103BF00022F4E04222F0700242F4004242F0C0029D
:103C000023F82420CA78012A1ED00C7833F8242007
:103C100092B222F4E04222F0400282F0200242F40A
:103C2000004242F0800223F82420097833F8212052
:103C300092B222F4804222F0700242F4004242F03A
:103C4000800223F82120ABE70C7833F8242092B2CD
:103C500022F4E04222F0400242F4004242F08002AC
:103C600023F82420E1E70B7B002B46D14B7813B3DC
:103C70000A7830F8223013F0400F0CD030F82230A0
:103C80009BB223F4E04323F0700343F4004343F07A
:103C9000C00320F822300A7830F822309BB223F497
:103CA000E04323F0400343F4004343F0800320F853
:103CB0002230002070470A7830F8223013F4804F09
:103CC0000CD030F822309BB223F4E04323F0700391
:103CD00043F4404343F0800320F822300A7830F860
:103CE00022309BB223F4804323F0700343F400435B
:103CF00043F0800320F82230DBE74B78002B4ED1D5
:103D00000A7830F8223013F4804F0CD030F822308B
:103D10009BB223F4E04323F0700343F4404343F0A9
:103D2000800320F822300A7830F8223013F0400F58
:103D30000CD030F822309BB223F4E04323F0700320
:103D400043F4004343F0C00320F822300A7830F8EF
:103D500022309BB223F4E04323F0700343F400438A
:103D600043F0C00320F822300A7830F822309BB2AA
:103D700023F4804323F0700348F2800C43EA0C03E1
:103D800020F822300A7830F822309BB223F4E04346
:103D900023F0400343EA0C0320F8223089E70A7835
:103DA00030F8223013F4804F0CD030F822309BB220
:103DB00023F4E04323F0700343F4404343F08003D3
:103DC00020F822300A7830F8223013F0400F0CD05F
:103DD00030F822309BB223F4E04323F0700343F425
:103DE000004343F0C00320F822300A7830F8223034
:103DF0009BB223F4E04323F0700343F4404343F0C9
:103E0000800320F822300A7830F822309BB223F465
:103E1000E04323F0400348F2800C43EA0C0320F80F
:103E200022300A7830F822309BB223F4804323F00A
:103E3000700343EA0C0320F822303AE74B788BB149
:103E40000A7830F822309BB223F4E04323F0400399
:103E500083F0100343F4004343F0800320F8223042
:103E6000002070470A7830F822309BB223F4804358
:103E700023F0700383F4805343F4004343F0800342
:103E800020F82230ECE74B7833B30A7830F8223050
:103E900013F0400F0CD030F822309BB223F4E043F3
:103EA00023F0700343F4004343F0C00320F82230B2
:103EB000CB78012B33D00A7830F822309BB223F430
:103EC000E04323F0400383F0200343F4004343F036
:103ED000800320F8223022E00A7830F8223013F4F0
:103EE000804F0CD030F822309BB223F4E04323F013
:103EF000700343F4404343F0800320F822300A78F3
:103F000030F822309BB223F4804323F0700383F413
:103F1000405343F4004343F0800320F82230002054
:103F2000704711B98023A0F84C3000207047B0F8DA
:103F300058306FEA43436FEA53439BB2A0F85830BE
:103F400000207047B0F8440080B2704701335B082E
:103F5000024402F5806208E0087891F801C040EA66
:103F60000C2022F8020B0231013B002BF4D17047E8
:103F700070B505460C464B78012B1AD00B7B002BF5
:103F800040F092828B69002B40F06582CB78002B49
:103F900040F061820A7830F822309BB223F4E0438B
:103FA00023F0700343F4014343F0800320F82230F0
:103FB0005FE28E690A69964200D91646217B41B3B9
:103FC000E178022947D0226A921B2262227835F8D2
:103FD000221011F0400F00F0F681002B40F0E38139
:103FE000B5F8503015FA83F303EBC202B2F8063489
:103FF000C3F30903A2F80634002E40F0B481B2F8EE
:1040000006346FEA43436FEA53439BB2A2F8063487
:10401000D2E1B6B23346E28861692846FFF796FFDF
:10402000B5F8503015FA83F3227803EBC203A3F8F6
:104030000264227835F822309BB223F4E04323F067
:10404000400383F0300343F4004343F0800325F83A
:104050002230002024E2236A9A4280F0668122788E
:1040600035F822309BB223F4E04323F0700343F48D
:10407000014343F0800325F82230236A9B1B23620F
:10408000237835F8232012F0400F00F0A7806278E3
:10409000B2BBB5F8502015FA82F202EBC303B3F8B5
:1040A0000624C2F30902A3F806244EB9B3F8062485
:1040B0006FEA42426FEA524292B2A3F8062421E02C
:1040C0003E2E0DD8720816F0010F00D00132B3F861
:1040D000061489B2920292B20A43A3F8062411E0B0
:1040E000710916F01F0F00D10139B3F8062492B2FE
:1040F000890289B20A4342F40042A3F8062401E08F
:10410000012A29D0B3B2628961692846FFF71EFFF0
:10411000636933446361236A2269934226D99B1BF6
:1041200023626378002B45D1B5F8503015FA83F33C
:10413000227803EBC203B3F80224C2F30902A3F806
:104140000224BEB9B3F802246FEA42426FEA524237
:1041500092B2A3F802242FE0B5F8502015FA82F2AB
:1041600002EBC303B2B2A3F80624CBE7002222621B
:104170001E46D6E73E2E0DD8720816F0010F00D06D
:104180000132B3F8021489B2920292B20A43A3F840
:10419000022411E0710916F01F0F00D10139B3F8A4
:1041A000022492B2890289B20A4342F40042A3F87F
:1041B000022401E0012B06D0B3B2228961692846AE
:1041C000FFF7C4FE35E7B5F8503015FA83F32278CF
:1041D00003EBC203B2B2A3F80224EDE76278B2BBEC
:1041E000B5F8502015FA82F202EBC303B3F80224AB
:1041F000C2F30902A3F802244EB9B3F802246FEA0D
:1042000042426FEA524292B2A3F8022421E03E2ECB
:104210000DD8720816F0010F00D00132B3F8021465
:1042200089B2920292B20A43A3F8022411E0710902
:1042300016F01F0F00D10139B3F8022492B289029F
:1042400089B20A4342F40042A3F8022401E0012AA1
:1042500029D0B3B2228961692846FFF777FE6369E6
:1042600033446361236A2269934226D99B1B2362EC
:104270006378002B45D1B5F8503015FA83F32278D6
:1042800003EBC203B3F80624C2F30902A3F8062421
:10429000BEB9B3F806246FEA42426FEA524292B2C4
:1042A000A3F806242FE0B5F8502015FA82F202EBAD
:1042B000C303B2B2A3F80224CBE7002222621E4657
:1042C000D6E73E2E0DD8720816F0010F00D001324D
:1042D000B3F8061489B2920292B20A43A3F80624F4
:1042E00011E0710916F01F0F00D10139B3F806244F
:1042F00092B2890289B20A4342F40042A3F806242A
:1043000001E0012B06D0B3B2628961692846FFF74C
:104310001DFE8EE6B5F8503015FA83F3227803EBD4
:10432000C203B2B2A3F80624EDE7217835F82120C4
:1043300092B222F4E24222F0700242F4004242F0D1
:10434000800225F82120B5F8502015FA82F2217854
:1043500002EBC1029BB2A2F80234228961692846AD
:10436000FFF7F4FD65E63E2E0DD8730816F0010F39
:1043700000D00133B2F8061489B29B029BB20B4302
:10438000A2F8063418E0710916F01F0F00D10139A8
:10439000B2F806349BB2890289B20B4343F400435E
:1043A000A2F8063408E0B5F8503015FA83F303EBB1
:1043B000C203B2B2A3F80624B3B262896169284687
:1043C000FFF7C4FD35E6B3BBB5F8503015FA83F3FB
:1043D00003EBC202B2F80234C3F30903A2F80234B9
:1043E0004EB9B2F802346FEA43436FEA53439BB2CB
:1043F000A2F8023428E03E2E0DD8730816F0010F03
:1044000000D00133B2F8021489B29B029BB20B4375
:10441000A2F8023418E0710916F01F0F00D101391B
:10442000B2F802349BB2890289B20B4343F40043D1
:10443000A2F8023408E0B5F8503015FA83F303EB24
:10444000C203B2B2A3F80224B3B22289616928463A
:10445000FFF77CFDEDE5227835F822309BB223F49E
:10446000E24323F0700343F4004343F0800325F854
:104470002230A3692269934213D99B1AA36122783F
:1044800035F822309BB223F4804323F0700383F489
:10449000405343F4004343F0800325F822300020CA
:1044A00070BD0023A361EAE7CB78022B04D0012B77
:1044B0001ED100238B61E2E7CB69002BDFD00A78A5
:1044C00030F8221044F2400303EA01008B4301D08C
:1044D0000028D4D135F822309BB223F4E04323F0F6
:1044E000700343F4004343F0C00325F82230C6E7CD
:1044F0000120D5E710B45C08024402F5806207E0B1
:1045000032F8020B0870C0F3072048700231013CFA
:10451000002CF5D113F0010F01D013880B705DF85A
:10452000044B704798B108B503460020C3F8B802A1
:10453000C3F8C002C3F8CC0209B1C3F8B412012118
:1045400083F89C121A701846FDF7E6F908BD03209F
:10455000704710B582B00023ADF8063061B1044653
:10456000C0F8B812CB6A4BB10DF106009847C4F8F9
:10457000CC02002002B010BD0320FBE70020F9E7C9
:1045800008B5FDF709FA08BD08B5D0F8B83213B17F
:104590001B68984708BD0320FCE708B5D0F8B8327F
:1045A0000BB15B689847002008BD38B5044600F29F
:1045B000AA25284600F02FF90123C4F89432B4F854
:1045C000B032C4F8983294F8AA1201F01F03012BFC
:1045D0000DD0022B10D02BB101F080012046FDF749
:1045E000F6F903E02946204600F0E5FA38BD2946F1
:1045F000204600F018FBF9E72946204600F047FB6B
:10460000F4E738B504460D4641BB1346D0F8942272
:10461000032A01D0084638BDD0F85C11D0F86021DB
:10462000914209D890F89C32DBB2032B0FD0204680
:1046300000F06CFC2846EEE7891AC0F85C118A424B
:1046400028BF0A46194600F059FC2846E3E7D0F88F
:10465000B8321B69002BEAD09847E8E790F89C3203
:10466000DBB2032B01D00020D5E7D0F8B8329B692C
:104670000BB19847CFE70020CDE738B504460D468B
:1046800000294AD11346D0F89422022A05D094F882
:10469000A032012B3CD0284638BDC269016A8A424B
:1046A0000ED88A4218D094F89C32DBB2032B27D064
:1046B00080212046FDF78BF9204600F032FCE6E72A
:1046C000521AC261194600F002FC00231A4619462C
:1046D0002046FDF7B9F9DAE783699942E3D8D0F8C3
:1046E00098229342DFD20022114600F0F0FB002115
:1046F000C4F898120B460A462046FDF7A5F9C6E70E
:10470000D4F8B832DB68002BD2D020469847CFE7E8
:10471000002384F8A0322846BEE790F89C32DBB232
:10472000032B01D00020B7E7D0F8B8325B690BB19A
:104730009847B1E70020AFE7012380F89C320023BF
:10474000C0F894324360C0F8A432D0F8B832F3B164
:1047500070B50446D0F8BC221AB15B680BB10021D9
:1047600098474023002211462046FDF71DF90126F7
:10477000A4F864614025C4F860512B4600228021D2
:104780002046FDF711F9A6842562002070BD0320A4
:10479000704701740020704790F89C32DBB280F8BB
:1047A0009D32042380F89C320020704790F89C32A0
:1047B000DBB2042B01D00020704790F89D32DBB2B1
:1047C00080F89C32F7E7D0F8B82262B108B590F8CB
:1047D0009C32DBB2032B01D0002008BDD36923B18A
:1047E00098470020F9E7032070470020F5E70346CB
:1047F000002002E00130C0B201331A78002AF9D15A
:10480000704708B54B88012B00D008BDC0F8A43212
:1048100000F07CFBF9E70B7803704B7843708B78E2
:10482000CA7843EA022343800B794A7943EA022398
:1048300083808B79CA7943EA0223C380704710B51D
:1048400004468021FDF7C3F800212046FDF7BFF89C
:1048500010BD30B583B004460D460023ADF80630D8
:104860004A88130A013B0E2B00F2BC80DFE803F0FC
:10487000153044BABA9EABBABABABABABABA0800D4
:10488000D0F8B432DB6923B10DF10601007C984702
:104890000AE02946FFF7D3FF18E0D0F8B4321B68CE
:1048A0000DF10601007C9847EA88002A00F0A380F9
:1048B000BDF80630002B00F099809A4228BF1A46B6
:1048C000ADF806200146204600F0F4FA03B030BDF2
:1048D000037C43B9D0F8B8329B6A0DF106009847C3
:1048E00002234370E0E7D0F8B832DB6A0DF106002E
:1048F000984702234370D7E7D2B2052A52D8DFE89F
:1049000002F003101D2A3744D0F8B4325B6823B19B
:104910000DF10601007C9847C6E72946FFF78FFF97
:10492000D4E7D0F8B4329B6823B10DF10601007CC6
:104930009847B9E72946FFF782FFC7E7D0F8B432B6
:10494000DB6823B10DF10601007C9847ACE72946EE
:10495000FFF775FFBAE7D0F8B4321B6923B10DF148
:104960000601007C98479FE72946FFF768FFADE7FF
:10497000D0F8B4325B6923B10DF10601007C984791
:1049800092E72946FFF75BFFA0E7D0F8B4329B69B6
:1049900023B10DF10601007C984785E72946FFF712
:1049A0004EFF93E72946FFF74AFF8FE7037C33B9B1
:1049B000D0F8B8325B6B0DF10600984774E72946D2
:1049C000FFF73DFF82E7037C43B9D0F8B8321B6B99
:1049D0000DF1060098470723437065E72946FFF766
:1049E0002EFF73E72946FFF72AFF6FE72946204687
:1049F000FFF725FF6AE7204600F088FA66E738B53A
:104A000004468B88FBB9CB88EBB94B887F2B1AD82F
:104A100003F07F0590F89C32DBB2032B0CD080F8BA
:104A20009E522946FCF7FAFF204600F06FFA35B196
:104A3000022384F89C3209E0FFF701FF06E001231E
:104A400084F89C3202E02046FFF7F9FE38BD0000F2
:104A500070B504460E468D782E4B1D70012D10D872
:104A600090F89C32DBB2022B0FD0032B23D0FFF740
:104A7000E6FE284B19782046FFF78FFD03252846D0
:104A800070BDFFF7DCFE0325F9E78DB145602946CF
:104A9000FFF77AFD054620B131462046FFF7CFFEED
:104AA000EDE7204600F032FA032384F89C32E6E773
:104AB00000F02CFAE3E7CDB141688D4225D0C9B2B0
:104AC000FFF76BFD134B197861602046FFF75CFD23
:104AD0000546B0B131462046FFF7B1FE21792046A8
:104AE000FFF75BFD022384F89C32C8E7022380F8BD
:104AF0009C3245602946FFF750FD204600F006FA3B
:104B0000BDE7204600F002FAB9E700F0FFF9002502
:104B1000B5E700BF7415002008B5CB88012B0BD179
:104B200090F89C32DBB2022B09D9032B09D1012268
:104B3000011D00F0BFF901E0FFF781FE08BD5BB287
:104B400013B9FFF77CFEF9E70146002341F8083F5F
:104B5000012200F0AFF9F1E708B590F89C32013B73
:104B6000022B12D8CB88022B0CD10123C360D0F8C2
:104B7000A4320BB10323C360022200F10C0100F048
:104B800099F908BDFFF75BFEFBE7FFF758FEF8E772
:104B900008B590F89C32013B022B09D84B88012BB9
:104BA00000D008BD0023C0F8A43200F0AFF9F8E748
:104BB000FFF745FEF5E738B50C7804F06004202CCB
:104BC00006D0402C04D054B1FFF739FE002404E095
:104BD000D0F8B8329B6898470446204638BD4D78D7
:104BE000092D1DD8DFE805F012191C161C08051C3C
:104BF0000F0BFFF72EFEF0E7FFF701FFEDE7FFF7E2
:104C000027FF0446E9E7FFF787FFE6E7FFF7A4FF82
:104C10002C46E2E7FFF7F5FDDFE7FFF7B9FFDCE73A
:104C2000FFF70DFED9E770B505460C460B7803F08B
:104C30006003202B07D0402B05D023B1FFF7FFFDE9
:104C40000026304670BD95F89C32013B022B18D8E7
:104C50002379012B0FD8D5F8B8329B682146284616
:104C600098470646E388002BEBD10028E9D1284677
:104C700000F04CF9E5E721462846FFF7E0FD002665
:104C8000DFE721462846FFF7DAFD0026D9E7F8B529
:104C900006460D468B880C7804F06004202C08D062
:104CA000D9B2402C05D06CB12946FFF7C8FD0024CD
:104CB00006E0D6F8B8329B68294630469847044645
:104CC0002046F8BD6F78012F2FD0032F05D0002F7D
:104CD00059D02946FFF7B3FDF2E790F89C32DBB2DA
:104CE000022B05D0032B12D02946FFF7A8FDE7E7DA
:104CF00009B1802904D129463046FFF7A0FDDFE73E
:104D0000FCF765FE80213046FCF761FED8E76B8832
:104D100023B919B1802901D0EB881BB1304600F0CE
:104D2000F5F8CDE7FCF753FEF8E790F89C32DBB2DC
:104D3000022B05D0032B12D02946FFF780FDBFE7D9
:104D400009B1802904D129463046FFF778FDB7E73D
:104D5000FCF73DFE80213046FCF739FEB0E76B885A
:104D6000002BADD111F07F0F0AD1304600F0CEF804
:104D7000D6F8B8329B6829463046984704469FE7E4
:104D8000FCF72DFEF1E790F89C22D2B2022A06D061
:104D9000032A29D02946FFF752FD3C4690E709B186
:104DA000802913D113F0800F15D101F07F0101EBA1
:104DB0008101890001F5A8713144043100230B60A1
:104DC0000222304600F076F83C4679E72946FFF7A4
:104DD00036FD3C4674E701F07F0101EB810189005B
:104DE000103131440431E9E75BB2002B1FDB01F0E5
:104DF0000F0202EB820200EB8202B2F8642122B3BE
:104E0000002B27DB01F07F0303EB83039C0004F5F9
:104E1000A8743444043409B1802924D100232360C8
:104E200002222146304600F045F83C4648E701F0B2
:104E30000F0202EB820200EB8202928C002ADFD189
:104E40002946FFF7FCFC3C463AE72946FFF7F7FC0A
:104E50003C4635E701F07F0303EB83039C001034ED
:104E600034440434D7E73046FCF7C1FD10B10123C8
:104E70002360D5E700232360D2E7D0B170B50D469B
:104E800016460446FFF7B3FC431C5B009BB233801D
:104E90002B7003236B70022307E0EA5401345A1C81
:104EA000D2B20021A9540233DBB22278002AF4D115
:104EB00070BD704708B513460222C0F89422836182
:104EC000C3610A460021FCF7B7FD002008BD08B504
:104ED00013460A460021FCF7AFFD002008BD08B5C7
:104EE00013460322C0F89422C0F85831C0F85C3150
:104EF0000A460021FCF7A8FD002008BD08B51346AE
:104F00000A460021FCF7A0FD002008BD08B50422D8
:104F1000C0F8942200231A461946FCF78DFD0020A4
:104F200008BD08B50522C0F8942200231A46194688
:104F3000FCF78AFD002008BD2DE9FF4757EC106BF8
:104F4000002F0C4619463B46BBBF07F100431F46E6
:104F500000232D230B700D9BDDF830A0914623F02C
:104F60002008BCBF32461646B8F1460F05D0B8F14E
:104F7000450F00D10134022100E0032103AB01936E
:104F800002AB009347EC106B5346224600F03CFE08
:104F9000B8F1470F054619D119F0010F0ED000EBFB
:104FA00004090022002330463946FBF7B5FD08B15D
:104FB000CDF80C903022039B4B451ED3039B0E9AD9
:104FC0005B1B2846136004B0BDE8F087B8F1460FBC
:104FD00000EB0409E5D10378302B0AD1002200232D
:104FE00030463946FBF798FD18B9C4F10104CAF8F8
:104FF0000040DAF800309944D3E7591C03911A7045
:10500000D9E7F7B50029BABF49422D232B23092937
:105010000270437029DD0DF107031D460A271A4669
:10502000B1FBF7F607FB1614303402F8014C0C46BE
:10503000632C03F1FF333146F1DC3031941E03F869
:10504000011C411C2346AB420AD30DF109039B1AF4
:10505000AC4288BF002302330344181A03B0F0BDEA
:1050600013F8016B01F8016FEDE7302330318370E5
:10507000C170031DF1E700002DE9F04F8DB00C4623
:10508000DDF8588016461F46054600F0BBFC036855
:1050900004931846FBF714F900230A93D8F800305C
:1050A0000590073323F0070303F1080294F818A0D2
:1050B000D4F800B0C8F80020D3E9008929F00043F3
:1050C0000793CDF81880C4E91289DDE906019C4BED
:1050D0004FF0FF32FBF752FD70BBDDE90601984B44
:1050E0004FF0FF32FBF72CFD30BB0022002340467F
:1050F0004946FBF71BFD10B12D2384F84330914A3C
:10510000914BBAF1470F94BF904698460323236111
:105110002BF0040323604FF00009009733460BAADD
:105120002146284600F0D2F9013040F08D804FF042
:10513000FF300DB0BDE8F08F42464B464046494631
:10514000FBF71CFD40B14B46002BBCBF2D2384F860
:1051500043307E4A7E4BD4E763680AF0DF02069252
:105160005A1C3BD1062363604BF48062002322600B
:1051700003930AABCDE901A309AB0093616849EC45
:10518000108B0DF123032846FFF7D6FE069B0999E5
:10519000472B804629D1C81C02DB6368994241DD58
:1051A000AAF1020A5FFA8AFA0139524604F1500064
:1051B0000991FFF726FF0A9A1318012A81462361F5
:1051C00002DC2268D20701D5013323619DF8233028
:1051D000002BA2D02D2384F843309EE7069A472A5D
:1051E000C2D1002BC0D10123BDE7BAF1650FDBD9D5
:1051F000BAF1660F18D1002963680BDD216113B97C
:105200002268D00702D501330B442361A1654FF01A
:105210000009DBE713B92268D20701D50233F4E7AE
:105220000123F2E74FF0670A0A9B994205DB2368E6
:105230002161D807EAD54B1CE7E70029D4BFC1F1AB
:10524000020201221344E0E723685A0507D42369C8
:10525000424631462846B84701302BD167E7BAF1BC
:10526000650F40F2DD80D4E9120100220023FBF734
:1052700053FC002833D0374A012331462846B8472B
:1052800001303FF454AFDDE90938434502DB2368C0
:10529000D8070FD5DDE9042331462846B847013049
:1052A0003FF445AF4FF0000908F1FF3804F11A0A46
:1052B000C84509DC23689B0700F10381E0680B9B6C
:1052C0009842B8BF184634E7012352463146284673
:1052D000B84701303FF42BAF09F10109E8E7099B1A
:1052E000002B39DC1B4A012331462846B8470130E0
:1052F0003FF41DAFDDE9093959EA030302D1236800
:10530000D907D7D5DDE9042331462846B84701300F
:105310003FF40DAF4FF0000A04F11A0B099B5B42FA
:10532000534501DC4B4693E701235A463146284654
:10533000B84701303FF4FBAE0AF1010AEEE700BFC7
:10534000FFFFEF7FDA780008DE780008E2780008D7
:10535000E6780008EA780008A36DDDF828A0534538
:10536000A8BF5346002B994636DC4FF0000B29EAC4
:10537000E97904F11A02A36D0693A3EB09035B45D7
:1053800031DC099B9A453ADC2368DA0737D4099B5C
:10539000AAEB0309069BAAEB03039945A8BF99460C
:1053A000B9F1000F33DC4FF0000829EAE97904F184
:1053B0001A0B099BAAEB0303A3EB090343457FF7F1
:1053C00079AF01235A4631462846B84701303FF4A9
:1053D000AEAE08F10108ECE7424631462846B84730
:1053E0000130C2D1A3E60123314628460692B847D0
:1053F00001303FF49CAE069A0BF1010BBBE7DDE9EF
:10540000042331462846B8470130C0D18FE6069ABA
:105410004B46424431462846B8470130C3D186E660
:10542000DDF828A0BAF1010F01DCDB0736D5012336
:10543000424631462846B84701303FF478AEDDE9B0
:10544000042331462846B84701303FF470AED4E912
:105450001201002200230AF1FF3AFBF75DFBC0B9FD
:10546000534608F1010231462846B84701300CD1B5
:105470005DE601235A4631462846B84701303FF4DD
:1054800056AE08F10108D045F3DB4B4604F150025B
:10549000DFE64FF0000804F11A0BF4E7012342465F
:1054A000E1E701234A4631462846B84701303FF438
:1054B0003EAE08F10108E3680B995B1A4345F0DC46
:1054C000FCE64FF0000804F11909F4E72DE9F04774
:1054D000164698468A680B69DDF820909342B8BF5B
:1054E0001346336091F8432007460C460AB1013356
:1054F00033602368990642BF3368023333602568FE
:1055000015F0060506D104F1190AE36832689B1A02
:10551000AB4226DC94F843302268003B18BF0123DD
:1055200092062BD404F1430241463846C847013065
:105530001ED02368226903F00603042B02BFE5682E
:105540003368ED1AA3680CBF25EAE5750025934280
:10555000C4BF9B1AED1800261A34B5421AD1002098
:1055600008E00123524641463846C847013003D17E
:105570004FF0FF30BDE8F0870135C6E7E1185A1C4F
:10558000302081F84300224494F8451082F84310FB
:105590000233C7E70123224641463846C847013057
:1055A000E6D00136D9E700002DE9FF470F7E0C9EBB
:1055B000782F914680460C469A4601F1430207D85F
:1055C000622F0AD8002F00F0D280582F00F0B98047
:1055D00004F1420684F842703AE0A7F16303152B08
:1055E000F6D801A151F823F041560008555600089D
:1055F000D1550008D1550008D1550008D1550008F3
:1056000055560008D1550008D1550008D15500085D
:10561000D1550008555700087F5600080F5700085D
:10562000D1550008D155000877570008D15500081A
:105630007F560008D1550008D155000817570008BB
:1056400033681A1D1B68326004F1420684F8423048
:1056500001239DE033682068191D3160060601D5DD
:105660001D6803E04506FBD5B3F90050002D03DAB1
:105670002D236D4284F8433059480A2311E02168F4
:105680003368080653F8045B02D4490648BFADB23C
:105690006F2F5348336014BF0A230823002184F876
:1056A00043106668A660002EA2BF216821F00401A5
:1056B00021600DB9002E4BD01646B5FBF3F103FB6C
:1056C0001157C75D06F8017D2F46BB420D46F4D940
:1056D000082B0BD12368DF0708D52369616899423D
:1056E000DEBF302306F8013C06F1FF36921B226133
:1056F000CDF800A04B4603AA21464046FFF7E6FE40
:1057000001304AD14FF0FF3004B0BDE8F087236884
:1057100043F0200323603348782784F845702368DA
:1057200031681F0651F8045B02D45F0648BFADB272
:105730003160D90744BF43F0200323601DB110231B
:10574000ACE72748E9E7236823F020032360F6E766
:105750001646BDE7336825686169181D30602E065E
:105760001B6801D5196002E06806FBD5198000238B
:1057700023611646BCE733681A1D32601E686268F2
:1057800000213046FAF74CFD08B1801B6060636869
:105790002361002384F84330AAE72369324649464F
:1057A0004046D0470130ADD023689B0713D4E06852
:1057B000039B9842B8BF1846A6E7012332464946E4
:1057C0004046D04701309DD00135E36803995B1A0C
:1057D000AB42F2DCEBE7002504F11906F5E700BF68
:1057E000EC780008FD780008002310B50446C0E9F5
:1057F0000033C0E90433836081814366C2818361E1
:10580000194608225C3000F0F4F80D4B63620D4B32
:10581000A3620D4BE3620D4B23630D4B24629C424C
:1058200006D003F16802944202D0D0339C4205D1E5
:1058300004F15800BDE8104000F058B910BD00BF99
:105840006D5900088F590008C7590008EB59000826
:1058500078150020024A0349034800F069B800BFE8
:105860008C0100209D7100089C01002041680C4BB8
:10587000994210B5044601D001F090FCA168094B93
:10588000994202D0204601F089FCE168064B99421A
:1058900004D02046BDE8104001F080BC10BD00BF20
:1058A00078150020E01500204816002010B50B4B9D
:1058B0000B4C0C4A1A60204600220421FFF794FF8B
:1058C00004F1680001220921FFF78EFF04F1D000E6
:1058D0000222BDE810401221FFF786BFB01600205B
:1058E0007815002055580008014800F000B900BFA5
:1058F000B9160020014800F0FBB800BFB91600201F
:1059000010B50446FFF7F0FF236A1BB1BDE8104055
:10591000FFF7F0BF044B2362044B1B68002BF5D14B
:10592000FFF7C4FFF2E700BF6D580008B016002073
:105930002DE9F8430746884614460026D4E9019528
:10594000B9F1010905D52468002CF7D13046BDE82E
:10595000F883AB89012B07D9B5F90E30013303D099
:1059600029463846C04706436835E9E710B50C4676
:10597000B1F90E1000F06CF80028ABBF636DA3897D
:105980001B1823F48053ACBF6365A38110BD2DE9C0
:10599000F0411F468B89DB0505460C46164605D5AA
:1059A000B1F90E100223002200F040F8A389B4F9E7
:1059B0000E1023F48053A38132463B462846BDE8AF
:1059C000F04100F057B810B50C46B1F90E1000F0D8
:1059D0002DF8431CA38915BF606523F4805343F45D
:1059E0008053A38118BFA38110BDB1F90E1000F040
:1059F0000DB802440346934200D1704703F8011BDF
:105A0000F9E7000000487047D802002038B5064D7D
:105A10000023044608462B60FBF7E4F9431C02D13F
:105A20002B6803B1236038BDB416002038B5074D8C
:105A300004460846114600222A601A46FBF7DCF9A4
:105A4000431C02D12B6803B1236038BDB41600207B
:105A500038B5074D04460846114600222A601A460A
:105A6000FBF7A2F9431C02D12B6803B1236038BDB8
:105A7000B416002038B5074D0446084611460022EA
:105A80002A601A46FBF7A0F9431C02D12B6803B128
:105A9000236038BDB4160020014B1868704700BF62
:105AA0009801002070B50D4D0D4C641BA41000260C
:105AB000A64209D10B4D0C4C01F0BEFE641BA41094
:105AC0000026A64205D170BD55F8043B9847013623
:105AD000EEE755F8043B98470136F2E7507C0008A2
