:020000040800F2
:100000000080002079110008E10F0008E30F0008CC
:10001000E50F0008E70F0008E90F000800000000E6
:10002000000000000000000000000000EB0F0008CE
:10003000ED0F000800000000EF0F0008F10F0008AE
:10004000C9110008C9110008C9110008C911000828
:10005000C9110008C9110008C9110008C911000818
:10006000C9110008C9110008C9110008C911000808
:10007000C9110008C9110008C9110008C9110008F8
:10008000C911000800000000C9110008C9110008CA
:10009000992D000881250008C9110008C911000820
:1000A000C9110008C9110008C9110008C9110008C8
:1000B000C9110008C9110008C9110008C9110008B8
:1000C000C9110008C9110008C9110008C9110008A8
:1000D000C9110008C9110008C9110008C911000898
:1000E000C9110008C9110008C9110008C911000888
:1000F000C9110008C9110008C9110008000000005A
:1001000000000000C911000800000000C91100082B
:10011000C911000800000000C9110008C911000839
:10012000C9110008C9110008C9110008C911000847
:10013000C91100080000000000000000C9110008FB
:10014000C9110008C91100080000000000000000EB
:10015000000000000000000000000000000000009F
:10016000000000000000000000000000C9110008AD
:10017000C91100080000000000000000000000009D
:1001800000000000C911000800000000000000008D
:10019000000000000000000000000000000000005F
:1001A0000000000000000000C9110008C91100088B
:1001B000C9110008C9110008C91100080000000099
:1001C00000000000C911000800000000000000004D
:0801D000C9110008C911000863
:1001E00010B5054C237833B9044B13B10448AFF371
:1001F00000800123237010BD640300200000000074
:1002000004BF000808B5034B1BB103490348AFF313
:10021000008008BD000000006803002004BF000843
:1002200010F8012B11F8013B012A28BF9A42F7D0A0
:10023000D01A70470000000000000000000000001D
:1002400001F0FF01102A2BDB10F0070F08D010F887
:10025000013B013A8B422DD010F0070F42B3F6D18B
:10026000F0B441EA012141EA014122F007047FF0A4
:1002700000070023F0E80256083C85EA010586EAFB
:10028000010685FA47F5A3FA87F586FA47F6A5FA37
:1002900087F68EB9EED1F0BC01F0FF0102F0070243
:1002A00032B110F8013B013A83EA010313B1F8D1EE
:1002B0000020704701387047002D06BF35460338CF
:1002C000073815F0010F07D1013015F4807F02BF08
:1002D000013015F4C03F0130F0BC0138704700BF59
:1002E000034613F8012B002AFBD1181A0138704776
:1002F00081F0004102E000BF83F0004330B54FEAD7
:1003000041044FEA430594EA050F08BF90EA020F43
:100310001FBF54EA000C55EA020C7FEA645C7FEAD6
:10032000655C00F0E2804FEA5454D4EB5555B8BFF9
:100330006D420CDD2C4480EA020281EA030382EA6A
:10034000000083EA010180EA020281EA0303362DFC
:1003500088BF30BD11F0004F4FEA01314FF4801CCF
:100360004CEA113102D0404261EB410113F0004FE1
:100370004FEA03334CEA133302D0524263EB430398
:1003800094EA050F00F0A780A4F10104D5F1200E36
:100390000DDB02FA0EFC22FA05F2801841F1000191
:1003A00003FA0EF2801843FA05F359410EE0A5F165
:1003B00020050EF1200E012A03FA0EFC28BF4CF096
:1003C000020C43FA05F3C01851EBE37101F000454C
:1003D00007D54FF0000EDCF1000C7EEB00006EEB59
:1003E0000101B1F5801F1BD3B1F5001F0CD34908E3
:1003F0005FEA30004FEA3C0C04F101044FEA44523A
:1004000012F5800F80F09A80BCF1004F08BF5FEAC0
:10041000500C50F1000041EB045141EA050130BDA0
:100420005FEA4C0C404141EB0101013C28BFB1F5B2
:10043000801FE9D291F0000F04BF01460020B1FAFD
:1004400081F308BF2033A3F10B03B3F120020CDAD0
:100450000C3208DD02F1140CC2F10C0201FA0CF0AE
:1004600021FA02F10CE002F11402D8BFC2F1200C13
:1004700001FA02F120FA0CFCDCBF41EA0C019040C9
:10048000E41AA2BF01EB0451294330BD6FEA040412
:100490001F3C1CDA0C340EDC04F11404C4F12002FD
:1004A00020FA04F001FA02F340EA030021FA04F30F
:1004B00045EA030130BDC4F10C04C4F1200220FA66
:1004C00002F001FA04F340EA0300294630BD21FAA4
:1004D00004F0294630BD94F0000F83F4801306BF6A
:1004E00081F480110134013D4EE77FEA645C18BF5E
:1004F0007FEA655C29D094EA050F08BF90EA020FF5
:1005000005D054EA000C04BF1946104630BD91EAEC
:10051000030F1EBF0021002030BD5FEA545C05D1EF
:100520004000494128BF41F0004130BD14F580042E
:100530003CBF01F5801130BD01F0004545F0FE41A2
:1005400041F470014FF0000030BD7FEA645C1ABFD7
:10055000194610467FEA655C1CBF0B46024650EA0E
:10056000013406BF52EA033591EA030F41F400213A
:1005700030BD00BF90F0000F04BF0021704730B5C0
:100580004FF4806404F132044FF000054FF0000195
:1005900050E700BF90F0000F04BF0021704730B556
:1005A0004FF4806404F1320410F0004548BF40422B
:1005B0004FF000013EE700BF42004FEAE2014FEA80
:1005C00031014FEA02701FBF12F07F4393F07F4F5B
:1005D00081F06051704732F07F4208BF704793F05E
:1005E0007F4F04BF41F40021704730B54FF4607471
:1005F00001F0004521F000411CE700BF50EA010274
:1006000008BF704730B54FF000050AE050EA01021C
:1006100008BF704730B511F0004502D5404261EB8C
:1006200041014FF4806404F132045FEA915C3FF4CD
:10063000D8AE4FF003025FEADC0C18BF03325FEA6A
:10064000DC0C18BF033202EBDC02C2F1200300FA1B
:1006500003FC20FA02F001FA03FE40EA0E0021FA40
:1006600002F11444BDE600BF70B54FF0FF0C4CF42E
:10067000E06C1CEA11541DBF1CEA135594EA0C0FE0
:1006800095EA0C0F00F0DEF82C4481EA030621EA1B
:100690004C5123EA4C5350EA013518BF52EA033556
:1006A00041F4801143F4801338D0A0FB02CE4FF008
:1006B0000005E1FB02E506F00042E0FB03E54FF038
:1006C0000006E1FB03569CF0000F18BF4EF0010E30
:1006D000A4F1FF04B6F5007F64F5407404D25FEA2C
:1006E0004E0E6D4146EB060642EAC62141EA5551DF
:1006F0004FEAC52040EA5E504FEACE2EB4F1FD0C21
:1007000088BFBCF5E06F1ED8BEF1004F08BF5FEA9E
:10071000500E50F1000041EB045170BD06F0004650
:1007200046EA010140EA020081EA0301B4EB5C04FD
:10073000C2BFD4EB0C0541EA045170BD41F48011F5
:100740004FF0000E013C00F3AB8014F1360FDEBF1A
:10075000002001F0004170BDC4F10004203C35DAF6
:100760000C341BDC04F11404C4F1200500FA05F379
:1007700020FA04F001FA05F240EA020001F000421A
:1007800021F0004110EBD37021FA04F642EB060190
:100790005EEA430E08BF20EAD37070BDC4F10C04BA
:1007A000C4F1200500FA04F320FA05F001FA04F27E
:1007B00040EA020001F0004110EBD37041F100016A
:1007C0005EEA430E08BF20EAD37070BDC4F1200575
:1007D00000FA05F24EEA020E20FA04F301FA05F2DD
:1007E00043EA020321FA04F001F0004121FA04F285
:1007F00020EA020000EBD3705EEA430E08BF20EA55
:10080000D37070BD94F0000F0FD101F0004640008E
:1008100041EB010111F4801F08BF013CF7D041EA10
:10082000060195F0000F18BF704703F00046520014
:1008300043EB030313F4801F08BF013DF7D043EAE5
:100840000603704794EA0C0F0CEA135518BF95EA9B
:100850000C0F0CD050EA410618BF52EA4306D1D122
:1008600081EA030101F000414FF0000070BD50EA41
:10087000410606BF1046194652EA430619D094EACB
:100880000C0F02D150EA013613D195EA0C0F05D1B5
:1008900052EA03361CBF104619460AD181EA030109
:1008A00001F0004141F0FE4141F470014FF00000C1
:1008B00070BD41F0FE4141F4780170BD70B54FF05C
:1008C000FF0C4CF4E06C1CEA11541DBF1CEA1355DC
:1008D00094EA0C0F95EA0C0F00F0A7F8A4EB0504BE
:1008E00081EA030E52EA03354FEA013100F08880B5
:1008F0004FEA03334FF0805545EA131343EA12637E
:100900004FEA022245EA111545EA10654FEA002632
:100910000EF000419D4208BF964244F1FD0404F5EB
:10092000407402D25B084FEA3202B61A65EB030547
:100930005B084FEA32024FF480104FF4002CB6EB04
:10094000020E75EB030E22BFB61A754640EA0C0084
:100950005B084FEA3202B6EB020E75EB030E22BFC4
:10096000B61A754640EA5C005B084FEA3202B6EB05
:10097000020E75EB030E22BFB61A754640EA9C00C4
:100980005B084FEA3202B6EB020E75EB030E22BF94
:10099000B61A754640EADC0055EA060E18D04FEA52
:1009A000051545EA16754FEA06164FEAC30343EAF2
:1009B00052734FEAC2025FEA1C1CC0D111F4801FBF
:1009C0000BD141EA00014FF000004FF0004CB6E7B8
:1009D00011F4801F04BF01430020B4F1FD0C88BF57
:1009E000BCF5E06F3FF6AFAEB5EB030C04BFB6EB62
:1009F000020C5FEA500C50F1000041EB045170BD55
:100A00000EF0004E4EEA113114EB5C04C2BFD4EB81
:100A10000C0541EA045170BD41F480114FF0000E05
:100A2000013C90E645EA060E8DE60CEA135594EA81
:100A30000C0F08BF95EA0C0F3FF43BAF94EA0C0F84
:100A40000AD150EA01347FF434AF95EA0C0F7FF4F9
:100A500025AF104619462CE795EA0C0F06D152EA4D
:100A600003353FF4FDAE1046194622E750EA410631
:100A700018BF52EA43067FF4C5AE50EA41047FF442
:100A80000DAF52EA43057FF4EBAE12E74FF0FF3CA7
:100A900006E000BF4FF0010C02E000BF4FF0010C78
:100AA0004DF804CD4FEA410C7FEA6C5C4FEA430CF1
:100AB00018BF7FEA6C5C1BD001B050EA410C0CBF40
:100AC00052EA430C91EA030F02BF90EA020F0020A2
:100AD000704710F1000F91EA030F58BF994208BF09
:100AE00090422CBFD8176FEAE37040F001007047C6
:100AF0004FEA410C7FEA6C5C02D150EA013C07D11D
:100B00004FEA430C7FEA6C5CD6D152EA033CD3D067
:100B10005DF8040B704700BF8446104662468C4661
:100B20001946634600E000BF01B5FFF7B7FF002894
:100B300048BF10F1000F01BD4DF808EDFFF7F4FFBD
:100B40000CBF012000205DF808FB00BF4DF808ED48
:100B5000FFF7EAFF34BF012000205DF808FB00BF6B
:100B60004DF808EDFFF7E0FF94BF012000205DF88D
:100B700008FB00BF4DF808EDFFF7CEFF94BF012042
:100B800000205DF808FB00BF4DF808EDFFF7C4FF3B
:100B900034BF012000205DF808FB00BF4FEA410C84
:100BA0007FEA6C5C02D150EA013C0AD14FEA430C67
:100BB0007FEA6C5C02D152EA033C02D14FF00000A4
:100BC00070474FF0010070474FEA410212F50012E2
:100BD00015D211D56FF47873B3EB625212D94FEA84
:100BE000C12343F0004343EA505311F0004F23FA6E
:100BF00002F018BF404270474FF00000704750EAC3
:100C0000013005D111F0004008BF6FF0004070477F
:100C10004FF00000704700BF4A0011D212F50012D9
:100C200011D20DD56FF47873B3EB62520ED44FEA44
:100C3000C12343F0004343EA505323FA02F07047C4
:100C40004FF00000704750EA013002D14FF0FF3002
:100C500070474FF0000070474FEA4102B2F1E043A5
:100C600024BFB3F5001CDCF1FE5C0DD901F0004C93
:100C70004FEAC0024CEA5070B2F1004F40EB8300E3
:100C800008BF20F00100704711F0804F21D113F10F
:100C90003872BCBF01F00040704741F480114FEA48
:100CA0005252C2F11802C2F1200C10FA0CF320FAD1
:100CB00002F018BF40F001004FEAC1234FEAD323EE
:100CC00003FA0CFC40EA0C0023FA02F34FEA430358
:100CD000CCE77FEA625307D150EA01331EBF4FF0E1
:100CE000FE4040F44000704701F0004040F0FE40FC
:100CF00040F40000704700BF38B5002200230446CE
:100D00000D46FFF723FF28B920462946BDE83840A5
:100D100000F00AB8204605F1004100F005F8404215
:100D200061EB410138BD00BFD0B50C4B0022064637
:100D30000F46FFF799FCFFF76FFF0446FFF71AFC19
:100D4000074B0022FFF790FC02460B46304639461F
:100D5000FFF7D2FAFFF760FF2146D0BD0000F03D5B
:100D60000000F04138B5194B1B78012B12D0022B33
:100D700012D14FF4FA7500F0ABF80446144B1B681F
:100D8000C31AAB420BD2124B5B68E31AB3F5FA7F7E
:100D90000FD238BD6425EEE74FF47A75EBE70C4BC4
:100DA00018600C4A136801331360002001F0A0FCA6
:100DB000E9E7074B5C6001F0F5FE18B1012001F096
:100DC00097FCE6E7012001F057FCE2E791030020E1
:100DD000800300208803002010B50446002001F0A5
:100DE000CEFEB0F5AF6F07D00123237001F0DAFE1D
:100DF00008B90023237010BD02232370F6E700001A
:100E000010B5FFF7AFFF124C2046FFF7E5FF114B7F
:100E10001A7823789A4204D10F4B1C7864B90124C4
:100E200008E00C4A1370002001F026FC012001F0BC
:100E300023FC0024204610BD4FF47A7000F044F8E3
:100E4000064801F061FD044B00221A70F2E700BF72
:100E500090030020910300200000002020BF000824
:100E600000B583B04FF46141002000F051FB052331
:100E70000093032300221146104600F065FF00F0A6
:100E80005BF900F02AF9034B034A1A6003B05DF8DE
:100E900004FB00BF8C030020010E000808B502E02F
:100EA000074800F04BF9074B1B78012BF8D0022BB9
:100EB00002D0FFF7A5FFF6E7014800F011F9F2E7CD
:100EC0008C0300209103002008B502F0B3FC08BD9C
:100ED00008B502F0A9FC08BD72B6FEE710B5A4B0D3
:100EE0003822002116A808F085FA002411941294E3
:100EF00013941494159444222146684608F07AFA13
:100F0000204604F0B3FA04F0A9FA214AD2F890304E
:100F100023F01803C2F89030252316934FF4803342
:100F20001793012218921C9202231D9303211E91F4
:100F30001F9228222092219304222292239316A802
:100F400004F0B4FBE8B90F23119303231293002399
:100F5000139314931593042111A804F05DFE90B926
:100F60000C4B0093002306934FF080720C920D936C
:100F70004FF480731093684604F04AFF28B924B0F8
:100F800010BDFFF7A9FFFFF7A7FFFFF7A5FF00BF01
:100F9000001002404030080008B502F029FCFFF7BD
:100FA0009DFF012008BD000000B583B00B4B1A6EF9
:100FB00042F001021A661A6E02F001020092009AD3
:100FC0009A6D42F080529A659B6D03F080530193B5
:100FD000019B04F0D1FA03B05DF804FB001002405D
:100FE000FEE7FEE7FEE7FEE7FEE770477047704763
:100FF00008B502F00DFC08BD0120704708B508F0E7
:1010000089FA162303604FF0FF3008BD08B54FF092
:10101000FF31FFF7F3FFFEE770B50C4616460025DB
:1010200006E0AFF30080214601F8010B01350C46C4
:10103000B542F6DB304670BD70B50C46164600254D
:1010400004E014F8010BAFF300800135B542F8DB82
:10105000304670BD4FF0FF3070474FF400534B6087
:1010600000207047012070470020704710B50346EC
:101070000C4A0D490D48006840B10C480068034413
:10108000521A934206D8094A136010BD0748084C0B
:101090000460F2E708F03EFA0C2303604FF0FF30E3
:1010A000F3E700BF0080002000040000940300204C
:1010B000A8440020034AD2F8883043F47003C2F8F1
:1010C0008830704700ED00E008B502F03AFBFFF70A
:1010D000C7FEFFF7E3FE002008BD012070470000B7
:1010E00038B50546114801F00FFCFFF7F1FE044644
:1010F00003E0002001F014FD50B92B68984780B13F
:10110000FFF7E6FEA042F4D0FFF7E2FE0446F4E764
:10111000002001F00CFD02460549002001F018FDF9
:10112000EBE7044801F0F0FB38BD00BF3CBF00080E
:101130004CBF000858BF00080120704738B505466D
:101140000B4801F0E1FBFFF7C3FE04462B6898470C
:1011500050B1FFF7BDFE001B0128F7D9FFF7B8FE1D
:10116000044600F01DFCF1E7024801F0CDFB38BD5C
:1011700068BF000878BF00080D488546FFF79AFF52
:101180000C480D490D4A002302E0D458C4500433E2
:10119000C4188C42F9D30A4A0A4C002301E01360B8
:1011A0000432A242FBD308F0BBF9FFF78DFFFEE744
:1011B000008000200000002064030020E8C900082F
:1011C00064030020A4440020FEE7034600201860CA
:1011D00058609A600120D8601961704710B40024EB
:1011E000046044608360C260016101205DF8044BCB
:1011F0007047F0B500270CE00CEB030511F803E095
:1012000006F805E00133C5689D42F5D8294404601D
:101210000137974213D205686B1C8468B3FBF4F660
:1012200004FB16344368A3420BD00669002EEED0AF
:101230000029ECD0C36803FB05FC0023E3E7012091
:10124000F0BD0020FCE770B50C461646002516E000
:1012500001EB0E0C1CF803C004F803C00133C26894
:101260009A42F5D8144443680268934216D0013379
:101270008268B3FBF2F102FB113343600135B542E2
:101280000AD201690029EED0002CECD04368C26874
:1012900002FB03FE0023E2E7012070BD0020FCE713
:1012A00003690268C06800FB023070478268036807
:1012B000134441685B1AB3FBF2F002FB1030704735
:1012C000002380F8F23380F8F1333F2280F8F023D6
:1012D00080F8B033704738B5054690F8964104EB76
:1012E000441004EB40002844432205F56C7100F5DE
:1012F000CC7008F044F995F89731072B02D80133E8
:1013000085F8973185F895410134634204F007046C
:1013100003F0070358BF5C4285F89641012385F826
:10132000943138BD002303E08CF8002001339BB2D8
:101330000F2B0BD800EB030CC25C3AB1A2F1610198
:10134000C9B21929F0D8203AD2B2EDE7102B00D05B
:101350007047013B0022C254FAE70000064BB3F885
:101360007836984205D2044BD3F87C3653F82000E7
:1013700070470020704700BF9803002008B503465F
:10138000094AB2F8782690420AD20846064AD2F8AC
:101390007C2652F82310FEF743FF18B1002000E02E
:1013A000002008BD0120FCE79803002008B5084B89
:1013B000B3F87836984202D39FED060A08BD044B75
:1013C000D3F87C36002153F8200007F06DF9F5E7DB
:1013D000980300200000000008B5084BB3F87836E9
:1013E000984201D3002008BD044BD3F87C3600227C
:1013F000114653F8200007F029FAF4E7980300207B
:1014000010B504460449007801F0A2FB0349207896
:1014100001F09EFB10BD00BFD8C4000888BF0008C3
:1014200038B590F8973143B304460D4690F8F12350
:1014300022BB94F8F22332BB012D29D094F99511E7
:10144000013194F8973191FBF3F203FB121184F808
:101450009511C9B201EB411301EB43012144432231
:1014600001F5CC7104F56C7008F089F894F8F2334A
:1014700084F8F133002384F8943138BD0F490078A3
:1014800001F066FBD5E70E49207801F061FBD3E758
:1014900094F894311BB194F9963184F8953194F90C
:1014A000951194F897311944013991FBF3F203FB3C
:1014B000121184F89511C9B2CCE700BF90BF0008A3
:1014C00098BF000870B582B006460024A0F812410B
:1014D00000F58A75C0F8144101AA0C4900F56C703A
:1014E00007F0CAFF234609E05C1CA4B245F82300BC
:1014F00001AA0649002007F0BFFF23460028F3D1C8
:10150000A6F8123103B1012002B070BDA0BF0008DF
:1015100010B5034C2070616001F0EEFA207210BD2E
:101520009803002038B5234B5B7A03B938BD0546D4
:1015300090F8F1232049807A01F00AFB95F8F22314
:101540001E49A87A01F004FB95F8F0231C49A87AFB
:1015500001F0FEFA05F56C721A49A87A01F0F8FA62
:1015600095F995211849A87A01F0F2FA95F8962193
:101570001649A87A01F0ECFA95F897211449A87A4F
:1015800001F0E6FA00240CE004EB441304EB4303FF
:1015900003F5CC732B4422460E49A87A01F0D8FA01
:1015A000013495F89731A342EEDC0B49A87A01F09B
:1015B000CFFABBE798030020A8BF0008B8BF000817
:1015C000C8BF0008D8BF0008E8BF0008F8BF00087F
:1015D00008C0000818C00008D8C4000808B50A46AA
:1015E0000146024B187801F0A9FA08BD98030020C3
:1015F0000FB410B582B004AB53F8042B0193084C20
:101600004FF48071204607F0E7FE0246214614F8A9
:10161000110C01F093FA02B0BDE8104004B070471D
:10162000A903002038B50546FFF74CFF08B9002094
:1016300038BD1648FFF7DCFFD5F81401FFF772FE3E
:101640000024B5F8F433A342F1DD04EB84018900F2
:1016500001F57E712944D5F81401FEF7E1FD08B1CA
:101660000134EEE7B5F81231013BA5F8783605F5FF
:101670008C73C5F87C3604EB840405EB8404D4F841
:10168000083405F5CF609847D1E700BFD8C40008FB
:1016900030B585B004468DF80710037CABB9CBB2EA
:1016A0001B2B30D01CD8082B4BD00D2B40F0848046
:1016B00090F8F2330BBB002384F8F23384F8F13353
:1016C00084F8B0332046FFF79BFE237C013B032BBD
:1016D00000F2C880DFE813F0C400CC00CF00560150
:1016E0007F2B69D190F8F1C390F8F2E3F445ECD286
:1016F000AEEB0C05EDB2012212E0FFF7ECFD204647
:10170000FFF790FFD7E701230374DEE70CEB02033A
:10171000591E234493F8B003631883F8B0030132D1
:101720009542F3DC0EF1FF3E5FFA8EFE84F8F2E3A1
:10173000A64400238EF8B0339449207801F008FACB
:10174000C3E790F8F2335BB390F8F10340B3834200
:1017500009D094F8F2C3604522D2ACEB000E5FFAD8
:101760008EFE002211E0013BDBB284F8F233234409
:10177000002283F8B023ECE78318591E234493F822
:10178000B053631883F8B05301329645F4DC0CF182
:10179000FF33DBB284F8F2332344002283F8B02312
:1017A00094F8F133002B90D0013B84F8F133784961
:1017B000207801F0CDF988E794F8F233591C94F8B9
:1017C000F023914281DA94F8F123934216D094F8F1
:1017D000F1C394F8F2038445BFF477AFA0EB0C0596
:1017E000EDB20022954224DD831A591E214491F85E
:1017F000B013234483F8B0130132F3E701220DF153
:101800000701207801F09AF994F8F123A3189DF8C4
:10181000071083F8B01394F8F2330133DBB284F885
:10182000F233013284F8F1232344002283F8B023F9
:10183000CDE79DF8072004EB0C0383F8B0230130BB
:10184000C0B284F8F2030CF1010C84F8F1C3204417
:10185000002380F8B0334F49207801F079F934E75C
:10186000022323742046FFF75DFE002005B030BD43
:1018700003232374F6E7002323749DF80730442BD9
:1018800026D09DF80730432B37D09DF80730412BE9
:101890004AD09DF80730422B50D09DF80730312BAD
:1018A00056D09DF80730342BDCD194F8F13394F8FE
:1018B000F223934258D394F8F12394F8F2339A42E6
:1018C00059D894F8F23384F8F13304232374C9E728
:1018D00094F8F123002AD4D0013A84F8F1231B2292
:1018E0008DF808205B228DF809208DF80A3003223C
:1018F00002A9207801F022F9C3E794F8F12394F8C3
:10190000F2138A42C1D2013284F8F1231B228DF8EE
:1019100008205B228DF809208DF80A30032202A9E5
:10192000207801F00BF9B0E701212046FFF778FDA0
:1019300004F56C71207801F00BF9AAE7002120462C
:10194000FFF76EFD04F56C71207801F001F9A4E752
:1019500094F8F1231049207801F0FAF8002384F874
:10196000F133042323749CE7D21A92B20B492078F6
:1019700001F0EEF89FE7D21A92B20749207801F001
:10198000E7F89EE7002323746CE700BF28C0000837
:1019900030C0000838C0000890BF000844C00008EC
:1019A00038B5094B1C7A0CB9204638BD187801F0BF
:1019B000B7F80028F8D0044D287801F0B8F80146AF
:1019C0002846FFF765FEEFE79803002010B50F48A3
:1019D000FFF70EFE0E48FFF70BFE00240CE004EBB1
:1019E0008403980000F57E700A4B1844FFF700FE50
:1019F0000648FFF7FDFD0134064BB3F8F433A3426C
:101A0000EDDC0548FFF7F4FD10BD00BFD8C40008A9
:101A10004CC00008980300206CC000082DE9F0437A
:101A200083B00388446873B1012B12D810270022B9
:101A30001146206806F00AFF06462B48FFF7D8FD3E
:101A4000B04600241BE02948FFF7D2FD03B0BDE8F3
:101A5000F08300221146606806F0F8FE0746E6E7CC
:101A600031682348FFF7C4FD624204F0030302F02B
:101A7000030258BF5342032B0BD004360134BC423F
:101A8000E4DA14F0030FEBD131461A48FFF7B0FD4A
:101A9000E6E71948FFF7ACFD4FF0000917E01748DB
:101AA000FFF7A6FD0135032D0DDC05F108036B449E
:101AB00013F8041CA1F12003DBB25E2BEFD8104811
:101AC000FFF796FDEEE708F1040809F10109B9F105
:101AD000030F04DCD8F8003001930025E3E7094840
:101AE000FFF786FDC9E700BFA4C000088CC000084E
:101AF000B8C00008ACC00008C0C00008C8C00008DA
:101B0000C4C00008CCC0000808B5044B187801F028
:101B100007F808B9012008BD0020FCE79803002061
:101B20002DE9F041114BB3F8F4531F2D02D90020D9
:101B3000BDE8F0810E46AF0005EB8504A40004F576
:101B40007E7498461C440146204607F010FD2F4441
:101B500008EB8707C7F808642046FFF7E3FBB8F8EF
:101B6000F4330133A8F8F4330120E1E798030020AF
:101B700008B51248002303724372037480F895314C
:101B800080F8963180F8973180F894310C4BC0F88A
:101B900080360C4BC0F884360B4BC0F888360B4BA4
:101BA000C0F88C36FFF78CFB09490A48FFF7B8FFED
:101BB00009490A48FFF7B4FF012008BD9803002037
:101BC000D9130008AD1300085D1300087D13000849
:101BD000CD190008D4C000081D1A0008DCC0000898
:101BE00010B58CB004464FF4AD6300FB03F328330B
:101BF000234A134401A9181D02F0BAF9049B03B348
:101C00001F4B4FF4AD6202FB04335A6842F00102ED
:101C10005A60059BFBB11A4B4FF4AD6202FB0433D3
:101C20005A6842F002025A60069BF3B1144B4FF41B
:101C3000AD6202FB04335A6842F004025A600CB0F1
:101C400010BD0F4B4FF4AD6202FB04335A6822F013
:101C500001025A60DDE70A4B4FF4AD6202FB043328
:101C60005A6822F002025A60DEE7054B4FF4AD627B
:101C700002FB04335A6822F004025A60DFE700BF17
:101C80002C0A002010B500242CB112491248FFF78D
:101C900047FF012010BD11494FF4AD6004FB00F077
:101CA0000B1801220A5400225A705A601A72DA6024
:101CB0001A615A619A61DA6100F1A80C9030084407
:101CC00010234C2261440430FFF788FA0134E4B257
:101CD000DAE700BF41220008E0C000082C0A00201B
:101CE00058BB00B587B0844602BB0092154A4FF43A
:101CF000AD6000FB0C22126A402A1BD00222039224
:101D00000191022202920493089B05934FF4AD6364
:101D100003FB0CF028300B4B18446946043001F0EB
:101D20007BFF60B1002007B05DF804FB4FF08042FC
:101D30000092DBE701220392E2E7002070470120D6
:101D4000F1E700BF2C0A00202DE9F04182B09DF898
:101D500020E018B1002002B0BDE8F08105464FF444
:101D6000AD6005FB00F000F12804534E3444043408
:101D700006EB000C5148CCF82C000026CCF8306063
:101D80004F4850F82200CCF834004E4850F821005B
:101D9000CCF8380001208CF83C008CF83D008CF821
:101DA0003E004FEA03184848006800EB031750F85C
:101DB0000800CCF840007868CCF84400B868CCF84B
:101DC0004800F868CCF84C004FEA0E183F4800680D
:101DD00000EB0E1750F80800CCF850007868CCF8EB
:101DE0005400B868CCF85800F868CCF85C001C20A7
:101DF000CCF860000820CCF86400CCF868608CF85F
:101E000028108CF829208CF82A308CF82BE04023FD
:101E1000CCF820302E4BCCF82430204601F012FEB6
:101E200008B1002097E700963346324631462846EF
:101E3000FFF756FF00963346012231462846FFF74A
:101E40004FFF0096334602221146204601F017FF4D
:101E500008B100207FE7184B4FF4AD6202FB053359
:101E60003246596A204602F0BDF808B1002072E7F8
:101E7000114B4FF4AD6202FB0533196D9B6D324679
:101E800003FB01F1204601F01BFF08B1002062E7CF
:101E9000204601F026FF08B100205CE7204601F053
:101EA00032FF38B9044B4FF4AD6202FB0533012019
:101EB000587050E700204EE72C0A002000640040D4
:101EC0008CC2000880C200080C000020080000201E
:101ED00007000E00012801D90020704708B54FF413
:101EE000AD6303FB00F09030024B18440430FFF761
:101EF000DDF908BD2C0A0020012860D8F0B58BB0B0
:101F00000D461646304B4FF4AD6202FB00335B6862
:101F100013F0040F55D102FB00F428342A4B1C4463
:101F2000043491F84730DBB1012B1CD095F84830D0
:101F3000012B1FD0022B23D0CBB12B6801930023A0
:101F4000099308930593039395F846201F4B53F884
:101F500022300493204602F03FF8C0B9002031E05F
:101F600000230293E2E74FF080430293DEE70793FA
:101F70000693E2E74FF40013079300230693DCE790
:101F80004FF4001307934FF480130693D5E7FEF741
:101F90009FFF0746AA1D01A9204601F010FF08B1C6
:101FA00000200FE0204602F017F830B9FEF790FF4E
:101FB000C01BB042F6D3002004E0012002E0002064
:101FC000704700200BB0F0BD2C0A002098C200081A
:101FD000012801D90020704708B54FF4AD6303FB19
:101FE00000F09030034B184401220430FFF72BF926
:101FF00008BD00BF2C0A0020012801D9002070472D
:1020000000B585B04FF4AD6303FB00F02830074BFB
:1020100018446946043001F0D0FF20B9BDF804002F
:1020200005B05DF804FB0020FAE700BF2C0A002091
:10203000012801D90020704700B585B04FF4AD6389
:1020400003FB00F02830074B18446946043001F0C8
:10205000B4FF20B9BDF8000005B05DF804FB002016
:10206000FAE700BF2C0A002001281BD838B50E4B18
:102070004FF4AD6202FB00335B7803B938BD0A4C04
:1020800002FB00F0251800226A6028300444043462
:10209000204601F04FFE204601F035FEEB6801338B
:1020A000EB60EBE7704700BF2C0A002010B500245E
:1020B000204609E0174B4FF4AD6202FB04331B7A54
:1020C0002BB1012B17D00134002CF3DD10BD114BC7
:1020D0004FF4AD6202FB04335B6813F0040FF2D0DF
:1020E000E0B2FFF7C1FF0B4B4FF4AD6202FB0433CC
:1020F00001201872E7E7074B4FF4AD6202FB04338F
:102100005B6813F0040FDED1024B02FB04330022A4
:102110001A72D8E72C0A00202DE9F0438BB007464D
:1021200088464FF4AD6600FB06F606F190042E4D8E
:102130002C4404342046FFF7B3F881463544831D10
:102140006A46296A404601F063FE80BB019B8BBB57
:10215000009BC9F80030002389F84730BDF80E30E5
:1021600003F00F03214A52F82330A9F80430069BEC
:10217000B3F5001F25D0002389F848300122002143
:102180002046FFF736F838B9174B4FF4AD6202FB23
:1021900007331A6901321A61134B4FF4AD6202FB27
:1021A0000733D3F8903013B148469847A8B90BB01D
:1021B000BDE8F083009BC9F80030012389F847305F
:1021C000CCE7059BB3F5801F03D0012389F8483085
:1021D000D4E7022389F84830D0E7012200212046C5
:1021E000FFF731F8E3E700BF2C0A0020D8C200084F
:1021F00001281CD810B50E4B4FF4AD6202FB003322
:102200005C6814F0010F06D114F0020F07D114F02E
:10221000040F08D110BD074800F076FBF4E706482C
:1022200000F072FBF3E7054800F06EFBF2E7704741
:102230002C0A0020E4C0000800C100081CC10008EE
:102240002DE9F04194B004460388012B0CD0002501
:102250002388012B31D02388012B74D0002D00F06E
:102260003D8114B0BDE8F0814369A1490020984741
:1022700005460028ECD000271CE09E4E4FF4AD63CD
:1022800003FB076671789C48FFF7B2F931699B48F8
:10229000FFF7AEF971699A48FFF7AAF9B169994851
:1022A000FFF7A6F9F1699848FFF7A2F9F8B2FFF72E
:1022B0009FFF0137002FE0DDCAE7636993490020E3
:1022C000984706460028C6D00027FFF71DFC0028C7
:1022D00037D00020FFF7FEFD0028F6D001A900202E
:1022E000FFF776FE8A49A1FB073189094FF47A731B
:1022F00003FB11714F1C8748FFF77AF99DF84B30AB
:1023000053B98548FFF774F9BDF80820019983484F
:10231000FFF76EF900250CE08148FFF769F9F3E754
:1023200005F150036B4413F8461C7E48FFF760F933
:102330000135BDF80830AB42F2DC7B48FFF758F9B5
:10234000C3E7354687E763697849002098478046A8
:10235000002883D0674B5E6800273D466EE0FEF79D
:10236000B7FD054600208DF84C0001228DF84B206A
:1023700002238DF84A304FF445710191ADF80830D1
:102380008DF80A208DF80B300A2201A9FFF7B4FD61
:10239000F0B90020FFF730FE10B9FFF749FE58B141
:1023A0000020FFF729FE04460020FFF741FE024609
:1023B00021465F48FFF71CF95E4B1B68002B47D096
:1023C0005C4C21685C48FFF713F9002323603FE071
:1023D0004F49A1FB073189094FF47A7303FB11714F
:1023E0004F1C5648FFF704F99DF84B3053B94A4843
:1023F000FFF7FEF8BDF8082001994848FFF7F8F804
:1024000000240CE04648FFF7F3F8F3E704F150032B
:102410006B4413F8461C4348FFF7EAF80134BDF853
:102420000830A342F2DC4048FFF7E2F8B1E7FFF7DB
:102430003DFED0B90020FFF74DFDD0B9FFF764FB9A
:10244000002849D0FEF744FD431BB3F57A7F86D2BE
:10245000284B5968B142EAD03948FFF7C9F8002043
:10246000FFF7C6FE234B5E68E1E73648FFF7C0F88A
:10247000E0E701A90020FFF7ABFD2549A1FB0731EB
:1024800089094FF47A7303FB11714F1C2148FFF740
:10249000AFF89DF84B3053B91F48FFF7A9F8BDF8C6
:1024A000082001991D48FFF7A3F800240CE01C4800
:1024B000FFF79EF8F3E704F150036B4413F8461C52
:1024C0001848FFF795F80134BDF80830A342F2DC54
:1024D0001548FFF78DF8B1E74546BFE61A48FFF704
:1024E00087F81A48FFF784F81948FFF781F8B8E62B
:1024F00038C100082C0A002040C1000858C100085B
:1025000070C1000888C10008A0C10008B8C1000857
:10251000D34D6210C0C10008D0C10008E0C100085E
:10252000D8C10008F4C10008D8C40008FCC10008E4
:1025300014C20008280A002028C2000804C20008AB
:1025400034C2000848C200085CC2000868C2000823
:1025500074C2000808B50020FFF742FB08BD000068
:10256000054A136801331360036E23B1034A5368AD
:1025700043F0100353607047280A00202C0A002003
:1025800008B5024801F0B9FD08BD00BF580A002097
:1025900010B50C4611F0010F0ED114F0020F03D04C
:1025A000084A93690133936114F0040F03D0054A7C
:1025B000D3690133D36110BD01460020FFF7ACFDA4
:1025C000EBE700BF2C0A002000B589B0002303937D
:1025D00004930593069307930268174B9A4202D01F
:1025E00009B05DF804FB03F5D6339A6D42F0007232
:1025F0009A659A6D02F000720192019ADA6C42F0CB
:102600000202DA64DB6C03F002030293029B4FF4D4
:1026100040730393022304930923079303A90748F4
:1026200001F030FE00221146152001F06BF9152053
:1026300001F078F9D4E700BF0064004000040048CE
:1026400008B500F0E1FD014B187008BD940F0020A3
:1026500008B500F015FE08BD08B500F0F1FD08BD95
:1026600008B500F0F5FD08BD08B500F025FE08BD71
:1026700008B500F0FFFD08BD042800D9704708B573
:10268000044B03EBC0010022898853F8300001F0AD
:10269000E3FE08BDE8C3000810B586B0002401942D
:1026A00002940394049405940F4BDA6C42F00402F4
:1026B000DA64DB6C03F004030093009B01230293B4
:1026C0000DE00A4B03EBC4029288019201A953F872
:1026D000340001F0D7FDE0B2FFF7CEFF0134042C47
:1026E000EFDD012006B010BD00100240E8C3000875
:1026F000042800D9704708B5044B03EBC002918849
:1027000053F8300001F0ADFE08BD00BFE8C300087B
:102710002DE9F04106460388012B0AD000273388B3
:10272000012B23D03388012B3ED0002F5AD0BDE897
:10273000F081436930490020984707460028EED0D1
:102740002E4C21882E48FEF753FF61882D48FEF756
:102750004FFF2D48FEF74CFF2C4C21882C48FEF7EC
:1027600047FF61882B48FEF743FFD8E773692A4982
:102770000020984780460028D4D0002506E01F4B53
:10278000986821462844FEF729FF2544FFF7BCF945
:10279000074638B1194B5C88641BC3D0402CEED976
:1027A0004024ECE74746BDE773691C490020984781
:1027B00006460028B9D0002506E0144B986821464B
:1027C0002844FEF70BFF2544FFF79EF9074638B172
:1027D0000E4B5C88641BA8D0402CEED94024ECE75B
:1027E0003746A2E70E48FEF703FF0E48FEF700FF4C
:1027F0000D48FEF7FDFE9AE738C10008AC1800202E
:1028000010C4000828C40008D8C40008A01800207C
:1028100040C4000858C4000870C4000878C4000808
:1028200080C400088CC4000898C4000810B50D4A84
:102830000023138053804FF480619180D3800A4835
:1028400090600A4A138053809180D380084B936034
:102850000124084B1C7008490848FFF761F920461D
:1028600010BD00BFAC180020A0140020A01800204C
:10287000A01000209E10002011270008A4C400080A
:1028800008B5054B1870054B1960054B01221A70ED
:1028900000F032F908BD00BF9C1000209810002005
:1028A0009D10002030B583B004469446C38813447D
:1028B000083382889A4205D20023C3800CF10803B2
:1028C0009A4219D3E088009123880E4A0CF108013E
:1028D000A568284406F0DEFC238801332380E388C2
:1028E00082B21344E38063881844A188884205DCDF
:1028F0001A446280012002E0002000E0012003B0C1
:1029000030BD00BFA8C400080FB410B582B0164B8C
:102910001B7823B902B0BDE8104004B0704705AB86
:102920000193049A4FF48071104806F055FD044657
:102930000F4B1B7813B10F4B1B7843B90E4B1B7811
:1029400063B9224609490D48FFF7ACFFE2E70246AA
:1029500006490B4B187800F0F1F8EFE722460349DF
:102960000848FFF79FFFECE79E100020980F00201B
:102970009D1000201000002011000020A018002051
:102980009C100020AC18002008B5134BD3F8F03091
:1029900013F0010F0DD10022104BD3F8943013F037
:1029A000806F00D03AB10021012000F073F80120BF
:1029B00008BD0122F0E7012000F064F8411C01206D
:1029C00000F068F84FF4FA70FEF77EFA012000F08C
:1029D00059F8034B1860E6E700ED00E000100240F4
:1029E000B8180020014B1868704700BFB8180020C5
:1029F00000B583B0134B019302F0F2FD4FF0E022DB
:102A000000231361536193610FE00F4A03F120002B
:102A10004FF0FF3142F8201003F1600042F820101F
:102A2000BFF34F8FBFF36F8F0133072BEDDD019B9A
:102A30005B68019A126882F30888984703B05DF8D2
:102A400004FB00BF0000FF1F00E100E008B50B48D9
:102A50000B4B0360002343607F228260FF22C26031
:102A60000361436183614FF08042C261036203F0FE
:102A7000A1FB08B9012008BD0020FCE7BC1800201C
:102A80000028004008B50146014803F0EBFB08BDF3
:102A9000BC18002008B50A460146024803F0DBFBDB
:102AA00008BD00BFBC1800200268064B9A4200D047
:102AB0007047054AD2F8903043F40043C2F8903092
:102AC000F6E700BF002800400010024000220DE0A1
:102AD00008494FF4856302FB03F3C8184FF0000C5C
:102AE00001F803C04FF4614343600132032AEFDD74
:102AF00001207047E4180020034668B9074A4FF4E4
:102B0000856000FB03F302EB030C01208CF8080046
:102B1000CCF80410D054704700207047E41800200F
:102B200008B10020704708B5FFF796FD08BD08B151
:102B30000020704708B5FFF793FD08BD08B10020DD
:102B4000704708B50B4611461846FFF78DFD08BDC6
:102B50000EB410B5C3B0044645AB53F8042B019333
:102B60004FF4807102A806F037FC024602A9204605
:102B7000FFF7E4FF43B0BDE8104003B0704708B171
:102B80000020704708B5FFF773FD08BD08B503497D
:102B90000348FEF7C5FF012008BD00BFDD2B00087C
:102BA000B0C4000808B5FFF753FD08BD0A4BD3F8C1
:102BB000BC3253B1084B93F89C32DBB2032B06D1E5
:102BC000054B5B682BB10120704700207047002047
:102BD00070470020704700BF842900202DE9F04194
:102BE00004460388012B0AD000252388012B29D015
:102BF0002388012B4CD0002D74D0BDE8F0814369AF
:102C00003D4900209847054698B9EEE7FFF7CEFF0B
:102C100001463A48FEF7ECFCFFF7C4FF014638488E
:102C2000FEF7E6FC02213748FEF7E2FC6420FEF7DF
:102C30004BF9FEF769FF0028E8D102213248FEF780
:102C4000D7FCD2E7636931490020984780460028C5
:102C5000CED0002504E01F212D48FFF705FD1F35CC
:102C6000FEF752FF70B1FEF733F9C31BB3F57A7F5D
:102C7000F1D3FEF72DF90746A90A2648FFF744FECF
:102C80000025E8E702212048FEF7B2FC4546AFE701
:102C900063692149002098470028ACD000270EE046
:102CA000FEF716F90646B90A1C48FFF72DFE002765
:102CB0000EE0FFF7D5FC0134AC42FAD32F44FEF707
:102CC00023FF50B1FEF704F9831BB3F57A7FE7D2F7
:102CD000FFF7C2FC05460024EEE702210A48FEF792
:102CE00087FC8AE70E48FEF783FC0E48FEF780FC5F
:102CF0000D48FEF77DFC80E738C10008B4C4000829
:102D0000C8C40008DCC40008E4C40008ECC400081F
:102D100000C50008F0C4000824C5000828C5000844
:102D200038C5000844C5000850C5000808B501288A
:102D300003D00020124B187008BD00221149124820
:102D400004F0A7F908B10020F6E710490E4804F096
:102D5000B7F908B10020EFE70D490B4800F092F9F0
:102D600008B10020E8E7084804F0C1F908B10020E4
:102D7000E2E7FFF765FC0120064B1870DAE700BFB9
:102D8000552C00207401002084290020E000002040
:102D90002C010020542C002008B5024802F014F940
:102DA00008BD00BF7440002010B5D0F8BC42D0F878
:102DB000C0325BB194F80002FF2807D09B6894F8FA
:102DC000012221469847FF2384F80032002010BDDD
:102DD00043230380004870475800002043230380AA
:102DE000004870479C000020432303800048704740
:102DF000140000200A2303800048704718010020B7
:102E000038B5D0F8BC5275B1044600F08FFCC5F857
:102E10000C02D4F8C032DB6805F50371D5F8040262
:102E20009847002038BD0320FCE710B5D0F8C44215
:102E3000D0F8BC3253B301EB810200EB82029269FD
:102E40004AB101EB810C04EBCC04246AB2FBF4FC24
:102E500004FB1C2272B10022C3F81422D0F8C02255
:102E60001469ACB10A4603F50471D3F80802A0470F
:102E7000002010BD01EB810300EB830300249C6163
:102E80002346224600F042FC2046F2E70320F0E70A
:102E90000020EEE7F0B583B006460C46D0F8BC72D1
:102EA00000238DF80730ADF804300B7813F060057F
:102EB00027D0202D5BD1CA88DAB113F0800F0CD057
:102EC000D0F8C0329B68394660789847E288394626
:102ED000304604F0A5FD00254CE04B7887F8003221
:102EE0008B7987F80132CA88394604F0AEFD002597
:102EF00040E0D0F8C0329B6800224878984700250F
:102F000038E04F780B2F2ED8DFE807F006342D2D50
:102F10002D2D2D2D2D2D152490F89C32DBB2032B59
:102F200003D004F043FA032524E0022201A904F0AF
:102F300077FD3D461EE090F89C32DBB2032B03D0B8
:102F400004F034FA032515E001220DF1070104F025
:102F500067FD0FE090F89C32DBB2032B0AD004F03F
:102F600025FA032506E004F021FA032502E004F027
:102F70001DFA0325284603B0F0BD38B5044681216B
:102F800000F087FB002525870121204600F081FB0A
:102F9000A4F878518221204600F07BFBA4F84C5025
:102FA000A4F84E50D4F8BC324BB1D4F8C0325B68B0
:102FB0009847D4F8BC0200F0C3FBC4F8BC52002010
:102FC00038BD70B504464FF4077000F0B5FBB8B3D8
:102FD0000646C4F8BC02237CBBBB4FF4007302223C
:102FE0008121204600F04AFB012525874FF400731C
:102FF00002222946204600F041FBA4F87851102314
:10300000A4F84E30082303228221204600F036FB2C
:103010000123A4F84C30D4F8C0321B689847002331
:10302000C6F81432C6F81832257C15BB4FF400736D
:10303000D6F804220121204600F070FB284670BD1E
:103040000023C4F8BC320225F8E740230222812184
:10305000204600F013FB0125258740230222294644
:10306000204600F00BFBA4F878511023A4F84E3052
:10307000C8E74023D6F804220121204600F04EFB89
:103080000025DBE719B1C0F8C0120020704703200B
:103090007047D0F8BC32C3F80812C3F810220020E1
:1030A0007047D0F8BC32C3F8041200207047D0F843
:1030B000BC2292B108B5D2F814320BB1012008BD80
:1030C0000123C2F81432D2F81032C362D2F80822B7
:1030D000812100F01BFB0020F1E70320704710B5B1
:1030E000D0F8BC2292B1047C44B94FF40073D2F8FA
:1030F0000422012100F012FB204610BD4023D2F82B
:103100000422012100F00AFB0024F5E70324F3E781
:103110000020014B18707047572C002021281BD02D
:10312000222829D0202801D0002070470B78154A8A
:103130001360487843EA00231360887843EA004329
:103140001360C87843EA006313600B7913714B79FD
:1031500053718B799371E7E70A4B1A780A705A78A2
:103160004A709A788A70DA78CA701A790A715A792C
:103170004A719B798B71D7E74B8803F00103024AB0
:103180001370D1E724010020572C00200020704745
:1031900070B505460D4E0A6801463046FEF729F81F
:1031A000B4683046FEF782F8241A013C3F2C04D85C
:1031B000074B01221A70002070BD064C294620469C
:1031C000FFF76FFF2046FFF78AFFF4E76C3400201B
:1031D000562C00208429002010B5074C00220749F6
:1031E0002046FFF756FF06492046FFF75AFF00200A
:1031F000044B187010BD00BF8429002080340020CB
:1032000068380020572C002008B5084B00221A709F
:103210004FF4806206490748FDF7D7FF4FF48062FC
:1032200005490648FDF7D1FF012008BD572C0020B5
:10323000583000206C340020582C002058340020D6
:1032400008B50248FEF732F808BD00BF6C34002014
:1032500000B583B000238DF8073001220DF107017E
:103260000348FDF7F0FF9DF8070003B05DF804FB8D
:103270006C340020014B1868704700BF2401002007
:103280000B4BD3F8BC3263B10A4B187840B1084BF2
:1032900093F89C32DBB2032B05D1054B5B6823B15D
:1032A000704700207047002070470020F8E700BFFB
:1032B00084290020572C00202DE9F04107460D46B7
:1032C000FFF7DEFF18B900263046BDE8F081FDF7B4
:1032D000FFFD804600260AE0ACB9FFF7D1FF0028C9
:1032E000F2D0FDF7F5FDA0EB0803632BECD8AE425E
:1032F000EAD209488468FDF7D9FF241A013CA542A7
:10330000EAD82C46E8E7224639460348FDF771FF24
:1033100027442644E1E700BF5834002070B51C4B19
:103320001B788BB91B48FDF7C1FF044610F03F0F17
:1033300002D138B1441E05D0174BD3F8BC32D3F8B4
:103340001432ABB1002070BD14488468FDF7AEFFA5
:10335000241A013C3F2CE5D90F4C11492046FFF7B8
:10336000A0FE2046FFF7BBFE094B00221A70D9E7EA
:103370000C4E224631460748FDF765FF064D2246B2
:1033800031462846FFF785FE2846FFF790FED9E72D
:10339000562C002058340020842900206C34002052
:1033A000683800208034002012230B8000487047CA
:1033B0006001002004230B80004870475C0100205E
:1033C000002393421ED200B510E00CF1370C01F837
:1033D00013C000014FEA430C0CF1010C4FF0000E3A
:1033E00001F80CE00133DBB2934209D24FEA107CC2
:1033F000B0F1204FE9D20CF1300C01F813C0E8E72E
:103400005DF804FB7047000038B50B4BD3F890050E
:10341000D3F89445D3F89835C01800D138BD074D7E
:1034200008222946FFF7CCFF042205F110012046AF
:10343000FFF7C6FFF2E700BF0070FF1F4201002048
:1034400008B51A230B80FFF7DFFF014808BD00BF56
:103450004001002008B50A4628B90549054804F08E
:10346000C2FA034808BD0249024804F0BCFAF8E772
:10347000503C00205CC5000810B50A46034C2146AC
:10348000034804F0B0FA204610BD00BF503C0020B5
:1034900074C5000808B50A4628B90549054804F06E
:1034A000A2FA034808BD0249024804F09CFAF8E772
:1034B000503C002088C5000808B50A4628B90549CF
:1034C000054804F090FA034808BD0249024804F098
:1034D0008AFAF8E7503C002094C50008032805D874
:1034E000DFE800F005040205012070470320704763
:1034F00002680E4B9A4200D0704700B583B003F5C6
:10350000DA339A6D42F400029A659B6D03F400036E
:103510000193019B00220621142000F0F3F91420EE
:1035200000F000FA03B05DF804FB00BF005C00404F
:1035300008B500F52671D0F8D80203F0EDFD08BDFE
:1035400008B501EB810300EBC303D3F86421D0F885
:10355000D80203F00DFE08BD08B501EB810300EBB6
:10356000C3035A6AD0F8D80203F03EFE08BD08B57E
:10357000D0F8D80203F0DEFE08BD10B5044643794A
:10358000022B09D10121D4F8D80203F0B9FED4F8F6
:10359000D80203F088FE10BDFDF79EFCF2E70000A4
:1035A00010B50446D0F8D80203F0ADFE637A23B11B
:1035B000044A136943F006031361034B00221A7097
:1035C00010BD00BF00ED00E07040002008B5437A58
:1035D00023B1054A136923F006031361D0F8D8021A
:1035E00003F09BFE08BD00BF00ED00E010B50346F0
:1035F0001C48C0F8D832C3F8C4021B4B0360082330
:10360000037102234371C3710123037200234372C8
:103610008372C37200F0BAFF08BB124C142300225D
:103620001146204601F0E6FE542300228021204668
:1036300001F0E0FE942300228121204601F0DAFE11
:10364000D42300220121204601F0D4FE4FF48A73D6
:1036500000228221204601F0CDFE002010BDFDF7A2
:103660003BFCDAE774400020005C004008B5D0F86D
:10367000C40200F0E6FFFFF731FF08BD08B594462D
:103680001A466346D0F8C40201F077FDFFF726FF23
:1036900008BD08B5D0F8C40201F0B2FDFFF71EFF67
:1036A00008BD08B5D0F8C40201F02CFEFFF716FFE4
:1036B00008BD08B5D0F8C40201F05DFEFFF70EFFAB
:1036C00008BDD0F8C43211F0800F08D101F07F019D
:1036D00001EB810103EBC10393F85201704701F044
:1036E0007F0101EB810103EBC103987C704700006F
:1036F00008B5D0F8C40201F054FCFFF7EFFE024B0E
:1037000001221A7008BD00BF7040002008B5D0F833
:10371000C40201F0D1FDFFF7E1FE08BD08B5D0F805
:10372000C40201F0A3FDFFF7D9FE08BD08B5D0F82B
:10373000C40201F0B8FD08BD00487047503E0020AB
:10374000704710B5FDF728FC0446FEF711FA044057
:10375000E4B2FEF7A1FF0440FFF778F90440FFF759
:1037600013F90440FFF73EF9022816D0FFF70EFACE
:1037700004400120FFF7DAFA0440FFF7A7F90440FC
:10378000FFF754F804404FF461410020FFF778F848
:103790000440FEF777FA204010BDFFF729F9E5E76E
:1037A000104B1B680BB90120704710B504464FF44D
:1037B0007A70B0FBF3F30C4A1068B0FBF3F000F042
:1037C000B5F868B90F2C01D901200AE00022214682
:1037D0004FF0FF3000F096F8044B1C60002000E032
:1037E000012010BD94010020040000209801002059
:1037F00010B5032000F074F80F20FFF7D1FF10B1CF
:103800000124204610BD0446FDF7CEFBF9E7000079
:10381000034A1368034909680B441360704700BFEB
:103820005043002094010020014B1868704700BFEE
:103830005043002038B50446FFF7F6FF0546B4F1C3
:10384000FF3F02D0044B1B681C44FFF7EDFF401BF9
:10385000A042FAD338BD00BF94010020002807DB46
:1038600000F01F02400901239340024A42F8203031
:10387000704700BF00E100E0002808DB0901C9B281
:1038800000F1604000F5614080F80013704700F0DF
:103890000F000901C9B2014B1954704714ED00E043
:1038A00000B500F00700C0F1070CBCF1040F28BF01
:1038B0004FF0040C031D062B0FD9C31E4FF0FF3E23
:1038C0000EFA0CF021EA000199400EFA03FE22EAFA
:1038D0000E0241EA02005DF804FB0023EEE700005F
:1038E000074AD36823F4E0631B041B0C000200F4B6
:1038F000E060034343F0BF6343F40033D360704799
:1039000000ED00E010B50446054BD868C0F3022076
:10391000FFF7C6FF01462046FFF7AEFF10BD00BF10
:1039200000ED00E008B5FFF799FF08BD0138B0F1E0
:10393000807F0BD24FF0E0235861054AF02182F8D6
:1039400023100020986107221A61704701207047F8
:1039500000ED00E010B4154B03640168D1F880203D
:1039600022F4F812446B42EA0442C1F88020104A63
:1039700042640168D1F8802022F07062846B42EAD0
:103980000462C1F880200B4A8264D832C264D83203
:1039900002651832426502E0002243F8042B064A11
:1039A0009342F9D95DF8044B704700BF00A4004072
:1039B00070A40040B0A400404FA7004070B54C6810
:1039C000ECB90D698C6825430C6845EA8445CC69DF
:1039D0000E6A44EA06648E6934434E693443CE6805
:1039E00044EA0644406D03EBC30300EBC30E40F80A
:1039F0003350CEF804400EF1080E002019E00C6997
:103A00008D6825430C68254345F08045DFE702EBD0
:103A1000000C9CF803409CF802301B0443EA04634A
:103A20009CF8014043EA0423145C23434EF8043B12
:103A30000430CB68024CE35C8342E8D870BD00BF21
:103A4000A4C50008002800F0E38038B5044690F8CB
:103A50005C30D3B12268936923F010039361FFF7C0
:103A6000E3FE054623689A6912F0080F12D0FFF7AB
:103A7000DBFE401B0A28F5D9236E43F001032366C1
:103A8000032384F85C30012038BD80F85D30FEF7F8
:103A90009BFDDFE79A6942F001029A61FFF7C4FEDD
:103AA000054623689A6912F0010F0DD1FFF7BCFE9D
:103AB000401B0A28F5D9236E43F001032366032334
:103AC00084F85C300120DFE79A6942F002029A61D3
:103AD0002268504B9A4242D0237C012B45D0226869
:103AE000936943F040039361637C012B43D02268C8
:103AF000936923F480439361A37C012B41D0226816
:103B0000936943F4805393612268936923F440736B
:103B1000A1680B4393612268936923F0A403936126
:103B20002268136923F010031361E368012B2ED080
:103B3000002B31D0022B54D02268936943F08003CC
:103B400093612268136943F010031361E368032B48
:103B500022D12268936943F0200393611CE06268DC
:103B6000A3F58063C3F80025B6E72268936923F0C4
:103B700040039361B8E72268936943F480439361FB
:103B8000BAE72268936923F480539361BCE7226803
:103B9000936943F004039361A3695A1EE369013BEF
:103BA0001B0243EA4263226A013A13436269013A03
:103BB000216843EA0243CB61A368B3F5407F16D086
:103BC0002268D2F8C030E16B0B43C2F8C030204607
:103BD000FFF7C0FE0020A0652066012384F85C305A
:103BE00052E72268936943F020039361D4E7A36A04
:103BF000013BE26A013A43EA0223226B013A43EABB
:103C00000213626A013A216843EA0243CB60D7E7B4
:103C1000012070470064004090F85C30013BDBB24B
:103C2000012B05D9036E43F00203036601207047A0
:103C30000B68A3B110B4CA680B6943EA42724B69BE
:103C40008C6843EA8473406C496800EBC10C40F80F
:103C50003120CCF8043000205DF8044B70478A68AE
:103C6000CB68DB0643EA82730A6943EA02434A6986
:103C70001343026C496842F821300020704790F8E5
:103C80005CC05FFA8CFCBCF1010F05D0036E43F001
:103C9000040303660120704710B40468D4F8800060
:103CA00020F03F00920042EA011242EA4303019AE7
:103CB0001A430243C4F8802000205DF8044B70478B
:103CC00090F85C30DBB2012B05D0036E43F00403A7
:103CD000036601207047036842EA01229A640020CB
:103CE000704790F85C30DBB2012B05D0036E43F0D7
:103CF00004030366012070470268D36843F400039D
:103D0000D3600020704790F85C30DBB2012B05D007
:103D1000036E43F00403036601207047022380F81A
:103D20005C300268936923F001039361002303660A
:103D30001846704790F85C30DBB2022B39D102682C
:103D4000936943F00103936100230268916911F0C4
:103D5000010F0CD10A2B01D80133F6E7036E43F0B3
:103D600001030366032380F85C30012070479369E8
:103D700023F01003936100230268916911F0080F8A
:103D80000CD00A2B01D80133F6E7036E43F0010390
:103D90000366032380F85C3001207047936943F089
:103DA0000203936100238365012280F85C2018469A
:103DB0007047036E43F0080303660120704738B56F
:103DC000044690F85C30DBB2022B1BD10368D3F8B9
:103DD000C40010F4001F05D0236E43F40073236663
:103DE000012014E0D3F8C450C5F301452B4620460A
:103DF000FFF7E4FD22680123AB40C2F8CC30A36595
:103E0000002004E0036E43F008030366012038BD80
:103E100070B590F85C40E4B2022C40F0A1804029DB
:103E20000BD00468D4F8985015F00F0F2DD1036E05
:103E300043F480730366012097E00468D4F890503F
:103E400015F00F0F05D1036E43F480730366012054
:103E50008BE0D4F89050C5F3006C15F0807F08D04B
:103E6000D4F88050C5F3402C15F4007F01D04FF0FA
:103E7000010CD4F89040C4F301240CEB0405846CCD
:103E800005EBC50C04EBCC0E1AE0D4F89850C5F342
:103E9000006C15F0807F08D0D4F88050C5F3002C5A
:103EA00015F4807F01D04FF0010CD4F89840C4F392
:103EB00001240CEB0405C46C05EBC50C04EBCC0E23
:103EC000DEF8004004F08044546064BBDEF800403B
:103ED000C4F38A441460DEF8004004F00054946097
:103EE000DEF8004004F000441461BEF80440D461E0
:103EF000BEF8064004F00F04D460DEF8044004F479
:103F000080145461DEF8044004F4001494619EF8B7
:103F1000074004F07F041462DEF80440E40F5462AA
:103F20004FF0000C0CE0DEF8004024F06044146018
:103F3000D1E70EEB0C04247A03F80C400CF1010CD1
:103F40000A4CD668A45D6445F3D8402904D00368C0
:103F5000C3F89C50002008E00368C3F89450F9E7C8
:103F6000036E43F008030366012070BDA4C500087A
:103F700003685B6C03F007020A60C3F302224A6025
:103F800003F018028A60C3F34012CA60C3F38012C0
:103F90000A61C3F3C0124A61C3F3C0228A61C3F34A
:103FA0000032CA61C3F340320A62C3F380324A620C
:103FB000C3F306438B620020704703681B6CDAB2C0
:103FC0000A60C3F306224A60C3F3C0328A60C3F3B7
:103FD0000743CB60002070470368D3F8C40000F0AB
:103FE0000700704790F85C30013BDBB2012B05D92C
:103FF000036E43F0020303660120704770B4046847
:10400000A36D11F0070602D013F0010F23D011F0B9
:10401000380F02D013F0020F1DD011F4E07F02D050
:1040200013F0040F17D011F4F05F02D013F0080F53
:1040300011D011F4604F02D013F0100F0BD011F417
:10404000403F02D013F0200F05D011F47C0F06D0B2
:1040500013F0400F03D1E56D45F00105E56516B19C
:1040600013F0010F23D111F0380F02D013F0020F1B
:104070001DD111F4E07F02D013F0040F17D111F419
:10408000F05F02D013F0080F11D111F4604F02D08D
:1040900013F0100F0BD111F4403F02D013F0200F9A
:1040A00005D111F47C0F07D013F0400F04D0046841
:1040B000E36D43F00203E36511F0800F05D004685F
:1040C000D4F8DC301343C4F8DC3011F4807F05D021
:1040D0000468D4F8E0301343C4F8E0300268536D4C
:1040E0000B435365002070BC7047704770477047A2
:1040F000704770477047704770472DE9F84F044686
:1041000003681A6D02F4E05A5A6D0AEA020A1A6D3F
:1041100002F007095A6D09EA02091A6D02F038081F
:104120005A6D08EA02081E6D06F471065A6D1640B3
:104130001F6D07F460275A6D1740D3F854B01D6DFA
:1041400015F0400F02D01BF0400F41D115F4807FD5
:1041500002D01BF4807F40D1BAF1000F4AD1B9F1EF
:10416000000F4FD1B8F1000F54D115F4007F02D0E9
:104170001BF4007F56D115F0800F02D01BF0800F8A
:1041800058D115F4005F02D01BF4005F5ED115F426
:10419000004F02D01BF4004F60D115F4804F0AD0BD
:1041A0001BF4804F07D023684FF480421A65236EBA
:1041B00043F080032366002F58D126B123681E6583
:1041C000236E33432366236E002B56D1BDE8F88F50
:1041D00040221A65FFF790FFB8E72368D3F8D8109C
:1041E000D3F8E0204FF48070186511402046FFF7A7
:1041F00080FFB1E72368C3F850A051462046FFF77F
:1042000074FFACE72368C3F8509049462046FEF798
:10421000BFF9A7E72368C3F8508041462046FFF75F
:1042200065FFA2E723684FF400721A652046FFF786
:104230005EFFA0E72368D3F8D410D3F8DC208020F9
:10424000186511402046FFF753FF9AE723684FF4A3
:1042500000521A652046FFF74DFF98E723684FF498
:1042600000421A652046FFF746FF96E723681F6560
:1042700039462046FEF76EF99FE72046FEF770F9B3
:10428000A4E70000F0B583B0002362E085685E001B
:104290000324B44025EA0405CC68B4402C43846070
:1042A000456825EA0C054C68C4F300149C402C4377
:1042B00044605FE0DD08083550F8254003F0070C46
:1042C0004FEA8C0C4FF00F0E0EFA0CFE24EA0E0E85
:1042D0000C6904FA0CF444EA0E0440F8254060E04E
:1042E000052400E0002404FA0EF42C430CF1020C27
:1042F000554D45F82C40554CA568D44325EA020697
:104300004F6817F4801F01D042EA05064F4DAE609A
:10431000ED6804EA05064F6817F4001F01D042EA71
:1043200005064A4DEE606D6804EA05064F6817F40D
:10433000003F01D042EA0506444D6E602D682C40D6
:104340004E6816F4803F01D042EA05043F4A1460EB
:1043500001330A6832FA03F474D04FF0010C0CFAFE
:1043600003FC1CEA0202F3D04C6804F00304013C95
:10437000012C8BD94C6804F00304032C0CD0C468C6
:104380005D004FF0030C0CFA05FC24EA0C0C8C6861
:10439000AC4044EA0C04C4604C6804F00304022CF2
:1043A00088D004684FEA430E4FF0030C0CFA0EFC61
:1043B00024EA0C0C4C6804F0030404FA0EF444EAFA
:1043C0000C0404604C6814F4403FC1D0204C256EAE
:1043D00045F001052566246E04F001040194019C5A
:1043E0004FEA930C0CF10205174C54F8255003F0DA
:1043F000030E4FEA8E0E0F2404FA0EF425EA04058C
:10440000B0F1904F3FF46EAF124CA04212D004F5C1
:104410008064A04210D004F58064A0420ED004F560
:104420008064A0420CD004F58064A0423FF458AFF1
:10443000062458E7012456E7022454E7032452E7F0
:10444000042450E703B0F0BD000001400004014027
:1044500000100240000400480AB181617047816287
:104460007047436901EA030221EA030141EA02417C
:104470008161704738B512F4804F43D00468B4F8B6
:10448000503091F800C04FEACC0E1EFA83F323445B
:10449000B3F80244C4F309048B69A34228D31B1B5D
:1044A0008B618B697BB9056835F82C309BB223F49E
:1044B000804323F0700383F4005343F4004343F03C
:1044C000800325F82C3012F0400F0ED002680D78D2
:1044D00032F825309BB223F4E04323F0700343F419
:1044E000004343F0C00322F8253024B9204638BDEC
:1044F00000238B61D5E723460A894969006802F0E9
:10450000B0FDF3E70468B4F8503091F800C04FEA0A
:10451000CC0E1EFA83F32344B3F80644C4F3090413
:104520008B69A3422FD31B1B8B618B697BB90568F9
:1045300035F82C309BB223F4804323F0700383F4CE
:10454000005343F4004343F0800325F82C3012F06D
:10455000400F0FD1026891F800C032F82C309BB2A6
:1045600023F4E04323F0700343F4004343F0C0031B
:1045700022F82C30002CB9D023464A8949690068BA
:1045800002F06FFDB2E700238B61CEE7002856D022
:1045900010B5044690F891323BB1032384F8913270
:1045A000206801F06FFE002315E080F89032FEF7DE
:1045B0009FFFF2E703EB830204EBC2020121517477
:1045C00013740021D17411625162013303EB830231
:1045D000D200A150DBB220799842EBD8002316E03C
:1045E00003EB830204EBC202002182F8511182F82E
:1045F000503182F85311C2F86011C2F8641103EB14
:10460000830204EBC202C2F868110133DBB29842A4
:10461000E6D8234653F8040B93E8060001F03CFE6D
:1046200000232373012384F89132A37A012B01D054
:10463000002010BD204600F0F9FE0020F9E701201F
:10464000704790F89032012B0ED010B5044601232C
:1046500080F89032006801F00CFE206802F01EFA2B
:10466000002084F8900210BD0220704770B5054606
:104670000C46164612F0400F00F020810268B2F896
:10468000503009784FEAC10C1CFA83F31344B3F895
:104690000224C2F30902A36993422CD99B1AA36195
:1046A000A06958B316F4804F0DD0286830F8213037
:1046B0009BB223F4E04323F0700343F4404343F000
:1046C000800320F8213094F82430012B00F08D80F5
:1046D0002A68217832F821309BB223F4E04323F09A
:1046E000400383F0300343F4004343F0800322F897
:1046F0002130002070BD0023A361D1E76378002B37
:1047000048D12A68B2F8503012FA83F36344B3F800
:104710000224C2F30902A3F80224B3F802246FEAC8
:1047200042426FEA524292B2A3F802242A686378A6
:10473000002B3BD1B2F8503012FA83F3227803EB0E
:10474000C203B3F80624C2F30902A3F80624B3F89F
:1047500006246FEA42426FEA524292B2A3F806245C
:10476000E378022B2FD021782846FEF7F5FE16F4C9
:10477000804FBED02A68217832F821309BB223F4D2
:10478000E04323F0700343F4404343F0800322F8F6
:104790002130AEE7012BC9D12A68B2F8503012FAA5
:1047A00083F363440022A3F80224BFE7012BD7D18F
:1047B000B2F8503012FA83F3227803EBC2030022DE
:1047C000A3F80624CCE72A68217832F821309BB27E
:1047D00023F4E04323F0400383F0200343F4004339
:1047E00043F0800322F82130BDE76369134463611D
:1047F000E3691344E361216A236999421DD3C91A0D
:1048000021626278002A44D12968B1F8502011FA57
:1048100082F2217802EBC102B2F80214C1F309015D
:10482000A2F80214ABB9B2F802146FEA41416FEA80
:10483000514189B2A2F802142DE021B9002384F875
:1048400024301346DDE7002384F8243023620B462E
:10485000D7E73E2B0DD8590813F0010F00D00131D6
:10486000B2F8020480B2890289B20143A2F80214AC
:1048700011E0580913F01F0F00D10138B2F80214EB
:1048800089B2800280B2014341F40041A2F80214CF
:1048900001E0012A06D09BB222896169286802F0F2
:1048A0000CF915E72968B1F8502011FA82F2217845
:1048B00002EBC10299B2A2F80214ECE70268B2F866
:1048C00050300978C80010FA83F31344B3F8062473
:1048D000C2F30902A369934246D39B1AA361A36959
:1048E000002B44D016F4804F0DD1286830F82130C9
:1048F0009BB223F4E04323F0700343F4404343F0BE
:10490000800320F8213094F82430012B7FF4E0AEAE
:10491000636913446361E3691344E361216A2369B2
:104920009942C0F09C80C91A216229686278002AE5
:1049300040F0C180B1F8502011FA82F2217802EBE8
:10494000C102B2F80614C1F30901A2F80614002B43
:1049500040F09180B2F806146FEA41416FEA51418C
:1049600089B2A2F80614A8E00023A361B7E7637830
:10497000002B49D12A68B2F8503012FA83F303446D
:10498000B3F80224C2F30902A3F80224B3F8022404
:104990006FEA42426FEA524292B2A3F802242A68B6
:1049A0006378002B3CD1B2F8503012FA83F32278AE
:1049B00003EBC203B3F80624C2F30902A3F80624EA
:1049C000B3F806246FEA42426FEA524292B2A3F869
:1049D0000624E378022B30D021782846FEF7BCFD70
:1049E00016F4804F7FF485AE2A68217832F82130A2
:1049F0009BB223F4E04323F0700343F4404343F0BD
:104A0000800322F8213074E6012BC8D12A68B2F85D
:104A1000503012FA83F303440022A3F80224BEE7C5
:104A2000012BD6D1B2F8503012FA83F3227803EB7F
:104A3000C2030022A3F80624CBE72A68217832F8C3
:104A400021309BB223F4E04323F0400383F02003A2
:104A500043F4004343F0800322F82130BCE721B93E
:104A6000002384F8243013465FE70023236284F890
:104A700024300B4659E73E2B0DD8590813F0010F8F
:104A800000D00131B2F8060480B2890289B2014334
:104A9000A2F8061411E0580913F01F0F00D10138D5
:104AA000B2F8061489B2800280B2014341F4004199
:104AB000A2F8061401E0012A06D09BB2628961695E
:104AC000286801F0FAFF03E6B1F8502011FA82F2EB
:104AD000217802EBC10299B2A2F80614EDE72DE9A4
:104AE000F04105462868B0F8443013F4004F00F058
:104AF0005582B0F84440A3B214F00F0440F09F80F8
:104B000013F0100F4AD003889AB213F4006F75D1D6
:104B100012F4004FE6D0038823F070031B051B0D31
:104B200043F0800303802868B0F8503095F8502196
:104B3000D20012FA83F30344B3F80634C3F3090333
:104B4000C5F86C318BB1D5F8641171B1B5F8562147
:104B500002F087FAD5F86431D5F86C211344C5F812
:104B6000643100212846FEF7EBFC2A68138899B2CD
:104B700013F4006FB6D101F44051B1F5405FB1D0EC
:104B800013889BB223F4804323F0700383F44053D3
:104B900043F4004343F080031380A3E703889BB2F0
:104BA00023F4E14323F070036FEA43436FEA534376
:104BB0009BB203802968B1F850302A7CD20012FAE7
:104BC00083F30B44B3F80234C3F30903EB626A6A5C
:104BD0001A446A6200212846FEF7BEFC2B7B002B9C
:104BE00080D0AB6A002B7FF47DAF2B7B2A6843F02B
:104BF0008003A2F84C3000232B7373E7B0F85030D9
:104C000095F85021D20012FA83F30344B3F8063426
:104C1000C3F30903C5F86C31B5F8562105F52671C3
:104C200002F01FFA2A68138823F070031B051B0D7E
:104C300043F0800313802846FEF77AFC52E730F8F1
:104C400024309EB213F4004F4ED116F0800F3FF483
:104C500049AF04EB8401C900103129442A6832F8B5
:104C600024309BB223F4E14323F070036FEA434303
:104C70006FEA53439BB222F8243004EB840305EB24
:104C8000C303DB7C012B00F0E98016F4807F40F049
:104C900080812868B0F8503004EB840205EBC20232
:104CA000167CF20012FA83F30344B3F80234C3F320
:104CB0000903621C02EB820255F832209A4240F24C
:104CC0004B81671C07EB8707D21A45F83720621C17
:104CD00002EB820255F83220002A40F0448131462E
:104CE0002846FEF739FCFDE630F8243023F0700347
:104CF0001B051B0D43F0800320F8243004EB8401D6
:104D0000C90001F5A87105EB010804EB840305EB6C
:104D1000C30393F85C31002B40D12868B0F85030C1
:104D200004EB840205EBC20292F85021D20012FA81
:104D300083F30344B3F80674C7F3090717BB04EB06
:104D4000840305EBC303D3F86C213A44C3F86C2108
:104D5000D3F864213A44C3F86421D3F868313BB1F5
:104D600004EB840305EBC303D3F860319F4270D298
:104D700004EB840305EBC30393F850112846FEF7B8
:104D8000DFFB62E704EB840105EBC1013B46B1F8B0
:104D90005621D1F8641102F064F9D0E704EB8403E2
:104DA00005EBC30393F85331022B33D0296804EB8E
:104DB000840205EBC20292F8500131F820309BB218
:104DC00023F4E04323F0700343F4004343F0C003B3
:104DD00021F82030286892F8503130F8232012F45E
:104DE000804F1ED0B0F85020DB0013FA82F303444A
:104DF000B3F80274C7F30907002FA0D004EB8401B5
:104E000005EBC1013B46B1F85821D1F8641102F01D
:104E100028F994E7324641462846FFF72BFB074620
:104E20008DE7B0F85020DB0013FA82F30344B3F8A7
:104E30000674C7F30907002F81D004EB840105EB4A
:104E4000C1013B46B1F85A21D1F8641102F009F9C9
:104E500075E74146286801F042FEF6E6631C03EB65
:104E60008303DB000022EA5004EB840305EBC30359
:104E70001B7F1BB316F0400F3BD004EB840305EB04
:104E8000C3035B7C1BBB2A68B2F8503012FA83F371
:104E900004EB840205EBC202127C03EBC203B3F8FD
:104EA0000224C2F30902A3F80224B3F802246FEA31
:104EB00042426FEA524292B2A3F8022404EB840405
:104EC00005EBC404217C2846FEF746FB0AE6012BCD
:104ED000F4D12A68B2F8503012FA83F304EB84025A
:104EE00005EBC202127C03EBC2030022A3F80224EA
:104EF000E4E72A6804EB840305EBC3035B7CD3B9C6
:104F0000B2F8503012FA83F304EB840205EBC202CC
:104F1000127C03EBC203B3F80624C2F30902A3F820
:104F20000624B3F806246FEA42426FEA524292B274
:104F3000A3F80624C2E7012BC0D1B2F8503012FA10
:104F400083F304EB840205EBC202127C03EBC20381
:104F50000022A3F80624B1E7621C02EB8202D20011
:104F60000027AF50B3E604EB840205EBC202566A99
:104F70001E445662013404EB840205EBC2025268FF
:104F800004EB840405EBC4041344636001F0A7FD43
:104F9000A8E532462846FFF769FBA3E50020BDE8F7
:104FA000F08190F89032012B0CD010B5044601230B
:104FB00080F890320173006801F06AFD002084F8E7
:104FC000900210BD0220704710B50446006801F041
:104FD00070FD10F4004F23D110F4806F24D110F431
:104FE000804F32D110F4005F39D110F4805F40D18E
:104FF00010F4006F67D110F0800F40F0818010F442
:10500000007F40F0AD8010F4807F27D02268B2F896
:1050100044309BB223F480739BB2A2F844301DE06D
:105020002046FFF75CFD19E02268B2F844309BB2DD
:1050300023F480639BB2A2F844302046FEF79DFA29
:1050400000212046FFF7ADFF08E02268B2F84430A7
:105050009BB223F480439BB2A2F8443010BD226877
:10506000B2F844309BB223F400539BB2A2F8443010
:10507000F4E72268B2F840309BB223F004039BB2FD
:10508000A2F840302268B2F840309BB223F0080307
:105090009BB2A2F8403094F8C832012B0CD02046C5
:1050A000FEF794FA2268B2F844309BB223F480539E
:1050B0009BB2A2F84430D1E7002184F8C812204600
:1050C00000F0CAF9EBE72268B2F840309BB243F037
:1050D0000803A2F840302268B2F844309BB223F4AF
:1050E00000639BB2A2F844302268B2F840309BB211
:1050F00043F00403A2F840302046FEF751FAADE732
:105100002268B2F844309BB223F080039BB2A2F82D
:10511000443094F8C832FBB92268B2F840309BB2F0
:1051200043F00403A2F840302268B2F840309BB24A
:1051300043F00803A2F84030012184F8C812236824
:10514000B3F85430C3F38D0303F03C03C4F8CC32FE
:10515000204600F081F981E72046FEF721FA7DE73D
:105160002268B2F844309BB223F400739BB2A2F8D9
:1051700044302046FEF7FBF970E710B504460846B8
:1051800011F0800F27D101F0070C0CEB8C01C90046
:1051900001F5A87E04EB0E010CEB8C0C04EBCC0C9F
:1051A0004FF0000E8CF851E100F007000870C2F3D8
:1051B0000A020A61CB70022B1DD094F89032012BA9
:1051C0001CD0012384F89032206801F076F800208A
:1051D00084F8900210BD01F0070C0CEB8C01C900A3
:1051E000103121440CEB8C0C04EBCC0C4FF0010E75
:1051F0008CF811E0D8E700230B71DEE70220E9E725
:1052000010B504460A4611F0800F1FD101F00700C7
:1052100000EB8003DB0003F5A873E11800EB8000CE
:1052200004EBC000002380F8513102F007020A703D
:1052300094F89032012B17D0012384F89032206823
:1052400001F0C8FA002084F8900210BD01F00700B8
:1052500000EB8003DB001033E11800EB800004EB6F
:10526000C00001234374E0E70220EEE710B501F02F
:10527000070C0CEB8C01C90001F5A8710CEB8C0E2E
:1052800000EBCE0ECEF86421CEF868310024CEF8C3
:105290006C418EF851418EF850C10144006801F014
:1052A0001EFC204610BD01F0070101EB810100EB5F
:1052B000C100D0F86C01704738B501F0070C0CEB59
:1052C0008C01C90010310CEB8C0E00EBCE0ECEF829
:1052D00024200CF1010202EB820440F83430012555
:1052E0008EF83450CEF8303000EBC4020024546005
:1052F0008EF811508EF810C00144006801F0EFFBE9
:10530000204638BD0B4601F00702017991422ED3A9
:1053100010B5044613F0800F1DD103EB8301C900C3
:1053200001F5A871014403EB830300EBC3030020E4
:1053300083F8510101238B700A7094F89032012B8D
:1053400017D0012384F89032206801F02EFB002052
:1053500084F8900210BD02EB8201C90010310144B3
:1053600002EB820300EBC30301205874E2E7012043
:1053700070470220EEE70B46017903F00F029142DD
:1053800034D310B5044613F0800F21D103F0070287
:1053900002EB8201C90001F5A871014402EB82020F
:1053A00000EBC202002082F8510100228A7003F053
:1053B00007030B7094F89032012B19D0012384F865
:1053C0009032206801F016FB002084F8900210BD96
:1053D00003F0070202EB8201C9001031014402EB25
:1053E000820200EBC20201205074DEE70120704708
:1053F0000220ECE711F0800F0BD001F0070101EB68
:105400008101C9001031084452B90273C3800020E1
:10541000704701EB8101C90001F5A8710844F3E769
:105420000122027303811B0C4381F0E703460268EB
:105430000121C0F8D012002083F8C802B2F854301D
:105440009BB20B43A2F85430B2F854309BB243F0F5
:105450000203A2F85430704770470000024A1368F4
:1054600043F480731360704700700040002836D109
:105470003E4B1B6803F4C063B3F5806F08D03B4A12
:10548000D2F8803023F48073C2F880300020704757
:10549000364AD2F8803023F48073C2F88030136823
:1054A00023F4C06343F400731360314B1B68322252
:1054B00002FB03F32F4AA2FB03239B0C013300E002
:1054C000013B2A4A526912F4806F01D0002BF7D1B8
:1054D000264B5B6913F4806F44D100207047B0F510
:1054E000007F08D0214A136823F4C06343F480632B
:1054F0001360002070471D4B1B6803F4C063B3F5B5
:10550000806F08D0194AD2F8803043F48073C2F813
:10551000803000207047154AD2F8803043F4807301
:10552000C2F88030136823F4C06343F4007313603F
:105530000F4B1B68322202FB03F30E4AA2FB03232C
:105540009B0C013300E0013B084A526912F4806F62
:1055500001D0002BF7D1054B5B6913F4806F03D1A9
:105560000020704703207047032070470070004000
:105570000400002083DE1B43024A936843F4804307
:105580009360704700700040124BDA6802F003022B
:10559000DB68C3F303130133032A11D00E48B0FBB9
:1055A000F3F00C4BDB68C3F3062303FB00F0094B5D
:1055B000DB68C3F3416301335B00B0FBF3F070477A
:1055C0000648B0FBF3F0034BDB68C3F3062303FB91
:1055D00000F0ECE7001002400024F40000127A0012
:1055E00038B5FEF721F904462C4A136843F480735A
:1055F00013602A4B1B6813F4806F07D1FEF714F970
:10560000001B0228F5D90324204638BD234D6B68C2
:1056100043F080436B60FEF707F904460123AB605B
:105620001E4B9B6803F00C03042B08D0FEF7FCF81C
:10563000001B41F288339842F2D90324E4E7184B67
:10564000184A1A60184B1868FEF7AAF8044608B101
:105650000124D9E7114B4FF480721A601A60FEF7EB
:10566000E3F805460D4B1B6813F0007F06D0FEF7EC
:10567000DBF8401B0228F5D90324C5E7074B4FF49C
:105680008052DA6000229A614FF0FF321A62D3F83A
:10569000942042F40002C3F89420B5E700100240C1
:1056A000040000200024F40098010020002800F0ED
:1056B0004F8270B582B00446036813F0010F37D0F3
:1056C000A44A936803F00C03D26802F003020C2B87
:1056D00023D0082B23D06368B3F5803F4ED0B3F5B9
:1056E000A02F51D09B4B1A6822F480321A601A689E
:1056F00022F480221A606368002B52D0FEF794F8DF
:105700000546944B1B6813F4003F11D1FEF78CF84B
:10571000401B6428F5D9032023E2032AD9D18D4BFD
:105720001B6813F4003F03D06368002B00F0128263
:10573000236813F0020F5DD0864A936803F00C03D0
:10574000D26802F003020C2B3AD0042B3AD0E36863
:10575000002B75D07F4A136843F480731360FEF703
:1057600063F805467B4B1B6813F4806F5FD1FEF72F
:105770005BF8401B0228F5D90320F2E1754A136853
:1057800043F480331360B6E703F18043A3F53C3361
:105790001A6842F480221A601A6842F480321A6051
:1057A000A9E7FEF741F805466A4B1B6813F4003F72
:1057B000BED0FEF739F8401B6428F5D90320D0E1AC
:1057C000022AC2D1634B1B6813F4806F03D0E368D5
:1057D000002B00F0C1815F4A536823F0FE4321692A
:1057E00043EA016353605C4B1868FDF7D9FF00285A
:1057F00040F0B481236813F0080F4CD063699BB369
:10580000544AD2F8943043F00103C2F89430FEF7C2
:105810000BF805464F4BD3F8943013F0020F3AD1F2
:10582000FEF702F8401B0228F4D9032099E1494A07
:10583000536823F0FE43216943EA01635360D9E7CB
:10584000444A136823F480731360FDF7EDFF0546A7
:10585000404B1B6813F4806FCCD0FDF7E5FF401B75
:105860000228F5D903207CE13A4AD2F8943023F09B
:105870000103C2F89430FDF7D7FF0546354BD3F846
:10588000943013F0020F06D0FDF7CEFF401B022824
:10589000F4D9032065E1236813F0040F00F0818040
:1058A0002C4B9B6D13F0805F36D12A4B9A6D42F0E2
:1058B00080529A659B6D03F080530193019B0125F3
:1058C000264B1B6813F4807F28D0A368012B39D0A6
:1058D000052B45D01F4BD3F8902022F00102C3F8CE
:1058E0009020D3F8902022F00402C3F89020A368FF
:1058F000002B43D0FDF798FF0646164BD3F89030A7
:1059000013F0020F4CD1FDF78FFF801B41F288335B
:105910009842F2D9032024E10025D1E70F4A136809
:1059200043F480731360FDF77FFF06460B4B1B6843
:1059300013F4807FC9D1FDF777FF801B0228F5D9CA
:1059400003200EE1034AD2F8903043F00103C2F87D
:105950009030CCE700100240980100200070004019
:10596000884BD3F8902042F00402C3F89020D3F87B
:10597000902042F00102C3F89020B8E7FDF754FFF1
:105980000646804BD3F8903013F0020F08D0FDF795
:105990004BFF801B41F288339842F2D90320E0E0AC
:1059A000E5B9236813F0200F35D0A369E3B1754A38
:1059B000D2F8983043F00103C2F89830FDF734FF75
:1059C0000546704BD3F8983013F0020F23D1FDF742
:1059D0002BFF401B0228F4D90320C2E0694A936DD3
:1059E00023F080539365DCE7664AD2F8983023F0C1
:1059F0000103C2F89830FDF717FF0546614BD3F855
:105A0000983013F0020F06D0FDF70EFF401B02285E
:105A1000F4D90320A5E0E369002B00F0A180594AE6
:105A2000926802F00C020C2A64D0022B13D0554A63
:105A3000136823F080731360FDF7F6FE0446514BA4
:105A40001B6813F0007F4ED0FDF7EEFE001B02280E
:105A5000F5D9032085E04B4A136823F08073136067
:105A6000FDF7E2FE0546474B1B6813F0007F06D0AA
:105A7000FDF7DAFE401B0228F5D9032071E0414A08
:105A8000D36841491940236A606A013843EA001328
:105A9000A06A43EA0023206B4008013843EA4053E0
:105AA000606B4008013843EA4063E06A43EAC06340
:105AB0001943D160136843F080731360D36843F0D7
:105AC0008073D360FDF7B0FE04462E4B1B6813F0C5
:105AD000007F06D1FDF7A8FE001B0228F5D90320A0
