:020000040800F2
:1000000000000824A90A0008CD080008CF0800084D
:10001000D1080008D3080008D50800080000000037
:10002000000000000000000000000000D7080008E9
:10003000D908000800000000DB080008DD080008FF
:10004000F90A0008F90A0008F90A0008F90A000884
:10005000F90A0008F90A0008F90A0008F90A000874
:10006000F90A0008F90A0008F90A0008F90A000864
:10007000F90A0008F90A0008F90A0008F90A000854
:10008000F90A0008F90A0008F90A0008F90A000844
:10009000F90A0008F90A0008F90A0008F90A000834
:1000A000F90A0008F90A0008F90A0008F90A000824
:1000B000F90A0008F90A0008F90A0008F90A000814
:1000C000F90A0008F90A0008F90A0008F90A000804
:1000D000F90A0008F90A0008F90A0008F90A0008F4
:1000E000F90A0008F90A000800000000F90A0008EF
:1000F000F90A0008F90A0008F90A0008F90A0008D4
:10010000F90A0008F90A0008F90A0008F90A0008C3
:10011000F90A0008F90A0008F90A0008F90A0008B3
:10012000F90A0008F90A0008F90A0008F90A0008A3
:10013000F90A0008F90A0008F90A0008000000009E
:1001400000000000000000000000000000000000AF
:10015000F90A0008F90A0008F90A0008F90A000873
:10016000F90A0008F90A0008F90A0008F90A000863
:10017000F90A0008F90A0008F90A0008F90A000853
:10018000F90A0008F90A0008F90A0008F90A000843
:10019000F90A0008F90A0008F90A0008F90A000833
:1001A000F90A0008F90A0008F90A0008F90A000823
:1001B000F90A0008F90A0008F90A0008F90A000813
:1001C000F90A0008F90A0008F90A0008F90A000803
:1001D000F90A0008A1130008F90A0008F90A000842
:1001E000F90A0008F90A0008F90A0008F90A0008E3
:1001F000F90A0008F90A0008F90A0008F90A0008D3
:10020000F90A0008F90A0008F90A0008F90A0008C2
:10021000F90A0008F90A0008F90A0008F90A0008B2
:10022000F90A0008F90A0008F90A000800000000AD
:10023000F90A0008F90A000800000000F90A00089D
:10024000F90A0008F90A0008F90A0008F90A000882
:10025000F90A0008F90A0008F90A0008F90A000872
:10026000F90A0008F90A0008F90A0008F90A000862
:10027000F90A0008F90A0008F90A0008F90A000852
:10028000F90A000800000000F90A00080000000058
:0802900000000000F90A00085B
:1002A00010B5054C237833B9044B13B10448AFF3B0
:1002B00000800123237010BDE0070024000000002F
:1002C0006CC7000808B5034B1BB103490348AFF3E3
:1002D000008008BD00000000E40700246CC700088F
:1002E00001F0FF01102A2BDB10F0070F08D010F8E7
:1002F000013B013A8B422DD010F0070F42B3F6D1EB
:10030000F0B441EA012141EA014122F007047FF003
:1003100000070023F0E80256083C85EA010586EA5A
:10032000010685FA47F5A3FA87F586FA47F6A5FA96
:1003300087F68EB9EED1F0BC01F0FF0102F00702A2
:1003400032B110F8013B013A83EA010313B1F8D14D
:100350000020704701387047002D06BF354603382E
:10036000073815F0010F07D1013015F4807F02BF67
:10037000013015F4C03F0130F0BC0138704700BFB8
:10038000034613F8012B002AFBD1181A01387047D5
:1003900053B94AB9002908BF00281CBF4FF0FF31EC
:1003A0004FF0FF3000F088B9ADF1080C6DE904CED4
:1003B00000F006F8DDF804E0DDE9022304B0704740
:1003C0002DE9F047089D8E4604468846002B4AD109
:1003D0008A42174662D9B2FA82F64EB1C6F12003BC
:1003E00001FA06F820FA03F3B74043EA0808B440DC
:1003F0004FEA174E1FFA87FCB8FBFEF1230C0EFBE9
:10040000118843EA084301FB0CF29A4209D9FB1810
:1004100001F1FF3080F0EA809A4240F2E780023931
:100420003B449A1AA3B2B2FBFEF00EFB102243EA41
:10043000024300FB0CFC9C4509D9FB1800F1FF327C
:1004400080F0D6809C4540F2D3803B44023840EA9D
:100450000140A3EB0C0300211DB1F3400022C5E9CC
:100460000032BDE8F0878B4205D90DB1C5E9000126
:1004700000210846F5E7B3FA83F1002946D1734518
:1004800002D3824200F20581841A6EEB030201203E
:100490009046002DE5D0C5E90048E2E7002A00F0CB
:1004A0009080B2FA82F6002E40F0A4808A1A030CE3
:1004B0004FEA174E80B2BCB20121B2FBFEFC0EFB2C
:1004C0001C2243EA024304FB0CF29A4207D9FB18B0
:1004D0000CF1FF3802D29A4200F2E080C4469B1A27
:1004E000B3FBFEF20EFB123340EA034302FB04F4BB
:1004F0009C4207D9FB1802F1FF3002D29C4200F265
:10050000CA8002461B1B42EA0C40A5E7C1F1200647
:100510008B4022FA06F71F430EFA01F420FA06F385
:100520002EFA06FE4FEA1749234300FA01F81FFA94
:1005300087FCBEFBF9F01C0C09FB10EE44EA0E44EC
:1005400000FB0CFEA64502FA01F209D93C1900F1A4
:10055000FF3A80F09C80A64540F2998002383C44E6
:10056000A4EB0E041FFA83FEB4FBF9F309FB13445A
:100570004EEA044403FB0CFCA44508D93C1903F1E2
:10058000FF3E80F08280A4457FD9023B3C4443EA91
:100590000040A4EB0C04A0FB02EC64457346E1466A
:1005A00062D35FD05DB1B8EB030264EB090404FAD7
:1005B00006F622FA01F31E43CC40C5E9006400218F
:1005C0004FE7B1FBF2FC010C41EA0E4180B240EA78
:1005D00001423B4638463C46B846BE462026B1FB63
:1005E000F7F1A2EB080241EA0C4166E7014618E781
:1005F00010462CE7C6F120022EFA02F3B740B140B4
:1006000020FA02F24FEA174E0A43B3FBFEF8BCB2DF
:100610000EFB1833110C41EA034108FB04F9B0400A
:1006200089454FEA104380B23ED9791808F1FF3C62
:1006300001D289451FD8A1EB0901B1FBFEF909FBE5
:1006400004F80EFB191192B242EA0142424529D246
:10065000BA1809F1FF31C4D24245C2D2A9F1020150
:100660003A44BEE7F0459DD2BEEB02036CEB070CAB
:100670000138E14696E7A7EB09094944A8F1020CC5
:10068000B1FBFEF909FB04F8DBE773467FE7504650
:1006900066E70846FDE63B44023A33E7ACF1020C5C
:1006A0003B441CE749469CE7A1EB0901C446B1FB6A
:1006B000FEF909FB04F8C4E7704700BF704700006B
:1006C00010B518E0032000F05BFC0146174800F06D
:1006D00047FB14E0164B1860164B1C6801341C6075
:1006E00000F05AFE02462146134800F039FB10E0A4
:1006F000002000F097FA00F075FA0028E2D100F02F
:100700001FF80E4B18600A4B1B68C31AB3F57A7FAB
:10071000E0D200F003FE0028EAD000F03DFE012800
:10072000E6D1002000F06EFAE5E700BF88C70008B8
:1007300000080024040800248CC70008FC070024DB
:1007400008B501F0C5FC08BD72B6FEE700B59DB066
:100750004C22002109A807F0BBFD2022002101A89E
:1007600007F0B6FD022003F095FB00230093274B12
:100770009A6942F440429A619B6903F440430093B2
:10078000234BDA6A42F00102DA62DB6A03F001030A
:100790000093009B1D4B9B6913F4005FFAD021234B
:1007A00009934FF480330A9301230F93022312938A
:1007B000139305221492C022159216930C221792BD
:1007C00018930823199300231A931B9309A803F085
:1007D00093FBB8B93F2301930323029300230393B0
:1007E000082304934023059306934FF480620792F5
:1007F000089304210DEB010003F0D2FF20B91DB0D6
:100800005DF804FBFFF7A0FFFFF79EFF00480258CA
:100810000004005800B587B001F020FCFFF796FFF8
:10082000204BD3F8E02042F00102C3F8E020D3F8D7
:10083000E02002F001020192019AD3F8E02042F098
:100840000202C3F8E020D3F8E02002F00202029294
:10085000029AD3F8E02042F00402C3F8E020D3F873
:10086000E02002F004020392039AD3F8E02042F061
:100870000802C3F8E020D3F8E02002F00802049256
:10088000049AD3F8E02042F01002C3F8E020D3F835
:10089000E03003F010030593059B012007B05DF8DD
:1008A00004FB00BF0044025882B0074BD3F8F42089
:1008B00042F00202C3F8F420D3F8F43003F002034C
:1008C0000193019B02B0704700440258FEE7FEE727
:1008D000FEE7FEE7FEE770477047704708B501F096
:1008E000EBFB08BD0120704708B507F03FFD16235C
:1008F00003604FF0FF3008BD08B54FF0FF31FFF740
:10090000F3FFFEE770B50C461646002506E0AFF390
:100910000080214601F8010B01350C46B542F6DB9B
:10092000304670BD70B50C461646002504E014F83C
:10093000010BAFF300800135B542F8DB304670BDE6
:100940004FF0FF3070474FF400534B60002070476A
:10095000012070470020704710B503460C4A0D492E
:100960000D48006840B10C4800680344521A934295
:1009700006D8094A136010BD0748084C0460F2E726
:1009800007F0F4FC0C2303604FF0FF30F3E700BFE7
:100990000000082400040000080800244850002437
:1009A000314AD2F8883043F47003C2F888302F4BB4
:1009B0001B6803F00F03062B06D82C4A136823F09C
:1009C0000F0343F007031360294B1A6842F001023A
:1009D0001A6000221A611968264A0A401A60234BDD
:1009E0001B6813F0080F06D0204A136823F00F038A
:1009F00043F0070313601E4B00229A61DA611A620A
:100A00001D4999621D49D9621D4919635A63996349
:100A1000DA6319645A64196821F4802119601A662E
:100A2000184B1B686FF30F03B3F1005F03D2164B33
:100A30000122C3F808210E4BD3F8D43013F4805FA1
:100A400010D10B4BD3F8D42042F48052C3F8D420F9
:100A50000E4A43F2D2011160D3F8D42022F480521E
:100A6000C3F8D420704700BF00ED00E00020005222
:100A7000004402587FEDF6EA000202020000FF0186
:100A8000800201010010005C008000510040005213
:100A900008B5FFF7BFFE01F097FAFFF70FFEFFF76B
:100AA0000FFE002008BD00000D488546FFF778FFC7
:100AB0000C480D490D4A002302E0D458C4500433B9
:100AC000C4188C42F9D30A4A0A4C002301E013608F
:100AD0000432A242FBD307F04FFCFFF7D9FFFEE739
:100AE0000000082400000024E007002490CC000847
:100AF000E007002444500024FEE70346002018606D
:100B000058609A600120D86019617047F0B50027DD
:100B10000CE00CEB030511F803E006F805E00133E7
:100B2000C5689D42F5D8294404600137974213D225
:100B300005686B1C8468B3FBF4F604FB1634436849
:100B4000A3420BD00669002EEED00029ECD0C3687A
:100B500003FB05FC0023E3E70120F0BD0020FCE7D8
:100B600070B50C461646002516E001EB0E0C1CF87D
:100B700003C004F803C00133C2689A42F5D8144494
:100B800043680268934216D001338268B3FBF2F1E6
:100B900002FB113343600135B5420AD201690029D5
:100BA000EED0002CECD04368C26802FB03FE0023A9
:100BB000E2E7012070BD0020FCE7036842689B1A51
:100BC0008268B3FBF2F002FB1030704708B500F00A
:100BD00017FF014B187008BD0C08002408B500F081
:100BE00045FF08BD08B500F027FF08BD08B500F0B7
:100BF0002BFF08BD08B500F057FF08BD08B500F091
:100C000085FF08BD00B1704708B50346044800EBF6
:100C1000C3010122898850F8330002F0C3FA08BDED
:100C200064C8000800B1704708B50346044800EBEB
:100C3000C3010022898850F8330002F0B3FA08BDDE
:100C400064C8000810B586B000240194029403948F
:100C50000494059401230293002C02DD012006B0C8
:100C600010BD074B03EBC4029288019201A953F80F
:100C7000340002F0DFF8E0B2FFF7D4FF0134EBE715
:100C800064C800080B4A0023138053804FF480612E
:100C90009180D38008499160084A138053804FF4B3
:100CA00000619180D380064B93600120054B187042
:100CB000704700BF241500241811002418150024C3
:100CC0001809002416090024003818BF0120014B20
:100CD000187070470900002408B5054B1870054BC3
:100CE0001960054B01221A7000F0A4F808BD00BF7E
:100CF00014090024100900241509002430B583B01C
:100D000004469446C3881344083382889A4205D225
:100D10000023C3800CF108039A4219D3E0880091A4
:100D200023880E4A0CF10801A568284407F01AFA36
:100D3000238801332380E38882B21344E3806388ED
:100D40001844A188884205DC1A446280012002E030
:100D5000002000E0012003B030BD00BF98C70008AC
:100D60000FB410B582B0164B1B7823B902B0BDE8A2
:100D7000104004B0704705AB0193049A4FF48071A2
:100D8000104807F097FA04460F4B1B7813B10F4B2E
:100D90001B7843B90E4B1B7863B9224609490D48AD
:100DA000FFF7ACFFE2E7024606490B4B187800F06C
:100DB00015F9EFE7224603490848FFF79FFFECE7E4
:100DC0001609002410080024150900240800002436
:100DD00009000024181500241409002424150024F7
:100DE00010B400230CE00E4C03EB43021001221858
:100DF000002121544FF4E13050609162D1620133FF
:100E0000032BF0DD064B074A9A60074A9A63074AAC
:100E10009A660120064B18705DF8044B704700BFBE
:100E20005430002430250024301D002430150024C7
:100E300014310024032800F29B8070B582B0044670
:100E400000EB40031B014B4AD05C38B104EB440279
:100E5000484B03EB02135B688B420ED0022C10D977
:100E6000032C0CD1434A04EB440302EB03135960F7
:100E700004EB440424010120105502B070BD002091
:100E8000FBE73C4A04EB440502EB0515696004EB03
:100E90004403394E06EBC306B3682B62F068686200
:100EA000706818602B6A5960296A00238B60296A70
:100EB000CB60296A0B61296A0C204861296A8B6121
:100EC000296ACB61296A0B62296A4B62296A8B62A3
:100ED00004EB44000001083010444FF40062A9689C
:100EE0000430FFF70AFE254BD3F8D82042F0020267
:100EF000C3F8D820D3F8D83003F002030193019B44
:100F0000286A04F093FE337D43B100231A46194644
:100F1000286A05F069FC50B10020AEE704EB4402FA
:100F2000144B03EB0213186A05F0ADFBF3E7114A0B
:100F300004EB4403190102EB0313012050544FF456
:100F400000629968186A05F029FC78B90120094AFD
:100F500004EB440302EB031359691D6AD5F8805072
:100F60002D686D68491BD960196186E70020EEE79E
:100F700000207047543000246CC800080044025818
:100F800010B582B0044600238DF80730022806D938
:100F9000032810D1FFF72AFE8DF807000BE000EBC5
:100FA0004000000108300C4B184401220DF10701EC
:100FB0000430FFF7D5FD084B04EB440203EB0212AB
:100FC000926A04EB440403EB041301329A629DF825
:100FD000070002B010BD00BF5430002438B50446ED
:100FE00008461546022C13D9032C0FD11146FFF7E2
:100FF00001FE0F4B04EB440203EB0212D26A04EB36
:10100000440403EB04130244DA6238BD0020F0E725
:1010100004EB4402064B03EB021C6423AAB2DCF887
:10102000200005F063FA08B10020E2E72846E0E777
:101030005430002430B5BDB00446002137913891BA
:1010400039913A913B91C02206A807F041F92268F4
:101050007E4B9A420AD022687D4B9A4254D0226835
:101060007C4B9A4200F0A0803DB030BD01220023AD
:10107000CDE9062306A803F02BFE00283ED1764BCF
:10108000D3F8F02042F01002C3F8F020D3F8F0209B
:1010900002F010020092009AD3F8E02042F002021F
:1010A000C3F8E020D3F8E03003F002030193019B82
:1010B0004FF4C063379302233893002539953A954E
:1010C00007233B9337A9654801F0B4FE6448654B9C
:1010D0000360292343608560C5604FF4806303612A
:1010E000456185614FF48073C361056201F09AFA2E
:1010F00038B95B4BC4F880309C63ACE7FFF724FB46
:10110000BDE7FFF721FBF4E702220023CDE9062328
:101110000023249306A803F0DBFD00283ED14E4BAC
:10112000D3F8E82042F40032C3F8E820D3F8E820EE
:1011300002F400320292029AD3F8E02042F0080250
:10114000C3F8E020D3F8E03003F008030393039BD7
:1011500070233793022338930025399503233A935C
:1011600007233B9337A9404801F064FE3F48404BBA
:1011700003602B2343608560C5604FF48063036187
:10118000456185614FF48073C361056201F04AFADD
:1011900038B9364BC4F880309C6360E7FFF7D4FA67
:1011A000BDE7FFF7D1FAF4E702220023CDE90623D9
:1011B0000023249306A803F08BFD00283FD1264B83
:1011C000D3F8E82042F48022C3F8E820D3F8E820DE
:1011D00002F480220492049AD3F8E02042F008023C
:1011E000C3F8E020D3F8E03003F008030593059B33
:1011F0004FF4407337930223389300253995032326
:101200003A9307233B9337A9174801F013FE194877
:10121000194B03602D2343608560C5604FF48063E4
:101220000361456185614FF48073C361056201F01C
:10123000F9F938B90F4BC4F880309C6314E7FFF715
:1012400083FABCE7FFF780FAF4E700BF0010014023
:10125000004400400048004000440258000002588A
:10126000202E002428040240000C0258A82D00243F
:1012700040040240302D00245804024010B50446BA
:1012800002681F4B9A4208D022681E4B9A4215D022
:1012900022681D4B9A4221D010BD1C4AD2F8F03072
:1012A00023F01003C2F8F0304FF4C061184801F089
:1012B000D1FED4F8800001F087FBE5E7134AD2F8AD
:1012C000E83023F40033C2F8E8307021114801F00F
:1012D000C1FED4F8800001F077FBD9E70B4AD2F8C1
:1012E000E83023F48023C2F8E8304FF44071094815
:1012F00001F0B0FED4F8800001F066FBCCE700BF3F
:1013000000100140004400400048004000440258E2
:1013100000000258000C02580120704708B5FFF782
:101320005DFC08BD08B5012803D00020134B1870E0
:1013300008BD00221249134806F054F808B10020F5
:10134000F6E711490F4806F064F808B10020EFE70E
:101350000E490C4800F04EFA08B10020E8E70948B1
:1013600006F077F808B10020E2E7FFF72FFC084805
:10137000FFF7F6FC0120074B1870D7E7F533002480
:10138000E8000024183100245000002494000024B8
:10139000E0C70008F433002408B5FFF72FFC08BDB0
:1013A00008B5024802F035FA08BD00BF4C480024D9
:1013B00010B5D0F8D43203F1B00250F822408CB10D
:1013C00000EB820043687BB194F80002FF280DD047
:1013D0009B6894F8012221469847FF2384F8003245
:1013E000002010BD0320FCE70020FAE70020F8E70A
:1013F0000A2303800048704788000024F8B5064699
:101400000F4F8221384606F0E0F9054601213846A3
:1014100006F0DBF904468121384606F0D6F90DB115
:101420001022AA711CB1402222710022627118B1EF
:101430004022027100224271432333800048F8BDEC
:101440000C000024F8B506460F4F8221384606F0FE
:10145000BCF905460121384606F0B7F9044681215A
:10146000384606F0B2F90DB11022AA711CB1402223
:1014700022710022627118B1402202710022427171
:10148000432333800048F8BD0C000024F8B506461D
:101490000F4F8221384606F098F90546012138465B
:1014A00006F093F904468121384606F08EF90DB115
:1014B0001022AA711CB1002222710222627118B19D
:1014C0000022027102224271432333800048F8BD9A
:1014D0000C00002438B5D0F8D432B03350F8235083
:1014E00095B1044600F012FDC5F80C02D4F8D432D0
:1014F000B03304EB83046368DB6805F50371D5F84A
:1015000004029847002038BD0320FCE738B5D0F826
:10151000C852D0F8D432B03350F8234084B301F02D
:101520000F0303EB830200EB820292694AB103EBE3
:10153000C30C05EB8C05ED69B2FBF5FC05FB1C2229
:1015400092B10023C4F81432D0F8D432B03300EB97
:10155000830043681B69ABB10A4604F50471D4F8F3
:1015600008029847002038BD03EB830300EB830398
:1015700000249C612346224600F016FD2046F2E737
:101580000320F0E70020EEE7F0B583B0D0F8D432C6
:1015900003F1B00250F8227000228DF80720ADF858
:1015A0000420002F7BD004460D46097811F0600618
:1015B00034D0202E6CD1EA882AB311F0800F07D1E5
:1015C0006B7887F80032EA883F2A13D8D2B212E04B
:1015D000B03300EB83035B689B68394668789847B3
:1015E000EA88072A28BF07223946204606F0B5FCBC
:1015F000002651E0402287F801223946204606F0B5
:10160000C1FC002648E0B03300EB83035B689B68B5
:10161000002229466878984700263DE06F780B2F16
:1016200031D8DFE807F00639303030303030303034
:10163000162690F89C32DBB2032B04D0294606F024
:1016400001F9032628E0022201A906F086FC3E46A5
:1016500022E090F89C32DBB2032B04D0294606F03E
:10166000F1F8032618E001220DF1070106F075FCE0
:1016700012E090F89C32DBB2032B0DD0294606F025
:10168000E1F8032608E0294606F0DCF8032603E02B
:10169000294606F0D7F80326304603B0F0BD0326EE
:1016A000FAE738B50446812100F058FC002525876B
:1016B0000121204600F052FCA4F8785182212046F6
:1016C00000F04CFCA4F84C50A4F84E50D4F8D4329E
:1016D00003F1B00254F822209AB1B03304EB830333
:1016E0005B685B689847D4F8D432B03354F8230071
:1016F00000F016FCD4F8D432B03344F82350C4F8C8
:10170000BC52002038BD70B504464FF4077000F09D
:1017100003FC002849D005464FF40772002106F06B
:10172000D7FDD4F8D432B03344F82350C4F8BC52B7
:10173000237C002B41D14FF40073022281212046EB
:1017400000F001FC012626874FF400730222314687
:10175000204600F0F8FBA4F878611023A4F84E307E
:10176000082303228221204600F0EDFB0123A4F888
:101770004C300026C5F80462D4F8D432B03304EB00
:1017800083035B681B689847C5F81462C5F8186244
:10179000D5F8042262B3257C1DBB4FF400730121F0
:1017A000204600F009FC284670BDD4F8D432B0338E
:1017B000002244F823200225F5E74023022281215C
:1017C000204600F0C0FB0126268740230222314636
:1017D000204600F0B8FBA4F878611023A4F84E303E
:1017E000BEE740230121204600F0E6FB0025DAE7B2
:1017F0000225D8E739B1D0F8D432B03300EB8300FA
:1018000041600020704703207047D0F8D432B033D5
:1018100050F823302BB1C3F80812C3F8102200206F
:10182000704703207047D0F8D432B03350F82330DB
:101830001BB1C3F80412002070470320704708B59D
:10184000D0F8D432B03350F823208AB1D2F8143211
:101850000BB1012008BD0123C2F81432D2F81032B6
:10186000C362D2F80822812100F09EFB0020F1E73C
:101870000320EFE710B5D0F8D432B03350F823206E
:1018800092B1047C44B94FF40073D2F804220121D0
:1018900000F092FB204610BD4023D2F80422012123
:1018A00000F08AFB0024F5E70324F3E70020014B56
:1018B00018707047F833002421282AD0222839D004
:1018C000202835D10B781E4A1360487843EA00235C
:1018D0001360887843EA00431360C87843EA0063E2
:1018E0001360087910714879507189799171B3F555
:1018F000966F06D0B3F5E13F07D0124B00221A7065
:1019000016E0114A01211170F4E70E4B01221A7002
:101910000EE00B4B1A780A705A784A709A788A70DF
:10192000DA78CA701A790A715A794A719B798B717F
:10193000002070474B8803F00103044A1370F7E757
:10194000A8000024F633002424440024F8330024A3
:101950000020704738B505460C460A68014617480E
:10196000FFF7D4F8164B1B78012B0CD01348846872
:10197000FFF723F9241A013C3F2C16D8114B012202
:101980001A70002038BD0E4B00221A7023680C2BF1
:10199000ECD9002300E001330C2BE7DC0A4A126883
:1019A000D15CEA5C9142F6D0E0E7084C294620463B
:1019B000FFF739FF2046FFF75DFFE2E7103C002408
:1019C00024440024F7330024B000002418310024FC
:1019D00010B5074C002207492046FFF716FF0649BD
:1019E0002046FFF720FF0020044B187010BD00BFF9
:1019F00018310024243C002424400024F83300241F
:101A000008B5084B00221A704FF480620649074857
:101A1000FFF773F84FF4806205490648FFF76DF849
:101A2000012008BDF8330024FC370024103C0024BA
:101A3000FC330024FC3B002408B50248FFF7BDF846
:101A400008BD00BF103C002400B583B000238DF812
:101A5000073001220DF107010348FFF781F89DF8D7
:101A6000070003B05DF804FB103C00240C4BD3F8D6
:101A7000BC3293B101220B4B187800B11046084BD1
:101A800093F89C32DBB2032B00D00020044B5B6840
:101A900003B90020034B187070470022EBE700BF2A
:101AA00018310024F83300242DE9F04107460D4693
:101AB000FFF7DCFF18B900263046BDE8F081FEF7DD
:101AC0003FFE804600260AE0ACB9FFF7CFFF0028B2
:101AD000F2D0FEF735FEA0EB0803632BECD8AE4244
:101AE000EAD209488468FFF768F8241A013CA54245
:101AF000EAD82C46E8E7224639460348FFF706F8BD
:101B000027442644E1E700BFFC3B0024014B187842
:101B1000704700BFF633002470B51C4B1B788BB99F
:101B20001B48FFF74AF8044610F03F0F02D138B1C6
:101B3000441E05D0174BD3F8BC32D3F81432ABB1E6
:101B4000002070BD14488468FFF737F8241A013C60
:101B50003F2CE5D90F4C11492046FFF764FE204683
:101B6000FFF788FE094B00221A70D9E70C4E224677
:101B700031460748FEF7F4FF064D22463146284617
:101B8000FFF743FE2846FFF75AFED9E7F733002454
:101B9000FC3B002418310024103C00242440002485
:101BA000243C002412230B8000487047D4000024FA
:101BB00004230B8000487047D00000240023934288
:101BC0001ED200B510E00CF1370C01F813C0000173
:101BD0004FEA430C0CF1010C4FF0000E01F80CE041
:101BE0000133DBB2934209D24FEA107CB0F1204FAF
:101BF000E9D20CF1300C01F813C0E8E75DF804FB02
:101C00007047000038B50B4BD3F80008D3F80448F0
:101C1000D3F80838C01800D138BD074D082229462E
:101C2000FFF7CCFF042205F110012046FFF7C6FFA5
:101C3000F2E700BF00E0F11FB600002408B51A2348
:101C40000B80FFF7DFFF014808BD00BFB400002490
:101C500008B50A4628B90549054806F05BF9034866
:101C600008BD0249024806F055F9F8E72844002467
:101C70000CC8000810B50A46034C2146034806F07C
:101C800049F9204610BD00BF2844002424C800089C
:101C900008B50A4628B90549054806F03BF9034846
:101CA00008BD0249024806F035F9F8E72844002447
:101CB00038C8000808B50A4628B90549054806F09D
:101CC00029F9034808BD0249024806F023F9F8E75C
:101CD0002844002444C8000830B5B9B004460021A7
:101CE00033913491359136913791C02202A806F094
:101CF000EFFA2268224B9A4201D039B030BD4FF43E
:101D000080220023CDE902234FF44013249302A83C
:101D100002F0DEFF88BB02F0E7F81A4CD4F8E0309E
:101D200043F00103C4F8E030D4F8E03003F00103DD
:101D30000093009B4FF4C053339302233493002548
:101D4000359536950A23379333A90F4801F072F879
:101D5000D4F8D83043F00063C4F8D830D4F8D83081
:101D600003F000630193019B2A462946652000F099
:101D700021FA652000F02EFABFE7FEF7E5FCCAE77E
:101D800000000840004402580000025808B500F264
:101D90009C41D0F8E00405F072FB08BD08B501EBEA
:101DA000C10300EB8303D3F86022D0F8E00405F010
:101DB00038FC08BD08B501EBC10300EB83031A6AC8
:101DC000D0F8E00405F08FFC08BD08B5D0F8E004B9
:101DD00005F0D2FB08BD10B50446C17911B1022946
:101DE00009D10121D4F8E00405F0A7FBD4F8E00400
:101DF00005F071FB10BDFEF7A7FC0121F2E7000022
:101E000010B50446D0F8E00405F09AFB2268D2F839
:101E1000003E43F00103C2F8003EE37A23B1044AD6
:101E2000136943F006031361024B00221A7010BDC0
:101E300000ED00E04848002408B5D0F8E00405F0C3
:101E40008EFB08BD08B5D0F8E00405F0BDFB08BD69
:101E500008B5D0F8E00405F0A0FB08BD08B5D0F83F
:101E6000E00405F0C8FB08BD08B5D0F8E00405F0B3
:101E7000C4FB08BD02780AB10020704710B50346C4
:101E80001548C0F8E034C3F8C802144B03600923B6
:101E900003710222C2710023837142720122827295
:101EA000C372037343738373C37301F0E9F980B999
:101EB000094C8021204601F0D2FF4022002120461B
:101EC00001F0A7FF80220121204601F0A2FF00209F
:101ED00010BDFEF739FCEBE74C4800240000084039
:101EE000D0F8C83211F0800F08D101F07F0101EB6A
:101EF000C10103EB810393F85602704701F07F01A3
:101F000001EBC10103EB8103987D704708B5D0F860
:101F1000C80201F0B9FB08BD0048704728460024FC
:101F20007047032805D8DFE800F00504020501200A
:101F300070470320704708B5D0F8C80201F021FAB5
:101F4000FFF7EFFF08BD08B594461A466346D0F880
:101F5000C80201F0F6FAFFF7E4FF08BD08B5D0F8B3
:101F6000C80201F034FBFFF7DCFF08BD08B5D0F86C
:101F7000C80201F0B7FBFFF7D4FF08BD08B5D0F8E1
:101F8000C80201F0F2FBFFF7CCFF08BD08B5D0F89E
:101F9000C80201F0C3FAFFF7C4FF024B01221A7016
:101FA00008BD00BF4848002408B5D0F8C80201F0B9
:101FB00074FBFFF7B6FF08BD08B5D0F8C80201F002
:101FC0003EFBFFF7AEFF08BD38B5FEF73BFE05460A
:101FD000FEF758FE4FF4E1310320FEF77DFEFFF7D8
:101FE0009BF90120FFF79EF9FEF7FAFE002405E0B9
:101FF0004FF4E131E0B2FEF71DFF0134032CF7DDB1
:102000000020FEF761FE284638BD0000104B1B780B
:102010000BB90120704710B504464FF47A70B0FB3D
:10202000F3F30C4A1068B0FBF3F000F0D7F868B98E
:102030000F2C01D901200AE0002221464FF0FF3089
:1020400000F0B8F8044B1C60002000E0012010BD37
:1020500008010024040000240C01002410B5032012
:1020600000F096F802F0A0FA0F498B69C3F303233E
:102070000E4AD35C03F01F03D8408B6903F00F03B3
:10208000D35C03F01F0320FA03F3094A1360094BE2
:1020900018600F20FFF7BAFF10B10124204610BDD1
:1020A0000446FEF701FCF9E70044025854C8000852
:1020B0000000002404000024034B1B78034A11682D
:1020C0000B441360704700BF08010024304D00240A
:1020D000014B1868704700BF304D002438B50446E6
:1020E000FFF7F6FF0546B4F1FF3F02D0044B1B7823
:1020F0001C44FFF7EDFF401BA042FAD338BD00BFE0
:1021000008010024014B1868000C70470010005CA7
:10211000002807DB00F01F02400901239340024A18
:1021200042F82030704700BF00E100E0002804DBE7
:102130000901C9B2044B1954704700F00F0009019E
:10214000C9B2024B1954704700E400E014ED00E0FE
:1021500000B500F00700C0F1070CBCF1040F28BF68
:102160004FF0040C031D062B0FD9C31E4FF0FF3E8A
:102170000EFA0CF021EA000199400EFA03FE22EA61
:102180000E0241EA02005DF804FB0023EEE70000C6
:102190000649CB6823F4E0631B041B0C000200F427
:1021A000E0600343024A1A43CA60704700ED00E052
:1021B0000000FA0510B50446054BD868C0F30220AC
:1021C000FFF7C6FF01462046FFF7B0FF10BD00BF76
:1021D00000ED00E008B5FFF79BFF08BD0138B0F146
:1021E000807F0BD24FF0E0235861054AF02182F83E
:1021F00023100020986107221A6170470120704760
:1022000000ED00E0F0B4876D0468664E664DAC42A8
:1022100018BFB44242D01835AC423FD01835AC425A
:102220003CD01835AC4239D01835AC4236D01835D0
:10223000AC4233D01835AC4230D005F55675AC42BF
:102240002CD01835AC4229D01835AC4226D01835E0
:10225000AC4223D01835AC4220D01835AC421DD04A
:102260001835AC421AD01835AC4217D04F4DAC429D
:1022700014D01435AC4211D01435AC420ED0143504
:10228000AC420BD01435AC4208D01435AC4205D06A
:102290001435AC4202D01435AC4207D1446E856E81
:1022A0006560C46E14B1046F456F656004683D4E8F
:1022B0003D4DAC4218BFB44252D01835AC424FD05D
:1022C0001835AC424CD01835AC4249D01835AC4228
:1022D00046D01835AC4243D01835AC4240D005F555
:1022E0005675AC423CD01835AC4239D01835AC42AA
:1022F00036D01835AC4233D01835AC4230D0183512
:10230000AC422DD01835AC422AD01835AC4227D07B
:10231000264E274DAC4218BFB44211D0254DAC42D9
:102320000ED01435AC420BD01435AC4208D0143565
:10233000AC4205D01435AC4202D01435AC4224D1A5
:10234000C46D04F01F050124AC407C600468636028
:102350008368402B20D0036899600368DA6014E03A
:10236000C46D04F01F0C3F2404FA0CF4BC60056833
:102370002C6824F480242C60046863608368402BFC
:1023800005D0036899600368DA60F0BC70470368A1
:102390009A600368D960F8E703689A600368D960B7
:1023A000F3E700BF10000240280002400854025822
:1023B0001C5402583054025803682749274A934254
:1023C00018BF8B422FD0183293422CD01832934230
:1023D00029D01832934226D01832934223D0183293
:1023E000934220D0183293421DD002F55672934288
:1023F00019D01832934216D01832934213D01832A3
:10240000934210D0183293420DD0183293420AD022
:102410001832934207D01832934204D023F0FF03BE
:102420008365806D704710B4D9B210390C4AA2FB95
:102430000142C2F302120B4CA25CC2655F2907D9AC
:102440006FF3090304338365806D5DF8044B7047B7
:102450006FF309038365F7E710000240280002408C
:10246000ABAAAAAACCC8000883699BB9836A012BCE
:102470000AD0022B02D00BB100207047C36A13F0C0
:10248000807F2AD100207047C36AB3F1C07F26D075
:1024900000207047B3F5005F0AD0836A022B26D96B
:1024A000032B26D1C36A13F0807F24D1002070470C
:1024B000836A032B03D8DFE803F01404140A002016
:1024C0007047C36A13F0807F0DD100207047C36A44
:1024D000B3F1C07F09D00020704701207047012070
:1024E000704701207047012070470120704701208C
:1024F00070470020704701207047000003682149A1
:10250000214A934218BF8B4227D01432934224D0E1
:102510001432934221D0143293421ED0143293428B
:102520001BD01432934218D01432934215D0DAB231
:10253000103A1649A1FB0212120915491944A8299B
:102540001ED9144B13449B000366134B436602F0E1
:102550001F020123934083667047DBB2083B0F4A9A
:10256000A2FB03230E4A02EB1312920002660D4AED
:102570004266C3F30413012202FA03F38366704731
:102580000832DEE7085402581C540258ABAAAAAA23
:10259000F0FBFDBF0082001080080240CDCCCCCC07
:1025A000009600168058025801794A1E072A2BD837
:1025B00030B40368154D164CA34218BFAB4218D077
:1025C0001434A34215D01434A34212D01434A342BD
:1025D0000FD01434A3420CD01434A34209D01434C5
:1025E000A34206D00B4B0B449B00C3660A4B036708
:1025F00005E00A4B0B449B00C366094B03670123AC
:102600009340436730BC7047704700BF085402587E
:102610001C5402583F820010400902403F960016A9
:102620004059025870B50446FFF752FD002C00F0E7
:10263000B981054623685349534A934218BF8B42D8
:102640000CBF0121002150D0183293424DD01832D6
:1026500093424AD01832934247D01832934244D022
:102660001832934241D0183293423ED002F556724E
:1026700093423AD01832934237D01832934234D032
:102680001832934231D0183293422ED018329342EE
:102690002BD01832934228D01832934225D03B4990
:1026A0003B4A934218BF8B4200F03481394A93422F
:1026B00000F030811432934200F02C8114329342A6
:1026C00000F028811432934200F0248114329342A6
:1026D00000F020811432934200F01C814023636596
:1026E000032384F8353001204AE0022284F83520A3
:1026F000002284F8342079BB274A93422CD0183228
:10270000934229D01832934226D01832934223D0D4
:102710001832934220D0183293421DD002F55672DF
:10272000934219D01832934216D01832934213D0E4
:102730001832934210D0183293420DD0183293427F
:102740000AD01832934207D01832934204D01A6844
:1027500022F001021A6003E01A6822F001021A60F6
:1027600023681A6812F0010F18D0FFF7B1FC431B61
:10277000052BF5D920236365032384F83530012028
:1027800070BD00BF100002402800024008540258EB
:102790001C54025830540258400002401A688249C2
:1027A0001140A268E0680243206902436069024365
:1027B000A0690243E0690243206A02430A43616A56
:1027C000042900F09880794909686FF30F01B1F18D
:1027D000005F10D361682E2940F2928052290AD8F6
:1027E0003F2908D33F39724820FA01F111F0010F57
:1027F00001D042F480121A602668756925F0070539
:10280000636A1D43042B08D1A36A1D43E36A23B105
:102810002046FFF729FE002876D175612046FFF794
:10282000CBFDE36D03F01F023F23934083602368D9
:102830006049614A934218BF8B4242D0183293429A
:102840003FD0183293423CD01832934239D01832DC
:10285000934236D01832934233D01832934230D05C
:1028600002F5567293422CD01832934229D0183276
:10287000934226D01832934223D01832934220D06C
:10288000183293421DD0183293421AD01832934214
:1028900017D04A4A934214D01432934211D01432C2
:1028A00093420ED0143293420BD01432934208D08C
:1028B0001432934205D01432934202D01432934220
:1028C00013D12046FFF71AFEA368802B5DD0236E3C
:1028D00022791A60636EA26E5A606368013B072B0F
:1028E00056D90023E36623676367002060650123F0
:1028F00084F8353044E7E16A206B01430A4362E71C
:102900002929FFF478AF74E740236365012084F838
:10291000350035E7022284F83520002284F834207F
:1029200019686FF31011A268402A2CD0802A27D092
:102930000022E06842EAD002206942EAD0026069DF
:1029400042EAD002A06942EAD002E06942EAD0023B
:10295000206A42EA10120A431A602268184B134494
:10296000184AA2FB03231B099B00E3652046FFF7DF
:1029700023FDE26D02F01F0101228A40426056E70A
:102980004FF48042D5E71022D3E7002363609EE72F
:102990002046FFF709FEE36E00221A60236F626F84
:1029A0005A60A2E70120EBE63F8010FE0010005CB9
:1029B0000F030F0010000240280002400854025884
:1029C000F8ABFDA7CDCCCCCC002800F0DB8010B557
:1029D000044603686C496D4A934218BF8B422FD05E
:1029E000183293422CD01832934229D01832934295
:1029F00026D01832934223D01832934220D0183276
:102A000093421DD002F55672934219D01832934268
:102A100016D01832934213D01832934210D0183285
:102A200093420DD0183293420AD01832934207D005
:102A30001832934204D01A6822F001021A6003E0AF
:102A40001A6822F001021A6023684F494F4A9342E4
:102A500018BF8B4244D01832934241D0183293426F
:102A60003ED0183293423BD01832934238D01832BD
:102A7000934235D01832934232D002F556729342C7
:102A80002ED0183293422BD01832934228D01832CD
:102A9000934225D01832934222D0183293421FD04D
:102AA000183293421CD01832934219D03849394A0F
:102AB000934218BF8B4247D0374A934244D01432D6
:102AC000934241D0143293423ED0143293423BD0D1
:102AD0001432934238D01432934235D0012032E080
:102AE00000221A6023685A6023689A602368DA60BB
:102AF00023681A61236821225A612046FFF75CFC93
:102B0000E36D03F01F023F23934083602046FFF7ED
:102B1000F5FC236E23B100221A60636EA26E5A6028
:102B20006368013B072B23D90020E06620676067BC
:102B3000E06320646064A064E0642065606584F8FC
:102B4000350084F8340010BD00221A6023685A60F2
:102B500023689A602368DA6023681A612046FFF7C9
:102B60002BFCE36D03F01F02012393404360CDE78C
:102B70002046FFF719FDE36E00221A60236F626F93
:102B80005A60D1E70120704710000240280002403F
:102B9000085402581C54025830540258002800F0BF
:102BA0003E8170B5044690F83400012800F0398168
:102BB000012084F8340094F83500C0B2012807D011
:102BC0004FF400636365002384F83430012070BD46
:102BD000022084F83500002060652068924E934DF5
:102BE000A84218BFB0422FD01835A8422CD01835B3
:102BF000A84229D01835A84226D01835A84223D09B
:102C00001835A84220D01835A8421DD005F55675B4
:102C1000A84219D01835A84216D01835A84213D0AA
:102C20001835A84210D01835A8420DD01835A84242
:102C30000AD01835A84207D01835A84204D0056834
:102C400025F00105056003E0056825F00105056034
:102C50002046FFF7D7FA23687349744A934218BF96
:102C60008B4238D01832934235D01832934232D04A
:102C7000183293422FD0183293422CD018329342FC
:102C800029D01832934226D002F55672934222D0B0
:102C9000183293421FD0183293421CD018329342FC
:102CA00019D01832934216D01832934213D01832EA
:102CB000934210D0183293420DD01A6822F00E02BF
:102CC00042F00A021A60236C93B12268136843F041
:102CD000040313600CE01A6822F01E0242F0160290
:102CE0001A60236C23B12268136843F00803136051
:102CF00023684D494D4A934218BF8B4242D0183247
:102D000093423FD0183293423CD01832934239D08C
:102D10001832934236D01832934233D0183293424D
:102D200030D002F5567293422CD01832934229D0FB
:102D30001832934226D01832934223D0183293424D
:102D400020D0183293421DD0183293421AD0183234
:102D5000934217D0364A934214D01432934211D082
:102D6000143293420ED0143293420BD01432934259
:102D700008D01432934205D01432934202D0143258
:102D800093420ED1236E1A6812F4803F03D01A6862
:102D900042F480721A60E36E1BB11A6842F48072CA
:102DA0001A6023682049214A934218BF8B4230D0D1
:102DB000183293422DD0183293422AD018329342BF
:102DC00027D01832934224D01832934221D018329F
:102DD00093421ED002F5567293421AD01832934293
:102DE00017D01832934214D01832934211D01832AF
:102DF00093420ED0183293420BD01832934208D02F
:102E00001832934205D01A6842F001021A6000207D
:102E1000DDE61A6842F001021A600020D7E60120C0
:102E200070470220D3E600BF100002402800024095
:102E300008540258F0B583B000236BE085685E004B
:102E40000324B44025EA0405CC68B4402C438460D4
:102E5000456825EA0C054C68C4F300149C402C43DB
:102E6000446069E0DD08083550F8254003F0070CA0
:102E70004FEA8C0C4FF00F0E0EFA0CFE24EA0E0EE9
:102E80000C6904FA0CF444EA0E0440F825406BE0A7
:102E9000092400E0002404FA0EF42C430CF1020C87
:102EA000694D45F82C404FF0B0442568D44325EADD
:102EB00002064F6817F4801F01D042EA05064FF062
:102EC000B0452E606D6804EA05064F6817F4001FD0
:102ED00001D042EA05064FF0B0456E60D5F8845047
:102EE00004EA05064F6817F4003F01D042EA0506E0
:102EF0004FF0B045C5F88460D5F880502C404E683E
:102F000016F4803F01D042EA05044FF0B042C2F807
:102F1000804001330A6832FA03F400F092804FF0E7
:102F2000010C0CFA03FC1CEA0202F2D04C6804F01B
:102F30000304013C012C81D94C6804F00304032CE8
:102F40000CD0C4685D004FF0030C0CFA05FC24EAB9
:102F50000C0C8C68AC4044EA0C04C4604C6804F06F
:102F60000304022C3FF47EAF04684FEA430E4FF097
:102F7000030C0CFA0EFC24EA0C0C4C6804F003045D
:102F800004FA0EF444EA0C0404604C6814F4403F64
:102F9000BFD02E4CD4F8F45045F00205C4F8F450DC
:102FA000D4F8F44004F002040194019C4FEA930C1D
:102FB0000CF10205244C54F8255003F0030E4FEA9F
:102FC0008E0E0F2404FA0EF425EA0405204CA042CC
:102FD0003FF460AF04F58064A04222D004F5806421
:102FE000A04220D004F58064A0421ED004F5806485
:102FF000A0421CD004F58064A0421AD004F580647D
:10300000A04218D004F58064A04216D004F5806474
:10301000A04214D004F58064A0423FF439AF0A24E2
:1030200039E7012437E7022435E7032433E7042492
:1030300031E705242FE706242DE707242BE7082492
:1030400029E703B0F0BD00BF000400580044025857
:1030500000000258002331FA03F200F09D80F0B521
:103060002EE0092500E0002505FA0CF5A54272D0F6
:1030700004685D004FF0030C0CFA05FC44EA0C04F4
:1030800004604FEAD30E0EF1080E50F82E4003F004
:103090000706B6000F25B54024EA050440F82E4087
:1030A000C46824EA0C04C460446824EA0202426052
:1030B000826822EA0C028260013331FA03F26AD09C
:1030C00001229A4012EA010EF6D09E08B51C334C3C
:1030D00054F8254003F0030C4FEA8C0C0F2505FA39
:1030E0000CF73C402E4DA842BDD005F58065A842A6
:1030F00021D005F58065A8421FD005F58065A8425E
:103100001DD005F58065A8421BD005F58065A84255
:1031100019D005F58065A84217D005F58065A8424D
:1031200015D005F58065A84213D005F58065A84245
:1031300097D00A2598E7012596E7022594E703250D
:1031400092E7042590E705258EE706258CE70725FD
:103150008AE7082588E74FF0B044D4F8805025EA84
:103160000E05C4F88050D4F8845025EA0E05C4F842
:103170008450656825EA0E056560256825EA0E0518
:103180002560DFF818C0B41C5CF8245025EA070558
:103190004CF824506CE7F0BD704700BF00040058A5
:1031A000000002580AB181617047090481617047CB
:1031B0002DE9F04383B0D0F8008001EBC10300EBB0
:1031C00083039A6A5B6A9A4254D807460C469B1A54
:1031D00001EBC10200EB8202D2699A4200D31A4687
:1031E00002F103094FEA990915E006F103094FEAD4
:1031F0009909BB7904EBC40507EB8505296A00939F
:10320000B3B2E2B2404603F068FE2B6A33442B624D
:10321000AB6A3344AB6208EB441303F510639B695C
:103220009BB24B4512D304EBC40307EB83039A6AAA
:103230005B6A9A420AD24BB19B1A04EBC40207EBB9
:103240008202D6699E42D0D31E46CEE704EBC40369
:1032500007EB83077A6ABB6A9A420FD804F00F041F
:103260000122A240D8F8343823EA0203C8F83438DF
:10327000002000E0012003B0BDE8F0830020FAE761
:1032800030B583B000287AD0044690F89534ABB1BD
:10329000032384F89534206803F0D6FB237C8DF853
:1032A0000030231D0ECB206803F004FB58B102232D
:1032B00084F895340125284603B030BD80F8943455
:1032C000FEF70AFDE4E70021206804F01CF802463E
:1032D00008B9034617E0022384F895340125EAE78C
:1032E00003EBC30104EB8101012048750B75CB850D
:1032F00000200876C861086203EBC30104EB81017A
:1033000048620133DBB220799842E9D816E002EB3B
:10331000C20304EB8303002183F8551283F854227F
:1033200083F85812C3F85C12C3F8601202EBC203B0
:1033300004EB8303C3F864120132D2B29042E6D8A0
:10334000237C8DF80030231D0ECB206803F0D2FBC8
:10335000054658B900236374012384F89534237B10
:10336000012B08D0206803F08DFFA4E7022384F826
:10337000953401259FE7204600F076FDF2E7012510
:1033800099E7036890F89424012A1AD010B50446EE
:10339000012280F89424DA6812F0400F02D0427BB8
:1033A000012A09D0206803F049FB206803F05CFF84
:1033B000002084F8940410BD9A6B42F480329A6322
:1033C000F0E702207047000070B504460D46006823
:1033D000066C00EB411303F530639A68A17901296B
:1033E00011D038498E4256D03DB905EBC50304EBE8
:1033F0008303D3F86432002B5ED0E9B22046FEF797
:10340000CDFC002070BD12F0080F09D02E498E426D
:10341000F7D912F4004FF4D04FF400429A60F0E76D
:1034200012F0200F02D020229A60EAE712F0280F53
:10343000E7D125498E4206D912F4004F03D04FF44C
:1034400000429A60DDE705EBC50204EB8202D2F888
:1034500074121B69C3F31203CB1AC2F868327DB928
:1034600005EBC50204EB8202D2F864226AB105EBD7
:10347000C50204EB8202D2F860121944C2F860124D
:10348000E9B22046FEF78AFCBBE704F29C42012128
:1034900003F078FFF4E712F4004F03D04FF400423A
:1034A0009A60AEE712F0200F01D020229A60E9B2B4
:1034B0002046FEF773FCA4E704F29C42002103F0CF
:1034C00061FF9AE70A31544F0A30544F38B5044629
:1034D00003681D6C03EB4113D3F8081B0E4A954299
:1034E00007D903F5306311F4004F02D04FF40042C6
:1034F0009A602046FEF74AFC074B9D4202D9A37909
:10350000012B01D0002038BD04F29C42012120682B
:1035100003F038FFF6E700BF0A30544F90F89434B8
:10352000012B0CD010B50446012380F8943441746B
:10353000006803F089FE002084F8940410BD022086
:10354000704738B505468C4611F0800F2BD101F03D
:103550000F0E0EEBCE04A40004F514740444211DD8
:103560000EEBCE0E00EB8E0E00208EF855020CF006
:103570000F0C81F800C0C2F30A028A600B714A780E
:103580000AB1A1F81AC0022B1CD095F89434012B73
:103590001BD0012385F89434286803F083FB0020B6
:1035A00085F8940438BD01F00F0000EBC0018900DC
:1035B00010312944043100EBC00005EB80000124E8
:1035C0004475D4E700234B71DFE70220EAE710B52A
:1035D00004460A4611F0800F20D101F00F0000EBE5
:1035E000C0039B0003F514732344191D00EBC000B6
:1035F00004EB8000002380F8553202F00F020A70BD
:1036000094F89434012B18D0012384F89434206862
:1036100003F094FB002084F8940410BD01F00F0027
:1036200000EBC0039B0010332344191D00EBC000C6
:1036300004EB800001234375DFE70220EDE710B5BE
:10364000144601F00F0C0CEBCC01890001F514714C
:10365000014404310CEBCC0E00EB8E0ECEF8602250
:10366000CEF864320023CEF868328EF855328EF8E8
:1036700054C28279012A04D0006803F045FC00207E
:1036800010BDCEF87042F7E701F00F0101EBC10168
:1036900000EB8100D0F86802704710B5144601F0C5
:1036A0000F0C0CEBCC0189001031014404310CEB00
:1036B000CC0E00EB8E0ECEF82020CEF82430002366
:1036C000CEF8283001238EF815308EF814C0827998
:1036D0009A4204D0006803F017FC002010BDCEF819
:1036E0003040F7E738B501F00F050279AA4238D328
:1036F00004460B4611F0800F1FD101EBC101890078
:1037000001F514710144043103EBC30300EB83039F
:10371000002283F8552201238B700D7094F89434A5
:10372000012B20D0012384F89434206803F031FD6C
:1037300085B1002084F8940438BD05EBC5018900EB
:1037400010310144043105EBC50300EB8303012272
:103750005A75E0E704F29C42A179206803F012FE5A
:10376000E7E70120E8E70220E6E701F00F0302792E
:103770009A4230D310B5044611F0800F1ED103EBEE
:10378000C301890001F514710144043103EBC30244
:1037900000EB8202002082F8550200228A700B7032
:1037A00094F89434012B18D0012384F894342068C1
:1037B00003F01CFD002084F8940410BD03EBC3014A
:1037C000890010310144043103EBC30200EB820293
:1037D00001205075E1E7012070470220EDE708B5B0
:1037E00011F0800F0CD101F00F0101EBC101890034
:1037F00001F5147101440431006803F00FFB08BDAA
:1038000001F00F0101EBC1018900103101440431C5
:10381000F2E72DE9F04F83B004460568284603F02F
:103820006EFD10B103B0BDE8F08F0646206803F0CE
:1038300037FD0028F6D005F50067BB68C3F30D23FC
:10384000C4F8D434206803F02BFD10F0020F04D02C
:103850002268536903F002035361206803F020FDDE
:1038600010F0100F16D02268936923F010039361B3
:10387000D5F8208008F00F0908F4F013B3F5802F75
:103880006AD0B3F5402F00F08D802268936943F031
:1038900010039361206803F003FD10F4002F40F043
:1038A0009380206803F0FCFC10F4802F40F0FC8033
:1038B000206803F0F5FC0028C0F27D81206803F049
:1038C000EFFC10F4006F09D0BB6813F0010F40F05B
:1038D0008A812268536903F400635361206803F00E
:1038E000DFFC10F0006F15D02268536903F000630D
:1038F000536194F8CC34002B40F07981012184F895
:10390000CC1423685B6DC3F38303C4F8D034204622
:1039100000F0BEFA206803F0C3FC10F4805F40F0B2
:103920006A81206803F0BCFC10F4005F40F0B681AF
:10393000206803F0B5FC10F0080F40F0C781206844
:1039400003F0AEFC10F0800F00F0DA81AB6923F0D9
:103950008003AB610126C3E147F6F07318EA030F59
:1039600093D04FEA181A4FEAC903019309EBC90B28
:1039700004EB8B0BC8F30A12DBF86012284603F045
:10398000E5FBDBF86032CAF30A0A5344CBF8603235
:10399000DBF86832019A4A4404EB82025344C2F8CD
:1039A000683272E7082204F29C41284603F0CEFBFD
:1039B00009EBC90304EB8303D3F86822C8F30A18A0
:1039C0004244C3F8682260E7206803F06DFC80463B
:1039D000B14635E005EB49130122C3F8082B4946EF
:1039E0002046FFF7F1FC3CE005EB49130822C3F841
:1039F000082B49462046FFF769FD35E009EBC9036E
:103A000004EB830393F85732012B41D005EB4913A4
:103A10000222C3F8082B1AF0200F04D005EB49133B
:103A20002022C3F8082B1AF4005F05D005EB4913D8
:103A30004FF40052C3F8082B09F101094FEA580866
:103A4000B8F1000F3FF42DAF18F0010FF4D05FFA7A
:103A500089FB5946206803F037FC824610F0010FBD
:103A6000B8D11AF0080FBFD11AF0100F04D005EB2F
:103A700049131022C3F8082B1AF0020FCBD06B6940
:103A800013F0800FBAD07B6843F480637B60B5E7A6
:103A900009EBC90304EB8303002283F8572259463C
:103AA0002046FEF7CFF9B1E7206803F005FC804619
:103AB000B14625E059462046FEF77CF91AF0080F7A
:103AC00004D005EB49130822C3F808291AF0100F97
:103AD00004D005EB49131022C3F808291AF0400F4F
:103AE00004D005EB49134022C3F808291AF0020F4D
:103AF00040D11AF0800F59D109F101094FEA580855
:103B0000B8F1000F3FF4D4AE18F0010FF4D05FFA13
:103B100089FB5946206803F0E0FB824610F0010F54
:103B2000CCD009F00F02012101FA02F27B6B23EAEB
:103B300002037B6305EB4913C3F80819A3798B4291
:103B4000B8D109EBC90304EB83031A6AD9690A44A3
:103B50001A62B9F1000FADD109EBC90304EB83037D
:103B60005B6A002BA6D104F29C420121206803F07D
:103B700009FC9FE74946284602F06CFF09EBC903A0
:103B800004EB8303DB7D012B05D005EB49130222F7
:103B9000C3F80829ADE709EBC90304EB830300224E
:103BA000DA7559462046FEF753F9EEE749462046B6
:103BB000FFF7FEFAA0E77B6823F001037B6094F82F
:103BC000CC34012B08D02046FEF736F92268536921
:103BD00003F00043536171E6002184F8CC142046C1
:103BE00000F056F9F2E72046FEF70AF971E62046A2
:103BF000FEF706F98EE67B6823F001037B60102157
:103C0000206802F027FF1AE005EB46134FF67F31DC
:103C1000C3F80819D3F8002922F40012C3F80029C8
:103C2000C3F8081BD3F8002B22F40012C3F8002BB2
:103C3000D3F8002B42F00062C3F8002B0136237941
:103C4000B342E1D8FB6943F00113FB61E37BDBB1D5
:103C5000D7F8843043F00B03C7F884307B6C43F013
:103C60000B037B64D5F8003823F4FE63C5F80038F5
:103C700004F29C42A179206803F084FB2268536916
:103C800003F4805353614CE67A6942F22B031343E9
:103C90007B613B6943F00B033B61E3E7206803F082
:103CA00063FB206802F0ECFFE071266800F0C2FEC2
:103CB0000146E279304602F04FFE2046FEF78BF8CF
:103CC0002268536903F40053536131E62046FEF73E
:103CD0007CF82268536903F0080353612FE601362C
:103CE0002379B3420CD906EBC60304EB830393F8A4
:103CF0005732012BF3D1F1B22046FFF770FDEEE70A
:103D0000206803F0CDFA10F4801F25D1206803F05D
:103D1000C7FA10F4001F58D0012326E0013623799A
:103D2000B3421BD905EB4613D3F8002906EBC603B3
:103D300004EB83031B7E012BF0D1002AEEDA06EBA5
:103D4000C60304EB83030122DA7566F07F01C9B272
:103D50002046FFF744FDE1E70126E0E722685369CA
:103D600003F480135361D1E7013322799A4227D9B2
:103D700005EB4312D2F8001B03EBC30204EB8202F3
:103D800092F85822012AEFD10029EDDAD4F8D42490
:103D900082EA114212F0010FE6D103EBC30204EBF9
:103DA0008202012182F85712AA6942F08002AA61B8
:103DB0006A6912F0800FD7D17B6843F400737B608F
:103DC0002268536903F400135361206803F068FA12
:103DD00010F0804F10D1206803F062FA10F0040F49
:103DE0003FF420AD23685D6815F0040F0DD1226803
:103DF00053682B43536015E52046FEF72FF82268E1
:103E0000536903F080435361E5E72046FEF72CF841
:103E1000EDE710B40468606A31B940EA0240A0627C
:103E200000205DF8044B70478C46A36A00EB1340FA
:103E3000002308E003F1400104EB8101496800EB35
:103E400011400133DBB20CF1FF318B42F2D340EA77
:103E500002400CF13F0104EB81046060E0E703687D
:103E60005962002070470000034602680121C0F833
:103E7000D814002083F8CC04936943F00063936165
:103E8000516D024B0B435365704700BF0300001098
:103E900070470000134BDB6813F0040F07D1114B80
:103EA000DB6803F0070383421AD00120704710B586
:103EB0000C4AD36823F007030343D360FEF708F9E5
:103EC0000446084B5B6813F4005F07D1FEF700F966
:103ED000001BB0F57A7FF4D9012000E0002010BD6E
:103EE0000020704700480258024AD36843F08073AC
:103EF000D360704700480258002800F0398338B575
:103F00000446036813F0010F25D0944A136903F0A7
:103F10003803926A102B15D0182B0FD06368B3F5B5
:103F2000803F3FD0002B53D18C4B1A6822F4803253
:103F30001A601A6822F480221A6038E002F0030244
:103F4000022AEBD1854B1B6813F4003F03D0636852
:103F5000002B00F00F83236813F0020F00F0A18004
:103F60007E4A1369926A13F038035AD0182B55D041
:103F7000E368002B00F0DE8078490A6822F019021D
:103F800013430B60FEF7A4F80546744B1B6813F04F
:103F9000040F40F0AD80FEF79BF8401B0228F4D9D7
:103FA0000320EEE26D4A136843F4803313606368C4
:103FB0002BB3FEF78DF80546684B1B6813F4003FE2
:103FC000C9D1FEF785F8401B6428F5D90320D8E253
:103FD000B3F5A02F09D0614B1A6822F480321A6021
:103FE0001A6822F480221A60E1E75C4B1A6842F4F6
:103FF00080221A601A6842F480321A60D7E7FEF70E
:1040000067F80546554B1B6813F4003FA3D0FEF735
:104010005FF8401B6428F5D90320B2E212F0030FC9
:10402000A6D14E4B1B6813F0040F03D0E368002B9E
:1040300000F0A282494A136823F01903E1680B4398
:104040001360FEF745F80546444B1B6813F0040F58
:1040500006D1FEF73DF8401B0228F5D9032090E277
:10406000FEF750F841F20303984212D82269402A21
:1040700007D03A494B6823F47C3343EA02334B6060
:104080000FE0364A536823F47C3343F40033536023
:1040900007E0324A536823F0FE43216943EA016393
:1040A0005360236813F0100F00F088802B4A1369C7
:1040B00003F03803926A082B56D0182B50D0E369CE
:1040C000002B00F0B880254A136843F0800313608A
:1040D000FDF7FEFF0546214B1B6813F4807F40F07F
:1040E0008880FDF7F5FF401B0228F4D9032048E241
:1040F000FEF708F841F20303984212D82269402AD9
:1041000007D016494B6823F47C3343EA02334B60F3
:10411000C7E7124A536823F47C3343F400335360F7
:10412000BFE70E4A536823F0FE43216943EA016367
:104130005360B6E7094A136823F001031360FDF7E3
:10414000C7FF0546054B1B6813F0040FA9D0FDF708
:10415000BFFF401B0228F5D9032012E20044025899
:1041600002F00302012AAAD1A14B1B6813F4807F3D
:1041700003D0E369802B40F00182FDF7C3FF41F2D9
:104180000303984212D8226A202A07D098494B6824
:1041900023F0F84343EA82634B600FE0944A53688C
:1041A00023F0F84343F08043536007E0904AD3681C
:1041B00023F07C53216A43EA0163D360236813F040
:1041C000080F60D06369002B49D0894A536F43F0D0
:1041D00001035367FDF77CFF0546854B5B6F13F0CA
:1041E000020F50D1FDF774FF401B0228F5D90320C0
:1041F000C7E1FDF787FF41F20303984212D8226A14
:10420000202A07D07A494B6823F0F84343EA8263B7
:104210004B60D3E7764A536823F0F84343F080437A
:104220005360CBE7724AD36823F07C53216A43EA98
:104230000163D360C2E76E4A136823F08003136002
:10424000FDF746FF05466A4B1B6813F4807FB5D027
:10425000FDF73EFF401B0228F5D9032091E1644A97
:10426000536F23F001035367FDF732FF0546604BA0
:104270005B6F13F0020F06D0FDF72AFF401B0228E8
:10428000F5D903207DE1236813F0200F29D0A3691D
:104290009BB1574A136843F480531360FDF718FF2E
:1042A0000546534B1B6813F4005F1AD1FDF710FF4E
:1042B000401B0228F5D9032063E14D4A136823F41B
:1042C00080531360FDF704FF0546494B1B6813F448
:1042D000005F06D0FDF7FCFE401B0228F5D9032045
:1042E0004FE1236813F0040F21D1636A002B00F023
:1042F00047813F4A126902F03802182A00F0EE8026
:10430000022B79D03A4A136823F080731360FDF7CB
:10431000DFFE0446364B1B6813F0007F00F0DC80A4
:10432000FDF7D6FE001B0228F4D9032029E1314A0B
:10433000136843F480731360FDF7CAFE05462D4BE6
:104340001B6813F4807F06D1FDF7C2FE401B642872
:10435000F5D9032015E1A368012B0AD00BBB244B30
:104360001A6F22F001021A671A6F22F004021A670C
:1043700004E01F4A136F43F001031367A36833B3CC
:10438000FDF7A6FE05461A4B1B6F13F0020FACD1CA
:10439000FDF79EFE401B41F288339842F3D903207B
:1043A000EFE0052B09D0124B1A6F22F001021A67B9
:1043B0001A6F22F004021A67E0E70D4B1A6F42F001
:1043C00004021A671A6F42F001021A67D6E7FDF776
:1043D0007FFE0546064B1B6F13F0020F85D0FDF7DD
:1043E00077FE401B41F288339842F3D90320C8E09E
:1043F0000044025800480258694A136823F0807349
:104400001360FDF765FE0546654B1B6813F0007FE2
:1044100006D0FDF75DFE401B0228F5D90320B0E071
:104420005F4B996A5F4A0A40A16AE06A41EA00115B
:104430000A439A62226B013AC2F30802616B0139A6
:10444000490289B20A43A16B0139090401F4FE0152
:104450000A43E16B0139090601F0FE410A431A6380
:10446000DA6A22F00102DA625A6B6FF3CF02A16CB2
:1044700042EAC1025A63DA6A22F00C02216C0A4352
:10448000DA62DA6A22F00202616C0A43DA62DA6AFC
:1044900042F48032DA62DA6A42F40032DA62DA6ACC
:1044A00042F48022DA62DA6A42F00102DA621A68C1
:1044B00042F080721A60FDF70BFE0446384B1B6811
:1044C00013F0007F06D1FDF703FE001B0228F5D98B
:1044D000032056E0002054E0002052E0304A916A68
:1044E000106B012B4ED001F00303A26A93424BD113
:1044F000C1F30511E36A994248D1C0F30802236B66
:10450000013B9A4244D1C0F34622636B013B9A427D
:1045100040D1C0F30642A36B013B9A423CD1C0F3A9
:104520000660E36B013B984238D11D4B5B6BC3F3D4
:10453000CC03A26C9A4201D1002022E0184AD36A2F
:1045400023F00103D362FDF7C3FD0546FDF7C0FD6F
:10455000A842FBD0124A536B6FF3CF03A16C43EA1E
:10456000C1035363D36A43F00103D362002008E020
:1045700001207047012004E0012002E0012000E05A
:10458000002038BD0120FCE70120FAE70120F8E710
:104590000120F6E70120F4E70120F2E70120F0E72F
:1045A000004402580CFCFFFF754B1B6903F03803F5
:1045B000102B00F0DE80182B0FD0002B40F0DB809A
:1045C0006F4B1B6813F0200F00F0D7806C4B1B68FB
:1045D000C3F3C1036B48D840704710B4684B9A6A64
:1045E00002F003029C6AC4F30510D96A01F00101CC
:1045F0005B6BC3F3CC0301FB03F307EE903AF8EED9
:10460000677A14F47C7F77D0012A4AD0022A76D0C8
:10461000002A40F091805A4B1B6813F0200F23D0E2
:1046200057490A68C2F3C102564BD34007EE103A0D
:10463000F8EE476A07EE100AB8EE476A86EE867A09
:104640000B6BC3F3080306EE903AF8EE666A9FED33
:104650004E6A67EE867A76EEA77AF7EE006A77EE14
:10466000A67A27EE277A38E007EE100AF8EE476AB6
:104670009FED466A86EE267A414B1B6BC3F3080317
:1046800006EE903AF8EE666A9FED3F6A67EE867A2C
:1046900076EEA77AF7EE006A77EEA67A27EE277A0B
:1046A0001BE007EE100AF8EE476A9FED396A86EEC6
:1046B000267A334B1B6BC3F3080306EE903AF8EEF1
:1046C000666A9FED316A67EE867A76EEA77AF7EE34
:1046D000006A77EEA67A27EE277A294B1B6BC3F385
:1046E0004623013307EE903AF8EE677AC7EE276A61
:1046F000FCEEE67A17EE900A5DF8044B704707EE81
:10470000100AF8EE476A9FED236A86EE267A1C4B64
:104710001B6BC3F3080306EE903AF8EE666A9FED52
:104720001A6A67EE867A76EEA77AF7EE006A77EE77
:10473000A67A27EE277AD0E707EE100AF8EE476A46
:104740009FED136A86EE267A0D4B1B6BC3F30803AD
:1047500006EE903AF8EE666A9FED0B6A67EE867A8F
:1047600076EEA77AF7EE006A77EEA67A27EE277A3A
:10477000B3E709487047094870470248704700BFCF
:10478000004402580090D003000000390024744C0B
:104790000024744A20BCBE4B40787D0100093D00D6
:1047A000002800F0328170B50D4604469B4B1B6813
:1047B00003F00F038B420BD2984A136823F00F03C8
:1047C0000B431360136803F00F038B4240F01F810B
:1047D000236813F0040F0CD02269914B9B6903F0FE
:1047E00070039A4205D98E498B6923F070031A43EE
:1047F0008A61236813F0080F0CD06269884BDB696B
:1048000003F070039A4205D98549CB6923F0700300
:104810001A43CA61236813F0100F0CD0A269804BB1
:10482000DB6903F4E0639A4205D97D49CB6923F43F
:10483000E0631A43CA61236813F0200F0CD0E269C9
:10484000774B1B6A03F070039A4205D974490B6ACF
:1048500023F070031A430A62236813F0020F0CD08E
:10486000E2686F4B9B6903F00F039A4205D96C49CC
:104870008B6923F00F031A438A61236813F0010F39
:1048800041D0674A936923F47063A1680B43936135
:104890006368022B0AD0032B27D0012B2CD0604A4F
:1048A000126812F0040F06D10120ADE0126812F474
:1048B000003F00F0AE805A490A6922F00702134314
:1048C0000B61FDF705FC0646554B1B6903F03803E9
:1048D0006268B3EBC20F16D0FDF7FAFB801B41F202
:1048E00088339842F0D903208EE04D4A126812F0C6
:1048F000007FE0D1012087E0494A126812F4807FEE
:10490000D9D1012080E0236813F0020F0CD0E268B7
:10491000434B9B6903F00F039A4205D240498B69D0
:1049200023F00F031A438A613C4B1B6803F00F030B
:10493000AB420AD9394A136823F00F032B431360A3
:10494000136803F00F03AB4265D1236813F0040F23
:104950000CD02269324B9B6903F070039A4205D256
:104960002F498B6923F070031A438A61236813F07F
:10497000080F0CD062692A4BDB6903F070039A427E
:1049800005D22749CB6923F070031A43CA61236813
:1049900013F0100F0CD0A269214BDB6903F4E06324
:1049A0009A4205D21E49CB6923F4E0631A43CA61D7
:1049B000236813F0200F0CD0E269194B1B6A03F037
:1049C00070039A4205D216490B6A23F070031A430A
:1049D0000A62FFF7E9FD12498B69C3F30323114A09
:1049E000D35C03F01F03D8408B6903F00F03D35C43
:1049F00003F01F0320FA03F30B4A13600B4B1860FC
:104A00000B4B1868FDF702FB70BD012070470120B9
:104A1000FAE70120F8E70120F6E700BF0020005286
:104A20000044025854C80008000000240400002478
:104A30000C01002408B5FFF7B7FD0B4A9369C3F3D7
:104A400003230A49CB5C03F01F0320FA03F39269A6
:104A500002F00F02885C00F01F0023FA00F0044A05
:104A60001060044A136008BD0044025854C800088E
:104A7000000000240400002408B5FFF7DBFF054B0D
:104A8000DB69C3F30213044AD35C03F01F03D8406D
:104A900008BD00BF0044025854C8000808B5FFF71D
:104AA000C9FF054BDB69C3F30223044AD35C03F05F
:104AB0001F03D84008BD00BF0044025854C8000876
:104AC000404B9B6A03F00303032B79D070B5054676
:104AD0000E463C4A136823F080631360FDF7F8FA32
:104AE0000446384B1B6813F0006F06D0FDF7F0FA50
:104AF000031B022BF5D9032070BD324B9A6A22F4B6
:104B00007C32296842EA01329A626A68013AC2F349
:104B10000802A9680139490289B20A43E9680139E2
:104B2000090401F4FE010A4329690139090601F06B
:104B3000FE410A439A63DA6A22F0C00269690A43B5
:104B4000DA62DA6A22F02002A9690A43DA62DA6AD2
:104B500022F01002DA62DA6B6FF3CF02E96942EAFF
:104B6000C102DA63DA6A42F01002DA62C6B91A46A2
:104B7000DB6A43F40023D362124A136843F0806374
:104B80001360FDF7A5FA04460E4B1B6813F0006F87
:104B900014D1FDF79DFA001B0228F5D90320ABE7DD
:104BA000012E05D0074AD36A43F40013D362E3E72A
:104BB000044AD36A43F48013D362DDE700209BE705
:104BC0000120704700440258404B9B6A03F00303E6
:104BD000032B79D070B505460E463C4A136823F086
:104BE00080531360FDF774FA0446384B1B6813F0CA
:104BF000005F06D0FDF76CFA031B022BF5D90320EA
:104C000070BD324B9A6A22F07C72296842EA0152E6
:104C10009A626A68013AC2F30802A9680139490236
:104C200089B20A43E9680139090401F4FE010A4323
:104C300029690139090601F0FE410A431A64DA6A5A
:104C400022F4406269690A43DA62DA6A22F4007285
:104C5000A9690A43DA62DA6A22F48072DA625A6C6B
:104C60006FF3CF02E96942EAC1025A64DA6A42F498
:104C70008072DA62C6B91A46DB6A43F48003D362F3
:104C8000124A136843F080531360FDF721FA04467B
:104C90000E4B1B6813F0005F14D1FDF719FA001BCF
:104CA0000228F5D90320ABE7012E05D0074AD36AC5
:104CB00043F08073D362E3E7044AD36A43F400030A
:104CC000D362DDE700209BE70120704700440258D3
:104CD000F8B50446036813F0006F30D0836EB3F567
:104CE000001F26D00ED8ABB1B3F5801F07D102212B
:104CF0000830FFF7E5FE054695B12E4621E0012676
:104D000035461EE0B3F5401F01D1002508E001261D
:104D1000354616E0984AD36A43F40033D36200253F
:104D2000954A136D23F44013A16E0B4313650026BF
:104D300007E002212830FFF747FF0546DCE70026A1
:104D40003546236813F4807F14D0A36D042B31D82B
:104D5000DFE803F0032229080800874AD36A43F4F6
:104D60000033D3624DBB844A136D23F00703A16D5A
:104D70000B431365236813F4007F38D0E36D802B59
:104D80004AD01FD833B3402B19D1002104F10800B9
:104D9000FFF796FE054622E0002104F10800FFF728
:104DA0008FFE0546DEE7002104F12800FFF70CFF27
:104DB0000546D7E701263546DCE72E46DAE7012629
:104DC000354614E0C02B0AD0B3F5807F07D001260A
:104DD00035460CE0684AD36A43F40033D36215BB0E
:104DE000654A136D23F4E073E16D0B43136523688B
:104DF00013F4806F3CD0D4F8A830B3F5800F2FD0D7
:104E000016D8F3B1B3F5001F0FD1002104F108004B
:104E1000FFF756FE054619E0002104F12800FFF7D0
:104E2000D3FE0546DBE72E46E1E7012635461FE0C7
:104E3000B3F5C00F0AD0B3F5000F07D001263546F1
:104E400016E04D4AD36A43F40033D3627DB94A4A2F
:104E5000936D23F46003D4F8A8100B43936507E027
:104E6000002104F12800FFF7AFFE0546EEE72E46CD
:104E7000236813F4006F2BD0D4F8AC30B3F1007F6B
:104E800053D00DD8ABB1B3F1807F06D1002104F12E
:104E90000800FFF715FE054610E00126354617E02D
:104EA000B3F1407F0AD0B3F1806F07D001263546B9
:104EB0000EE0314AD36A43F40033D362002D3BD174
:104EC0002D4A936D23F0E063D4F8AC100B43936547
:104ED000236813F0007F13D0E36C202B36D030D83A
:104EE00033B1102B2AD1244AD36A43F40033D3625E
:104EF0009DBB214AD36C23F03003E16C0B43D36498
:104F0000236813F4805F47D0236EB3F5005F00F091
:104F10008D8027D893B3B3F5805F20D1002104F1B1
:104F20000800FFF7CDFD05462DE0002104F1280023
:104F3000FFF74AFE0546C1E72E46C9E7012635467A
:104F4000DEE7302BD4D001263546D9E7022104F123
:104F50000800FFF7B5FD0546CAE72E46D0E7012653
:104F6000354619E0B3F5405F0DD0B3F5804F0AD058
:104F70000126354610E000BF00440258774AD36A44
:104F800043F40033D362002D57D1744A136D23F4D8
:104F9000E043216E0B431365236813F4005F17D0C1
:104FA000636EB3F5003F59D04CD843B1B3F5803FA1
:104FB00045D1012104F10800FFF782FD0546002DCF
:104FC00053D1664A136D23F4E023616E0B431365DE
:104FD000236813F4804F19D0D4F8B030B3F1005FD8
:104FE00054D047D843B1B3F1805F40D1012104F1DF
:104FF0000800FFF765FD0546002D4ED1574A936D19
:1050000023F0E043D4F8B0100B439365236813F406
:10501000004F51D0236FB3F1805F40D0B3F1005FF8
:1050200055D0002B40D00126354645E0002104F143
:105030002800FFF7C9FD0546A5E72E46ACE7012687
:105040003546C5E7B3F5802FB9D0B3F5A02FB6D05C
:10505000B3F5403FB3D001263546B9E7012104F14D
:105060002800FFF7B1FD0546A9E72E46B0E7012667
:105070003546CBE7B3F1804FBED0B3F1A04FBBD0E4
:10508000B3F1405FB8D001263546BFE7012104F1F6
:105090002800FFF799FD0546AEE72E46B6E72F4AF2
:1050A000D36A43F40033D362C5B92C4A136D23F09D
:1050B0004053216F0B431365236813F0807F1CD08E
:1050C000A36C032B44D8DFE803F0100B3C10012144
:1050D00004F10800FFF7F4FC0546E5E72E46EBE790
:1050E0001E4AD36A43F40033D362A5BB1B4AD36C78
:1050F00023F00303A16C0B43D364236813F4800FE4
:105100002ED1236813F0010F00F0A680E36F282B47
:1051100000F2A080DFE803F08E9E9E9E9E9E9E9EE3
:10512000889E9E9E9E9E9E9E979E9E9E9E9E9E9EBC
:105130008E9E9E9E9E9E9E9E8E9E9E9E9E9E9E9EAF
:105140008E00022104F10800FFF7BAFC0546CCE707
:1051500001263546D1E72E46CFE700BF004402586E
:10516000584A136843F480731360FCF7B1FF074695
:10517000544B1B6813F4807F05D1FCF7A9FFC01BBB
:105180006428F5D90325002D4AD14F4B1B6FD4F865
:10519000B420534013F4407F0CD04B4B1A6F22F4D1
:1051A0004072196F41F480311967196F21F4803111
:1051B00019671A67D4F8B430B3F5807F15D08DBB6A
:1051C000D4F8B43003F44072B2F5407F1ED03E4AAA
:1051D000136923F47C5313613B490B6FD4F8B4205B
:1051E000C2F30B0213430B678BE7FCF771FF074613
:1051F000354B1B6F13F0020FE1D1FCF769FFC01BA9
:1052000041F288339842F3D90325D8E72E48026942
:1052100022F47C522D4901EA131313430361DBE7A7
:105220002E466EE72E466CE7012104F10800FFF7D9
:1052300047FC0546E5B9244A536D23F03803E16F76
:105240000B43536508E0012104F12800FFF7BCFC83
:105250000546EFE701263546236813F0020F17D005
:10526000A36F052B29D8DFE803F00B05210B0B0BEF
:105270002E46F1E7012104F10800FFF721FC054665
:10528000F5B9114A536D23F00703A16F0B43536522
:10529000236813F0040F2CD0D4F89430052B00F2BF
:1052A000DC80DFE803F01B15D31B1B1B012104F17D
:1052B0002800FFF789FC0546E2E701263546E7E7C7
:1052C0002E46E5E70048025800440258CFFFFF0091
:1052D000012104F10800FFF7F3FB0546002D40F023
:1052E000BF80B34A936D23F00703D4F894100B43A7
:1052F0009365236813F0200F1DD0D4F89030B3F1DC
:10530000005F00F0C18000F2B0804BB1B3F1805F6C
:1053100040F0A880002104F10800FFF7D1FB05460A
:10532000002D40F0B880A24A536D23F0E043D4F83A
:1053300090100B435365236813F0400F1DD0D4F831
:105340009C30B3F5006F00F0BA8000F2A9804BB139
:10535000B3F5806F40F0A180002104F10800FFF751
:10536000AFFB0546002D40F0B180914A936D23F4C8
:10537000E053D4F89C100B439365236813F0800F1F
:105380001DD0D4F8A030B3F5804F00F0B38000F208
:10539000A2804BB1B3F5005F40F09A80002104F188
:1053A0000800FFF78DFB0546002D40F0AA80804ADB
:1053B000936D23F46043D4F8A0100B4393652368E6
:1053C00013F0080F0DD0D4F88430B3F5805F00F0EF
:1053D0009A80774A536D23F44053D4F884100B43DA
:1053E0005365236813F0100F0DD0D4F89830B3F53F
:1053F000807F00F092806E4A936D23F44073D4F85E
:1054000098100B439365236813F4002F00F09A80E3
:10541000D4F8A430B3F5803F00F08980B3F5003FA5
:1054200008D0002B40F08A80002104F10800FFF72B
:1054300047FB0546002D40F084805D4A936D23F4C0
:105440004033D4F8A4100B4393657BE0012104F1B1
:105450002800FFF7B9FB054640E70126354648E737
:105460002E4646E70126354665E7B3F1804F3FF407
:1054700057AFB3F1A04F3FF453AFB3F1405F3FF4E8
:105480004FAF0126354656E7022104F12800FFF709
:105490009BFB054644E72E464DE7012635466CE763
:1054A000B3F5805F3FF45EAFB3F5A05F3FF45AAF52
:1054B000B3F5406F3FF456AF012635465DE7022154
:1054C00004F12800FFF780FB05464BE72E4654E722
:1054D0000126354673E7B3F5004F3FF465AFB3F5EA
:1054E000204F3FF461AFB3F5C04F3FF45DAF0126ED
:1054F000354664E7022104F12800FFF765FB054605
:1055000052E72E465BE7022104F12800FFF75CFB1F
:1055100000283FF45EAF01265BE7022104F128007A
:10552000FFF752FB00283FF466AF012663E7022134
:1055300004F12800FFF748FB05467BE701263546C6
:1055400000E02E46236813F4802F18D0D4F888305A
:10555000B3F5001F1FD0B3F5401F07D0B3F5801F70
:1055600020D1134AD36A43F40033D362EDB9104A11
:10557000536D23F44013D4F888100B43536523680C
:1055800013F4803F2CD0236DA3B1B3F5803F1FD01F
:105590000126354624E0012104F12800FFF714FB21
:1055A0000546E3E701263546E9E72E46E7E700BF73
:1055B00000440258704AD36A43F40033D36275B989
:1055C0006D4AD36C23F48033216D0B43D36407E021
:1055D000022104F10800FFF773FA0546EFE72E46B3
:1055E000236813F0005F11D1236813F4003F28D023
:1055F000D4F88030B3F5807F14D010D9B3F5007F94
:1056000015D0B3F5407F12D001261AE0022104F133
:105610002800FFF7D9FA0028E6D00126E4E733B1E5
:1056200001260EE0544AD36A43F40033D362002DBE
:1056300069D1514A536D23F44073D4F880100B4361
:105640005365236813F4801F06D04B4A136D23F073
:105650000043616F0B431365236813F0805F07D02D
:10566000454A136923F48043D4F8B8100B431361FF
:10567000236813F4001F06D03F4A136D23F0807394
:10568000E16E0B431365236813F0804F09D03A4B4A
:105690001A6922F400421A611A69D4F8BC100A434C
:1056A0001A612368002B06DA334AD36C23F0405387
:1056B000616D0B43D364236813F4000F07D02E4AA7
:1056C000536D23F44003D4F88C100B435365636887
:1056D00013F0010F19D1636813F0020F1ED1636834
:1056E00013F0040F23D1636813F0080F28D1636807
:1056F00013F0100F2DD1636813F0200F32D106B1D3
:1057000001263046F8BD2E469BE7002104F1080033
:10571000FFF7D6F90028DED00646DCE7012104F1C8
:105720000800FFF7CDF90028D9D00646D7E70221B7
:1057300004F10800FFF7C4F90028D4D00646D2E7E8
:10574000002104F12800FFF73FFA0028CFD00646D9
:10575000CDE7012104F12800FFF736FA0028CAD06E
:105760000646C8E7022104F12800FFF72DFA0028B9
:10577000C5D00126C5E700BF0044025808B5FFF7B1
:1057800059F9054B1B6AC3F30213044AD35C03F0B7
:105790001F03D84008BD00BF0044025854C8000889
:1057A00010B4794B9A6A9C6AC4F3053CD96AC1F378
:1057B0000011DB6BC3F3CC0301FB03F314F47C3F58
:1057C00000F0DD8002F0030207EE903AF8EE677A0F
:1057D000012A4BD0022A00F09880002A40F0B280C3
:1057E000694B1B6813F0200F23D067490A68C2F386
:1057F000C102664BD34007EE103AF8EE476A07EE57
:1058000010CAB8EE476A86EE867A8B6BC3F308033C
:1058100006EE903AF8EE666A9FED5D6A67EE867A6C
:1058200076EEA77AF7EE006A77EEA67A27EE277A69
:1058300038E007EE10CAF8EE476A9FED566A86EE2A
:10584000267A514B9B6BC3F3080306EE903AF8EEB1
:10585000666A9FED4F6A67EE867A76EEA77AF7EE74
:10586000006A77EEA67A27EE277A1BE007EE10CAC9
:10587000F8EE476A9FED486A86EE267A424B9B6BAC
:10588000C3F3080306EE903AF8EE666A9FED406AAD
:1058900067EE867A76EEA77AF7EE006A77EEA67A5A
:1058A00027EE277A384A936BC3F3462307EE903AE4
:1058B000F8EE677AF7EE006A77EEA67A87EE276A47
:1058C000BCEEC66A80ED006A936BC3F3064307EE35
:1058D000903AF8EE677A77EEA67A87EE276ABCEE02
:1058E000C66A80ED016A936BC3F3066307EE903AD4
:1058F000F8EE677A77EEA67AC7EE276AFCEEE66ADC
:10590000C0ED026A5DF8044B704707EE10CAF8EE6E
:10591000476A9FED226A86EE267A1B4B9B6BC3F388
:10592000080306EE903AF8EE666A9FED196A67EE94
:10593000867A76EEA77AF7EE006A77EEA67A27EEF9
:10594000277AAFE707EE10CAF8EE476A9FED126AB2
:1059500086EE267A0C4B9B6BC3F3080306EE903A57
:10596000F8EE666A9FED0A6A67EE867A76EEA77AA7
:10597000F7EE006A77EEA67A27EE277A92E7002301
:10598000036043608360BDE7004402580090D00389
:10599000000000390024744C0024744A20BCBE4B23
:1059A00010B4794B9A6A9C6AC4F3055CD96AC1F356
:1059B00000215B6CC3F3CC0301FB03F314F07C7F89
:1059C00000F0DD8002F0030207EE903AF8EE677A0D
:1059D000012A4BD0022A00F09880002A40F0B280C1
:1059E000694B1B6813F0200F23D067490A68C2F384
:1059F000C102664BD34007EE103AF8EE476A07EE55
:105A000010CAB8EE476A86EE867A0B6CC3F30803B9
:105A100006EE903AF8EE666A9FED5D6A67EE867A6A
:105A200076EEA77AF7EE006A77EEA67A27EE277A67
:105A300038E007EE10CAF8EE476A9FED566A86EE28
:105A4000267A514B1B6CC3F3080306EE903AF8EE2E
:105A5000666A9FED4F6A67EE867A76EEA77AF7EE72
:105A6000006A77EEA67A27EE277A1BE007EE10CAC7
:105A7000F8EE476A9FED486A86EE267A424B1B6C29
:105A8000C3F3080306EE903AF8EE666A9FED406AAB
:105A900067EE867A76EEA77AF7EE006A77EEA67A58
:105AA00027EE277A384A136CC3F3462307EE903A61
:105AB000F8EE677AF7EE006A77EEA67A87EE276A45
:105AC000BCEEC66A80ED006A136CC3F3064307EEB2
:105AD000903AF8EE677A77EEA67A87EE276ABCEE00
